{
  "contractName": "CrowdsaleToken",
  "abi": [
    {
      "constant": true,
      "inputs": [],
      "name": "name",
      "outputs": [
        {
          "name": "",
          "type": "string"
        }
      ],
      "payable": false,
      "stateMutability": "view",
      "type": "function"
    },
    {
      "constant": false,
      "inputs": [
        {
          "name": "spender",
          "type": "address"
        },
        {
          "name": "value",
          "type": "uint256"
        }
      ],
      "name": "approve",
      "outputs": [
        {
          "name": "ok",
          "type": "bool"
        }
      ],
      "payable": false,
      "stateMutability": "nonpayable",
      "type": "function"
    },
    {
      "constant": true,
      "inputs": [],
      "name": "totalSupply",
      "outputs": [
        {
          "name": "",
          "type": "uint256"
        }
      ],
      "payable": false,
      "stateMutability": "view",
      "type": "function"
    },
    {
      "constant": false,
      "inputs": [
        {
          "name": "from",
          "type": "address"
        },
        {
          "name": "to",
          "type": "address"
        },
        {
          "name": "value",
          "type": "uint256"
        }
      ],
      "name": "transferFrom",
      "outputs": [
        {
          "name": "ok",
          "type": "bool"
        }
      ],
      "payable": false,
      "stateMutability": "nonpayable",
      "type": "function"
    },
    {
      "constant": true,
      "inputs": [],
      "name": "decimals",
      "outputs": [
        {
          "name": "",
          "type": "uint8"
        }
      ],
      "payable": false,
      "stateMutability": "view",
      "type": "function"
    },
    {
      "constant": true,
      "inputs": [],
      "name": "initialSupply",
      "outputs": [
        {
          "name": "",
          "type": "uint256"
        }
      ],
      "payable": false,
      "stateMutability": "view",
      "type": "function"
    },
    {
      "constant": true,
      "inputs": [
        {
          "name": "who",
          "type": "address"
        }
      ],
      "name": "balanceOf",
      "outputs": [
        {
          "name": "",
          "type": "uint256"
        }
      ],
      "payable": false,
      "stateMutability": "view",
      "type": "function"
    },
    {
      "constant": false,
      "inputs": [
        {
          "name": "amount",
          "type": "uint256"
        }
      ],
      "name": "burnToken",
      "outputs": [
        {
          "name": "ok",
          "type": "bool"
        }
      ],
      "payable": false,
      "stateMutability": "nonpayable",
      "type": "function"
    },
    {
      "constant": true,
      "inputs": [],
      "name": "symbol",
      "outputs": [
        {
          "name": "",
          "type": "string"
        }
      ],
      "payable": false,
      "stateMutability": "view",
      "type": "function"
    },
    {
      "constant": false,
      "inputs": [
        {
          "name": "newOwner",
          "type": "address"
        }
      ],
      "name": "changeOwner",
      "outputs": [
        {
          "name": "ok",
          "type": "bool"
        }
      ],
      "payable": false,
      "stateMutability": "nonpayable",
      "type": "function"
    },
    {
      "constant": false,
      "inputs": [
        {
          "name": "to",
          "type": "address"
        },
        {
          "name": "value",
          "type": "uint256"
        }
      ],
      "name": "transfer",
      "outputs": [
        {
          "name": "ok",
          "type": "bool"
        }
      ],
      "payable": false,
      "stateMutability": "nonpayable",
      "type": "function"
    },
    {
      "constant": true,
      "inputs": [
        {
          "name": "owner",
          "type": "address"
        },
        {
          "name": "spender",
          "type": "address"
        }
      ],
      "name": "allowance",
      "outputs": [
        {
          "name": "",
          "type": "uint256"
        }
      ],
      "payable": false,
      "stateMutability": "view",
      "type": "function"
    },
    {
      "constant": true,
      "inputs": [],
      "name": "token",
      "outputs": [
        {
          "name": "initialized",
          "type": "bool"
        },
        {
          "name": "name",
          "type": "string"
        },
        {
          "name": "symbol",
          "type": "string"
        },
        {
          "name": "totalSupply",
          "type": "uint256"
        },
        {
          "name": "initialSupply",
          "type": "uint256"
        },
        {
          "name": "owner",
          "type": "address"
        },
        {
          "name": "decimals",
          "type": "uint8"
        },
        {
          "name": "stillMinting",
          "type": "bool"
        }
      ],
      "payable": false,
      "stateMutability": "view",
      "type": "function"
    },
    {
      "inputs": [
        {
          "name": "owner",
          "type": "address"
        },
        {
          "name": "name",
          "type": "string"
        },
        {
          "name": "symbol",
          "type": "string"
        },
        {
          "name": "decimals",
          "type": "uint8"
        },
        {
          "name": "initialSupply",
          "type": "uint256"
        },
        {
          "name": "allowMinting",
          "type": "bool"
        }
      ],
      "payable": false,
      "stateMutability": "nonpayable",
      "type": "constructor"
    }
  ],
  "bytecode": "0x6060604052341561000f57600080fd5b6040516110c83803806110c883398101604052808051906020019091908051820191906020018051820191906020018051906020019091908051906020019091908051906020019091905050600073__TokenLib______________________________639329297290918888888888886040518863ffffffff167c0100000000000000000000000000000000000000000000000000000000028152600401808881526020018773ffffffffffffffffffffffffffffffffffffffff1673ffffffffffffffffffffffffffffffffffffffff16815260200180602001806020018660ff1660ff16815260200185815260200184151515158152602001838103835288818151815260200191508051906020019080838360005b83811015610142578082015181840152602081019050610127565b50505050905090810190601f16801561016f5780820380516001836020036101000a031916815260200191505b50838103825287818151815260200191508051906020019080838360005b838110156101a857808201518184015260208101905061018d565b50505050905090810190601f1680156101d55780820380516001836020036101000a031916815260200191505b50995050505050505050505060006040518083038186803b15156101f857600080fd5b6102c65a03f4151561020957600080fd5b505050505050505050610ea7806102216000396000f3006060604052600436106100c5576000357c0100000000000000000000000000000000000000000000000000000000900463ffffffff16806306fdde03146100ca578063095ea7b31461015857806318160ddd146101b257806323b872dd146101db578063313ce56714610254578063378dc3dc1461028357806370a08231146102ac5780637b47ec1a146102f957806395d89b4114610334578063a6f9dae1146103c2578063a9059cbb14610413578063dd62ed3e1461046d578063fc0c546a146104d9575b600080fd5b34156100d557600080fd5b6100dd610671565b6040518080602001828103825283818151815260200191508051906020019080838360005b8381101561011d578082015181840152602081019050610102565b50505050905090810190601f16801561014a5780820380516001836020036101000a031916815260200191505b509250505060405180910390f35b341561016357600080fd5b610198600480803573ffffffffffffffffffffffffffffffffffffffff1690602001909190803590602001909190505061071c565b604051808215151515815260200191505060405180910390f35b34156101bd57600080fd5b6101c56107f2565b6040518082815260200191505060405180910390f35b34156101e657600080fd5b61023a600480803573ffffffffffffffffffffffffffffffffffffffff1690602001909190803573ffffffffffffffffffffffffffffffffffffffff169060200190919080359060200190919050506107fe565b604051808215151515815260200191505060405180910390f35b341561025f57600080fd5b610267610909565b604051808260ff1660ff16815260200191505060405180910390f35b341561028e57600080fd5b610296610922565b6040518082815260200191505060405180910390f35b34156102b757600080fd5b6102e3600480803573ffffffffffffffffffffffffffffffffffffffff1690602001909190505061092e565b6040518082815260200191505060405180910390f35b341561030457600080fd5b61031a60048080359060200190919050506109fb565b604051808215151515815260200191505060405180910390f35b341561033f57600080fd5b610347610a9c565b6040518080602001828103825283818151815260200191508051906020019080838360005b8381101561038757808201518184015260208101905061036c565b50505050905090810190601f1680156103b45780820380516001836020036101000a031916815260200191505b509250505060405180910390f35b34156103cd57600080fd5b6103f9600480803573ffffffffffffffffffffffffffffffffffffffff16906020019091905050610b47565b604051808215151515815260200191505060405180910390f35b341561041e57600080fd5b610453600480803573ffffffffffffffffffffffffffffffffffffffff16906020019091908035906020019091905050610c14565b604051808215151515815260200191505060405180910390f35b341561047857600080fd5b6104c3600480803573ffffffffffffffffffffffffffffffffffffffff1690602001909190803573ffffffffffffffffffffffffffffffffffffffff16906020019091905050610cea565b6040518082815260200191505060405180910390f35b34156104e457600080fd5b6104ec610dec565b604051808915151515815260200180602001806020018881526020018781526020018673ffffffffffffffffffffffffffffffffffffffff1673ffffffffffffffffffffffffffffffffffffffff1681526020018560ff1660ff1681526020018415151515815260200183810383528a8181546001816001161561010002031660029004815260200191508054600181600116156101000203166002900480156105d75780601f106105ac576101008083540402835291602001916105d7565b820191906000526020600020905b8154815290600101906020018083116105ba57829003601f168201915b505083810382528981815460018160011615610100020316600290048152602001915080546001816001161561010002031660029004801561065a5780601f1061062f5761010080835404028352916020019161065a565b820191906000526020600020905b81548152906001019060200180831161063d57829003601f168201915b50509a505050505050505050505060405180910390f35b610679610e67565b60006003018054600181600116156101000203166002900480601f0160208091040260200160405190810160405280929190818152602001828054600181600116156101000203166002900480156107125780601f106106e757610100808354040283529160200191610712565b820191906000526020600020905b8154815290600101906020018083116106f557829003601f168201915b5050505050905090565b60008073__TokenLib______________________________638ca979ca909185856000604051602001526040518463ffffffff167c0100000000000000000000000000000000000000000000000000000000028152600401808481526020018373ffffffffffffffffffffffffffffffffffffffff1673ffffffffffffffffffffffffffffffffffffffff168152602001828152602001935050505060206040518083038186803b15156107cf57600080fd5b6102c65a03f415156107e057600080fd5b50505060405180519050905092915050565b60008060050154905090565b60008073__TokenLib______________________________6321a6a23d90918686866000604051602001526040518563ffffffff167c0100000000000000000000000000000000000000000000000000000000028152600401808581526020018473ffffffffffffffffffffffffffffffffffffffff1673ffffffffffffffffffffffffffffffffffffffff1681526020018373ffffffffffffffffffffffffffffffffffffffff1673ffffffffffffffffffffffffffffffffffffffff16815260200182815260200194505050505060206040518083038186803b15156108e557600080fd5b6102c65a03f415156108f657600080fd5b5050506040518051905090509392505050565b60008060070160149054906101000a900460ff16905090565b60008060060154905090565b60008073__TokenLib______________________________633af00d0f9091846000604051602001526040518363ffffffff167c0100000000000000000000000000000000000000000000000000000000028152600401808381526020018273ffffffffffffffffffffffffffffffffffffffff1673ffffffffffffffffffffffffffffffffffffffff1681526020019250505060206040518083038186803b15156109d957600080fd5b6102c65a03f415156109ea57600080fd5b505050604051805190509050919050565b60008073__TokenLib______________________________636269321c9091846000604051602001526040518363ffffffff167c0100000000000000000000000000000000000000000000000000000000028152600401808381526020018281526020019250505060206040518083038186803b1515610a7a57600080fd5b6102c65a03f41515610a8b57600080fd5b505050604051805190509050919050565b610aa4610e67565b60006004018054600181600116156101000203166002900480601f016020809104026020016040519081016040528092919081815260200182805460018160011615610100020316600290048015610b3d5780601f10610b1257610100808354040283529160200191610b3d565b820191906000526020600020905b815481529060010190602001808311610b2057829003601f168201915b5050505050905090565b60008073__TokenLib______________________________636f71ca3c9091846000604051602001526040518363ffffffff167c0100000000000000000000000000000000000000000000000000000000028152600401808381526020018273ffffffffffffffffffffffffffffffffffffffff1673ffffffffffffffffffffffffffffffffffffffff1681526020019250505060206040518083038186803b1515610bf257600080fd5b6102c65a03f41515610c0357600080fd5b505050604051805190509050919050565b60008073__TokenLib______________________________63d4b1770a909185856000604051602001526040518463ffffffff167c0100000000000000000000000000000000000000000000000000000000028152600401808481526020018373ffffffffffffffffffffffffffffffffffffffff1673ffffffffffffffffffffffffffffffffffffffff168152602001828152602001935050505060206040518083038186803b1515610cc757600080fd5b6102c65a03f41515610cd857600080fd5b50505060405180519050905092915050565b60008073__TokenLib______________________________63ac9b44f7909185856000604051602001526040518463ffffffff167c0100000000000000000000000000000000000000000000000000000000028152600401808481526020018373ffffffffffffffffffffffffffffffffffffffff1673ffffffffffffffffffffffffffffffffffffffff1681526020018273ffffffffffffffffffffffffffffffffffffffff1673ffffffffffffffffffffffffffffffffffffffff168152602001935050505060206040518083038186803b1515610dc957600080fd5b6102c65a03f41515610dda57600080fd5b50505060405180519050905092915050565b60008060000160009054906101000a900460ff1690806003019080600401908060050154908060060154908060070160009054906101000a900473ffffffffffffffffffffffffffffffffffffffff16908060070160149054906101000a900460ff16908060070160159054906101000a900460ff16905088565b6020604051908101604052806000815250905600a165627a7a72305820da5edce233117d764b13049b2609307172634670d4abe68bcc4b0cf764d8a0670029",
  "deployedBytecode": "0x6060604052600436106100c5576000357c0100000000000000000000000000000000000000000000000000000000900463ffffffff16806306fdde03146100ca578063095ea7b31461015857806318160ddd146101b257806323b872dd146101db578063313ce56714610254578063378dc3dc1461028357806370a08231146102ac5780637b47ec1a146102f957806395d89b4114610334578063a6f9dae1146103c2578063a9059cbb14610413578063dd62ed3e1461046d578063fc0c546a146104d9575b600080fd5b34156100d557600080fd5b6100dd610671565b6040518080602001828103825283818151815260200191508051906020019080838360005b8381101561011d578082015181840152602081019050610102565b50505050905090810190601f16801561014a5780820380516001836020036101000a031916815260200191505b509250505060405180910390f35b341561016357600080fd5b610198600480803573ffffffffffffffffffffffffffffffffffffffff1690602001909190803590602001909190505061071c565b604051808215151515815260200191505060405180910390f35b34156101bd57600080fd5b6101c56107f2565b6040518082815260200191505060405180910390f35b34156101e657600080fd5b61023a600480803573ffffffffffffffffffffffffffffffffffffffff1690602001909190803573ffffffffffffffffffffffffffffffffffffffff169060200190919080359060200190919050506107fe565b604051808215151515815260200191505060405180910390f35b341561025f57600080fd5b610267610909565b604051808260ff1660ff16815260200191505060405180910390f35b341561028e57600080fd5b610296610922565b6040518082815260200191505060405180910390f35b34156102b757600080fd5b6102e3600480803573ffffffffffffffffffffffffffffffffffffffff1690602001909190505061092e565b6040518082815260200191505060405180910390f35b341561030457600080fd5b61031a60048080359060200190919050506109fb565b604051808215151515815260200191505060405180910390f35b341561033f57600080fd5b610347610a9c565b6040518080602001828103825283818151815260200191508051906020019080838360005b8381101561038757808201518184015260208101905061036c565b50505050905090810190601f1680156103b45780820380516001836020036101000a031916815260200191505b509250505060405180910390f35b34156103cd57600080fd5b6103f9600480803573ffffffffffffffffffffffffffffffffffffffff16906020019091905050610b47565b604051808215151515815260200191505060405180910390f35b341561041e57600080fd5b610453600480803573ffffffffffffffffffffffffffffffffffffffff16906020019091908035906020019091905050610c14565b604051808215151515815260200191505060405180910390f35b341561047857600080fd5b6104c3600480803573ffffffffffffffffffffffffffffffffffffffff1690602001909190803573ffffffffffffffffffffffffffffffffffffffff16906020019091905050610cea565b6040518082815260200191505060405180910390f35b34156104e457600080fd5b6104ec610dec565b604051808915151515815260200180602001806020018881526020018781526020018673ffffffffffffffffffffffffffffffffffffffff1673ffffffffffffffffffffffffffffffffffffffff1681526020018560ff1660ff1681526020018415151515815260200183810383528a8181546001816001161561010002031660029004815260200191508054600181600116156101000203166002900480156105d75780601f106105ac576101008083540402835291602001916105d7565b820191906000526020600020905b8154815290600101906020018083116105ba57829003601f168201915b505083810382528981815460018160011615610100020316600290048152602001915080546001816001161561010002031660029004801561065a5780601f1061062f5761010080835404028352916020019161065a565b820191906000526020600020905b81548152906001019060200180831161063d57829003601f168201915b50509a505050505050505050505060405180910390f35b610679610e67565b60006003018054600181600116156101000203166002900480601f0160208091040260200160405190810160405280929190818152602001828054600181600116156101000203166002900480156107125780601f106106e757610100808354040283529160200191610712565b820191906000526020600020905b8154815290600101906020018083116106f557829003601f168201915b5050505050905090565b60008073__TokenLib______________________________638ca979ca909185856000604051602001526040518463ffffffff167c0100000000000000000000000000000000000000000000000000000000028152600401808481526020018373ffffffffffffffffffffffffffffffffffffffff1673ffffffffffffffffffffffffffffffffffffffff168152602001828152602001935050505060206040518083038186803b15156107cf57600080fd5b6102c65a03f415156107e057600080fd5b50505060405180519050905092915050565b60008060050154905090565b60008073__TokenLib______________________________6321a6a23d90918686866000604051602001526040518563ffffffff167c0100000000000000000000000000000000000000000000000000000000028152600401808581526020018473ffffffffffffffffffffffffffffffffffffffff1673ffffffffffffffffffffffffffffffffffffffff1681526020018373ffffffffffffffffffffffffffffffffffffffff1673ffffffffffffffffffffffffffffffffffffffff16815260200182815260200194505050505060206040518083038186803b15156108e557600080fd5b6102c65a03f415156108f657600080fd5b5050506040518051905090509392505050565b60008060070160149054906101000a900460ff16905090565b60008060060154905090565b60008073__TokenLib______________________________633af00d0f9091846000604051602001526040518363ffffffff167c0100000000000000000000000000000000000000000000000000000000028152600401808381526020018273ffffffffffffffffffffffffffffffffffffffff1673ffffffffffffffffffffffffffffffffffffffff1681526020019250505060206040518083038186803b15156109d957600080fd5b6102c65a03f415156109ea57600080fd5b505050604051805190509050919050565b60008073__TokenLib______________________________636269321c9091846000604051602001526040518363ffffffff167c0100000000000000000000000000000000000000000000000000000000028152600401808381526020018281526020019250505060206040518083038186803b1515610a7a57600080fd5b6102c65a03f41515610a8b57600080fd5b505050604051805190509050919050565b610aa4610e67565b60006004018054600181600116156101000203166002900480601f016020809104026020016040519081016040528092919081815260200182805460018160011615610100020316600290048015610b3d5780601f10610b1257610100808354040283529160200191610b3d565b820191906000526020600020905b815481529060010190602001808311610b2057829003601f168201915b5050505050905090565b60008073__TokenLib______________________________636f71ca3c9091846000604051602001526040518363ffffffff167c0100000000000000000000000000000000000000000000000000000000028152600401808381526020018273ffffffffffffffffffffffffffffffffffffffff1673ffffffffffffffffffffffffffffffffffffffff1681526020019250505060206040518083038186803b1515610bf257600080fd5b6102c65a03f41515610c0357600080fd5b505050604051805190509050919050565b60008073__TokenLib______________________________63d4b1770a909185856000604051602001526040518463ffffffff167c0100000000000000000000000000000000000000000000000000000000028152600401808481526020018373ffffffffffffffffffffffffffffffffffffffff1673ffffffffffffffffffffffffffffffffffffffff168152602001828152602001935050505060206040518083038186803b1515610cc757600080fd5b6102c65a03f41515610cd857600080fd5b50505060405180519050905092915050565b60008073__TokenLib______________________________63ac9b44f7909185856000604051602001526040518463ffffffff167c0100000000000000000000000000000000000000000000000000000000028152600401808481526020018373ffffffffffffffffffffffffffffffffffffffff1673ffffffffffffffffffffffffffffffffffffffff1681526020018273ffffffffffffffffffffffffffffffffffffffff1673ffffffffffffffffffffffffffffffffffffffff168152602001935050505060206040518083038186803b1515610dc957600080fd5b6102c65a03f41515610dda57600080fd5b50505060405180519050905092915050565b60008060000160009054906101000a900460ff1690806003019080600401908060050154908060060154908060070160009054906101000a900473ffffffffffffffffffffffffffffffffffffffff16908060070160149054906101000a900460ff16908060070160159054906101000a900460ff16905088565b6020604051908101604052806000815250905600a165627a7a72305820da5edce233117d764b13049b2609307172634670d4abe68bcc4b0cf764d8a0670029",
  "source": "pragma solidity ^0.4.15;\n\nimport \"./TokenLib.sol\";\n\n/**\n * Standard ERC20 token\n *\n * https://github.com/ethereum/EIPs/issues/20\n * Based on code by FirstBlood:\n * https://github.com/Firstbloodio/token/blob/master/smart_contract/FirstBloodToken.sol\n *\n * This is an example token contract built using the Majoolr token library at\n * https://github.com/Majoolr/ethereum-libraries/tree/master/TokenLib. This\n * example does not use all of the functionality available, it is only\n * a barebones example of a basic ERC20 token contract.\n *\n * Majoolr provides smart contract services and security reviews for contract\n * deployments in addition to working on open source projects in the Ethereum\n * community. Our purpose is to test, document, and deploy reusable code onto the\n * blockchain and improve both security and usability. We also educate non-profits,\n * schools, and other community members about the application of blockchain\n * technology. For further information: majoolr.io\n *\n * THE SOFTWARE IS PROVIDED \"AS IS\", WITHOUT WARRANTY OF ANY KIND, EXPRESS\n * OR IMPLIED, INCLUDING BUT NOT LIMITED TO THE WARRANTIES OF\n * MERCHANTABILITY, FITNESS FOR A PARTICULAR PURPOSE AND NONINFRINGEMENT.\n * IN NO EVENT SHALL THE AUTHORS OR COPYRIGHT HOLDERS BE LIABLE FOR ANY\n * CLAIM, DAMAGES OR OTHER LIABILITY, WHETHER IN AN ACTION OF CONTRACT,\n * TORT OR OTHERWISE, ARISING FROM, OUT OF OR IN CONNECTION WITH THE\n * SOFTWARE OR THE USE OR OTHER DEALINGS IN THE SOFTWARE.\n */\n\ncontract CrowdsaleToken {\n  using TokenLib for TokenLib.TokenStorage;\n\n  TokenLib.TokenStorage public token;\n\n  function CrowdsaleToken(address owner,\n                                string name,\n                                string symbol,\n                                uint8 decimals,\n                                uint256 initialSupply,\n                                bool allowMinting) public\n  {\n    token.init(owner, name, symbol, decimals, initialSupply, allowMinting);\n  }\n\n  function name() public view returns (string) {\n    return token.name;\n  }\n\n  function symbol() public view returns (string) {\n    return token.symbol;\n  }\n\n  function decimals() public view returns (uint8) {\n    return token.decimals;\n  }\n\n  function totalSupply() public view returns (uint256) {\n    return token.totalSupply;\n  }\n\n  function initialSupply() public view returns (uint256) {\n    return token.initialSupply;\n  }\n\n  function balanceOf(address who) public view returns (uint256) {\n    return token.balanceOf(who);\n  }\n\n  function allowance(address owner, address spender) public view returns (uint256) {\n    return token.allowance(owner, spender);\n  }\n\n  function transfer(address to, uint value) public returns (bool ok) {\n    return token.transfer(to, value);\n  }\n\n  function transferFrom(address from, address to, uint value) public returns (bool ok) {\n    return token.transferFrom(from, to, value);\n  }\n\n  function approve(address spender, uint value) public returns (bool ok) {\n    return token.approve(spender, value);\n  }\n\n  function changeOwner(address newOwner) public returns (bool ok) {\n    return token.changeOwner(newOwner);\n  }\n\n  function burnToken(uint256 amount) public returns (bool ok) {\n    return token.burnToken(amount);\n  }\n}\n",
  "sourcePath": "/Users/joshuahannan/repository/majoolr/ethereum-libraries/VestingLib/truffle/contracts/CrowdsaleToken.sol",
  "compiler": {
    "name": "solc",
    "version": "0.4.18+commit.9cf6e910.Emscripten.clang"
  },
  "schemaVersion": "1.0.1",
  "updatedAt": "2017-12-12T18:13:46.347Z"
}