{
  "contractName": "TokenLib",
  "abi": [
    {
      "constant": false,
      "inputs": [
        {
          "name": "self",
          "type": "TokenLib.TokenStorage storage"
        },
        {
          "name": "_from",
          "type": "address"
        },
        {
          "name": "_to",
          "type": "address"
        },
        {
          "name": "_value",
          "type": "uint256"
        }
      ],
      "name": "transferFrom",
      "outputs": [
        {
          "name": "",
          "type": "bool"
        }
      ],
      "payable": false,
      "type": "function",
      "stateMutability": "nonpayable"
    },
    {
      "constant": true,
      "inputs": [
        {
          "name": "self",
          "type": "TokenLib.TokenStorage storage"
        },
        {
          "name": "_owner",
          "type": "address"
        }
      ],
      "name": "balanceOf",
      "outputs": [
        {
          "name": "balance",
          "type": "uint256"
        }
      ],
      "payable": false,
      "type": "function",
      "stateMutability": "view"
    },
    {
      "constant": false,
      "inputs": [
        {
          "name": "self",
          "type": "TokenLib.TokenStorage storage"
        },
        {
          "name": "_amount",
          "type": "uint256"
        }
      ],
      "name": "burnToken",
      "outputs": [
        {
          "name": "",
          "type": "bool"
        }
      ],
      "payable": false,
      "type": "function",
      "stateMutability": "nonpayable"
    },
    {
      "constant": false,
      "inputs": [
        {
          "name": "self",
          "type": "TokenLib.TokenStorage storage"
        },
        {
          "name": "_newOwner",
          "type": "address"
        }
      ],
      "name": "changeOwner",
      "outputs": [
        {
          "name": "",
          "type": "bool"
        }
      ],
      "payable": false,
      "type": "function",
      "stateMutability": "nonpayable"
    },
    {
      "constant": false,
      "inputs": [
        {
          "name": "self",
          "type": "TokenLib.TokenStorage storage"
        },
        {
          "name": "_spender",
          "type": "address"
        },
        {
          "name": "_value",
          "type": "uint256"
        }
      ],
      "name": "approve",
      "outputs": [
        {
          "name": "",
          "type": "bool"
        }
      ],
      "payable": false,
      "type": "function",
      "stateMutability": "nonpayable"
    },
    {
      "constant": false,
      "inputs": [
        {
          "name": "self",
          "type": "TokenLib.TokenStorage storage"
        },
        {
          "name": "_owner",
          "type": "address"
        },
        {
          "name": "_name",
          "type": "string"
        },
        {
          "name": "_symbol",
          "type": "string"
        },
        {
          "name": "_decimals",
          "type": "uint8"
        },
        {
          "name": "_initial_supply",
          "type": "uint256"
        },
        {
          "name": "_allowMinting",
          "type": "bool"
        }
      ],
      "name": "init",
      "outputs": [],
      "payable": false,
      "type": "function",
      "stateMutability": "nonpayable"
    },
    {
      "constant": false,
      "inputs": [
        {
          "name": "self",
          "type": "TokenLib.TokenStorage storage"
        }
      ],
      "name": "closeMint",
      "outputs": [
        {
          "name": "",
          "type": "bool"
        }
      ],
      "payable": false,
      "type": "function",
      "stateMutability": "nonpayable"
    },
    {
      "constant": true,
      "inputs": [
        {
          "name": "self",
          "type": "TokenLib.TokenStorage storage"
        },
        {
          "name": "_owner",
          "type": "address"
        },
        {
          "name": "_spender",
          "type": "address"
        }
      ],
      "name": "allowance",
      "outputs": [
        {
          "name": "remaining",
          "type": "uint256"
        }
      ],
      "payable": false,
      "type": "function",
      "stateMutability": "view"
    },
    {
      "constant": false,
      "inputs": [
        {
          "name": "self",
          "type": "TokenLib.TokenStorage storage"
        },
        {
          "name": "_spender",
          "type": "address"
        },
        {
          "name": "_valueChange",
          "type": "uint256"
        },
        {
          "name": "_increase",
          "type": "bool"
        }
      ],
      "name": "approveChange",
      "outputs": [
        {
          "name": "",
          "type": "bool"
        }
      ],
      "payable": false,
      "type": "function",
      "stateMutability": "nonpayable"
    },
    {
      "constant": false,
      "inputs": [
        {
          "name": "self",
          "type": "TokenLib.TokenStorage storage"
        },
        {
          "name": "_to",
          "type": "address"
        },
        {
          "name": "_value",
          "type": "uint256"
        }
      ],
      "name": "transfer",
      "outputs": [
        {
          "name": "",
          "type": "bool"
        }
      ],
      "payable": false,
      "type": "function",
      "stateMutability": "nonpayable"
    },
    {
      "constant": false,
      "inputs": [
        {
          "name": "self",
          "type": "TokenLib.TokenStorage storage"
        },
        {
          "name": "_amount",
          "type": "uint256"
        }
      ],
      "name": "mintToken",
      "outputs": [
        {
          "name": "",
          "type": "bool"
        }
      ],
      "payable": false,
      "type": "function",
      "stateMutability": "nonpayable"
    },
    {
      "anonymous": false,
      "inputs": [
        {
          "indexed": true,
          "name": "from",
          "type": "address"
        },
        {
          "indexed": true,
          "name": "to",
          "type": "address"
        },
        {
          "indexed": false,
          "name": "value",
          "type": "uint256"
        }
      ],
      "name": "Transfer",
      "type": "event"
    },
    {
      "anonymous": false,
      "inputs": [
        {
          "indexed": true,
          "name": "owner",
          "type": "address"
        },
        {
          "indexed": true,
          "name": "spender",
          "type": "address"
        },
        {
          "indexed": false,
          "name": "value",
          "type": "uint256"
        }
      ],
      "name": "Approval",
      "type": "event"
    },
    {
      "anonymous": false,
      "inputs": [
        {
          "indexed": false,
          "name": "from",
          "type": "address"
        },
        {
          "indexed": false,
          "name": "to",
          "type": "address"
        }
      ],
      "name": "OwnerChange",
      "type": "event"
    },
    {
      "anonymous": false,
      "inputs": [
        {
          "indexed": true,
          "name": "burner",
          "type": "address"
        },
        {
          "indexed": false,
          "name": "value",
          "type": "uint256"
        }
      ],
      "name": "Burn",
      "type": "event"
    },
    {
      "anonymous": false,
      "inputs": [
        {
          "indexed": false,
          "name": "mintingClosed",
          "type": "bool"
        }
      ],
      "name": "MintingClosed",
      "type": "event"
    }
  ],
  "bytecode": "0x6060604052341561000f57600080fd5b611aa08061001e6000396000f3006060604052600436106100af576000357c0100000000000000000000000000000000000000000000000000000000900463ffffffff16806321a6a23d146100b45780633af00d0f1461012b5780636269321c146101765780636f71ca3c146101af5780638ca979ca146101fe5780639329297214610256578063a7ccd77614610333578063ac9b44f714610363578063bd03185c146103cd578063d4b1770a14610430578063f8f095f214610488575b600080fd5b610111600480803590602001909190803573ffffffffffffffffffffffffffffffffffffffff1690602001909190803573ffffffffffffffffffffffffffffffffffffffff169060200190919080359060200190919050506104c1565b604051808215151515815260200191505060405180910390f35b610160600480803590602001909190803573ffffffffffffffffffffffffffffffffffffffff169060200190919050506108b6565b6040518082815260200191505060405180910390f35b6101956004808035906020019091908035906020019091905050610902565b604051808215151515815260200191505060405180910390f35b6101e4600480803590602001909190803573ffffffffffffffffffffffffffffffffffffffff16906020019091905050610af9565b604051808215151515815260200191505060405180910390f35b61023c600480803590602001909190803573ffffffffffffffffffffffffffffffffffffffff16906020019091908035906020019091905050610c5f565b604051808215151515815260200191505060405180910390f35b610331600480803590602001909190803573ffffffffffffffffffffffffffffffffffffffff1690602001909190803590602001908201803590602001908080601f0160208091040260200160405190810160405280939291908181526020018383808284378201915050505050509190803590602001908201803590602001908080601f0160208091040260200160405190810160405280939291908181526020018383808284378201915050505050509190803560ff169060200190919080359060200190919080351515906020019091905050610deb565b005b6103496004808035906020019091905050610f35565b604051808215151515815260200191505060405180910390f35b6103b7600480803590602001909190803573ffffffffffffffffffffffffffffffffffffffff1690602001909190803573ffffffffffffffffffffffffffffffffffffffff16906020019091905050610ff7565b6040518082815260200191505060405180910390f35b610416600480803590602001909190803573ffffffffffffffffffffffffffffffffffffffff169060200190919080359060200190919080351515906020019091905050611081565b604051808215151515815260200191505060405180910390f35b61046e600480803590602001909190803573ffffffffffffffffffffffffffffffffffffffff169060200190919080359060200190919050506114ce565b604051808215151515815260200191505060405180910390f35b6104a76004808035906020019091908035906020019091905050611742565b604051808215151515815260200191505060405180910390f35b60008060008060008860020160008973ffffffffffffffffffffffffffffffffffffffff1673ffffffffffffffffffffffffffffffffffffffff16815260200190815260200160002060003373ffffffffffffffffffffffffffffffffffffffff1673ffffffffffffffffffffffffffffffffffffffff1681526020019081526020016000205493508860010160008973ffffffffffffffffffffffffffffffffffffffff1673ffffffffffffffffffffffffffffffffffffffff1681526020019081526020016000205473__BasicMathLib__________________________63f4f3bdc19091886000604051604001526040518363ffffffff167c01000000000000000000000000000000000000000000000000000000000281526004018083815260200182815260200192505050604080518083038186803b151561060757600080fd5b6102c65a03f4151561061857600080fd5b5050506040518051906020018051905080935081945050508215151561063d57600080fd5b8373__BasicMathLib__________________________63f4f3bdc19091886000604051604001526040518363ffffffff167c01000000000000000000000000000000000000000000000000000000000281526004018083815260200182815260200192505050604080518083038186803b15156106b957600080fd5b6102c65a03f415156106ca57600080fd5b505050604051805190602001805190508092508194505050821515156106ef57600080fd5b818960010160008a73ffffffffffffffffffffffffffffffffffffffff1673ffffffffffffffffffffffffffffffffffffffff16815260200190815260200160002081905550808960020160008a73ffffffffffffffffffffffffffffffffffffffff1673ffffffffffffffffffffffffffffffffffffffff16815260200190815260200160002060003373ffffffffffffffffffffffffffffffffffffffff1673ffffffffffffffffffffffffffffffffffffffff16815260200190815260200160002081905550858960010160008973ffffffffffffffffffffffffffffffffffffffff1673ffffffffffffffffffffffffffffffffffffffff16815260200190815260200160002054018960010160008973ffffffffffffffffffffffffffffffffffffffff1673ffffffffffffffffffffffffffffffffffffffff168152602001908152602001600020819055508673ffffffffffffffffffffffffffffffffffffffff168873ffffffffffffffffffffffffffffffffffffffff167fddf252ad1be2c89b69c2b068fc378daa952ba7f163c4a11628f55a4df523b3ef886040518082815260200191505060405180910390a36001945050505050949350505050565b60008260010160008373ffffffffffffffffffffffffffffffffffffffff1673ffffffffffffffffffffffffffffffffffffffff16815260200190815260200160002054905092915050565b60008060008460010160003373ffffffffffffffffffffffffffffffffffffffff1673ffffffffffffffffffffffffffffffffffffffff1681526020019081526020016000205473__BasicMathLib__________________________63f4f3bdc19091866000604051604001526040518363ffffffff167c01000000000000000000000000000000000000000000000000000000000281526004018083815260200182815260200192505050604080518083038186803b15156109c457600080fd5b6102c65a03f415156109d557600080fd5b505050604051805190602001805190508093508192505050801515156109fa57600080fd5b818560010160003373ffffffffffffffffffffffffffffffffffffffff1673ffffffffffffffffffffffffffffffffffffffff168152602001908152602001600020819055508385600501540385600501819055503373ffffffffffffffffffffffffffffffffffffffff167fcc16f5dbb4873280815c1ee09dbd06736cffcc184412cf7a71a0fdb75d397ca5856040518082815260200191505060405180910390a260003373ffffffffffffffffffffffffffffffffffffffff167fddf252ad1be2c89b69c2b068fc378daa952ba7f163c4a11628f55a4df523b3ef866040518082815260200191505060405180910390a360019250505092915050565b60003373ffffffffffffffffffffffffffffffffffffffff168360070160009054906101000a900473ffffffffffffffffffffffffffffffffffffffff1673ffffffffffffffffffffffffffffffffffffffff16148015610b70575060008273ffffffffffffffffffffffffffffffffffffffff16115b1515610b7b57600080fd5b818360070160006101000a81548173ffffffffffffffffffffffffffffffffffffffff021916908373ffffffffffffffffffffffffffffffffffffffff1602179055507f95b86f3e58bda963f355a8ee21a04376776a456ed6416bf5144202906bdc63973383604051808373ffffffffffffffffffffffffffffffffffffffff1673ffffffffffffffffffffffffffffffffffffffff1681526020018273ffffffffffffffffffffffffffffffffffffffff1673ffffffffffffffffffffffffffffffffffffffff1681526020019250505060405180910390a16001905092915050565b600080821480610ced575060008460020160003373ffffffffffffffffffffffffffffffffffffffff1673ffffffffffffffffffffffffffffffffffffffff16815260200190815260200160002060008573ffffffffffffffffffffffffffffffffffffffff1673ffffffffffffffffffffffffffffffffffffffff16815260200190815260200160002054145b1515610cf857600080fd5b818460020160003373ffffffffffffffffffffffffffffffffffffffff1673ffffffffffffffffffffffffffffffffffffffff16815260200190815260200160002060008573ffffffffffffffffffffffffffffffffffffffff1673ffffffffffffffffffffffffffffffffffffffff168152602001908152602001600020819055508273ffffffffffffffffffffffffffffffffffffffff163373ffffffffffffffffffffffffffffffffffffffff167f8c5be1e5ebec7d5bd14f71427d1e84f3dd0314c0f7b2291e5b200ac8c7c3b925846040518082815260200191505060405180910390a3600190509392505050565b8660000160009054906101000a900460ff16151515610e0957600080fd5b60018760000160006101000a81548160ff02191690831515021790555084876003019080519060200190610e3e9291906119cf565b5083876004019080519060200190610e579291906119cf565b50818760050181905550818760060181905550828760070160146101000a81548160ff021916908360ff160217905550858760070160006101000a81548173ffffffffffffffffffffffffffffffffffffffff021916908373ffffffffffffffffffffffffffffffffffffffff160217905550808760070160156101000a81548160ff021916908315150217905550818760010160008873ffffffffffffffffffffffffffffffffffffffff1673ffffffffffffffffffffffffffffffffffffffff1681526020019081526020016000208190555050505050505050565b60003373ffffffffffffffffffffffffffffffffffffffff168260070160009054906101000a900473ffffffffffffffffffffffffffffffffffffffff1673ffffffffffffffffffffffffffffffffffffffff16141515610f9557600080fd5b60008260070160156101000a81548160ff0219169083151502179055507f2a2e00be29e58e1d04ffa369d0550e1d87e844e63bfba0820362ed62738985c76001604051808215151515815260200191505060405180910390a160019050919050565b60008360020160008473ffffffffffffffffffffffffffffffffffffffff1673ffffffffffffffffffffffffffffffffffffffff16815260200190815260200160002060008373ffffffffffffffffffffffffffffffffffffffff1673ffffffffffffffffffffffffffffffffffffffff1681526020019081526020016000205490509392505050565b60008060008315611244578660020160003373ffffffffffffffffffffffffffffffffffffffff1673ffffffffffffffffffffffffffffffffffffffff16815260200190815260200160002060008773ffffffffffffffffffffffffffffffffffffffff1673ffffffffffffffffffffffffffffffffffffffff1681526020019081526020016000205473__BasicMathLib__________________________6366098d4f9091876000604051604001526040518363ffffffff167c01000000000000000000000000000000000000000000000000000000000281526004018083815260200182815260200192505050604080518083038186803b151561118657600080fd5b6102c65a03f4151561119757600080fd5b505050604051805190602001805190508093508192505050801515156111bc57600080fd5b818760020160003373ffffffffffffffffffffffffffffffffffffffff1673ffffffffffffffffffffffffffffffffffffffff16815260200190815260200160002060008873ffffffffffffffffffffffffffffffffffffffff1673ffffffffffffffffffffffffffffffffffffffff1681526020019081526020016000208190555061145b565b8660020160003373ffffffffffffffffffffffffffffffffffffffff1673ffffffffffffffffffffffffffffffffffffffff16815260200190815260200160002060008773ffffffffffffffffffffffffffffffffffffffff1673ffffffffffffffffffffffffffffffffffffffff168152602001908152602001600020548511156113535760008760020160003373ffffffffffffffffffffffffffffffffffffffff1673ffffffffffffffffffffffffffffffffffffffff16815260200190815260200160002060008873ffffffffffffffffffffffffffffffffffffffff1673ffffffffffffffffffffffffffffffffffffffff1681526020019081526020016000208190555061145a565b848760020160003373ffffffffffffffffffffffffffffffffffffffff1673ffffffffffffffffffffffffffffffffffffffff16815260200190815260200160002060008873ffffffffffffffffffffffffffffffffffffffff1673ffffffffffffffffffffffffffffffffffffffff16815260200190815260200160002054039150818760020160003373ffffffffffffffffffffffffffffffffffffffff1673ffffffffffffffffffffffffffffffffffffffff16815260200190815260200160002060008873ffffffffffffffffffffffffffffffffffffffff1673ffffffffffffffffffffffffffffffffffffffff168152602001908152602001600020819055505b5b8573ffffffffffffffffffffffffffffffffffffffff163373ffffffffffffffffffffffffffffffffffffffff167f8c5be1e5ebec7d5bd14f71427d1e84f3dd0314c0f7b2291e5b200ac8c7c3b925846040518082815260200191505060405180910390a3600192505050949350505050565b60008060008073ffffffffffffffffffffffffffffffffffffffff168573ffffffffffffffffffffffffffffffffffffffff161415151561150e57600080fd5b8560010160003373ffffffffffffffffffffffffffffffffffffffff1673ffffffffffffffffffffffffffffffffffffffff1681526020019081526020016000205473__BasicMathLib__________________________63f4f3bdc19091866000604051604001526040518363ffffffff167c01000000000000000000000000000000000000000000000000000000000281526004018083815260200182815260200192505050604080518083038186803b15156115cb57600080fd5b6102c65a03f415156115dc57600080fd5b5050506040518051906020018051905080925081935050508115151561160157600080fd5b808660010160003373ffffffffffffffffffffffffffffffffffffffff1673ffffffffffffffffffffffffffffffffffffffff16815260200190815260200160002081905550838660010160008773ffffffffffffffffffffffffffffffffffffffff1673ffffffffffffffffffffffffffffffffffffffff16815260200190815260200160002054018660010160008773ffffffffffffffffffffffffffffffffffffffff1673ffffffffffffffffffffffffffffffffffffffff168152602001908152602001600020819055508473ffffffffffffffffffffffffffffffffffffffff163373ffffffffffffffffffffffffffffffffffffffff167fddf252ad1be2c89b69c2b068fc378daa952ba7f163c4a11628f55a4df523b3ef866040518082815260200191505060405180910390a36001925050509392505050565b60008060003373ffffffffffffffffffffffffffffffffffffffff168560070160009054906101000a900473ffffffffffffffffffffffffffffffffffffffff1673ffffffffffffffffffffffffffffffffffffffff161480156117b457508460070160159054906101000a900460ff165b15156117bf57600080fd5b846005015473__BasicMathLib__________________________6366098d4f9091866000604051604001526040518363ffffffff167c01000000000000000000000000000000000000000000000000000000000281526004018083815260200182815260200192505050604080518083038186803b151561183f57600080fd5b6102c65a03f4151561185057600080fd5b5050506040518051906020018051905080935081925050508015151561187557600080fd5b818560050181905550838560010160008760070160009054906101000a900473ffffffffffffffffffffffffffffffffffffffff1673ffffffffffffffffffffffffffffffffffffffff1673ffffffffffffffffffffffffffffffffffffffff16815260200190815260200160002054018560010160008760070160009054906101000a900473ffffffffffffffffffffffffffffffffffffffff1673ffffffffffffffffffffffffffffffffffffffff1673ffffffffffffffffffffffffffffffffffffffff168152602001908152602001600020819055508460070160009054906101000a900473ffffffffffffffffffffffffffffffffffffffff1673ffffffffffffffffffffffffffffffffffffffff1660007fddf252ad1be2c89b69c2b068fc378daa952ba7f163c4a11628f55a4df523b3ef866040518082815260200191505060405180910390a360019250505092915050565b828054600181600116156101000203166002900490600052602060002090601f016020900481019282601f10611a1057805160ff1916838001178555611a3e565b82800160010185558215611a3e579182015b82811115611a3d578251825591602001919060010190611a22565b5b509050611a4b9190611a4f565b5090565b611a7191905b80821115611a6d576000816000905550600101611a55565b5090565b905600a165627a7a723058205210391d7594e774130a0bc2b7a20147eca6b09939e3aa054e5ba63a5291cedd0029",
  "source": "pragma solidity ^0.4.18;\n\n/**\n * @title TokenLib\n * @author Majoolr.io\n *\n * version 1.2.1\n * Copyright (c) 2017 Majoolr, LLC\n * The MIT License (MIT)\n * https://github.com/Majoolr/ethereum-libraries/blob/master/LICENSE\n *\n * The Token Library provides functionality to create a variety of ERC20 tokens.\n * See https://github.com/Majoolr/ethereum-contracts for an example of how to\n * create a basic ERC20 token.\n *\n * Majoolr works on open source projects in the Ethereum community with the\n * purpose of testing, documenting, and deploying reusable code onto the\n * blockchain to improve security and usability of smart contracts. Majoolr\n * also strives to educate non-profits, schools, and other community members\n * about the application of blockchain technology.\n * For further information: majoolr.io\n *\n * THE SOFTWARE IS PROVIDED \"AS IS\", WITHOUT WARRANTY OF ANY KIND, EXPRESS\n * OR IMPLIED, INCLUDING BUT NOT LIMITED TO THE WARRANTIES OF\n * MERCHANTABILITY, FITNESS FOR A PARTICULAR PURPOSE AND NONINFRINGEMENT.\n * IN NO EVENT SHALL THE AUTHORS OR COPYRIGHT HOLDERS BE LIABLE FOR ANY\n * CLAIM, DAMAGES OR OTHER LIABILITY, WHETHER IN AN ACTION OF CONTRACT,\n * TORT OR OTHERWISE, ARISING FROM, OUT OF OR IN CONNECTION WITH THE\n * SOFTWARE OR THE USE OR OTHER DEALINGS IN THE SOFTWARE.\n */\n\nimport \"./BasicMathLib.sol\";\n\nlibrary TokenLib {\n  using BasicMathLib for uint256;\n\n  struct TokenStorage {\n    bool initialized;\n    mapping (address => uint256) balances;\n    mapping (address => mapping (address => uint256)) allowed;\n\n    string name;\n    string symbol;\n    uint256 totalSupply;\n    uint256 initialSupply;\n    address owner;\n    uint8 decimals;\n    bool stillMinting;\n  }\n\n  event Transfer(address indexed from, address indexed to, uint256 value);\n  event Approval(address indexed owner, address indexed spender, uint256 value);\n  event OwnerChange(address from, address to);\n  event Burn(address indexed burner, uint256 value);\n  event MintingClosed(bool mintingClosed);\n\n  /// @dev Called by the Standard Token upon creation.\n  /// @param self Stored token from token contract\n  /// @param _name Name of the new token\n  /// @param _symbol Symbol of the new token\n  /// @param _decimals Decimal places for the token represented\n  /// @param _initial_supply The initial token supply\n  /// @param _allowMinting True if additional tokens can be created, false otherwise\n  function init(TokenStorage storage self,\n                address _owner,\n                string _name,\n                string _symbol,\n                uint8 _decimals,\n                uint256 _initial_supply,\n                bool _allowMinting)\n                public\n  {\n    require(!self.initialized);\n    self.initialized = true;\n    self.name = _name;\n    self.symbol = _symbol;\n    self.totalSupply = _initial_supply;\n    self.initialSupply = _initial_supply;\n    self.decimals = _decimals;\n    self.owner = _owner;\n    self.stillMinting = _allowMinting;\n    self.balances[_owner] = _initial_supply;\n  }\n\n  /// @dev Transfer tokens from caller's account to another account.\n  /// @param self Stored token from token contract\n  /// @param _to Address to send tokens\n  /// @param _value Number of tokens to send\n  /// @return True if completed\n  function transfer(TokenStorage storage self, address _to, uint256 _value) public returns (bool) {\n    require(_to != address(0));\n    bool err;\n    uint256 balance;\n\n    (err,balance) = self.balances[msg.sender].minus(_value);\n    require(!err);\n    self.balances[msg.sender] = balance;\n    //It's not possible to overflow token supply\n    self.balances[_to] = self.balances[_to] + _value;\n    Transfer(msg.sender, _to, _value);\n    return true;\n  }\n\n  /// @dev Authorized caller transfers tokens from one account to another\n  /// @param self Stored token from token contract\n  /// @param _from Address to send tokens from\n  /// @param _to Address to send tokens to\n  /// @param _value Number of tokens to send\n  /// @return True if completed\n  function transferFrom(TokenStorage storage self,\n                        address _from,\n                        address _to,\n                        uint256 _value)\n                        public\n                        returns (bool)\n  {\n    var _allowance = self.allowed[_from][msg.sender];\n    bool err;\n    uint256 balanceOwner;\n    uint256 balanceSpender;\n\n    (err,balanceOwner) = self.balances[_from].minus(_value);\n    require(!err);\n\n    (err,balanceSpender) = _allowance.minus(_value);\n    require(!err);\n\n    self.balances[_from] = balanceOwner;\n    self.allowed[_from][msg.sender] = balanceSpender;\n    self.balances[_to] = self.balances[_to] + _value;\n\n    Transfer(_from, _to, _value);\n    return true;\n  }\n\n  /// @dev Retrieve token balance for an account\n  /// @param self Stored token from token contract\n  /// @param _owner Address to retrieve balance of\n  /// @return balance The number of tokens in the subject account\n  function balanceOf(TokenStorage storage self, address _owner) public view returns (uint256 balance) {\n    return self.balances[_owner];\n  }\n\n  /// @dev Authorize an account to send tokens on caller's behalf\n  /// @param self Stored token from token contract\n  /// @param _spender Address to authorize\n  /// @param _value Number of tokens authorized account may send\n  /// @return True if completed\n  function approve(TokenStorage storage self, address _spender, uint256 _value) public returns (bool) {\n    // must set to zero before changing approval amount in accordance with spec\n    require((_value == 0) || (self.allowed[msg.sender][_spender] == 0));\n\n    self.allowed[msg.sender][_spender] = _value;\n    Approval(msg.sender, _spender, _value);\n    return true;\n  }\n\n  /// @dev Remaining tokens third party spender has to send\n  /// @param self Stored token from token contract\n  /// @param _owner Address of token holder\n  /// @param _spender Address of authorized spender\n  /// @return remaining Number of tokens spender has left in owner's account\n  function allowance(TokenStorage storage self, address _owner, address _spender)\n                     public\n                     view\n                     returns (uint256 remaining) {\n    return self.allowed[_owner][_spender];\n  }\n\n  /// @dev Authorize third party transfer by increasing/decreasing allowed rather than setting it\n  /// @param self Stored token from token contract\n  /// @param _spender Address to authorize\n  /// @param _valueChange Increase or decrease in number of tokens authorized account may send\n  /// @param _increase True if increasing allowance, false if decreasing allowance\n  /// @return True if completed\n  function approveChange (TokenStorage storage self, address _spender, uint256 _valueChange, bool _increase)\n                          public returns (bool)\n  {\n    uint256 _newAllowed;\n    bool err;\n\n    if(_increase) {\n      (err, _newAllowed) = self.allowed[msg.sender][_spender].plus(_valueChange);\n      require(!err);\n\n      self.allowed[msg.sender][_spender] = _newAllowed;\n    } else {\n      if (_valueChange > self.allowed[msg.sender][_spender]) {\n        self.allowed[msg.sender][_spender] = 0;\n      } else {\n        _newAllowed = self.allowed[msg.sender][_spender] - _valueChange;\n        self.allowed[msg.sender][_spender] = _newAllowed;\n      }\n    }\n\n    Approval(msg.sender, _spender, _newAllowed);\n    return true;\n  }\n\n  /// @dev Change owning address of the token contract, specifically for minting\n  /// @param self Stored token from token contract\n  /// @param _newOwner Address for the new owner\n  /// @return True if completed\n  function changeOwner(TokenStorage storage self, address _newOwner) public returns (bool) {\n    require((self.owner == msg.sender) && (_newOwner > 0));\n\n    self.owner = _newOwner;\n    OwnerChange(msg.sender, _newOwner);\n    return true;\n  }\n\n  /// @dev Mints additional tokens, new tokens go to owner\n  /// @param self Stored token from token contract\n  /// @param _amount Number of tokens to mint\n  /// @return True if completed\n  function mintToken(TokenStorage storage self, uint256 _amount) public returns (bool) {\n    require((self.owner == msg.sender) && self.stillMinting);\n    uint256 _newAmount;\n    bool err;\n\n    (err, _newAmount) = self.totalSupply.plus(_amount);\n    require(!err);\n\n    self.totalSupply =  _newAmount;\n    self.balances[self.owner] = self.balances[self.owner] + _amount;\n    Transfer(0x0, self.owner, _amount);\n    return true;\n  }\n\n  /// @dev Permanent stops minting\n  /// @param self Stored token from token contract\n  /// @return True if completed\n  function closeMint(TokenStorage storage self) public returns (bool) {\n    require(self.owner == msg.sender);\n\n    self.stillMinting = false;\n    MintingClosed(true);\n    return true;\n  }\n\n  /// @dev Permanently burn tokens\n  /// @param self Stored token from token contract\n  /// @param _amount Amount of tokens to burn\n  /// @return True if completed\n  function burnToken(TokenStorage storage self, uint256 _amount) public returns (bool) {\n      uint256 _newBalance;\n      bool err;\n\n      (err, _newBalance) = self.balances[msg.sender].minus(_amount);\n      require(!err);\n\n      self.balances[msg.sender] = _newBalance;\n      self.totalSupply = self.totalSupply - _amount;\n      Burn(msg.sender, _amount);\n      Transfer(msg.sender, 0x0, _amount);\n      return true;\n  }\n}\n",
  "sourcePath": "/Users/joshuahannan/repository/majoolr/ethereum-libraries/VestingLib/truffle/contracts/TokenLib.sol",
  "compiler": {
    "name": "solc",
    "version": "0.4.18+commit.9cf6e910.Emscripten.clang"
  },
  "schemaVersion": "1.0.1",
  "updatedAt": "2017-12-12T18:13:46.379Z"
}