{
  "contractName": "VestingLibTokenTestContract",
  "abi": [
    {
      "constant": true,
      "inputs": [],
      "name": "getTimeInterval",
      "outputs": [
        {
          "name": "",
          "type": "uint256"
        }
      ],
      "payable": false,
      "stateMutability": "view",
      "type": "function"
    },
    {
      "constant": false,
      "inputs": [
        {
          "name": "_registrant",
          "type": "address"
        }
      ],
      "name": "unregisterUser",
      "outputs": [
        {
          "name": "",
          "type": "bool"
        }
      ],
      "payable": false,
      "stateMutability": "nonpayable",
      "type": "function"
    },
    {
      "constant": false,
      "inputs": [
        {
          "name": "token",
          "type": "address"
        }
      ],
      "name": "ownerWithdrawExtraTokens",
      "outputs": [
        {
          "name": "",
          "type": "bool"
        }
      ],
      "payable": false,
      "stateMutability": "nonpayable",
      "type": "function"
    },
    {
      "constant": false,
      "inputs": [
        {
          "name": "token",
          "type": "address"
        },
        {
          "name": "_balance",
          "type": "uint256"
        }
      ],
      "name": "initializeTokenBalance",
      "outputs": [
        {
          "name": "",
          "type": "bool"
        }
      ],
      "payable": false,
      "stateMutability": "nonpayable",
      "type": "function"
    },
    {
      "constant": false,
      "inputs": [
        {
          "name": "_registrant",
          "type": "address"
        },
        {
          "name": "_vestAmount",
          "type": "uint256"
        },
        {
          "name": "_bonus",
          "type": "uint256"
        }
      ],
      "name": "registerUser",
      "outputs": [
        {
          "name": "",
          "type": "bool"
        }
      ],
      "payable": false,
      "stateMutability": "nonpayable",
      "type": "function"
    },
    {
      "constant": true,
      "inputs": [
        {
          "name": "_participant",
          "type": "address"
        }
      ],
      "name": "getBonusAmount",
      "outputs": [
        {
          "name": "",
          "type": "uint256"
        }
      ],
      "payable": false,
      "stateMutability": "view",
      "type": "function"
    },
    {
      "constant": true,
      "inputs": [],
      "name": "getEndTime",
      "outputs": [
        {
          "name": "",
          "type": "uint256"
        }
      ],
      "payable": false,
      "stateMutability": "view",
      "type": "function"
    },
    {
      "constant": true,
      "inputs": [],
      "name": "vesting",
      "outputs": [
        {
          "name": "owner",
          "type": "address"
        },
        {
          "name": "totalSupply",
          "type": "uint256"
        },
        {
          "name": "contractBalance",
          "type": "uint256"
        },
        {
          "name": "isToken",
          "type": "bool"
        },
        {
          "name": "startTime",
          "type": "uint256"
        },
        {
          "name": "endTime",
          "type": "uint256"
        },
        {
          "name": "numRegistered",
          "type": "uint256"
        },
        {
          "name": "timeInterval",
          "type": "uint256"
        },
        {
          "name": "percentPerInterval",
          "type": "uint256"
        }
      ],
      "payable": false,
      "stateMutability": "view",
      "type": "function"
    },
    {
      "constant": false,
      "inputs": [
        {
          "name": "token",
          "type": "address"
        }
      ],
      "name": "withdrawTokens",
      "outputs": [
        {
          "name": "",
          "type": "bool"
        }
      ],
      "payable": false,
      "stateMutability": "nonpayable",
      "type": "function"
    },
    {
      "constant": true,
      "inputs": [],
      "name": "getIsToken",
      "outputs": [
        {
          "name": "",
          "type": "bool"
        }
      ],
      "payable": false,
      "stateMutability": "view",
      "type": "function"
    },
    {
      "constant": true,
      "inputs": [],
      "name": "getNumRegistered",
      "outputs": [
        {
          "name": "",
          "type": "uint256"
        }
      ],
      "payable": false,
      "stateMutability": "view",
      "type": "function"
    },
    {
      "constant": true,
      "inputs": [],
      "name": "getContractBalance",
      "outputs": [
        {
          "name": "",
          "type": "uint256"
        }
      ],
      "payable": false,
      "stateMutability": "view",
      "type": "function"
    },
    {
      "constant": false,
      "inputs": [
        {
          "name": "_replacementRegistrant",
          "type": "address"
        }
      ],
      "name": "swapRegistration",
      "outputs": [
        {
          "name": "",
          "type": "bool"
        }
      ],
      "payable": false,
      "stateMutability": "nonpayable",
      "type": "function"
    },
    {
      "constant": true,
      "inputs": [],
      "name": "getOwner",
      "outputs": [
        {
          "name": "",
          "type": "address"
        }
      ],
      "payable": false,
      "stateMutability": "view",
      "type": "function"
    },
    {
      "constant": true,
      "inputs": [
        {
          "name": "_participant",
          "type": "address"
        }
      ],
      "name": "getHasWithdrawn",
      "outputs": [
        {
          "name": "",
          "type": "uint256"
        }
      ],
      "payable": false,
      "stateMutability": "view",
      "type": "function"
    },
    {
      "constant": true,
      "inputs": [],
      "name": "getPercentReleased",
      "outputs": [
        {
          "name": "",
          "type": "uint256"
        }
      ],
      "payable": false,
      "stateMutability": "view",
      "type": "function"
    },
    {
      "constant": true,
      "inputs": [
        {
          "name": "_participant",
          "type": "address"
        }
      ],
      "name": "getVestingAmount",
      "outputs": [
        {
          "name": "",
          "type": "uint256"
        }
      ],
      "payable": false,
      "stateMutability": "view",
      "type": "function"
    },
    {
      "constant": false,
      "inputs": [
        {
          "name": "token",
          "type": "address"
        },
        {
          "name": "_beneficiary",
          "type": "address"
        }
      ],
      "name": "sendTokens",
      "outputs": [
        {
          "name": "",
          "type": "bool"
        }
      ],
      "payable": false,
      "stateMutability": "nonpayable",
      "type": "function"
    },
    {
      "constant": true,
      "inputs": [],
      "name": "getTotalSupply",
      "outputs": [
        {
          "name": "",
          "type": "uint256"
        }
      ],
      "payable": false,
      "stateMutability": "view",
      "type": "function"
    },
    {
      "constant": true,
      "inputs": [],
      "name": "getStartTime",
      "outputs": [
        {
          "name": "",
          "type": "uint256"
        }
      ],
      "payable": false,
      "stateMutability": "view",
      "type": "function"
    },
    {
      "constant": false,
      "inputs": [
        {
          "name": "_registrants",
          "type": "address[]"
        },
        {
          "name": "_vestAmount",
          "type": "uint256"
        },
        {
          "name": "_bonus",
          "type": "uint256"
        }
      ],
      "name": "registerUsers",
      "outputs": [
        {
          "name": "",
          "type": "bool"
        }
      ],
      "payable": false,
      "stateMutability": "nonpayable",
      "type": "function"
    },
    {
      "constant": false,
      "inputs": [
        {
          "name": "_registrants",
          "type": "address[]"
        }
      ],
      "name": "unregisterUsers",
      "outputs": [
        {
          "name": "",
          "type": "bool"
        }
      ],
      "payable": false,
      "stateMutability": "nonpayable",
      "type": "function"
    },
    {
      "constant": true,
      "inputs": [],
      "name": "getPercentPerInterval",
      "outputs": [
        {
          "name": "",
          "type": "uint256"
        }
      ],
      "payable": false,
      "stateMutability": "view",
      "type": "function"
    },
    {
      "inputs": [
        {
          "name": "_owner",
          "type": "address"
        },
        {
          "name": "_isToken",
          "type": "bool"
        },
        {
          "name": "_startTime",
          "type": "uint256"
        },
        {
          "name": "_endTime",
          "type": "uint256"
        },
        {
          "name": "_numReleases",
          "type": "uint256"
        }
      ],
      "payable": false,
      "stateMutability": "nonpayable",
      "type": "constructor"
    },
    {
      "payable": true,
      "stateMutability": "payable",
      "type": "fallback"
    },
    {
      "anonymous": false,
      "inputs": [
        {
          "indexed": false,
          "name": "amount",
          "type": "uint256"
        },
        {
          "indexed": false,
          "name": "Msg",
          "type": "string"
        }
      ],
      "name": "LogErrorMsg",
      "type": "event"
    },
    {
      "anonymous": false,
      "inputs": [
        {
          "indexed": false,
          "name": "registrant",
          "type": "address"
        },
        {
          "indexed": false,
          "name": "vestAmount",
          "type": "uint256"
        },
        {
          "indexed": false,
          "name": "bonus",
          "type": "uint256"
        }
      ],
      "name": "LogUserRegistered",
      "type": "event"
    },
    {
      "anonymous": false,
      "inputs": [
        {
          "indexed": false,
          "name": "registrant",
          "type": "address"
        }
      ],
      "name": "LogUserUnRegistered",
      "type": "event"
    },
    {
      "anonymous": false,
      "inputs": [
        {
          "indexed": false,
          "name": "currentRegistrant",
          "type": "address"
        },
        {
          "indexed": false,
          "name": "newRegistrant",
          "type": "address"
        },
        {
          "indexed": false,
          "name": "amountWithdrawn",
          "type": "uint256"
        }
      ],
      "name": "LogRegistrationReplaced",
      "type": "event"
    },
    {
      "anonymous": false,
      "inputs": [
        {
          "indexed": false,
          "name": "beneficiary",
          "type": "address"
        },
        {
          "indexed": false,
          "name": "amount",
          "type": "uint256"
        }
      ],
      "name": "LogTokensWithdrawn",
      "type": "event"
    },
    {
      "anonymous": false,
      "inputs": [
        {
          "indexed": false,
          "name": "beneficiary",
          "type": "address"
        },
        {
          "indexed": false,
          "name": "amount",
          "type": "uint256"
        }
      ],
      "name": "LogTokensWithdrawn",
      "type": "event"
    }
  ],
  "bytecode": "0x6060604052341561000f57600080fd5b60405160a08061139f83398101604052808051906020019091908051906020019091908051906020019091908051906020019091908051906020019091905050600073__VestingLib____________________________6367c2049a909187878787876040518763ffffffff167c0100000000000000000000000000000000000000000000000000000000028152600401808781526020018673ffffffffffffffffffffffffffffffffffffffff1673ffffffffffffffffffffffffffffffffffffffff16815260200185151515158152602001848152602001838152602001828152602001965050505050505060006040518083038186803b151561011457600080fd5b6102c65a03f4151561012557600080fd5b50505050505050506112638061013c6000396000f300606060405260043610610133576000357c0100000000000000000000000000000000000000000000000000000000900463ffffffff16806303a827121461013557806321f2ca3b1461015e578063222cc59a146101af5780632a1114c9146102005780633c1277361461025a5780633e45a299146102bd578063439f5ac21461030a57806344c63eec1461033357806349df728c146103c4578063501421bf14610415578063674b81e6146104425780636f9fb98a1461046b578063893bb75914610494578063893d20e8146104e55780639b5ff4071461053a5780639cfd81f614610587578063a3fe7950146105b0578063aa9ecff5146105fd578063c4e41b221461066d578063c828371e14610696578063d64acab1146106bf578063e42d6efa14610743578063fead24be146107b5575b005b341561014057600080fd5b6101486107de565b6040518082815260200191505060405180910390f35b341561016957600080fd5b610195600480803573ffffffffffffffffffffffffffffffffffffffff169060200190919050506107ea565b604051808215151515815260200191505060405180910390f35b34156101ba57600080fd5b6101e6600480803573ffffffffffffffffffffffffffffffffffffffff169060200190919050506108b7565b604051808215151515815260200191505060405180910390f35b341561020b57600080fd5b610240600480803573ffffffffffffffffffffffffffffffffffffffff16906020019091908035906020019091905050610984565b604051808215151515815260200191505060405180910390f35b341561026557600080fd5b6102a3600480803573ffffffffffffffffffffffffffffffffffffffff16906020019091908035906020019091908035906020019091905050610a5a565b604051808215151515815260200191505060405180910390f35b34156102c857600080fd5b6102f4600480803573ffffffffffffffffffffffffffffffffffffffff16906020019091905050610b39565b6040518082815260200191505060405180910390f35b341561031557600080fd5b61031d610b93565b6040518082815260200191505060405180910390f35b341561033e57600080fd5b610346610b9f565b604051808a73ffffffffffffffffffffffffffffffffffffffff1673ffffffffffffffffffffffffffffffffffffffff16815260200189815260200188815260200187151515158152602001868152602001858152602001848152602001838152602001828152602001995050505050505050505060405180910390f35b34156103cf57600080fd5b6103fb600480803573ffffffffffffffffffffffffffffffffffffffff16906020019091905050610c08565b604051808215151515815260200191505060405180910390f35b341561042057600080fd5b610428610cd5565b604051808215151515815260200191505060405180910390f35b341561044d57600080fd5b610455610cee565b6040518082815260200191505060405180910390f35b341561047657600080fd5b61047e610cfa565b6040518082815260200191505060405180910390f35b341561049f57600080fd5b6104cb600480803573ffffffffffffffffffffffffffffffffffffffff16906020019091905050610d06565b604051808215151515815260200191505060405180910390f35b34156104f057600080fd5b6104f8610dd3565b604051808273ffffffffffffffffffffffffffffffffffffffff1673ffffffffffffffffffffffffffffffffffffffff16815260200191505060405180910390f35b341561054557600080fd5b610571600480803573ffffffffffffffffffffffffffffffffffffffff16906020019091905050610dff565b6040518082815260200191505060405180910390f35b341561059257600080fd5b61059a610e4a565b6040518082815260200191505060405180910390f35b34156105bb57600080fd5b6105e7600480803573ffffffffffffffffffffffffffffffffffffffff16906020019091905050610ee1565b6040518082815260200191505060405180910390f35b341561060857600080fd5b610653600480803573ffffffffffffffffffffffffffffffffffffffff1690602001909190803573ffffffffffffffffffffffffffffffffffffffff16906020019091905050610f3b565b604051808215151515815260200191505060405180910390f35b341561067857600080fd5b61068061103d565b6040518082815260200191505060405180910390f35b34156106a157600080fd5b6106a9611049565b6040518082815260200191505060405180910390f35b34156106ca57600080fd5b610729600480803590602001908201803590602001908080602002602001604051908101604052809392919081815260200183836020028082843782019150505050505091908035906020019091908035906020019091905050611055565b604051808215151515815260200191505060405180910390f35b341561074e57600080fd5b61079b600480803590602001908201803590602001908080602002602001604051908101604052809392919081815260200183836020028082843782019150505050505091905050611149565b604051808215151515815260200191505060405180910390f35b34156107c057600080fd5b6107c861122b565b6040518082815260200191505060405180910390f35b60008060070154905090565b60008073__VestingLib____________________________63a28541499091846000604051602001526040518363ffffffff167c0100000000000000000000000000000000000000000000000000000000028152600401808381526020018273ffffffffffffffffffffffffffffffffffffffff1673ffffffffffffffffffffffffffffffffffffffff1681526020019250505060206040518083038186803b151561089557600080fd5b6102c65a03f415156108a657600080fd5b505050604051805190509050919050565b60008073__VestingLib____________________________63a24366a59091846000604051602001526040518363ffffffff167c0100000000000000000000000000000000000000000000000000000000028152600401808381526020018273ffffffffffffffffffffffffffffffffffffffff1673ffffffffffffffffffffffffffffffffffffffff1681526020019250505060206040518083038186803b151561096257600080fd5b6102c65a03f4151561097357600080fd5b505050604051805190509050919050565b60008073__VestingLib____________________________637a518ea3909185856000604051602001526040518463ffffffff167c0100000000000000000000000000000000000000000000000000000000028152600401808481526020018373ffffffffffffffffffffffffffffffffffffffff1673ffffffffffffffffffffffffffffffffffffffff168152602001828152602001935050505060206040518083038186803b1515610a3757600080fd5b6102c65a03f41515610a4857600080fd5b50505060405180519050905092915050565b60008073__VestingLib____________________________63d9384d2690918686866000604051602001526040518563ffffffff167c0100000000000000000000000000000000000000000000000000000000028152600401808581526020018473ffffffffffffffffffffffffffffffffffffffff1673ffffffffffffffffffffffffffffffffffffffff16815260200183815260200182815260200194505050505060206040518083038186803b1515610b1557600080fd5b6102c65a03f41515610b2657600080fd5b5050506040518051905090509392505050565b60008060090160008373ffffffffffffffffffffffffffffffffffffffff1673ffffffffffffffffffffffffffffffffffffffff1681526020019081526020016000206001600281101515610b8a57fe5b01549050919050565b60008060050154905090565b60008060000160009054906101000a900473ffffffffffffffffffffffffffffffffffffffff16908060010154908060020154908060030160009054906101000a900460ff16908060040154908060050154908060060154908060070154908060080154905089565b60008073__VestingLib____________________________637b6662669091846000604051602001526040518363ffffffff167c0100000000000000000000000000000000000000000000000000000000028152600401808381526020018273ffffffffffffffffffffffffffffffffffffffff1673ffffffffffffffffffffffffffffffffffffffff1681526020019250505060206040518083038186803b1515610cb357600080fd5b6102c65a03f41515610cc457600080fd5b505050604051805190509050919050565b60008060030160009054906101000a900460ff16905090565b60008060060154905090565b60008060020154905090565b60008073__VestingLib____________________________63bd28d0619091846000604051602001526040518363ffffffff167c0100000000000000000000000000000000000000000000000000000000028152600401808381526020018273ffffffffffffffffffffffffffffffffffffffff1673ffffffffffffffffffffffffffffffffffffffff1681526020019250505060206040518083038186803b1515610db157600080fd5b6102c65a03f41515610dc257600080fd5b505050604051805190509050919050565b60008060000160009054906101000a900473ffffffffffffffffffffffffffffffffffffffff16905090565b600080600a0160008373ffffffffffffffffffffffffffffffffffffffff1673ffffffffffffffffffffffffffffffffffffffff168152602001908152602001600020549050919050565b60008073__VestingLib____________________________63eaea41c490916000604051602001526040518263ffffffff167c01000000000000000000000000000000000000000000000000000000000281526004018082815260200191505060206040518083038186803b1515610ec157600080fd5b6102c65a03f41515610ed257600080fd5b50505060405180519050905090565b60008060090160008373ffffffffffffffffffffffffffffffffffffffff1673ffffffffffffffffffffffffffffffffffffffff1681526020019081526020016000206000600281101515610f3257fe5b01549050919050565b60008073__VestingLib____________________________63b32b9cde909185856000604051602001526040518463ffffffff167c0100000000000000000000000000000000000000000000000000000000028152600401808481526020018373ffffffffffffffffffffffffffffffffffffffff1673ffffffffffffffffffffffffffffffffffffffff1681526020018273ffffffffffffffffffffffffffffffffffffffff1673ffffffffffffffffffffffffffffffffffffffff168152602001935050505060206040518083038186803b151561101a57600080fd5b6102c65a03f4151561102b57600080fd5b50505060405180519050905092915050565b60008060010154905090565b60008060040154905090565b60008073__VestingLib____________________________6328d36cb490918686866000604051602001526040518563ffffffff167c01000000000000000000000000000000000000000000000000000000000281526004018085815260200180602001848152602001838152602001828103825285818151815260200191508051906020019060200280838360005b838110156111005780820151818401526020810190506110e5565b505050509050019550505050505060206040518083038186803b151561112557600080fd5b6102c65a03f4151561113657600080fd5b5050506040518051905090509392505050565b60008073__VestingLib____________________________638266c55a9091846000604051602001526040518363ffffffff167c01000000000000000000000000000000000000000000000000000000000281526004018083815260200180602001828103825283818151815260200191508051906020019060200280838360005b838110156111e65780820151818401526020810190506111cb565b50505050905001935050505060206040518083038186803b151561120957600080fd5b6102c65a03f4151561121a57600080fd5b505050604051805190509050919050565b600080600801549050905600a165627a7a723058202926b64674cbc28271ba303084be507a948fc33ce8ca2b688103d651006e3fe20029",
  "deployedBytecode": "0x606060405260043610610133576000357c0100000000000000000000000000000000000000000000000000000000900463ffffffff16806303a827121461013557806321f2ca3b1461015e578063222cc59a146101af5780632a1114c9146102005780633c1277361461025a5780633e45a299146102bd578063439f5ac21461030a57806344c63eec1461033357806349df728c146103c4578063501421bf14610415578063674b81e6146104425780636f9fb98a1461046b578063893bb75914610494578063893d20e8146104e55780639b5ff4071461053a5780639cfd81f614610587578063a3fe7950146105b0578063aa9ecff5146105fd578063c4e41b221461066d578063c828371e14610696578063d64acab1146106bf578063e42d6efa14610743578063fead24be146107b5575b005b341561014057600080fd5b6101486107de565b6040518082815260200191505060405180910390f35b341561016957600080fd5b610195600480803573ffffffffffffffffffffffffffffffffffffffff169060200190919050506107ea565b604051808215151515815260200191505060405180910390f35b34156101ba57600080fd5b6101e6600480803573ffffffffffffffffffffffffffffffffffffffff169060200190919050506108b7565b604051808215151515815260200191505060405180910390f35b341561020b57600080fd5b610240600480803573ffffffffffffffffffffffffffffffffffffffff16906020019091908035906020019091905050610984565b604051808215151515815260200191505060405180910390f35b341561026557600080fd5b6102a3600480803573ffffffffffffffffffffffffffffffffffffffff16906020019091908035906020019091908035906020019091905050610a5a565b604051808215151515815260200191505060405180910390f35b34156102c857600080fd5b6102f4600480803573ffffffffffffffffffffffffffffffffffffffff16906020019091905050610b39565b6040518082815260200191505060405180910390f35b341561031557600080fd5b61031d610b93565b6040518082815260200191505060405180910390f35b341561033e57600080fd5b610346610b9f565b604051808a73ffffffffffffffffffffffffffffffffffffffff1673ffffffffffffffffffffffffffffffffffffffff16815260200189815260200188815260200187151515158152602001868152602001858152602001848152602001838152602001828152602001995050505050505050505060405180910390f35b34156103cf57600080fd5b6103fb600480803573ffffffffffffffffffffffffffffffffffffffff16906020019091905050610c08565b604051808215151515815260200191505060405180910390f35b341561042057600080fd5b610428610cd5565b604051808215151515815260200191505060405180910390f35b341561044d57600080fd5b610455610cee565b6040518082815260200191505060405180910390f35b341561047657600080fd5b61047e610cfa565b6040518082815260200191505060405180910390f35b341561049f57600080fd5b6104cb600480803573ffffffffffffffffffffffffffffffffffffffff16906020019091905050610d06565b604051808215151515815260200191505060405180910390f35b34156104f057600080fd5b6104f8610dd3565b604051808273ffffffffffffffffffffffffffffffffffffffff1673ffffffffffffffffffffffffffffffffffffffff16815260200191505060405180910390f35b341561054557600080fd5b610571600480803573ffffffffffffffffffffffffffffffffffffffff16906020019091905050610dff565b6040518082815260200191505060405180910390f35b341561059257600080fd5b61059a610e4a565b6040518082815260200191505060405180910390f35b34156105bb57600080fd5b6105e7600480803573ffffffffffffffffffffffffffffffffffffffff16906020019091905050610ee1565b6040518082815260200191505060405180910390f35b341561060857600080fd5b610653600480803573ffffffffffffffffffffffffffffffffffffffff1690602001909190803573ffffffffffffffffffffffffffffffffffffffff16906020019091905050610f3b565b604051808215151515815260200191505060405180910390f35b341561067857600080fd5b61068061103d565b6040518082815260200191505060405180910390f35b34156106a157600080fd5b6106a9611049565b6040518082815260200191505060405180910390f35b34156106ca57600080fd5b610729600480803590602001908201803590602001908080602002602001604051908101604052809392919081815260200183836020028082843782019150505050505091908035906020019091908035906020019091905050611055565b604051808215151515815260200191505060405180910390f35b341561074e57600080fd5b61079b600480803590602001908201803590602001908080602002602001604051908101604052809392919081815260200183836020028082843782019150505050505091905050611149565b604051808215151515815260200191505060405180910390f35b34156107c057600080fd5b6107c861122b565b6040518082815260200191505060405180910390f35b60008060070154905090565b60008073__VestingLib____________________________63a28541499091846000604051602001526040518363ffffffff167c0100000000000000000000000000000000000000000000000000000000028152600401808381526020018273ffffffffffffffffffffffffffffffffffffffff1673ffffffffffffffffffffffffffffffffffffffff1681526020019250505060206040518083038186803b151561089557600080fd5b6102c65a03f415156108a657600080fd5b505050604051805190509050919050565b60008073__VestingLib____________________________63a24366a59091846000604051602001526040518363ffffffff167c0100000000000000000000000000000000000000000000000000000000028152600401808381526020018273ffffffffffffffffffffffffffffffffffffffff1673ffffffffffffffffffffffffffffffffffffffff1681526020019250505060206040518083038186803b151561096257600080fd5b6102c65a03f4151561097357600080fd5b505050604051805190509050919050565b60008073__VestingLib____________________________637a518ea3909185856000604051602001526040518463ffffffff167c0100000000000000000000000000000000000000000000000000000000028152600401808481526020018373ffffffffffffffffffffffffffffffffffffffff1673ffffffffffffffffffffffffffffffffffffffff168152602001828152602001935050505060206040518083038186803b1515610a3757600080fd5b6102c65a03f41515610a4857600080fd5b50505060405180519050905092915050565b60008073__VestingLib____________________________63d9384d2690918686866000604051602001526040518563ffffffff167c0100000000000000000000000000000000000000000000000000000000028152600401808581526020018473ffffffffffffffffffffffffffffffffffffffff1673ffffffffffffffffffffffffffffffffffffffff16815260200183815260200182815260200194505050505060206040518083038186803b1515610b1557600080fd5b6102c65a03f41515610b2657600080fd5b5050506040518051905090509392505050565b60008060090160008373ffffffffffffffffffffffffffffffffffffffff1673ffffffffffffffffffffffffffffffffffffffff1681526020019081526020016000206001600281101515610b8a57fe5b01549050919050565b60008060050154905090565b60008060000160009054906101000a900473ffffffffffffffffffffffffffffffffffffffff16908060010154908060020154908060030160009054906101000a900460ff16908060040154908060050154908060060154908060070154908060080154905089565b60008073__VestingLib____________________________637b6662669091846000604051602001526040518363ffffffff167c0100000000000000000000000000000000000000000000000000000000028152600401808381526020018273ffffffffffffffffffffffffffffffffffffffff1673ffffffffffffffffffffffffffffffffffffffff1681526020019250505060206040518083038186803b1515610cb357600080fd5b6102c65a03f41515610cc457600080fd5b505050604051805190509050919050565b60008060030160009054906101000a900460ff16905090565b60008060060154905090565b60008060020154905090565b60008073__VestingLib____________________________63bd28d0619091846000604051602001526040518363ffffffff167c0100000000000000000000000000000000000000000000000000000000028152600401808381526020018273ffffffffffffffffffffffffffffffffffffffff1673ffffffffffffffffffffffffffffffffffffffff1681526020019250505060206040518083038186803b1515610db157600080fd5b6102c65a03f41515610dc257600080fd5b505050604051805190509050919050565b60008060000160009054906101000a900473ffffffffffffffffffffffffffffffffffffffff16905090565b600080600a0160008373ffffffffffffffffffffffffffffffffffffffff1673ffffffffffffffffffffffffffffffffffffffff168152602001908152602001600020549050919050565b60008073__VestingLib____________________________63eaea41c490916000604051602001526040518263ffffffff167c01000000000000000000000000000000000000000000000000000000000281526004018082815260200191505060206040518083038186803b1515610ec157600080fd5b6102c65a03f41515610ed257600080fd5b50505060405180519050905090565b60008060090160008373ffffffffffffffffffffffffffffffffffffffff1673ffffffffffffffffffffffffffffffffffffffff1681526020019081526020016000206000600281101515610f3257fe5b01549050919050565b60008073__VestingLib____________________________63b32b9cde909185856000604051602001526040518463ffffffff167c0100000000000000000000000000000000000000000000000000000000028152600401808481526020018373ffffffffffffffffffffffffffffffffffffffff1673ffffffffffffffffffffffffffffffffffffffff1681526020018273ffffffffffffffffffffffffffffffffffffffff1673ffffffffffffffffffffffffffffffffffffffff168152602001935050505060206040518083038186803b151561101a57600080fd5b6102c65a03f4151561102b57600080fd5b50505060405180519050905092915050565b60008060010154905090565b60008060040154905090565b60008073__VestingLib____________________________6328d36cb490918686866000604051602001526040518563ffffffff167c01000000000000000000000000000000000000000000000000000000000281526004018085815260200180602001848152602001838152602001828103825285818151815260200191508051906020019060200280838360005b838110156111005780820151818401526020810190506110e5565b505050509050019550505050505060206040518083038186803b151561112557600080fd5b6102c65a03f4151561113657600080fd5b5050506040518051905090509392505050565b60008073__VestingLib____________________________638266c55a9091846000604051602001526040518363ffffffff167c01000000000000000000000000000000000000000000000000000000000281526004018083815260200180602001828103825283818151815260200191508051906020019060200280838360005b838110156111e65780820151818401526020810190506111cb565b50505050905001935050505060206040518083038186803b151561120957600080fd5b6102c65a03f4151561121a57600080fd5b505050604051805190509050919050565b600080600801549050905600a165627a7a723058202926b64674cbc28271ba303084be507a948fc33ce8ca2b688103d651006e3fe20029",
  "source": "pragma solidity ^0.4.18;\n\nimport \"./VestingLib.sol\";\nimport \"./CrowdsaleToken.sol\";\n\ncontract VestingLibTokenTestContract {\n  using VestingLib for VestingLib.VestingStorage;\n\n  VestingLib.VestingStorage public vesting;\n\n  function VestingLibTokenTestContract(\n                address _owner,\n                bool _isToken,\n                uint256 _startTime,\n                uint256 _endTime,\n                uint256 _numReleases) public\n  {\n    vesting.init(_owner, _isToken, _startTime, _endTime, _numReleases);\n  }\n\n  // Generic Error message, error code and string\n  event LogErrorMsg(uint256 amount, string Msg);\n\n  // Logs when a user is registered in the system for vesting\n  event LogUserRegistered(address registrant, uint256 vestAmount, uint256 bonus);\n\n  // Logs when a user is unregistered from the system\n  event LogUserUnRegistered(address registrant);\n\n  // Logs when a user replaces themselves with a different beneficiary\n  event LogRegistrationReplaced(address currentRegistrant, address newRegistrant, uint256 amountWithdrawn);\n\n  // Logs when a user withdraws their tokens from the contract\n  event LogTokensWithdrawn(address beneficiary, uint256 amount);\n\n  function() payable public {}\n\n  function initializeTokenBalance(CrowdsaleToken token, uint256 _balance) public returns (bool) {\n    return vesting.initializeTokenBalance(token, _balance);\n  }\n\n  function registerUser(address _registrant, uint256 _vestAmount, uint256 _bonus) public returns (bool) {\n    return vesting.registerUser(_registrant, _vestAmount, _bonus);\n  }\n\n  function registerUsers(address[] _registrants, uint256 _vestAmount, uint256 _bonus) public returns (bool) {\n    return vesting.registerUsers(_registrants, _vestAmount, _bonus);\n  }\n\n  function unregisterUser(address _registrant) public returns (bool) {\n    return vesting.unregisterUser(_registrant);\n  }\n\n  function unregisterUsers(address[] _registrants) public returns (bool) {\n    return vesting.unregisterUsers(_registrants);\n  }\n\n  function swapRegistration(address _replacementRegistrant) public returns (bool) {\n    return vesting.swapRegistration(_replacementRegistrant);\n  }\n\n  function withdrawTokens(CrowdsaleToken token) public returns (bool) {\n    return vesting.withdrawTokens(token);\n  }\n\n  function sendTokens(CrowdsaleToken token, address _beneficiary) public returns (bool) {\n    return vesting.sendTokens(token,_beneficiary);\n  }\n\n  function ownerWithdrawExtraTokens(CrowdsaleToken token) public returns (bool) {\n    return vesting.ownerWithdrawExtraTokens(token);\n  }\n\n  /*Getters*/\n\n  function getOwner() public view returns (address) {\n    return vesting.owner;\n  }\n\n  function getTotalSupply() public view returns (uint256) {\n    return vesting.totalSupply;\n  }\n\n  function getContractBalance() public view returns (uint256) {\n    return vesting.contractBalance;\n  }\n\n  function getIsToken() public view returns (bool) {\n    return vesting.isToken;\n  }\n\n  function getStartTime() public view returns (uint256) {\n    return vesting.startTime;\n  }\n\n  function getEndTime() public view returns (uint256) {\n    return vesting.endTime;\n  }\n\n  function getNumRegistered() public view returns (uint256) {\n    return vesting.numRegistered;\n  }\n\n  function getTimeInterval() public view returns (uint256) {\n    return vesting.timeInterval;\n  }\n\n  function getPercentPerInterval() public view returns (uint256) {\n    return vesting.percentPerInterval;\n  }\n\n  function getPercentReleased() public view returns (uint256) {\n    return vesting.getPercentReleased();\n  }\n\n  function getHasWithdrawn(address _participant) public view returns (uint256) {\n    return vesting.hasWithdrawn[_participant];\n  }\n\n  function getVestingAmount(address _participant) public view returns (uint256) {\n    return vesting.holdingAmount[_participant][0];\n  }\n\n  function getBonusAmount(address _participant) public view returns (uint256) {\n    return vesting.holdingAmount[_participant][1];\n  }\n\n}\n",
  "sourcePath": "/Users/joshuahannan/repository/modular/ethereum-libraries/VestingLib/truffle/contracts/VestingLibTokenTestContract.sol",
  "compiler": {
    "name": "solc",
    "version": "0.4.18+commit.9cf6e910.Emscripten.clang"
  },
  "schemaVersion": "1.0.1",
  "updatedAt": "2018-02-08T20:42:20.797Z"
}