{
  "contractName": "VestingLibETHTestContract",
  "abi": [
    {
      "constant": true,
      "inputs": [],
      "name": "getTimeInterval",
      "outputs": [
        {
          "name": "",
          "type": "uint256"
        }
      ],
      "payable": false,
      "stateMutability": "view",
      "type": "function"
    },
    {
      "constant": false,
      "inputs": [
        {
          "name": "_beneficiary",
          "type": "address"
        }
      ],
      "name": "sendETH",
      "outputs": [
        {
          "name": "",
          "type": "bool"
        }
      ],
      "payable": false,
      "stateMutability": "nonpayable",
      "type": "function"
    },
    {
      "constant": false,
      "inputs": [
        {
          "name": "_registrant",
          "type": "address"
        }
      ],
      "name": "unregisterUser",
      "outputs": [
        {
          "name": "",
          "type": "bool"
        }
      ],
      "payable": false,
      "stateMutability": "nonpayable",
      "type": "function"
    },
    {
      "constant": false,
      "inputs": [
        {
          "name": "_registrant",
          "type": "address"
        },
        {
          "name": "_vestAmount",
          "type": "uint256"
        },
        {
          "name": "_bonus",
          "type": "uint256"
        }
      ],
      "name": "registerUser",
      "outputs": [
        {
          "name": "",
          "type": "bool"
        }
      ],
      "payable": false,
      "stateMutability": "nonpayable",
      "type": "function"
    },
    {
      "constant": true,
      "inputs": [
        {
          "name": "_participant",
          "type": "address"
        }
      ],
      "name": "getBonusAmount",
      "outputs": [
        {
          "name": "",
          "type": "uint256"
        }
      ],
      "payable": false,
      "stateMutability": "view",
      "type": "function"
    },
    {
      "constant": true,
      "inputs": [],
      "name": "getEndTime",
      "outputs": [
        {
          "name": "",
          "type": "uint256"
        }
      ],
      "payable": false,
      "stateMutability": "view",
      "type": "function"
    },
    {
      "constant": true,
      "inputs": [],
      "name": "vesting",
      "outputs": [
        {
          "name": "owner",
          "type": "address"
        },
        {
          "name": "totalSupply",
          "type": "uint256"
        },
        {
          "name": "contractBalance",
          "type": "uint256"
        },
        {
          "name": "isToken",
          "type": "bool"
        },
        {
          "name": "startTime",
          "type": "uint256"
        },
        {
          "name": "endTime",
          "type": "uint256"
        },
        {
          "name": "numRegistered",
          "type": "uint256"
        },
        {
          "name": "timeInterval",
          "type": "uint256"
        },
        {
          "name": "percentPerInterval",
          "type": "uint256"
        }
      ],
      "payable": false,
      "stateMutability": "view",
      "type": "function"
    },
    {
      "constant": true,
      "inputs": [],
      "name": "getIsToken",
      "outputs": [
        {
          "name": "",
          "type": "bool"
        }
      ],
      "payable": false,
      "stateMutability": "view",
      "type": "function"
    },
    {
      "constant": false,
      "inputs": [],
      "name": "ownerWithdrawExtraETH",
      "outputs": [
        {
          "name": "",
          "type": "bool"
        }
      ],
      "payable": false,
      "stateMutability": "nonpayable",
      "type": "function"
    },
    {
      "constant": true,
      "inputs": [],
      "name": "getNumRegistered",
      "outputs": [
        {
          "name": "",
          "type": "uint256"
        }
      ],
      "payable": false,
      "stateMutability": "view",
      "type": "function"
    },
    {
      "constant": true,
      "inputs": [],
      "name": "getContractBalance",
      "outputs": [
        {
          "name": "",
          "type": "uint256"
        }
      ],
      "payable": false,
      "stateMutability": "view",
      "type": "function"
    },
    {
      "constant": false,
      "inputs": [
        {
          "name": "_replacementRegistrant",
          "type": "address"
        }
      ],
      "name": "swapRegistration",
      "outputs": [
        {
          "name": "",
          "type": "bool"
        }
      ],
      "payable": false,
      "stateMutability": "nonpayable",
      "type": "function"
    },
    {
      "constant": true,
      "inputs": [],
      "name": "getOwner",
      "outputs": [
        {
          "name": "",
          "type": "address"
        }
      ],
      "payable": false,
      "stateMutability": "view",
      "type": "function"
    },
    {
      "constant": true,
      "inputs": [
        {
          "name": "_participant",
          "type": "address"
        }
      ],
      "name": "getHasWithdrawn",
      "outputs": [
        {
          "name": "",
          "type": "uint256"
        }
      ],
      "payable": false,
      "stateMutability": "view",
      "type": "function"
    },
    {
      "constant": true,
      "inputs": [],
      "name": "getPercentReleased",
      "outputs": [
        {
          "name": "",
          "type": "uint256"
        }
      ],
      "payable": false,
      "stateMutability": "view",
      "type": "function"
    },
    {
      "constant": true,
      "inputs": [
        {
          "name": "_participant",
          "type": "address"
        }
      ],
      "name": "getVestingAmount",
      "outputs": [
        {
          "name": "",
          "type": "uint256"
        }
      ],
      "payable": false,
      "stateMutability": "view",
      "type": "function"
    },
    {
      "constant": true,
      "inputs": [],
      "name": "getTotalSupply",
      "outputs": [
        {
          "name": "",
          "type": "uint256"
        }
      ],
      "payable": false,
      "stateMutability": "view",
      "type": "function"
    },
    {
      "constant": true,
      "inputs": [],
      "name": "getStartTime",
      "outputs": [
        {
          "name": "",
          "type": "uint256"
        }
      ],
      "payable": false,
      "stateMutability": "view",
      "type": "function"
    },
    {
      "constant": false,
      "inputs": [
        {
          "name": "_registrants",
          "type": "address[]"
        },
        {
          "name": "_vestAmount",
          "type": "uint256"
        },
        {
          "name": "_bonus",
          "type": "uint256"
        }
      ],
      "name": "registerUsers",
      "outputs": [
        {
          "name": "",
          "type": "bool"
        }
      ],
      "payable": false,
      "stateMutability": "nonpayable",
      "type": "function"
    },
    {
      "constant": false,
      "inputs": [],
      "name": "withdrawETH",
      "outputs": [
        {
          "name": "",
          "type": "bool"
        }
      ],
      "payable": false,
      "stateMutability": "nonpayable",
      "type": "function"
    },
    {
      "constant": false,
      "inputs": [
        {
          "name": "_registrants",
          "type": "address[]"
        }
      ],
      "name": "unregisterUsers",
      "outputs": [
        {
          "name": "",
          "type": "bool"
        }
      ],
      "payable": false,
      "stateMutability": "nonpayable",
      "type": "function"
    },
    {
      "constant": false,
      "inputs": [],
      "name": "initializeETHBalance",
      "outputs": [
        {
          "name": "",
          "type": "bool"
        }
      ],
      "payable": true,
      "stateMutability": "payable",
      "type": "function"
    },
    {
      "constant": true,
      "inputs": [],
      "name": "getPercentPerInterval",
      "outputs": [
        {
          "name": "",
          "type": "uint256"
        }
      ],
      "payable": false,
      "stateMutability": "view",
      "type": "function"
    },
    {
      "inputs": [
        {
          "name": "_owner",
          "type": "address"
        },
        {
          "name": "_isToken",
          "type": "bool"
        },
        {
          "name": "_startTime",
          "type": "uint256"
        },
        {
          "name": "_endTime",
          "type": "uint256"
        },
        {
          "name": "_numReleases",
          "type": "uint256"
        }
      ],
      "payable": false,
      "stateMutability": "nonpayable",
      "type": "constructor"
    },
    {
      "payable": true,
      "stateMutability": "payable",
      "type": "fallback"
    },
    {
      "anonymous": false,
      "inputs": [
        {
          "indexed": false,
          "name": "amount",
          "type": "uint256"
        },
        {
          "indexed": false,
          "name": "Msg",
          "type": "string"
        }
      ],
      "name": "LogErrorMsg",
      "type": "event"
    },
    {
      "anonymous": false,
      "inputs": [
        {
          "indexed": false,
          "name": "registrant",
          "type": "address"
        }
      ],
      "name": "LogUserRegistered",
      "type": "event"
    },
    {
      "anonymous": false,
      "inputs": [
        {
          "indexed": false,
          "name": "registrant",
          "type": "address"
        }
      ],
      "name": "LogUserUnRegistered",
      "type": "event"
    },
    {
      "anonymous": false,
      "inputs": [
        {
          "indexed": false,
          "name": "currentRegistrant",
          "type": "address"
        },
        {
          "indexed": false,
          "name": "newRegistrant",
          "type": "address"
        },
        {
          "indexed": false,
          "name": "amountWithdrawn",
          "type": "uint256"
        }
      ],
      "name": "LogRegistrationReplaced",
      "type": "event"
    },
    {
      "anonymous": false,
      "inputs": [
        {
          "indexed": false,
          "name": "beneficiary",
          "type": "address"
        },
        {
          "indexed": false,
          "name": "amount",
          "type": "uint256"
        }
      ],
      "name": "LogETHWithdrawn",
      "type": "event"
    }
  ],
  "bytecode": "0x6060604052341561000f57600080fd5b60405160a08061122883398101604052808051906020019091908051906020019091908051906020019091908051906020019091908051906020019091905050600073__VestingLib____________________________6367c2049a909187878787876040518763ffffffff167c0100000000000000000000000000000000000000000000000000000000028152600401808781526020018673ffffffffffffffffffffffffffffffffffffffff1673ffffffffffffffffffffffffffffffffffffffff16815260200185151515158152602001848152602001838152602001828152602001965050505050505060006040518083038186803b151561011457600080fd5b6102c65a03f4151561012557600080fd5b50505050505050506110ec8061013c6000396000f300606060405260043610610133576000357c0100000000000000000000000000000000000000000000000000000000900463ffffffff16806303a827121461013557806321b1e5f81461015e57806321f2ca3b146101af5780633c127736146102005780633e45a29914610263578063439f5ac2146102b057806344c63eec146102d9578063501421bf1461036a578063569820b814610397578063674b81e6146103c45780636f9fb98a146103ed578063893bb75914610416578063893d20e8146104675780639b5ff407146104bc5780639cfd81f614610509578063a3fe795014610532578063c4e41b221461057f578063c828371e146105a8578063d64acab1146105d1578063e086e5ec14610655578063e42d6efa14610682578063e6a5789a146106f4578063fead24be14610716575b005b341561014057600080fd5b61014861073f565b6040518082815260200191505060405180910390f35b341561016957600080fd5b610195600480803573ffffffffffffffffffffffffffffffffffffffff1690602001909190505061074b565b604051808215151515815260200191505060405180910390f35b34156101ba57600080fd5b6101e6600480803573ffffffffffffffffffffffffffffffffffffffff16906020019091905050610818565b604051808215151515815260200191505060405180910390f35b341561020b57600080fd5b610249600480803573ffffffffffffffffffffffffffffffffffffffff169060200190919080359060200190919080359060200190919050506108e5565b604051808215151515815260200191505060405180910390f35b341561026e57600080fd5b61029a600480803573ffffffffffffffffffffffffffffffffffffffff169060200190919050506109c4565b6040518082815260200191505060405180910390f35b34156102bb57600080fd5b6102c3610a1e565b6040518082815260200191505060405180910390f35b34156102e457600080fd5b6102ec610a2a565b604051808a73ffffffffffffffffffffffffffffffffffffffff1673ffffffffffffffffffffffffffffffffffffffff16815260200189815260200188815260200187151515158152602001868152602001858152602001848152602001838152602001828152602001995050505050505050505060405180910390f35b341561037557600080fd5b61037d610a93565b604051808215151515815260200191505060405180910390f35b34156103a257600080fd5b6103aa610aac565b604051808215151515815260200191505060405180910390f35b34156103cf57600080fd5b6103d7610b43565b6040518082815260200191505060405180910390f35b34156103f857600080fd5b610400610b4f565b6040518082815260200191505060405180910390f35b341561042157600080fd5b61044d600480803573ffffffffffffffffffffffffffffffffffffffff16906020019091905050610b5b565b604051808215151515815260200191505060405180910390f35b341561047257600080fd5b61047a610c28565b604051808273ffffffffffffffffffffffffffffffffffffffff1673ffffffffffffffffffffffffffffffffffffffff16815260200191505060405180910390f35b34156104c757600080fd5b6104f3600480803573ffffffffffffffffffffffffffffffffffffffff16906020019091905050610c54565b6040518082815260200191505060405180910390f35b341561051457600080fd5b61051c610c9f565b6040518082815260200191505060405180910390f35b341561053d57600080fd5b610569600480803573ffffffffffffffffffffffffffffffffffffffff16906020019091905050610d36565b6040518082815260200191505060405180910390f35b341561058a57600080fd5b610592610d90565b6040518082815260200191505060405180910390f35b34156105b357600080fd5b6105bb610d9c565b6040518082815260200191505060405180910390f35b34156105dc57600080fd5b61063b600480803590602001908201803590602001908080602002602001604051908101604052809392919081815260200183836020028082843782019150505050505091908035906020019091908035906020019091905050610da8565b604051808215151515815260200191505060405180910390f35b341561066057600080fd5b610668610e9c565b604051808215151515815260200191505060405180910390f35b341561068d57600080fd5b6106da600480803590602001908201803590602001908080602002602001604051908101604052809392919081815260200183836020028082843782019150505050505091905050610f33565b604051808215151515815260200191505060405180910390f35b6106fc611015565b604051808215151515815260200191505060405180910390f35b341561072157600080fd5b6107296110b4565b6040518082815260200191505060405180910390f35b60008060070154905090565b60008073__VestingLib____________________________6304ab80819091846000604051602001526040518363ffffffff167c0100000000000000000000000000000000000000000000000000000000028152600401808381526020018273ffffffffffffffffffffffffffffffffffffffff1673ffffffffffffffffffffffffffffffffffffffff1681526020019250505060206040518083038186803b15156107f657600080fd5b6102c65a03f4151561080757600080fd5b505050604051805190509050919050565b60008073__VestingLib____________________________63a28541499091846000604051602001526040518363ffffffff167c0100000000000000000000000000000000000000000000000000000000028152600401808381526020018273ffffffffffffffffffffffffffffffffffffffff1673ffffffffffffffffffffffffffffffffffffffff1681526020019250505060206040518083038186803b15156108c357600080fd5b6102c65a03f415156108d457600080fd5b505050604051805190509050919050565b60008073__VestingLib____________________________63d9384d2690918686866000604051602001526040518563ffffffff167c0100000000000000000000000000000000000000000000000000000000028152600401808581526020018473ffffffffffffffffffffffffffffffffffffffff1673ffffffffffffffffffffffffffffffffffffffff16815260200183815260200182815260200194505050505060206040518083038186803b15156109a057600080fd5b6102c65a03f415156109b157600080fd5b5050506040518051905090509392505050565b60008060090160008373ffffffffffffffffffffffffffffffffffffffff1673ffffffffffffffffffffffffffffffffffffffff1681526020019081526020016000206001600281101515610a1557fe5b01549050919050565b60008060050154905090565b60008060000160009054906101000a900473ffffffffffffffffffffffffffffffffffffffff16908060010154908060020154908060030160009054906101000a900460ff16908060040154908060050154908060060154908060070154908060080154905089565b60008060030160009054906101000a900460ff16905090565b60008073__VestingLib____________________________6348e76e7490916000604051602001526040518263ffffffff167c01000000000000000000000000000000000000000000000000000000000281526004018082815260200191505060206040518083038186803b1515610b2357600080fd5b6102c65a03f41515610b3457600080fd5b50505060405180519050905090565b60008060060154905090565b60008060020154905090565b60008073__VestingLib____________________________63bd28d0619091846000604051602001526040518363ffffffff167c0100000000000000000000000000000000000000000000000000000000028152600401808381526020018273ffffffffffffffffffffffffffffffffffffffff1673ffffffffffffffffffffffffffffffffffffffff1681526020019250505060206040518083038186803b1515610c0657600080fd5b6102c65a03f41515610c1757600080fd5b505050604051805190509050919050565b60008060000160009054906101000a900473ffffffffffffffffffffffffffffffffffffffff16905090565b600080600a0160008373ffffffffffffffffffffffffffffffffffffffff1673ffffffffffffffffffffffffffffffffffffffff168152602001908152602001600020549050919050565b60008073__VestingLib____________________________63eaea41c490916000604051602001526040518263ffffffff167c01000000000000000000000000000000000000000000000000000000000281526004018082815260200191505060206040518083038186803b1515610d1657600080fd5b6102c65a03f41515610d2757600080fd5b50505060405180519050905090565b60008060090160008373ffffffffffffffffffffffffffffffffffffffff1673ffffffffffffffffffffffffffffffffffffffff1681526020019081526020016000206000600281101515610d8757fe5b01549050919050565b60008060010154905090565b60008060040154905090565b60008073__VestingLib____________________________6328d36cb490918686866000604051602001526040518563ffffffff167c01000000000000000000000000000000000000000000000000000000000281526004018085815260200180602001848152602001838152602001828103825285818151815260200191508051906020019060200280838360005b83811015610e53578082015181840152602081019050610e38565b505050509050019550505050505060206040518083038186803b1515610e7857600080fd5b6102c65a03f41515610e8957600080fd5b5050506040518051905090509392505050565b60008073__VestingLib____________________________6384dbe4d590916000604051602001526040518263ffffffff167c01000000000000000000000000000000000000000000000000000000000281526004018082815260200191505060206040518083038186803b1515610f1357600080fd5b6102c65a03f41515610f2457600080fd5b50505060405180519050905090565b60008073__VestingLib____________________________638266c55a9091846000604051602001526040518363ffffffff167c01000000000000000000000000000000000000000000000000000000000281526004018083815260200180602001828103825283818151815260200191508051906020019060200280838360005b83811015610fd0578082015181840152602081019050610fb5565b50505050905001935050505060206040518083038186803b1515610ff357600080fd5b6102c65a03f4151561100457600080fd5b505050604051805190509050919050565b60008073__VestingLib____________________________63b94aac9e9091346000604051602001526040518363ffffffff167c0100000000000000000000000000000000000000000000000000000000028152600401808381526020018281526020019250505060206040518083038186803b151561109457600080fd5b6102c65a03f415156110a557600080fd5b50505060405180519050905090565b600080600801549050905600a165627a7a72305820c0ad57baef9bf7cfd3abca4ede78ccbbed9a1049890055a7cf9cfe79ff33a4740029",
  "deployedBytecode": "0x606060405260043610610133576000357c0100000000000000000000000000000000000000000000000000000000900463ffffffff16806303a827121461013557806321b1e5f81461015e57806321f2ca3b146101af5780633c127736146102005780633e45a29914610263578063439f5ac2146102b057806344c63eec146102d9578063501421bf1461036a578063569820b814610397578063674b81e6146103c45780636f9fb98a146103ed578063893bb75914610416578063893d20e8146104675780639b5ff407146104bc5780639cfd81f614610509578063a3fe795014610532578063c4e41b221461057f578063c828371e146105a8578063d64acab1146105d1578063e086e5ec14610655578063e42d6efa14610682578063e6a5789a146106f4578063fead24be14610716575b005b341561014057600080fd5b61014861073f565b6040518082815260200191505060405180910390f35b341561016957600080fd5b610195600480803573ffffffffffffffffffffffffffffffffffffffff1690602001909190505061074b565b604051808215151515815260200191505060405180910390f35b34156101ba57600080fd5b6101e6600480803573ffffffffffffffffffffffffffffffffffffffff16906020019091905050610818565b604051808215151515815260200191505060405180910390f35b341561020b57600080fd5b610249600480803573ffffffffffffffffffffffffffffffffffffffff169060200190919080359060200190919080359060200190919050506108e5565b604051808215151515815260200191505060405180910390f35b341561026e57600080fd5b61029a600480803573ffffffffffffffffffffffffffffffffffffffff169060200190919050506109c4565b6040518082815260200191505060405180910390f35b34156102bb57600080fd5b6102c3610a1e565b6040518082815260200191505060405180910390f35b34156102e457600080fd5b6102ec610a2a565b604051808a73ffffffffffffffffffffffffffffffffffffffff1673ffffffffffffffffffffffffffffffffffffffff16815260200189815260200188815260200187151515158152602001868152602001858152602001848152602001838152602001828152602001995050505050505050505060405180910390f35b341561037557600080fd5b61037d610a93565b604051808215151515815260200191505060405180910390f35b34156103a257600080fd5b6103aa610aac565b604051808215151515815260200191505060405180910390f35b34156103cf57600080fd5b6103d7610b43565b6040518082815260200191505060405180910390f35b34156103f857600080fd5b610400610b4f565b6040518082815260200191505060405180910390f35b341561042157600080fd5b61044d600480803573ffffffffffffffffffffffffffffffffffffffff16906020019091905050610b5b565b604051808215151515815260200191505060405180910390f35b341561047257600080fd5b61047a610c28565b604051808273ffffffffffffffffffffffffffffffffffffffff1673ffffffffffffffffffffffffffffffffffffffff16815260200191505060405180910390f35b34156104c757600080fd5b6104f3600480803573ffffffffffffffffffffffffffffffffffffffff16906020019091905050610c54565b6040518082815260200191505060405180910390f35b341561051457600080fd5b61051c610c9f565b6040518082815260200191505060405180910390f35b341561053d57600080fd5b610569600480803573ffffffffffffffffffffffffffffffffffffffff16906020019091905050610d36565b6040518082815260200191505060405180910390f35b341561058a57600080fd5b610592610d90565b6040518082815260200191505060405180910390f35b34156105b357600080fd5b6105bb610d9c565b6040518082815260200191505060405180910390f35b34156105dc57600080fd5b61063b600480803590602001908201803590602001908080602002602001604051908101604052809392919081815260200183836020028082843782019150505050505091908035906020019091908035906020019091905050610da8565b604051808215151515815260200191505060405180910390f35b341561066057600080fd5b610668610e9c565b604051808215151515815260200191505060405180910390f35b341561068d57600080fd5b6106da600480803590602001908201803590602001908080602002602001604051908101604052809392919081815260200183836020028082843782019150505050505091905050610f33565b604051808215151515815260200191505060405180910390f35b6106fc611015565b604051808215151515815260200191505060405180910390f35b341561072157600080fd5b6107296110b4565b6040518082815260200191505060405180910390f35b60008060070154905090565b60008073__VestingLib____________________________6304ab80819091846000604051602001526040518363ffffffff167c0100000000000000000000000000000000000000000000000000000000028152600401808381526020018273ffffffffffffffffffffffffffffffffffffffff1673ffffffffffffffffffffffffffffffffffffffff1681526020019250505060206040518083038186803b15156107f657600080fd5b6102c65a03f4151561080757600080fd5b505050604051805190509050919050565b60008073__VestingLib____________________________63a28541499091846000604051602001526040518363ffffffff167c0100000000000000000000000000000000000000000000000000000000028152600401808381526020018273ffffffffffffffffffffffffffffffffffffffff1673ffffffffffffffffffffffffffffffffffffffff1681526020019250505060206040518083038186803b15156108c357600080fd5b6102c65a03f415156108d457600080fd5b505050604051805190509050919050565b60008073__VestingLib____________________________63d9384d2690918686866000604051602001526040518563ffffffff167c0100000000000000000000000000000000000000000000000000000000028152600401808581526020018473ffffffffffffffffffffffffffffffffffffffff1673ffffffffffffffffffffffffffffffffffffffff16815260200183815260200182815260200194505050505060206040518083038186803b15156109a057600080fd5b6102c65a03f415156109b157600080fd5b5050506040518051905090509392505050565b60008060090160008373ffffffffffffffffffffffffffffffffffffffff1673ffffffffffffffffffffffffffffffffffffffff1681526020019081526020016000206001600281101515610a1557fe5b01549050919050565b60008060050154905090565b60008060000160009054906101000a900473ffffffffffffffffffffffffffffffffffffffff16908060010154908060020154908060030160009054906101000a900460ff16908060040154908060050154908060060154908060070154908060080154905089565b60008060030160009054906101000a900460ff16905090565b60008073__VestingLib____________________________6348e76e7490916000604051602001526040518263ffffffff167c01000000000000000000000000000000000000000000000000000000000281526004018082815260200191505060206040518083038186803b1515610b2357600080fd5b6102c65a03f41515610b3457600080fd5b50505060405180519050905090565b60008060060154905090565b60008060020154905090565b60008073__VestingLib____________________________63bd28d0619091846000604051602001526040518363ffffffff167c0100000000000000000000000000000000000000000000000000000000028152600401808381526020018273ffffffffffffffffffffffffffffffffffffffff1673ffffffffffffffffffffffffffffffffffffffff1681526020019250505060206040518083038186803b1515610c0657600080fd5b6102c65a03f41515610c1757600080fd5b505050604051805190509050919050565b60008060000160009054906101000a900473ffffffffffffffffffffffffffffffffffffffff16905090565b600080600a0160008373ffffffffffffffffffffffffffffffffffffffff1673ffffffffffffffffffffffffffffffffffffffff168152602001908152602001600020549050919050565b60008073__VestingLib____________________________63eaea41c490916000604051602001526040518263ffffffff167c01000000000000000000000000000000000000000000000000000000000281526004018082815260200191505060206040518083038186803b1515610d1657600080fd5b6102c65a03f41515610d2757600080fd5b50505060405180519050905090565b60008060090160008373ffffffffffffffffffffffffffffffffffffffff1673ffffffffffffffffffffffffffffffffffffffff1681526020019081526020016000206000600281101515610d8757fe5b01549050919050565b60008060010154905090565b60008060040154905090565b60008073__VestingLib____________________________6328d36cb490918686866000604051602001526040518563ffffffff167c01000000000000000000000000000000000000000000000000000000000281526004018085815260200180602001848152602001838152602001828103825285818151815260200191508051906020019060200280838360005b83811015610e53578082015181840152602081019050610e38565b505050509050019550505050505060206040518083038186803b1515610e7857600080fd5b6102c65a03f41515610e8957600080fd5b5050506040518051905090509392505050565b60008073__VestingLib____________________________6384dbe4d590916000604051602001526040518263ffffffff167c01000000000000000000000000000000000000000000000000000000000281526004018082815260200191505060206040518083038186803b1515610f1357600080fd5b6102c65a03f41515610f2457600080fd5b50505060405180519050905090565b60008073__VestingLib____________________________638266c55a9091846000604051602001526040518363ffffffff167c01000000000000000000000000000000000000000000000000000000000281526004018083815260200180602001828103825283818151815260200191508051906020019060200280838360005b83811015610fd0578082015181840152602081019050610fb5565b50505050905001935050505060206040518083038186803b1515610ff357600080fd5b6102c65a03f4151561100457600080fd5b505050604051805190509050919050565b60008073__VestingLib____________________________63b94aac9e9091346000604051602001526040518363ffffffff167c0100000000000000000000000000000000000000000000000000000000028152600401808381526020018281526020019250505060206040518083038186803b151561109457600080fd5b6102c65a03f415156110a557600080fd5b50505060405180519050905090565b600080600801549050905600a165627a7a72305820c0ad57baef9bf7cfd3abca4ede78ccbbed9a1049890055a7cf9cfe79ff33a4740029",
  "source": "pragma solidity ^0.4.18;\n\nimport \"./VestingLib.sol\";\n\ncontract VestingLibETHTestContract {\n  using VestingLib for VestingLib.VestingStorage;\n\n  VestingLib.VestingStorage public vesting;\n\n  // Generic Error message, error code and string\n  event LogErrorMsg(uint256 amount, string Msg);\n\n  // Logs when a user is registered in the system for vesting\n  event LogUserRegistered(address registrant);\n\n  // Logs when a user is unregistered from the system\n  event LogUserUnRegistered(address registrant);\n\n  // Logs when a user replaces themselves with a different beneficiary\n  event LogRegistrationReplaced(address currentRegistrant, address newRegistrant, uint256 amountWithdrawn);\n\n  // Logs when a user withdraws their ETH from vesting\n  event LogETHWithdrawn(address beneficiary, uint256 amount);\n\n  function VestingLibETHTestContract(\n                address _owner,\n                bool _isToken,\n                uint256 _startTime,\n                uint256 _endTime,\n                uint256 _numReleases) public\n  {\n    vesting.init(_owner, _isToken, _startTime, _endTime, _numReleases);\n  }\n\n  function() payable public {}\n\n  function initializeETHBalance() payable public returns (bool) {\n    return vesting.initializeETHBalance(msg.value);\n  }\n\n  function registerUser(address _registrant, uint256 _vestAmount, uint256 _bonus) public returns (bool) {\n    return vesting.registerUser(_registrant, _vestAmount, _bonus);\n  }\n\n  function registerUsers(address[] _registrants, uint256 _vestAmount, uint256 _bonus) public returns (bool) {\n    return vesting.registerUsers(_registrants, _vestAmount, _bonus);\n  }\n\n  function unregisterUser(address _registrant) public returns (bool) {\n    return vesting.unregisterUser(_registrant);\n  }\n\n  function unregisterUsers(address[] _registrants) public returns (bool) {\n    return vesting.unregisterUsers(_registrants);\n  }\n\n  function swapRegistration(address _replacementRegistrant) public returns (bool) {\n    return vesting.swapRegistration(_replacementRegistrant);\n  }\n\n  function withdrawETH() public returns (bool) {\n    return vesting.withdrawETH();\n  }\n\n  function sendETH(address _beneficiary) public returns (bool) {\n    return vesting.sendETH(_beneficiary);\n  }\n\n  function ownerWithdrawExtraETH() public returns (bool) {\n    return vesting.ownerWithdrawExtraETH();\n  }\n\n  /*Getters*/\n\n  function getOwner() public view returns (address) {\n    return vesting.owner;\n  }\n\n  function getTotalSupply() public view returns (uint256) {\n    return vesting.totalSupply;\n  }\n\n  function getContractBalance() public view returns (uint256) {\n    return vesting.contractBalance;\n  }\n\n  function getIsToken() public view returns (bool) {\n    return vesting.isToken;\n  }\n\n  function getStartTime() public view returns (uint256) {\n    return vesting.startTime;\n  }\n\n  function getEndTime() public view returns (uint256) {\n    return vesting.endTime;\n  }\n\n  function getNumRegistered() public view returns (uint256) {\n    return vesting.numRegistered;\n  }\n\n  function getTimeInterval() public view returns (uint256) {\n    return vesting.timeInterval;\n  }\n\n  function getPercentPerInterval() public view returns (uint256) {\n    return vesting.percentPerInterval;\n  }\n\n  function getPercentReleased() public view returns (uint256) {\n    return vesting.getPercentReleased();\n  }\n\n  function getHasWithdrawn(address _participant) public view returns (uint256) {\n    return vesting.hasWithdrawn[_participant];\n  }\n\n  function getVestingAmount(address _participant) public view returns (uint256) {\n    return vesting.holdingAmount[_participant][0];\n  }\n\n  function getBonusAmount(address _participant) public view returns (uint256) {\n    return vesting.holdingAmount[_participant][1];\n  }\n}\n",
  "sourcePath": "/Users/joshuahannan/repository/majoolr/ethereum-libraries/VestingLib/truffle/contracts/VestingLibETHTestContract.sol",
  "compiler": {
    "name": "solc",
    "version": "0.4.18+commit.9cf6e910.Emscripten.clang"
  },
  "schemaVersion": "1.0.1",
  "updatedAt": "2018-01-19T20:37:44.797Z"
}