{
  "contractName": "VestingLib",
  "abi": [
    {
      "constant": false,
      "inputs": [
        {
          "name": "self",
          "type": "VestingLib.VestingStorage storage"
        },
        {
          "name": "_beneficiary",
          "type": "address"
        }
      ],
      "name": "sendETH",
      "outputs": [
        {
          "name": "",
          "type": "bool"
        }
      ],
      "payable": false,
      "stateMutability": "nonpayable",
      "type": "function"
    },
    {
      "constant": false,
      "inputs": [
        {
          "name": "self",
          "type": "VestingLib.VestingStorage storage"
        },
        {
          "name": "_registrants",
          "type": "address[]"
        },
        {
          "name": "_vestAmount",
          "type": "uint256"
        },
        {
          "name": "_bonus",
          "type": "uint256"
        }
      ],
      "name": "registerUsers",
      "outputs": [
        {
          "name": "",
          "type": "bool"
        }
      ],
      "payable": false,
      "stateMutability": "nonpayable",
      "type": "function"
    },
    {
      "constant": false,
      "inputs": [
        {
          "name": "self",
          "type": "VestingLib.VestingStorage storage"
        }
      ],
      "name": "ownerWithdrawExtraETH",
      "outputs": [
        {
          "name": "",
          "type": "bool"
        }
      ],
      "payable": false,
      "stateMutability": "nonpayable",
      "type": "function"
    },
    {
      "constant": false,
      "inputs": [
        {
          "name": "self",
          "type": "VestingLib.VestingStorage storage"
        },
        {
          "name": "_owner",
          "type": "address"
        },
        {
          "name": "_isToken",
          "type": "bool"
        },
        {
          "name": "_startTime",
          "type": "uint256"
        },
        {
          "name": "_endTime",
          "type": "uint256"
        },
        {
          "name": "_numReleases",
          "type": "uint256"
        }
      ],
      "name": "init",
      "outputs": [],
      "payable": false,
      "stateMutability": "nonpayable",
      "type": "function"
    },
    {
      "constant": false,
      "inputs": [
        {
          "name": "self",
          "type": "VestingLib.VestingStorage storage"
        },
        {
          "name": "token",
          "type": "CrowdsaleToken"
        },
        {
          "name": "_balance",
          "type": "uint256"
        }
      ],
      "name": "initializeTokenBalance",
      "outputs": [
        {
          "name": "",
          "type": "bool"
        }
      ],
      "payable": false,
      "stateMutability": "nonpayable",
      "type": "function"
    },
    {
      "constant": false,
      "inputs": [
        {
          "name": "self",
          "type": "VestingLib.VestingStorage storage"
        },
        {
          "name": "token",
          "type": "CrowdsaleToken"
        }
      ],
      "name": "withdrawTokens",
      "outputs": [
        {
          "name": "",
          "type": "bool"
        }
      ],
      "payable": false,
      "stateMutability": "nonpayable",
      "type": "function"
    },
    {
      "constant": false,
      "inputs": [
        {
          "name": "self",
          "type": "VestingLib.VestingStorage storage"
        },
        {
          "name": "_registrants",
          "type": "address[]"
        }
      ],
      "name": "unregisterUsers",
      "outputs": [
        {
          "name": "",
          "type": "bool"
        }
      ],
      "payable": false,
      "stateMutability": "nonpayable",
      "type": "function"
    },
    {
      "constant": false,
      "inputs": [
        {
          "name": "self",
          "type": "VestingLib.VestingStorage storage"
        }
      ],
      "name": "withdrawETH",
      "outputs": [
        {
          "name": "",
          "type": "bool"
        }
      ],
      "payable": false,
      "stateMutability": "nonpayable",
      "type": "function"
    },
    {
      "constant": false,
      "inputs": [
        {
          "name": "self",
          "type": "VestingLib.VestingStorage storage"
        },
        {
          "name": "token",
          "type": "CrowdsaleToken"
        }
      ],
      "name": "ownerWithdrawExtraTokens",
      "outputs": [
        {
          "name": "",
          "type": "bool"
        }
      ],
      "payable": false,
      "stateMutability": "nonpayable",
      "type": "function"
    },
    {
      "constant": false,
      "inputs": [
        {
          "name": "self",
          "type": "VestingLib.VestingStorage storage"
        },
        {
          "name": "_registrant",
          "type": "address"
        }
      ],
      "name": "unregisterUser",
      "outputs": [
        {
          "name": "",
          "type": "bool"
        }
      ],
      "payable": false,
      "stateMutability": "nonpayable",
      "type": "function"
    },
    {
      "constant": false,
      "inputs": [
        {
          "name": "self",
          "type": "VestingLib.VestingStorage storage"
        },
        {
          "name": "token",
          "type": "CrowdsaleToken"
        },
        {
          "name": "_beneficiary",
          "type": "address"
        }
      ],
      "name": "sendTokens",
      "outputs": [
        {
          "name": "",
          "type": "bool"
        }
      ],
      "payable": false,
      "stateMutability": "nonpayable",
      "type": "function"
    },
    {
      "constant": false,
      "inputs": [
        {
          "name": "self",
          "type": "VestingLib.VestingStorage storage"
        },
        {
          "name": "_balance",
          "type": "uint256"
        }
      ],
      "name": "initializeETHBalance",
      "outputs": [
        {
          "name": "",
          "type": "bool"
        }
      ],
      "payable": false,
      "stateMutability": "nonpayable",
      "type": "function"
    },
    {
      "constant": false,
      "inputs": [
        {
          "name": "self",
          "type": "VestingLib.VestingStorage storage"
        },
        {
          "name": "_replacementRegistrant",
          "type": "address"
        }
      ],
      "name": "swapRegistration",
      "outputs": [
        {
          "name": "",
          "type": "bool"
        }
      ],
      "payable": false,
      "stateMutability": "nonpayable",
      "type": "function"
    },
    {
      "constant": false,
      "inputs": [
        {
          "name": "self",
          "type": "VestingLib.VestingStorage storage"
        },
        {
          "name": "_registrant",
          "type": "address"
        },
        {
          "name": "_vestAmount",
          "type": "uint256"
        },
        {
          "name": "_bonus",
          "type": "uint256"
        }
      ],
      "name": "registerUser",
      "outputs": [
        {
          "name": "",
          "type": "bool"
        }
      ],
      "payable": false,
      "stateMutability": "nonpayable",
      "type": "function"
    },
    {
      "constant": true,
      "inputs": [
        {
          "name": "self",
          "type": "VestingLib.VestingStorage storage"
        }
      ],
      "name": "getPercentReleased",
      "outputs": [
        {
          "name": "",
          "type": "uint256"
        }
      ],
      "payable": false,
      "stateMutability": "view",
      "type": "function"
    },
    {
      "anonymous": false,
      "inputs": [
        {
          "indexed": false,
          "name": "amount",
          "type": "uint256"
        },
        {
          "indexed": false,
          "name": "Msg",
          "type": "string"
        }
      ],
      "name": "LogErrorMsg",
      "type": "event"
    },
    {
      "anonymous": false,
      "inputs": [
        {
          "indexed": false,
          "name": "registrant",
          "type": "address"
        },
        {
          "indexed": false,
          "name": "vestAmount",
          "type": "uint256"
        },
        {
          "indexed": false,
          "name": "bonus",
          "type": "uint256"
        }
      ],
      "name": "LogUserRegistered",
      "type": "event"
    },
    {
      "anonymous": false,
      "inputs": [
        {
          "indexed": false,
          "name": "registrant",
          "type": "address"
        }
      ],
      "name": "LogUserUnRegistered",
      "type": "event"
    },
    {
      "anonymous": false,
      "inputs": [
        {
          "indexed": false,
          "name": "currentRegistrant",
          "type": "address"
        },
        {
          "indexed": false,
          "name": "newRegistrant",
          "type": "address"
        },
        {
          "indexed": false,
          "name": "amountWithdrawn",
          "type": "uint256"
        }
      ],
      "name": "LogRegistrationReplaced",
      "type": "event"
    },
    {
      "anonymous": false,
      "inputs": [
        {
          "indexed": false,
          "name": "beneficiary",
          "type": "address"
        },
        {
          "indexed": false,
          "name": "amount",
          "type": "uint256"
        }
      ],
      "name": "LogETHWithdrawn",
      "type": "event"
    },
    {
      "anonymous": false,
      "inputs": [
        {
          "indexed": false,
          "name": "beneficiary",
          "type": "address"
        },
        {
          "indexed": false,
          "name": "amount",
          "type": "uint256"
        }
      ],
      "name": "LogTokensWithdrawn",
      "type": "event"
    }
  ],
  "bytecode": "0x6060604052341561000f57600080fd5b6137798061001e6000396000f3006060604052600436106100db576000357c0100000000000000000000000000000000000000000000000000000000900463ffffffff16806304ab8081146100e057806328d36cb41461012f57806348e76e74146101b157806367c2049a146101e15780637a518ea31461023e5780637b666266146102965780638266c55a146102e557806384dbe4d514610355578063a24366a514610385578063a2854149146103d4578063b32b9cde14610423578063b94aac9e14610491578063bd28d061146104ca578063d9384d2614610519578063eaea41c41461057a575b600080fd5b610115600480803590602001909190803573ffffffffffffffffffffffffffffffffffffffff169060200190919050506105a6565b604051808215151515815260200191505060405180910390f35b610197600480803590602001909190803590602001908201803590602001908080602002602001604051908101604052809392919081815260200183836020028082843782019150505050505091908035906020019091908035906020019091905050610adb565b604051808215151515815260200191505060405180910390f35b6101c76004808035906020019091905050610b8b565b604051808215151515815260200191505060405180910390f35b61023c600480803590602001909190803573ffffffffffffffffffffffffffffffffffffffff169060200190919080351515906020019091908035906020019091908035906020019091908035906020019091905050610d3d565b005b61027c600480803590602001909190803573ffffffffffffffffffffffffffffffffffffffff16906020019091908035906020019091905050610eb1565b604051808215151515815260200191505060405180910390f35b6102cb600480803590602001909190803573ffffffffffffffffffffffffffffffffffffffff1690602001909190505061104b565b604051808215151515815260200191505060405180910390f35b61033b600480803590602001909190803590602001908201803590602001908080602002602001604051908101604052809392919081815260200183836020028082843782019150505050505091905050611643565b604051808215151515815260200191505060405180910390f35b61036b60048080359060200190919050506116ef565b604051808215151515815260200191505060405180910390f35b6103ba600480803590602001909190803573ffffffffffffffffffffffffffffffffffffffff16906020019091905050611bc5565b604051808215151515815260200191505060405180910390f35b610409600480803590602001909190803573ffffffffffffffffffffffffffffffffffffffff16906020019091905050611ea4565b604051808215151515815260200191505060405180910390f35b610477600480803590602001909190803573ffffffffffffffffffffffffffffffffffffffff1690602001909190803573ffffffffffffffffffffffffffffffffffffffff16906020019091905050612351565b604051808215151515815260200191505060405180910390f35b6104b0600480803590602001909190803590602001909190505061299c565b604051808215151515815260200191505060405180910390f35b6104ff600480803590602001909190803573ffffffffffffffffffffffffffffffffffffffff16906020019091905050612a6b565b604051808215151515815260200191505060405180910390f35b610560600480803590602001909190803573ffffffffffffffffffffffffffffffffffffffff16906020019091908035906020019091908035906020019091905050612ebf565b604051808215151515815260200191505060405180910390f35b6105906004808035906020019091905050613507565b6040518082815260200191505060405180910390f35b60008060008060008660040154421115156105c057600080fd5b8660000160009054906101000a900473ffffffffffffffffffffffffffffffffffffffff1673ffffffffffffffffffffffffffffffffffffffff163373ffffffffffffffffffffffffffffffffffffffff1614151561061e57600080fd5b8660030160009054906101000a900460ff1615151561063c57600080fd5b86600501544210801561069f575060008760090160008873ffffffffffffffffffffffffffffffffffffffff1673ffffffffffffffffffffffffffffffffffffffff168152602001908152602001600020600160028110151561069b57fe5b0154115b15610770576106ae878761353e565b91508660090160008773ffffffffffffffffffffffffffffffffffffffff1673ffffffffffffffffffffffffffffffffffffffff16815260200190815260200160002060016002811015156106ff57fe5b0154905060008760090160008873ffffffffffffffffffffffffffffffffffffffff1673ffffffffffffffffffffffffffffffffffffffff168152602001908152602001600020600160028110151561075457fe5b01819055508087600201600082825401925050819055506109d3565b86600501544211156109c5578660090160008773ffffffffffffffffffffffffffffffffffffffff1673ffffffffffffffffffffffffffffffffffffffff16815260200190815260200160002060016002811015156107cb57fe5b01548760090160008873ffffffffffffffffffffffffffffffffffffffff1673ffffffffffffffffffffffffffffffffffffffff168152602001908152602001600020600060028110151561081c57fe5b01540191508173__BasicMathLib__________________________63f4f3bdc1909189600a0160008a73ffffffffffffffffffffffffffffffffffffffff1673ffffffffffffffffffffffffffffffffffffffff168152602001908152602001600020546000604051604001526040518363ffffffff167c01000000000000000000000000000000000000000000000000000000000281526004018083815260200182815260200192505050604080518083038186803b15156108de57600080fd5b6102c65a03f415156108ef57600080fd5b5050506040518051906020018051905080935081955050508215151561091457600080fd5b60008760090160008873ffffffffffffffffffffffffffffffffffffffff1673ffffffffffffffffffffffffffffffffffffffff168152602001908152602001600020600060028110151561096557fe5b018190555060008760090160008873ffffffffffffffffffffffffffffffffffffffff1673ffffffffffffffffffffffffffffffffffffffff16815260200190815260200160002060016002811015156109bb57fe5b01819055506109d2565b6109cf878761353e565b91505b5b8187600a0160008873ffffffffffffffffffffffffffffffffffffffff1673ffffffffffffffffffffffffffffffffffffffff168152602001908152602001600020600082825401925050819055508573ffffffffffffffffffffffffffffffffffffffff166108fc839081150290604051600060405180830381858888f193505050501515610a6257600080fd5b7f62856bc6e86e01ae6673e12c9c3802a79107e10c39e81fee2257524108f81f0d8683604051808373ffffffffffffffffffffffffffffffffffffffff1673ffffffffffffffffffffffffffffffffffffffff1681526020018281526020019250505060405180910390a1600194505050505092915050565b60008060008660000160009054906101000a900473ffffffffffffffffffffffffffffffffffffffff1673ffffffffffffffffffffffffffffffffffffffff163373ffffffffffffffffffffffffffffffffffffffff16141515610b3e57600080fd5b600090505b8551811015610b7e57610b6f878783815181101515610b5e57fe5b906020019060200201518787612ebf565b91508080600101915050610b43565b8192505050949350505050565b6000808260000160009054906101000a900473ffffffffffffffffffffffffffffffffffffffff1673ffffffffffffffffffffffffffffffffffffffff163373ffffffffffffffffffffffffffffffffffffffff16141515610bec57600080fd5b826005015442111515610bfe57600080fd5b8260030160009054906101000a900460ff16151515610c1c57600080fd5b3073ffffffffffffffffffffffffffffffffffffffff16319050600083600201819055508260000160009054906101000a900473ffffffffffffffffffffffffffffffffffffffff1673ffffffffffffffffffffffffffffffffffffffff166108fc829081150290604051600060405180830381858888f193505050501515610ca457600080fd5b7f62856bc6e86e01ae6673e12c9c3802a79107e10c39e81fee2257524108f81f0d8360000160009054906101000a900473ffffffffffffffffffffffffffffffffffffffff1682604051808373ffffffffffffffffffffffffffffffffffffffff1673ffffffffffffffffffffffffffffffffffffffff1681526020018281526020019250505060405180910390a16001915050919050565b60008660000160009054906101000a900473ffffffffffffffffffffffffffffffffffffffff1673ffffffffffffffffffffffffffffffffffffffff16141515610d8657600080fd5b60008660010154141515610d9957600080fd5b60008573ffffffffffffffffffffffffffffffffffffffff1614151515610dbf57600080fd5b4283111515610dcd57600080fd5b8282111515610ddb57600080fd5b600081111515610dea57600080fd5b60648111151515610dfa57600080fd5b848660000160006101000a81548173ffffffffffffffffffffffffffffffffffffffff021916908373ffffffffffffffffffffffffffffffffffffffff160217905550838660030160006101000a81548160ff02191690831515021790555082866004018190555081866005018190555080838303811515610e7857fe5b04866007018190555060008660070154111515610e9457600080fd5b806064811515610ea057fe5b048660080181905550505050505050565b60008360000160009054906101000a900473ffffffffffffffffffffffffffffffffffffffff1673ffffffffffffffffffffffffffffffffffffffff163373ffffffffffffffffffffffffffffffffffffffff16141515610f1157600080fd5b836004015442101515610f2357600080fd5b60008214151515610f3357600080fd5b8360030160009054906101000a900460ff161515610f5057600080fd5b818373ffffffffffffffffffffffffffffffffffffffff166370a08231306000604051602001526040518263ffffffff167c0100000000000000000000000000000000000000000000000000000000028152600401808273ffffffffffffffffffffffffffffffffffffffff1673ffffffffffffffffffffffffffffffffffffffff168152602001915050602060405180830381600087803b1515610ff457600080fd5b6102c65a03f1151561100557600080fd5b5050506040518051905014151561101b57600080fd5b6000846001015414151561102e57600080fd5b818460010181905550818460020181905550600190509392505050565b600080600080600086600401544211151561106557600080fd5b8660030160009054906101000a900460ff16151561108257600080fd5b8660050154421080156110e5575060008760090160003373ffffffffffffffffffffffffffffffffffffffff1673ffffffffffffffffffffffffffffffffffffffff16815260200190815260200160002060016002811015156110e157fe5b0154115b15611244576110f4873361353e565b91508660090160003373ffffffffffffffffffffffffffffffffffffffff1673ffffffffffffffffffffffffffffffffffffffff168152602001908152602001600020600160028110151561114557fe5b0154905060008760090160003373ffffffffffffffffffffffffffffffffffffffff1673ffffffffffffffffffffffffffffffffffffffff168152602001908152602001600020600160028110151561119a57fe5b01819055508573ffffffffffffffffffffffffffffffffffffffff16637b47ec1a826000604051602001526040518263ffffffff167c010000000000000000000000000000000000000000000000000000000002815260040180828152602001915050602060405180830381600087803b151561121657600080fd5b6102c65a03f1151561122757600080fd5b50505060405180519050935083151561123f57600080fd5b6114a7565b8660050154421115611499578660090160003373ffffffffffffffffffffffffffffffffffffffff1673ffffffffffffffffffffffffffffffffffffffff168152602001908152602001600020600160028110151561129f57fe5b01548760090160003373ffffffffffffffffffffffffffffffffffffffff1673ffffffffffffffffffffffffffffffffffffffff16815260200190815260200160002060006002811015156112f057fe5b01540191508173__BasicMathLib__________________________63f4f3bdc1909189600a0160003373ffffffffffffffffffffffffffffffffffffffff1673ffffffffffffffffffffffffffffffffffffffff168152602001908152602001600020546000604051604001526040518363ffffffff167c01000000000000000000000000000000000000000000000000000000000281526004018083815260200182815260200192505050604080518083038186803b15156113b257600080fd5b6102c65a03f415156113c357600080fd5b505050604051805190602001805190508093508195505050821515156113e857600080fd5b60008760090160003373ffffffffffffffffffffffffffffffffffffffff1673ffffffffffffffffffffffffffffffffffffffff168152602001908152602001600020600060028110151561143957fe5b018190555060008760090160003373ffffffffffffffffffffffffffffffffffffffff1673ffffffffffffffffffffffffffffffffffffffff168152602001908152602001600020600160028110151561148f57fe5b01819055506114a6565b6114a3873361353e565b91505b5b8187600a0160003373ffffffffffffffffffffffffffffffffffffffff1673ffffffffffffffffffffffffffffffffffffffff168152602001908152602001600020600082825401925050819055508573ffffffffffffffffffffffffffffffffffffffff1663a9059cbb33846000604051602001526040518363ffffffff167c0100000000000000000000000000000000000000000000000000000000028152600401808373ffffffffffffffffffffffffffffffffffffffff1673ffffffffffffffffffffffffffffffffffffffff16815260200182815260200192505050602060405180830381600087803b15156115a157600080fd5b6102c65a03f115156115b257600080fd5b5050506040518051905093508315156115ca57600080fd5b7fac0f38657cc8741669b8ba861fe5e6e18a4256a26ce4963b7b74a0f8739fdc6f3383604051808373ffffffffffffffffffffffffffffffffffffffff1673ffffffffffffffffffffffffffffffffffffffff1681526020018281526020019250505060405180910390a1600194505050505092915050565b60008060008460000160009054906101000a900473ffffffffffffffffffffffffffffffffffffffff1673ffffffffffffffffffffffffffffffffffffffff163373ffffffffffffffffffffffffffffffffffffffff161415156116a657600080fd5b600090505b83518110156116e4576116d58585838151811015156116c657fe5b90602001906020020151611ea4565b915080806001019150506116ab565b819250505092915050565b600080600080600085600401544211151561170957600080fd5b8560030160009054906101000a900460ff1615151561172757600080fd5b85600501544210801561178a575060008660090160003373ffffffffffffffffffffffffffffffffffffffff1673ffffffffffffffffffffffffffffffffffffffff168152602001908152602001600020600160028110151561178657fe5b0154115b1561185b57611799863361353e565b91508560090160003373ffffffffffffffffffffffffffffffffffffffff1673ffffffffffffffffffffffffffffffffffffffff16815260200190815260200160002060016002811015156117ea57fe5b0154905060008660090160003373ffffffffffffffffffffffffffffffffffffffff1673ffffffffffffffffffffffffffffffffffffffff168152602001908152602001600020600160028110151561183f57fe5b0181905550808660020160008282540192505081905550611abe565b8560050154421115611ab0578560090160003373ffffffffffffffffffffffffffffffffffffffff1673ffffffffffffffffffffffffffffffffffffffff16815260200190815260200160002060016002811015156118b657fe5b01548660090160003373ffffffffffffffffffffffffffffffffffffffff1673ffffffffffffffffffffffffffffffffffffffff168152602001908152602001600020600060028110151561190757fe5b01540191508173__BasicMathLib__________________________63f4f3bdc1909188600a0160003373ffffffffffffffffffffffffffffffffffffffff1673ffffffffffffffffffffffffffffffffffffffff168152602001908152602001600020546000604051604001526040518363ffffffff167c01000000000000000000000000000000000000000000000000000000000281526004018083815260200182815260200192505050604080518083038186803b15156119c957600080fd5b6102c65a03f415156119da57600080fd5b505050604051805190602001805190508093508195505050821515156119ff57600080fd5b60008660090160003373ffffffffffffffffffffffffffffffffffffffff1673ffffffffffffffffffffffffffffffffffffffff1681526020019081526020016000206000600281101515611a5057fe5b018190555060008660090160003373ffffffffffffffffffffffffffffffffffffffff1673ffffffffffffffffffffffffffffffffffffffff1681526020019081526020016000206001600281101515611aa657fe5b0181905550611abd565b611aba863361353e565b91505b5b8186600a0160003373ffffffffffffffffffffffffffffffffffffffff1673ffffffffffffffffffffffffffffffffffffffff168152602001908152602001600020600082825401925050819055503373ffffffffffffffffffffffffffffffffffffffff166108fc839081150290604051600060405180830381858888f193505050501515611b4d57600080fd5b7f62856bc6e86e01ae6673e12c9c3802a79107e10c39e81fee2257524108f81f0d3383604051808373ffffffffffffffffffffffffffffffffffffffff1673ffffffffffffffffffffffffffffffffffffffff1681526020018281526020019250505060405180910390a16001945050505050919050565b6000808360000160009054906101000a900473ffffffffffffffffffffffffffffffffffffffff1673ffffffffffffffffffffffffffffffffffffffff163373ffffffffffffffffffffffffffffffffffffffff16141515611c2657600080fd5b836005015442111515611c3857600080fd5b8360030160009054906101000a900460ff161515611c5557600080fd5b8273ffffffffffffffffffffffffffffffffffffffff166370a08231306000604051602001526040518263ffffffff167c0100000000000000000000000000000000000000000000000000000000028152600401808273ffffffffffffffffffffffffffffffffffffffff1673ffffffffffffffffffffffffffffffffffffffff168152602001915050602060405180830381600087803b1515611cf857600080fd5b6102c65a03f11515611d0957600080fd5b505050604051805190509050600084600201819055508273ffffffffffffffffffffffffffffffffffffffff1663a9059cbb8560000160009054906101000a900473ffffffffffffffffffffffffffffffffffffffff16836000604051602001526040518363ffffffff167c0100000000000000000000000000000000000000000000000000000000028152600401808373ffffffffffffffffffffffffffffffffffffffff1673ffffffffffffffffffffffffffffffffffffffff16815260200182815260200192505050602060405180830381600087803b1515611dee57600080fd5b6102c65a03f11515611dff57600080fd5b50505060405180519050507fac0f38657cc8741669b8ba861fe5e6e18a4256a26ce4963b7b74a0f8739fdc6f8460000160009054906101000a900473ffffffffffffffffffffffffffffffffffffffff1682604051808373ffffffffffffffffffffffffffffffffffffffff1673ffffffffffffffffffffffffffffffffffffffff1681526020018281526020019250505060405180910390a1600191505092915050565b6000806000808560000160009054906101000a900473ffffffffffffffffffffffffffffffffffffffff1673ffffffffffffffffffffffffffffffffffffffff163373ffffffffffffffffffffffffffffffffffffffff161480611f3357503073ffffffffffffffffffffffffffffffffffffffff163373ffffffffffffffffffffffffffffffffffffffff16145b1515611f3e57600080fd5b856004015442101515612014577f8756f3e78da606244d7d8c9563ce2678f294db7c57afce515849e03d5eec6c3a86600401546040518082815260200180602001828103825260418152602001807f43616e206f6e6c7920726567697374657220616e6420756e726567697374657281526020017f207573657273206265666f7265207468652076657374696e672073746172747381526020017f21000000000000000000000000000000000000000000000000000000000000008152506060019250505060405180910390a160009350612348565b8560090160008673ffffffffffffffffffffffffffffffffffffffff1673ffffffffffffffffffffffffffffffffffffffff168152602001908152602001600020600160028110151561206357fe5b01548660090160008773ffffffffffffffffffffffffffffffffffffffff1673ffffffffffffffffffffffffffffffffffffffff16815260200190815260200160002060006002811015156120b457fe5b01540192506000831415612162577f8756f3e78da606244d7d8c9563ce2678f294db7c57afce515849e03d5eec6c3a60006040518082815260200180602001828103825260328152602001807f52656769737472616e742061646472657373206e6f742072656769737465726581526020017f6420666f72207468652076657374696e672100000000000000000000000000008152506040019250505060405180910390a160009350612348565b60008660090160008773ffffffffffffffffffffffffffffffffffffffff1673ffffffffffffffffffffffffffffffffffffffff16815260200190815260200160002060006002811015156121b357fe5b018190555060008660090160008773ffffffffffffffffffffffffffffffffffffffff1673ffffffffffffffffffffffffffffffffffffffff168152602001908152602001600020600160028110151561220957fe5b0181905550828660020160008282540192505081905550856006015473__BasicMathLib__________________________63f4f3bdc1909160016000604051604001526040518363ffffffff167c01000000000000000000000000000000000000000000000000000000000281526004018083815260200182815260200192505050604080518083038186803b15156122a157600080fd5b6102c65a03f415156122b257600080fd5b505050604051805190602001805190508093508192505050801515156122d757600080fd5b8186600601819055507ff4feccbb86b1e3ed44c295752216a4576783a17ab625721f4671540a49b955e985604051808273ffffffffffffffffffffffffffffffffffffffff1673ffffffffffffffffffffffffffffffffffffffff16815260200191505060405180910390a1600193505b50505092915050565b600080600080600087600401544211151561236b57600080fd5b8760000160009054906101000a900473ffffffffffffffffffffffffffffffffffffffff1673ffffffffffffffffffffffffffffffffffffffff163373ffffffffffffffffffffffffffffffffffffffff161415156123c957600080fd5b8760030160009054906101000a900460ff1615156123e657600080fd5b876005015442108015612449575060008860090160008873ffffffffffffffffffffffffffffffffffffffff1673ffffffffffffffffffffffffffffffffffffffff168152602001908152602001600020600160028110151561244557fe5b0154115b1561259c57612458888761353e565b91508760090160008773ffffffffffffffffffffffffffffffffffffffff1673ffffffffffffffffffffffffffffffffffffffff16815260200190815260200160002060016002811015156124a957fe5b0154905060008860090160003373ffffffffffffffffffffffffffffffffffffffff1673ffffffffffffffffffffffffffffffffffffffff16815260200190815260200160002060016002811015156124fe57fe5b01819055508673ffffffffffffffffffffffffffffffffffffffff16637b47ec1a826000604051602001526040518263ffffffff167c010000000000000000000000000000000000000000000000000000000002815260040180828152602001915050602060405180830381600087803b151561257a57600080fd5b6102c65a03f1151561258b57600080fd5b5050506040518051905093506127ff565b87600501544211156127f1578760090160008773ffffffffffffffffffffffffffffffffffffffff1673ffffffffffffffffffffffffffffffffffffffff16815260200190815260200160002060016002811015156125f757fe5b01548860090160008873ffffffffffffffffffffffffffffffffffffffff1673ffffffffffffffffffffffffffffffffffffffff168152602001908152602001600020600060028110151561264857fe5b01540191508173__BasicMathLib__________________________63f4f3bdc190918a600a0160008a73ffffffffffffffffffffffffffffffffffffffff1673ffffffffffffffffffffffffffffffffffffffff168152602001908152602001600020546000604051604001526040518363ffffffff167c01000000000000000000000000000000000000000000000000000000000281526004018083815260200182815260200192505050604080518083038186803b151561270a57600080fd5b6102c65a03f4151561271b57600080fd5b5050506040518051906020018051905080935081955050508215151561274057600080fd5b60008860090160008873ffffffffffffffffffffffffffffffffffffffff1673ffffffffffffffffffffffffffffffffffffffff168152602001908152602001600020600060028110151561279157fe5b018190555060008860090160008873ffffffffffffffffffffffffffffffffffffffff1673ffffffffffffffffffffffffffffffffffffffff16815260200190815260200160002060016002811015156127e757fe5b01819055506127fe565b6127fb888761353e565b91505b5b8188600a0160008873ffffffffffffffffffffffffffffffffffffffff1673ffffffffffffffffffffffffffffffffffffffff168152602001908152602001600020600082825401925050819055508673ffffffffffffffffffffffffffffffffffffffff1663a9059cbb87846000604051602001526040518363ffffffff167c0100000000000000000000000000000000000000000000000000000000028152600401808373ffffffffffffffffffffffffffffffffffffffff1673ffffffffffffffffffffffffffffffffffffffff16815260200182815260200192505050602060405180830381600087803b15156128f957600080fd5b6102c65a03f1151561290a57600080fd5b50505060405180519050935083151561292257600080fd5b7fac0f38657cc8741669b8ba861fe5e6e18a4256a26ce4963b7b74a0f8739fdc6f8683604051808373ffffffffffffffffffffffffffffffffffffffff1673ffffffffffffffffffffffffffffffffffffffff1681526020018281526020019250505060405180910390a160019450505050509392505050565b60008260000160009054906101000a900473ffffffffffffffffffffffffffffffffffffffff1673ffffffffffffffffffffffffffffffffffffffff163373ffffffffffffffffffffffffffffffffffffffff161415156129fc57600080fd5b826004015442101515612a0e57600080fd5b60008214151515612a1e57600080fd5b8260030160009054906101000a900460ff16151515612a3c57600080fd5b60008360010154141515612a4f57600080fd5b8183600101819055508183600201819055506001905092915050565b60008060008060008573ffffffffffffffffffffffffffffffffffffffff1614151515612a9757600080fd5b60008660090160008773ffffffffffffffffffffffffffffffffffffffff1673ffffffffffffffffffffffffffffffffffffffff1681526020019081526020016000206000600281101515612ae857fe5b0154141515612af657600080fd5b8560090160003373ffffffffffffffffffffffffffffffffffffffff1673ffffffffffffffffffffffffffffffffffffffff1681526020019081526020016000206000600281101515612b4557fe5b015492508560090160003373ffffffffffffffffffffffffffffffffffffffff1673ffffffffffffffffffffffffffffffffffffffff1681526020019081526020016000206001600281101515612b9857fe5b0154915085600a0160003373ffffffffffffffffffffffffffffffffffffffff1673ffffffffffffffffffffffffffffffffffffffff168152602001908152602001600020549050600083111515612bef57600080fd5b60008660090160003373ffffffffffffffffffffffffffffffffffffffff1673ffffffffffffffffffffffffffffffffffffffff1681526020019081526020016000206000600281101515612c4057fe5b018190555060008660090160003373ffffffffffffffffffffffffffffffffffffffff1673ffffffffffffffffffffffffffffffffffffffff1681526020019081526020016000206001600281101515612c9657fe5b0181905550600086600a0160003373ffffffffffffffffffffffffffffffffffffffff1673ffffffffffffffffffffffffffffffffffffffff16815260200190815260200160002081905550828660090160008773ffffffffffffffffffffffffffffffffffffffff1673ffffffffffffffffffffffffffffffffffffffff1681526020019081526020016000206000600281101515612d3257fe5b0181905550818660090160008773ffffffffffffffffffffffffffffffffffffffff1673ffffffffffffffffffffffffffffffffffffffff1681526020019081526020016000206001600281101515612d8757fe5b01819055508086600a0160008773ffffffffffffffffffffffffffffffffffffffff1673ffffffffffffffffffffffffffffffffffffffff168152602001908152602001600020819055507f4e9343fae477c3dfe91b2fe149f304ddbaf344fec651ec21f125052d17d21242338688600a0160008973ffffffffffffffffffffffffffffffffffffffff1673ffffffffffffffffffffffffffffffffffffffff16815260200190815260200160002054604051808473ffffffffffffffffffffffffffffffffffffffff1673ffffffffffffffffffffffffffffffffffffffff1681526020018373ffffffffffffffffffffffffffffffffffffffff1673ffffffffffffffffffffffffffffffffffffffff168152602001828152602001935050505060405180910390a16001935050505092915050565b6000806000808760000160009054906101000a900473ffffffffffffffffffffffffffffffffffffffff1673ffffffffffffffffffffffffffffffffffffffff163373ffffffffffffffffffffffffffffffffffffffff161480612f4e57503073ffffffffffffffffffffffffffffffffffffffff163373ffffffffffffffffffffffffffffffffffffffff16145b1515612f5957600080fd5b876004015442101515613009577f8756f3e78da606244d7d8c9563ce2678f294db7c57afce515849e03d5eec6c3a88600401546040518082815260200180602001828103825260328152602001807f43616e206f6e6c79207265676973746572207573657273206265666f7265207481526020017f68652076657374696e67207374617274732100000000000000000000000000008152506040019250505060405180910390a1600093506134fc565b60008860090160008973ffffffffffffffffffffffffffffffffffffffff1673ffffffffffffffffffffffffffffffffffffffff168152602001908152602001600020600060028110151561305a57fe5b01541115613102577f8756f3e78da606244d7d8c9563ce2678f294db7c57afce515849e03d5eec6c3a60006040518082815260200180602001828103825260398152602001807f52656769737472616e74206164647265737320697320616c726561647920726581526020017f676973746572656420666f72207468652076657374696e6721000000000000008152506040019250505060405180910390a1600093506134fc565b858511156131a9577f8756f3e78da606244d7d8c9563ce2678f294db7c57afce515849e03d5eec6c3a856040518082815260200180602001828103825260368152602001807f426f6e7573206973206c6172676572207468616e207665737420616d6f756e7481526020017f2c20706c656173652072656475636520626f6e757321000000000000000000008152506040019250505060405180910390a1600093506134fc565b8573__BasicMathLib__________________________6366098d4f9091876000604051604001526040518363ffffffff167c01000000000000000000000000000000000000000000000000000000000281526004018083815260200182815260200192505050604080518083038186803b151561322557600080fd5b6102c65a03f4151561323657600080fd5b5050506040518051906020018051905080945081925050508015151561325b57600080fd5b876002015473__BasicMathLib__________________________63f4f3bdc19091856000604051604001526040518363ffffffff167c01000000000000000000000000000000000000000000000000000000000281526004018083815260200182815260200192505050604080518083038186803b15156132db57600080fd5b6102c65a03f415156132ec57600080fd5b5050506040518051906020018051905080935081925050508015151561331157600080fd5b818860020181905550858860090160008973ffffffffffffffffffffffffffffffffffffffff1673ffffffffffffffffffffffffffffffffffffffff168152602001908152602001600020600060028110151561336a57fe5b0181905550848860090160008973ffffffffffffffffffffffffffffffffffffffff1673ffffffffffffffffffffffffffffffffffffffff16815260200190815260200160002060016002811015156133bf57fe5b0181905550876006015473__BasicMathLib__________________________6366098d4f909160016000604051604001526040518363ffffffff167c01000000000000000000000000000000000000000000000000000000000281526004018083815260200182815260200192505050604080518083038186803b151561344557600080fd5b6102c65a03f4151561345657600080fd5b5050506040518051906020018051905080935081925050508015151561347b57600080fd5b8188600601819055507ff9738218f4b464eb543f0b1822e7eea822aa1784c3ed66743afcada6bba44e69878787604051808473ffffffffffffffffffffffffffffffffffffffff1673ffffffffffffffffffffffffffffffffffffffff168152602001838152602001828152602001935050505060405180910390a1600193505b505050949350505050565b600081600401544211151561351b57600080fd5b81600701548260040154420381151561353057fe5b048260080154029050919050565b60008060008060008573ffffffffffffffffffffffffffffffffffffffff161415151561356a57600080fd5b60008660090160008773ffffffffffffffffffffffffffffffffffffffff1673ffffffffffffffffffffffffffffffffffffffff16815260200190815260200160002060006002811015156135bb57fe5b01541115156135c957600080fd5b600086600601541115156135dc57600080fd5b8560070154866004015442038115156135f157fe5b04915060648660090160008773ffffffffffffffffffffffffffffffffffffffff1673ffffffffffffffffffffffffffffffffffffffff168152602001908152602001600020600060028110151561364557fe5b0154876008015484020281151561365857fe5b0490508073__BasicMathLib__________________________63f4f3bdc1909188600a0160008973ffffffffffffffffffffffffffffffffffffffff1673ffffffffffffffffffffffffffffffffffffffff168152602001908152602001600020546000604051604001526040518363ffffffff167c01000000000000000000000000000000000000000000000000000000000281526004018083815260200182815260200192505050604080518083038186803b151561371857600080fd5b6102c65a03f4151561372957600080fd5b505050604051805190602001805190508092508194505050809350505050929150505600a165627a7a723058209d443218c0d938bbb55fecb9d1a84e26c9321d0643f7f325b14c61493f53c3060029",
  "source": "pragma solidity ^0.4.18;\n\n/**\n * @title VestingLib\n * @author Modular.network\n *\n * version 1.0.1\n * Copyright (c) 2017 Modular, LLC\n * The MIT License (MIT)\n * https://github.com/Modular-Network/ethereum-libraries/blob/master/LICENSE\n *\n * Library for vesting tokens to a group of addresses.  The library only handles\n * one token at a time, with a linear vesting schedule for a set period of time\n *\n * Modular works on open source projects in the Ethereum community with the\n * purpose of testing, documenting, and deploying reusable code onto the\n * blockchain to improve security and usability of smart contracts. Modular\n * also strives to educate non-profits, schools, and other community members\n * about the application of blockchain technology.\n * For further information: modular.network\n *\n * THE SOFTWARE IS PROVIDED \"AS IS\", WITHOUT WARRANTY OF ANY KIND, EXPRESS\n * OR IMPLIED, INCLUDING BUT NOT LIMITED TO THE WARRANTIES OF\n * MERCHANTABILITY, FITNESS FOR A PARTICULAR PURPOSE AND NONINFRINGEMENT.\n * IN NO EVENT SHALL THE AUTHORS OR COPYRIGHT HOLDERS BE LIABLE FOR ANY\n * CLAIM, DAMAGES OR OTHER LIABILITY, WHETHER IN AN ACTION OF CONTRACT,\n * TORT OR OTHERWISE, ARISING FROM, OUT OF OR IN CONNECTION WITH THE\n * SOFTWARE OR THE USE OR OTHER DEALINGS IN THE SOFTWARE.\n */\n\nimport \"./BasicMathLib.sol\";\nimport \"./TokenLib.sol\";\nimport \"./CrowdsaleToken.sol\";\n\nlibrary VestingLib {\n  using BasicMathLib for uint256;\n\n  struct VestingStorage {\n    address owner;\n\n    uint256 totalSupply;     // total supply of ETH or tokens\n    uint256 contractBalance; // current balance of the contract\n    bool isToken;            // false for ETH, true for token\n\n    uint256 startTime;       // timestamp when vesting starts\n    uint256 endTime;         // timestamp when vesting is complete\n\n    uint256 numRegistered;   // number of addresses registered for the vesting\n\n    uint256 timeInterval;    // interval between vesting\n    uint256 percentPerInterval; // percentage of the total released every interval\n\n    // for each address, 0-index is the amount being held, 1-index is the bonus.\n    // if the bonus amount is > 0, any withdrawal before endTime will result\n    // in the total amount being withdrawn without the bonus\n    mapping (address => uint256[2]) holdingAmount;\n\n    // shows how much an address has already withdrawn from the vesting contract\n    mapping (address => uint256) hasWithdrawn;\n  }\n\n  // Generic Error message, error code and string\n  event LogErrorMsg(uint256 amount, string Msg);\n\n  // Logs when a user is registered in the system for vesting\n  event LogUserRegistered(address registrant, uint256 vestAmount, uint256 bonus);\n\n  // Logs when a user is unregistered from the system\n  event LogUserUnRegistered(address registrant);\n\n  // Logs when a user replaces themselves with a different beneficiary\n  event LogRegistrationReplaced(address currentRegistrant, address newRegistrant, uint256 amountWithdrawn);\n\n  // Logs when a user withdraws their ETH from vesting\n  event LogETHWithdrawn(address beneficiary, uint256 amount);\n\n  // Logs when a user withdraws their tokens from the contract\n  event LogTokensWithdrawn(address beneficiary, uint256 amount);\n\n  /// @dev Called by the token vesting contract upon creation.\n  /// @param self Stored token from token contract\n  /// @param _owner the owner of the vesting contract\n  /// @param _isToken indicates if the vesting is for tokens or ETH\n  /// @param _startTime the start time of the vesting (UNIX timestamp)\n  /// @param _endTime the end time of the vesting     (UNIX timestamp)\n  /// @param _numReleases number of times during vesting that the contract releases coins\n  function init(VestingStorage storage self,\n                address _owner,\n                bool _isToken,\n                uint256 _startTime,\n                uint256 _endTime,\n                uint256 _numReleases) public\n  {\n    require(self.owner == 0);\n    require(self.totalSupply == 0);\n    require(_owner != 0);\n    require(_startTime > now);\n    require(_endTime > _startTime);\n    require(_numReleases > 0);\n    require(_numReleases <= 100);\n\n    self.owner = _owner;\n    self.isToken = _isToken;\n    self.startTime = _startTime;\n    self.endTime = _endTime;\n    self.timeInterval = (_endTime - _startTime)/_numReleases;\n    require(self.timeInterval > 0);\n    self.percentPerInterval = 100/_numReleases;\n  }\n\n  /// @dev function owner has to call before the vesting starts to initialize the ETH balance of the contract.\n  /// @param self Stored vesting from vesting contract\n  /// @param _balance the balance that is being vested.  msg.value from the contract call.\n  function initializeETHBalance(VestingStorage storage self, uint256 _balance) public returns (bool) {\n    require(msg.sender == self.owner);\n    require(now < self.startTime);\n    require(_balance != 0);\n    require(!self.isToken);\n    require(self.totalSupply == 0);\n\n    self.totalSupply = _balance;\n    self.contractBalance = _balance;\n\n    return true;\n  }\n\n  /// @dev function owner has to call before the vesting starts to initialize the token balance of the contract.\n  /// @param self Stored vesting from vesting contract\n  /// @param _balance the balance that is being vested.  owner has to have sent tokens to the contract before calling this function\n  function initializeTokenBalance(VestingStorage storage self, CrowdsaleToken token, uint256 _balance) public returns (bool) {\n    require(msg.sender == self.owner);\n    require(now < self.startTime);\n    require(_balance != 0);\n    require(self.isToken);\n    require(token.balanceOf(this) == _balance);\n    require(self.totalSupply == 0);\n\n    self.totalSupply = _balance;\n    self.contractBalance = _balance;\n\n    return true;\n  }\n\n  /// @dev register user function, can only be called by the owner. registers amount\n  /// of vesting into the address and reduces contractBalance\n  /// @param self Stored vesting from vesting contract\n  /// @param _registrant address to be registered for the vesting\n  /// @param _vestAmount amount of ETH or tokens to vest for address\n  /// @param _bonus amount of bonus tokens or eth if no withdrawal prior to endTime\n  function registerUser(VestingStorage storage self,\n                        address _registrant,\n                        uint256 _vestAmount,\n                        uint256 _bonus) public returns (bool)\n  {\n    require((msg.sender == self.owner) || (msg.sender == address(this)));\n    if (now >= self.startTime) {\n      LogErrorMsg(self.startTime,\"Can only register users before the vesting starts!\");\n      return false;\n    }\n    if(self.holdingAmount[_registrant][0] > 0) {\n      LogErrorMsg(0,\"Registrant address is already registered for the vesting!\");\n      return false;\n    }\n    if(_bonus > _vestAmount){\n      LogErrorMsg(_bonus,\"Bonus is larger than vest amount, please reduce bonus!\");\n      return false;\n    }\n\n    uint256 _totalAmount;\n    uint256 result;\n    bool err;\n\n    (err, _totalAmount) = _vestAmount.plus(_bonus);\n    require(!err);\n\n    (err, result) = self.contractBalance.minus(_totalAmount);\n    require(!err);\n\n    self.contractBalance = result;\n    self.holdingAmount[_registrant][0] = _vestAmount;\n    self.holdingAmount[_registrant][1] = _bonus;\n\n    (err,result) = self.numRegistered.plus(1);\n    require(!err);\n    self.numRegistered = result;\n\n    LogUserRegistered(_registrant, _vestAmount, _bonus);\n\n    return true;\n  }\n\n  /// @dev registers multiple users at the same time. each registrant must be\n  /// receiving the same amount of tokens or ETH\n  /// @param self Stored vesting from vesting contract\n  /// @param _registrants addresses to register for the vesting\n  /// @param _vestAmount amount of ETH or tokens to vest\n  /// @param _bonus amount of ETH or token bonus\n  function registerUsers(VestingStorage storage self,\n                         address[] _registrants,\n                         uint256 _vestAmount,\n                         uint256 _bonus) public returns (bool)\n  {\n    require(msg.sender == self.owner);\n    bool ok;\n\n    for (uint256 i = 0; i < _registrants.length; i++) {\n      ok = registerUser(self,_registrants[i], _vestAmount, _bonus);\n    }\n    return ok;\n  }\n\n  /// @dev Cancels a user's registration status can only be called by the owner\n  /// when a user cancels their registration. sets their address field in the\n  /// holding amount mapping to 0, decrements the numRegistered, and adds amount\n  /// back into contractBalance\n  /// @param self Stored vesting from vesting contract\n  function unregisterUser(VestingStorage storage self, address _registrant) public returns (bool) {\n    require((msg.sender == self.owner) || (msg.sender == address(this)));\n    if (now >= self.startTime) {\n      LogErrorMsg(self.startTime, \"Can only register and unregister users before the vesting starts!\");\n      return false;\n    }\n\n    uint256 _totalHolding;\n    uint256 result;\n    bool err;\n\n    _totalHolding = self.holdingAmount[_registrant][0] + self.holdingAmount[_registrant][1];\n    if(_totalHolding == 0) {\n      LogErrorMsg(0, \"Registrant address not registered for the vesting!\");\n      return false;\n    }\n\n    self.holdingAmount[_registrant][0] = 0;\n    self.holdingAmount[_registrant][1] = 0;\n    self.contractBalance += _totalHolding;\n\n    (err,result) = self.numRegistered.minus(1);\n    require(!err);\n    self.numRegistered = result;\n\n    LogUserUnRegistered(_registrant);\n\n    return true;\n  }\n\n  /// @dev unregisters multiple users at the same time\n  /// @param self Stored vesting from vesting contract\n  /// @param _registrants addresses to unregister for the vesting\n  function unregisterUsers(VestingStorage storage self, address[] _registrants) public returns (bool) {\n    require(msg.sender == self.owner);\n    bool ok;\n\n    for (uint256 i = 0; i < _registrants.length; i++) {\n      ok = unregisterUser(self,_registrants[i]);\n    }\n    return ok;\n  }\n\n  /// @dev allows a participant to replace themselves in the vesting schedule with a new address\n  /// @param self Stored vesting from vesting contract\n  /// @param _replacementRegistrant new address to replace the caller with\n  function swapRegistration(VestingStorage storage self, address _replacementRegistrant) public returns (bool) {\n    require(_replacementRegistrant != 0);\n    require(self.holdingAmount[_replacementRegistrant][0] == 0);\n\n    uint256 _vestAmount = self.holdingAmount[msg.sender][0];\n    uint256 _bonus = self.holdingAmount[msg.sender][1];\n    uint256 _withdrawnAmount = self.hasWithdrawn[msg.sender];\n    require(_vestAmount > 0);\n\n    self.holdingAmount[msg.sender][0] = 0;\n    self.holdingAmount[msg.sender][1] = 0;\n    self.hasWithdrawn[msg.sender] = 0;\n    self.holdingAmount[_replacementRegistrant][0] = _vestAmount;\n    self.holdingAmount[_replacementRegistrant][1] = _bonus;\n    self.hasWithdrawn[_replacementRegistrant] = _withdrawnAmount;\n\n    LogRegistrationReplaced(msg.sender, _replacementRegistrant, self.hasWithdrawn[_replacementRegistrant]);\n\n    return true;\n\n  }\n\n  /// @dev calculates the number of tokens or ETH available for the beneficiary to withdraw\n  /// @param self Stored vesting from vesting contract\n  /// @param _beneficiary the sender, who will be withdrawing their balance\n  function calculateWithdrawal(VestingStorage storage self, address _beneficiary) internal view returns (uint256) {\n    require(_beneficiary != 0);\n    require(self.holdingAmount[_beneficiary][0] > 0);\n    require(self.numRegistered > 0);\n    bool err;\n\n    // figure out how many intervals have passed since the start\n    uint256 _numIntervals = (now-self.startTime)/self.timeInterval;\n\n    // multiply that by the percentage released every interval\n    // calculate the amount released by this time\n    uint256 _amountReleased = ((_numIntervals*self.percentPerInterval)*self.holdingAmount[_beneficiary][0])/100;\n\n    // subtract the amount that has already been withdrawn\n    (err, _amountReleased) = _amountReleased.minus(self.hasWithdrawn[_beneficiary]);\n\n    return _amountReleased;\n  }\n\n  /// @dev allows participants to withdraw their vested ETH\n  /// @param self Stored vesting from vesting contract\n  function withdrawETH(VestingStorage storage self) public returns (bool) {\n    require(now > self.startTime);\n    require(!self.isToken);\n    bool ok;\n    bool err;\n    uint256 _withdrawAmount;\n\n    if((now < self.endTime) && (self.holdingAmount[msg.sender][1] > 0)){\n      // if there is a bonus and it's before the endTime, cancel the bonus\n      _withdrawAmount = calculateWithdrawal(self, msg.sender);\n      uint256 _bonusAmount = self.holdingAmount[msg.sender][1];\n      //self.holdingAmount[msg.sender][0] = 0;\n      self.holdingAmount[msg.sender][1] = 0;\n\n      // add bonus eth back into the contract balance\n      self.contractBalance += _bonusAmount;\n    } else {\n      if(now > self.endTime){\n        // if it's past the endTime then send everything left\n        _withdrawAmount = self.holdingAmount[msg.sender][0] + self.holdingAmount[msg.sender][1];\n        (ok, _withdrawAmount) = _withdrawAmount.minus(self.hasWithdrawn[msg.sender]);\n        require(!err);\n\n        self.holdingAmount[msg.sender][0] = 0;\n        self.holdingAmount[msg.sender][1] = 0;\n      } else {\n        // if we're here then it's before the endTime and no bonus, need to calculate\n        _withdrawAmount = calculateWithdrawal(self, msg.sender);\n      }\n    }\n\n    self.hasWithdrawn[msg.sender] += _withdrawAmount;\n\n    // transfer ETH to the sender\n    msg.sender.transfer(_withdrawAmount);\n\n    LogETHWithdrawn(msg.sender,_withdrawAmount);\n    return true;\n  }\n\n  /// @dev allows participants to withdraw their vested tokens\n  /// @param self Stored vesting from vesting contract\n  /// @param token the token contract that is being withdrawn\n  function withdrawTokens(VestingStorage storage self,CrowdsaleToken token) public returns (bool) {\n    require(now > self.startTime);\n    require(self.isToken);\n    bool ok;\n    bool err;\n    uint256 _withdrawAmount;\n\n    if((now < self.endTime) && (self.holdingAmount[msg.sender][1] > 0)){\n      // if there is a bonus and it's before the endTime, cancel the bonus and send tokens\n      _withdrawAmount = calculateWithdrawal(self, msg.sender);\n      uint256 _bonusAmount = self.holdingAmount[msg.sender][1];\n\n      self.holdingAmount[msg.sender][1] = 0;\n      ok = token.burnToken(_bonusAmount);\n      require(ok);\n    } else {\n      if(now > self.endTime){\n        // if it's past the endTime then send everything left\n        _withdrawAmount = self.holdingAmount[msg.sender][0] + self.holdingAmount[msg.sender][1];\n        (ok, _withdrawAmount) = _withdrawAmount.minus(self.hasWithdrawn[msg.sender]);\n        require(!err);\n\n        self.holdingAmount[msg.sender][0] = 0;\n        self.holdingAmount[msg.sender][1] = 0;\n      } else {\n        // if we're here then it's before the endTime and no bonus, need to calculate\n        _withdrawAmount = calculateWithdrawal(self, msg.sender);\n      }\n    }\n\n    self.hasWithdrawn[msg.sender] += _withdrawAmount;\n\n    // transfer tokens to the sender\n    ok = token.transfer(msg.sender, _withdrawAmount);\n    require(ok);\n\n    LogTokensWithdrawn(msg.sender,_withdrawAmount);\n    return true;\n  }\n\n  /// @dev allows the owner to send vested ETH to participants\n  /// @param self Stored vesting from vesting contract\n  /// @param _beneficiary registered address to send the ETH to\n  function sendETH(VestingStorage storage self, address _beneficiary) public returns (bool) {\n    require(now > self.startTime);\n    require(msg.sender == self.owner);\n    require(!self.isToken);\n    bool ok;\n    bool err;\n    uint256 _withdrawAmount;\n\n    if((now < self.endTime) && (self.holdingAmount[_beneficiary][1] > 0)){\n      // if there is a bonus and it's before the endTime, cancel the bonus\n      _withdrawAmount = calculateWithdrawal(self, _beneficiary);\n      uint256 _bonusAmount = self.holdingAmount[_beneficiary][1];\n\n      self.holdingAmount[_beneficiary][1] = 0;\n\n      // add bonus eth back into the contract balance\n      self.contractBalance += _bonusAmount;\n    } else {\n      if(now > self.endTime){\n        // if it's past the endTime then send everything left\n        _withdrawAmount = self.holdingAmount[_beneficiary][0] + self.holdingAmount[_beneficiary][1];\n        (ok, _withdrawAmount) = _withdrawAmount.minus(self.hasWithdrawn[_beneficiary]);\n        require(!err);\n\n        self.holdingAmount[_beneficiary][0] = 0;\n        self.holdingAmount[_beneficiary][1] = 0;\n      } else {\n        // if we're here then it's before the endTime and no bonus, need to calculate\n        _withdrawAmount = calculateWithdrawal(self, _beneficiary);\n      }\n    }\n\n    self.hasWithdrawn[_beneficiary] += _withdrawAmount;\n\n    // transfer ETH to the _beneficiary\n    _beneficiary.transfer(_withdrawAmount);\n\n    LogETHWithdrawn(_beneficiary,_withdrawAmount);\n    return true;\n  }\n\n  /// @dev allows the owner to send vested tokens to participants\n  /// @param self Stored vesting from vesting contract\n  /// @param token the token contract that is being withdrawn\n  /// @param _beneficiary registered address to send the tokens to\n  function sendTokens(VestingStorage storage self,CrowdsaleToken token, address _beneficiary) public returns (bool) {\n    require(now > self.startTime);\n    require(msg.sender == self.owner);\n    require(self.isToken);\n    bool ok;\n    bool err;\n    uint256 _withdrawAmount;\n\n    if((now < self.endTime) && (self.holdingAmount[_beneficiary][1] > 0)){\n      // if there is a bonus and it's before the endTime, cancel the bonus\n      _withdrawAmount = calculateWithdrawal(self, _beneficiary);\n      uint256 _bonusAmount = self.holdingAmount[_beneficiary][1];\n      \n      self.holdingAmount[msg.sender][1] = 0;\n      ok = token.burnToken(_bonusAmount);\n    } else {\n      if(now > self.endTime){\n        // if it's past the endTime then send everything left\n        _withdrawAmount = self.holdingAmount[_beneficiary][0] + self.holdingAmount[_beneficiary][1];\n        (ok, _withdrawAmount) = _withdrawAmount.minus(self.hasWithdrawn[_beneficiary]);\n        require(!err);\n\n        self.holdingAmount[_beneficiary][0] = 0;\n        self.holdingAmount[_beneficiary][1] = 0;\n      } else {\n        // if we're here then it's before the endTime and no bonus, need to calculate\n        _withdrawAmount = calculateWithdrawal(self, _beneficiary);\n      }\n    }\n\n    self.hasWithdrawn[_beneficiary] += _withdrawAmount;\n\n    // transfer tokens to the beneficiary\n    ok = token.transfer(_beneficiary, _withdrawAmount);\n    require(ok);\n\n    LogTokensWithdrawn(_beneficiary,_withdrawAmount);\n    return true;\n  }\n\n  /// @dev Allows the owner to withdraw any ETH left in the contractBalance\n  /// @param self Stored vesting from vesting contract\n  function ownerWithdrawExtraETH(VestingStorage storage self) public returns (bool) {\n    require(msg.sender == self.owner);\n    require(now > self.endTime);\n    require(!self.isToken);\n\n    uint256 _contractBalance = this.balance;\n    self.contractBalance = 0;\n\n    self.owner.transfer(_contractBalance);\n    LogETHWithdrawn(self.owner,_contractBalance);\n\n    return true;\n  }\n\n  /// @dev Allows the owner to withdraw any tokens left in the contractBalance\n  /// @param self Stored vesting from vesting contract\n  function ownerWithdrawExtraTokens(VestingStorage storage self, CrowdsaleToken token) public returns (bool) {\n    require(msg.sender == self.owner);\n    require(now > self.endTime);\n    require(self.isToken);\n\n    uint256 _contractBalance = token.balanceOf(this);\n    self.contractBalance = 0;\n\n    token.transfer(self.owner,_contractBalance);\n    LogTokensWithdrawn(self.owner,_contractBalance);\n\n    return true;\n  }\n\n  /// @dev Returns the percentage of the vesting that has been released at the current moment\n  function getPercentReleased(VestingStorage storage self) public view returns (uint256) {\n    require(now > self.startTime);\n    return self.percentPerInterval * ((now-self.startTime)/self.timeInterval);\n  }\n}\n",
  "sourcePath": "/Users/joshuahannan/repository/majoolr/ethereum-libraries/VestingLib/truffle/contracts/VestingLib.sol",
  "compiler": {
    "name": "solc",
    "version": "0.4.18+commit.9cf6e910.Emscripten.clang"
  },
  "schemaVersion": "1.0.1",
  "updatedAt": "2018-01-19T20:37:44.793Z"
}