{
  "contractName": "BasicMathLib",
  "abi": [
    {
      "constant": true,
      "inputs": [
        {
          "name": "a",
          "type": "uint256"
        },
        {
          "name": "b",
          "type": "uint256"
        }
      ],
      "name": "times",
      "outputs": [
        {
          "name": "err",
          "type": "bool"
        },
        {
          "name": "res",
          "type": "uint256"
        }
      ],
      "payable": false,
      "type": "function",
      "stateMutability": "view"
    },
    {
      "constant": true,
      "inputs": [
        {
          "name": "a",
          "type": "uint256"
        },
        {
          "name": "b",
          "type": "uint256"
        }
      ],
      "name": "plus",
      "outputs": [
        {
          "name": "err",
          "type": "bool"
        },
        {
          "name": "res",
          "type": "uint256"
        }
      ],
      "payable": false,
      "type": "function",
      "stateMutability": "view"
    },
    {
      "constant": true,
      "inputs": [
        {
          "name": "a",
          "type": "uint256"
        },
        {
          "name": "b",
          "type": "uint256"
        }
      ],
      "name": "dividedBy",
      "outputs": [
        {
          "name": "err",
          "type": "bool"
        },
        {
          "name": "res",
          "type": "uint256"
        }
      ],
      "payable": false,
      "type": "function",
      "stateMutability": "view"
    },
    {
      "constant": true,
      "inputs": [
        {
          "name": "a",
          "type": "uint256"
        },
        {
          "name": "b",
          "type": "uint256"
        }
      ],
      "name": "minus",
      "outputs": [
        {
          "name": "err",
          "type": "bool"
        },
        {
          "name": "res",
          "type": "uint256"
        }
      ],
      "payable": false,
      "type": "function",
      "stateMutability": "view"
    },
    {
      "anonymous": false,
      "inputs": [
        {
          "indexed": false,
          "name": "typeErr",
          "type": "string"
        }
      ],
      "name": "Err",
      "type": "event"
    }
  ],
  "bytecode": "0x6060604052341561000f57600080fd5b6104178061001e6000396000f300606060405260043610610062576000357c0100000000000000000000000000000000000000000000000000000000900463ffffffff1680631d3b9edf1461006757806366098d4f146100a7578063e39bbf68146100e7578063f4f3bdc114610127575b600080fd5b6100866004808035906020019091908035906020019091905050610167565b60405180831515151581526020018281526020019250505060405180910390f35b6100c66004808035906020019091908035906020019091905050610204565b60405180831515151581526020018281526020019250505060405180910390f35b61010660048080359060200190919080359060200190919050506102a6565b60405180831515151581526020018281526020019250505060405180910390f35b6101466004808035906020019091908035906020019091905050610346565b60405180831515151581526020018281526020019250505060405180910390f35b60008082840290508383820414831517600081146101845761018d565b60019250600091505b5081156101fd577f4eb9487277c052fc38bc53c91e4af51b26a1e7600aa1761ef9d2973180cf72a76040518080602001828103825260138152602001807f74696d65732066756e63206f766572666c6f770000000000000000000000000081525060200191505060405180910390a15b9250929050565b600080828401905082811483821117848483031416600081146102265761022f565b60019250600091505b50811561029f577f4eb9487277c052fc38bc53c91e4af51b26a1e7600aa1761ef9d2973180cf72a76040518080602001828103825260128152602001807f706c75732066756e63206f766572666c6f77000000000000000000000000000081525060200191505060405180910390a15b9250929050565b6000808215600081146102b8576102cb565b8385049150816020604051015260408051f35b507f4eb9487277c052fc38bc53c91e4af51b26a1e7600aa1761ef9d2973180cf72a76040518080602001828103825260178152602001807f747269656420746f20646976696465206279207a65726f00000000000000000081525060200191505060405180910390a160016000809050915091509250929050565b6000808284039050600184821485831017858584011416146000811461036b57610374565b60019250600091505b5081156103e4577f4eb9487277c052fc38bc53c91e4af51b26a1e7600aa1761ef9d2973180cf72a76040518080602001828103825260148152602001807f6d696e75732066756e6320756e646572666c6f7700000000000000000000000081525060200191505060405180910390a15b92509290505600a165627a7a723058204ceaa8e35843eaa8a4554aec2a5a149356bc840a013ef215d647cfadbb2d089c0029",
  "source": "pragma solidity ^0.4.13;\n\n/**\n * @title Basic Math Library\n * @author Majoolr.io\n *\n * version 1.1.0\n * Copyright (c) 2017 Majoolr, LLC\n * The MIT License (MIT)\n * https://github.com/Majoolr/ethereum-libraries/blob/master/LICENSE\n *\n * The Basic Math Library is inspired by the Safe Math library written by\n * OpenZeppelin at https://github.com/OpenZeppelin/zeppelin-solidity/ .\n * Majoolr works on open source projects in the Ethereum community with the\n * purpose of testing, documenting, and deploying reusable code onto the\n * blockchain to improve security and usability of smart contracts. Majoolr\n * also strives to educate non-profits, schools, and other community members\n * about the application of blockchain technology.\n * For further information: majoolr.io, openzeppelin.org\n *\n * THE SOFTWARE IS PROVIDED \"AS IS\", WITHOUT WARRANTY OF ANY KIND, EXPRESS\n * OR IMPLIED, INCLUDING BUT NOT LIMITED TO THE WARRANTIES OF\n * MERCHANTABILITY, FITNESS FOR A PARTICULAR PURPOSE AND NONINFRINGEMENT.\n * IN NO EVENT SHALL THE AUTHORS OR COPYRIGHT HOLDERS BE LIABLE FOR ANY\n * CLAIM, DAMAGES OR OTHER LIABILITY, WHETHER IN AN ACTION OF CONTRACT,\n * TORT OR OTHERWISE, ARISING FROM, OUT OF OR IN CONNECTION WITH THE\n * SOFTWARE OR THE USE OR OTHER DEALINGS IN THE SOFTWARE.\n */\n\nlibrary BasicMathLib {\n  event Err(string typeErr);\n\n  /// @dev Multiplies two numbers and checks for overflow before returning.\n  /// Does not throw but rather logs an Err event if there is overflow.\n  /// @param a First number\n  /// @param b Second number\n  /// @return err False normally, or true if there is overflow\n  /// @return res The product of a and b, or 0 if there is overflow\n  function times(uint256 a, uint256 b) constant returns (bool err,uint256 res) {\n    assembly{\n      res := mul(a,b)\n      switch or(iszero(b), eq(div(res,b), a))\n      case 0 {\n        err := 1\n        res := 0\n      }\n    }\n    if (err)\n      Err(\"times func overflow\");\n  }\n\n  /// @dev Divides two numbers but checks for 0 in the divisor first.\n  /// Does not throw but rather logs an Err event if 0 is in the divisor.\n  /// @param a First number\n  /// @param b Second number\n  /// @return err False normally, or true if `b` is 0\n  /// @return res The quotient of a and b, or 0 if `b` is 0\n  function dividedBy(uint256 a, uint256 b) constant returns (bool err,uint256 res) {\n    assembly{\n      switch iszero(b)\n      case 0 {\n        res := div(a,b)\n        mstore(add(mload(0x40),0x20),res)\n        return(mload(0x40),0x40)\n      }\n    }\n    Err(\"tried to divide by zero\");\n    return (true, 0);\n  }\n\n  /// @dev Adds two numbers and checks for overflow before returning.\n  /// Does not throw but rather logs an Err event if there is overflow.\n  /// @param a First number\n  /// @param b Second number\n  /// @return err False normally, or true if there is overflow\n  /// @return res The sum of a and b, or 0 if there is overflow\n  function plus(uint256 a, uint256 b) constant returns (bool err, uint256 res) {\n    assembly{\n      res := add(a,b)\n      switch and(eq(sub(res,b), a), or(gt(res,b),eq(res,b)))\n      case 0 {\n        err := 1\n        res := 0\n      }\n    }\n    if (err)\n      Err(\"plus func overflow\");\n  }\n\n  /// @dev Subtracts two numbers and checks for underflow before returning.\n  /// Does not throw but rather logs an Err event if there is underflow.\n  /// @param a First number\n  /// @param b Second number\n  /// @return err False normally, or true if there is underflow\n  /// @return res The difference between a and b, or 0 if there is underflow\n  function minus(uint256 a, uint256 b) constant returns (bool err,uint256 res) {\n    assembly{\n      res := sub(a,b)\n      switch eq(and(eq(add(res,b), a), or(lt(res,a), eq(res,a))), 1)\n      case 0 {\n        err := 1\n        res := 0\n      }\n    }\n    if (err)\n      Err(\"minus func underflow\");\n  }\n}\n",
  "sourcePath": "/Users/hackdom/Projects/ethereum-libraries/TokenLib/truffle/contracts/BasicMathLib.sol",
  "compiler": {
    "name": "solc",
    "version": "0.4.18+commit.9cf6e910.Emscripten.clang"
  },
  "schemaVersion": "1.0.1",
  "updatedAt": "2017-11-28T01:41:46.750Z"
}