{
  "contractName": "TokenLibTestSpender",
  "abi": [
    {
      "constant": false,
      "inputs": [
        {
          "name": "newOwner",
          "type": "address"
        }
      ],
      "name": "changeOwnerBack",
      "outputs": [],
      "payable": false,
      "stateMutability": "nonpayable",
      "type": "function"
    },
    {
      "constant": false,
      "inputs": [
        {
          "name": "owner",
          "type": "address"
        },
        {
          "name": "amount",
          "type": "uint256"
        }
      ],
      "name": "spend",
      "outputs": [
        {
          "name": "",
          "type": "bool"
        }
      ],
      "payable": false,
      "stateMutability": "nonpayable",
      "type": "function"
    },
    {
      "inputs": [
        {
          "name": "testContract",
          "type": "address"
        }
      ],
      "payable": false,
      "stateMutability": "nonpayable",
      "type": "constructor"
    }
  ],
  "bytecode": "0x6060604052341561000f57600080fd5b60405160208061039383398101604052808051906020019091905050806000806101000a81548173ffffffffffffffffffffffffffffffffffffffff021916908373ffffffffffffffffffffffffffffffffffffffff160217905550506103188061007b6000396000f30060606040526004361061004c576000357c0100000000000000000000000000000000000000000000000000000000900463ffffffff1680635ea18b9e14610051578063af7d6ca31461008a575b600080fd5b341561005c57600080fd5b610088600480803573ffffffffffffffffffffffffffffffffffffffff169060200190919050506100e4565b005b341561009557600080fd5b6100ca600480803573ffffffffffffffffffffffffffffffffffffffff169060200190919080359060200190919050506101c7565b604051808215151515815260200191505060405180910390f35b6000809054906101000a900473ffffffffffffffffffffffffffffffffffffffff1673ffffffffffffffffffffffffffffffffffffffff1663a6f9dae1826000604051602001526040518263ffffffff167c0100000000000000000000000000000000000000000000000000000000028152600401808273ffffffffffffffffffffffffffffffffffffffff1673ffffffffffffffffffffffffffffffffffffffff168152602001915050602060405180830381600087803b15156101a857600080fd5b6102c65a03f115156101b957600080fd5b505050604051805190505050565b60008060009054906101000a900473ffffffffffffffffffffffffffffffffffffffff1673ffffffffffffffffffffffffffffffffffffffff166323b872dd8430856000604051602001526040518463ffffffff167c0100000000000000000000000000000000000000000000000000000000028152600401808473ffffffffffffffffffffffffffffffffffffffff1673ffffffffffffffffffffffffffffffffffffffff1681526020018373ffffffffffffffffffffffffffffffffffffffff1673ffffffffffffffffffffffffffffffffffffffff1681526020018281526020019350505050602060405180830381600087803b15156102c957600080fd5b6102c65a03f115156102da57600080fd5b505050604051805190509050929150505600a165627a7a723058202910363e22a2c763dadde259dc533d13e2b2ceb2799337b8178b3c62bab2992b0029",
  "source": "pragma solidity ^0.4.15;\n\nimport \"./TokenLibTestContract.sol\";\n\ncontract TokenLibTestSpender{\n\n  TokenLibTestContract t;\n\n  function TokenLibTestSpender(address testContract) {\n    t = TokenLibTestContract(testContract);\n  }\n\n  function spend(address owner, uint256 amount) returns (bool){\n    return t.transferFrom(owner, this, amount);\n  }\n\n  function changeOwnerBack(address newOwner) {\n    t.changeOwner(newOwner);\n  }\n\n}\n",
  "sourcePath": "/Users/hackdom/Projects/ethereum-libraries/TokenLib/truffle/contracts/TokenLibTestSpender.sol",
  "compiler": {
    "name": "solc",
    "version": "0.4.18+commit.9cf6e910.Emscripten.clang"
  },
  "schemaVersion": "1.0.1",
  "updatedAt": "2017-11-26T17:10:24.797Z"
}