{
  "contractName": "TokenLibTestContract",
  "abi": [
    {
      "constant": true,
      "inputs": [],
      "name": "name",
      "outputs": [
        {
          "name": "",
          "type": "string"
        }
      ],
      "payable": false,
      "stateMutability": "view",
      "type": "function"
    },
    {
      "constant": false,
      "inputs": [
        {
          "name": "spender",
          "type": "address"
        },
        {
          "name": "value",
          "type": "uint256"
        }
      ],
      "name": "approve",
      "outputs": [
        {
          "name": "ok",
          "type": "bool"
        }
      ],
      "payable": false,
      "stateMutability": "nonpayable",
      "type": "function"
    },
    {
      "constant": true,
      "inputs": [],
      "name": "totalSupply",
      "outputs": [
        {
          "name": "",
          "type": "uint256"
        }
      ],
      "payable": false,
      "stateMutability": "view",
      "type": "function"
    },
    {
      "constant": false,
      "inputs": [
        {
          "name": "from",
          "type": "address"
        },
        {
          "name": "to",
          "type": "address"
        },
        {
          "name": "value",
          "type": "uint256"
        }
      ],
      "name": "transferFrom",
      "outputs": [
        {
          "name": "ok",
          "type": "bool"
        }
      ],
      "payable": false,
      "stateMutability": "nonpayable",
      "type": "function"
    },
    {
      "constant": true,
      "inputs": [],
      "name": "decimals",
      "outputs": [
        {
          "name": "",
          "type": "uint8"
        }
      ],
      "payable": false,
      "stateMutability": "view",
      "type": "function"
    },
    {
      "constant": true,
      "inputs": [],
      "name": "initialSupply",
      "outputs": [
        {
          "name": "",
          "type": "uint256"
        }
      ],
      "payable": false,
      "stateMutability": "view",
      "type": "function"
    },
    {
      "constant": false,
      "inputs": [],
      "name": "closeMint",
      "outputs": [
        {
          "name": "ok",
          "type": "bool"
        }
      ],
      "payable": false,
      "stateMutability": "nonpayable",
      "type": "function"
    },
    {
      "constant": true,
      "inputs": [
        {
          "name": "who",
          "type": "address"
        }
      ],
      "name": "balanceOf",
      "outputs": [
        {
          "name": "",
          "type": "uint256"
        }
      ],
      "payable": false,
      "stateMutability": "view",
      "type": "function"
    },
    {
      "constant": false,
      "inputs": [
        {
          "name": "amount",
          "type": "uint256"
        }
      ],
      "name": "burnToken",
      "outputs": [
        {
          "name": "ok",
          "type": "bool"
        }
      ],
      "payable": false,
      "stateMutability": "nonpayable",
      "type": "function"
    },
    {
      "constant": false,
      "inputs": [
        {
          "name": "spender",
          "type": "address"
        },
        {
          "name": "valueChange",
          "type": "uint256"
        },
        {
          "name": "increase",
          "type": "bool"
        }
      ],
      "name": "approveChange",
      "outputs": [
        {
          "name": "ok",
          "type": "bool"
        }
      ],
      "payable": false,
      "stateMutability": "nonpayable",
      "type": "function"
    },
    {
      "constant": true,
      "inputs": [],
      "name": "owner",
      "outputs": [
        {
          "name": "",
          "type": "address"
        }
      ],
      "payable": false,
      "stateMutability": "view",
      "type": "function"
    },
    {
      "constant": true,
      "inputs": [],
      "name": "symbol",
      "outputs": [
        {
          "name": "",
          "type": "string"
        }
      ],
      "payable": false,
      "stateMutability": "view",
      "type": "function"
    },
    {
      "constant": false,
      "inputs": [
        {
          "name": "newOwner",
          "type": "address"
        }
      ],
      "name": "changeOwner",
      "outputs": [
        {
          "name": "ok",
          "type": "bool"
        }
      ],
      "payable": false,
      "stateMutability": "nonpayable",
      "type": "function"
    },
    {
      "constant": false,
      "inputs": [
        {
          "name": "to",
          "type": "address"
        },
        {
          "name": "value",
          "type": "uint256"
        }
      ],
      "name": "transfer",
      "outputs": [
        {
          "name": "ok",
          "type": "bool"
        }
      ],
      "payable": false,
      "stateMutability": "nonpayable",
      "type": "function"
    },
    {
      "constant": false,
      "inputs": [
        {
          "name": "amount",
          "type": "uint256"
        }
      ],
      "name": "mintToken",
      "outputs": [
        {
          "name": "ok",
          "type": "bool"
        }
      ],
      "payable": false,
      "stateMutability": "nonpayable",
      "type": "function"
    },
    {
      "constant": true,
      "inputs": [
        {
          "name": "owner",
          "type": "address"
        },
        {
          "name": "spender",
          "type": "address"
        }
      ],
      "name": "allowance",
      "outputs": [
        {
          "name": "",
          "type": "uint256"
        }
      ],
      "payable": false,
      "stateMutability": "view",
      "type": "function"
    },
    {
      "constant": true,
      "inputs": [
        {
          "name": "owner",
          "type": "address"
        },
        {
          "name": "name",
          "type": "string"
        },
        {
          "name": "symbol",
          "type": "string"
        },
        {
          "name": "decimals",
          "type": "uint8"
        },
        {
          "name": "initialSupply",
          "type": "uint256"
        },
        {
          "name": "allowMinting",
          "type": "bool"
        }
      ],
      "name": "allowance",
      "outputs": [
        {
          "name": "",
          "type": "uint256"
        }
      ],
      "payable": false,
      "stateMutability": "nonpayable",
      "type": "constructor"
    },
    {
      "inputs": [
        {
          "name": "owner",
          "type": "address"
        },
        {
          "name": "name",
          "type": "string"
        },
        {
          "name": "symbol",
          "type": "string"
        },
        {
          "name": "decimals",
          "type": "uint8"
        },
        {
          "name": "initialSupply",
          "type": "uint256"
        },
        {
          "name": "allowMinting",
          "type": "bool"
        }
      ],
      "payable": false,
      "stateMutability": "nonpayable",
      "type": "constructor"
    }
  ],
  "bytecode": "0x6060604052341561000f57600080fd5b60405161123f38038061123f83398101604052808051906020019091908051820191906020018051820191906020018051906020019091908051906020019091908051906020019091905050600073__TokenLib______________________________639329297290918888888888886040518863ffffffff167c0100000000000000000000000000000000000000000000000000000000028152600401808881526020018773ffffffffffffffffffffffffffffffffffffffff1673ffffffffffffffffffffffffffffffffffffffff16815260200180602001806020018660ff1660ff16815260200185815260200184151515158152602001838103835288818151815260200191508051906020019080838360005b83811015610142578082015181840152602081019050610127565b50505050905090810190601f16801561016f5780820380516001836020036101000a031916815260200191505b50838103825287818151815260200191508051906020019080838360005b838110156101a857808201518184015260208101905061018d565b50505050905090810190601f1680156101d55780820380516001836020036101000a031916815260200191505b50995050505050505050505060006040518083038186803b15156101f857600080fd5b6102c65a03f4151561020957600080fd5b50505050505050505061101e806102216000396000f3006060604052600436106100e6576000357c0100000000000000000000000000000000000000000000000000000000900463ffffffff16806306fdde03146100eb578063095ea7b31461017957806318160ddd146101d357806323b872dd146101fc578063313ce56714610275578063378dc3dc146102a457806364f101f0146102cd57806370a08231146102fa5780637b47ec1a146103475780638bbdfaa6146103825780638da5cb5b146103e757806395d89b411461043c578063a6f9dae1146104ca578063a9059cbb1461051b578063c634d03214610575578063dd62ed3e146105b0575b600080fd5b34156100f657600080fd5b6100fe61061c565b6040518080602001828103825283818151815260200191508051906020019080838360005b8381101561013e578082015181840152602081019050610123565b50505050905090810190601f16801561016b5780820380516001836020036101000a031916815260200191505b509250505060405180910390f35b341561018457600080fd5b6101b9600480803573ffffffffffffffffffffffffffffffffffffffff169060200190919080359060200190919050506106c7565b604051808215151515815260200191505060405180910390f35b34156101de57600080fd5b6101e661079d565b6040518082815260200191505060405180910390f35b341561020757600080fd5b61025b600480803573ffffffffffffffffffffffffffffffffffffffff1690602001909190803573ffffffffffffffffffffffffffffffffffffffff169060200190919080359060200190919050506107a9565b604051808215151515815260200191505060405180910390f35b341561028057600080fd5b6102886108b4565b604051808260ff1660ff16815260200191505060405180910390f35b34156102af57600080fd5b6102b76108cd565b6040518082815260200191505060405180910390f35b34156102d857600080fd5b6102e06108d9565b604051808215151515815260200191505060405180910390f35b341561030557600080fd5b610331600480803573ffffffffffffffffffffffffffffffffffffffff16906020019091905050610970565b6040518082815260200191505060405180910390f35b341561035257600080fd5b6103686004808035906020019091905050610a3d565b604051808215151515815260200191505060405180910390f35b341561038d57600080fd5b6103cd600480803573ffffffffffffffffffffffffffffffffffffffff169060200190919080359060200190919080351515906020019091905050610ade565b604051808215151515815260200191505060405180910390f35b34156103f257600080fd5b6103fa610bc1565b604051808273ffffffffffffffffffffffffffffffffffffffff1673ffffffffffffffffffffffffffffffffffffffff16815260200191505060405180910390f35b341561044757600080fd5b61044f610bed565b6040518080602001828103825283818151815260200191508051906020019080838360005b8381101561048f578082015181840152602081019050610474565b50505050905090810190601f1680156104bc5780820380516001836020036101000a031916815260200191505b509250505060405180910390f35b34156104d557600080fd5b610501600480803573ffffffffffffffffffffffffffffffffffffffff16906020019091905050610c98565b604051808215151515815260200191505060405180910390f35b341561052657600080fd5b61055b600480803573ffffffffffffffffffffffffffffffffffffffff16906020019091908035906020019091905050610d65565b604051808215151515815260200191505060405180910390f35b341561058057600080fd5b6105966004808035906020019091905050610e3b565b604051808215151515815260200191505060405180910390f35b34156105bb57600080fd5b610606600480803573ffffffffffffffffffffffffffffffffffffffff1690602001909190803573ffffffffffffffffffffffffffffffffffffffff16906020019091905050610edc565b6040518082815260200191505060405180910390f35b610624610fde565b60006003018054600181600116156101000203166002900480601f0160208091040260200160405190810160405280929190818152602001828054600181600116156101000203166002900480156106bd5780601f10610692576101008083540402835291602001916106bd565b820191906000526020600020905b8154815290600101906020018083116106a057829003601f168201915b5050505050905090565b60008073__TokenLib______________________________638ca979ca909185856000604051602001526040518463ffffffff167c0100000000000000000000000000000000000000000000000000000000028152600401808481526020018373ffffffffffffffffffffffffffffffffffffffff1673ffffffffffffffffffffffffffffffffffffffff168152602001828152602001935050505060206040518083038186803b151561077a57600080fd5b6102c65a03f4151561078b57600080fd5b50505060405180519050905092915050565b60008060050154905090565b60008073__TokenLib______________________________6321a6a23d90918686866000604051602001526040518563ffffffff167c0100000000000000000000000000000000000000000000000000000000028152600401808581526020018473ffffffffffffffffffffffffffffffffffffffff1673ffffffffffffffffffffffffffffffffffffffff1681526020018373ffffffffffffffffffffffffffffffffffffffff1673ffffffffffffffffffffffffffffffffffffffff16815260200182815260200194505050505060206040518083038186803b151561089057600080fd5b6102c65a03f415156108a157600080fd5b5050506040518051905090509392505050565b60008060070160149054906101000a900460ff16905090565b60008060060154905090565b60008073__TokenLib______________________________63a7ccd77690916000604051602001526040518263ffffffff167c01000000000000000000000000000000000000000000000000000000000281526004018082815260200191505060206040518083038186803b151561095057600080fd5b6102c65a03f4151561096157600080fd5b50505060405180519050905090565b60008073__TokenLib______________________________633af00d0f9091846000604051602001526040518363ffffffff167c0100000000000000000000000000000000000000000000000000000000028152600401808381526020018273ffffffffffffffffffffffffffffffffffffffff1673ffffffffffffffffffffffffffffffffffffffff1681526020019250505060206040518083038186803b1515610a1b57600080fd5b6102c65a03f41515610a2c57600080fd5b505050604051805190509050919050565b60008073__TokenLib______________________________636269321c9091846000604051602001526040518363ffffffff167c0100000000000000000000000000000000000000000000000000000000028152600401808381526020018281526020019250505060206040518083038186803b1515610abc57600080fd5b6102c65a03f41515610acd57600080fd5b505050604051805190509050919050565b60008073__TokenLib______________________________63bd03185c90918686866000604051602001526040518563ffffffff167c0100000000000000000000000000000000000000000000000000000000028152600401808581526020018473ffffffffffffffffffffffffffffffffffffffff1673ffffffffffffffffffffffffffffffffffffffff1681526020018381526020018215151515815260200194505050505060206040518083038186803b1515610b9d57600080fd5b6102c65a03f41515610bae57600080fd5b5050506040518051905090509392505050565b60008060070160009054906101000a900473ffffffffffffffffffffffffffffffffffffffff16905090565b610bf5610fde565b60006004018054600181600116156101000203166002900480601f016020809104026020016040519081016040528092919081815260200182805460018160011615610100020316600290048015610c8e5780601f10610c6357610100808354040283529160200191610c8e565b820191906000526020600020905b815481529060010190602001808311610c7157829003601f168201915b5050505050905090565b60008073__TokenLib______________________________636f71ca3c9091846000604051602001526040518363ffffffff167c0100000000000000000000000000000000000000000000000000000000028152600401808381526020018273ffffffffffffffffffffffffffffffffffffffff1673ffffffffffffffffffffffffffffffffffffffff1681526020019250505060206040518083038186803b1515610d4357600080fd5b6102c65a03f41515610d5457600080fd5b505050604051805190509050919050565b60008073__TokenLib______________________________63d4b1770a909185856000604051602001526040518463ffffffff167c0100000000000000000000000000000000000000000000000000000000028152600401808481526020018373ffffffffffffffffffffffffffffffffffffffff1673ffffffffffffffffffffffffffffffffffffffff168152602001828152602001935050505060206040518083038186803b1515610e1857600080fd5b6102c65a03f41515610e2957600080fd5b50505060405180519050905092915050565b60008073__TokenLib______________________________63f8f095f29091846000604051602001526040518363ffffffff167c0100000000000000000000000000000000000000000000000000000000028152600401808381526020018281526020019250505060206040518083038186803b1515610eba57600080fd5b6102c65a03f41515610ecb57600080fd5b505050604051805190509050919050565b60008073__TokenLib______________________________63ac9b44f7909185856000604051602001526040518463ffffffff167c0100000000000000000000000000000000000000000000000000000000028152600401808481526020018373ffffffffffffffffffffffffffffffffffffffff1673ffffffffffffffffffffffffffffffffffffffff1681526020018273ffffffffffffffffffffffffffffffffffffffff1673ffffffffffffffffffffffffffffffffffffffff168152602001935050505060206040518083038186803b1515610fbb57600080fd5b6102c65a03f41515610fcc57600080fd5b50505060405180519050905092915050565b6020604051908101604052806000815250905600a165627a7a723058205060079839e0b102c524de299121c3688d2af334aeba2e32304e6b19816997360029",
  "deployedBytecode": "0x6060604052600436106100e6576000357c0100000000000000000000000000000000000000000000000000000000900463ffffffff16806306fdde03146100eb578063095ea7b31461017957806318160ddd146101d357806323b872dd146101fc578063313ce56714610275578063378dc3dc146102a457806364f101f0146102cd57806370a08231146102fa5780637b47ec1a146103475780638bbdfaa6146103825780638da5cb5b146103e757806395d89b411461043c578063a6f9dae1146104ca578063a9059cbb1461051b578063c634d03214610575578063dd62ed3e146105b0575b600080fd5b34156100f657600080fd5b6100fe61061c565b6040518080602001828103825283818151815260200191508051906020019080838360005b8381101561013e578082015181840152602081019050610123565b50505050905090810190601f16801561016b5780820380516001836020036101000a031916815260200191505b509250505060405180910390f35b341561018457600080fd5b6101b9600480803573ffffffffffffffffffffffffffffffffffffffff169060200190919080359060200190919050506106c7565b604051808215151515815260200191505060405180910390f35b34156101de57600080fd5b6101e661079d565b6040518082815260200191505060405180910390f35b341561020757600080fd5b61025b600480803573ffffffffffffffffffffffffffffffffffffffff1690602001909190803573ffffffffffffffffffffffffffffffffffffffff169060200190919080359060200190919050506107a9565b604051808215151515815260200191505060405180910390f35b341561028057600080fd5b6102886108b4565b604051808260ff1660ff16815260200191505060405180910390f35b34156102af57600080fd5b6102b76108cd565b6040518082815260200191505060405180910390f35b34156102d857600080fd5b6102e06108d9565b604051808215151515815260200191505060405180910390f35b341561030557600080fd5b610331600480803573ffffffffffffffffffffffffffffffffffffffff16906020019091905050610970565b6040518082815260200191505060405180910390f35b341561035257600080fd5b6103686004808035906020019091905050610a3d565b604051808215151515815260200191505060405180910390f35b341561038d57600080fd5b6103cd600480803573ffffffffffffffffffffffffffffffffffffffff169060200190919080359060200190919080351515906020019091905050610ade565b604051808215151515815260200191505060405180910390f35b34156103f257600080fd5b6103fa610bc1565b604051808273ffffffffffffffffffffffffffffffffffffffff1673ffffffffffffffffffffffffffffffffffffffff16815260200191505060405180910390f35b341561044757600080fd5b61044f610bed565b6040518080602001828103825283818151815260200191508051906020019080838360005b8381101561048f578082015181840152602081019050610474565b50505050905090810190601f1680156104bc5780820380516001836020036101000a031916815260200191505b509250505060405180910390f35b34156104d557600080fd5b610501600480803573ffffffffffffffffffffffffffffffffffffffff16906020019091905050610c98565b604051808215151515815260200191505060405180910390f35b341561052657600080fd5b61055b600480803573ffffffffffffffffffffffffffffffffffffffff16906020019091908035906020019091905050610d65565b604051808215151515815260200191505060405180910390f35b341561058057600080fd5b6105966004808035906020019091905050610e3b565b604051808215151515815260200191505060405180910390f35b34156105bb57600080fd5b610606600480803573ffffffffffffffffffffffffffffffffffffffff1690602001909190803573ffffffffffffffffffffffffffffffffffffffff16906020019091905050610edc565b6040518082815260200191505060405180910390f35b610624610fde565b60006003018054600181600116156101000203166002900480601f0160208091040260200160405190810160405280929190818152602001828054600181600116156101000203166002900480156106bd5780601f10610692576101008083540402835291602001916106bd565b820191906000526020600020905b8154815290600101906020018083116106a057829003601f168201915b5050505050905090565b60008073__TokenLib______________________________638ca979ca909185856000604051602001526040518463ffffffff167c0100000000000000000000000000000000000000000000000000000000028152600401808481526020018373ffffffffffffffffffffffffffffffffffffffff1673ffffffffffffffffffffffffffffffffffffffff168152602001828152602001935050505060206040518083038186803b151561077a57600080fd5b6102c65a03f4151561078b57600080fd5b50505060405180519050905092915050565b60008060050154905090565b60008073__TokenLib______________________________6321a6a23d90918686866000604051602001526040518563ffffffff167c0100000000000000000000000000000000000000000000000000000000028152600401808581526020018473ffffffffffffffffffffffffffffffffffffffff1673ffffffffffffffffffffffffffffffffffffffff1681526020018373ffffffffffffffffffffffffffffffffffffffff1673ffffffffffffffffffffffffffffffffffffffff16815260200182815260200194505050505060206040518083038186803b151561089057600080fd5b6102c65a03f415156108a157600080fd5b5050506040518051905090509392505050565b60008060070160149054906101000a900460ff16905090565b60008060060154905090565b60008073__TokenLib______________________________63a7ccd77690916000604051602001526040518263ffffffff167c01000000000000000000000000000000000000000000000000000000000281526004018082815260200191505060206040518083038186803b151561095057600080fd5b6102c65a03f4151561096157600080fd5b50505060405180519050905090565b60008073__TokenLib______________________________633af00d0f9091846000604051602001526040518363ffffffff167c0100000000000000000000000000000000000000000000000000000000028152600401808381526020018273ffffffffffffffffffffffffffffffffffffffff1673ffffffffffffffffffffffffffffffffffffffff1681526020019250505060206040518083038186803b1515610a1b57600080fd5b6102c65a03f41515610a2c57600080fd5b505050604051805190509050919050565b60008073__TokenLib______________________________636269321c9091846000604051602001526040518363ffffffff167c0100000000000000000000000000000000000000000000000000000000028152600401808381526020018281526020019250505060206040518083038186803b1515610abc57600080fd5b6102c65a03f41515610acd57600080fd5b505050604051805190509050919050565b60008073__TokenLib______________________________63bd03185c90918686866000604051602001526040518563ffffffff167c0100000000000000000000000000000000000000000000000000000000028152600401808581526020018473ffffffffffffffffffffffffffffffffffffffff1673ffffffffffffffffffffffffffffffffffffffff1681526020018381526020018215151515815260200194505050505060206040518083038186803b1515610b9d57600080fd5b6102c65a03f41515610bae57600080fd5b5050506040518051905090509392505050565b60008060070160009054906101000a900473ffffffffffffffffffffffffffffffffffffffff16905090565b610bf5610fde565b60006004018054600181600116156101000203166002900480601f016020809104026020016040519081016040528092919081815260200182805460018160011615610100020316600290048015610c8e5780601f10610c6357610100808354040283529160200191610c8e565b820191906000526020600020905b815481529060010190602001808311610c7157829003601f168201915b5050505050905090565b60008073__TokenLib______________________________636f71ca3c9091846000604051602001526040518363ffffffff167c0100000000000000000000000000000000000000000000000000000000028152600401808381526020018273ffffffffffffffffffffffffffffffffffffffff1673ffffffffffffffffffffffffffffffffffffffff1681526020019250505060206040518083038186803b1515610d4357600080fd5b6102c65a03f41515610d5457600080fd5b505050604051805190509050919050565b60008073__TokenLib______________________________63d4b1770a909185856000604051602001526040518463ffffffff167c0100000000000000000000000000000000000000000000000000000000028152600401808481526020018373ffffffffffffffffffffffffffffffffffffffff1673ffffffffffffffffffffffffffffffffffffffff168152602001828152602001935050505060206040518083038186803b1515610e1857600080fd5b6102c65a03f41515610e2957600080fd5b50505060405180519050905092915050565b60008073__TokenLib______________________________63f8f095f29091846000604051602001526040518363ffffffff167c0100000000000000000000000000000000000000000000000000000000028152600401808381526020018281526020019250505060206040518083038186803b1515610eba57600080fd5b6102c65a03f41515610ecb57600080fd5b505050604051805190509050919050565b60008073__TokenLib______________________________63ac9b44f7909185856000604051602001526040518463ffffffff167c0100000000000000000000000000000000000000000000000000000000028152600401808481526020018373ffffffffffffffffffffffffffffffffffffffff1673ffffffffffffffffffffffffffffffffffffffff1681526020018273ffffffffffffffffffffffffffffffffffffffff1673ffffffffffffffffffffffffffffffffffffffff168152602001935050505060206040518083038186803b1515610fbb57600080fd5b6102c65a03f41515610fcc57600080fd5b50505060405180519050905092915050565b6020604051908101604052806000815250905600a165627a7a723058205060079839e0b102c524de299121c3688d2af334aeba2e32304e6b19816997360029",
  "source": "pragma solidity ^0.4.15;\n\nimport \"./TokenLib.sol\";\n\ncontract TokenLibTestContract {\n  using TokenLib for TokenLib.TokenStorage;\n\n  TokenLib.TokenStorage token;\n\n  function TokenLibTestContract(address owner,\n                                string name,\n                                string symbol,\n                                uint8 decimals,\n                                uint256 initialSupply,\n                                bool allowMinting)\n  {\n    token.init(owner, name, symbol, decimals, initialSupply, allowMinting);\n  }\n\n  function owner() constant returns (address) {\n    return token.owner;\n  }\n\n  function name() constant returns (string) {\n    return token.name;\n  }\n\n  function symbol() constant returns (string) {\n    return token.symbol;\n  }\n\n  function decimals() constant returns (uint8) {\n    return token.decimals;\n  }\n\n  function totalSupply() constant returns (uint256) {\n    return token.totalSupply;\n  }\n\n  function initialSupply() constant returns (uint256) {\n    return token.initialSupply;\n  }\n\n  function balanceOf(address who) constant returns (uint256) {\n    return token.balanceOf(who);\n  }\n\n  function allowance(address owner, address spender) constant returns (uint256) {\n    return token.allowance(owner, spender);\n  }\n\n  function transfer(address to, uint value) returns (bool ok) {\n    return token.transfer(to, value);\n  }\n\n  function transferFrom(address from, address to, uint value) returns (bool ok) {\n    return token.transferFrom(from, to, value);\n  }\n\n  function approve(address spender, uint value) returns (bool ok) {\n    return token.approve(spender, value);\n  }\n\n  function approveChange(address spender, uint valueChange, bool increase) returns (bool ok) {\n    return token.approveChange(spender, valueChange, increase);\n  }\n\n  function changeOwner(address newOwner) returns (bool ok) {\n    return token.changeOwner(newOwner);\n  }\n\n  function mintToken(uint amount) returns (bool ok) {\n    return token.mintToken(amount);\n  }\n\n  function closeMint() returns (bool ok) {\n    return token.closeMint();\n  }\n\n  function burnToken(uint amount) returns (bool ok) {\n    return token.burnToken(amount);\n  }\n}\n",
  "sourcePath": "/Users/hackdom/Projects/ethereum-libraries/TokenLib/truffle/contracts/TokenLibTestContract.sol",
  "compiler": {
    "name": "solc",
    "version": "0.4.18+commit.9cf6e910.Emscripten.clang"
  },
  "schemaVersion": "1.0.1",
  "updatedAt": "2017-11-26T17:23:57.473Z"
}