{
  "contractName": "WalletGetterLib",
  "abi": [
    {
      "constant": true,
      "inputs": [
        {
          "name": "self",
          "type": "WalletMainLib.WalletData storage"
        }
      ],
      "name": "getMaxOwners",
      "outputs": [
        {
          "name": "",
          "type": "uint256"
        }
      ],
      "payable": false,
      "stateMutability": "view",
      "type": "function"
    },
    {
      "constant": true,
      "inputs": [
        {
          "name": "self",
          "type": "WalletMainLib.WalletData storage"
        },
        {
          "name": "_id",
          "type": "bytes32"
        },
        {
          "name": "_txIndex",
          "type": "uint256"
        }
      ],
      "name": "getTransactionConfirmCount",
      "outputs": [
        {
          "name": "",
          "type": "uint256"
        }
      ],
      "payable": false,
      "stateMutability": "view",
      "type": "function"
    },
    {
      "constant": true,
      "inputs": [
        {
          "name": "self",
          "type": "WalletMainLib.WalletData storage"
        }
      ],
      "name": "getRequiredAdmin",
      "outputs": [
        {
          "name": "",
          "type": "uint256"
        }
      ],
      "payable": false,
      "stateMutability": "view",
      "type": "function"
    },
    {
      "constant": true,
      "inputs": [
        {
          "name": "self",
          "type": "WalletMainLib.WalletData storage"
        },
        {
          "name": "_owner",
          "type": "address"
        }
      ],
      "name": "getOwnerIndex",
      "outputs": [
        {
          "name": "",
          "type": "uint256"
        }
      ],
      "payable": false,
      "stateMutability": "view",
      "type": "function"
    },
    {
      "constant": true,
      "inputs": [
        {
          "name": "self",
          "type": "WalletMainLib.WalletData storage"
        }
      ],
      "name": "getRequiredMajor",
      "outputs": [
        {
          "name": "",
          "type": "uint256"
        }
      ],
      "payable": false,
      "stateMutability": "view",
      "type": "function"
    },
    {
      "constant": true,
      "inputs": [
        {
          "name": "self",
          "type": "WalletMainLib.WalletData storage"
        }
      ],
      "name": "getOwnerCount",
      "outputs": [
        {
          "name": "",
          "type": "uint256"
        }
      ],
      "payable": false,
      "stateMutability": "view",
      "type": "function"
    },
    {
      "constant": true,
      "inputs": [
        {
          "name": "self",
          "type": "WalletMainLib.WalletData storage"
        },
        {
          "name": "_id",
          "type": "bytes32"
        },
        {
          "name": "_txIndex",
          "type": "uint256"
        }
      ],
      "name": "getTransactionSuccess",
      "outputs": [
        {
          "name": "",
          "type": "bool"
        }
      ],
      "payable": false,
      "stateMutability": "view",
      "type": "function"
    },
    {
      "constant": true,
      "inputs": [
        {
          "name": "self",
          "type": "WalletMainLib.WalletData storage"
        },
        {
          "name": "_id",
          "type": "bytes32"
        },
        {
          "name": "_txIndex",
          "type": "uint256"
        }
      ],
      "name": "getTransactionConfirms",
      "outputs": [
        {
          "name": "",
          "type": "uint256[50]"
        }
      ],
      "payable": false,
      "stateMutability": "view",
      "type": "function"
    },
    {
      "constant": true,
      "inputs": [
        {
          "name": "self",
          "type": "WalletMainLib.WalletData storage"
        },
        {
          "name": "_token",
          "type": "address"
        }
      ],
      "name": "getMajorThreshold",
      "outputs": [
        {
          "name": "",
          "type": "uint256"
        }
      ],
      "payable": false,
      "stateMutability": "view",
      "type": "function"
    },
    {
      "constant": true,
      "inputs": [
        {
          "name": "self",
          "type": "WalletMainLib.WalletData storage"
        },
        {
          "name": "_id",
          "type": "bytes32"
        }
      ],
      "name": "getTransactionLength",
      "outputs": [
        {
          "name": "",
          "type": "uint256"
        }
      ],
      "payable": false,
      "stateMutability": "view",
      "type": "function"
    },
    {
      "constant": true,
      "inputs": [
        {
          "name": "self",
          "type": "WalletMainLib.WalletData storage"
        }
      ],
      "name": "getOwners",
      "outputs": [
        {
          "name": "",
          "type": "address[51]"
        }
      ],
      "payable": false,
      "stateMutability": "view",
      "type": "function"
    },
    {
      "constant": true,
      "inputs": [
        {
          "name": "self",
          "type": "WalletMainLib.WalletData storage"
        },
        {
          "name": "_token",
          "type": "address"
        }
      ],
      "name": "getCurrentSpend",
      "outputs": [
        {
          "name": "",
          "type": "uint256[2]"
        }
      ],
      "payable": false,
      "stateMutability": "view",
      "type": "function"
    },
    {
      "constant": true,
      "inputs": [
        {
          "name": "self",
          "type": "WalletMainLib.WalletData storage"
        }
      ],
      "name": "getRequiredMinor",
      "outputs": [
        {
          "name": "",
          "type": "uint256"
        }
      ],
      "payable": false,
      "stateMutability": "view",
      "type": "function"
    }
  ],
  "bytecode": "0x6060604052341561000f57600080fd5b61091d8061001e6000396000f3006060604052600436106100c5576000357c0100000000000000000000000000000000000000000000000000000000900463ffffffff168063308d1c6c146100ca57806338b46370146100f657806360eb3d861461013857806367aedb341461016457806373e7648e146101af5780638715dbd0146101db578063a0913eaf14610207578063a2568c821461024d578063a435ec2e146102b7578063d7f02e3114610302578063e4dcae7b1461033b578063ea10bdc71461038f578063f6d59b4614610402575b600080fd5b6100e0600480803590602001909190505061042e565b6040518082815260200191505060405180910390f35b61012260048080359060200190919080356000191690602001909190803590602001909190505061043c565b6040518082815260200191505060405180910390f35b61014e6004808035906020019091905050610483565b6040518082815260200191505060405180910390f35b610199600480803590602001909190803573ffffffffffffffffffffffffffffffffffffffff16906020019091905050610491565b6040518082815260200191505060405180910390f35b6101c560048080359060200190919050506104dd565b6040518082815260200191505060405180910390f35b6101f160048080359060200190919050506104eb565b6040518082815260200191505060405180910390f35b6102336004808035906020019091908035600019169060200190919080359060200190919050506104ff565b604051808215151515815260200191505060405180910390f35b610279600480803590602001909190803560001916906020019091908035906020019091905050610553565b6040518082603260200280838360005b838110156102a4578082015181840152602081019050610289565b5050505090500191505060405180910390f35b6102ec600480803590602001909190803573ffffffffffffffffffffffffffffffffffffffff16906020019091905050610633565b6040518082815260200191505060405180910390f35b61032560048080359060200190919080356000191690602001909190505061067f565b6040518082815260200191505060405180910390f35b61035160048080359060200190919050506106aa565b6040518082603360200280838360005b8381101561037c578082015181840152602081019050610361565b5050505090500191505060405180910390f35b6103c4600480803590602001909190803573ffffffffffffffffffffffffffffffffffffffff16906020019091905050610768565b6040518082600260200280838360005b838110156103ef5780820151818401526020810190506103d4565b5050505090500191505060405180910390f35b6104186004808035906020019091905050610854565b6040518082815260200191505060405180910390f35b600081600001549050919050565b600083600901600084600019166000191681526020019081526020016000208281548110151561046857fe5b90600052602060002090600902016006015490509392505050565b600081600201549050919050565b60008260080160008373ffffffffffffffffffffffffffffffffffffffff1673ffffffffffffffffffffffffffffffffffffffff16815260200190815260200160002054905092915050565b600081600301549050919050565b600060018260010180549050039050919050565b600083600901600084600019166000191681526020019081526020016000208281548110151561052b57fe5b906000526020600020906009020160080160009054906101000a900460ff1690509392505050565b61055b610862565b610563610862565b60008090505b85600901600086600019166000191681526020019081526020016000208481548110151561059357fe5b906000526020600020906009020160050180549050811015610627578560090160008660001916600019168152602001908152602001600020848154811015156105d957fe5b9060005260206000209060090201600501818154811015156105f757fe5b906000526020600020900154828260328110151561061157fe5b6020020181815250508080600101915050610569565b81925050509392505050565b60008260060160008373ffffffffffffffffffffffffffffffffffffffff1673ffffffffffffffffffffffffffffffffffffffff16815260200190815260200160002054905092915050565b6000826009016000836000191660001916815260200190815260200160002080549050905092915050565b6106b261088b565b6106ba61088b565b60008090505b836001018054905081101561075e5783600101818154811015156106e057fe5b906000526020600020900160009054906101000a900473ffffffffffffffffffffffffffffffffffffffff16828260338110151561071a57fe5b602002019073ffffffffffffffffffffffffffffffffffffffff16908173ffffffffffffffffffffffffffffffffffffffff168152505080806001019150506106c0565b8192505050919050565b6107706108ca565b6107786108ca565b8360050160008473ffffffffffffffffffffffffffffffffffffffff1673ffffffffffffffffffffffffffffffffffffffff16815260200190815260200160002060006002811015156107c757fe5b01548160006002811015156107d857fe5b6020020181815250508360050160008473ffffffffffffffffffffffffffffffffffffffff1673ffffffffffffffffffffffffffffffffffffffff168152602001908152602001600020600160028110151561083057fe5b015481600160028110151561084157fe5b6020020181815250508091505092915050565b600081600401549050919050565b610640604051908101604052806032905b60008152602001906001900390816108735790505090565b610660604051908101604052806033905b600073ffffffffffffffffffffffffffffffffffffffff1681526020019060019003908161089c5790505090565b60408051908101604052806002905b60008152602001906001900390816108d957905050905600a165627a7a72305820fed600837bee6492be135499f5a375ffd1418f8297902bb4a7d2df51a21e4d280029",
  "source": "pragma solidity 0.4.18;\n\n/**\n * @title Wallet Getter Library\n * @author Modular.network\n *\n * version 1.1.0\n * Copyright (c) 2017 Modular, LLC\n * The MIT License (MIT)\n * https://github.com/Modular-network/ethereum-libraries/blob/master/LICENSE\n *\n * The Wallet Library family is inspired by the multisig wallets built by Consensys\n * at https://github.com/ConsenSys/MultiSigWallet and Parity at\n * https://github.com/paritytech/contracts/blob/master/Wallet.sol with added\n * functionality. Modular works on open source projects in the Ethereum\n * community with the purpose of testing, documenting, and deploying reusable\n * code onto the blockchain to improve security and usability of smart contracts.\n * Modular also strives to educate non-profits, schools, and other community\n * members about the application of blockchain technology. For further\n * information: modular.network, consensys.net, paritytech.io\n *\n * THE SOFTWARE IS PROVIDED \"AS IS\", WITHOUT WARRANTY OF ANY KIND, EXPRESS\n * OR IMPLIED, INCLUDING BUT NOT LIMITED TO THE WARRANTIES OF\n * MERCHANTABILITY, FITNESS FOR A PARTICULAR PURPOSE AND NONINFRINGEMENT.\n * IN NO EVENT SHALL THE AUTHORS OR COPYRIGHT HOLDERS BE LIABLE FOR ANY\n * CLAIM, DAMAGES OR OTHER LIABILITY, WHETHER IN AN ACTION OF CONTRACT,\n * TORT OR OTHERWISE, ARISING FROM, OUT OF OR IN CONNECTION WITH THE\n * SOFTWARE OR THE USE OR OTHER DEALINGS IN THE SOFTWARE.\n */\n\nimport \"./WalletMainLib.sol\";\n\nlibrary WalletGetterLib {\n\n  /*Getter Functions*/\n\n  /// @dev Get list of wallet owners, will return fixed 50 until fork\n  /// @param self Wallet in contract storage\n  /// @return address[51] Returns entire 51 owner slots\n  function getOwners(WalletMainLib.WalletData storage self) public view returns (address[51]) {\n    address[51] memory o;\n    for(uint256 i = 0; i<self.owners.length; i++){\n      o[i] = self.owners[i];\n    }\n    return o;\n  }\n\n  /// @dev Get index of an owner\n  /// @param self Wallet in contract storage\n  /// @param _owner Address of owner\n  /// @return uint256 Index of the owner\n  function getOwnerIndex(WalletMainLib.WalletData storage self, address _owner) public view returns (uint256) {\n    return self.ownerIndex[_owner];\n  }\n\n  /// @dev Get max number of wallet owners\n  /// @param self Wallet in contract storage\n  /// @return uint256 Maximum number of owners\n  function getMaxOwners(WalletMainLib.WalletData storage self) public view returns (uint256) {\n    return self.maxOwners;\n  }\n\n  /// @dev Get number of wallet owners\n  /// @param self Wallet in contract storage\n  /// @return uint256 Number of owners\n  function getOwnerCount(WalletMainLib.WalletData storage self) public view returns (uint256) {\n    return self.owners.length - 1;\n  }\n\n  /// @dev Get sig requirements for administrative changes\n  /// @param self Wallet in contract storage\n  /// @return uint256 Number of sigs required\n  function getRequiredAdmin(WalletMainLib.WalletData storage self) public view returns (uint256) {\n    return self.requiredAdmin;\n  }\n\n  /// @dev Get sig requirements for minor tx spends\n  /// @param self Wallet in contract storage\n  /// @return uint256 Number of sigs required\n  function getRequiredMinor(WalletMainLib.WalletData storage self) public view returns (uint256) {\n    return self.requiredMinor;\n  }\n\n  /// @dev Get sig requirements for major tx spends\n  /// @param self Wallet in contract storage\n  /// @return uint256 Number of sigs required\n  function getRequiredMajor(WalletMainLib.WalletData storage self) public view returns (uint256) {\n    return self.requiredMajor;\n  }\n\n  /// @dev Get current day spend for token\n  /// @param self Wallet in contract storage\n  /// @param _token Address of token, 0 for ether\n  /// @return uint256[2] 0-index is day timestamp, 1-index is the day spend\n  function getCurrentSpend(WalletMainLib.WalletData storage self, address _token) public view returns (uint256[2]) {\n    uint256[2] memory cs;\n    cs[0] = self.currentSpend[_token][0];\n    cs[1] = self.currentSpend[_token][1];\n    return cs;\n  }\n\n  /// @dev Get major tx threshold per token\n  /// @param self Wallet in contract storage\n  /// @param _token Address of token, 0 for ether\n  /// @return uint256 Threshold amount\n  function getMajorThreshold(WalletMainLib.WalletData storage self, address _token) public view returns (uint256) {\n    return self.majorThreshold[_token];\n  }\n\n  /// @dev Get the number of tx's with the same id\n  /// @param self Wallet in contract storage\n  /// @param _id ID of transactions requested\n  /// @return uint256 Number of tx's with same ID\n  function getTransactionLength(WalletMainLib.WalletData storage self, bytes32 _id) public view returns (uint256) {\n    return self.transactionInfo[_id].length;\n  }\n\n  /// @dev Get list of confirmations for a tx, use getTransactionLength to get latest number\n  /// @param self Wallet in contract storage\n  /// @param _id ID of transaction requested\n  /// @param _txIndex The transaction index number\n  /// @return uint256[50] Returns list of confirmations, fixed at 50 until fork\n  function getTransactionConfirms(WalletMainLib.WalletData storage self,\n                                  bytes32 _id,\n                                  uint256 _txIndex)\n                                  public view returns (uint256[50])\n  {\n    uint256[50] memory tc;\n    for(uint256 i = 0; i<self.transactionInfo[_id][_txIndex].confirmedOwners.length; i++){\n      tc[i] = self.transactionInfo[_id][_txIndex].confirmedOwners[i];\n    }\n    return tc;\n  }\n\n  /// @dev Retrieve tx confirmation count\n  /// @param self Wallet in contract storage\n  /// @param _id ID of transaction requested\n  /// @param _txIndex The transaction index number\n  /// @return uint256 Returns the current number of tx confirmations\n  function getTransactionConfirmCount(WalletMainLib.WalletData storage self,\n                           bytes32 _id,\n                           uint256 _txIndex)\n                           public view returns(uint256)\n  {\n    return self.transactionInfo[_id][_txIndex].confirmCount;\n  }\n\n  /// @dev Retrieve if transaction was successful\n  /// @param self Wallet in contract storage\n  /// @param _id ID of transaction requested\n  /// @param _txIndex The transaction index number\n  /// @return bool Returns true if tx successfully executed, false otherwise\n  function getTransactionSuccess(WalletMainLib.WalletData storage self,\n                                 bytes32 _id,\n                                 uint256 _txIndex)\n                                 public view returns (bool)\n  {\n    return self.transactionInfo[_id][_txIndex].success;\n  }\n}\n",
  "sourcePath": "/Users/hackdom/Projects/ethereum-libraries/WalletLib/truffle/contracts/WalletGetterLib.sol",
  "compiler": {
    "name": "solc",
    "version": "0.4.18+commit.9cf6e910.Emscripten.clang"
  },
  "schemaVersion": "1.0.1",
  "updatedAt": "2017-12-12T05:23:10.348Z"
}