{
  "contractName": "WalletGetterLib",
  "abi": [
    {
      "constant": true,
      "inputs": [
        {
          "name": "self",
          "type": "WalletMainLib.WalletData storage"
        }
      ],
      "name": "getMaxOwners",
      "outputs": [
        {
          "name": "",
          "type": "uint256"
        }
      ],
      "payable": false,
      "stateMutability": "view",
      "type": "function"
    },
    {
      "constant": true,
      "inputs": [
        {
          "name": "self",
          "type": "WalletMainLib.WalletData storage"
        },
        {
          "name": "_id",
          "type": "bytes32"
        },
        {
          "name": "_txIndex",
          "type": "uint256"
        }
      ],
      "name": "getTransactionConfirmCount",
      "outputs": [
        {
          "name": "",
          "type": "uint256"
        }
      ],
      "payable": false,
      "stateMutability": "view",
      "type": "function"
    },
    {
      "constant": true,
      "inputs": [
        {
          "name": "self",
          "type": "WalletMainLib.WalletData storage"
        },
        {
          "name": "_date",
          "type": "uint256"
        }
      ],
      "name": "getTransactions",
      "outputs": [
        {
          "name": "",
          "type": "bytes32[10]"
        }
      ],
      "payable": false,
      "stateMutability": "view",
      "type": "function"
    },
    {
      "constant": true,
      "inputs": [
        {
          "name": "self",
          "type": "WalletMainLib.WalletData storage"
        }
      ],
      "name": "getRequiredAdmin",
      "outputs": [
        {
          "name": "",
          "type": "uint256"
        }
      ],
      "payable": false,
      "stateMutability": "view",
      "type": "function"
    },
    {
      "constant": true,
      "inputs": [
        {
          "name": "self",
          "type": "WalletMainLib.WalletData storage"
        },
        {
          "name": "_owner",
          "type": "address"
        }
      ],
      "name": "getOwnerIndex",
      "outputs": [
        {
          "name": "",
          "type": "uint256"
        }
      ],
      "payable": false,
      "stateMutability": "view",
      "type": "function"
    },
    {
      "constant": true,
      "inputs": [
        {
          "name": "self",
          "type": "WalletMainLib.WalletData storage"
        }
      ],
      "name": "getRequiredMajor",
      "outputs": [
        {
          "name": "",
          "type": "uint256"
        }
      ],
      "payable": false,
      "stateMutability": "view",
      "type": "function"
    },
    {
      "constant": true,
      "inputs": [
        {
          "name": "self",
          "type": "WalletMainLib.WalletData storage"
        }
      ],
      "name": "getOwnerCount",
      "outputs": [
        {
          "name": "",
          "type": "uint256"
        }
      ],
      "payable": false,
      "stateMutability": "view",
      "type": "function"
    },
    {
      "constant": true,
      "inputs": [
        {
          "name": "self",
          "type": "WalletMainLib.WalletData storage"
        },
        {
          "name": "_id",
          "type": "bytes32"
        },
        {
          "name": "_txIndex",
          "type": "uint256"
        }
      ],
      "name": "getTransactionSuccess",
      "outputs": [
        {
          "name": "",
          "type": "bool"
        }
      ],
      "payable": false,
      "stateMutability": "view",
      "type": "function"
    },
    {
      "constant": true,
      "inputs": [
        {
          "name": "self",
          "type": "WalletMainLib.WalletData storage"
        },
        {
          "name": "_id",
          "type": "bytes32"
        },
        {
          "name": "_txIndex",
          "type": "uint256"
        }
      ],
      "name": "getTransactionConfirms",
      "outputs": [
        {
          "name": "",
          "type": "uint256[50]"
        }
      ],
      "payable": false,
      "stateMutability": "view",
      "type": "function"
    },
    {
      "constant": true,
      "inputs": [
        {
          "name": "self",
          "type": "WalletMainLib.WalletData storage"
        },
        {
          "name": "_token",
          "type": "address"
        }
      ],
      "name": "getMajorThreshold",
      "outputs": [
        {
          "name": "",
          "type": "uint256"
        }
      ],
      "payable": false,
      "stateMutability": "view",
      "type": "function"
    },
    {
      "constant": true,
      "inputs": [
        {
          "name": "self",
          "type": "WalletMainLib.WalletData storage"
        },
        {
          "name": "_id",
          "type": "bytes32"
        }
      ],
      "name": "getTransactionLength",
      "outputs": [
        {
          "name": "",
          "type": "uint256"
        }
      ],
      "payable": false,
      "stateMutability": "view",
      "type": "function"
    },
    {
      "constant": true,
      "inputs": [
        {
          "name": "self",
          "type": "WalletMainLib.WalletData storage"
        }
      ],
      "name": "getOwners",
      "outputs": [
        {
          "name": "",
          "type": "address[51]"
        }
      ],
      "payable": false,
      "stateMutability": "view",
      "type": "function"
    },
    {
      "constant": true,
      "inputs": [
        {
          "name": "self",
          "type": "WalletMainLib.WalletData storage"
        },
        {
          "name": "_token",
          "type": "address"
        }
      ],
      "name": "getCurrentSpend",
      "outputs": [
        {
          "name": "",
          "type": "uint256[2]"
        }
      ],
      "payable": false,
      "stateMutability": "view",
      "type": "function"
    },
    {
      "constant": true,
      "inputs": [
        {
          "name": "self",
          "type": "WalletMainLib.WalletData storage"
        }
      ],
      "name": "getRequiredMinor",
      "outputs": [
        {
          "name": "",
          "type": "uint256"
        }
      ],
      "payable": false,
      "stateMutability": "view",
      "type": "function"
    }
  ],
  "bytecode": "0x6060604052341561000f57600080fd5b610a5b8061001e6000396000f3006060604052600436106100d0576000357c0100000000000000000000000000000000000000000000000000000000900463ffffffff168063308d1c6c146100d557806338b463701461010157806338f073b21461014357806360eb3d86146101a057806367aedb34146101cc57806373e7648e146102175780638715dbd014610243578063a0913eaf1461026f578063a2568c82146102b5578063a435ec2e1461031f578063d7f02e311461036a578063e4dcae7b146103a3578063ea10bdc7146103f7578063f6d59b461461046a575b600080fd5b6100eb6004808035906020019091905050610496565b6040518082815260200191505060405180910390f35b61012d6004808035906020019091908035600019169060200190919080359060200190919050506104a4565b6040518082815260200191505060405180910390f35b61016260048080359060200190919080359060200190919050506104eb565b6040518082600a60200280838360005b8381101561018d578082015181840152602081019050610172565b5050505090500191505060405180910390f35b6101b66004808035906020019091905050610595565b6040518082815260200191505060405180910390f35b610201600480803590602001909190803573ffffffffffffffffffffffffffffffffffffffff169060200190919050506105a3565b6040518082815260200191505060405180910390f35b61022d60048080359060200190919050506105ef565b6040518082815260200191505060405180910390f35b61025960048080359060200190919050506105fd565b6040518082815260200191505060405180910390f35b61029b600480803590602001909190803560001916906020019091908035906020019091905050610611565b604051808215151515815260200191505060405180910390f35b6102e1600480803590602001909190803560001916906020019091908035906020019091905050610665565b6040518082603260200280838360005b8381101561030c5780820151818401526020810190506102f1565b5050505090500191505060405180910390f35b610354600480803590602001909190803573ffffffffffffffffffffffffffffffffffffffff16906020019091905050610745565b6040518082815260200191505060405180910390f35b61038d600480803590602001909190803560001916906020019091905050610791565b6040518082815260200191505060405180910390f35b6103b960048080359060200190919050506107bc565b6040518082603360200280838360005b838110156103e45780820151818401526020810190506103c9565b5050505090500191505060405180910390f35b61042c600480803590602001909190803573ffffffffffffffffffffffffffffffffffffffff1690602001909190505061087a565b6040518082600260200280838360005b8381101561045757808201518184015260208101905061043c565b5050505090500191505060405180910390f35b6104806004808035906020019091905050610966565b6040518082815260200191505060405180910390f35b600081600001549050919050565b60008360090160008460001916600019168152602001908152602001600020828154811015156104d057fe5b90600052602060002090600902016006015490509392505050565b6104f3610974565b6104fb610974565b6000806001866007016000878152602001908152602001600020805490500391508190505b600081101515610589578560070160008681526020019081526020016000208181548110151561054c57fe5b90600052602060002090015483828403600a8110151561056857fe5b60200201906000191690816000191681525050808060019003915050610520565b82935050505092915050565b600081600201549050919050565b60008260080160008373ffffffffffffffffffffffffffffffffffffffff1673ffffffffffffffffffffffffffffffffffffffff16815260200190815260200160002054905092915050565b600081600301549050919050565b600060018260010180549050039050919050565b600083600901600084600019166000191681526020019081526020016000208281548110151561063d57fe5b906000526020600020906009020160080160009054906101000a900460ff1690509392505050565b61066d6109a0565b6106756109a0565b60008090505b8560090160008660001916600019168152602001908152602001600020848154811015156106a557fe5b906000526020600020906009020160050180549050811015610739578560090160008660001916600019168152602001908152602001600020848154811015156106eb57fe5b90600052602060002090600902016005018181548110151561070957fe5b906000526020600020900154828260328110151561072357fe5b602002018181525050808060010191505061067b565b81925050509392505050565b60008260060160008373ffffffffffffffffffffffffffffffffffffffff1673ffffffffffffffffffffffffffffffffffffffff16815260200190815260200160002054905092915050565b6000826009016000836000191660001916815260200190815260200160002080549050905092915050565b6107c46109c9565b6107cc6109c9565b60008090505b83600101805490508110156108705783600101818154811015156107f257fe5b906000526020600020900160009054906101000a900473ffffffffffffffffffffffffffffffffffffffff16828260338110151561082c57fe5b602002019073ffffffffffffffffffffffffffffffffffffffff16908173ffffffffffffffffffffffffffffffffffffffff168152505080806001019150506107d2565b8192505050919050565b610882610a08565b61088a610a08565b8360050160008473ffffffffffffffffffffffffffffffffffffffff1673ffffffffffffffffffffffffffffffffffffffff16815260200190815260200160002060006002811015156108d957fe5b01548160006002811015156108ea57fe5b6020020181815250508360050160008473ffffffffffffffffffffffffffffffffffffffff1673ffffffffffffffffffffffffffffffffffffffff168152602001908152602001600020600160028110151561094257fe5b015481600160028110151561095357fe5b6020020181815250508091505092915050565b600081600401549050919050565b61014060405190810160405280600a905b60008019168152602001906001900390816109855790505090565b610640604051908101604052806032905b60008152602001906001900390816109b15790505090565b610660604051908101604052806033905b600073ffffffffffffffffffffffffffffffffffffffff168152602001906001900390816109da5790505090565b60408051908101604052806002905b6000815260200190600190039081610a1757905050905600a165627a7a72305820d08d58a0d2f4ddcd103ad92b9a7678af163ec426d2c8628d12a6b46cf556875a0029",
  "source": "pragma solidity 0.4.18;\n\n/**\n * @title Wallet Getter Library\n * @author Modular.network\n *\n * version 1.0.0\n * Copyright (c) 2017 Modular, LLC\n * The MIT License (MIT)\n * https://github.com/Modular-network/ethereum-libraries/blob/master/LICENSE\n *\n * The Wallet Library family is inspired by the multisig wallets built by Consensys\n * at https://github.com/ConsenSys/MultiSigWallet and Parity at\n * https://github.com/paritytech/contracts/blob/master/Wallet.sol with added\n * functionality. Modular works on open source projects in the Ethereum\n * community with the purpose of testing, documenting, and deploying reusable\n * code onto the blockchain to improve security and usability of smart contracts.\n * Modular also strives to educate non-profits, schools, and other community\n * members about the application of blockchain technology. For further\n * information: modular.network, consensys.net, paritytech.io\n *\n * THE SOFTWARE IS PROVIDED \"AS IS\", WITHOUT WARRANTY OF ANY KIND, EXPRESS\n * OR IMPLIED, INCLUDING BUT NOT LIMITED TO THE WARRANTIES OF\n * MERCHANTABILITY, FITNESS FOR A PARTICULAR PURPOSE AND NONINFRINGEMENT.\n * IN NO EVENT SHALL THE AUTHORS OR COPYRIGHT HOLDERS BE LIABLE FOR ANY\n * CLAIM, DAMAGES OR OTHER LIABILITY, WHETHER IN AN ACTION OF CONTRACT,\n * TORT OR OTHERWISE, ARISING FROM, OUT OF OR IN CONNECTION WITH THE\n * SOFTWARE OR THE USE OR OTHER DEALINGS IN THE SOFTWARE.\n */\n\nimport \"./WalletMainLib.sol\";\n\nlibrary WalletGetterLib {\n\n  /*Getter Functions*/\n\n  /// @dev Get list of wallet owners, will return fixed 50 until fork\n  /// @param self Wallet in contract storage\n  /// @return address[51] Returns entire 51 owner slots\n  function getOwners(WalletMainLib.WalletData storage self) public view returns (address[51]) {\n    address[51] memory o;\n    for(uint256 i = 0; i<self.owners.length; i++){\n      o[i] = self.owners[i];\n    }\n    return o;\n  }\n\n  /// @dev Get index of an owner\n  /// @param self Wallet in contract storage\n  /// @param _owner Address of owner\n  /// @return uint256 Index of the owner\n  function getOwnerIndex(WalletMainLib.WalletData storage self, address _owner) public view returns (uint256) {\n    return self.ownerIndex[_owner];\n  }\n\n  /// @dev Get max number of wallet owners\n  /// @param self Wallet in contract storage\n  /// @return uint256 Maximum number of owners\n  function getMaxOwners(WalletMainLib.WalletData storage self) public view returns (uint256) {\n    return self.maxOwners;\n  }\n\n  /// @dev Get number of wallet owners\n  /// @param self Wallet in contract storage\n  /// @return uint256 Number of owners\n  function getOwnerCount(WalletMainLib.WalletData storage self) public view returns (uint256) {\n    return self.owners.length - 1;\n  }\n\n  /// @dev Get sig requirements for administrative changes\n  /// @param self Wallet in contract storage\n  /// @return uint256 Number of sigs required\n  function getRequiredAdmin(WalletMainLib.WalletData storage self) public view returns (uint256) {\n    return self.requiredAdmin;\n  }\n\n  /// @dev Get sig requirements for minor tx spends\n  /// @param self Wallet in contract storage\n  /// @return uint256 Number of sigs required\n  function getRequiredMinor(WalletMainLib.WalletData storage self) public view returns (uint256) {\n    return self.requiredMinor;\n  }\n\n  /// @dev Get sig requirements for major tx spends\n  /// @param self Wallet in contract storage\n  /// @return uint256 Number of sigs required\n  function getRequiredMajor(WalletMainLib.WalletData storage self) public view returns (uint256) {\n    return self.requiredMajor;\n  }\n\n  /// @dev Get current day spend for token\n  /// @param self Wallet in contract storage\n  /// @param _token Address of token, 0 for ether\n  /// @return uint256[2] 0-index is day timestamp, 1-index is the day spend\n  function getCurrentSpend(WalletMainLib.WalletData storage self, address _token) public view returns (uint256[2]) {\n    uint256[2] memory cs;\n    cs[0] = self.currentSpend[_token][0];\n    cs[1] = self.currentSpend[_token][1];\n    return cs;\n  }\n\n  /// @dev Get major tx threshold per token\n  /// @param self Wallet in contract storage\n  /// @param _token Address of token, 0 for ether\n  /// @return uint256 Threshold amount\n  function getMajorThreshold(WalletMainLib.WalletData storage self, address _token) public view returns (uint256) {\n    return self.majorThreshold[_token];\n  }\n\n  /// @dev Get last 10 transactions for the day, fixed at 10 until fork\n  /// @param self Wallet in contract storage\n  /// @param _date Timestamp of day requested\n  /// @return bytes32[10] Last 10 tx's starting with latest\n  function getTransactions(WalletMainLib.WalletData storage self, uint256 _date) public view returns (bytes32[10]) {\n    bytes32[10] memory t;\n    uint256 li = self.transactions[_date].length - 1;\n    for(uint256 i = li; i >= 0; i--){\n      t[li - i] = self.transactions[_date][i];\n    }\n    return t;\n  }\n\n  /// @dev Get the number of tx's with the same id\n  /// @param self Wallet in contract storage\n  /// @param _id ID of transactions requested\n  /// @return uint256 Number of tx's with same ID\n  function getTransactionLength(WalletMainLib.WalletData storage self, bytes32 _id) public view returns (uint256) {\n    return self.transactionInfo[_id].length;\n  }\n\n  /// @dev Get list of confirmations for a tx, use getTransactionLength to get latest number\n  /// @param self Wallet in contract storage\n  /// @param _id ID of transaction requested\n  /// @param _txIndex The transaction index number\n  /// @return uint256[50] Returns list of confirmations, fixed at 50 until fork\n  function getTransactionConfirms(WalletMainLib.WalletData storage self,\n                                  bytes32 _id,\n                                  uint256 _txIndex)\n                                  public view returns (uint256[50])\n  {\n    uint256[50] memory tc;\n    for(uint256 i = 0; i<self.transactionInfo[_id][_txIndex].confirmedOwners.length; i++){\n      tc[i] = self.transactionInfo[_id][_txIndex].confirmedOwners[i];\n    }\n    return tc;\n  }\n\n  /// @dev Retrieve tx confirmation count\n  /// @param self Wallet in contract storage\n  /// @param _id ID of transaction requested\n  /// @param _txIndex The transaction index number\n  /// @return uint256 Returns the current number of tx confirmations\n  function getTransactionConfirmCount(WalletMainLib.WalletData storage self,\n                           bytes32 _id,\n                           uint256 _txIndex)\n                           public view returns(uint256)\n  {\n    return self.transactionInfo[_id][_txIndex].confirmCount;\n  }\n\n  /// @dev Retrieve if transaction was successful\n  /// @param self Wallet in contract storage\n  /// @param _id ID of transaction requested\n  /// @param _txIndex The transaction index number\n  /// @return bool Returns true if tx successfully executed, false otherwise\n  function getTransactionSuccess(WalletMainLib.WalletData storage self,\n                                 bytes32 _id,\n                                 uint256 _txIndex)\n                                 public view returns (bool)\n  {\n    return self.transactionInfo[_id][_txIndex].success;\n  }\n}\n",
  "sourcePath": "/Users/joshuahannan/repository/majoolr/ethereum-libraries/WalletLib/truffle/contracts/WalletGetterLib.sol",
  "compiler": {
    "name": "solc",
    "version": "0.4.18+commit.9cf6e910.Emscripten.clang"
  },
  "schemaVersion": "1.0.1",
  "updatedAt": "2017-12-07T15:31:51.002Z"
}