{
  "contractName": "Array256Lib",
  "abi": [
    {
      "constant": false,
      "inputs": [
        {
          "name": "self",
          "type": "uint256[] storage"
        }
      ],
      "name": "uniq",
      "outputs": [
        {
          "name": "length",
          "type": "uint256"
        }
      ],
      "payable": false,
      "stateMutability": "nonpayable",
      "type": "function"
    },
    {
      "constant": false,
      "inputs": [
        {
          "name": "self",
          "type": "uint256[] storage"
        }
      ],
      "name": "heapSort",
      "outputs": [],
      "payable": false,
      "stateMutability": "nonpayable",
      "type": "function"
    },
    {
      "constant": true,
      "inputs": [
        {
          "name": "self",
          "type": "uint256[] storage"
        },
        {
          "name": "value",
          "type": "uint256"
        },
        {
          "name": "isSorted",
          "type": "bool"
        }
      ],
      "name": "indexOf",
      "outputs": [
        {
          "name": "found",
          "type": "bool"
        },
        {
          "name": "index",
          "type": "uint256"
        }
      ],
      "payable": false,
      "stateMutability": "view",
      "type": "function"
    },
    {
      "constant": true,
      "inputs": [
        {
          "name": "self",
          "type": "uint256[] storage"
        }
      ],
      "name": "sumElements",
      "outputs": [
        {
          "name": "sum",
          "type": "uint256"
        }
      ],
      "payable": false,
      "stateMutability": "view",
      "type": "function"
    },
    {
      "constant": true,
      "inputs": [
        {
          "name": "self",
          "type": "uint256[] storage"
        }
      ],
      "name": "getMax",
      "outputs": [
        {
          "name": "maxValue",
          "type": "uint256"
        }
      ],
      "payable": false,
      "stateMutability": "view",
      "type": "function"
    },
    {
      "constant": true,
      "inputs": [
        {
          "name": "self",
          "type": "uint256[] storage"
        }
      ],
      "name": "getMin",
      "outputs": [
        {
          "name": "minValue",
          "type": "uint256"
        }
      ],
      "payable": false,
      "stateMutability": "view",
      "type": "function"
    }
  ],
  "bytecode": "0x6060604052341561000f57600080fd5b61085e8061001e6000396000f300606060405260043610610078576000357c0100000000000000000000000000000000000000000000000000000000900463ffffffff1680630780b7c51461007d578063303773f0146100a957806366c19bcd146100c15780639ff3faf01461010c578063e3f09bfd14610138578063e80423c814610164575b600080fd5b6100936004808035906020019091905050610190565b6040518082815260200191505060405180910390f35b6100bf6004808035906020019091905050610297565b005b6100eb600480803590602001909190803590602001909190803515159060200190919050506105f4565b60405180831515151581526020018281526020019250505060405180910390f35b61012260048080359060200190919050506106e3565b6040518082815260200191505060405180910390f35b61014e6004808035906020019091905050610712565b6040518082815260200191505060405180910390f35b61017a6004808035906020019091905050610760565b6040518082815260200191505060405180910390f35b60008060008060008091505b8580549050821015610287576101cd8687848154811015156101ba57fe5b90600052602060002090015460006105f4565b80945081955050508282111561027a578190505b600186805490500381101561023757856001820181548110151561020157fe5b906000526020600020900154868281548110151561021b57fe5b90600052602060002090018190555080806001019150506101e1565b85600187805490500381548110151561024c57fe5b9060005260206000209001600090558580548091906001900361026f91906107e1565b508180600190039250505b818060010192505061019c565b8580549050945050505050919050565b6000806000806000806000600188805490500396506102b5876107ae565b95508594505b60008610151561041f578594506102d1866107cc565b93505b86841115156104065760018401925084915087848154811015156102f457fe5b906000526020600020900154888381548110151561030e57fe5b9060005260206000209001541015610324578391505b8683111580156103655750878381548110151561033d57fe5b906000526020600020900154888381548110151561035757fe5b906000526020600020900154105b1561036e578291505b8482141561038157600187019350610401565b878281548110151561038f57fe5b906000526020600020900154905087858154811015156103ab57fe5b90600052602060002090015488838154811015156103c557fe5b9060005260206000209001819055508088868154811015156103e357fe5b9060005260206000209001819055508194506103fe856107cc565b93505b6102d4565b60008614156104145761041f565b6001860395506102bb565b5b60008711156105ea57878781548110151561043757fe5b906000526020600020900154905087600081548110151561045457fe5b906000526020600020900154888881548110151561046e57fe5b9060005260206000209001819055508088600081548110151561048d57fe5b906000526020600020900181905550600187039650600094506104b060006107cc565b93505b86841115156105e55760018401925084915087848154811015156104d357fe5b90600052602060002090015488838154811015156104ed57fe5b9060005260206000209001541015610503578391505b8683111580156105445750878381548110151561051c57fe5b906000526020600020900154888381548110151561053657fe5b906000526020600020900154105b1561054d578291505b84821415610560576001870193506105e0565b878281548110151561056e57fe5b9060005260206000209001549050878581548110151561058a57fe5b90600052602060002090015488838154811015156105a457fe5b9060005260206000209001819055508088868154811015156105c257fe5b9060005260206000209001819055508194506105dd856107cc565b93505b6104b3565b610420565b5050505050505050565b600080846060528260018114610611576000811461069d576106da565b60018654036000805b8281111515610695576002838201049150878260206060200154106001811461064a57600081146106555761068f565b60018301915061068f565b8883602060602001541160018114610674576000811461067f5761068d565b60018403945061068d565b600197508396506001850192505b505b5061061a565b5050506106da565b60005b86548110156106d85785816020606020015414600181146106c0576106cc565b60019450819350875491505b506001810190506106a0565b505b50935093915050565b60008160605260005b825481101561070c578181602060602001540191506001810190506106ec565b50919050565b600081606052602060602054905060005b825481101561075a5781816020606020015411600181146107435761074e565b816020606020015492505b50600181019050610723565b50919050565b600081606052602060602054905060005b82548110156107a85781816020606020015411600081146107915761079c565b816020606020015492505b50600181019050610771565b50919050565b6000806001830390506002818115156107c357fe5b04915050919050565b60008060028302905060018101915050919050565b81548183558181151161080857818360005260206000209182019101610807919061080d565b5b505050565b61082f91905b8082111561082b576000816000905550600101610813565b5090565b905600a165627a7a72305820f1d9114eee4f9a7046a8208807bf7bb0f86b97892c22b75f476e19da602c11590029",
  "source": "pragma solidity ^0.4.18;\n\n/**\n * @title Array256 Library\n * @author Majoolr.io\n *\n * version 1.1.0\n * Copyright (c) 2017 Majoolr, LLC\n * The MIT License (MIT)\n * https://github.com/Majoolr/ethereum-libraries/blob/master/LICENSE\n *\n * The Array256 Library provides a few utility functions to work with\n * storage uint256[] types in place. Majoolr provides smart contract services\n * and security reviews for contract deployments in addition to working on open\n * source projects in the Ethereum community. Our purpose is to test, document,\n * and deploy reusable code onto the blockchain and improve both security and\n * usability. We also educate non-profits, schools, and other community members\n * about the application of blockchain technology.\n * For further information: majoolr.io\n *\n * THE SOFTWARE IS PROVIDED \"AS IS\", WITHOUT WARRANTY OF ANY KIND, EXPRESS\n * OR IMPLIED, INCLUDING BUT NOT LIMITED TO THE WARRANTIES OF\n * MERCHANTABILITY, FITNESS FOR A PARTICULAR PURPOSE AND NONINFRINGEMENT.\n * IN NO EVENT SHALL THE AUTHORS OR COPYRIGHT HOLDERS BE LIABLE FOR ANY\n * CLAIM, DAMAGES OR OTHER LIABILITY, WHETHER IN AN ACTION OF CONTRACT,\n * TORT OR OTHERWISE, ARISING FROM, OUT OF OR IN CONNECTION WITH THE\n * SOFTWARE OR THE USE OR OTHER DEALINGS IN THE SOFTWARE.\n */\n\nlibrary Array256Lib {\n\n  /// @dev Sum vector\n  /// @param self Storage array containing uint256 type variables\n  /// @return sum The sum of all elements, does not check for overflow\n  function sumElements(uint256[] storage self) public view returns(uint256 sum) {\n    assembly {\n      mstore(0x60,self_slot)\n\n      for { let i := 0 } lt(i, sload(self_slot)) { i := add(i, 1) } {\n        sum := add(sload(add(sha3(0x60,0x20),i)),sum)\n      }\n    }\n  }\n\n  /// @dev Returns the max value in an array.\n  /// @param self Storage array containing uint256 type variables\n  /// @return maxValue The highest value in the array\n  function getMax(uint256[] storage self) public view returns(uint256 maxValue) {\n    assembly {\n      mstore(0x60,self_slot)\n      maxValue := sload(sha3(0x60,0x20))\n\n      for { let i := 0 } lt(i, sload(self_slot)) { i := add(i, 1) } {\n        switch gt(sload(add(sha3(0x60,0x20),i)), maxValue)\n        case 1 {\n          maxValue := sload(add(sha3(0x60,0x20),i))\n        }\n      }\n    }\n  }\n\n  /// @dev Returns the minimum value in an array.\n  /// @param self Storage array containing uint256 type variables\n  /// @return minValue The highest value in the array\n  function getMin(uint256[] storage self) public view returns(uint256 minValue) {\n    assembly {\n      mstore(0x60,self_slot)\n      minValue := sload(sha3(0x60,0x20))\n\n      for { let i := 0 } lt(i, sload(self_slot)) { i := add(i, 1) } {\n        switch gt(sload(add(sha3(0x60,0x20),i)), minValue)\n        case 0 {\n          minValue := sload(add(sha3(0x60,0x20),i))\n        }\n      }\n    }\n  }\n\n  /// @dev Finds the index of a given value in an array\n  /// @param self Storage array containing uint256 type variables\n  /// @param value The value to search for\n  /// @param isSorted True if the array is sorted, false otherwise\n  /// @return found True if the value was found, false otherwise\n  /// @return index The index of the given value, returns 0 if found is false\n  function indexOf(uint256[] storage self, uint256 value, bool isSorted)\n           public\n           view\n           returns(bool found, uint256 index) {\n    assembly{\n      mstore(0x60,self_slot)\n      switch isSorted\n      case 1 {\n        let high := sub(sload(self_slot),1)\n        let mid := 0\n        let low := 0\n        for { } iszero(gt(low, high)) { } {\n          mid := div(add(low,high),2)\n\n          switch lt(sload(add(sha3(0x60,0x20),mid)),value)\n          case 1 {\n             low := add(mid,1)\n          }\n          case 0 {\n            switch gt(sload(add(sha3(0x60,0x20),mid)),value)\n            case 1 {\n              high := sub(mid,1)\n            }\n            case 0 {\n              found := 1\n              index := mid\n              low := add(high,1)\n            }\n          }\n        }\n      }\n      case 0 {\n        for { let low := 0 } lt(low, sload(self_slot)) { low := add(low, 1) } {\n          switch eq(sload(add(sha3(0x60,0x20),low)), value)\n          case 1 {\n            found := 1\n            index := low\n            low := sload(self_slot)\n          }\n        }\n      }\n    }\n  }\n\n  /// @dev Utility function for heapSort\n  /// @param index The index of child node\n  /// @return pI The parent node index\n  function getParentI(uint256 index) private pure returns (uint256 pI) {\n    uint256 i = index - 1;\n    pI = i/2;\n  }\n\n  /// @dev Utility function for heapSort\n  /// @param index The index of parent node\n  /// @return lcI The index of left child\n  function getLeftChildI(uint256 index) private pure returns (uint256 lcI) {\n    uint256 i = index * 2;\n    lcI = i + 1;\n  }\n\n  /// @dev Sorts given array in place\n  /// @param self Storage array containing uint256 type variables\n  function heapSort(uint256[] storage self) public {\n    uint256 end = self.length - 1;\n    uint256 start = getParentI(end);\n    uint256 root = start;\n    uint256 lChild;\n    uint256 rChild;\n    uint256 swap;\n    uint256 temp;\n    while(start >= 0){\n      root = start;\n      lChild = getLeftChildI(start);\n      while(lChild <= end){\n        rChild = lChild + 1;\n        swap = root;\n        if(self[swap] < self[lChild])\n          swap = lChild;\n        if((rChild <= end) && (self[swap]<self[rChild]))\n          swap = rChild;\n        if(swap == root)\n          lChild = end+1;\n        else {\n          temp = self[swap];\n          self[swap] = self[root];\n          self[root] = temp;\n          root = swap;\n          lChild = getLeftChildI(root);\n        }\n      }\n      if(start == 0)\n        break;\n      else\n        start = start - 1;\n    }\n    while(end > 0){\n      temp = self[end];\n      self[end] = self[0];\n      self[0] = temp;\n      end = end - 1;\n      root = 0;\n      lChild = getLeftChildI(0);\n      while(lChild <= end){\n        rChild = lChild + 1;\n        swap = root;\n        if(self[swap] < self[lChild])\n          swap = lChild;\n        if((rChild <= end) && (self[swap]<self[rChild]))\n          swap = rChild;\n        if(swap == root)\n          lChild = end + 1;\n        else {\n          temp = self[swap];\n          self[swap] = self[root];\n          self[root] = temp;\n          root = swap;\n          lChild = getLeftChildI(root);\n        }\n      }\n    }\n  }\n\n  /// @dev Removes duplicates from a given array.\n  /// @param self Storage array containing uint256 type variables\n  function uniq(uint256[] storage self) public returns (uint256 length) {\n    bool contains;\n    uint256 index;\n\n    for (uint256 i = 0; i < self.length; i++) {\n      (contains, index) = indexOf(self, self[i], false);\n\n      if (i > index) {\n        for (uint256 j = i; j < self.length - 1; j++){\n          self[j] = self[j + 1];\n        }\n\n        delete self[self.length - 1];\n        self.length--;\n        i--;\n      }\n    }\n\n    length = self.length;\n  }\n}\n",
  "sourcePath": "/Users/hackdom/Projects/ethereum-libraries/CrowdsaleLib/EvenDistroCrowdsale/truffle/contracts/Array256Lib.sol",
  "compiler": {
    "name": "solc",
    "version": "0.4.18+commit.9cf6e910.Emscripten.clang"
  },
  "schemaVersion": "1.0.1",
  "updatedAt": "2017-12-11T00:49:13.210Z"
}