{
  "contractName": "CrowdsaleLib",
  "abi": [
    {
      "constant": true,
      "inputs": [
        {
          "name": "self",
          "type": "CrowdsaleLib.CrowdsaleStorage storage"
        }
      ],
      "name": "crowdsaleEnded",
      "outputs": [
        {
          "name": "",
          "type": "bool"
        }
      ],
      "payable": false,
      "stateMutability": "view",
      "type": "function"
    },
    {
      "constant": false,
      "inputs": [
        {
          "name": "self",
          "type": "CrowdsaleLib.CrowdsaleStorage storage"
        },
        {
          "name": "_exchangeRate",
          "type": "uint256"
        }
      ],
      "name": "setTokenExchangeRate",
      "outputs": [
        {
          "name": "",
          "type": "bool"
        }
      ],
      "payable": false,
      "stateMutability": "nonpayable",
      "type": "function"
    },
    {
      "constant": true,
      "inputs": [
        {
          "name": "self",
          "type": "CrowdsaleLib.CrowdsaleStorage storage"
        }
      ],
      "name": "getTokensSold",
      "outputs": [
        {
          "name": "",
          "type": "uint256"
        }
      ],
      "payable": false,
      "stateMutability": "view",
      "type": "function"
    },
    {
      "constant": false,
      "inputs": [
        {
          "name": "self",
          "type": "CrowdsaleLib.CrowdsaleStorage storage"
        }
      ],
      "name": "setTokens",
      "outputs": [
        {
          "name": "",
          "type": "bool"
        }
      ],
      "payable": false,
      "stateMutability": "nonpayable",
      "type": "function"
    },
    {
      "constant": true,
      "inputs": [
        {
          "name": "self",
          "type": "CrowdsaleLib.CrowdsaleStorage storage"
        }
      ],
      "name": "crowdsaleActive",
      "outputs": [
        {
          "name": "",
          "type": "bool"
        }
      ],
      "payable": false,
      "stateMutability": "view",
      "type": "function"
    },
    {
      "constant": false,
      "inputs": [
        {
          "name": "self",
          "type": "CrowdsaleLib.CrowdsaleStorage storage"
        }
      ],
      "name": "withdrawTokens",
      "outputs": [
        {
          "name": "",
          "type": "bool"
        }
      ],
      "payable": false,
      "stateMutability": "nonpayable",
      "type": "function"
    },
    {
      "constant": false,
      "inputs": [
        {
          "name": "self",
          "type": "CrowdsaleLib.CrowdsaleStorage storage"
        }
      ],
      "name": "withdrawLeftoverWei",
      "outputs": [
        {
          "name": "",
          "type": "bool"
        }
      ],
      "payable": false,
      "stateMutability": "nonpayable",
      "type": "function"
    },
    {
      "constant": false,
      "inputs": [
        {
          "name": "self",
          "type": "CrowdsaleLib.CrowdsaleStorage storage"
        },
        {
          "name": "_owner",
          "type": "address"
        },
        {
          "name": "_saleData",
          "type": "uint256[]"
        },
        {
          "name": "_fallbackExchangeRate",
          "type": "uint256"
        },
        {
          "name": "_capAmountInCents",
          "type": "uint256"
        },
        {
          "name": "_endTime",
          "type": "uint256"
        },
        {
          "name": "_percentBurn",
          "type": "uint8"
        },
        {
          "name": "_token",
          "type": "CrowdsaleToken"
        }
      ],
      "name": "init",
      "outputs": [],
      "payable": false,
      "stateMutability": "nonpayable",
      "type": "function"
    },
    {
      "constant": false,
      "inputs": [
        {
          "name": "self",
          "type": "CrowdsaleLib.CrowdsaleStorage storage"
        }
      ],
      "name": "withdrawOwnerEth",
      "outputs": [
        {
          "name": "",
          "type": "bool"
        }
      ],
      "payable": false,
      "stateMutability": "nonpayable",
      "type": "function"
    },
    {
      "constant": true,
      "inputs": [
        {
          "name": "self",
          "type": "CrowdsaleLib.CrowdsaleStorage storage"
        },
        {
          "name": "timestamp",
          "type": "uint256"
        }
      ],
      "name": "getSaleData",
      "outputs": [
        {
          "name": "",
          "type": "uint256[3]"
        }
      ],
      "payable": false,
      "stateMutability": "view",
      "type": "function"
    },
    {
      "anonymous": false,
      "inputs": [
        {
          "indexed": true,
          "name": "_bidder",
          "type": "address"
        },
        {
          "indexed": false,
          "name": "Amount",
          "type": "uint256"
        }
      ],
      "name": "LogTokensWithdrawn",
      "type": "event"
    },
    {
      "anonymous": false,
      "inputs": [
        {
          "indexed": true,
          "name": "_bidder",
          "type": "address"
        },
        {
          "indexed": false,
          "name": "Amount",
          "type": "uint256"
        }
      ],
      "name": "LogWeiWithdrawn",
      "type": "event"
    },
    {
      "anonymous": false,
      "inputs": [
        {
          "indexed": true,
          "name": "owner",
          "type": "address"
        },
        {
          "indexed": false,
          "name": "amount",
          "type": "uint256"
        },
        {
          "indexed": false,
          "name": "Msg",
          "type": "string"
        }
      ],
      "name": "LogOwnerEthWithdrawn",
      "type": "event"
    },
    {
      "anonymous": false,
      "inputs": [
        {
          "indexed": false,
          "name": "_buyer",
          "type": "address"
        },
        {
          "indexed": false,
          "name": "value",
          "type": "uint256"
        },
        {
          "indexed": false,
          "name": "Msg",
          "type": "string"
        }
      ],
      "name": "LogNoticeMsg",
      "type": "event"
    },
    {
      "anonymous": false,
      "inputs": [
        {
          "indexed": false,
          "name": "amount",
          "type": "uint256"
        },
        {
          "indexed": false,
          "name": "Msg",
          "type": "string"
        }
      ],
      "name": "LogErrorMsg",
      "type": "event"
    }
  ],
  "bytecode": "0x6060604052341561000f57600080fd5b611c7e8061001e6000396000f3006060604052600436106100a4576000357c0100000000000000000000000000000000000000000000000000000000900463ffffffff16806310bc04e7146100a957806314f1d11b146100d957806319c5f76b146101125780633617dbba1461013e5780636eee0e921461016e578063b5d881631461019e578063d06f9a5e146101ce578063d11bd57f146101fe578063d34e3274146102bb578063d7bc0959146102eb575b600080fd5b6100bf6004808035906020019091905050610348565b604051808215151515815260200191505060405180910390f35b6100f86004808035906020019091908035906020019091905050610358565b604051808215151515815260200191505060405180910390f35b6101286004808035906020019091905050610734565b6040518082815260200191505060405180910390f35b61015460048080359060200190919050506107a9565b604051808215151515815260200191505060405180910390f35b61018460048080359060200190919050506109b8565b604051808215151515815260200191505060405180910390f35b6101b460048080359060200190919050506109d9565b604051808215151515815260200191505060405180910390f35b6101e46004808035906020019091905050610f80565b604051808215151515815260200191505060405180910390f35b6102b9600480803590602001909190803573ffffffffffffffffffffffffffffffffffffffff169060200190919080359060200190820180359060200190808060200260200160405190810160405280939291908181526020018383602002808284378201915050505050509190803590602001909190803590602001909190803590602001909190803560ff1690602001909190803573ffffffffffffffffffffffffffffffffffffffff16906020019091905050611191565b005b6102d16004808035906020019091905050611651565b604051808215151515815260200191505060405180910390f35b61030a600480803590602001909190803590602001909190505061198e565b6040518082600360200280838360005b8381101561033557808201518184015260208101905061031a565b5050505090500191505060405180910390f35b6000816004015442119050919050565b60008060008460000160009054906101000a900473ffffffffffffffffffffffffffffffffffffffff1673ffffffffffffffffffffffffffffffffffffffff163373ffffffffffffffffffffffffffffffffffffffff161415156103bb57600080fd5b6203f480856003015403421180156103d65750846003015442105b15156103e157600080fd5b8460090160049054906101000a900460ff161515156103ff57600080fd5b600085600e0160009054906101000a900473ffffffffffffffffffffffffffffffffffffffff1673ffffffffffffffffffffffffffffffffffffffff166370a08231306000604051602001526040518263ffffffff167c0100000000000000000000000000000000000000000000000000000000028152600401808273ffffffffffffffffffffffffffffffffffffffff1673ffffffffffffffffffffffffffffffffffffffff168152602001915050602060405180830381600087803b15156104c857600080fd5b6102c65a03f115156104d957600080fd5b505050604051805190501115156104ef57600080fd5b6000841115156104fe57600080fd5b846005015473__BasicMathLib__________________________631d3b9edf909187600201546000604051604001526040518363ffffffff167c01000000000000000000000000000000000000000000000000000000000281526004018083815260200182815260200192505050604080518083038186803b151561058257600080fd5b6102c65a03f4151561059357600080fd5b505050604051805190602001805190508093508192505050801515156105b857600080fd5b838560050181905550600184838115156105ce57fe5b040185600201819055506106238586600a0160008860080160008154811015156105f457fe5b9060005260206000209001548152602001908152602001600020600060028110151561061c57fe5b0154611ad9565b5060018560090160046101000a81548160ff02191690831515021790555061064a856107a9565b1590508015151561065a57600080fd5b7f567990ae41a073da2ab5d99943460204347712a2ce40df6e9f06dd451c20700c338660010154604051808373ffffffffffffffffffffffffffffffffffffffff1673ffffffffffffffffffffffffffffffffffffffff168152602001828152602001806020018281038252603a8152602001807f4f776e65722068617320736574207468652065786368616e676520526174652081526020017f616e6420746f6b656e7320626f75676874207065722045544821000000000000815250604001935050505060405180910390a160019250505092915050565b600081600c0160008360000160009054906101000a900473ffffffffffffffffffffffffffffffffffffffff1673ffffffffffffffffffffffffffffffffffffffff1673ffffffffffffffffffffffffffffffffffffffff168152602001908152602001600020548260070154039050919050565b6000808260000160009054906101000a900473ffffffffffffffffffffffffffffffffffffffff1673ffffffffffffffffffffffffffffffffffffffff163373ffffffffffffffffffffffffffffffffffffffff16148061083557503073ffffffffffffffffffffffffffffffffffffffff163373ffffffffffffffffffffffffffffffffffffffff16145b151561084057600080fd5b8260090160039054906101000a900460ff1615151561085e57600080fd5b82600e0160009054906101000a900473ffffffffffffffffffffffffffffffffffffffff1673ffffffffffffffffffffffffffffffffffffffff166370a08231306000604051602001526040518263ffffffff167c0100000000000000000000000000000000000000000000000000000000028152600401808273ffffffffffffffffffffffffffffffffffffffff1673ffffffffffffffffffffffffffffffffffffffff168152602001915050602060405180830381600087803b151561092557600080fd5b6102c65a03f1151561093657600080fd5b5050506040518051905090508083600c0160003373ffffffffffffffffffffffffffffffffffffffff1673ffffffffffffffffffffffffffffffffffffffff1681526020019081526020016000208190555080836007018190555060018360090160036101000a81548160ff0219169083151502179055506001915050919050565b6000816003015442101580156109d2575081600401544211155b9050919050565b600080600080600085600c0160003373ffffffffffffffffffffffffffffffffffffffff1673ffffffffffffffffffffffffffffffffffffffff168152602001908152602001600020541415610ac9577f8756f3e78da606244d7d8c9563ce2678f294db7c57afce515849e03d5eec6c3a60006040518082815260200180602001828103825260218152602001807f53656e64657220686173206e6f20746f6b656e7320746f20776974686472617781526020017f21000000000000000000000000000000000000000000000000000000000000008152506040019250505060405180910390a160009350610f78565b8460000160009054906101000a900473ffffffffffffffffffffffffffffffffffffffff1673ffffffffffffffffffffffffffffffffffffffff163373ffffffffffffffffffffffffffffffffffffffff161415610da257610b2a85610348565b1515610bd0577f8756f3e78da606244d7d8c9563ce2678f294db7c57afce515849e03d5eec6c3a60006040518082815260200180602001828103825260388152602001807f4f776e65722063616e6e6f7420776974686472617720657874726120746f6b6581526020017f6e7320756e74696c206166746572207468652073616c652100000000000000008152506040019250505060405180910390a160009350610f78565b60008560090160029054906101000a900460ff1660ff161115610da15760648560090160029054906101000a900460ff1660ff1686600c0160003373ffffffffffffffffffffffffffffffffffffffff1673ffffffffffffffffffffffffffffffffffffffff1681526020019081526020016000205402811515610c5057fe5b0491508185600c0160003373ffffffffffffffffffffffffffffffffffffffff1673ffffffffffffffffffffffffffffffffffffffff168152602001908152602001600020540385600c0160003373ffffffffffffffffffffffffffffffffffffffff1673ffffffffffffffffffffffffffffffffffffffff1681526020019081526020016000208190555084600e0160009054906101000a900473ffffffffffffffffffffffffffffffffffffffff1673ffffffffffffffffffffffffffffffffffffffff16637b47ec1a836000604051602001526040518263ffffffff167c010000000000000000000000000000000000000000000000000000000002815260040180828152602001915050602060405180830381600087803b1515610d7757600080fd5b6102c65a03f11515610d8857600080fd5b505050604051805190509250821515610da057600080fd5b5b5b84600c0160003373ffffffffffffffffffffffffffffffffffffffff1673ffffffffffffffffffffffffffffffffffffffff168152602001908152602001600020549050600085600c0160003373ffffffffffffffffffffffffffffffffffffffff1673ffffffffffffffffffffffffffffffffffffffff1681526020019081526020016000208190555084600e0160009054906101000a900473ffffffffffffffffffffffffffffffffffffffff1673ffffffffffffffffffffffffffffffffffffffff1663a9059cbb33836000604051602001526040518363ffffffff167c0100000000000000000000000000000000000000000000000000000000028152600401808373ffffffffffffffffffffffffffffffffffffffff1673ffffffffffffffffffffffffffffffffffffffff16815260200182815260200192505050602060405180830381600087803b1515610efc57600080fd5b6102c65a03f11515610f0d57600080fd5b505050604051805190509250821515610f2557600080fd5b3373ffffffffffffffffffffffffffffffffffffffff167fac0f38657cc8741669b8ba861fe5e6e18a4256a26ce4963b7b74a0f8739fdc6f826040518082815260200191505060405180910390a2600193505b505050919050565b600080600083600d0160003373ffffffffffffffffffffffffffffffffffffffff1673ffffffffffffffffffffffffffffffffffffffff16815260200190815260200160002054141561106d577f8756f3e78da606244d7d8c9563ce2678f294db7c57afce515849e03d5eec6c3a60006040518082815260200180602001828103825260248152602001807f53656e64657220686173206e6f2065787472612077656920746f20776974686481526020017f72617721000000000000000000000000000000000000000000000000000000008152506040019250505060405180910390a16000915061118b565b82600d0160003373ffffffffffffffffffffffffffffffffffffffff1673ffffffffffffffffffffffffffffffffffffffff168152602001908152602001600020549050600083600d0160003373ffffffffffffffffffffffffffffffffffffffff1673ffffffffffffffffffffffffffffffffffffffff168152602001908152602001600020819055503373ffffffffffffffffffffffffffffffffffffffff166108fc829081150290604051600060405180830381858888f19350505050151561113857600080fd5b3373ffffffffffffffffffffffffffffffffffffffff167f3531f0ded8ff844beb165a1eeff617d161ea9381dee34a2695d33ea8412d66cd826040518082815260200191505060405180910390a2600191505b50919050565b60008060008a600201541415156111a757600080fd5b60008a60000160009054906101000a900473ffffffffffffffffffffffffffffffffffffffff1673ffffffffffffffffffffffffffffffffffffffff161415156111f057600080fd5b6000885111151561120057600080fd5b60006003895181151561120f57fe5b0614151561121c57600080fd5b611c20420188600081518110151561123057fe5b9060200190602002015111151561124657600080fd5b87600081518110151561125557fe5b906020019060200201518511151561126c57600080fd5b60008611151561127b57600080fd5b60008973ffffffffffffffffffffffffffffffffffffffff161115156112a057600080fd5b6000871115156112af57600080fd5b60648460ff16111515156112c257600080fd5b888a60000160006101000a81548173ffffffffffffffffffffffffffffffffffffffff021916908373ffffffffffffffffffffffffffffffffffffffff160217905550670de0b6b3a76400006001888881151561131b57fe5b0401028a6002018190555087600081518110151561133557fe5b906020019060200201518a60030181905550848a60040181905550828a600e0160006101000a81548173ffffffffffffffffffffffffffffffffffffffff021916908373ffffffffffffffffffffffffffffffffffffffff1602179055508273ffffffffffffffffffffffffffffffffffffffff1663313ce5676000604051602001526040518163ffffffff167c0100000000000000000000000000000000000000000000000000000000028152600401602060405180830381600087803b15156113ff57600080fd5b6102c65a03f1151561141057600080fd5b505050604051805190508a60090160016101000a81548160ff021916908360ff160217905550838a60090160026101000a81548160ff021916908360ff160217905550868a60050181905550600090505b87518110156116225781888281518110151561147957fe5b9060200190602002015111151561148f57600080fd5b600088600183018151811015156114a257fe5b906020019060200201511115156114b857600080fd5b600088600283018151811015156114cb57fe5b9060200190602002015114806114fc5750606488600283018151811015156114ef57fe5b9060200190602002015110155b151561150757600080fd5b89600801805480600101828161151d9190611bd9565b916000526020600020900160008a8481518110151561153857fe5b9060200190602002015190919091505550876001820181518110151561155a57fe5b906020019060200201518a600a0160008a8481518110151561157857fe5b906020019060200201518152602001908152602001600020600060028110151561159e57fe5b018190555087600282018151811015156115b457fe5b906020019060200201518a600a0160008a848151811015156115d257fe5b90602001906020020151815260200190815260200160002060016002811015156115f857fe5b0181905550878181518110151561160b57fe5b906020019060200201519150600381019050611461565b6116448a89600181518110151561163557fe5b90602001906020020151611ad9565b5050505050505050505050565b60008061165d83610348565b15801561174b5750600083600e0160009054906101000a900473ffffffffffffffffffffffffffffffffffffffff1673ffffffffffffffffffffffffffffffffffffffff166370a08231306000604051602001526040518263ffffffff167c0100000000000000000000000000000000000000000000000000000000028152600401808273ffffffffffffffffffffffffffffffffffffffff1673ffffffffffffffffffffffffffffffffffffffff168152602001915050602060405180830381600087803b151561172e57600080fd5b6102c65a03f1151561173f57600080fd5b50505060405180519050115b156117f0577f8756f3e78da606244d7d8c9563ce2678f294db7c57afce515849e03d5eec6c3a60006040518082815260200180602001828103825260318152602001807f43616e6e6f74207769746864726177206f776e657220657468657220756e746981526020017f6c206166746572207468652073616c65210000000000000000000000000000008152506040019250505060405180910390a160009150611988565b8260000160009054906101000a900473ffffffffffffffffffffffffffffffffffffffff1673ffffffffffffffffffffffffffffffffffffffff163373ffffffffffffffffffffffffffffffffffffffff1614151561184e57600080fd5b6000836006015411151561186157600080fd5b82600601549050600083600601819055508260000160009054906101000a900473ffffffffffffffffffffffffffffffffffffffff1673ffffffffffffffffffffffffffffffffffffffff166108fc829081150290604051600060405180830381858888f1935050505015156118d657600080fd5b3373ffffffffffffffffffffffffffffffffffffffff167f4159712a53cf7d5c014b7f7bccd52ce07122696797310c76d6d4273f0bda9e99826040518082815260200180602001828103825260288152602001807f43726f776473616c65206f776e6572206861732077697468647261776e20616c81526020017f6c2066756e6473210000000000000000000000000000000000000000000000008152506040019250505060405180910390a2600191505b50919050565b611996611c05565b61199e611c05565b60005b8460080180549050811080156119d257508385600801828154811015156119c457fe5b906000526020600020900154105b156119e45780806001019150506119a1565b60008114156119f65780806001019150505b8460080160018203815481101515611a0a57fe5b906000526020600020900154826000600381101515611a2557fe5b60200201818152505084600a016000836000600381101515611a4357fe5b602002015181526020019081526020016000206000600281101515611a6457fe5b0154826001600381101515611a7557fe5b60200201818152505084600a016000836000600381101515611a9357fe5b602002015181526020019081526020016000206001600281101515611ab457fe5b0154826002600381101515611ac557fe5b602002018181525050819250505092915050565b60008060008084111515611aec57600080fd5b846005015473__BasicMathLib__________________________631d3b9edf90918760090160019054906101000a900460ff1660ff16600a0a6000604051604001526040518363ffffffff167c01000000000000000000000000000000000000000000000000000000000281526004018083815260200182815260200192505050604080518083038186803b1515611b8357600080fd5b6102c65a03f41515611b9457600080fd5b50505060405180519060200180519050809250819350505081151515611bb957600080fd5b8381811515611bc457fe5b04856001018190555060019250505092915050565b815481835581811511611c0057818360005260206000209182019101611bff9190611c2d565b5b505050565b6060604051908101604052806003905b6000815260200190600190039081611c155790505090565b611c4f91905b80821115611c4b576000816000905550600101611c33565b5090565b905600a165627a7a7230582065a444fd7221af6fb237d6275d742b285d75d88a288756f1eabafbf401176be00029",
  "source": "pragma solidity ^0.4.18;\n\n/**\n * @title CrowdsaleLib\n * @author Majoolr.io\n *\n * version 2.1.1\n * Copyright (c) 2017 Majoolr, LLC\n * The MIT License (MIT)\n * https://github.com/Majoolr/ethereum-libraries/blob/master/LICENSE\n *\n * The Crowdsale Library provides basic functionality to create an initial coin\n * offering for different types of token sales.\n *\n * Majoolr provides smart contract services and security reviews for contract\n * deployments in addition to working on open source projects in the Ethereum\n * community. Our purpose is to test, document, and deploy reusable code onto the\n * blockchain and improve both security and usability. We also educate non-profits,\n * schools, and other community members about the application of blockchain\n * technology. For further information: majoolr.io\n *\n * THE SOFTWARE IS PROVIDED \"AS IS\", WITHOUT WARRANTY OF ANY KIND, EXPRESS\n * OR IMPLIED, INCLUDING BUT NOT LIMITED TO THE WARRANTIES OF\n * MERCHANTABILITY, FITNESS FOR A PARTICULAR PURPOSE AND NONINFRINGEMENT.\n * IN NO EVENT SHALL THE AUTHORS OR COPYRIGHT HOLDERS BE LIABLE FOR ANY\n * CLAIM, DAMAGES OR OTHER LIABILITY, WHETHER IN AN ACTION OF CONTRACT,\n * TORT OR OTHERWISE, ARISING FROM, OUT OF OR IN CONNECTION WITH THE\n * SOFTWARE OR THE USE OR OTHER DEALINGS IN THE SOFTWARE.\n */\n\nimport \"./BasicMathLib.sol\";\nimport \"./TokenLib.sol\";\nimport \"./CrowdsaleToken.sol\";\n\nlibrary CrowdsaleLib {\n  using BasicMathLib for uint256;\n\n  struct CrowdsaleStorage {\n  \taddress owner;     //owner of the crowdsale\n\n  \tuint256 tokensPerEth;  //number of tokens received per ether\n  \tuint256 capAmount; //Maximum amount to be raised in wei\n  \tuint256 startTime; //ICO start time, timestamp\n  \tuint256 endTime; //ICO end time, timestamp automatically calculated\n    uint256 exchangeRate; //cents/ETH exchange rate at the time of the sale\n    uint256 ownerBalance; //owner wei Balance\n    uint256 startingTokenBalance; //initial amount of tokens for sale\n    uint256[] milestoneTimes; //Array of timestamps when token price and address cap changes\n    uint8 currentMilestone; //Pointer to the current milestone\n    uint8 tokenDecimals; //stored token decimals for calculation later\n    uint8 percentBurn; //percentage of extra tokens to burn\n    bool tokensSet; //true if tokens have been prepared for crowdsale\n    bool rateSet; //true if exchange rate has been set\n\n    //Maps timestamp to token price and address purchase cap starting at that time\n    mapping (uint256 => uint256[2]) saleData;\n\n    //shows how much wei an address has contributed\n  \tmapping (address => uint256) hasContributed;\n\n    //For token withdraw function, maps a user address to the amount of tokens they can withdraw\n  \tmapping (address => uint256) withdrawTokensMap;\n\n    // any leftover wei that buyers contributed that didn't add up to a whole token amount\n    mapping (address => uint256) leftoverWei;\n\n  \tCrowdsaleToken token; //token being sold\n  }\n\n  // Indicates when an address has withdrawn their supply of tokens\n  event LogTokensWithdrawn(address indexed _bidder, uint256 Amount);\n\n  // Indicates when an address has withdrawn their supply of extra wei\n  event LogWeiWithdrawn(address indexed _bidder, uint256 Amount);\n\n  // Logs when owner has pulled eth\n  event LogOwnerEthWithdrawn(address indexed owner, uint256 amount, string Msg);\n\n  // Generic Notice message that includes and address and number\n  event LogNoticeMsg(address _buyer, uint256 value, string Msg);\n\n  // Indicates when an error has occurred in the execution of a function\n  event LogErrorMsg(uint256 amount, string Msg);\n\n  /// @dev Called by a crowdsale contract upon creation.\n  /// @param self Stored crowdsale from crowdsale contract\n  /// @param _owner Address of crowdsale owner\n  /// @param _saleData Array of 3 item sets such that, in each 3 element\n  /// set, 1 is timestamp, 2 is price in cents at that time,\n  /// 3 is address token purchase cap at that time, 0 if no address cap\n  /// @param _fallbackExchangeRate Exchange rate of cents/ETH\n  /// @param _capAmountInCents Total to be raised in cents\n  /// @param _endTime Timestamp of sale end time\n  /// @param _percentBurn Percentage of extra tokens to burn\n  /// @param _token Token being sold\n  function init(CrowdsaleStorage storage self,\n                address _owner,\n                uint256[] _saleData,\n                uint256 _fallbackExchangeRate,\n                uint256 _capAmountInCents,\n                uint256 _endTime,\n                uint8 _percentBurn,\n                CrowdsaleToken _token)\n                public\n  {\n  \trequire(self.capAmount == 0);\n  \trequire(self.owner == 0);\n    require(_saleData.length > 0);\n    require((_saleData.length%3) == 0); // ensure saleData is 3-item sets\n    require(_saleData[0] > (now + 2 hours));\n    require(_endTime > _saleData[0]);\n    require(_capAmountInCents > 0);\n    require(_owner > 0);\n    require(_fallbackExchangeRate > 0);\n    require(_percentBurn <= 100);\n    self.owner = _owner;\n    self.capAmount = ((_capAmountInCents/_fallbackExchangeRate) + 1)*(10**18);\n    self.startTime = _saleData[0];\n    self.endTime = _endTime;\n    self.token = _token;\n    self.tokenDecimals = _token.decimals();\n    self.percentBurn = _percentBurn;\n    self.exchangeRate = _fallbackExchangeRate;\n\n    uint256 _tempTime;\n    for(uint256 i = 0; i < _saleData.length; i += 3){\n      require(_saleData[i] > _tempTime);\n      require(_saleData[i + 1] > 0);\n      require((_saleData[i + 2] == 0) || (_saleData[i + 2] >= 100));\n      self.milestoneTimes.push(_saleData[i]);\n      self.saleData[_saleData[i]][0] = _saleData[i + 1];\n      self.saleData[_saleData[i]][1] = _saleData[i + 2];\n      _tempTime = _saleData[i];\n    }\n    changeTokenPrice(self, _saleData[1]);\n  }\n\n  /// @dev function to check if the crowdsale is currently active\n  /// @param self Stored crowdsale from crowdsale contract\n  /// @return success\n  function crowdsaleActive(CrowdsaleStorage storage self) public view returns (bool) {\n  \treturn (now >= self.startTime && now <= self.endTime);\n  }\n\n  /// @dev function to check if the crowdsale has ended\n  /// @param self Stored crowdsale from crowdsale contract\n  /// @return success\n  function crowdsaleEnded(CrowdsaleStorage storage self) public view returns (bool) {\n  \treturn now > self.endTime;\n  }\n\n  /// @dev function to check if a purchase is valid\n  /// @param self Stored crowdsale from crowdsale contract\n  /// @return true if the transaction can buy tokens\n  function validPurchase(CrowdsaleStorage storage self) internal returns (bool) {\n    bool nonZeroPurchase = msg.value != 0;\n    if (crowdsaleActive(self) && nonZeroPurchase) {\n      return true;\n    } else {\n      LogErrorMsg(msg.value, \"Invalid Purchase! Check start time and amount of ether.\");\n      return false;\n    }\n  }\n\n  /// @dev Function called by purchasers to pull tokens\n  /// @param self Stored crowdsale from crowdsale contract\n  /// @return true if tokens were withdrawn\n  function withdrawTokens(CrowdsaleStorage storage self) public returns (bool) {\n    bool ok;\n\n    if (self.withdrawTokensMap[msg.sender] == 0) {\n      LogErrorMsg(0, \"Sender has no tokens to withdraw!\");\n      return false;\n    }\n\n    if (msg.sender == self.owner) {\n      if(!crowdsaleEnded(self)){\n        LogErrorMsg(0, \"Owner cannot withdraw extra tokens until after the sale!\");\n        return false;\n      } else {\n        if(self.percentBurn > 0){\n          uint256 _burnAmount = (self.withdrawTokensMap[msg.sender] * self.percentBurn)/100;\n          self.withdrawTokensMap[msg.sender] = self.withdrawTokensMap[msg.sender] - _burnAmount;\n          ok = self.token.burnToken(_burnAmount);\n          require(ok);\n        }\n      }\n    }\n\n    var total = self.withdrawTokensMap[msg.sender];\n    self.withdrawTokensMap[msg.sender] = 0;\n    ok = self.token.transfer(msg.sender, total);\n    require(ok);\n    LogTokensWithdrawn(msg.sender, total);\n    return true;\n  }\n\n  /// @dev Function called by purchasers to pull leftover wei from their purchases\n  /// @param self Stored crowdsale from crowdsale contract\n  /// @return true if wei was withdrawn\n  function withdrawLeftoverWei(CrowdsaleStorage storage self) public returns (bool) {\n    if (self.leftoverWei[msg.sender] == 0) {\n      LogErrorMsg(0, \"Sender has no extra wei to withdraw!\");\n      return false;\n    }\n\n    var total = self.leftoverWei[msg.sender];\n    self.leftoverWei[msg.sender] = 0;\n    msg.sender.transfer(total);\n    LogWeiWithdrawn(msg.sender, total);\n    return true;\n  }\n\n  /// @dev send ether from the completed crowdsale to the owners wallet address\n  /// @param self Stored crowdsale from crowdsale contract\n  /// @return true if owner withdrew eth\n  function withdrawOwnerEth(CrowdsaleStorage storage self) public returns (bool) {\n    if ((!crowdsaleEnded(self)) && (self.token.balanceOf(this)>0)) {\n      LogErrorMsg(0, \"Cannot withdraw owner ether until after the sale!\");\n      return false;\n    }\n\n    require(msg.sender == self.owner);\n    require(self.ownerBalance > 0);\n\n    uint256 amount = self.ownerBalance;\n    self.ownerBalance = 0;\n    self.owner.transfer(amount);\n    LogOwnerEthWithdrawn(msg.sender,amount,\"Crowdsale owner has withdrawn all funds!\");\n\n    return true;\n  }\n\n  /// @dev Function to change the price of the token\n  /// @param self Stored crowdsale from crowdsale contract\n  /// @param _newPrice new token price (amount of tokens per ether)\n  /// @return true if the token price changed successfully\n  function changeTokenPrice(CrowdsaleStorage storage self,\n                            uint256 _newPrice)\n                            internal\n                            returns (bool)\n  {\n  \trequire(_newPrice > 0);\n\n    bool err;\n    uint256 result;\n\n    (err, result) = self.exchangeRate.times(10**uint256(self.tokenDecimals));\n    require(!err);\n\n    self.tokensPerEth = result / _newPrice;\n\n    return true;\n  }\n\n  /// @dev function that is called three days before the sale to set the token and price\n  /// @param self Stored Crowdsale from crowdsale contract\n  /// @param _exchangeRate  ETH exchange rate expressed in cents/ETH\n  /// @return true if the exchange rate has been set\n  function setTokenExchangeRate(CrowdsaleStorage storage self, uint256 _exchangeRate)\n                                public\n                                returns (bool)\n  {\n    require(msg.sender == self.owner);\n    require((now > (self.startTime - 3 days)) && (now < (self.startTime)));\n    require(!self.rateSet);   // the exchange rate can only be set once!\n    require(self.token.balanceOf(this) > 0);\n    require(_exchangeRate > 0);\n\n    uint256 _capAmountInCents;\n    bool err;\n\n    (err, _capAmountInCents) = self.exchangeRate.times(self.capAmount);\n    require(!err);\n\n    self.exchangeRate = _exchangeRate;\n    self.capAmount = (_capAmountInCents/_exchangeRate) + 1;\n    changeTokenPrice(self,self.saleData[self.milestoneTimes[0]][0]);\n    self.rateSet = true;\n\n    err = !(setTokens(self));\n    require(!err);\n\n    LogNoticeMsg(msg.sender,self.tokensPerEth,\"Owner has set the exchange Rate and tokens bought per ETH!\");\n    return true;\n  }\n\n  /// @dev fallback function to set tokens if the exchange rate function was not called\n  /// @param self Stored Crowdsale from crowdsale contract\n  /// @return true if tokens set successfully\n  function setTokens(CrowdsaleStorage storage self) public returns (bool) {\n    require((msg.sender == self.owner) || (msg.sender == address(this)));\n    require(!self.tokensSet);\n\n    uint256 _tokenBalance;\n\n    _tokenBalance = self.token.balanceOf(this);\n    self.withdrawTokensMap[msg.sender] = _tokenBalance;\n    self.startingTokenBalance = _tokenBalance;\n    self.tokensSet = true;\n\n    return true;\n  }\n\n  /// @dev Gets the price and buy cap for individual addresses at the given milestone index\n  /// @param self Stored Crowdsale from crowdsale contract\n  /// @param timestamp Time during sale for which data is requested\n  /// @return A 3-element array with 0 the timestamp, 1 the price in cents, 2 the address cap\n  function getSaleData(CrowdsaleStorage storage self, uint256 timestamp)\n                       public\n                       view\n                       returns (uint256[3])\n  {\n    uint256[3] memory _thisData;\n    uint256 index;\n\n    while((index < self.milestoneTimes.length) && (self.milestoneTimes[index] < timestamp)) {\n      index++;\n    }\n    if(index == 0)\n      index++;\n\n    _thisData[0] = self.milestoneTimes[index - 1];\n    _thisData[1] = self.saleData[_thisData[0]][0];\n    _thisData[2] = self.saleData[_thisData[0]][1];\n    return _thisData;\n  }\n\n  /// @dev Gets the number of tokens sold thus far\n  /// @param self Stored Crowdsale from crowdsale contract\n  /// @return Number of tokens sold\n  function getTokensSold(CrowdsaleStorage storage self) public view returns (uint256) {\n    return self.startingTokenBalance - self.withdrawTokensMap[self.owner];\n  }\n}\n",
  "sourcePath": "/Users/hackdom/Projects/ethereum-libraries/CrowdsaleLib/EvenDistroCrowdsale/truffle/contracts/CrowdsaleLib.sol",
  "compiler": {
    "name": "solc",
    "version": "0.4.18+commit.9cf6e910.Emscripten.clang"
  },
  "schemaVersion": "1.0.1",
  "updatedAt": "2017-12-11T00:49:13.184Z"
}