{
  "contractName": "EvenDistroTestEteenD",
  "abi": [
    {
      "constant": true,
      "inputs": [],
      "name": "crowdsaleActive",
      "outputs": [
        {
          "name": "",
          "type": "bool"
        }
      ],
      "payable": false,
      "stateMutability": "view",
      "type": "function"
    },
    {
      "constant": false,
      "inputs": [],
      "name": "withdrawOwnerEth",
      "outputs": [
        {
          "name": "",
          "type": "bool"
        }
      ],
      "payable": false,
      "stateMutability": "nonpayable",
      "type": "function"
    },
    {
      "constant": false,
      "inputs": [
        {
          "name": "_registrant",
          "type": "address"
        }
      ],
      "name": "registerUser",
      "outputs": [
        {
          "name": "",
          "type": "bool"
        }
      ],
      "payable": false,
      "stateMutability": "nonpayable",
      "type": "function"
    },
    {
      "constant": true,
      "inputs": [
        {
          "name": "_buyer",
          "type": "address"
        }
      ],
      "name": "getContribution",
      "outputs": [
        {
          "name": "",
          "type": "uint256"
        }
      ],
      "payable": false,
      "stateMutability": "view",
      "type": "function"
    },
    {
      "constant": false,
      "inputs": [
        {
          "name": "_registrant",
          "type": "address"
        }
      ],
      "name": "unregisterUser",
      "outputs": [
        {
          "name": "",
          "type": "bool"
        }
      ],
      "payable": false,
      "stateMutability": "nonpayable",
      "type": "function"
    },
    {
      "constant": true,
      "inputs": [],
      "name": "crowdsaleEnded",
      "outputs": [
        {
          "name": "",
          "type": "bool"
        }
      ],
      "payable": false,
      "stateMutability": "view",
      "type": "function"
    },
    {
      "constant": true,
      "inputs": [],
      "name": "getEthRaised",
      "outputs": [
        {
          "name": "",
          "type": "uint256"
        }
      ],
      "payable": false,
      "stateMutability": "view",
      "type": "function"
    },
    {
      "constant": true,
      "inputs": [],
      "name": "getAddressTokenCap",
      "outputs": [
        {
          "name": "",
          "type": "uint256"
        }
      ],
      "payable": false,
      "stateMutability": "view",
      "type": "function"
    },
    {
      "constant": true,
      "inputs": [
        {
          "name": "_buyer",
          "type": "address"
        }
      ],
      "name": "getLeftoverWei",
      "outputs": [
        {
          "name": "",
          "type": "uint256"
        }
      ],
      "payable": false,
      "stateMutability": "view",
      "type": "function"
    },
    {
      "constant": true,
      "inputs": [],
      "name": "getEndTime",
      "outputs": [
        {
          "name": "",
          "type": "uint256"
        }
      ],
      "payable": false,
      "stateMutability": "view",
      "type": "function"
    },
    {
      "constant": false,
      "inputs": [],
      "name": "setTokens",
      "outputs": [
        {
          "name": "",
          "type": "bool"
        }
      ],
      "payable": false,
      "stateMutability": "nonpayable",
      "type": "function"
    },
    {
      "constant": true,
      "inputs": [],
      "name": "getNumRegistered",
      "outputs": [
        {
          "name": "",
          "type": "uint256"
        }
      ],
      "payable": false,
      "stateMutability": "view",
      "type": "function"
    },
    {
      "constant": false,
      "inputs": [],
      "name": "sendPurchase",
      "outputs": [
        {
          "name": "",
          "type": "bool"
        }
      ],
      "payable": true,
      "stateMutability": "payable",
      "type": "function"
    },
    {
      "constant": true,
      "inputs": [],
      "name": "getTokensPerEth",
      "outputs": [
        {
          "name": "",
          "type": "uint256"
        }
      ],
      "payable": false,
      "stateMutability": "view",
      "type": "function"
    },
    {
      "constant": true,
      "inputs": [
        {
          "name": "timestamp",
          "type": "uint256"
        }
      ],
      "name": "getSaleData",
      "outputs": [
        {
          "name": "",
          "type": "uint256[3]"
        }
      ],
      "payable": false,
      "stateMutability": "view",
      "type": "function"
    },
    {
      "constant": true,
      "inputs": [],
      "name": "getOwner",
      "outputs": [
        {
          "name": "",
          "type": "address"
        }
      ],
      "payable": false,
      "stateMutability": "view",
      "type": "function"
    },
    {
      "constant": false,
      "inputs": [],
      "name": "withdrawTokens",
      "outputs": [
        {
          "name": "",
          "type": "bool"
        }
      ],
      "payable": false,
      "stateMutability": "nonpayable",
      "type": "function"
    },
    {
      "constant": false,
      "inputs": [],
      "name": "withdrawLeftoverWei",
      "outputs": [
        {
          "name": "",
          "type": "bool"
        }
      ],
      "payable": false,
      "stateMutability": "nonpayable",
      "type": "function"
    },
    {
      "constant": true,
      "inputs": [],
      "name": "getPercentBurn",
      "outputs": [
        {
          "name": "",
          "type": "uint256"
        }
      ],
      "payable": false,
      "stateMutability": "view",
      "type": "function"
    },
    {
      "constant": true,
      "inputs": [
        {
          "name": "_registrant",
          "type": "address"
        }
      ],
      "name": "isRegistered",
      "outputs": [
        {
          "name": "",
          "type": "bool"
        }
      ],
      "payable": false,
      "stateMutability": "view",
      "type": "function"
    },
    {
      "constant": true,
      "inputs": [],
      "name": "getStartTime",
      "outputs": [
        {
          "name": "",
          "type": "uint256"
        }
      ],
      "payable": false,
      "stateMutability": "view",
      "type": "function"
    },
    {
      "constant": false,
      "inputs": [
        {
          "name": "_exchangeRate",
          "type": "uint256"
        }
      ],
      "name": "setTokenExchangeRate",
      "outputs": [
        {
          "name": "",
          "type": "bool"
        }
      ],
      "payable": false,
      "stateMutability": "nonpayable",
      "type": "function"
    },
    {
      "constant": true,
      "inputs": [],
      "name": "getCapAmount",
      "outputs": [
        {
          "name": "",
          "type": "uint256"
        }
      ],
      "payable": false,
      "stateMutability": "view",
      "type": "function"
    },
    {
      "constant": false,
      "inputs": [
        {
          "name": "_registrants",
          "type": "address[]"
        }
      ],
      "name": "unregisterUsers",
      "outputs": [
        {
          "name": "",
          "type": "bool"
        }
      ],
      "payable": false,
      "stateMutability": "nonpayable",
      "type": "function"
    },
    {
      "constant": false,
      "inputs": [
        {
          "name": "_registrants",
          "type": "address[]"
        }
      ],
      "name": "registerUsers",
      "outputs": [
        {
          "name": "",
          "type": "bool"
        }
      ],
      "payable": false,
      "stateMutability": "nonpayable",
      "type": "function"
    },
    {
      "constant": true,
      "inputs": [],
      "name": "getExchangeRate",
      "outputs": [
        {
          "name": "",
          "type": "uint256"
        }
      ],
      "payable": false,
      "stateMutability": "view",
      "type": "function"
    },
    {
      "constant": true,
      "inputs": [],
      "name": "getTokensSold",
      "outputs": [
        {
          "name": "",
          "type": "uint256"
        }
      ],
      "payable": false,
      "stateMutability": "view",
      "type": "function"
    },
    {
      "constant": true,
      "inputs": [
        {
          "name": "_buyer",
          "type": "address"
        }
      ],
      "name": "getTokenPurchase",
      "outputs": [
        {
          "name": "",
          "type": "uint256"
        }
      ],
      "payable": false,
      "stateMutability": "view",
      "type": "function"
    },
    {
      "inputs": [
        {
          "name": "owner",
          "type": "address"
        },
        {
          "name": "saleData",
          "type": "uint256[]"
        },
        {
          "name": "fallbackExchangeRate",
          "type": "uint256"
        },
        {
          "name": "capAmountInCents",
          "type": "uint256"
        },
        {
          "name": "endTime",
          "type": "uint256"
        },
        {
          "name": "percentBurn",
          "type": "uint8"
        },
        {
          "name": "initialAddressTokenCap",
          "type": "uint256"
        },
        {
          "name": "staticCap",
          "type": "bool"
        },
        {
          "name": "token",
          "type": "address"
        }
      ],
      "payable": false,
      "stateMutability": "nonpayable",
      "type": "constructor"
    },
    {
      "payable": true,
      "stateMutability": "payable",
      "type": "fallback"
    },
    {
      "anonymous": false,
      "inputs": [
        {
          "indexed": true,
          "name": "buyer",
          "type": "address"
        },
        {
          "indexed": false,
          "name": "amount",
          "type": "uint256"
        }
      ],
      "name": "LogTokensBought",
      "type": "event"
    },
    {
      "anonymous": false,
      "inputs": [
        {
          "indexed": false,
          "name": "registrant",
          "type": "address"
        }
      ],
      "name": "LogUserRegistered",
      "type": "event"
    },
    {
      "anonymous": false,
      "inputs": [
        {
          "indexed": false,
          "name": "registrant",
          "type": "address"
        }
      ],
      "name": "LogUserUnRegistered",
      "type": "event"
    },
    {
      "anonymous": false,
      "inputs": [
        {
          "indexed": false,
          "name": "amount",
          "type": "uint256"
        },
        {
          "indexed": false,
          "name": "Msg",
          "type": "string"
        }
      ],
      "name": "LogErrorMsg",
      "type": "event"
    },
    {
      "anonymous": false,
      "inputs": [
        {
          "indexed": false,
          "name": "user",
          "type": "address"
        },
        {
          "indexed": false,
          "name": "Msg",
          "type": "string"
        }
      ],
      "name": "LogRegError",
      "type": "event"
    },
    {
      "anonymous": false,
      "inputs": [
        {
          "indexed": false,
          "name": "amount",
          "type": "uint256"
        },
        {
          "indexed": false,
          "name": "Msg",
          "type": "string"
        }
      ],
      "name": "LogAddressTokenCapChange",
      "type": "event"
    },
    {
      "anonymous": false,
      "inputs": [
        {
          "indexed": false,
          "name": "amount",
          "type": "uint256"
        },
        {
          "indexed": false,
          "name": "Msg",
          "type": "string"
        }
      ],
      "name": "LogTokenPriceChange",
      "type": "event"
    },
    {
      "anonymous": false,
      "inputs": [
        {
          "indexed": false,
          "name": "saleCap",
          "type": "uint256"
        },
        {
          "indexed": false,
          "name": "numRegistered",
          "type": "uint256"
        },
        {
          "indexed": false,
          "name": "cap",
          "type": "uint256"
        },
        {
          "indexed": false,
          "name": "Msg",
          "type": "string"
        }
      ],
      "name": "LogAddressTokenCapCalculated",
      "type": "event"
    },
    {
      "anonymous": false,
      "inputs": [
        {
          "indexed": true,
          "name": "_bidder",
          "type": "address"
        },
        {
          "indexed": false,
          "name": "Amount",
          "type": "uint256"
        }
      ],
      "name": "LogTokensWithdrawn",
      "type": "event"
    },
    {
      "anonymous": false,
      "inputs": [
        {
          "indexed": true,
          "name": "_bidder",
          "type": "address"
        },
        {
          "indexed": false,
          "name": "Amount",
          "type": "uint256"
        }
      ],
      "name": "LogWeiWithdrawn",
      "type": "event"
    },
    {
      "anonymous": false,
      "inputs": [
        {
          "indexed": true,
          "name": "owner",
          "type": "address"
        },
        {
          "indexed": false,
          "name": "amount",
          "type": "uint256"
        },
        {
          "indexed": false,
          "name": "Msg",
          "type": "string"
        }
      ],
      "name": "LogOwnerEthWithdrawn",
      "type": "event"
    },
    {
      "anonymous": false,
      "inputs": [
        {
          "indexed": false,
          "name": "_buyer",
          "type": "address"
        },
        {
          "indexed": false,
          "name": "value",
          "type": "uint256"
        },
        {
          "indexed": false,
          "name": "Msg",
          "type": "string"
        }
      ],
      "name": "LogNoticeMsg",
      "type": "event"
    }
  ],
  "bytecode": "0x6060604052341561000f57600080fd5b6040516115a63803806115a683398101604052808051906020019091908051820191906020018051906020019091908051906020019091908051906020019091908051906020019091908051906020019091908051906020019091908051906020019091905050600073__EvenDistroCrowdsaleLib________________639a19e94a90918b8b8b8b8b8b8b8b8b6040518b63ffffffff167c0100000000000000000000000000000000000000000000000000000000028152600401808b81526020018a73ffffffffffffffffffffffffffffffffffffffff1673ffffffffffffffffffffffffffffffffffffffff168152602001806020018981526020018881526020018781526020018660ff1660ff168152602001858152602001841515151581526020018373ffffffffffffffffffffffffffffffffffffffff1673ffffffffffffffffffffffffffffffffffffffff16815260200182810382528a818151815260200191508051906020019060200280838360005b838110156101a3578082015181840152602081019050610188565b505050509050019b50505050505050505050505060006040518083038186803b15156101ce57600080fd5b6102c65a03f415156101df57600080fd5b5050505050505050505050506113ac806101fa6000396000f30060606040526004361061016a576000357c0100000000000000000000000000000000000000000000000000000000900463ffffffff1680630b87cf10146101755780630c1ca1ba146101a25780632199d5cd146101cf57806321eff7fc1461022057806321f2ca3b1461026d5780632367f35d146102be57806329dacb60146102eb5780633536c7ac14610314578063413100e01461033d578063439f5ac21461038a578063559ed339146103b3578063674b81e6146103e057806367532c8e146104095780636893f63f1461042b57806386630b7b14610454578063893d20e8146104b35780638d8f2adb146105085780639fac6ddc14610535578063bdf1211e14610562578063c3c5a5471461058b578063c828371e146105dc578063cb7b867314610605578063d8ad1c5c14610640578063e42d6efa14610669578063e5e9a9bb146106db578063e6aa216c1461074d578063ee7c0db014610776578063f59ae82c1461079f575b6101726107ec565b50005b341561018057600080fd5b61018861088b565b604051808215151515815260200191505060405180910390f35b34156101ad57600080fd5b6101b5610922565b604051808215151515815260200191505060405180910390f35b34156101da57600080fd5b610206600480803573ffffffffffffffffffffffffffffffffffffffff169060200190919050506109b9565b604051808215151515815260200191505060405180910390f35b341561022b57600080fd5b610257600480803573ffffffffffffffffffffffffffffffffffffffff16906020019091905050610a86565b6040518082815260200191505060405180910390f35b341561027857600080fd5b6102a4600480803573ffffffffffffffffffffffffffffffffffffffff16906020019091905050610ad4565b604051808215151515815260200191505060405180910390f35b34156102c957600080fd5b6102d1610ba1565b604051808215151515815260200191505060405180910390f35b34156102f657600080fd5b6102fe610c38565b6040518082815260200191505060405180910390f35b341561031f57600080fd5b610327610c47565b6040518082815260200191505060405180910390f35b341561034857600080fd5b610374600480803573ffffffffffffffffffffffffffffffffffffffff16906020019091905050610c53565b6040518082815260200191505060405180910390f35b341561039557600080fd5b61039d610ca1565b6040518082815260200191505060405180910390f35b34156103be57600080fd5b6103c6610cb0565b604051808215151515815260200191505060405180910390f35b34156103eb57600080fd5b6103f3610d47565b6040518082815260200191505060405180910390f35b6104116107ec565b604051808215151515815260200191505060405180910390f35b341561043657600080fd5b61043e610d53565b6040518082815260200191505060405180910390f35b341561045f57600080fd5b6104756004808035906020019091905050610d62565b6040518082600360200280838360005b838110156104a0578082015181840152602081019050610485565b5050505090500191505060405180910390f35b34156104be57600080fd5b6104c6610e0d565b604051808273ffffffffffffffffffffffffffffffffffffffff1673ffffffffffffffffffffffffffffffffffffffff16815260200191505060405180910390f35b341561051357600080fd5b61051b610e3c565b604051808215151515815260200191505060405180910390f35b341561054057600080fd5b610548610ed3565b604051808215151515815260200191505060405180910390f35b341561056d57600080fd5b610575610f6a565b6040518082815260200191505060405180910390f35b341561059657600080fd5b6105c2600480803573ffffffffffffffffffffffffffffffffffffffff16906020019091905050610f89565b604051808215151515815260200191505060405180910390f35b34156105e757600080fd5b6105ef610fe1565b6040518082815260200191505060405180910390f35b341561061057600080fd5b6106266004808035906020019091905050610ff0565b604051808215151515815260200191505060405180910390f35b341561064b57600080fd5b610653611091565b6040518082815260200191505060405180910390f35b341561067457600080fd5b6106c16004808035906020019082018035906020019080806020026020016040519081016040528093929190818152602001838360200280828437820191505050505050919050506110a0565b604051808215151515815260200191505060405180910390f35b34156106e657600080fd5b610733600480803590602001908201803590602001908080602002602001604051908101604052809392919081815260200183836020028082843782019150505050505091905050611182565b604051808215151515815260200191505060405180910390f35b341561075857600080fd5b610760611264565b6040518082815260200191505060405180910390f35b341561078157600080fd5b610789611273565b6040518082815260200191505060405180910390f35b34156107aa57600080fd5b6107d6600480803573ffffffffffffffffffffffffffffffffffffffff1690602001909190505061130a565b6040518082815260200191505060405180910390f35b60008073__EvenDistroCrowdsaleLib________________6398e78d6b9091346000604051602001526040518363ffffffff167c0100000000000000000000000000000000000000000000000000000000028152600401808381526020018281526020019250505060206040518083038186803b151561086b57600080fd5b6102c65a03f4151561087c57600080fd5b50505060405180519050905090565b60008073__EvenDistroCrowdsaleLib________________630378ce2390916000604051602001526040518263ffffffff167c01000000000000000000000000000000000000000000000000000000000281526004018082815260200191505060206040518083038186803b151561090257600080fd5b6102c65a03f4151561091357600080fd5b50505060405180519050905090565b60008073__EvenDistroCrowdsaleLib________________6313bffc4d90916000604051602001526040518263ffffffff167c01000000000000000000000000000000000000000000000000000000000281526004018082815260200191505060206040518083038186803b151561099957600080fd5b6102c65a03f415156109aa57600080fd5b50505060405180519050905090565b60008073__EvenDistroCrowdsaleLib________________63fed563609091846000604051602001526040518363ffffffff167c0100000000000000000000000000000000000000000000000000000000028152600401808381526020018273ffffffffffffffffffffffffffffffffffffffff1673ffffffffffffffffffffffffffffffffffffffff1681526020019250505060206040518083038186803b1515610a6457600080fd5b6102c65a03f41515610a7557600080fd5b505050604051805190509050919050565b600080600001600b0160008373ffffffffffffffffffffffffffffffffffffffff1673ffffffffffffffffffffffffffffffffffffffff168152602001908152602001600020549050919050565b60008073__EvenDistroCrowdsaleLib________________63ac78f38f9091846000604051602001526040518363ffffffff167c0100000000000000000000000000000000000000000000000000000000028152600401808381526020018273ffffffffffffffffffffffffffffffffffffffff1673ffffffffffffffffffffffffffffffffffffffff1681526020019250505060206040518083038186803b1515610b7f57600080fd5b6102c65a03f41515610b9057600080fd5b505050604051805190509050919050565b60008073__EvenDistroCrowdsaleLib________________633950882390916000604051602001526040518263ffffffff167c01000000000000000000000000000000000000000000000000000000000281526004018082815260200191505060206040518083038186803b1515610c1857600080fd5b6102c65a03f41515610c2957600080fd5b50505060405180519050905090565b60008060000160060154905090565b60008060120154905090565b600080600001600d0160008373ffffffffffffffffffffffffffffffffffffffff1673ffffffffffffffffffffffffffffffffffffffff168152602001908152602001600020549050919050565b60008060000160040154905090565b60008073__EvenDistroCrowdsaleLib________________633b91304990916000604051602001526040518263ffffffff167c01000000000000000000000000000000000000000000000000000000000281526004018082815260200191505060206040518083038186803b1515610d2757600080fd5b6102c65a03f41515610d3857600080fd5b50505060405180519050905090565b60008060110154905090565b60008060000160010154905090565b610d6a611358565b600073__EvenDistroCrowdsaleLib________________63b38ee9329091846000604051606001526040518363ffffffff167c0100000000000000000000000000000000000000000000000000000000028152600401808381526020018281526020019250505060606040518083038186803b1515610de857600080fd5b6102c65a03f41515610df957600080fd5b505050604051806060016040529050919050565b60008060000160000160009054906101000a900473ffffffffffffffffffffffffffffffffffffffff16905090565b60008073__EvenDistroCrowdsaleLib________________63bfb671e190916000604051602001526040518263ffffffff167c01000000000000000000000000000000000000000000000000000000000281526004018082815260200191505060206040518083038186803b1515610eb357600080fd5b6102c65a03f41515610ec457600080fd5b50505060405180519050905090565b60008073__EvenDistroCrowdsaleLib________________63c065b99e90916000604051602001526040518263ffffffff167c01000000000000000000000000000000000000000000000000000000000281526004018082815260200191505060206040518083038186803b1515610f4a57600080fd5b6102c65a03f41515610f5b57600080fd5b50505060405180519050905090565b60008060000160090160029054906101000a900460ff1660ff16905090565b600080600f0160008373ffffffffffffffffffffffffffffffffffffffff1673ffffffffffffffffffffffffffffffffffffffff16815260200190815260200160002060009054906101000a900460ff169050919050565b60008060000160030154905090565b60008073__EvenDistroCrowdsaleLib________________637dedb7919091846000604051602001526040518363ffffffff167c0100000000000000000000000000000000000000000000000000000000028152600401808381526020018281526020019250505060206040518083038186803b151561106f57600080fd5b6102c65a03f4151561108057600080fd5b505050604051805190509050919050565b60008060000160020154905090565b60008073__EvenDistroCrowdsaleLib________________63f1618f089091846000604051602001526040518363ffffffff167c01000000000000000000000000000000000000000000000000000000000281526004018083815260200180602001828103825283818151815260200191508051906020019060200280838360005b8381101561113d578082015181840152602081019050611122565b50505050905001935050505060206040518083038186803b151561116057600080fd5b6102c65a03f4151561117157600080fd5b505050604051805190509050919050565b60008073__EvenDistroCrowdsaleLib________________638b6708819091846000604051602001526040518363ffffffff167c01000000000000000000000000000000000000000000000000000000000281526004018083815260200180602001828103825283818151815260200191508051906020019060200280838360005b8381101561121f578082015181840152602081019050611204565b50505050905001935050505060206040518083038186803b151561124257600080fd5b6102c65a03f4151561125357600080fd5b505050604051805190509050919050565b60008060000160050154905090565b60008073__EvenDistroCrowdsaleLib________________63a4107c9090916000604051602001526040518263ffffffff167c01000000000000000000000000000000000000000000000000000000000281526004018082815260200191505060206040518083038186803b15156112ea57600080fd5b6102c65a03f415156112fb57600080fd5b50505060405180519050905090565b600080600001600c0160008373ffffffffffffffffffffffffffffffffffffffff1673ffffffffffffffffffffffffffffffffffffffff168152602001908152602001600020549050919050565b6060604051908101604052806003905b600081526020019060019003908161136857905050905600a165627a7a72305820797af0f091e1f6585a0202a50449b887c405e4939d98ec2d14edd164c6ab29630029",
  "source": "pragma solidity ^0.4.18;\n\n/**\n * Even Distro Contract\n *\n * Majoolr provides smart contract services and security reviews for contract\n * deployments in addition to working on open source projects in the Ethereum\n * community. Our purpose is to test, document, and deploy reusable code onto the\n * blockchain and improve both security and usability. We also educate non-profits,\n * schools, and other community members about the application of blockchain\n * technology.\n * For further information: majoolr.io\n *\n * THE SOFTWARE IS PROVIDED \"AS IS\", WITHOUT WARRANTY OF ANY KIND, EXPRESS\n * OR IMPLIED, INCLUDING BUT NOT LIMITED TO THE WARRANTIES OF\n * MERCHANTABILITY, FITNESS FOR A PARTICULAR PURPOSE AND NONINFRINGEMENT.\n * IN NO EVENT SHALL THE AUTHORS OR COPYRIGHT HOLDERS BE LIABLE FOR ANY\n * CLAIM, DAMAGES OR OTHER LIABILITY, WHETHER IN AN ACTION OF CONTRACT,\n * TORT OR OTHERWISE, ARISING FROM, OUT OF OR IN CONNECTION WITH THE\n * SOFTWARE OR THE USE OR OTHER DEALINGS IN THE SOFTWARE.\n */\n\nimport \"./EvenDistroCrowdsaleLib.sol\";\nimport \"./CrowdsaleTestTokenEteenD.sol\";\n\ncontract EvenDistroTestEteenD {\n  using EvenDistroCrowdsaleLib for EvenDistroCrowdsaleLib.EvenDistroCrowdsaleStorage;\n\n  EvenDistroCrowdsaleLib.EvenDistroCrowdsaleStorage sale;\n\n  function EvenDistroTestEteenD(\n    address owner,\n    uint256[] saleData,\n    uint256 fallbackExchangeRate,\n    uint256 capAmountInCents,\n    uint256 endTime,\n    uint8 percentBurn,\n    uint256 initialAddressTokenCap,\n    bool staticCap,\n    CrowdsaleToken token)\n  {\n  \tsale.init(owner, saleData, fallbackExchangeRate, capAmountInCents, endTime, percentBurn, initialAddressTokenCap, staticCap, token);\n  }\n\n  event LogTokensBought(address indexed buyer, uint256 amount);\n  event LogUserRegistered(address registrant);\n  event LogUserUnRegistered(address registrant);\n  event LogErrorMsg(uint256 amount, string Msg);\n  event LogRegError(address user, string Msg);\n  event LogAddressTokenCapChange(uint256 amount, string Msg);\n  event LogTokenPriceChange(uint256 amount, string Msg);\n  event LogAddressTokenCapCalculated(uint256 saleCap, uint256 numRegistered, uint256 cap, string Msg);\n  event LogTokensWithdrawn(address indexed _bidder, uint256 Amount);\n  event LogWeiWithdrawn(address indexed _bidder, uint256 Amount);\n  event LogOwnerEthWithdrawn(address indexed owner, uint256 amount, string Msg);\n  event LogNoticeMsg(address _buyer, uint256 value, string Msg);\n\n  // fallback function can be used to buy tokens\n  function () payable {\n    sendPurchase();\n  }\n\n  function sendPurchase() payable returns (bool) {\n  \treturn sale.receivePurchase(msg.value);\n  }\n\n  function registerUser(address _registrant) returns (bool) {\n    return sale.registerUser(_registrant);\n  }\n\n  function registerUsers(address[] _registrants) returns (bool) {\n    return sale.registerUsers(_registrants);\n  }\n\n  function unregisterUser(address _registrant) returns (bool) {\n    return sale.unregisterUser(_registrant);\n  }\n\n  function unregisterUsers(address[] _registrants) returns (bool) {\n    return sale.unregisterUsers(_registrants);\n  }\n\n  function isRegistered(address _registrant) constant returns (bool) {\n    return sale.isRegistered[_registrant];\n  }\n\n  function withdrawTokens() returns (bool) {\n    return sale.withdrawTokens();\n  }\n\n  function withdrawLeftoverWei() returns (bool) {\n    return sale.withdrawLeftoverWei();\n  }\n\n  function withdrawOwnerEth() returns (bool) {\n  \treturn sale.withdrawOwnerEth();\n  }\n\n  function crowdsaleActive() constant returns (bool) {\n  \treturn sale.crowdsaleActive();\n  }\n\n  function crowdsaleEnded() constant returns (bool) {\n  \treturn sale.crowdsaleEnded();\n  }\n\n  function setTokenExchangeRate(uint256 _exchangeRate) returns (bool) {\n    return sale.setTokenExchangeRate(_exchangeRate);\n  }\n\n  function setTokens() returns (bool) {\n    return sale.setTokens();\n  }\n\n  function getOwner() constant returns (address) {\n    return sale.base.owner;\n  }\n\n  function getTokensPerEth() constant returns (uint256) {\n    return sale.base.tokensPerEth;\n  }\n\n  function getExchangeRate() constant returns (uint256) {\n    return sale.base.exchangeRate;\n  }\n\n  function getCapAmount() constant returns (uint256) {\n    return sale.base.capAmount;\n  }\n\n  function getStartTime() constant returns (uint256) {\n    return sale.base.startTime;\n  }\n\n  function getEndTime() constant returns (uint256) {\n    return sale.base.endTime;\n  }\n\n  function getEthRaised() constant returns (uint256) {\n    return sale.base.ownerBalance;\n  }\n\n  function getContribution(address _buyer) constant returns (uint256) {\n    return sale.base.hasContributed[_buyer];\n  }\n\n  function getTokenPurchase(address _buyer) constant returns (uint256) {\n    return sale.base.withdrawTokensMap[_buyer];\n  }\n\n  function getLeftoverWei(address _buyer) constant returns (uint256) {\n    return sale.base.leftoverWei[_buyer];\n  }\n\n  function getSaleData(uint256 timestamp) constant returns (uint256[3]) {\n    return sale.getSaleData(timestamp);\n  }\n\n  function getTokensSold() constant returns (uint256) {\n    return sale.getTokensSold();\n  }\n\n  function getPercentBurn() constant returns (uint256) {\n    return sale.base.percentBurn;\n  }\n\n  function getAddressTokenCap() constant returns (uint256) {\n    return sale.addressTokenCap;\n  }\n\n  function getNumRegistered() constant returns (uint256) {\n    return sale.numRegistered;\n  }\n}\n",
  "sourcePath": "/Users/hackdom/Projects/ethereum-libraries/CrowdsaleLib/EvenDistroCrowdsale/truffle/contracts/EvenDistroTestEteenD.sol",
  "compiler": {
    "name": "solc",
    "version": "0.4.18+commit.9cf6e910.Emscripten.clang"
  },
  "schemaVersion": "1.0.1",
  "updatedAt": "2017-12-08T09:04:05.260Z"
}