{
  "contractName": "EvenDistroCrowdsaleLib",
  "abi": [
    {
      "constant": true,
      "inputs": [
        {
          "name": "self",
          "type": "EvenDistroCrowdsaleLib.EvenDistroCrowdsaleStorage storage"
        }
      ],
      "name": "crowdsaleActive",
      "outputs": [
        {
          "name": "",
          "type": "bool"
        }
      ],
      "payable": false,
      "stateMutability": "view",
      "type": "function"
    },
    {
      "constant": false,
      "inputs": [
        {
          "name": "self",
          "type": "EvenDistroCrowdsaleLib.EvenDistroCrowdsaleStorage storage"
        }
      ],
      "name": "withdrawOwnerEth",
      "outputs": [
        {
          "name": "",
          "type": "bool"
        }
      ],
      "payable": false,
      "stateMutability": "nonpayable",
      "type": "function"
    },
    {
      "constant": true,
      "inputs": [
        {
          "name": "self",
          "type": "EvenDistroCrowdsaleLib.EvenDistroCrowdsaleStorage storage"
        }
      ],
      "name": "crowdsaleEnded",
      "outputs": [
        {
          "name": "",
          "type": "bool"
        }
      ],
      "payable": false,
      "stateMutability": "view",
      "type": "function"
    },
    {
      "constant": false,
      "inputs": [
        {
          "name": "self",
          "type": "EvenDistroCrowdsaleLib.EvenDistroCrowdsaleStorage storage"
        }
      ],
      "name": "setTokens",
      "outputs": [
        {
          "name": "",
          "type": "bool"
        }
      ],
      "payable": false,
      "stateMutability": "nonpayable",
      "type": "function"
    },
    {
      "constant": false,
      "inputs": [
        {
          "name": "self",
          "type": "EvenDistroCrowdsaleLib.EvenDistroCrowdsaleStorage storage"
        },
        {
          "name": "_exchangeRate",
          "type": "uint256"
        }
      ],
      "name": "setTokenExchangeRate",
      "outputs": [
        {
          "name": "",
          "type": "bool"
        }
      ],
      "payable": false,
      "stateMutability": "nonpayable",
      "type": "function"
    },
    {
      "constant": false,
      "inputs": [
        {
          "name": "self",
          "type": "EvenDistroCrowdsaleLib.EvenDistroCrowdsaleStorage storage"
        },
        {
          "name": "_registrants",
          "type": "address[]"
        }
      ],
      "name": "registerUsers",
      "outputs": [
        {
          "name": "",
          "type": "bool"
        }
      ],
      "payable": false,
      "stateMutability": "nonpayable",
      "type": "function"
    },
    {
      "constant": false,
      "inputs": [
        {
          "name": "self",
          "type": "EvenDistroCrowdsaleLib.EvenDistroCrowdsaleStorage storage"
        },
        {
          "name": "_amount",
          "type": "uint256"
        }
      ],
      "name": "receivePurchase",
      "outputs": [
        {
          "name": "",
          "type": "bool"
        }
      ],
      "payable": false,
      "stateMutability": "nonpayable",
      "type": "function"
    },
    {
      "constant": false,
      "inputs": [
        {
          "name": "self",
          "type": "EvenDistroCrowdsaleLib.EvenDistroCrowdsaleStorage storage"
        },
        {
          "name": "_owner",
          "type": "address"
        },
        {
          "name": "_saleData",
          "type": "uint256[]"
        },
        {
          "name": "_fallbackExchangeRate",
          "type": "uint256"
        },
        {
          "name": "_capAmountInCents",
          "type": "uint256"
        },
        {
          "name": "_endTime",
          "type": "uint256"
        },
        {
          "name": "_percentBurn",
          "type": "uint8"
        },
        {
          "name": "_initialAddressTokenCap",
          "type": "uint256"
        },
        {
          "name": "_staticCap",
          "type": "bool"
        },
        {
          "name": "_token",
          "type": "CrowdsaleToken"
        }
      ],
      "name": "init",
      "outputs": [],
      "payable": false,
      "stateMutability": "nonpayable",
      "type": "function"
    },
    {
      "constant": true,
      "inputs": [
        {
          "name": "self",
          "type": "EvenDistroCrowdsaleLib.EvenDistroCrowdsaleStorage storage"
        }
      ],
      "name": "getTokensSold",
      "outputs": [
        {
          "name": "",
          "type": "uint256"
        }
      ],
      "payable": false,
      "stateMutability": "view",
      "type": "function"
    },
    {
      "constant": false,
      "inputs": [
        {
          "name": "self",
          "type": "EvenDistroCrowdsaleLib.EvenDistroCrowdsaleStorage storage"
        },
        {
          "name": "_registrant",
          "type": "address"
        }
      ],
      "name": "unregisterUser",
      "outputs": [
        {
          "name": "",
          "type": "bool"
        }
      ],
      "payable": false,
      "stateMutability": "nonpayable",
      "type": "function"
    },
    {
      "constant": true,
      "inputs": [
        {
          "name": "self",
          "type": "EvenDistroCrowdsaleLib.EvenDistroCrowdsaleStorage storage"
        },
        {
          "name": "timestamp",
          "type": "uint256"
        }
      ],
      "name": "getSaleData",
      "outputs": [
        {
          "name": "",
          "type": "uint256[3]"
        }
      ],
      "payable": false,
      "stateMutability": "view",
      "type": "function"
    },
    {
      "constant": false,
      "inputs": [
        {
          "name": "self",
          "type": "EvenDistroCrowdsaleLib.EvenDistroCrowdsaleStorage storage"
        }
      ],
      "name": "withdrawTokens",
      "outputs": [
        {
          "name": "",
          "type": "bool"
        }
      ],
      "payable": false,
      "stateMutability": "nonpayable",
      "type": "function"
    },
    {
      "constant": false,
      "inputs": [
        {
          "name": "self",
          "type": "EvenDistroCrowdsaleLib.EvenDistroCrowdsaleStorage storage"
        }
      ],
      "name": "withdrawLeftoverWei",
      "outputs": [
        {
          "name": "",
          "type": "bool"
        }
      ],
      "payable": false,
      "stateMutability": "nonpayable",
      "type": "function"
    },
    {
      "constant": false,
      "inputs": [
        {
          "name": "self",
          "type": "EvenDistroCrowdsaleLib.EvenDistroCrowdsaleStorage storage"
        },
        {
          "name": "_registrants",
          "type": "address[]"
        }
      ],
      "name": "unregisterUsers",
      "outputs": [
        {
          "name": "",
          "type": "bool"
        }
      ],
      "payable": false,
      "stateMutability": "nonpayable",
      "type": "function"
    },
    {
      "constant": false,
      "inputs": [
        {
          "name": "self",
          "type": "EvenDistroCrowdsaleLib.EvenDistroCrowdsaleStorage storage"
        },
        {
          "name": "_registrant",
          "type": "address"
        }
      ],
      "name": "registerUser",
      "outputs": [
        {
          "name": "",
          "type": "bool"
        }
      ],
      "payable": false,
      "stateMutability": "nonpayable",
      "type": "function"
    },
    {
      "anonymous": false,
      "inputs": [
        {
          "indexed": true,
          "name": "buyer",
          "type": "address"
        },
        {
          "indexed": false,
          "name": "amount",
          "type": "uint256"
        }
      ],
      "name": "LogTokensBought",
      "type": "event"
    },
    {
      "anonymous": false,
      "inputs": [
        {
          "indexed": false,
          "name": "amount",
          "type": "uint256"
        },
        {
          "indexed": false,
          "name": "Msg",
          "type": "string"
        }
      ],
      "name": "LogTokenPriceChange",
      "type": "event"
    },
    {
      "anonymous": false,
      "inputs": [
        {
          "indexed": false,
          "name": "amount",
          "type": "uint256"
        },
        {
          "indexed": false,
          "name": "Msg",
          "type": "string"
        }
      ],
      "name": "LogErrorMsg",
      "type": "event"
    },
    {
      "anonymous": false,
      "inputs": [
        {
          "indexed": false,
          "name": "registrant",
          "type": "address"
        }
      ],
      "name": "LogUserRegistered",
      "type": "event"
    },
    {
      "anonymous": false,
      "inputs": [
        {
          "indexed": false,
          "name": "registrant",
          "type": "address"
        }
      ],
      "name": "LogUserUnRegistered",
      "type": "event"
    },
    {
      "anonymous": false,
      "inputs": [
        {
          "indexed": false,
          "name": "user",
          "type": "address"
        },
        {
          "indexed": false,
          "name": "Msg",
          "type": "string"
        }
      ],
      "name": "LogRegError",
      "type": "event"
    },
    {
      "anonymous": false,
      "inputs": [
        {
          "indexed": false,
          "name": "amount",
          "type": "uint256"
        },
        {
          "indexed": false,
          "name": "Msg",
          "type": "string"
        }
      ],
      "name": "LogAddressTokenCapChange",
      "type": "event"
    },
    {
      "anonymous": false,
      "inputs": [
        {
          "indexed": false,
          "name": "saleCap",
          "type": "uint256"
        },
        {
          "indexed": false,
          "name": "numRegistered",
          "type": "uint256"
        },
        {
          "indexed": false,
          "name": "cap",
          "type": "uint256"
        },
        {
          "indexed": false,
          "name": "Msg",
          "type": "string"
        }
      ],
      "name": "LogAddressTokenCapCalculated",
      "type": "event"
    }
  ],
  "bytecode": "0x6060604052341561000f57600080fd5b6129168061001e6000396000f3006060604052600436106100db576000357c0100000000000000000000000000000000000000000000000000000000900463ffffffff1680630378ce23146100e057806313bffc4d1461011057806339508823146101405780633b913049146101705780637dedb791146101a05780638b670881146101d957806398e78d6b146102495780639a19e94a14610282578063a4107c9014610353578063ac78f38f1461037f578063b38ee932146103ce578063bfb671e11461042b578063c065b99e1461045b578063f1618f081461048b578063fed56360146104fb575b600080fd5b6100f6600480803590602001909190505061054a565b604051808215151515815260200191505060405180910390f35b61012660048080359060200190919050506105e6565b604051808215151515815260200191505060405180910390f35b6101566004808035906020019091905050610682565b604051808215151515815260200191505060405180910390f35b610186600480803590602001909190505061071e565b604051808215151515815260200191505060405180910390f35b6101bf60048080359060200190919080359060200190919050506107c7565b604051808215151515815260200191505060405180910390f35b61022f600480803590602001909190803590602001908201803590602001908080602002602001604051908101604052809392919081815260200183836020028082843782019150505050505091905050610882565b604051808215151515815260200191505060405180910390f35b610268600480803590602001909190803590602001909190505061092e565b604051808215151515815260200191505060405180910390f35b610351600480803590602001909190803573ffffffffffffffffffffffffffffffffffffffff169060200190919080359060200190820180359060200190808060200260200160405190810160405280939291908181526020018383602002808284378201915050505050509190803590602001909190803590602001909190803590602001909190803560ff16906020019091908035906020019091908035151590602001909190803573ffffffffffffffffffffffffffffffffffffffff169060200190919050506114d3565b005b610369600480803590602001909190505061166d565b6040518082815260200191505060405180910390f35b6103b4600480803590602001909190803573ffffffffffffffffffffffffffffffffffffffff16906020019091905050611709565b604051808215151515815260200191505060405180910390f35b6103ed6004808035906020019091908035906020019091905050611b49565b6040518082600360200280838360005b838110156104185780820151818401526020810190506103fd565b5050505090500191505060405180910390f35b6104416004808035906020019091905050611bf7565b604051808215151515815260200191505060405180910390f35b6104716004808035906020019091905050611c93565b604051808215151515815260200191505060405180910390f35b6104e1600480803590602001909190803590602001908201803590602001908080602002602001604051908101604052809392919081815260200183836020028082843782019150505050505091905050611d2f565b604051808215151515815260200191505060405180910390f35b610530600480803590602001909190803573ffffffffffffffffffffffffffffffffffffffff16906020019091905050611ddb565b604051808215151515815260200191505060405180910390f35b60008160000173__CrowdsaleLib__________________________636eee0e9290916000604051602001526040518263ffffffff167c01000000000000000000000000000000000000000000000000000000000281526004018082815260200191505060206040518083038186803b15156105c457600080fd5b6102c65a03f415156105d557600080fd5b505050604051805190509050919050565b60008160000173__CrowdsaleLib__________________________63d34e327490916000604051602001526040518263ffffffff167c01000000000000000000000000000000000000000000000000000000000281526004018082815260200191505060206040518083038186803b151561066057600080fd5b6102c65a03f4151561067157600080fd5b505050604051805190509050919050565b60008160000173__CrowdsaleLib__________________________6310bc04e790916000604051602001526040518263ffffffff167c01000000000000000000000000000000000000000000000000000000000281526004018082815260200191505060206040518083038186803b15156106fc57600080fd5b6102c65a03f4151561070d57600080fd5b505050604051805190509050919050565b60008061072a8361221a565b90508260000173__CrowdsaleLib__________________________633617dbba90916000604051602001526040518263ffffffff167c01000000000000000000000000000000000000000000000000000000000281526004018082815260200191505060206040518083038186803b15156107a457600080fd5b6102c65a03f415156107b557600080fd5b50505060405180519050915050919050565b6000806107d38461221a565b90508360000173__CrowdsaleLib__________________________6314f1d11b9091856000604051602001526040518363ffffffff167c0100000000000000000000000000000000000000000000000000000000028152600401808381526020018281526020019250505060206040518083038186803b151561085557600080fd5b6102c65a03f4151561086657600080fd5b5050506040518051905080156108795750805b91505092915050565b6000808360000160000160009054906101000a900473ffffffffffffffffffffffffffffffffffffffff1673ffffffffffffffffffffffffffffffffffffffff163373ffffffffffffffffffffffffffffffffffffffff161415156108e657600080fd5b600090505b82518110156109235761091584848381518110151561090657fe5b90602001906020020151611ddb565b5080806001019150506108eb565b600191505092915050565b6000806000806000806000806000808b60000160000160009054906101000a900473ffffffffffffffffffffffffffffffffffffffff1673ffffffffffffffffffffffffffffffffffffffff163373ffffffffffffffffffffffffffffffffffffffff161415151561099f57600080fd5b6109ab8c6000016126ba565b15156109b657600080fd5b8b600f0160003373ffffffffffffffffffffffffffffffffffffffff1673ffffffffffffffffffffffffffffffffffffffff16815260200190815260200160002060009054906101000a900460ff161515610a1057600080fd5b60018c60000160090160009054906101000a900460ff160160ff168c60000160080180549050118015610a7b57508b60000160080160018d60000160090160009054906101000a900460ff160160ff16815481101515610a6c57fe5b90600052602060002090015442115b15610cef575b60018c60000160090160009054906101000a900460ff160160ff168c60000160080180549050118015610aec57508b60000160080160018d60000160090160009054906101000a900460ff160160ff16815481101515610add57fe5b90600052602060002090015442115b15610b295760018c60000160090160008282829054906101000a900460ff160192506101000a81548160ff021916908360ff160217905550610a81565b8b600001600a0160008d6000016008018e60000160090160009054906101000a900460ff1660ff16815481101515610b5d57fe5b90600052602060002090015481526020019081526020016000206001600281101515610b8557fe5b01548c60120181905550610c028c600001600a0160008e6000016008018f60000160090160009054906101000a900460ff1660ff16815481101515610bc657fe5b90600052602060002090015481526020019081526020016000206000600281101515610bee57fe5b01548d60000161278590919063ffffffff16565b507f8d323fdcf6bf512b7fe2e0155fc98bcd3a89e178ed4f6f85bbe6b60334c3c6438c6012015460405180828152602001806020018281038252601a8152602001807f41646472657373206361702068617320696e63726561736564210000000000008152506020019250505060405180910390a17f140575aff45eb4e414ffb6ece685f9e52ecf2bb56553b9e1b716175d9a25bffa8c600001600101546040518082815260200180602001828103825260188152602001807f546f6b656e20507269636520686173206368616e6765642100000000000000008152506020019250505060405180910390a15b8b600001600201548b8d60000160060154011115610d22578b600001600201548b8d6000016006015401039450848b039a505b60008c601201541115610ecf578b60100160003373ffffffffffffffffffffffffffffffffffffffff1673ffffffffffffffffffffffffffffffffffffffff168152602001908152602001600020548c601201540392506000831415610dfb577f8756f3e78da606244d7d8c9563ce2678f294db7c57afce515849e03d5eec6c3a8b60405180828152602001806020018281038252601a8152602001807f43616e6e6f742062757420616e796d6f726520746f6b656e73210000000000008152506020019250505060405180910390a1600099506114c4565b8273__BasicMathLib__________________________631d3b9edf90918e600001600101546000604051604001526040518363ffffffff167c01000000000000000000000000000000000000000000000000000000000281526004018083815260200182815260200192505050604080518083038186803b1515610e7e57600080fd5b6102c65a03f41515610e8f57600080fd5b50505060405180519060200180519050809450819250505080151515610eb457600080fd5b670de0b6b3a764000083811515610ec757fe5b049250610ed3565b8a92505b610edd8b84612885565b9250828b0394508273__BasicMathLib__________________________631d3b9edf90918e600001600101546000604051604001526040518363ffffffff167c01000000000000000000000000000000000000000000000000000000000281526004018083815260200182815260200192505050604080518083038186803b1515610f6757600080fd5b6102c65a03f41515610f7857600080fd5b50505060405180519060200180519050809750819250505080151515610f9d57600080fd5b670de0b6b3a764000086811515610fb057fe5b049750670de0b6b3a764000086811515610fc657fe5b0693508b6000016001015484811515610fdb57fe5b0493508385019450838b039a50848c600001600d0160003373ffffffffffffffffffffffffffffffffffffffff1673ffffffffffffffffffffffffffffffffffffffff168152602001908152602001600020600082825401925050819055508383038c600001600b0160003373ffffffffffffffffffffffffffffffffffffffff1673ffffffffffffffffffffffffffffffffffffffff168152602001908152602001600020600082825401925050819055508b600001600e0160009054906101000a900473ffffffffffffffffffffffffffffffffffffffff1673ffffffffffffffffffffffffffffffffffffffff166370a08231306000604051602001526040518263ffffffff167c0100000000000000000000000000000000000000000000000000000000028152600401808273ffffffffffffffffffffffffffffffffffffffff1673ffffffffffffffffffffffffffffffffffffffff168152602001915050602060405180830381600087803b151561115857600080fd5b6102c65a03f1151561116957600080fd5b50505060405180519050881115151561117e57fe5b8b6000016006015473__BasicMathLib__________________________6366098d4f90918d6000604051604001526040518363ffffffff167c01000000000000000000000000000000000000000000000000000000000281526004018083815260200182815260200192505050604080518083038186803b151561120157600080fd5b6102c65a03f4151561121257600080fd5b5050506040518051906020018051905080985081925050508015151561123757600080fd5b868c60000160060181905550878c600001600c0160003373ffffffffffffffffffffffffffffffffffffffff1673ffffffffffffffffffffffffffffffffffffffff16815260200190815260200160002060008282540192505081905550878c60100160003373ffffffffffffffffffffffffffffffffffffffff1673ffffffffffffffffffffffffffffffffffffffff168152602001908152602001600020600082825401925050819055508b600001600c0160008d60000160000160009054906101000a900473ffffffffffffffffffffffffffffffffffffffff1673ffffffffffffffffffffffffffffffffffffffff1673ffffffffffffffffffffffffffffffffffffffff1681526020019081526020016000205473__BasicMathLib__________________________63f4f3bdc190918a6000604051604001526040518363ffffffff167c01000000000000000000000000000000000000000000000000000000000281526004018083815260200182815260200192505050604080518083038186803b15156113cb57600080fd5b6102c65a03f415156113dc57600080fd5b5050506040518051906020018051905080955081925050508015151561140157600080fd5b838c600001600c0160008e60000160000160009054906101000a900473ffffffffffffffffffffffffffffffffffffffff1673ffffffffffffffffffffffffffffffffffffffff1673ffffffffffffffffffffffffffffffffffffffff168152602001908152602001600020819055503373ffffffffffffffffffffffffffffffffffffffff167f58e85e03761641c3aabc1113bca56bd151f1381debda5a1805aa1fbd3662c46d896040518082815260200191505060405180910390a2600199505b50505050505050505092915050565b8960000173__CrowdsaleLib__________________________63d11bd57f90918b8b8b8b8b8b896040518963ffffffff167c0100000000000000000000000000000000000000000000000000000000028152600401808981526020018873ffffffffffffffffffffffffffffffffffffffff1673ffffffffffffffffffffffffffffffffffffffff168152602001806020018781526020018681526020018581526020018460ff1660ff1681526020018373ffffffffffffffffffffffffffffffffffffffff1673ffffffffffffffffffffffffffffffffffffffff168152602001828103825288818151815260200191508051906020019060200280838360005b838110156115f05780820151818401526020810190506115d5565b50505050905001995050505050505050505060006040518083038186803b151561161957600080fd5b6102c65a03f4151561162a57600080fd5b50505060008311151561163c57600080fd5b828a60120181905550818a60130160006101000a81548160ff02191690831515021790555050505050505050505050565b60008160000173__CrowdsaleLib__________________________6319c5f76b90916000604051602001526040518263ffffffff167c01000000000000000000000000000000000000000000000000000000000281526004018082815260200191505060206040518083038186803b15156116e757600080fd5b6102c65a03f415156116f857600080fd5b505050604051805190509050919050565b60008060008460000160000160009054906101000a900473ffffffffffffffffffffffffffffffffffffffff1673ffffffffffffffffffffffffffffffffffffffff163373ffffffffffffffffffffffffffffffffffffffff16148061179a57503073ffffffffffffffffffffffffffffffffffffffff163373ffffffffffffffffffffffffffffffffffffffff16145b15156117a557600080fd5b8460130160009054906101000a900460ff161580156117cf5750611c208560000160030154034210155b1561189f577fdb11040f6d23480aebdb6437e68c6cc6387e1b1ee6b21cca4c43312d24a4c8c884604051808273ffffffffffffffffffffffffffffffffffffffff1673ffffffffffffffffffffffffffffffffffffffff168152602001806020018281038252603f8152602001807f43616e206f6e6c7920756e7265676973746572207573657273206561726c696581526020017f72207468616e203220686f757273206265666f7265207468652073616c6521008152506040019250505060405180910390a160009250611b41565b84600f0160008573ffffffffffffffffffffffffffffffffffffffff1673ffffffffffffffffffffffffffffffffffffffff16815260200190815260200160002060009054906101000a900460ff1615156119bf577fdb11040f6d23480aebdb6437e68c6cc6387e1b1ee6b21cca4c43312d24a4c8c884604051808273ffffffffffffffffffffffffffffffffffffffff1673ffffffffffffffffffffffffffffffffffffffff168152602001806020018281038252602f8152602001807f52656769737472616e742061646472657373206e6f742072656769737465726581526020017f6420666f72207468652073616c652100000000000000000000000000000000008152506040019250505060405180910390a160009250611b41565b600085600f0160008673ffffffffffffffffffffffffffffffffffffffff1673ffffffffffffffffffffffffffffffffffffffff16815260200190815260200160002060006101000a81548160ff021916908315150217905550846011015473__BasicMathLib__________________________63f4f3bdc1909160016000604051604001526040518363ffffffff167c01000000000000000000000000000000000000000000000000000000000281526004018083815260200182815260200192505050604080518083038186803b1515611a9a57600080fd5b6102c65a03f41515611aab57600080fd5b50505060405180519060200180519050809350819250505080151515611ad057600080fd5b8185601101819055507ff4feccbb86b1e3ed44c295752216a4576783a17ab625721f4671540a49b955e984604051808273ffffffffffffffffffffffffffffffffffffffff1673ffffffffffffffffffffffffffffffffffffffff16815260200191505060405180910390a1600192505b505092915050565b611b516128c2565b8260000173__CrowdsaleLib__________________________63d7bc09599091846000604051606001526040518363ffffffff167c0100000000000000000000000000000000000000000000000000000000028152600401808381526020018281526020019250505060606040518083038186803b1515611bd157600080fd5b6102c65a03f41515611be257600080fd5b50505060405180606001604052905092915050565b60008160000173__CrowdsaleLib__________________________63b5d8816390916000604051602001526040518263ffffffff167c01000000000000000000000000000000000000000000000000000000000281526004018082815260200191505060206040518083038186803b1515611c7157600080fd5b6102c65a03f41515611c8257600080fd5b505050604051805190509050919050565b60008160000173__CrowdsaleLib__________________________63d06f9a5e90916000604051602001526040518263ffffffff167c01000000000000000000000000000000000000000000000000000000000281526004018082815260200191505060206040518083038186803b1515611d0d57600080fd5b6102c65a03f41515611d1e57600080fd5b505050604051805190509050919050565b6000808360000160000160009054906101000a900473ffffffffffffffffffffffffffffffffffffffff1673ffffffffffffffffffffffffffffffffffffffff163373ffffffffffffffffffffffffffffffffffffffff16141515611d9357600080fd5b600090505b8251811015611dd057611dc2848483815181101515611db357fe5b90602001906020020151611709565b508080600101915050611d98565b600191505092915050565b60008060008460000160000160009054906101000a900473ffffffffffffffffffffffffffffffffffffffff1673ffffffffffffffffffffffffffffffffffffffff163373ffffffffffffffffffffffffffffffffffffffff161480611e6c57503073ffffffffffffffffffffffffffffffffffffffff163373ffffffffffffffffffffffffffffffffffffffff16145b1515611e7757600080fd5b8460130160009054906101000a900460ff16158015611ea15750611c208560000160030154034210155b15611f71577fdb11040f6d23480aebdb6437e68c6cc6387e1b1ee6b21cca4c43312d24a4c8c884604051808273ffffffffffffffffffffffffffffffffffffffff1673ffffffffffffffffffffffffffffffffffffffff168152602001806020018281038252603d8152602001807f43616e206f6e6c79207265676973746572207573657273206561726c6965722081526020017f7468616e203220686f757273206265666f7265207468652073616c65210000008152506040019250505060405180910390a160009250612212565b84600f0160008573ffffffffffffffffffffffffffffffffffffffff1673ffffffffffffffffffffffffffffffffffffffff16815260200190815260200160002060009054906101000a900460ff1615612090577fdb11040f6d23480aebdb6437e68c6cc6387e1b1ee6b21cca4c43312d24a4c8c884604051808273ffffffffffffffffffffffffffffffffffffffff1673ffffffffffffffffffffffffffffffffffffffff16815260200180602001828103825260368152602001807f52656769737472616e74206164647265737320697320616c726561647920726581526020017f676973746572656420666f72207468652073616c6521000000000000000000008152506040019250505060405180910390a160009250612212565b600185600f0160008673ffffffffffffffffffffffffffffffffffffffff1673ffffffffffffffffffffffffffffffffffffffff16815260200190815260200160002060006101000a81548160ff021916908315150217905550846011015473__BasicMathLib__________________________6366098d4f909160016000604051604001526040518363ffffffff167c01000000000000000000000000000000000000000000000000000000000281526004018083815260200182815260200192505050604080518083038186803b151561216b57600080fd5b6102c65a03f4151561217c57600080fd5b505050604051805190602001805190508093508192505050801515156121a157600080fd5b8185601101819055507fa28576aa71409e890d90a3b4642d4d95b7f26dc5b969e9b915067e531b73938d84604051808273ffffffffffffffffffffffffffffffffffffffff1673ffffffffffffffffffffffffffffffffffffffff16815260200191505060405180910390a1600192505b505092915050565b600080600080600080866011015411151561223457600080fd5b600086600001600e0160009054906101000a900473ffffffffffffffffffffffffffffffffffffffff1673ffffffffffffffffffffffffffffffffffffffff166370a08231306000604051602001526040518263ffffffff167c0100000000000000000000000000000000000000000000000000000000028152600401808273ffffffffffffffffffffffffffffffffffffffff1673ffffffffffffffffffffffffffffffffffffffff168152602001915050602060405180830381600087803b151561230057600080fd5b6102c65a03f1151561231157600080fd5b5050506040518051905011151561232757600080fd5b8560130160009054906101000a900460ff161561234757600094506126b1565b8560000160090160049054906101000a900460ff1615151561236857600080fd5b856011015486600001600e0160009054906101000a900473ffffffffffffffffffffffffffffffffffffffff1673ffffffffffffffffffffffffffffffffffffffff166370a08231306000604051602001526040518263ffffffff167c0100000000000000000000000000000000000000000000000000000000028152600401808273ffffffffffffffffffffffffffffffffffffffff1673ffffffffffffffffffffffffffffffffffffffff168152602001915050602060405180830381600087803b151561243757600080fd5b6102c65a03f1151561244857600080fd5b5050506040518051905081151561245b57fe5b049350600090505b85600001600801805490508110156125d15785600001600a016000876000016008018381548110151561249257fe5b906000526020600020900154815260200190815260200160002060016002811015156124ba57fe5b015473__BasicMathLib__________________________631d3b9edf9091866000604051604001526040518363ffffffff167c01000000000000000000000000000000000000000000000000000000000281526004018083815260200182815260200192505050604080518083038186803b151561253757600080fd5b6102c65a03f4151561254857600080fd5b5050506040518051906020018051905080945081935050508115151561256d57600080fd5b60648381151561257957fe5b0486600001600a016000886000016008018481548110151561259757fe5b906000526020600020900154815260200190815260200160002060016002811015156125bf57fe5b01819055508080600101915050612463565b85600001600a0160008760000160080160008154811015156125ef57fe5b9060005260206000209001548152602001908152602001600020600160028110151561261757fe5b015486601201819055507f9e28739d4887d9040e65dbc68bb8ad344a31e225ee58b019b7d97bdd7bc141ac86600001600201548760110154886012015460405180848152602001838152602001828152602001806020018281038252601b8152602001807f4164647265737320636170207761732043616c63756c6174656421000000000081525060200194505050505060405180910390a15b50505050919050565b600080600034141590506126cd836128a1565b80156126d65750805b156126e4576001915061277f565b7f8756f3e78da606244d7d8c9563ce2678f294db7c57afce515849e03d5eec6c3a346040518082815260200180602001828103825260378152602001807f496e76616c69642050757263686173652120436865636b20737461727420746981526020017f6d6520616e6420616d6f756e74206f662065746865722e0000000000000000008152506040019250505060405180910390a1600091505b50919050565b6000806000808411151561279857600080fd5b846005015473__BasicMathLib__________________________631d3b9edf90918760090160019054906101000a900460ff1660ff16600a0a6000604051604001526040518363ffffffff167c01000000000000000000000000000000000000000000000000000000000281526004018083815260200182815260200192505050604080518083038186803b151561282f57600080fd5b6102c65a03f4151561284057600080fd5b5050506040518051906020018051905080925081935050508115151561286557600080fd5b838181151561287057fe5b04856001018190555060019250505092915050565b6000818310156128975782905061289b565b8190505b92915050565b6000816003015442101580156128bb575081600401544211155b9050919050565b6060604051908101604052806003905b60008152602001906001900390816128d257905050905600a165627a7a723058201a4a9a58b747c013894d74fa2b69c44ba628f005abe840d4a96699e37fe4e93e0029",
  "source": "pragma solidity ^0.4.18;\n\n/**\n * @title EvenDistroCrowdsaleLib\n * @author Majoolr.io\n *\n * version 2.1.0\n * Copyright (c) 2017 Majoolr, LLC\n * The MIT License (MIT)\n * https://github.com/Majoolr/ethereum-libraries/blob/master/LICENSE\n *\n * The EvenDistroCrowdsale Library provides functionality to create a initial coin offering\n * for a standard token sale with high demand where the amount of ether a single address\n * can contribute is calculated by dividing the sale's contribution cap by the number\n * of addresses who register before the sale starts\n *\n * Majoolr provides smart contract services and security reviews for contract\n * deployments in addition to working on open source projects in the Ethereum\n * community. Our purpose is to test, document, and deploy reusable code onto the\n * blockchain and improve both security and usability. We also educate non-profits,\n * schools, and other community members about the application of blockchain\n * technology. For further information: majoolr.io\n *\n * THE SOFTWARE IS PROVIDED \"AS IS\", WITHOUT WARRANTY OF ANY KIND, EXPRESS\n * OR IMPLIED, INCLUDING BUT NOT LIMITED TO THE WARRANTIES OF\n * MERCHANTABILITY, FITNESS FOR A PARTICULAR PURPOSE AND NONINFRINGEMENT.\n * IN NO EVENT SHALL THE AUTHORS OR COPYRIGHT HOLDERS BE LIABLE FOR ANY\n * CLAIM, DAMAGES OR OTHER LIABILITY, WHETHER IN AN ACTION OF CONTRACT,\n * TORT OR OTHERWISE, ARISING FROM, OUT OF OR IN CONNECTION WITH THE\n * SOFTWARE OR THE USE OR OTHER DEALINGS IN THE SOFTWARE.\n */\n\nimport \"./BasicMathLib.sol\";\nimport \"./TokenLib.sol\";\nimport \"./CrowdsaleLib.sol\";\n\nlibrary EvenDistroCrowdsaleLib {\n  using BasicMathLib for uint256;\n  using CrowdsaleLib for CrowdsaleLib.CrowdsaleStorage;\n\n  struct EvenDistroCrowdsaleStorage {\n\n  \tCrowdsaleLib.CrowdsaleStorage base; // base storage from CrowdsaleLib\n\n    // mapping showing which addresses have registered for the sale. can only be changed by the owner\n    mapping (address => bool) isRegistered;\n\n    // tracks the total number of tokens bought for each address\n    mapping(address => uint256) tokensBought;\n\n    uint256 numRegistered; // records how many addresses have registered\n    uint256 addressTokenCap; // cap on how much wei an address can contribute in the sale\n    bool staticCap; // true if the given address cap amounts are set on initialization\n  }\n\n\n  event LogTokensBought(address indexed buyer, uint256 amount);\n  event LogTokenPriceChange(uint256 amount, string Msg);\n  event LogErrorMsg(uint256 amount, string Msg);\n\n  // Logs when a user is registered in the system before the sale\n  event LogUserRegistered(address registrant);\n\n  // Logs when a user is unregistered from the system before the sale\n  event LogUserUnRegistered(address registrant);\n\n  // Logs when there is an error with user registration\n  event LogRegError(address user, string Msg);\n\n  // Logs when there is an increase in the contribution cap per address\n  event LogAddressTokenCapChange(uint256 amount, string Msg);\n\n  // Logs when the address cap is initially calculated\n  event LogAddressTokenCapCalculated(uint256 saleCap, uint256 numRegistered, uint256 cap, string Msg);\n\n  /// @dev Called by a crowdsale contract upon creation.\n  /// @param self Stored crowdsale from crowdsale contract\n  /// @param _owner Address of crowdsale owner\n  /// @param _saleData Array of 3 item sets such that, in each 3 element\n  /// set, 1 is timestamp, 2 is price in cents at that time,\n  /// 3 is address purchase cap at that time, 0 if no address cap\n  /// @param _fallbackExchangeRate Exchange rate of cents/ETH\n  /// @param _capAmountInCents Total to be raised in cents\n  /// @param _endTime Timestamp of sale end time\n  /// @param _percentBurn Percentage of extra tokens to burn\n  /// @param _staticCap Whether or not the address cap is going to be static\n  /// @param _token Token being sold\n  function init(EvenDistroCrowdsaleStorage storage self,\n                address _owner,\n                uint256[] _saleData,\n                uint256 _fallbackExchangeRate,\n                uint256 _capAmountInCents,\n                uint256 _endTime,\n                uint8 _percentBurn,\n                uint256 _initialAddressTokenCap,\n                bool _staticCap,\n                CrowdsaleToken _token)\n                public\n  {\n  \tself.base.init(_owner,\n                   _saleData,\n                   _fallbackExchangeRate,\n                   _capAmountInCents,\n                   _endTime,\n                   _percentBurn,\n                   _token);\n\n    require(_initialAddressTokenCap > 0);\n    self.addressTokenCap = _initialAddressTokenCap;\n    self.staticCap = _staticCap;\n  }\n\n  /// @dev register user function. can only be called by the owner when a user registers on the web app.\n  /// puts their address in the registered mapping and increments the numRegistered\n  /// @param self Stored crowdsale from crowdsale contract\n  /// @param _registrant address to be registered for the sale\n  function registerUser(EvenDistroCrowdsaleStorage storage self, address _registrant)\n                        public\n                        returns (bool)\n  {\n    require((msg.sender == self.base.owner) || (msg.sender == address(this)));\n    // if the change interval is 0, then registration is allowed throughout the\n    // sale since a cap doesn't need to be calculated\n    if ((!self.staticCap) && (now >= self.base.startTime - 2 hours)) {\n      LogRegError(_registrant, \"Can only register users earlier than 2 hours before the sale!\");\n      return false;\n    }\n    if(self.isRegistered[_registrant]) {\n      LogRegError(_registrant, \"Registrant address is already registered for the sale!\");\n      return false;\n    }\n\n    uint256 result;\n    bool err;\n\n    self.isRegistered[_registrant] = true;\n    (err,result) = self.numRegistered.plus(1);\n    require(!err);\n    self.numRegistered = result;\n\n    LogUserRegistered(_registrant);\n\n    return true;\n  }\n\n  /// @dev registers multiple users at the same time\n  /// @param self Stored crowdsale from crowdsale contract\n  /// @param _registrants addresses to register for the sale\n  function registerUsers(EvenDistroCrowdsaleStorage storage self, address[] _registrants)\n                         public\n                         returns (bool)\n  {\n    require(msg.sender == self.base.owner);\n\n    for (uint256 i = 0; i < _registrants.length; i++) {\n      registerUser(self,_registrants[i]);\n    }\n    return true;\n  }\n\n  /// @dev Cancels a user's registration status can only be called by the owner when a user cancels their registration.\n  /// sets their address field in the registered mapping to false and decrements the numRegistered\n  /// @param self Stored crowdsale from crowdsale contract\n  function unregisterUser(EvenDistroCrowdsaleStorage storage self, address _registrant)\n                          public\n                          returns (bool)\n  {\n    require((msg.sender == self.base.owner) || (msg.sender == address(this)));\n    if ((!self.staticCap) && (now >= self.base.startTime - 2 hours)) {\n      LogRegError(_registrant, \"Can only unregister users earlier than 2 hours before the sale!\");\n      return false;\n    }\n    if(!self.isRegistered[_registrant]) {\n      LogRegError(_registrant, \"Registrant address not registered for the sale!\");\n      return false;\n    }\n\n    uint256 result;\n    bool err;\n\n    self.isRegistered[_registrant] = false;\n    (err,result) = self.numRegistered.minus(1);\n    require(!err);\n    self.numRegistered = result;\n\n    LogUserUnRegistered(_registrant);\n\n    return true;\n  }\n\n  /// @dev unregisters multiple users at the same time\n  /// @param self Stored crowdsale from crowdsale contract\n  /// @param _registrants addresses to unregister for the sale\n  function unregisterUsers(EvenDistroCrowdsaleStorage storage self, address[] _registrants)\n                           public\n                           returns (bool)\n  {\n    require(msg.sender == self.base.owner);\n\n    for (uint256 i = 0; i < _registrants.length; i++) {\n      unregisterUser(self,_registrants[i]);\n    }\n    return true;\n  }\n\n  /// @dev function that calculates address cap from the number of users registered\n  /// @param self Stored crowdsale from crowdsale contract\n  function calculateAddressTokenCap(EvenDistroCrowdsaleStorage storage self)\n                                    internal\n                                    returns (bool)\n  {\n    require(self.numRegistered > 0);\n    require(self.base.token.balanceOf(this) > 0);\n\n    if (self.staticCap)  {\n      return false;\n    }\n    require(!self.base.rateSet);  // makes sure this can only be called once\n\n    uint256 _baseCap;\n    uint256 _calcCap;\n    bool err;\n\n    _baseCap = (self.base.token.balanceOf(this))/self.numRegistered; // numRegistered required to be > 0\n\n    for(uint256 i = 0; i < self.base.milestoneTimes.length; i++){\n      (err,_calcCap) = self.base.saleData[self.base.milestoneTimes[i]][1].times(_baseCap);\n      require(!err);\n      self.base.saleData[self.base.milestoneTimes[i]][1] = _calcCap/100;\n    }\n\n    self.addressTokenCap = self.base.saleData[self.base.milestoneTimes[0]][1];\n    LogAddressTokenCapCalculated(self.base.capAmount, self.numRegistered, self.addressTokenCap, \"Address cap was Calculated!\");\n  }\n\n  /// @dev utility function for the receivePurchase function. returns the lower number\n  /// @param a first argument\n  /// @param b second argument\n  function getMin(uint256 a, uint256 b) internal pure returns (uint256) {\n    if (a<b) { return a; } else { return b; }\n  }\n\n\n  /// @dev Called when an address wants to purchase tokens\n  /// @param self Stored crowdsale from crowdsale contract\n  /// @param _amount amound of wei that the buyer is sending\n  /// @return true on succesful purchase\n  function receivePurchase(EvenDistroCrowdsaleStorage storage self, uint256 _amount)\n                           public\n                           returns (bool)\n  {\n    require(msg.sender != self.base.owner);\n    require(self.base.validPurchase());\n    require(self.isRegistered[msg.sender]);\n\n    uint256 result;\n\n  \t// if the address cap increase interval has passed, update the current day and change the address cap\n  \tif ((self.base.milestoneTimes.length > self.base.currentMilestone + 1) &&\n        (now > self.base.milestoneTimes[self.base.currentMilestone + 1]))\n    {\n      while((self.base.milestoneTimes.length > self.base.currentMilestone + 1) &&\n            (now > self.base.milestoneTimes[self.base.currentMilestone + 1]))\n      {\n        self.base.currentMilestone += 1;\n      }\n\n      self.addressTokenCap = self.base.saleData[self.base.milestoneTimes[self.base.currentMilestone]][1];\n\n      self.base.changeTokenPrice(self.base.saleData[self.base.milestoneTimes[self.base.currentMilestone]][0]);\n\n      LogAddressTokenCapChange(self.addressTokenCap, \"Address cap has increased!\");\n      LogTokenPriceChange(self.base.tokensPerEth,\"Token Price has changed!\");\n  \t}\n\n    uint256 _numTokens; //number of tokens that will be purchased\n    uint256 _newBalance; //the new balance of the owner of the crowdsale\n    uint256 _weiTokens; //temp calc holder\n    uint256 _leftoverWei; //wei change for purchaser\n    uint256 _remainder; //temp calc holder\n    uint256 _allowedWei;  // tells how much more the buyer can contribute up to their cap\n    uint256 _allowedTokens; // number of tokens the buyer is allowed to purchase\n    bool err;\n\n    if((self.base.ownerBalance + _amount) > self.base.capAmount){\n      _leftoverWei = (self.base.ownerBalance + _amount) - self.base.capAmount;\n      _amount = _amount - _leftoverWei;\n    }\n\n    if(self.addressTokenCap > 0) {\n      //_allowedWei represents tokens first, recycle variable to prevent stack depth issues\n      _allowedWei = self.addressTokenCap - self.tokensBought[msg.sender];\n      if(_allowedWei == 0){\n        LogErrorMsg(_amount, \"Cannot but anymore tokens!\");\n        return false;\n      }\n\n      (err, _allowedWei) = _allowedWei.times(self.base.tokensPerEth);\n      require(!err);\n\n      _allowedWei = _allowedWei/1000000000000000000;\n    } else {\n      // if addressTokenCap is zero then there is no cap\n      _allowedWei = _amount;\n    }\n\n    _allowedWei = getMin(_amount,_allowedWei);\n    _leftoverWei = _amount - _allowedWei;\n\n    // Find the number of tokens as a function in wei\n    (err,_weiTokens) = _allowedWei.times(self.base.tokensPerEth);\n    require(!err);\n\n    _numTokens = _weiTokens / 1000000000000000000;\n    _remainder = _weiTokens % 1000000000000000000;\n    _remainder = _remainder / self.base.tokensPerEth;\n    _leftoverWei = _leftoverWei + _remainder;\n    _amount = _amount - _remainder;\n    self.base.leftoverWei[msg.sender] += _leftoverWei;\n\n    // can't overflow because it is under the cap\n    self.base.hasContributed[msg.sender] += _allowedWei - _remainder;\n\n    assert(_numTokens <= self.base.token.balanceOf(this));\n\n    // calculate the amount of ether in the owners balance\n    (err,_newBalance) = self.base.ownerBalance.plus(_amount);\n    require(!err);\n\n    self.base.ownerBalance = _newBalance;   // \"deposit\" the amount\n\n    // can't overflow because it will be under the cap\n    self.base.withdrawTokensMap[msg.sender] += _numTokens;\n    self.tokensBought[msg.sender] += _numTokens;\n\n    //subtract tokens from owner's share\n    (err,_remainder) = self.base.withdrawTokensMap[self.base.owner].minus(_numTokens);\n    require(!err);\n    self.base.withdrawTokensMap[self.base.owner] = _remainder;\n\n    LogTokensBought(msg.sender, _numTokens);\n\n    return true;\n  }\n\n  /*Functions \"inherited\" from CrowdsaleLib library*/\n\n  function setTokenExchangeRate(EvenDistroCrowdsaleStorage storage self, uint256 _exchangeRate)\n                                public\n                                returns (bool)\n  {\n    bool ok = calculateAddressTokenCap(self);\n    return self.base.setTokenExchangeRate(_exchangeRate) && ok;\n  }\n\n  function setTokens(EvenDistroCrowdsaleStorage storage self) public returns (bool) {\n    bool ok = calculateAddressTokenCap(self);\n    return self.base.setTokens();\n  }\n\n  function withdrawTokens(EvenDistroCrowdsaleStorage storage self) public returns (bool) {\n    return self.base.withdrawTokens();\n  }\n\n  function withdrawLeftoverWei(EvenDistroCrowdsaleStorage storage self) public returns (bool) {\n    return self.base.withdrawLeftoverWei();\n  }\n\n  function withdrawOwnerEth(EvenDistroCrowdsaleStorage storage self) public returns (bool) {\n    return self.base.withdrawOwnerEth();\n  }\n\n  function getSaleData(EvenDistroCrowdsaleStorage storage self, uint256 timestamp)\n                       public\n                       view\n                       returns (uint256[3])\n  {\n    return self.base.getSaleData(timestamp);\n  }\n\n  function getTokensSold(EvenDistroCrowdsaleStorage storage self) public view returns (uint256) {\n    return self.base.getTokensSold();\n  }\n\n  function crowdsaleActive(EvenDistroCrowdsaleStorage storage self) public view returns (bool) {\n    return self.base.crowdsaleActive();\n  }\n\n  function crowdsaleEnded(EvenDistroCrowdsaleStorage storage self) public view returns (bool) {\n    return self.base.crowdsaleEnded();\n  }\n}\n",
  "sourcePath": "/Users/hackdom/Projects/ethereum-libraries/CrowdsaleLib/EvenDistroCrowdsale/truffle/contracts/EvenDistroCrowdsaleLib.sol",
  "compiler": {
    "name": "solc",
    "version": "0.4.18+commit.9cf6e910.Emscripten.clang"
  },
  "schemaVersion": "1.0.1",
  "updatedAt": "2017-12-08T09:04:05.256Z"
}