{
  "contractName": "EvenDistroCrowdsaleLib",
  "abi": [
    {
      "constant": true,
      "inputs": [
        {
          "name": "self",
          "type": "EvenDistroCrowdsaleLib.EvenDistroCrowdsaleStorage storage"
        }
      ],
      "name": "crowdsaleActive",
      "outputs": [
        {
          "name": "",
          "type": "bool"
        }
      ],
      "payable": false,
      "stateMutability": "view",
      "type": "function"
    },
    {
      "constant": false,
      "inputs": [
        {
          "name": "self",
          "type": "EvenDistroCrowdsaleLib.EvenDistroCrowdsaleStorage storage"
        }
      ],
      "name": "withdrawOwnerEth",
      "outputs": [
        {
          "name": "",
          "type": "bool"
        }
      ],
      "payable": false,
      "stateMutability": "nonpayable",
      "type": "function"
    },
    {
      "constant": false,
      "inputs": [
        {
          "name": "self",
          "type": "EvenDistroCrowdsaleLib.EvenDistroCrowdsaleStorage storage"
        },
        {
          "name": "_owner",
          "type": "address"
        },
        {
          "name": "_saleData",
          "type": "uint256[]"
        },
        {
          "name": "_endTime",
          "type": "uint256"
        },
        {
          "name": "_percentBurn",
          "type": "uint8"
        },
        {
          "name": "_initialAddressTokenCap",
          "type": "uint256"
        },
        {
          "name": "_staticCap",
          "type": "bool"
        },
        {
          "name": "_token",
          "type": "CrowdsaleToken"
        }
      ],
      "name": "init",
      "outputs": [],
      "payable": false,
      "stateMutability": "nonpayable",
      "type": "function"
    },
    {
      "constant": true,
      "inputs": [
        {
          "name": "self",
          "type": "EvenDistroCrowdsaleLib.EvenDistroCrowdsaleStorage storage"
        }
      ],
      "name": "crowdsaleEnded",
      "outputs": [
        {
          "name": "",
          "type": "bool"
        }
      ],
      "payable": false,
      "stateMutability": "view",
      "type": "function"
    },
    {
      "constant": false,
      "inputs": [
        {
          "name": "self",
          "type": "EvenDistroCrowdsaleLib.EvenDistroCrowdsaleStorage storage"
        }
      ],
      "name": "setTokens",
      "outputs": [
        {
          "name": "",
          "type": "bool"
        }
      ],
      "payable": false,
      "stateMutability": "nonpayable",
      "type": "function"
    },
    {
      "constant": false,
      "inputs": [
        {
          "name": "self",
          "type": "EvenDistroCrowdsaleLib.EvenDistroCrowdsaleStorage storage"
        },
        {
          "name": "_registrants",
          "type": "address[]"
        }
      ],
      "name": "registerUsers",
      "outputs": [
        {
          "name": "",
          "type": "bool"
        }
      ],
      "payable": false,
      "stateMutability": "nonpayable",
      "type": "function"
    },
    {
      "constant": false,
      "inputs": [
        {
          "name": "self",
          "type": "EvenDistroCrowdsaleLib.EvenDistroCrowdsaleStorage storage"
        },
        {
          "name": "_amount",
          "type": "uint256"
        }
      ],
      "name": "receivePurchase",
      "outputs": [
        {
          "name": "",
          "type": "bool"
        }
      ],
      "payable": false,
      "stateMutability": "nonpayable",
      "type": "function"
    },
    {
      "constant": true,
      "inputs": [
        {
          "name": "self",
          "type": "EvenDistroCrowdsaleLib.EvenDistroCrowdsaleStorage storage"
        }
      ],
      "name": "getTokensSold",
      "outputs": [
        {
          "name": "",
          "type": "uint256"
        }
      ],
      "payable": false,
      "stateMutability": "view",
      "type": "function"
    },
    {
      "constant": false,
      "inputs": [
        {
          "name": "self",
          "type": "EvenDistroCrowdsaleLib.EvenDistroCrowdsaleStorage storage"
        },
        {
          "name": "_registrant",
          "type": "address"
        }
      ],
      "name": "unregisterUser",
      "outputs": [
        {
          "name": "",
          "type": "bool"
        }
      ],
      "payable": false,
      "stateMutability": "nonpayable",
      "type": "function"
    },
    {
      "constant": true,
      "inputs": [
        {
          "name": "self",
          "type": "EvenDistroCrowdsaleLib.EvenDistroCrowdsaleStorage storage"
        },
        {
          "name": "timestamp",
          "type": "uint256"
        }
      ],
      "name": "getSaleData",
      "outputs": [
        {
          "name": "",
          "type": "uint256[3]"
        }
      ],
      "payable": false,
      "stateMutability": "view",
      "type": "function"
    },
    {
      "constant": false,
      "inputs": [
        {
          "name": "self",
          "type": "EvenDistroCrowdsaleLib.EvenDistroCrowdsaleStorage storage"
        }
      ],
      "name": "withdrawTokens",
      "outputs": [
        {
          "name": "",
          "type": "bool"
        }
      ],
      "payable": false,
      "stateMutability": "nonpayable",
      "type": "function"
    },
    {
      "constant": false,
      "inputs": [
        {
          "name": "self",
          "type": "EvenDistroCrowdsaleLib.EvenDistroCrowdsaleStorage storage"
        }
      ],
      "name": "withdrawLeftoverWei",
      "outputs": [
        {
          "name": "",
          "type": "bool"
        }
      ],
      "payable": false,
      "stateMutability": "nonpayable",
      "type": "function"
    },
    {
      "constant": false,
      "inputs": [
        {
          "name": "self",
          "type": "EvenDistroCrowdsaleLib.EvenDistroCrowdsaleStorage storage"
        },
        {
          "name": "_registrants",
          "type": "address[]"
        }
      ],
      "name": "unregisterUsers",
      "outputs": [
        {
          "name": "",
          "type": "bool"
        }
      ],
      "payable": false,
      "stateMutability": "nonpayable",
      "type": "function"
    },
    {
      "constant": false,
      "inputs": [
        {
          "name": "self",
          "type": "EvenDistroCrowdsaleLib.EvenDistroCrowdsaleStorage storage"
        },
        {
          "name": "_registrant",
          "type": "address"
        }
      ],
      "name": "registerUser",
      "outputs": [
        {
          "name": "",
          "type": "bool"
        }
      ],
      "payable": false,
      "stateMutability": "nonpayable",
      "type": "function"
    },
    {
      "anonymous": false,
      "inputs": [
        {
          "indexed": false,
          "name": "buyer",
          "type": "address"
        },
        {
          "indexed": false,
          "name": "amount",
          "type": "uint256"
        }
      ],
      "name": "LogTokensBought",
      "type": "event"
    },
    {
      "anonymous": false,
      "inputs": [
        {
          "indexed": false,
          "name": "amount",
          "type": "uint256"
        },
        {
          "indexed": false,
          "name": "Msg",
          "type": "string"
        }
      ],
      "name": "LogTokenPriceChange",
      "type": "event"
    },
    {
      "anonymous": false,
      "inputs": [
        {
          "indexed": false,
          "name": "amount",
          "type": "uint256"
        },
        {
          "indexed": false,
          "name": "Msg",
          "type": "string"
        }
      ],
      "name": "LogErrorMsg",
      "type": "event"
    },
    {
      "anonymous": false,
      "inputs": [
        {
          "indexed": false,
          "name": "registrant",
          "type": "address"
        }
      ],
      "name": "LogUserRegistered",
      "type": "event"
    },
    {
      "anonymous": false,
      "inputs": [
        {
          "indexed": false,
          "name": "registrant",
          "type": "address"
        }
      ],
      "name": "LogUserUnRegistered",
      "type": "event"
    },
    {
      "anonymous": false,
      "inputs": [
        {
          "indexed": false,
          "name": "user",
          "type": "address"
        },
        {
          "indexed": false,
          "name": "Msg",
          "type": "string"
        }
      ],
      "name": "LogRegError",
      "type": "event"
    },
    {
      "anonymous": false,
      "inputs": [
        {
          "indexed": false,
          "name": "amount",
          "type": "uint256"
        },
        {
          "indexed": false,
          "name": "Msg",
          "type": "string"
        }
      ],
      "name": "LogAddressTokenCapChange",
      "type": "event"
    },
    {
      "anonymous": false,
      "inputs": [
        {
          "indexed": false,
          "name": "numRegistered",
          "type": "uint256"
        },
        {
          "indexed": false,
          "name": "cap",
          "type": "uint256"
        },
        {
          "indexed": false,
          "name": "Msg",
          "type": "string"
        }
      ],
      "name": "LogAddressTokenCapCalculated",
      "type": "event"
    }
  ],
  "bytecode": "0x6060604052341561000f57600080fd5b6126688061001e6000396000f3006060604052600436106100d0576000357c0100000000000000000000000000000000000000000000000000000000900463ffffffff1680630378ce23146100d557806313bffc4d1461010557806314f64faa1461013557806339508823146101f45780633b913049146102245780638b6708811461025457806398e78d6b146102c4578063a4107c90146102fd578063ac78f38f14610329578063b38ee93214610378578063bfb671e1146103d5578063c065b99e14610405578063f1618f0814610435578063fed56360146104a5575b600080fd5b6100eb60048080359060200190919050506104f4565b604051808215151515815260200191505060405180910390f35b61011b6004808035906020019091905050610590565b604051808215151515815260200191505060405180910390f35b6101f2600480803590602001909190803573ffffffffffffffffffffffffffffffffffffffff169060200190919080359060200190820180359060200190808060200260200160405190810160405280939291908181526020018383602002808284378201915050505050509190803590602001909190803560ff16906020019091908035906020019091908035151590602001909190803573ffffffffffffffffffffffffffffffffffffffff1690602001909190505061062c565b005b61020a60048080359060200190919050506107a5565b604051808215151515815260200191505060405180910390f35b61023a6004808035906020019091905050610841565b604051808215151515815260200191505060405180910390f35b6102aa6004808035906020019091908035906020019082018035906020019080806020026020016040519081016040528093929190818152602001838360200280828437820191505050505050919050506108e7565b604051808215151515815260200191505060405180910390f35b6102e36004808035906020019091908035906020019091905050610993565b604051808215151515815260200191505060405180910390f35b61031360048080359060200190919050506114ab565b6040518082815260200191505060405180910390f35b61035e600480803590602001909190803573ffffffffffffffffffffffffffffffffffffffff16906020019091905050611547565b604051808215151515815260200191505060405180910390f35b6103976004808035906020019091908035906020019091905050611987565b6040518082600360200280838360005b838110156103c25780820151818401526020810190506103a7565b5050505090500191505060405180910390f35b6103eb6004808035906020019091905050611a35565b604051808215151515815260200191505060405180910390f35b61041b6004808035906020019091905050611ad1565b604051808215151515815260200191505060405180910390f35b61048b600480803590602001909190803590602001908201803590602001908080602002602001604051908101604052809392919081815260200183836020028082843782019150505050505091905050611b6d565b604051808215151515815260200191505060405180910390f35b6104da600480803590602001909190803573ffffffffffffffffffffffffffffffffffffffff16906020019091905050611c19565b604051808215151515815260200191505060405180910390f35b60008160000173__CrowdsaleLib__________________________636eee0e9290916000604051602001526040518263ffffffff167c01000000000000000000000000000000000000000000000000000000000281526004018082815260200191505060206040518083038186803b151561056e57600080fd5b6102c65a03f4151561057f57600080fd5b505050604051805190509050919050565b60008160000173__CrowdsaleLib__________________________63d34e327490916000604051602001526040518263ffffffff167c01000000000000000000000000000000000000000000000000000000000281526004018082815260200191505060206040518083038186803b151561060a57600080fd5b6102c65a03f4151561061b57600080fd5b505050604051805190509050919050565b8760000173__CrowdsaleLib__________________________63e9e337d3909189898989876040518763ffffffff167c0100000000000000000000000000000000000000000000000000000000028152600401808781526020018673ffffffffffffffffffffffffffffffffffffffff1673ffffffffffffffffffffffffffffffffffffffff168152602001806020018581526020018460ff1660ff1681526020018373ffffffffffffffffffffffffffffffffffffffff1673ffffffffffffffffffffffffffffffffffffffff168152602001828103825286818151815260200191508051906020019060200280838360005b8381101561073b578082015181840152602081019050610720565b5050505090500197505050505050505060006040518083038186803b151561076257600080fd5b6102c65a03f4151561077357600080fd5b505050828860100181905550818860110160006101000a81548160ff0219169083151502179055505050505050505050565b60008160000173__CrowdsaleLib__________________________6310bc04e790916000604051602001526040518263ffffffff167c01000000000000000000000000000000000000000000000000000000000281526004018082815260200191505060206040518083038186803b151561081f57600080fd5b6102c65a03f4151561083057600080fd5b505050604051805190509050919050565b600061084c82612058565b508160000173__CrowdsaleLib__________________________633617dbba90916000604051602001526040518263ffffffff167c01000000000000000000000000000000000000000000000000000000000281526004018082815260200191505060206040518083038186803b15156108c557600080fd5b6102c65a03f415156108d657600080fd5b505050604051805190509050919050565b6000808360000160000160009054906101000a900473ffffffffffffffffffffffffffffffffffffffff1673ffffffffffffffffffffffffffffffffffffffff163373ffffffffffffffffffffffffffffffffffffffff1614151561094b57600080fd5b600090505b82518110156109885761097a84848381518110151561096b57fe5b90602001906020020151611c19565b508080600101915050610950565b600191505092915050565b6000806000806000806000808960000160000160009054906101000a900473ffffffffffffffffffffffffffffffffffffffff1673ffffffffffffffffffffffffffffffffffffffff163373ffffffffffffffffffffffffffffffffffffffff1614151515610a0157600080fd5b610a0d8a6000016124e9565b1515610a1857600080fd5b89600d0160003373ffffffffffffffffffffffffffffffffffffffff1673ffffffffffffffffffffffffffffffffffffffff16815260200190815260200160002060009054906101000a900460ff161515610a7257600080fd5b60018a60000160070160009054906101000a900460ff160160ff168a60000160060180549050118015610add57508960000160060160018b60000160070160009054906101000a900460ff160160ff16815481101515610ace57fe5b90600052602060002090015442115b15610d51575b60018a60000160070160009054906101000a900460ff160160ff168a60000160060180549050118015610b4e57508960000160060160018b60000160070160009054906101000a900460ff160160ff16815481101515610b3f57fe5b90600052602060002090015442115b15610b8b5760018a60000160070160008282829054906101000a900460ff160192506101000a81548160ff021916908360ff160217905550610ae3565b8960000160080160008b6000016006018c60000160070160009054906101000a900460ff1660ff16815481101515610bbf57fe5b90600052602060002090015481526020019081526020016000206001600281101515610be757fe5b01548a60100181905550610c648a60000160080160008c6000016006018d60000160070160009054906101000a900460ff1660ff16815481101515610c2857fe5b90600052602060002090015481526020019081526020016000206000600281101515610c5057fe5b01548b6000016125b490919063ffffffff16565b507f8d323fdcf6bf512b7fe2e0155fc98bcd3a89e178ed4f6f85bbe6b60334c3c6438a6010015460405180828152602001806020018281038252601a8152602001807f41646472657373206361702068617320696e63726561736564210000000000008152506020019250505060405180910390a17f140575aff45eb4e414ffb6ece685f9e52ecf2bb56553b9e1b716175d9a25bffa8a600001600101546040518082815260200180602001828103825260188152602001807f546f6b656e20507269636520686173206368616e6765642100000000000000008152506020019250505060405180910390a15b60008a601001541115610e7c5789600e0160003373ffffffffffffffffffffffffffffffffffffffff1673ffffffffffffffffffffffffffffffffffffffff168152602001908152602001600020548a601001540391508173__BasicMathLib__________________________631d3b9edf9091670de0b6b3a76400006000604051604001526040518363ffffffff167c01000000000000000000000000000000000000000000000000000000000281526004018083815260200182815260200192505050604080518083038186803b1515610e2c57600080fd5b6102c65a03f41515610e3d57600080fd5b50505060405180519060200180519050809350819250505080151515610e6257600080fd5b896000016001015482811515610e7457fe5b049150610e80565b8891505b600082111515610e8f57600080fd5b610e9989836125d7565b9150818903840193508173__BasicMathLib__________________________631d3b9edf90918c600001600101546000604051604001526040518363ffffffff167c01000000000000000000000000000000000000000000000000000000000281526004018083815260200182815260200192505050604080518083038186803b1515610f2557600080fd5b6102c65a03f41515610f3657600080fd5b50505060405180519060200180519050809650819250505080151515610f5b57600080fd5b670de0b6b3a764000085811515610f6e57fe5b049650670de0b6b3a764000085811515610f8457fe5b069250896000016001015483811515610f9957fe5b04925082840193508289039850838a600001600b0160003373ffffffffffffffffffffffffffffffffffffffff1673ffffffffffffffffffffffffffffffffffffffff168152602001908152602001600020600082825401925050819055508282038a60000160090160003373ffffffffffffffffffffffffffffffffffffffff1673ffffffffffffffffffffffffffffffffffffffff1681526020019081526020016000206000828254019250508190555089600001600c0160009054906101000a900473ffffffffffffffffffffffffffffffffffffffff1673ffffffffffffffffffffffffffffffffffffffff166370a08231306000604051602001526040518263ffffffff167c0100000000000000000000000000000000000000000000000000000000028152600401808273ffffffffffffffffffffffffffffffffffffffff1673ffffffffffffffffffffffffffffffffffffffff168152602001915050602060405180830381600087803b151561111657600080fd5b6102c65a03f1151561112757600080fd5b50505060405180519050871115151561113c57fe5b896000016004015473__BasicMathLib__________________________6366098d4f90918b6000604051604001526040518363ffffffff167c01000000000000000000000000000000000000000000000000000000000281526004018083815260200182815260200192505050604080518083038186803b15156111bf57600080fd5b6102c65a03f415156111d057600080fd5b505050604051805190602001805190508097508192505050801515156111f557600080fd5b858a60000160040181905550868a600001600a0160003373ffffffffffffffffffffffffffffffffffffffff1673ffffffffffffffffffffffffffffffffffffffff16815260200190815260200160002060008282540192505081905550868a600e0160003373ffffffffffffffffffffffffffffffffffffffff1673ffffffffffffffffffffffffffffffffffffffff1681526020019081526020016000206000828254019250508190555089600001600a0160008b60000160000160009054906101000a900473ffffffffffffffffffffffffffffffffffffffff1673ffffffffffffffffffffffffffffffffffffffff1673ffffffffffffffffffffffffffffffffffffffff1681526020019081526020016000205473__BasicMathLib__________________________63f4f3bdc19091896000604051604001526040518363ffffffff167c01000000000000000000000000000000000000000000000000000000000281526004018083815260200182815260200192505050604080518083038186803b151561138957600080fd5b6102c65a03f4151561139a57600080fd5b505050604051805190602001805190508094508192505050801515156113bf57600080fd5b828a600001600a0160008c60000160000160009054906101000a900473ffffffffffffffffffffffffffffffffffffffff1673ffffffffffffffffffffffffffffffffffffffff1673ffffffffffffffffffffffffffffffffffffffff168152602001908152602001600020819055507f58e85e03761641c3aabc1113bca56bd151f1381debda5a1805aa1fbd3662c46d3388604051808373ffffffffffffffffffffffffffffffffffffffff1673ffffffffffffffffffffffffffffffffffffffff1681526020018281526020019250505060405180910390a1600197505050505050505092915050565b60008160000173__CrowdsaleLib__________________________6319c5f76b90916000604051602001526040518263ffffffff167c01000000000000000000000000000000000000000000000000000000000281526004018082815260200191505060206040518083038186803b151561152557600080fd5b6102c65a03f4151561153657600080fd5b505050604051805190509050919050565b60008060008460000160000160009054906101000a900473ffffffffffffffffffffffffffffffffffffffff1673ffffffffffffffffffffffffffffffffffffffff163373ffffffffffffffffffffffffffffffffffffffff1614806115d857503073ffffffffffffffffffffffffffffffffffffffff163373ffffffffffffffffffffffffffffffffffffffff16145b15156115e357600080fd5b8460110160009054906101000a900460ff1615801561160d5750611c208560000160020154034210155b156116dd577fdb11040f6d23480aebdb6437e68c6cc6387e1b1ee6b21cca4c43312d24a4c8c884604051808273ffffffffffffffffffffffffffffffffffffffff1673ffffffffffffffffffffffffffffffffffffffff168152602001806020018281038252603f8152602001807f43616e206f6e6c7920756e7265676973746572207573657273206561726c696581526020017f72207468616e203220686f757273206265666f7265207468652073616c6521008152506040019250505060405180910390a16000925061197f565b84600d0160008573ffffffffffffffffffffffffffffffffffffffff1673ffffffffffffffffffffffffffffffffffffffff16815260200190815260200160002060009054906101000a900460ff1615156117fd577fdb11040f6d23480aebdb6437e68c6cc6387e1b1ee6b21cca4c43312d24a4c8c884604051808273ffffffffffffffffffffffffffffffffffffffff1673ffffffffffffffffffffffffffffffffffffffff168152602001806020018281038252602f8152602001807f52656769737472616e742061646472657373206e6f742072656769737465726581526020017f6420666f72207468652073616c652100000000000000000000000000000000008152506040019250505060405180910390a16000925061197f565b600085600d0160008673ffffffffffffffffffffffffffffffffffffffff1673ffffffffffffffffffffffffffffffffffffffff16815260200190815260200160002060006101000a81548160ff02191690831515021790555084600f015473__BasicMathLib__________________________63f4f3bdc1909160016000604051604001526040518363ffffffff167c01000000000000000000000000000000000000000000000000000000000281526004018083815260200182815260200192505050604080518083038186803b15156118d857600080fd5b6102c65a03f415156118e957600080fd5b5050506040518051906020018051905080935081925050508015151561190e57600080fd5b8185600f01819055507ff4feccbb86b1e3ed44c295752216a4576783a17ab625721f4671540a49b955e984604051808273ffffffffffffffffffffffffffffffffffffffff1673ffffffffffffffffffffffffffffffffffffffff16815260200191505060405180910390a1600192505b505092915050565b61198f612614565b8260000173__CrowdsaleLib__________________________63d7bc09599091846000604051606001526040518363ffffffff167c0100000000000000000000000000000000000000000000000000000000028152600401808381526020018281526020019250505060606040518083038186803b1515611a0f57600080fd5b6102c65a03f41515611a2057600080fd5b50505060405180606001604052905092915050565b60008160000173__CrowdsaleLib__________________________63b5d8816390916000604051602001526040518263ffffffff167c01000000000000000000000000000000000000000000000000000000000281526004018082815260200191505060206040518083038186803b1515611aaf57600080fd5b6102c65a03f41515611ac057600080fd5b505050604051805190509050919050565b60008160000173__CrowdsaleLib__________________________63d06f9a5e90916000604051602001526040518263ffffffff167c01000000000000000000000000000000000000000000000000000000000281526004018082815260200191505060206040518083038186803b1515611b4b57600080fd5b6102c65a03f41515611b5c57600080fd5b505050604051805190509050919050565b6000808360000160000160009054906101000a900473ffffffffffffffffffffffffffffffffffffffff1673ffffffffffffffffffffffffffffffffffffffff163373ffffffffffffffffffffffffffffffffffffffff16141515611bd157600080fd5b600090505b8251811015611c0e57611c00848483815181101515611bf157fe5b90602001906020020151611547565b508080600101915050611bd6565b600191505092915050565b60008060008460000160000160009054906101000a900473ffffffffffffffffffffffffffffffffffffffff1673ffffffffffffffffffffffffffffffffffffffff163373ffffffffffffffffffffffffffffffffffffffff161480611caa57503073ffffffffffffffffffffffffffffffffffffffff163373ffffffffffffffffffffffffffffffffffffffff16145b1515611cb557600080fd5b8460110160009054906101000a900460ff16158015611cdf5750611c208560000160020154034210155b15611daf577fdb11040f6d23480aebdb6437e68c6cc6387e1b1ee6b21cca4c43312d24a4c8c884604051808273ffffffffffffffffffffffffffffffffffffffff1673ffffffffffffffffffffffffffffffffffffffff168152602001806020018281038252603d8152602001807f43616e206f6e6c79207265676973746572207573657273206561726c6965722081526020017f7468616e203220686f757273206265666f7265207468652073616c65210000008152506040019250505060405180910390a160009250612050565b84600d0160008573ffffffffffffffffffffffffffffffffffffffff1673ffffffffffffffffffffffffffffffffffffffff16815260200190815260200160002060009054906101000a900460ff1615611ece577fdb11040f6d23480aebdb6437e68c6cc6387e1b1ee6b21cca4c43312d24a4c8c884604051808273ffffffffffffffffffffffffffffffffffffffff1673ffffffffffffffffffffffffffffffffffffffff16815260200180602001828103825260368152602001807f52656769737472616e74206164647265737320697320616c726561647920726581526020017f676973746572656420666f72207468652073616c6521000000000000000000008152506040019250505060405180910390a160009250612050565b600185600d0160008673ffffffffffffffffffffffffffffffffffffffff1673ffffffffffffffffffffffffffffffffffffffff16815260200190815260200160002060006101000a81548160ff02191690831515021790555084600f015473__BasicMathLib__________________________6366098d4f909160016000604051604001526040518363ffffffff167c01000000000000000000000000000000000000000000000000000000000281526004018083815260200182815260200192505050604080518083038186803b1515611fa957600080fd5b6102c65a03f41515611fba57600080fd5b50505060405180519060200180519050809350819250505080151515611fdf57600080fd5b8185600f01819055507fa28576aa71409e890d90a3b4642d4d95b7f26dc5b969e9b915067e531b73938d84604051808273ffffffffffffffffffffffffffffffffffffffff1673ffffffffffffffffffffffffffffffffffffffff16815260200191505060405180910390a1600192505b505092915050565b60008060008060008086600f015411151561207257600080fd5b600086600001600c0160009054906101000a900473ffffffffffffffffffffffffffffffffffffffff1673ffffffffffffffffffffffffffffffffffffffff166370a08231306000604051602001526040518263ffffffff167c0100000000000000000000000000000000000000000000000000000000028152600401808273ffffffffffffffffffffffffffffffffffffffff1673ffffffffffffffffffffffffffffffffffffffff168152602001915050602060405180830381600087803b151561213e57600080fd5b6102c65a03f1151561214f57600080fd5b5050506040518051905011151561216557600080fd5b8560110160009054906101000a900460ff161561218557600094506124e0565b8560000160070160029054906101000a900460ff161515156121a657600080fd5b85600f015486600001600c0160009054906101000a900473ffffffffffffffffffffffffffffffffffffffff1673ffffffffffffffffffffffffffffffffffffffff166370a08231306000604051602001526040518263ffffffff167c0100000000000000000000000000000000000000000000000000000000028152600401808273ffffffffffffffffffffffffffffffffffffffff1673ffffffffffffffffffffffffffffffffffffffff168152602001915050602060405180830381600087803b151561227557600080fd5b6102c65a03f1151561228657600080fd5b5050506040518051905081151561229957fe5b049350600090505b856000016006018054905081101561240f5785600001600801600087600001600601838154811015156122d057fe5b906000526020600020900154815260200190815260200160002060016002811015156122f857fe5b015473__BasicMathLib__________________________631d3b9edf9091866000604051604001526040518363ffffffff167c01000000000000000000000000000000000000000000000000000000000281526004018083815260200182815260200192505050604080518083038186803b151561237557600080fd5b6102c65a03f4151561238657600080fd5b505050604051805190602001805190508094508193505050811515156123ab57600080fd5b6064838115156123b757fe5b0486600001600801600088600001600601848154811015156123d557fe5b906000526020600020900154815260200190815260200160002060016002811015156123fd57fe5b018190555080806001019150506122a1565b85600001600801600087600001600601600081548110151561242d57fe5b9060005260206000209001548152602001908152602001600020600160028110151561245557fe5b015486601001819055507fd5ce6a347b44a48187de54f382d870972302ba84a439510133eab190fea07b3786600f0154876010015460405180838152602001828152602001806020018281038252601b8152602001807f4164647265737320636170207761732043616c63756c61746564210000000000815250602001935050505060405180910390a15b50505050919050565b600080600034141590506124fc836125f3565b80156125055750805b1561251357600191506125ae565b7f8756f3e78da606244d7d8c9563ce2678f294db7c57afce515849e03d5eec6c3a346040518082815260200180602001828103825260378152602001807f496e76616c69642050757263686173652120436865636b20737461727420746981526020017f6d6520616e6420616d6f756e74206f662065746865722e0000000000000000008152506040019250505060405180910390a1600091505b50919050565b600080821115156125c457600080fd5b8183600101819055506001905092915050565b6000818310156125e9578290506125ed565b8190505b92915050565b60008160020154421015801561260d575081600301544211155b9050919050565b6060604051908101604052806003905b600081526020019060019003908161262457905050905600a165627a7a723058209c345ac655dabbd38fbffc6dba5a1ad963d53158df9e9ed589d06161f90f179c0029",
  "deployedBytecode": "0x6060604052341561000f57600080fd5b6126688061001e6000396000f3006060604052600436106100d0576000357c0100000000000000000000000000000000000000000000000000000000900463ffffffff1680630378ce23146100d557806313bffc4d1461010557806314f64faa1461013557806339508823146101f45780633b913049146102245780638b6708811461025457806398e78d6b146102c4578063a4107c90146102fd578063ac78f38f14610329578063b38ee93214610378578063bfb671e1146103d5578063c065b99e14610405578063f1618f0814610435578063fed56360146104a5575b600080fd5b6100eb60048080359060200190919050506104f4565b604051808215151515815260200191505060405180910390f35b61011b6004808035906020019091905050610590565b604051808215151515815260200191505060405180910390f35b6101f2600480803590602001909190803573ffffffffffffffffffffffffffffffffffffffff169060200190919080359060200190820180359060200190808060200260200160405190810160405280939291908181526020018383602002808284378201915050505050509190803590602001909190803560ff16906020019091908035906020019091908035151590602001909190803573ffffffffffffffffffffffffffffffffffffffff1690602001909190505061062c565b005b61020a60048080359060200190919050506107a5565b604051808215151515815260200191505060405180910390f35b61023a6004808035906020019091905050610841565b604051808215151515815260200191505060405180910390f35b6102aa6004808035906020019091908035906020019082018035906020019080806020026020016040519081016040528093929190818152602001838360200280828437820191505050505050919050506108e7565b604051808215151515815260200191505060405180910390f35b6102e36004808035906020019091908035906020019091905050610993565b604051808215151515815260200191505060405180910390f35b61031360048080359060200190919050506114ab565b6040518082815260200191505060405180910390f35b61035e600480803590602001909190803573ffffffffffffffffffffffffffffffffffffffff16906020019091905050611547565b604051808215151515815260200191505060405180910390f35b6103976004808035906020019091908035906020019091905050611987565b6040518082600360200280838360005b838110156103c25780820151818401526020810190506103a7565b5050505090500191505060405180910390f35b6103eb6004808035906020019091905050611a35565b604051808215151515815260200191505060405180910390f35b61041b6004808035906020019091905050611ad1565b604051808215151515815260200191505060405180910390f35b61048b600480803590602001909190803590602001908201803590602001908080602002602001604051908101604052809392919081815260200183836020028082843782019150505050505091905050611b6d565b604051808215151515815260200191505060405180910390f35b6104da600480803590602001909190803573ffffffffffffffffffffffffffffffffffffffff16906020019091905050611c19565b604051808215151515815260200191505060405180910390f35b600081600001730B40E5f22cfd3c53eaE0aE819F0E0bADcBE93866636eee0e9290916000604051602001526040518263ffffffff167c01000000000000000000000000000000000000000000000000000000000281526004018082815260200191505060206040518083038186803b151561056e57600080fd5b6102c65a03f4151561057f57600080fd5b505050604051805190509050919050565b600081600001730B40E5f22cfd3c53eaE0aE819F0E0bADcBE9386663d34e327490916000604051602001526040518263ffffffff167c01000000000000000000000000000000000000000000000000000000000281526004018082815260200191505060206040518083038186803b151561060a57600080fd5b6102c65a03f4151561061b57600080fd5b505050604051805190509050919050565b87600001730B40E5f22cfd3c53eaE0aE819F0E0bADcBE9386663e9e337d3909189898989876040518763ffffffff167c0100000000000000000000000000000000000000000000000000000000028152600401808781526020018673ffffffffffffffffffffffffffffffffffffffff1673ffffffffffffffffffffffffffffffffffffffff168152602001806020018581526020018460ff1660ff1681526020018373ffffffffffffffffffffffffffffffffffffffff1673ffffffffffffffffffffffffffffffffffffffff168152602001828103825286818151815260200191508051906020019060200280838360005b8381101561073b578082015181840152602081019050610720565b5050505090500197505050505050505060006040518083038186803b151561076257600080fd5b6102c65a03f4151561077357600080fd5b505050828860100181905550818860110160006101000a81548160ff0219169083151502179055505050505050505050565b600081600001730B40E5f22cfd3c53eaE0aE819F0E0bADcBE938666310bc04e790916000604051602001526040518263ffffffff167c01000000000000000000000000000000000000000000000000000000000281526004018082815260200191505060206040518083038186803b151561081f57600080fd5b6102c65a03f4151561083057600080fd5b505050604051805190509050919050565b600061084c82612058565b5081600001730B40E5f22cfd3c53eaE0aE819F0E0bADcBE93866633617dbba90916000604051602001526040518263ffffffff167c01000000000000000000000000000000000000000000000000000000000281526004018082815260200191505060206040518083038186803b15156108c557600080fd5b6102c65a03f415156108d657600080fd5b505050604051805190509050919050565b6000808360000160000160009054906101000a900473ffffffffffffffffffffffffffffffffffffffff1673ffffffffffffffffffffffffffffffffffffffff163373ffffffffffffffffffffffffffffffffffffffff1614151561094b57600080fd5b600090505b82518110156109885761097a84848381518110151561096b57fe5b90602001906020020151611c19565b508080600101915050610950565b600191505092915050565b6000806000806000806000808960000160000160009054906101000a900473ffffffffffffffffffffffffffffffffffffffff1673ffffffffffffffffffffffffffffffffffffffff163373ffffffffffffffffffffffffffffffffffffffff1614151515610a0157600080fd5b610a0d8a6000016124e9565b1515610a1857600080fd5b89600d0160003373ffffffffffffffffffffffffffffffffffffffff1673ffffffffffffffffffffffffffffffffffffffff16815260200190815260200160002060009054906101000a900460ff161515610a7257600080fd5b60018a60000160070160009054906101000a900460ff160160ff168a60000160060180549050118015610add57508960000160060160018b60000160070160009054906101000a900460ff160160ff16815481101515610ace57fe5b90600052602060002090015442115b15610d51575b60018a60000160070160009054906101000a900460ff160160ff168a60000160060180549050118015610b4e57508960000160060160018b60000160070160009054906101000a900460ff160160ff16815481101515610b3f57fe5b90600052602060002090015442115b15610b8b5760018a60000160070160008282829054906101000a900460ff160192506101000a81548160ff021916908360ff160217905550610ae3565b8960000160080160008b6000016006018c60000160070160009054906101000a900460ff1660ff16815481101515610bbf57fe5b90600052602060002090015481526020019081526020016000206001600281101515610be757fe5b01548a60100181905550610c648a60000160080160008c6000016006018d60000160070160009054906101000a900460ff1660ff16815481101515610c2857fe5b90600052602060002090015481526020019081526020016000206000600281101515610c5057fe5b01548b6000016125b490919063ffffffff16565b507f8d323fdcf6bf512b7fe2e0155fc98bcd3a89e178ed4f6f85bbe6b60334c3c6438a6010015460405180828152602001806020018281038252601a8152602001807f41646472657373206361702068617320696e63726561736564210000000000008152506020019250505060405180910390a17f140575aff45eb4e414ffb6ece685f9e52ecf2bb56553b9e1b716175d9a25bffa8a600001600101546040518082815260200180602001828103825260188152602001807f546f6b656e20507269636520686173206368616e6765642100000000000000008152506020019250505060405180910390a15b60008a601001541115610e7c5789600e0160003373ffffffffffffffffffffffffffffffffffffffff1673ffffffffffffffffffffffffffffffffffffffff168152602001908152602001600020548a60100154039150817339090B6e52E8f555AB6FC79e8E7ADB2145476950631d3b9edf9091670de0b6b3a76400006000604051604001526040518363ffffffff167c01000000000000000000000000000000000000000000000000000000000281526004018083815260200182815260200192505050604080518083038186803b1515610e2c57600080fd5b6102c65a03f41515610e3d57600080fd5b50505060405180519060200180519050809350819250505080151515610e6257600080fd5b896000016001015482811515610e7457fe5b049150610e80565b8891505b600082111515610e8f57600080fd5b610e9989836125d7565b915081890384019350817339090B6e52E8f555AB6FC79e8E7ADB2145476950631d3b9edf90918c600001600101546000604051604001526040518363ffffffff167c01000000000000000000000000000000000000000000000000000000000281526004018083815260200182815260200192505050604080518083038186803b1515610f2557600080fd5b6102c65a03f41515610f3657600080fd5b50505060405180519060200180519050809650819250505080151515610f5b57600080fd5b670de0b6b3a764000085811515610f6e57fe5b049650670de0b6b3a764000085811515610f8457fe5b069250896000016001015483811515610f9957fe5b04925082840193508289039850838a600001600b0160003373ffffffffffffffffffffffffffffffffffffffff1673ffffffffffffffffffffffffffffffffffffffff168152602001908152602001600020600082825401925050819055508282038a60000160090160003373ffffffffffffffffffffffffffffffffffffffff1673ffffffffffffffffffffffffffffffffffffffff1681526020019081526020016000206000828254019250508190555089600001600c0160009054906101000a900473ffffffffffffffffffffffffffffffffffffffff1673ffffffffffffffffffffffffffffffffffffffff166370a08231306000604051602001526040518263ffffffff167c0100000000000000000000000000000000000000000000000000000000028152600401808273ffffffffffffffffffffffffffffffffffffffff1673ffffffffffffffffffffffffffffffffffffffff168152602001915050602060405180830381600087803b151561111657600080fd5b6102c65a03f1151561112757600080fd5b50505060405180519050871115151561113c57fe5b89600001600401547339090B6e52E8f555AB6FC79e8E7ADB21454769506366098d4f90918b6000604051604001526040518363ffffffff167c01000000000000000000000000000000000000000000000000000000000281526004018083815260200182815260200192505050604080518083038186803b15156111bf57600080fd5b6102c65a03f415156111d057600080fd5b505050604051805190602001805190508097508192505050801515156111f557600080fd5b858a60000160040181905550868a600001600a0160003373ffffffffffffffffffffffffffffffffffffffff1673ffffffffffffffffffffffffffffffffffffffff16815260200190815260200160002060008282540192505081905550868a600e0160003373ffffffffffffffffffffffffffffffffffffffff1673ffffffffffffffffffffffffffffffffffffffff1681526020019081526020016000206000828254019250508190555089600001600a0160008b60000160000160009054906101000a900473ffffffffffffffffffffffffffffffffffffffff1673ffffffffffffffffffffffffffffffffffffffff1673ffffffffffffffffffffffffffffffffffffffff168152602001908152602001600020547339090B6e52E8f555AB6FC79e8E7ADB214547695063f4f3bdc19091896000604051604001526040518363ffffffff167c01000000000000000000000000000000000000000000000000000000000281526004018083815260200182815260200192505050604080518083038186803b151561138957600080fd5b6102c65a03f4151561139a57600080fd5b505050604051805190602001805190508094508192505050801515156113bf57600080fd5b828a600001600a0160008c60000160000160009054906101000a900473ffffffffffffffffffffffffffffffffffffffff1673ffffffffffffffffffffffffffffffffffffffff1673ffffffffffffffffffffffffffffffffffffffff168152602001908152602001600020819055507f58e85e03761641c3aabc1113bca56bd151f1381debda5a1805aa1fbd3662c46d3388604051808373ffffffffffffffffffffffffffffffffffffffff1673ffffffffffffffffffffffffffffffffffffffff1681526020018281526020019250505060405180910390a1600197505050505050505092915050565b600081600001730B40E5f22cfd3c53eaE0aE819F0E0bADcBE938666319c5f76b90916000604051602001526040518263ffffffff167c01000000000000000000000000000000000000000000000000000000000281526004018082815260200191505060206040518083038186803b151561152557600080fd5b6102c65a03f4151561153657600080fd5b505050604051805190509050919050565b60008060008460000160000160009054906101000a900473ffffffffffffffffffffffffffffffffffffffff1673ffffffffffffffffffffffffffffffffffffffff163373ffffffffffffffffffffffffffffffffffffffff1614806115d857503073ffffffffffffffffffffffffffffffffffffffff163373ffffffffffffffffffffffffffffffffffffffff16145b15156115e357600080fd5b8460110160009054906101000a900460ff1615801561160d5750611c208560000160020154034210155b156116dd577fdb11040f6d23480aebdb6437e68c6cc6387e1b1ee6b21cca4c43312d24a4c8c884604051808273ffffffffffffffffffffffffffffffffffffffff1673ffffffffffffffffffffffffffffffffffffffff168152602001806020018281038252603f8152602001807f43616e206f6e6c7920756e7265676973746572207573657273206561726c696581526020017f72207468616e203220686f757273206265666f7265207468652073616c6521008152506040019250505060405180910390a16000925061197f565b84600d0160008573ffffffffffffffffffffffffffffffffffffffff1673ffffffffffffffffffffffffffffffffffffffff16815260200190815260200160002060009054906101000a900460ff1615156117fd577fdb11040f6d23480aebdb6437e68c6cc6387e1b1ee6b21cca4c43312d24a4c8c884604051808273ffffffffffffffffffffffffffffffffffffffff1673ffffffffffffffffffffffffffffffffffffffff168152602001806020018281038252602f8152602001807f52656769737472616e742061646472657373206e6f742072656769737465726581526020017f6420666f72207468652073616c652100000000000000000000000000000000008152506040019250505060405180910390a16000925061197f565b600085600d0160008673ffffffffffffffffffffffffffffffffffffffff1673ffffffffffffffffffffffffffffffffffffffff16815260200190815260200160002060006101000a81548160ff02191690831515021790555084600f01547339090B6e52E8f555AB6FC79e8E7ADB214547695063f4f3bdc1909160016000604051604001526040518363ffffffff167c01000000000000000000000000000000000000000000000000000000000281526004018083815260200182815260200192505050604080518083038186803b15156118d857600080fd5b6102c65a03f415156118e957600080fd5b5050506040518051906020018051905080935081925050508015151561190e57600080fd5b8185600f01819055507ff4feccbb86b1e3ed44c295752216a4576783a17ab625721f4671540a49b955e984604051808273ffffffffffffffffffffffffffffffffffffffff1673ffffffffffffffffffffffffffffffffffffffff16815260200191505060405180910390a1600192505b505092915050565b61198f612614565b82600001730B40E5f22cfd3c53eaE0aE819F0E0bADcBE9386663d7bc09599091846000604051606001526040518363ffffffff167c0100000000000000000000000000000000000000000000000000000000028152600401808381526020018281526020019250505060606040518083038186803b1515611a0f57600080fd5b6102c65a03f41515611a2057600080fd5b50505060405180606001604052905092915050565b600081600001730B40E5f22cfd3c53eaE0aE819F0E0bADcBE9386663b5d8816390916000604051602001526040518263ffffffff167c01000000000000000000000000000000000000000000000000000000000281526004018082815260200191505060206040518083038186803b1515611aaf57600080fd5b6102c65a03f41515611ac057600080fd5b505050604051805190509050919050565b600081600001730B40E5f22cfd3c53eaE0aE819F0E0bADcBE9386663d06f9a5e90916000604051602001526040518263ffffffff167c01000000000000000000000000000000000000000000000000000000000281526004018082815260200191505060206040518083038186803b1515611b4b57600080fd5b6102c65a03f41515611b5c57600080fd5b505050604051805190509050919050565b6000808360000160000160009054906101000a900473ffffffffffffffffffffffffffffffffffffffff1673ffffffffffffffffffffffffffffffffffffffff163373ffffffffffffffffffffffffffffffffffffffff16141515611bd157600080fd5b600090505b8251811015611c0e57611c00848483815181101515611bf157fe5b90602001906020020151611547565b508080600101915050611bd6565b600191505092915050565b60008060008460000160000160009054906101000a900473ffffffffffffffffffffffffffffffffffffffff1673ffffffffffffffffffffffffffffffffffffffff163373ffffffffffffffffffffffffffffffffffffffff161480611caa57503073ffffffffffffffffffffffffffffffffffffffff163373ffffffffffffffffffffffffffffffffffffffff16145b1515611cb557600080fd5b8460110160009054906101000a900460ff16158015611cdf5750611c208560000160020154034210155b15611daf577fdb11040f6d23480aebdb6437e68c6cc6387e1b1ee6b21cca4c43312d24a4c8c884604051808273ffffffffffffffffffffffffffffffffffffffff1673ffffffffffffffffffffffffffffffffffffffff168152602001806020018281038252603d8152602001807f43616e206f6e6c79207265676973746572207573657273206561726c6965722081526020017f7468616e203220686f757273206265666f7265207468652073616c65210000008152506040019250505060405180910390a160009250612050565b84600d0160008573ffffffffffffffffffffffffffffffffffffffff1673ffffffffffffffffffffffffffffffffffffffff16815260200190815260200160002060009054906101000a900460ff1615611ece577fdb11040f6d23480aebdb6437e68c6cc6387e1b1ee6b21cca4c43312d24a4c8c884604051808273ffffffffffffffffffffffffffffffffffffffff1673ffffffffffffffffffffffffffffffffffffffff16815260200180602001828103825260368152602001807f52656769737472616e74206164647265737320697320616c726561647920726581526020017f676973746572656420666f72207468652073616c6521000000000000000000008152506040019250505060405180910390a160009250612050565b600185600d0160008673ffffffffffffffffffffffffffffffffffffffff1673ffffffffffffffffffffffffffffffffffffffff16815260200190815260200160002060006101000a81548160ff02191690831515021790555084600f01547339090B6e52E8f555AB6FC79e8E7ADB21454769506366098d4f909160016000604051604001526040518363ffffffff167c01000000000000000000000000000000000000000000000000000000000281526004018083815260200182815260200192505050604080518083038186803b1515611fa957600080fd5b6102c65a03f41515611fba57600080fd5b50505060405180519060200180519050809350819250505080151515611fdf57600080fd5b8185600f01819055507fa28576aa71409e890d90a3b4642d4d95b7f26dc5b969e9b915067e531b73938d84604051808273ffffffffffffffffffffffffffffffffffffffff1673ffffffffffffffffffffffffffffffffffffffff16815260200191505060405180910390a1600192505b505092915050565b60008060008060008086600f015411151561207257600080fd5b600086600001600c0160009054906101000a900473ffffffffffffffffffffffffffffffffffffffff1673ffffffffffffffffffffffffffffffffffffffff166370a08231306000604051602001526040518263ffffffff167c0100000000000000000000000000000000000000000000000000000000028152600401808273ffffffffffffffffffffffffffffffffffffffff1673ffffffffffffffffffffffffffffffffffffffff168152602001915050602060405180830381600087803b151561213e57600080fd5b6102c65a03f1151561214f57600080fd5b5050506040518051905011151561216557600080fd5b8560110160009054906101000a900460ff161561218557600094506124e0565b8560000160070160029054906101000a900460ff161515156121a657600080fd5b85600f015486600001600c0160009054906101000a900473ffffffffffffffffffffffffffffffffffffffff1673ffffffffffffffffffffffffffffffffffffffff166370a08231306000604051602001526040518263ffffffff167c0100000000000000000000000000000000000000000000000000000000028152600401808273ffffffffffffffffffffffffffffffffffffffff1673ffffffffffffffffffffffffffffffffffffffff168152602001915050602060405180830381600087803b151561227557600080fd5b6102c65a03f1151561228657600080fd5b5050506040518051905081151561229957fe5b049350600090505b856000016006018054905081101561240f5785600001600801600087600001600601838154811015156122d057fe5b906000526020600020900154815260200190815260200160002060016002811015156122f857fe5b01547339090B6e52E8f555AB6FC79e8E7ADB2145476950631d3b9edf9091866000604051604001526040518363ffffffff167c01000000000000000000000000000000000000000000000000000000000281526004018083815260200182815260200192505050604080518083038186803b151561237557600080fd5b6102c65a03f4151561238657600080fd5b505050604051805190602001805190508094508193505050811515156123ab57600080fd5b6064838115156123b757fe5b0486600001600801600088600001600601848154811015156123d557fe5b906000526020600020900154815260200190815260200160002060016002811015156123fd57fe5b018190555080806001019150506122a1565b85600001600801600087600001600601600081548110151561242d57fe5b9060005260206000209001548152602001908152602001600020600160028110151561245557fe5b015486601001819055507fd5ce6a347b44a48187de54f382d870972302ba84a439510133eab190fea07b3786600f0154876010015460405180838152602001828152602001806020018281038252601b8152602001807f4164647265737320636170207761732043616c63756c61746564210000000000815250602001935050505060405180910390a15b50505050919050565b600080600034141590506124fc836125f3565b80156125055750805b1561251357600191506125ae565b7f8756f3e78da606244d7d8c9563ce2678f294db7c57afce515849e03d5eec6c3a346040518082815260200180602001828103825260378152602001807f496e76616c69642050757263686173652120436865636b20737461727420746981526020017f6d6520616e6420616d6f756e74206f662065746865722e0000000000000000008152506040019250505060405180910390a1600091505b50919050565b600080821115156125c457600080fd5b8183600101819055506001905092915050565b6000818310156125e9578290506125ed565b8190505b92915050565b60008160020154421015801561260d575081600301544211155b9050919050565b6060604051908101604052806003905b600081526020019060019003908161262457905050905600a165627a7a723058209c345ac655dabbd38fbffc6dba5a1ad963d53158df9e9ed589d06161f90f179c0029",
  "source": "pragma solidity ^0.4.18;\n\n/**\n * @title EvenDistroCrowdsaleLib\n * @author Modular Inc, https://modular.network\n *\n * version 2.2.1\n * Copyright (c) 2017 Modular Inc\n * The MIT License (MIT)\n * https://github.com/Modular-Network/ethereum-libraries/blob/master/LICENSE\n *\n * The EvenDistroCrowdsale Library provides functionality to create a initial coin offering\n * for a standard token sale with high demand where the amount of ether a single address\n * can contribute is calculated by dividing the sale's contribution cap by the number\n * of addresses who register before the sale starts\n *\n * Modular provides smart contract services and security reviews for contract\n * deployments in addition to working on open source projects in the Ethereum\n * community. Our purpose is to test, document, and deploy reusable code onto the\n * blockchain and improve both security and usability. We also educate non-profits,\n * schools, and other community members about the application of blockchain\n * technology. For further information: modular.network\n *\n * THE SOFTWARE IS PROVIDED \"AS IS\", WITHOUT WARRANTY OF ANY KIND, EXPRESS\n * OR IMPLIED, INCLUDING BUT NOT LIMITED TO THE WARRANTIES OF\n * MERCHANTABILITY, FITNESS FOR A PARTICULAR PURPOSE AND NONINFRINGEMENT.\n * IN NO EVENT SHALL THE AUTHORS OR COPYRIGHT HOLDERS BE LIABLE FOR ANY\n * CLAIM, DAMAGES OR OTHER LIABILITY, WHETHER IN AN ACTION OF CONTRACT,\n * TORT OR OTHERWISE, ARISING FROM, OUT OF OR IN CONNECTION WITH THE\n * SOFTWARE OR THE USE OR OTHER DEALINGS IN THE SOFTWARE.\n */\n\nimport \"./BasicMathLib.sol\";\nimport \"./TokenLib.sol\";\nimport \"./CrowdsaleLib.sol\";\n\nlibrary EvenDistroCrowdsaleLib {\n  using BasicMathLib for uint256;\n  using CrowdsaleLib for CrowdsaleLib.CrowdsaleStorage;\n\n  struct EvenDistroCrowdsaleStorage {\n\n  \tCrowdsaleLib.CrowdsaleStorage base; // base storage from CrowdsaleLib\n\n    // mapping showing which addresses have registered for the sale. can only be changed by the owner\n    mapping (address => bool) isRegistered;\n\n    // tracks the total number of tokens bought for each address\n    mapping(address => uint256) tokensBought;\n\n    uint256 numRegistered; // records how many addresses have registered\n    uint256 addressTokenCap; // cap on how much wei an address can contribute in the sale\n    bool staticCap; // true if the given address cap amounts are set on initialization\n  }\n\n\n  event LogTokensBought(address buyer, uint256 amount);\n  event LogTokenPriceChange(uint256 amount, string Msg);\n  event LogErrorMsg(uint256 amount, string Msg);\n\n  // Logs when a user is registered in the system before the sale\n  event LogUserRegistered(address registrant);\n\n  // Logs when a user is unregistered from the system before the sale\n  event LogUserUnRegistered(address registrant);\n\n  // Logs when there is an error with user registration\n  event LogRegError(address user, string Msg);\n\n  // Logs when there is an increase in the contribution cap per address\n  event LogAddressTokenCapChange(uint256 amount, string Msg);\n\n  // Logs when the address cap is initially calculated\n  event LogAddressTokenCapCalculated(uint256 numRegistered, uint256 cap, string Msg);\n\n  /// @dev Called by a crowdsale contract upon creation.\n  /// @param self Stored crowdsale from crowdsale contract\n  /// @param _owner Address of crowdsale owner\n  /// @param _saleData Array of 3 item sets such that, in each 3 element\n  /// set, 1 is timestamp, 2 is price in tokens/ETH at that time,\n  /// 3 is address purchase cap at that time, 0 if no address cap\n  /// @param _endTime Timestamp of sale end time\n  /// @param _percentBurn Percentage of extra tokens to burn\n  /// @param _staticCap Whether or not the address cap is going to be static\n  /// @param _token Token being sold\n  function init(EvenDistroCrowdsaleStorage storage self,\n                address _owner,\n                uint256[] _saleData,\n                uint256 _endTime,\n                uint8 _percentBurn,\n                uint256 _initialAddressTokenCap,\n                bool _staticCap,\n                CrowdsaleToken _token)\n                public\n  {\n  \tself.base.init(_owner,\n                   _saleData,\n                   _endTime,\n                   _percentBurn,\n                   _token);\n\n    self.addressTokenCap = _initialAddressTokenCap;\n    self.staticCap = _staticCap;\n  }\n\n  /// @dev register user function. can only be called by the owner when a user registers on the web app.\n  /// puts their address in the registered mapping and increments the numRegistered\n  /// @param self Stored crowdsale from crowdsale contract\n  /// @param _registrant address to be registered for the sale\n  function registerUser(EvenDistroCrowdsaleStorage storage self, address _registrant)\n                        public\n                        returns (bool)\n  {\n    require((msg.sender == self.base.owner) || (msg.sender == address(this)));\n    // if the change interval is 0, then registration is allowed throughout the\n    // sale since a cap doesn't need to be calculated\n    if ((!self.staticCap) && (now >= self.base.startTime - 2 hours)) {\n      LogRegError(_registrant, \"Can only register users earlier than 2 hours before the sale!\");\n      return false;\n    }\n    if(self.isRegistered[_registrant]) {\n      LogRegError(_registrant, \"Registrant address is already registered for the sale!\");\n      return false;\n    }\n\n    uint256 result;\n    bool err;\n\n    self.isRegistered[_registrant] = true;\n    (err,result) = self.numRegistered.plus(1);\n    require(!err);\n    self.numRegistered = result;\n\n    LogUserRegistered(_registrant);\n\n    return true;\n  }\n\n  /// @dev registers multiple users at the same time\n  /// @param self Stored crowdsale from crowdsale contract\n  /// @param _registrants addresses to register for the sale\n  function registerUsers(EvenDistroCrowdsaleStorage storage self, address[] _registrants)\n                         public\n                         returns (bool)\n  {\n    require(msg.sender == self.base.owner);\n\n    for (uint256 i = 0; i < _registrants.length; i++) {\n      registerUser(self,_registrants[i]);\n    }\n    return true;\n  }\n\n  /// @dev Cancels a user's registration status can only be called by the owner when a user cancels their registration.\n  /// sets their address field in the registered mapping to false and decrements the numRegistered\n  /// @param self Stored crowdsale from crowdsale contract\n  function unregisterUser(EvenDistroCrowdsaleStorage storage self, address _registrant)\n                          public\n                          returns (bool)\n  {\n    require((msg.sender == self.base.owner) || (msg.sender == address(this)));\n    if ((!self.staticCap) && (now >= self.base.startTime - 2 hours)) {\n      LogRegError(_registrant, \"Can only unregister users earlier than 2 hours before the sale!\");\n      return false;\n    }\n    if(!self.isRegistered[_registrant]) {\n      LogRegError(_registrant, \"Registrant address not registered for the sale!\");\n      return false;\n    }\n\n    uint256 result;\n    bool err;\n\n    self.isRegistered[_registrant] = false;\n    (err,result) = self.numRegistered.minus(1);\n    require(!err);\n    self.numRegistered = result;\n\n    LogUserUnRegistered(_registrant);\n\n    return true;\n  }\n\n  /// @dev unregisters multiple users at the same time\n  /// @param self Stored crowdsale from crowdsale contract\n  /// @param _registrants addresses to unregister for the sale\n  function unregisterUsers(EvenDistroCrowdsaleStorage storage self, address[] _registrants)\n                           public\n                           returns (bool)\n  {\n    require(msg.sender == self.base.owner);\n\n    for (uint256 i = 0; i < _registrants.length; i++) {\n      unregisterUser(self,_registrants[i]);\n    }\n    return true;\n  }\n\n  /// @dev function that calculates address cap from the number of users registered\n  /// @param self Stored crowdsale from crowdsale contract\n  function calculateAddressTokenCap(EvenDistroCrowdsaleStorage storage self)\n                                    internal\n                                    returns (bool)\n  {\n    require(self.numRegistered > 0);\n    require(self.base.token.balanceOf(this) > 0);\n\n    if (self.staticCap)  {\n      return false;\n    }\n    require(!self.base.tokensSet);  // makes sure this can only be called once\n\n    uint256 _baseCap;\n    uint256 _calcCap;\n    bool err;\n\n    _baseCap = (self.base.token.balanceOf(this))/self.numRegistered; // numRegistered required to be > 0\n\n    for(uint256 i = 0; i < self.base.milestoneTimes.length; i++){\n      (err,_calcCap) = self.base.saleData[self.base.milestoneTimes[i]][1].times(_baseCap);\n      require(!err);\n      self.base.saleData[self.base.milestoneTimes[i]][1] = _calcCap/100;\n    }\n\n    self.addressTokenCap = self.base.saleData[self.base.milestoneTimes[0]][1];\n    LogAddressTokenCapCalculated(self.numRegistered, self.addressTokenCap, \"Address cap was Calculated!\");\n  }\n\n  /// @dev utility function for the receivePurchase function. returns the lower number\n  /// @param a first argument\n  /// @param b second argument\n  function getMin(uint256 a, uint256 b) internal pure returns (uint256) {\n    if (a<b) { return a; } else { return b; }\n  }\n\n\n  /// @dev Called when an address wants to purchase tokens\n  /// @param self Stored crowdsale from crowdsale contract\n  /// @param _amount amound of wei that the buyer is sending\n  /// @return true on succesful purchase\n  function receivePurchase(EvenDistroCrowdsaleStorage storage self, uint256 _amount)\n                           public\n                           returns (bool)\n  {\n    require(msg.sender != self.base.owner);\n    require(self.base.validPurchase());\n    require(self.isRegistered[msg.sender]);\n\n  \t// if the address cap increase interval has passed, update the current day and change the address cap\n  \tif ((self.base.milestoneTimes.length > self.base.currentMilestone + 1) &&\n        (now > self.base.milestoneTimes[self.base.currentMilestone + 1]))\n    {\n      while((self.base.milestoneTimes.length > self.base.currentMilestone + 1) &&\n            (now > self.base.milestoneTimes[self.base.currentMilestone + 1]))\n      {\n        self.base.currentMilestone += 1;\n      }\n\n      self.addressTokenCap = self.base.saleData[self.base.milestoneTimes[self.base.currentMilestone]][1];\n\n      self.base.changeTokenPrice(self.base.saleData[self.base.milestoneTimes[self.base.currentMilestone]][0]);\n\n      LogAddressTokenCapChange(self.addressTokenCap, \"Address cap has increased!\");\n      LogTokenPriceChange(self.base.tokensPerEth,\"Token Price has changed!\");\n  \t}\n\n    uint256 _numTokens; //number of tokens that will be purchased\n    uint256 _newBalance; //the new balance of the owner of the crowdsale\n    uint256 _weiTokens; //temp calc holder\n    uint256 _leftoverWei; //wei change for purchaser\n    uint256 _remainder; //temp calc holder\n    uint256 _allowedWei;  // tells how much more the buyer can contribute up to their cap\n    bool err;\n\n    if(self.addressTokenCap > 0) {\n      //_allowedWei represents tokens first, recycle variable to prevent stack depth issues\n      _allowedWei = self.addressTokenCap - self.tokensBought[msg.sender];\n\n      (err, _allowedWei) = _allowedWei.times(1000000000000000000);\n      require(!err);\n\n      _allowedWei = _allowedWei/self.base.tokensPerEth;\n    } else {\n      // if addressTokenCap is zero then there is no cap\n      _allowedWei = _amount;\n    }\n    require(_allowedWei > 0);\n    _allowedWei = getMin(_amount,_allowedWei);\n    _leftoverWei = _leftoverWei + (_amount - _allowedWei);\n\n    // Find the number of tokens as a function in wei\n    (err,_weiTokens) = _allowedWei.times(self.base.tokensPerEth);\n    require(!err);\n\n    _numTokens = _weiTokens / 1000000000000000000;\n    _remainder = _weiTokens % 1000000000000000000;\n    _remainder = _remainder / self.base.tokensPerEth;\n    _leftoverWei = _leftoverWei + _remainder;\n    _amount = _amount - _remainder;\n    self.base.leftoverWei[msg.sender] += _leftoverWei;\n\n    // can't overflow because it is under the cap\n    self.base.hasContributed[msg.sender] += _allowedWei - _remainder;\n\n    assert(_numTokens <= self.base.token.balanceOf(this));\n\n    // calculate the amount of ether in the owners balance\n    (err,_newBalance) = self.base.ownerBalance.plus(_amount);\n    require(!err);\n\n    self.base.ownerBalance = _newBalance;   // \"deposit\" the amount\n\n    // can't overflow because it will be under the cap\n    self.base.withdrawTokensMap[msg.sender] += _numTokens;\n    self.tokensBought[msg.sender] += _numTokens;\n\n    //subtract tokens from owner's share\n    (err,_remainder) = self.base.withdrawTokensMap[self.base.owner].minus(_numTokens);\n    require(!err);\n    self.base.withdrawTokensMap[self.base.owner] = _remainder;\n\n    LogTokensBought(msg.sender, _numTokens);\n\n    return true;\n  }\n\n  /*Functions \"inherited\" from CrowdsaleLib library*/\n\n  function setTokens(EvenDistroCrowdsaleStorage storage self) public returns (bool) {\n    calculateAddressTokenCap(self);\n    return self.base.setTokens();\n  }\n\n  function withdrawTokens(EvenDistroCrowdsaleStorage storage self) public returns (bool) {\n    return self.base.withdrawTokens();\n  }\n\n  function withdrawLeftoverWei(EvenDistroCrowdsaleStorage storage self) public returns (bool) {\n    return self.base.withdrawLeftoverWei();\n  }\n\n  function withdrawOwnerEth(EvenDistroCrowdsaleStorage storage self) public returns (bool) {\n    return self.base.withdrawOwnerEth();\n  }\n\n  function getSaleData(EvenDistroCrowdsaleStorage storage self, uint256 timestamp)\n                       public\n                       view\n                       returns (uint256[3])\n  {\n    return self.base.getSaleData(timestamp);\n  }\n\n  function getTokensSold(EvenDistroCrowdsaleStorage storage self) public view returns (uint256) {\n    return self.base.getTokensSold();\n  }\n\n  function crowdsaleActive(EvenDistroCrowdsaleStorage storage self) public view returns (bool) {\n    return self.base.crowdsaleActive();\n  }\n\n  function crowdsaleEnded(EvenDistroCrowdsaleStorage storage self) public view returns (bool) {\n    return self.base.crowdsaleEnded();\n  }\n}\n",
  "sourcePath": "/Users/hackdom/Projects/ethereum-libraries/CrowdsaleLib/EvenDistroCrowdsale/truffle/contracts/EvenDistroCrowdsaleLib.sol",
  "compiler": {
    "name": "solc",
    "version": "0.4.18+commit.9cf6e910.Emscripten.clang"
  },
  "schemaVersion": "1.0.1",
  "updatedAt": "2018-01-15T09:57:50.440Z"
}