{
  "contractName": "EvenDistroCrowdsaleLib",
  "abi": [
    {
      "constant": true,
      "inputs": [
        {
          "name": "self",
          "type": "EvenDistroCrowdsaleLib.EvenDistroCrowdsaleStorage storage"
        }
      ],
      "name": "crowdsaleActive",
      "outputs": [
        {
          "name": "",
          "type": "bool"
        }
      ],
      "payable": false,
      "stateMutability": "view",
      "type": "function"
    },
    {
      "constant": false,
      "inputs": [
        {
          "name": "self",
          "type": "EvenDistroCrowdsaleLib.EvenDistroCrowdsaleStorage storage"
        }
      ],
      "name": "withdrawOwnerEth",
      "outputs": [
        {
          "name": "",
          "type": "bool"
        }
      ],
      "payable": false,
      "stateMutability": "nonpayable",
      "type": "function"
    },
    {
      "constant": true,
      "inputs": [
        {
          "name": "self",
          "type": "EvenDistroCrowdsaleLib.EvenDistroCrowdsaleStorage storage"
        }
      ],
      "name": "crowdsaleEnded",
      "outputs": [
        {
          "name": "",
          "type": "bool"
        }
      ],
      "payable": false,
      "stateMutability": "view",
      "type": "function"
    },
    {
      "constant": false,
      "inputs": [
        {
          "name": "self",
          "type": "EvenDistroCrowdsaleLib.EvenDistroCrowdsaleStorage storage"
        }
      ],
      "name": "setTokens",
      "outputs": [
        {
          "name": "",
          "type": "bool"
        }
      ],
      "payable": false,
      "stateMutability": "nonpayable",
      "type": "function"
    },
    {
      "constant": false,
      "inputs": [
        {
          "name": "self",
          "type": "EvenDistroCrowdsaleLib.EvenDistroCrowdsaleStorage storage"
        },
        {
          "name": "_exchangeRate",
          "type": "uint256"
        }
      ],
      "name": "setTokenExchangeRate",
      "outputs": [
        {
          "name": "",
          "type": "bool"
        }
      ],
      "payable": false,
      "stateMutability": "nonpayable",
      "type": "function"
    },
    {
      "constant": false,
      "inputs": [
        {
          "name": "self",
          "type": "EvenDistroCrowdsaleLib.EvenDistroCrowdsaleStorage storage"
        },
        {
          "name": "_registrants",
          "type": "address[]"
        }
      ],
      "name": "registerUsers",
      "outputs": [
        {
          "name": "",
          "type": "bool"
        }
      ],
      "payable": false,
      "stateMutability": "nonpayable",
      "type": "function"
    },
    {
      "constant": false,
      "inputs": [
        {
          "name": "self",
          "type": "EvenDistroCrowdsaleLib.EvenDistroCrowdsaleStorage storage"
        },
        {
          "name": "_amount",
          "type": "uint256"
        }
      ],
      "name": "receivePurchase",
      "outputs": [
        {
          "name": "",
          "type": "bool"
        }
      ],
      "payable": false,
      "stateMutability": "nonpayable",
      "type": "function"
    },
    {
      "constant": false,
      "inputs": [
        {
          "name": "self",
          "type": "EvenDistroCrowdsaleLib.EvenDistroCrowdsaleStorage storage"
        },
        {
          "name": "_owner",
          "type": "address"
        },
        {
          "name": "_saleData",
          "type": "uint256[]"
        },
        {
          "name": "_fallbackExchangeRate",
          "type": "uint256"
        },
        {
          "name": "_capAmountInCents",
          "type": "uint256"
        },
        {
          "name": "_endTime",
          "type": "uint256"
        },
        {
          "name": "_percentBurn",
          "type": "uint8"
        },
        {
          "name": "_initialAddressTokenCap",
          "type": "uint256"
        },
        {
          "name": "_staticCap",
          "type": "bool"
        },
        {
          "name": "_token",
          "type": "CrowdsaleToken"
        }
      ],
      "name": "init",
      "outputs": [],
      "payable": false,
      "stateMutability": "nonpayable",
      "type": "function"
    },
    {
      "constant": true,
      "inputs": [
        {
          "name": "self",
          "type": "EvenDistroCrowdsaleLib.EvenDistroCrowdsaleStorage storage"
        }
      ],
      "name": "getTokensSold",
      "outputs": [
        {
          "name": "",
          "type": "uint256"
        }
      ],
      "payable": false,
      "stateMutability": "view",
      "type": "function"
    },
    {
      "constant": false,
      "inputs": [
        {
          "name": "self",
          "type": "EvenDistroCrowdsaleLib.EvenDistroCrowdsaleStorage storage"
        },
        {
          "name": "_registrant",
          "type": "address"
        }
      ],
      "name": "unregisterUser",
      "outputs": [
        {
          "name": "",
          "type": "bool"
        }
      ],
      "payable": false,
      "stateMutability": "nonpayable",
      "type": "function"
    },
    {
      "constant": true,
      "inputs": [
        {
          "name": "self",
          "type": "EvenDistroCrowdsaleLib.EvenDistroCrowdsaleStorage storage"
        },
        {
          "name": "timestamp",
          "type": "uint256"
        }
      ],
      "name": "getSaleData",
      "outputs": [
        {
          "name": "",
          "type": "uint256[3]"
        }
      ],
      "payable": false,
      "stateMutability": "view",
      "type": "function"
    },
    {
      "constant": false,
      "inputs": [
        {
          "name": "self",
          "type": "EvenDistroCrowdsaleLib.EvenDistroCrowdsaleStorage storage"
        }
      ],
      "name": "withdrawTokens",
      "outputs": [
        {
          "name": "",
          "type": "bool"
        }
      ],
      "payable": false,
      "stateMutability": "nonpayable",
      "type": "function"
    },
    {
      "constant": false,
      "inputs": [
        {
          "name": "self",
          "type": "EvenDistroCrowdsaleLib.EvenDistroCrowdsaleStorage storage"
        }
      ],
      "name": "withdrawLeftoverWei",
      "outputs": [
        {
          "name": "",
          "type": "bool"
        }
      ],
      "payable": false,
      "stateMutability": "nonpayable",
      "type": "function"
    },
    {
      "constant": false,
      "inputs": [
        {
          "name": "self",
          "type": "EvenDistroCrowdsaleLib.EvenDistroCrowdsaleStorage storage"
        },
        {
          "name": "_registrants",
          "type": "address[]"
        }
      ],
      "name": "unregisterUsers",
      "outputs": [
        {
          "name": "",
          "type": "bool"
        }
      ],
      "payable": false,
      "stateMutability": "nonpayable",
      "type": "function"
    },
    {
      "constant": false,
      "inputs": [
        {
          "name": "self",
          "type": "EvenDistroCrowdsaleLib.EvenDistroCrowdsaleStorage storage"
        },
        {
          "name": "_registrant",
          "type": "address"
        }
      ],
      "name": "registerUser",
      "outputs": [
        {
          "name": "",
          "type": "bool"
        }
      ],
      "payable": false,
      "stateMutability": "nonpayable",
      "type": "function"
    },
    {
      "anonymous": false,
      "inputs": [
        {
          "indexed": false,
          "name": "buyer",
          "type": "address"
        },
        {
          "indexed": false,
          "name": "amount",
          "type": "uint256"
        }
      ],
      "name": "LogTokensBought",
      "type": "event"
    },
    {
      "anonymous": false,
      "inputs": [
        {
          "indexed": false,
          "name": "amount",
          "type": "uint256"
        },
        {
          "indexed": false,
          "name": "Msg",
          "type": "string"
        }
      ],
      "name": "LogTokenPriceChange",
      "type": "event"
    },
    {
      "anonymous": false,
      "inputs": [
        {
          "indexed": false,
          "name": "amount",
          "type": "uint256"
        },
        {
          "indexed": false,
          "name": "Msg",
          "type": "string"
        }
      ],
      "name": "LogErrorMsg",
      "type": "event"
    },
    {
      "anonymous": false,
      "inputs": [
        {
          "indexed": false,
          "name": "registrant",
          "type": "address"
        }
      ],
      "name": "LogUserRegistered",
      "type": "event"
    },
    {
      "anonymous": false,
      "inputs": [
        {
          "indexed": false,
          "name": "registrant",
          "type": "address"
        }
      ],
      "name": "LogUserUnRegistered",
      "type": "event"
    },
    {
      "anonymous": false,
      "inputs": [
        {
          "indexed": false,
          "name": "user",
          "type": "address"
        },
        {
          "indexed": false,
          "name": "Msg",
          "type": "string"
        }
      ],
      "name": "LogRegError",
      "type": "event"
    },
    {
      "anonymous": false,
      "inputs": [
        {
          "indexed": false,
          "name": "amount",
          "type": "uint256"
        },
        {
          "indexed": false,
          "name": "Msg",
          "type": "string"
        }
      ],
      "name": "LogAddressTokenCapChange",
      "type": "event"
    },
    {
      "anonymous": false,
      "inputs": [
        {
          "indexed": false,
          "name": "saleCap",
          "type": "uint256"
        },
        {
          "indexed": false,
          "name": "numRegistered",
          "type": "uint256"
        },
        {
          "indexed": false,
          "name": "cap",
          "type": "uint256"
        },
        {
          "indexed": false,
          "name": "Msg",
          "type": "string"
        }
      ],
      "name": "LogAddressTokenCapCalculated",
      "type": "event"
    }
  ],
  "bytecode": "0x6060604052341561000f57600080fd5b6128ad8061001e6000396000f3006060604052600436106100db576000357c0100000000000000000000000000000000000000000000000000000000900463ffffffff1680630378ce23146100e057806313bffc4d1461011057806339508823146101405780633b913049146101705780637dedb791146101a05780638b670881146101d957806398e78d6b146102495780639a19e94a14610282578063a4107c9014610353578063ac78f38f1461037f578063b38ee932146103ce578063bfb671e11461042b578063c065b99e1461045b578063f1618f081461048b578063fed56360146104fb575b600080fd5b6100f6600480803590602001909190505061054a565b604051808215151515815260200191505060405180910390f35b61012660048080359060200190919050506105e6565b604051808215151515815260200191505060405180910390f35b6101566004808035906020019091905050610682565b604051808215151515815260200191505060405180910390f35b610186600480803590602001909190505061071e565b604051808215151515815260200191505060405180910390f35b6101bf60048080359060200190919080359060200190919050506107c7565b604051808215151515815260200191505060405180910390f35b61022f600480803590602001909190803590602001908201803590602001908080602002602001604051908101604052809392919081815260200183836020028082843782019150505050505091905050610882565b604051808215151515815260200191505060405180910390f35b610268600480803590602001909190803590602001909190505061092e565b604051808215151515815260200191505060405180910390f35b610351600480803590602001909190803573ffffffffffffffffffffffffffffffffffffffff169060200190919080359060200190820180359060200190808060200260200160405190810160405280939291908181526020018383602002808284378201915050505050509190803590602001909190803590602001909190803590602001909190803560ff16906020019091908035906020019091908035151590602001909190803573ffffffffffffffffffffffffffffffffffffffff16906020019091905050611479565b005b6103696004808035906020019091905050611604565b6040518082815260200191505060405180910390f35b6103b4600480803590602001909190803573ffffffffffffffffffffffffffffffffffffffff169060200190919050506116a0565b604051808215151515815260200191505060405180910390f35b6103ed6004808035906020019091908035906020019091905050611ae0565b6040518082600360200280838360005b838110156104185780820151818401526020810190506103fd565b5050505090500191505060405180910390f35b6104416004808035906020019091905050611b8e565b604051808215151515815260200191505060405180910390f35b6104716004808035906020019091905050611c2a565b604051808215151515815260200191505060405180910390f35b6104e1600480803590602001909190803590602001908201803590602001908080602002602001604051908101604052809392919081815260200183836020028082843782019150505050505091905050611cc6565b604051808215151515815260200191505060405180910390f35b610530600480803590602001909190803573ffffffffffffffffffffffffffffffffffffffff16906020019091905050611d72565b604051808215151515815260200191505060405180910390f35b60008160000173__CrowdsaleLib__________________________636eee0e9290916000604051602001526040518263ffffffff167c01000000000000000000000000000000000000000000000000000000000281526004018082815260200191505060206040518083038186803b15156105c457600080fd5b6102c65a03f415156105d557600080fd5b505050604051805190509050919050565b60008160000173__CrowdsaleLib__________________________63d34e327490916000604051602001526040518263ffffffff167c01000000000000000000000000000000000000000000000000000000000281526004018082815260200191505060206040518083038186803b151561066057600080fd5b6102c65a03f4151561067157600080fd5b505050604051805190509050919050565b60008160000173__CrowdsaleLib__________________________6310bc04e790916000604051602001526040518263ffffffff167c01000000000000000000000000000000000000000000000000000000000281526004018082815260200191505060206040518083038186803b15156106fc57600080fd5b6102c65a03f4151561070d57600080fd5b505050604051805190509050919050565b60008061072a836121b1565b90508260000173__CrowdsaleLib__________________________633617dbba90916000604051602001526040518263ffffffff167c01000000000000000000000000000000000000000000000000000000000281526004018082815260200191505060206040518083038186803b15156107a457600080fd5b6102c65a03f415156107b557600080fd5b50505060405180519050915050919050565b6000806107d3846121b1565b90508360000173__CrowdsaleLib__________________________6314f1d11b9091856000604051602001526040518363ffffffff167c0100000000000000000000000000000000000000000000000000000000028152600401808381526020018281526020019250505060206040518083038186803b151561085557600080fd5b6102c65a03f4151561086657600080fd5b5050506040518051905080156108795750805b91505092915050565b6000808360000160000160009054906101000a900473ffffffffffffffffffffffffffffffffffffffff1673ffffffffffffffffffffffffffffffffffffffff163373ffffffffffffffffffffffffffffffffffffffff161415156108e657600080fd5b600090505b82518110156109235761091584848381518110151561090657fe5b90602001906020020151611d72565b5080806001019150506108eb565b600191505092915050565b6000806000806000806000808960000160000160009054906101000a900473ffffffffffffffffffffffffffffffffffffffff1673ffffffffffffffffffffffffffffffffffffffff163373ffffffffffffffffffffffffffffffffffffffff161415151561099c57600080fd5b6109a88a600001612651565b15156109b357600080fd5b89600f0160003373ffffffffffffffffffffffffffffffffffffffff1673ffffffffffffffffffffffffffffffffffffffff16815260200190815260200160002060009054906101000a900460ff161515610a0d57600080fd5b60018a60000160090160009054906101000a900460ff160160ff168a60000160080180549050118015610a7857508960000160080160018b60000160090160009054906101000a900460ff160160ff16815481101515610a6957fe5b90600052602060002090015442115b15610cec575b60018a60000160090160009054906101000a900460ff160160ff168a60000160080180549050118015610ae957508960000160080160018b60000160090160009054906101000a900460ff160160ff16815481101515610ada57fe5b90600052602060002090015442115b15610b265760018a60000160090160008282829054906101000a900460ff160192506101000a81548160ff021916908360ff160217905550610a7e565b89600001600a0160008b6000016008018c60000160090160009054906101000a900460ff1660ff16815481101515610b5a57fe5b90600052602060002090015481526020019081526020016000206001600281101515610b8257fe5b01548a60120181905550610bff8a600001600a0160008c6000016008018d60000160090160009054906101000a900460ff1660ff16815481101515610bc357fe5b90600052602060002090015481526020019081526020016000206000600281101515610beb57fe5b01548b60000161271c90919063ffffffff16565b507f8d323fdcf6bf512b7fe2e0155fc98bcd3a89e178ed4f6f85bbe6b60334c3c6438a6012015460405180828152602001806020018281038252601a8152602001807f41646472657373206361702068617320696e63726561736564210000000000008152506020019250505060405180910390a17f140575aff45eb4e414ffb6ece685f9e52ecf2bb56553b9e1b716175d9a25bffa8a600001600101546040518082815260200180602001828103825260188152602001807f546f6b656e20507269636520686173206368616e6765642100000000000000008152506020019250505060405180910390a15b8960000160020154898b60000160060154011115610d1f578960000160020154898b600001600601540103935083890398505b60008a601201541115610e4a578960100160003373ffffffffffffffffffffffffffffffffffffffff1673ffffffffffffffffffffffffffffffffffffffff168152602001908152602001600020548a601201540391508173__BasicMathLib__________________________631d3b9edf9091670de0b6b3a76400006000604051604001526040518363ffffffff167c01000000000000000000000000000000000000000000000000000000000281526004018083815260200182815260200192505050604080518083038186803b1515610dfa57600080fd5b6102c65a03f41515610e0b57600080fd5b50505060405180519060200180519050809350819250505080151515610e3057600080fd5b896000016001015482811515610e4257fe5b049150610e4e565b8891505b600082111515610e5d57600080fd5b610e67898361281c565b9150818903840193508173__BasicMathLib__________________________631d3b9edf90918c600001600101546000604051604001526040518363ffffffff167c01000000000000000000000000000000000000000000000000000000000281526004018083815260200182815260200192505050604080518083038186803b1515610ef357600080fd5b6102c65a03f41515610f0457600080fd5b50505060405180519060200180519050809650819250505080151515610f2957600080fd5b670de0b6b3a764000085811515610f3c57fe5b049650670de0b6b3a764000085811515610f5257fe5b069250896000016001015483811515610f6757fe5b04925082840193508289039850838a600001600d0160003373ffffffffffffffffffffffffffffffffffffffff1673ffffffffffffffffffffffffffffffffffffffff168152602001908152602001600020600082825401925050819055508282038a600001600b0160003373ffffffffffffffffffffffffffffffffffffffff1673ffffffffffffffffffffffffffffffffffffffff1681526020019081526020016000206000828254019250508190555089600001600e0160009054906101000a900473ffffffffffffffffffffffffffffffffffffffff1673ffffffffffffffffffffffffffffffffffffffff166370a08231306000604051602001526040518263ffffffff167c0100000000000000000000000000000000000000000000000000000000028152600401808273ffffffffffffffffffffffffffffffffffffffff1673ffffffffffffffffffffffffffffffffffffffff168152602001915050602060405180830381600087803b15156110e457600080fd5b6102c65a03f115156110f557600080fd5b50505060405180519050871115151561110a57fe5b896000016006015473__BasicMathLib__________________________6366098d4f90918b6000604051604001526040518363ffffffff167c01000000000000000000000000000000000000000000000000000000000281526004018083815260200182815260200192505050604080518083038186803b151561118d57600080fd5b6102c65a03f4151561119e57600080fd5b505050604051805190602001805190508097508192505050801515156111c357600080fd5b858a60000160060181905550868a600001600c0160003373ffffffffffffffffffffffffffffffffffffffff1673ffffffffffffffffffffffffffffffffffffffff16815260200190815260200160002060008282540192505081905550868a60100160003373ffffffffffffffffffffffffffffffffffffffff1673ffffffffffffffffffffffffffffffffffffffff1681526020019081526020016000206000828254019250508190555089600001600c0160008b60000160000160009054906101000a900473ffffffffffffffffffffffffffffffffffffffff1673ffffffffffffffffffffffffffffffffffffffff1673ffffffffffffffffffffffffffffffffffffffff1681526020019081526020016000205473__BasicMathLib__________________________63f4f3bdc19091896000604051604001526040518363ffffffff167c01000000000000000000000000000000000000000000000000000000000281526004018083815260200182815260200192505050604080518083038186803b151561135757600080fd5b6102c65a03f4151561136857600080fd5b5050506040518051906020018051905080945081925050508015151561138d57600080fd5b828a600001600c0160008c60000160000160009054906101000a900473ffffffffffffffffffffffffffffffffffffffff1673ffffffffffffffffffffffffffffffffffffffff1673ffffffffffffffffffffffffffffffffffffffff168152602001908152602001600020819055507f58e85e03761641c3aabc1113bca56bd151f1381debda5a1805aa1fbd3662c46d3388604051808373ffffffffffffffffffffffffffffffffffffffff1673ffffffffffffffffffffffffffffffffffffffff1681526020018281526020019250505060405180910390a1600197505050505050505092915050565b8960000173__CrowdsaleLib__________________________63d11bd57f90918b8b8b8b8b8b896040518963ffffffff167c0100000000000000000000000000000000000000000000000000000000028152600401808981526020018873ffffffffffffffffffffffffffffffffffffffff1673ffffffffffffffffffffffffffffffffffffffff168152602001806020018781526020018681526020018581526020018460ff1660ff1681526020018373ffffffffffffffffffffffffffffffffffffffff1673ffffffffffffffffffffffffffffffffffffffff168152602001828103825288818151815260200191508051906020019060200280838360005b8381101561159657808201518184015260208101905061157b565b50505050905001995050505050505050505060006040518083038186803b15156115bf57600080fd5b6102c65a03f415156115d057600080fd5b505050828a60120181905550818a60130160006101000a81548160ff02191690831515021790555050505050505050505050565b60008160000173__CrowdsaleLib__________________________6319c5f76b90916000604051602001526040518263ffffffff167c01000000000000000000000000000000000000000000000000000000000281526004018082815260200191505060206040518083038186803b151561167e57600080fd5b6102c65a03f4151561168f57600080fd5b505050604051805190509050919050565b60008060008460000160000160009054906101000a900473ffffffffffffffffffffffffffffffffffffffff1673ffffffffffffffffffffffffffffffffffffffff163373ffffffffffffffffffffffffffffffffffffffff16148061173157503073ffffffffffffffffffffffffffffffffffffffff163373ffffffffffffffffffffffffffffffffffffffff16145b151561173c57600080fd5b8460130160009054906101000a900460ff161580156117665750611c208560000160030154034210155b15611836577fdb11040f6d23480aebdb6437e68c6cc6387e1b1ee6b21cca4c43312d24a4c8c884604051808273ffffffffffffffffffffffffffffffffffffffff1673ffffffffffffffffffffffffffffffffffffffff168152602001806020018281038252603f8152602001807f43616e206f6e6c7920756e7265676973746572207573657273206561726c696581526020017f72207468616e203220686f757273206265666f7265207468652073616c6521008152506040019250505060405180910390a160009250611ad8565b84600f0160008573ffffffffffffffffffffffffffffffffffffffff1673ffffffffffffffffffffffffffffffffffffffff16815260200190815260200160002060009054906101000a900460ff161515611956577fdb11040f6d23480aebdb6437e68c6cc6387e1b1ee6b21cca4c43312d24a4c8c884604051808273ffffffffffffffffffffffffffffffffffffffff1673ffffffffffffffffffffffffffffffffffffffff168152602001806020018281038252602f8152602001807f52656769737472616e742061646472657373206e6f742072656769737465726581526020017f6420666f72207468652073616c652100000000000000000000000000000000008152506040019250505060405180910390a160009250611ad8565b600085600f0160008673ffffffffffffffffffffffffffffffffffffffff1673ffffffffffffffffffffffffffffffffffffffff16815260200190815260200160002060006101000a81548160ff021916908315150217905550846011015473__BasicMathLib__________________________63f4f3bdc1909160016000604051604001526040518363ffffffff167c01000000000000000000000000000000000000000000000000000000000281526004018083815260200182815260200192505050604080518083038186803b1515611a3157600080fd5b6102c65a03f41515611a4257600080fd5b50505060405180519060200180519050809350819250505080151515611a6757600080fd5b8185601101819055507ff4feccbb86b1e3ed44c295752216a4576783a17ab625721f4671540a49b955e984604051808273ffffffffffffffffffffffffffffffffffffffff1673ffffffffffffffffffffffffffffffffffffffff16815260200191505060405180910390a1600192505b505092915050565b611ae8612859565b8260000173__CrowdsaleLib__________________________63d7bc09599091846000604051606001526040518363ffffffff167c0100000000000000000000000000000000000000000000000000000000028152600401808381526020018281526020019250505060606040518083038186803b1515611b6857600080fd5b6102c65a03f41515611b7957600080fd5b50505060405180606001604052905092915050565b60008160000173__CrowdsaleLib__________________________63b5d8816390916000604051602001526040518263ffffffff167c01000000000000000000000000000000000000000000000000000000000281526004018082815260200191505060206040518083038186803b1515611c0857600080fd5b6102c65a03f41515611c1957600080fd5b505050604051805190509050919050565b60008160000173__CrowdsaleLib__________________________63d06f9a5e90916000604051602001526040518263ffffffff167c01000000000000000000000000000000000000000000000000000000000281526004018082815260200191505060206040518083038186803b1515611ca457600080fd5b6102c65a03f41515611cb557600080fd5b505050604051805190509050919050565b6000808360000160000160009054906101000a900473ffffffffffffffffffffffffffffffffffffffff1673ffffffffffffffffffffffffffffffffffffffff163373ffffffffffffffffffffffffffffffffffffffff16141515611d2a57600080fd5b600090505b8251811015611d6757611d59848483815181101515611d4a57fe5b906020019060200201516116a0565b508080600101915050611d2f565b600191505092915050565b60008060008460000160000160009054906101000a900473ffffffffffffffffffffffffffffffffffffffff1673ffffffffffffffffffffffffffffffffffffffff163373ffffffffffffffffffffffffffffffffffffffff161480611e0357503073ffffffffffffffffffffffffffffffffffffffff163373ffffffffffffffffffffffffffffffffffffffff16145b1515611e0e57600080fd5b8460130160009054906101000a900460ff16158015611e385750611c208560000160030154034210155b15611f08577fdb11040f6d23480aebdb6437e68c6cc6387e1b1ee6b21cca4c43312d24a4c8c884604051808273ffffffffffffffffffffffffffffffffffffffff1673ffffffffffffffffffffffffffffffffffffffff168152602001806020018281038252603d8152602001807f43616e206f6e6c79207265676973746572207573657273206561726c6965722081526020017f7468616e203220686f757273206265666f7265207468652073616c65210000008152506040019250505060405180910390a1600092506121a9565b84600f0160008573ffffffffffffffffffffffffffffffffffffffff1673ffffffffffffffffffffffffffffffffffffffff16815260200190815260200160002060009054906101000a900460ff1615612027577fdb11040f6d23480aebdb6437e68c6cc6387e1b1ee6b21cca4c43312d24a4c8c884604051808273ffffffffffffffffffffffffffffffffffffffff1673ffffffffffffffffffffffffffffffffffffffff16815260200180602001828103825260368152602001807f52656769737472616e74206164647265737320697320616c726561647920726581526020017f676973746572656420666f72207468652073616c6521000000000000000000008152506040019250505060405180910390a1600092506121a9565b600185600f0160008673ffffffffffffffffffffffffffffffffffffffff1673ffffffffffffffffffffffffffffffffffffffff16815260200190815260200160002060006101000a81548160ff021916908315150217905550846011015473__BasicMathLib__________________________6366098d4f909160016000604051604001526040518363ffffffff167c01000000000000000000000000000000000000000000000000000000000281526004018083815260200182815260200192505050604080518083038186803b151561210257600080fd5b6102c65a03f4151561211357600080fd5b5050506040518051906020018051905080935081925050508015151561213857600080fd5b8185601101819055507fa28576aa71409e890d90a3b4642d4d95b7f26dc5b969e9b915067e531b73938d84604051808273ffffffffffffffffffffffffffffffffffffffff1673ffffffffffffffffffffffffffffffffffffffff16815260200191505060405180910390a1600192505b505092915050565b60008060008060008086601101541115156121cb57600080fd5b600086600001600e0160009054906101000a900473ffffffffffffffffffffffffffffffffffffffff1673ffffffffffffffffffffffffffffffffffffffff166370a08231306000604051602001526040518263ffffffff167c0100000000000000000000000000000000000000000000000000000000028152600401808273ffffffffffffffffffffffffffffffffffffffff1673ffffffffffffffffffffffffffffffffffffffff168152602001915050602060405180830381600087803b151561229757600080fd5b6102c65a03f115156122a857600080fd5b505050604051805190501115156122be57600080fd5b8560130160009054906101000a900460ff16156122de5760009450612648565b8560000160090160049054906101000a900460ff161515156122ff57600080fd5b856011015486600001600e0160009054906101000a900473ffffffffffffffffffffffffffffffffffffffff1673ffffffffffffffffffffffffffffffffffffffff166370a08231306000604051602001526040518263ffffffff167c0100000000000000000000000000000000000000000000000000000000028152600401808273ffffffffffffffffffffffffffffffffffffffff1673ffffffffffffffffffffffffffffffffffffffff168152602001915050602060405180830381600087803b15156123ce57600080fd5b6102c65a03f115156123df57600080fd5b505050604051805190508115156123f257fe5b049350600090505b85600001600801805490508110156125685785600001600a016000876000016008018381548110151561242957fe5b9060005260206000209001548152602001908152602001600020600160028110151561245157fe5b015473__BasicMathLib__________________________631d3b9edf9091866000604051604001526040518363ffffffff167c01000000000000000000000000000000000000000000000000000000000281526004018083815260200182815260200192505050604080518083038186803b15156124ce57600080fd5b6102c65a03f415156124df57600080fd5b5050506040518051906020018051905080945081935050508115151561250457600080fd5b60648381151561251057fe5b0486600001600a016000886000016008018481548110151561252e57fe5b9060005260206000209001548152602001908152602001600020600160028110151561255657fe5b018190555080806001019150506123fa565b85600001600a01600087600001600801600081548110151561258657fe5b906000526020600020900154815260200190815260200160002060016002811015156125ae57fe5b015486601201819055507f9e28739d4887d9040e65dbc68bb8ad344a31e225ee58b019b7d97bdd7bc141ac86600001600201548760110154886012015460405180848152602001838152602001828152602001806020018281038252601b8152602001807f4164647265737320636170207761732043616c63756c6174656421000000000081525060200194505050505060405180910390a15b50505050919050565b6000806000341415905061266483612838565b801561266d5750805b1561267b5760019150612716565b7f8756f3e78da606244d7d8c9563ce2678f294db7c57afce515849e03d5eec6c3a346040518082815260200180602001828103825260378152602001807f496e76616c69642050757263686173652120436865636b20737461727420746981526020017f6d6520616e6420616d6f756e74206f662065746865722e0000000000000000008152506040019250505060405180910390a1600091505b50919050565b6000806000808411151561272f57600080fd5b846005015473__BasicMathLib__________________________631d3b9edf90918760090160019054906101000a900460ff1660ff16600a0a6000604051604001526040518363ffffffff167c01000000000000000000000000000000000000000000000000000000000281526004018083815260200182815260200192505050604080518083038186803b15156127c657600080fd5b6102c65a03f415156127d757600080fd5b505050604051805190602001805190508092508193505050811515156127fc57600080fd5b838181151561280757fe5b04856001018190555060019250505092915050565b60008183101561282e57829050612832565b8190505b92915050565b600081600301544210158015612852575081600401544211155b9050919050565b6060604051908101604052806003905b600081526020019060019003908161286957905050905600a165627a7a72305820685d92b45e503c03154e1a80d185432ea3501e857a4bdc52d7e453036a3a1d060029",
  "source": "pragma solidity ^0.4.18;\n\n/**\n * @title EvenDistroCrowdsaleLib\n * @author Majoolr.io\n *\n * version 2.1.0\n * Copyright (c) 2017 Majoolr, LLC\n * The MIT License (MIT)\n * https://github.com/Majoolr/ethereum-libraries/blob/master/LICENSE\n *\n * The EvenDistroCrowdsale Library provides functionality to create a initial coin offering\n * for a standard token sale with high demand where the amount of ether a single address\n * can contribute is calculated by dividing the sale's contribution cap by the number\n * of addresses who register before the sale starts\n *\n * Majoolr provides smart contract services and security reviews for contract\n * deployments in addition to working on open source projects in the Ethereum\n * community. Our purpose is to test, document, and deploy reusable code onto the\n * blockchain and improve both security and usability. We also educate non-profits,\n * schools, and other community members about the application of blockchain\n * technology. For further information: majoolr.io\n *\n * THE SOFTWARE IS PROVIDED \"AS IS\", WITHOUT WARRANTY OF ANY KIND, EXPRESS\n * OR IMPLIED, INCLUDING BUT NOT LIMITED TO THE WARRANTIES OF\n * MERCHANTABILITY, FITNESS FOR A PARTICULAR PURPOSE AND NONINFRINGEMENT.\n * IN NO EVENT SHALL THE AUTHORS OR COPYRIGHT HOLDERS BE LIABLE FOR ANY\n * CLAIM, DAMAGES OR OTHER LIABILITY, WHETHER IN AN ACTION OF CONTRACT,\n * TORT OR OTHERWISE, ARISING FROM, OUT OF OR IN CONNECTION WITH THE\n * SOFTWARE OR THE USE OR OTHER DEALINGS IN THE SOFTWARE.\n */\n\nimport \"./BasicMathLib.sol\";\nimport \"./TokenLib.sol\";\nimport \"./CrowdsaleLib.sol\";\n\nlibrary EvenDistroCrowdsaleLib {\n  using BasicMathLib for uint256;\n  using CrowdsaleLib for CrowdsaleLib.CrowdsaleStorage;\n\n  struct EvenDistroCrowdsaleStorage {\n\n  \tCrowdsaleLib.CrowdsaleStorage base; // base storage from CrowdsaleLib\n\n    // mapping showing which addresses have registered for the sale. can only be changed by the owner\n    mapping (address => bool) isRegistered;\n\n    // tracks the total number of tokens bought for each address\n    mapping(address => uint256) tokensBought;\n\n    uint256 numRegistered; // records how many addresses have registered\n    uint256 addressTokenCap; // cap on how much wei an address can contribute in the sale\n    bool staticCap; // true if the given address cap amounts are set on initialization\n  }\n\n\n  event LogTokensBought(address buyer, uint256 amount);\n  event LogTokenPriceChange(uint256 amount, string Msg);\n  event LogErrorMsg(uint256 amount, string Msg);\n\n  // Logs when a user is registered in the system before the sale\n  event LogUserRegistered(address registrant);\n\n  // Logs when a user is unregistered from the system before the sale\n  event LogUserUnRegistered(address registrant);\n\n  // Logs when there is an error with user registration\n  event LogRegError(address user, string Msg);\n\n  // Logs when there is an increase in the contribution cap per address\n  event LogAddressTokenCapChange(uint256 amount, string Msg);\n\n  // Logs when the address cap is initially calculated\n  event LogAddressTokenCapCalculated(uint256 saleCap, uint256 numRegistered, uint256 cap, string Msg);\n\n  /// @dev Called by a crowdsale contract upon creation.\n  /// @param self Stored crowdsale from crowdsale contract\n  /// @param _owner Address of crowdsale owner\n  /// @param _saleData Array of 3 item sets such that, in each 3 element\n  /// set, 1 is timestamp, 2 is price in cents at that time,\n  /// 3 is address purchase cap at that time, 0 if no address cap\n  /// @param _fallbackExchangeRate Exchange rate of cents/ETH\n  /// @param _capAmountInCents Total to be raised in cents\n  /// @param _endTime Timestamp of sale end time\n  /// @param _percentBurn Percentage of extra tokens to burn\n  /// @param _staticCap Whether or not the address cap is going to be static\n  /// @param _token Token being sold\n  function init(EvenDistroCrowdsaleStorage storage self,\n                address _owner,\n                uint256[] _saleData,\n                uint256 _fallbackExchangeRate,\n                uint256 _capAmountInCents,\n                uint256 _endTime,\n                uint8 _percentBurn,\n                uint256 _initialAddressTokenCap,\n                bool _staticCap,\n                CrowdsaleToken _token)\n                public\n  {\n  \tself.base.init(_owner,\n                   _saleData,\n                   _fallbackExchangeRate,\n                   _capAmountInCents,\n                   _endTime,\n                   _percentBurn,\n                   _token);\n\n    self.addressTokenCap = _initialAddressTokenCap;\n    self.staticCap = _staticCap;\n  }\n\n  /// @dev register user function. can only be called by the owner when a user registers on the web app.\n  /// puts their address in the registered mapping and increments the numRegistered\n  /// @param self Stored crowdsale from crowdsale contract\n  /// @param _registrant address to be registered for the sale\n  function registerUser(EvenDistroCrowdsaleStorage storage self, address _registrant)\n                        public\n                        returns (bool)\n  {\n    require((msg.sender == self.base.owner) || (msg.sender == address(this)));\n    // if the change interval is 0, then registration is allowed throughout the\n    // sale since a cap doesn't need to be calculated\n    if ((!self.staticCap) && (now >= self.base.startTime - 2 hours)) {\n      LogRegError(_registrant, \"Can only register users earlier than 2 hours before the sale!\");\n      return false;\n    }\n    if(self.isRegistered[_registrant]) {\n      LogRegError(_registrant, \"Registrant address is already registered for the sale!\");\n      return false;\n    }\n\n    uint256 result;\n    bool err;\n\n    self.isRegistered[_registrant] = true;\n    (err,result) = self.numRegistered.plus(1);\n    require(!err);\n    self.numRegistered = result;\n\n    LogUserRegistered(_registrant);\n\n    return true;\n  }\n\n  /// @dev registers multiple users at the same time\n  /// @param self Stored crowdsale from crowdsale contract\n  /// @param _registrants addresses to register for the sale\n  function registerUsers(EvenDistroCrowdsaleStorage storage self, address[] _registrants)\n                         public\n                         returns (bool)\n  {\n    require(msg.sender == self.base.owner);\n\n    for (uint256 i = 0; i < _registrants.length; i++) {\n      registerUser(self,_registrants[i]);\n    }\n    return true;\n  }\n\n  /// @dev Cancels a user's registration status can only be called by the owner when a user cancels their registration.\n  /// sets their address field in the registered mapping to false and decrements the numRegistered\n  /// @param self Stored crowdsale from crowdsale contract\n  function unregisterUser(EvenDistroCrowdsaleStorage storage self, address _registrant)\n                          public\n                          returns (bool)\n  {\n    require((msg.sender == self.base.owner) || (msg.sender == address(this)));\n    if ((!self.staticCap) && (now >= self.base.startTime - 2 hours)) {\n      LogRegError(_registrant, \"Can only unregister users earlier than 2 hours before the sale!\");\n      return false;\n    }\n    if(!self.isRegistered[_registrant]) {\n      LogRegError(_registrant, \"Registrant address not registered for the sale!\");\n      return false;\n    }\n\n    uint256 result;\n    bool err;\n\n    self.isRegistered[_registrant] = false;\n    (err,result) = self.numRegistered.minus(1);\n    require(!err);\n    self.numRegistered = result;\n\n    LogUserUnRegistered(_registrant);\n\n    return true;\n  }\n\n  /// @dev unregisters multiple users at the same time\n  /// @param self Stored crowdsale from crowdsale contract\n  /// @param _registrants addresses to unregister for the sale\n  function unregisterUsers(EvenDistroCrowdsaleStorage storage self, address[] _registrants)\n                           public\n                           returns (bool)\n  {\n    require(msg.sender == self.base.owner);\n\n    for (uint256 i = 0; i < _registrants.length; i++) {\n      unregisterUser(self,_registrants[i]);\n    }\n    return true;\n  }\n\n  /// @dev function that calculates address cap from the number of users registered\n  /// @param self Stored crowdsale from crowdsale contract\n  function calculateAddressTokenCap(EvenDistroCrowdsaleStorage storage self)\n                                    internal\n                                    returns (bool)\n  {\n    require(self.numRegistered > 0);\n    require(self.base.token.balanceOf(this) > 0);\n\n    if (self.staticCap)  {\n      return false;\n    }\n    require(!self.base.rateSet);  // makes sure this can only be called once\n\n    uint256 _baseCap;\n    uint256 _calcCap;\n    bool err;\n\n    _baseCap = (self.base.token.balanceOf(this))/self.numRegistered; // numRegistered required to be > 0\n\n    for(uint256 i = 0; i < self.base.milestoneTimes.length; i++){\n      (err,_calcCap) = self.base.saleData[self.base.milestoneTimes[i]][1].times(_baseCap);\n      require(!err);\n      self.base.saleData[self.base.milestoneTimes[i]][1] = _calcCap/100;\n    }\n\n    self.addressTokenCap = self.base.saleData[self.base.milestoneTimes[0]][1];\n    LogAddressTokenCapCalculated(self.base.capAmount, self.numRegistered, self.addressTokenCap, \"Address cap was Calculated!\");\n  }\n\n  /// @dev utility function for the receivePurchase function. returns the lower number\n  /// @param a first argument\n  /// @param b second argument\n  function getMin(uint256 a, uint256 b) internal pure returns (uint256) {\n    if (a<b) { return a; } else { return b; }\n  }\n\n\n  /// @dev Called when an address wants to purchase tokens\n  /// @param self Stored crowdsale from crowdsale contract\n  /// @param _amount amound of wei that the buyer is sending\n  /// @return true on succesful purchase\n  function receivePurchase(EvenDistroCrowdsaleStorage storage self, uint256 _amount)\n                           public\n                           returns (bool)\n  {\n    require(msg.sender != self.base.owner);\n    require(self.base.validPurchase());\n    require(self.isRegistered[msg.sender]);\n\n  \t// if the address cap increase interval has passed, update the current day and change the address cap\n  \tif ((self.base.milestoneTimes.length > self.base.currentMilestone + 1) &&\n        (now > self.base.milestoneTimes[self.base.currentMilestone + 1]))\n    {\n      while((self.base.milestoneTimes.length > self.base.currentMilestone + 1) &&\n            (now > self.base.milestoneTimes[self.base.currentMilestone + 1]))\n      {\n        self.base.currentMilestone += 1;\n      }\n\n      self.addressTokenCap = self.base.saleData[self.base.milestoneTimes[self.base.currentMilestone]][1];\n\n      self.base.changeTokenPrice(self.base.saleData[self.base.milestoneTimes[self.base.currentMilestone]][0]);\n\n      LogAddressTokenCapChange(self.addressTokenCap, \"Address cap has increased!\");\n      LogTokenPriceChange(self.base.tokensPerEth,\"Token Price has changed!\");\n  \t}\n\n    uint256 _numTokens; //number of tokens that will be purchased\n    uint256 _newBalance; //the new balance of the owner of the crowdsale\n    uint256 _weiTokens; //temp calc holder\n    uint256 _leftoverWei; //wei change for purchaser\n    uint256 _remainder; //temp calc holder\n    uint256 _allowedWei;  // tells how much more the buyer can contribute up to their cap\n    bool err;\n\n    if((self.base.ownerBalance + _amount) > self.base.capAmount){\n      _leftoverWei = (self.base.ownerBalance + _amount) - self.base.capAmount;\n      _amount = _amount - _leftoverWei;\n    }\n\n    if(self.addressTokenCap > 0) {\n      //_allowedWei represents tokens first, recycle variable to prevent stack depth issues\n      _allowedWei = self.addressTokenCap - self.tokensBought[msg.sender];\n\n      (err, _allowedWei) = _allowedWei.times(1000000000000000000);\n      require(!err);\n\n      _allowedWei = _allowedWei/self.base.tokensPerEth;\n    } else {\n      // if addressTokenCap is zero then there is no cap\n      _allowedWei = _amount;\n    }\n    require(_allowedWei > 0);\n    _allowedWei = getMin(_amount,_allowedWei);\n    _leftoverWei = _leftoverWei + (_amount - _allowedWei);\n\n    // Find the number of tokens as a function in wei\n    (err,_weiTokens) = _allowedWei.times(self.base.tokensPerEth);\n    require(!err);\n\n    _numTokens = _weiTokens / 1000000000000000000;\n    _remainder = _weiTokens % 1000000000000000000;\n    _remainder = _remainder / self.base.tokensPerEth;\n    _leftoverWei = _leftoverWei + _remainder;\n    _amount = _amount - _remainder;\n    self.base.leftoverWei[msg.sender] += _leftoverWei;\n\n    // can't overflow because it is under the cap\n    self.base.hasContributed[msg.sender] += _allowedWei - _remainder;\n\n    assert(_numTokens <= self.base.token.balanceOf(this));\n\n    // calculate the amount of ether in the owners balance\n    (err,_newBalance) = self.base.ownerBalance.plus(_amount);\n    require(!err);\n\n    self.base.ownerBalance = _newBalance;   // \"deposit\" the amount\n\n    // can't overflow because it will be under the cap\n    self.base.withdrawTokensMap[msg.sender] += _numTokens;\n    self.tokensBought[msg.sender] += _numTokens;\n\n    //subtract tokens from owner's share\n    (err,_remainder) = self.base.withdrawTokensMap[self.base.owner].minus(_numTokens);\n    require(!err);\n    self.base.withdrawTokensMap[self.base.owner] = _remainder;\n\n    LogTokensBought(msg.sender, _numTokens);\n\n    return true;\n  }\n\n  /*Functions \"inherited\" from CrowdsaleLib library*/\n\n  function setTokenExchangeRate(EvenDistroCrowdsaleStorage storage self, uint256 _exchangeRate)\n                                public\n                                returns (bool)\n  {\n    bool ok = calculateAddressTokenCap(self);\n    return self.base.setTokenExchangeRate(_exchangeRate) && ok;\n  }\n\n  function setTokens(EvenDistroCrowdsaleStorage storage self) public returns (bool) {\n    bool ok = calculateAddressTokenCap(self);\n    return self.base.setTokens();\n  }\n\n  function withdrawTokens(EvenDistroCrowdsaleStorage storage self) public returns (bool) {\n    return self.base.withdrawTokens();\n  }\n\n  function withdrawLeftoverWei(EvenDistroCrowdsaleStorage storage self) public returns (bool) {\n    return self.base.withdrawLeftoverWei();\n  }\n\n  function withdrawOwnerEth(EvenDistroCrowdsaleStorage storage self) public returns (bool) {\n    return self.base.withdrawOwnerEth();\n  }\n\n  function getSaleData(EvenDistroCrowdsaleStorage storage self, uint256 timestamp)\n                       public\n                       view\n                       returns (uint256[3])\n  {\n    return self.base.getSaleData(timestamp);\n  }\n\n  function getTokensSold(EvenDistroCrowdsaleStorage storage self) public view returns (uint256) {\n    return self.base.getTokensSold();\n  }\n\n  function crowdsaleActive(EvenDistroCrowdsaleStorage storage self) public view returns (bool) {\n    return self.base.crowdsaleActive();\n  }\n\n  function crowdsaleEnded(EvenDistroCrowdsaleStorage storage self) public view returns (bool) {\n    return self.base.crowdsaleEnded();\n  }\n}\n",
  "sourcePath": "/Users/hackdom/Projects/ethereum-libraries/CrowdsaleLib/EvenDistroCrowdsale/truffle/contracts/EvenDistroCrowdsaleLib.sol",
  "compiler": {
    "name": "solc",
    "version": "0.4.18+commit.9cf6e910.Emscripten.clang"
  },
  "schemaVersion": "1.0.1",
  "updatedAt": "2017-12-11T00:49:13.189Z"
}