{
  "contractName": "CrowdsaleLib",
  "abi": [
    {
      "constant": true,
      "inputs": [
        {
          "name": "self",
          "type": "CrowdsaleLib.CrowdsaleStorage storage"
        }
      ],
      "name": "crowdsaleEnded",
      "outputs": [
        {
          "name": "",
          "type": "bool"
        }
      ],
      "payable": false,
      "stateMutability": "view",
      "type": "function"
    },
    {
      "constant": true,
      "inputs": [
        {
          "name": "self",
          "type": "CrowdsaleLib.CrowdsaleStorage storage"
        }
      ],
      "name": "getTokensSold",
      "outputs": [
        {
          "name": "",
          "type": "uint256"
        }
      ],
      "payable": false,
      "stateMutability": "view",
      "type": "function"
    },
    {
      "constant": false,
      "inputs": [
        {
          "name": "self",
          "type": "CrowdsaleLib.CrowdsaleStorage storage"
        }
      ],
      "name": "setTokens",
      "outputs": [
        {
          "name": "",
          "type": "bool"
        }
      ],
      "payable": false,
      "stateMutability": "nonpayable",
      "type": "function"
    },
    {
      "constant": true,
      "inputs": [
        {
          "name": "self",
          "type": "CrowdsaleLib.CrowdsaleStorage storage"
        }
      ],
      "name": "crowdsaleActive",
      "outputs": [
        {
          "name": "",
          "type": "bool"
        }
      ],
      "payable": false,
      "stateMutability": "view",
      "type": "function"
    },
    {
      "constant": false,
      "inputs": [
        {
          "name": "self",
          "type": "CrowdsaleLib.CrowdsaleStorage storage"
        }
      ],
      "name": "withdrawTokens",
      "outputs": [
        {
          "name": "",
          "type": "bool"
        }
      ],
      "payable": false,
      "stateMutability": "nonpayable",
      "type": "function"
    },
    {
      "constant": false,
      "inputs": [
        {
          "name": "self",
          "type": "CrowdsaleLib.CrowdsaleStorage storage"
        }
      ],
      "name": "withdrawLeftoverWei",
      "outputs": [
        {
          "name": "",
          "type": "bool"
        }
      ],
      "payable": false,
      "stateMutability": "nonpayable",
      "type": "function"
    },
    {
      "constant": false,
      "inputs": [
        {
          "name": "self",
          "type": "CrowdsaleLib.CrowdsaleStorage storage"
        }
      ],
      "name": "withdrawOwnerEth",
      "outputs": [
        {
          "name": "",
          "type": "bool"
        }
      ],
      "payable": false,
      "stateMutability": "nonpayable",
      "type": "function"
    },
    {
      "constant": true,
      "inputs": [
        {
          "name": "self",
          "type": "CrowdsaleLib.CrowdsaleStorage storage"
        },
        {
          "name": "timestamp",
          "type": "uint256"
        }
      ],
      "name": "getSaleData",
      "outputs": [
        {
          "name": "",
          "type": "uint256[3]"
        }
      ],
      "payable": false,
      "stateMutability": "view",
      "type": "function"
    },
    {
      "constant": false,
      "inputs": [
        {
          "name": "self",
          "type": "CrowdsaleLib.CrowdsaleStorage storage"
        },
        {
          "name": "_owner",
          "type": "address"
        },
        {
          "name": "_saleData",
          "type": "uint256[]"
        },
        {
          "name": "_endTime",
          "type": "uint256"
        },
        {
          "name": "_percentBurn",
          "type": "uint8"
        },
        {
          "name": "_token",
          "type": "CrowdsaleToken"
        }
      ],
      "name": "init",
      "outputs": [],
      "payable": false,
      "stateMutability": "nonpayable",
      "type": "function"
    },
    {
      "anonymous": false,
      "inputs": [
        {
          "indexed": true,
          "name": "_bidder",
          "type": "address"
        },
        {
          "indexed": false,
          "name": "Amount",
          "type": "uint256"
        }
      ],
      "name": "LogTokensWithdrawn",
      "type": "event"
    },
    {
      "anonymous": false,
      "inputs": [
        {
          "indexed": true,
          "name": "_bidder",
          "type": "address"
        },
        {
          "indexed": false,
          "name": "Amount",
          "type": "uint256"
        }
      ],
      "name": "LogWeiWithdrawn",
      "type": "event"
    },
    {
      "anonymous": false,
      "inputs": [
        {
          "indexed": true,
          "name": "owner",
          "type": "address"
        },
        {
          "indexed": false,
          "name": "amount",
          "type": "uint256"
        },
        {
          "indexed": false,
          "name": "Msg",
          "type": "string"
        }
      ],
      "name": "LogOwnerEthWithdrawn",
      "type": "event"
    },
    {
      "anonymous": false,
      "inputs": [
        {
          "indexed": false,
          "name": "_buyer",
          "type": "address"
        },
        {
          "indexed": false,
          "name": "value",
          "type": "uint256"
        },
        {
          "indexed": false,
          "name": "Msg",
          "type": "string"
        }
      ],
      "name": "LogNoticeMsg",
      "type": "event"
    },
    {
      "anonymous": false,
      "inputs": [
        {
          "indexed": false,
          "name": "amount",
          "type": "uint256"
        },
        {
          "indexed": false,
          "name": "Msg",
          "type": "string"
        }
      ],
      "name": "LogErrorMsg",
      "type": "event"
    }
  ],
  "bytecode": "0x6060604052341561000f57600080fd5b61164b8061001e6000396000f300606060405260043610610099576000357c0100000000000000000000000000000000000000000000000000000000900463ffffffff16806310bc04e71461009e57806319c5f76b146100ce5780633617dbba146100fa5780636eee0e921461012a578063b5d881631461015a578063d06f9a5e1461018a578063d34e3274146101ba578063d7bc0959146101ea578063e9e337d314610247575b600080fd5b6100b460048080359060200190919050506102f2565b604051808215151515815260200191505060405180910390f35b6100e46004808035906020019091905050610302565b6040518082815260200191505060405180910390f35b6101106004808035906020019091905050610377565b604051808215151515815260200191505060405180910390f35b6101406004808035906020019091905050610562565b604051808215151515815260200191505060405180910390f35b6101706004808035906020019091905050610583565b604051808215151515815260200191505060405180910390f35b6101a06004808035906020019091905050610b2a565b604051808215151515815260200191505060405180910390f35b6101d06004808035906020019091905050610d3b565b604051808215151515815260200191505060405180910390f35b6102096004808035906020019091908035906020019091905050611078565b6040518082600360200280838360005b83811015610234578082015181840152602081019050610219565b5050505090500191505060405180910390f35b6102f0600480803590602001909190803573ffffffffffffffffffffffffffffffffffffffff169060200190919080359060200190820180359060200190808060200260200160405190810160405280939291908181526020018383602002808284378201915050505050509190803590602001909190803560ff1690602001909190803573ffffffffffffffffffffffffffffffffffffffff169060200190919050506111c3565b005b6000816003015442119050919050565b600081600a0160008360000160009054906101000a900473ffffffffffffffffffffffffffffffffffffffff1673ffffffffffffffffffffffffffffffffffffffff1673ffffffffffffffffffffffffffffffffffffffff168152602001908152602001600020548260050154039050919050565b6000808260000160009054906101000a900473ffffffffffffffffffffffffffffffffffffffff1673ffffffffffffffffffffffffffffffffffffffff163373ffffffffffffffffffffffffffffffffffffffff161415156103d857600080fd5b8260070160029054906101000a900460ff161515156103f657600080fd5b82600301544210151561040857600080fd5b82600c0160009054906101000a900473ffffffffffffffffffffffffffffffffffffffff1673ffffffffffffffffffffffffffffffffffffffff166370a08231306000604051602001526040518263ffffffff167c0100000000000000000000000000000000000000000000000000000000028152600401808273ffffffffffffffffffffffffffffffffffffffff1673ffffffffffffffffffffffffffffffffffffffff168152602001915050602060405180830381600087803b15156104cf57600080fd5b6102c65a03f115156104e057600080fd5b5050506040518051905090508083600a0160003373ffffffffffffffffffffffffffffffffffffffff1673ffffffffffffffffffffffffffffffffffffffff1681526020019081526020016000208190555080836005018190555060018360070160026101000a81548160ff0219169083151502179055506001915050919050565b60008160020154421015801561057c575081600301544211155b9050919050565b600080600080600085600a0160003373ffffffffffffffffffffffffffffffffffffffff1673ffffffffffffffffffffffffffffffffffffffff168152602001908152602001600020541415610673577f8756f3e78da606244d7d8c9563ce2678f294db7c57afce515849e03d5eec6c3a60006040518082815260200180602001828103825260218152602001807f53656e64657220686173206e6f20746f6b656e7320746f20776974686472617781526020017f21000000000000000000000000000000000000000000000000000000000000008152506040019250505060405180910390a160009350610b22565b8460000160009054906101000a900473ffffffffffffffffffffffffffffffffffffffff1673ffffffffffffffffffffffffffffffffffffffff163373ffffffffffffffffffffffffffffffffffffffff16141561094c576106d4856102f2565b151561077a577f8756f3e78da606244d7d8c9563ce2678f294db7c57afce515849e03d5eec6c3a60006040518082815260200180602001828103825260388152602001807f4f776e65722063616e6e6f7420776974686472617720657874726120746f6b6581526020017f6e7320756e74696c206166746572207468652073616c652100000000000000008152506040019250505060405180910390a160009350610b22565b60008560070160019054906101000a900460ff1660ff16111561094b5760648560070160019054906101000a900460ff1660ff1686600a0160003373ffffffffffffffffffffffffffffffffffffffff1673ffffffffffffffffffffffffffffffffffffffff16815260200190815260200160002054028115156107fa57fe5b0491508185600a0160003373ffffffffffffffffffffffffffffffffffffffff1673ffffffffffffffffffffffffffffffffffffffff168152602001908152602001600020540385600a0160003373ffffffffffffffffffffffffffffffffffffffff1673ffffffffffffffffffffffffffffffffffffffff1681526020019081526020016000208190555084600c0160009054906101000a900473ffffffffffffffffffffffffffffffffffffffff1673ffffffffffffffffffffffffffffffffffffffff16637b47ec1a836000604051602001526040518263ffffffff167c010000000000000000000000000000000000000000000000000000000002815260040180828152602001915050602060405180830381600087803b151561092157600080fd5b6102c65a03f1151561093257600080fd5b50505060405180519050925082151561094a57600080fd5b5b5b84600a0160003373ffffffffffffffffffffffffffffffffffffffff1673ffffffffffffffffffffffffffffffffffffffff168152602001908152602001600020549050600085600a0160003373ffffffffffffffffffffffffffffffffffffffff1673ffffffffffffffffffffffffffffffffffffffff1681526020019081526020016000208190555084600c0160009054906101000a900473ffffffffffffffffffffffffffffffffffffffff1673ffffffffffffffffffffffffffffffffffffffff1663a9059cbb33836000604051602001526040518363ffffffff167c0100000000000000000000000000000000000000000000000000000000028152600401808373ffffffffffffffffffffffffffffffffffffffff1673ffffffffffffffffffffffffffffffffffffffff16815260200182815260200192505050602060405180830381600087803b1515610aa657600080fd5b6102c65a03f11515610ab757600080fd5b505050604051805190509250821515610acf57600080fd5b3373ffffffffffffffffffffffffffffffffffffffff167fac0f38657cc8741669b8ba861fe5e6e18a4256a26ce4963b7b74a0f8739fdc6f826040518082815260200191505060405180910390a2600193505b505050919050565b600080600083600b0160003373ffffffffffffffffffffffffffffffffffffffff1673ffffffffffffffffffffffffffffffffffffffff168152602001908152602001600020541415610c17577f8756f3e78da606244d7d8c9563ce2678f294db7c57afce515849e03d5eec6c3a60006040518082815260200180602001828103825260248152602001807f53656e64657220686173206e6f2065787472612077656920746f20776974686481526020017f72617721000000000000000000000000000000000000000000000000000000008152506040019250505060405180910390a160009150610d35565b82600b0160003373ffffffffffffffffffffffffffffffffffffffff1673ffffffffffffffffffffffffffffffffffffffff168152602001908152602001600020549050600083600b0160003373ffffffffffffffffffffffffffffffffffffffff1673ffffffffffffffffffffffffffffffffffffffff168152602001908152602001600020819055503373ffffffffffffffffffffffffffffffffffffffff166108fc829081150290604051600060405180830381858888f193505050501515610ce257600080fd5b3373ffffffffffffffffffffffffffffffffffffffff167f3531f0ded8ff844beb165a1eeff617d161ea9381dee34a2695d33ea8412d66cd826040518082815260200191505060405180910390a2600191505b50919050565b600080610d47836102f2565b158015610e355750600083600c0160009054906101000a900473ffffffffffffffffffffffffffffffffffffffff1673ffffffffffffffffffffffffffffffffffffffff166370a08231306000604051602001526040518263ffffffff167c0100000000000000000000000000000000000000000000000000000000028152600401808273ffffffffffffffffffffffffffffffffffffffff1673ffffffffffffffffffffffffffffffffffffffff168152602001915050602060405180830381600087803b1515610e1857600080fd5b6102c65a03f11515610e2957600080fd5b50505060405180519050115b15610eda577f8756f3e78da606244d7d8c9563ce2678f294db7c57afce515849e03d5eec6c3a60006040518082815260200180602001828103825260318152602001807f43616e6e6f74207769746864726177206f776e657220657468657220756e746981526020017f6c206166746572207468652073616c65210000000000000000000000000000008152506040019250505060405180910390a160009150611072565b8260000160009054906101000a900473ffffffffffffffffffffffffffffffffffffffff1673ffffffffffffffffffffffffffffffffffffffff163373ffffffffffffffffffffffffffffffffffffffff16141515610f3857600080fd5b60008360040154111515610f4b57600080fd5b82600401549050600083600401819055508260000160009054906101000a900473ffffffffffffffffffffffffffffffffffffffff1673ffffffffffffffffffffffffffffffffffffffff166108fc829081150290604051600060405180830381858888f193505050501515610fc057600080fd5b3373ffffffffffffffffffffffffffffffffffffffff167f4159712a53cf7d5c014b7f7bccd52ce07122696797310c76d6d4273f0bda9e99826040518082815260200180602001828103825260288152602001807f43726f776473616c65206f776e6572206861732077697468647261776e20616c81526020017f6c2066756e6473210000000000000000000000000000000000000000000000008152506040019250505060405180910390a2600191505b50919050565b6110806115a6565b6110886115a6565b60005b8460060180549050811080156110bc57508385600601828154811015156110ae57fe5b906000526020600020900154105b156110ce57808060010191505061108b565b60008114156110e05780806001019150505b84600601600182038154811015156110f457fe5b90600052602060002090015482600060038110151561110f57fe5b60200201818152505084600801600083600060038110151561112d57fe5b60200201518152602001908152602001600020600060028110151561114e57fe5b015482600160038110151561115f57fe5b60200201818152505084600801600083600060038110151561117d57fe5b60200201518152602001908152602001600020600160028110151561119e57fe5b01548260026003811015156111af57fe5b602002018181525050819250505092915050565b60008060008860000160009054906101000a900473ffffffffffffffffffffffffffffffffffffffff1673ffffffffffffffffffffffffffffffffffffffff1614151561120f57600080fd5b6000865111151561121f57600080fd5b60006003875181151561122e57fe5b0614151561123b57600080fd5b611c20420186600081518110151561124f57fe5b9060200190602002015111151561126557600080fd5b85600081518110151561127457fe5b906020019060200201518511151561128b57600080fd5b60008773ffffffffffffffffffffffffffffffffffffffff161115156112b057600080fd5b60648460ff16111515156112c357600080fd5b868860000160006101000a81548173ffffffffffffffffffffffffffffffffffffffff021916908373ffffffffffffffffffffffffffffffffffffffff16021790555085600081518110151561131557fe5b9060200190602002015188600201819055508488600301819055508288600c0160006101000a81548173ffffffffffffffffffffffffffffffffffffffff021916908373ffffffffffffffffffffffffffffffffffffffff160217905550838860070160016101000a81548160ff021916908360ff160217905550600090505b8551811015611556578186828151811015156113ad57fe5b906020019060200201511115156113c357600080fd5b600086600183018151811015156113d657fe5b906020019060200201511115156113ec57600080fd5b600086600283018151811015156113ff57fe5b90602001906020020151148061143057506064866002830181518110151561142357fe5b9060200190602002015110155b151561143b57600080fd5b87600601805480600101828161145191906115ce565b91600052602060002090016000888481518110151561146c57fe5b9060200190602002015190919091505550856001820181518110151561148e57fe5b9060200190602002015188600801600088848151811015156114ac57fe5b90602001906020020151815260200190815260200160002060006002811015156114d257fe5b018190555085600282018151811015156114e857fe5b90602001906020020151886008016000888481518110151561150657fe5b906020019060200201518152602001908152602001600020600160028110151561152c57fe5b0181905550858181518110151561153f57fe5b906020019060200201519150600381019050611395565b6115788887600181518110151561156957fe5b90602001906020020151611583565b505050505050505050565b6000808211151561159357600080fd5b8183600101819055506001905092915050565b6060604051908101604052806003905b60008152602001906001900390816115b65790505090565b8154818355818115116115f5578183600052602060002091820191016115f491906115fa565b5b505050565b61161c91905b80821115611618576000816000905550600101611600565b5090565b905600a165627a7a723058207189cfe6be830ed8fb921e1b22008f4bcd2d82fd8907d332e82ffbb8b55a0d170029",
  "source": "pragma solidity ^0.4.18;\n\n/**\n * @title CrowdsaleLib\n * @author Modular Inc, https://modular.network\n *\n * version 2.2.1\n * Copyright (c) 2017 Modular, Inc\n * The MIT License (MIT)\n * https://github.com/Modular-Network/ethereum-libraries/blob/master/LICENSE\n *\n * The Crowdsale Library provides basic functionality to create an initial coin\n * offering for different types of token sales.\n *\n * Modular provides smart contract services and security reviews for contract\n * deployments in addition to working on open source projects in the Ethereum\n * community. Our purpose is to test, document, and deploy reusable code onto the\n * blockchain and improve both security and usability. We also educate non-profits,\n * schools, and other community members about the application of blockchain\n * technology. For further information: modular.network\n *\n * THE SOFTWARE IS PROVIDED \"AS IS\", WITHOUT WARRANTY OF ANY KIND, EXPRESS\n * OR IMPLIED, INCLUDING BUT NOT LIMITED TO THE WARRANTIES OF\n * MERCHANTABILITY, FITNESS FOR A PARTICULAR PURPOSE AND NONINFRINGEMENT.\n * IN NO EVENT SHALL THE AUTHORS OR COPYRIGHT HOLDERS BE LIABLE FOR ANY\n * CLAIM, DAMAGES OR OTHER LIABILITY, WHETHER IN AN ACTION OF CONTRACT,\n * TORT OR OTHERWISE, ARISING FROM, OUT OF OR IN CONNECTION WITH THE\n * SOFTWARE OR THE USE OR OTHER DEALINGS IN THE SOFTWARE.\n */\n\nimport \"./BasicMathLib.sol\";\nimport \"./TokenLib.sol\";\nimport \"./CrowdsaleToken.sol\";\n\nlibrary CrowdsaleLib {\n  using BasicMathLib for uint256;\n\n  struct CrowdsaleStorage {\n  \taddress owner;     //owner of the crowdsale\n\n  \tuint256 tokensPerEth;  //number of tokens received per ether\n  \tuint256 startTime; //ICO start time, timestamp\n  \tuint256 endTime; //ICO end time, timestamp automatically calculated\n    uint256 ownerBalance; //owner wei Balance\n    uint256 startingTokenBalance; //initial amount of tokens for sale\n    uint256[] milestoneTimes; //Array of timestamps when token price and address cap changes\n    uint8 currentMilestone; //Pointer to the current milestone\n    uint8 percentBurn; //percentage of extra tokens to burn\n    bool tokensSet; //true if tokens have been prepared for crowdsale\n\n    //Maps timestamp to token price and address purchase cap starting at that time\n    mapping (uint256 => uint256[2]) saleData;\n\n    //shows how much wei an address has contributed\n  \tmapping (address => uint256) hasContributed;\n\n    //For token withdraw function, maps a user address to the amount of tokens they can withdraw\n  \tmapping (address => uint256) withdrawTokensMap;\n\n    // any leftover wei that buyers contributed that didn't add up to a whole token amount\n    mapping (address => uint256) leftoverWei;\n\n  \tCrowdsaleToken token; //token being sold\n  }\n\n  // Indicates when an address has withdrawn their supply of tokens\n  event LogTokensWithdrawn(address indexed _bidder, uint256 Amount);\n\n  // Indicates when an address has withdrawn their supply of extra wei\n  event LogWeiWithdrawn(address indexed _bidder, uint256 Amount);\n\n  // Logs when owner has pulled eth\n  event LogOwnerEthWithdrawn(address indexed owner, uint256 amount, string Msg);\n\n  // Generic Notice message that includes and address and number\n  event LogNoticeMsg(address _buyer, uint256 value, string Msg);\n\n  // Indicates when an error has occurred in the execution of a function\n  event LogErrorMsg(uint256 amount, string Msg);\n\n  /// @dev Called by a crowdsale contract upon creation.\n  /// @param self Stored crowdsale from crowdsale contract\n  /// @param _owner Address of crowdsale owner\n  /// @param _saleData Array of 3 item sets such that, in each 3 element\n  /// set, 1 is timestamp, 2 is price in tokens/eth at that time,\n  /// 3 is address token purchase cap at that time, 0 if no address cap\n  /// @param _endTime Timestamp of sale end time\n  /// @param _percentBurn Percentage of extra tokens to burn\n  /// @param _token Token being sold\n  function init(CrowdsaleStorage storage self,\n                address _owner,\n                uint256[] _saleData,\n                uint256 _endTime,\n                uint8 _percentBurn,\n                CrowdsaleToken _token)\n                public\n  {\n  \trequire(self.owner == 0);\n    require(_saleData.length > 0);\n    require((_saleData.length%3) == 0); // ensure saleData is 3-item sets\n    require(_saleData[0] > (now + 2 hours));\n    require(_endTime > _saleData[0]);\n    require(_owner > 0);\n    require(_percentBurn <= 100);\n    self.owner = _owner;\n    self.startTime = _saleData[0];\n    self.endTime = _endTime;\n    self.token = _token;\n    self.percentBurn = _percentBurn;\n\n    uint256 _tempTime;\n    for(uint256 i = 0; i < _saleData.length; i += 3){\n      require(_saleData[i] > _tempTime);\n      require(_saleData[i + 1] > 0);\n      require((_saleData[i + 2] == 0) || (_saleData[i + 2] >= 100));\n      self.milestoneTimes.push(_saleData[i]);\n      self.saleData[_saleData[i]][0] = _saleData[i + 1];\n      self.saleData[_saleData[i]][1] = _saleData[i + 2];\n      _tempTime = _saleData[i];\n    }\n    changeTokenPrice(self, _saleData[1]);\n  }\n\n  /// @dev function to check if the crowdsale is currently active\n  /// @param self Stored crowdsale from crowdsale contract\n  /// @return success\n  function crowdsaleActive(CrowdsaleStorage storage self) public view returns (bool) {\n  \treturn (now >= self.startTime && now <= self.endTime);\n  }\n\n  /// @dev function to check if the crowdsale has ended\n  /// @param self Stored crowdsale from crowdsale contract\n  /// @return success\n  function crowdsaleEnded(CrowdsaleStorage storage self) public view returns (bool) {\n  \treturn now > self.endTime;\n  }\n\n  /// @dev function to check if a purchase is valid\n  /// @param self Stored crowdsale from crowdsale contract\n  /// @return true if the transaction can buy tokens\n  function validPurchase(CrowdsaleStorage storage self) internal returns (bool) {\n    bool nonZeroPurchase = msg.value != 0;\n    if (crowdsaleActive(self) && nonZeroPurchase) {\n      return true;\n    } else {\n      LogErrorMsg(msg.value, \"Invalid Purchase! Check start time and amount of ether.\");\n      return false;\n    }\n  }\n\n  /// @dev Function called by purchasers to pull tokens\n  /// @param self Stored crowdsale from crowdsale contract\n  /// @return true if tokens were withdrawn\n  function withdrawTokens(CrowdsaleStorage storage self) public returns (bool) {\n    bool ok;\n\n    if (self.withdrawTokensMap[msg.sender] == 0) {\n      LogErrorMsg(0, \"Sender has no tokens to withdraw!\");\n      return false;\n    }\n\n    if (msg.sender == self.owner) {\n      if(!crowdsaleEnded(self)){\n        LogErrorMsg(0, \"Owner cannot withdraw extra tokens until after the sale!\");\n        return false;\n      } else {\n        if(self.percentBurn > 0){\n          uint256 _burnAmount = (self.withdrawTokensMap[msg.sender] * self.percentBurn)/100;\n          self.withdrawTokensMap[msg.sender] = self.withdrawTokensMap[msg.sender] - _burnAmount;\n          ok = self.token.burnToken(_burnAmount);\n          require(ok);\n        }\n      }\n    }\n\n    var total = self.withdrawTokensMap[msg.sender];\n    self.withdrawTokensMap[msg.sender] = 0;\n    ok = self.token.transfer(msg.sender, total);\n    require(ok);\n    LogTokensWithdrawn(msg.sender, total);\n    return true;\n  }\n\n  /// @dev Function called by purchasers to pull leftover wei from their purchases\n  /// @param self Stored crowdsale from crowdsale contract\n  /// @return true if wei was withdrawn\n  function withdrawLeftoverWei(CrowdsaleStorage storage self) public returns (bool) {\n    if (self.leftoverWei[msg.sender] == 0) {\n      LogErrorMsg(0, \"Sender has no extra wei to withdraw!\");\n      return false;\n    }\n\n    var total = self.leftoverWei[msg.sender];\n    self.leftoverWei[msg.sender] = 0;\n    msg.sender.transfer(total);\n    LogWeiWithdrawn(msg.sender, total);\n    return true;\n  }\n\n  /// @dev send ether from the completed crowdsale to the owners wallet address\n  /// @param self Stored crowdsale from crowdsale contract\n  /// @return true if owner withdrew eth\n  function withdrawOwnerEth(CrowdsaleStorage storage self) public returns (bool) {\n    if ((!crowdsaleEnded(self)) && (self.token.balanceOf(this)>0)) {\n      LogErrorMsg(0, \"Cannot withdraw owner ether until after the sale!\");\n      return false;\n    }\n\n    require(msg.sender == self.owner);\n    require(self.ownerBalance > 0);\n\n    uint256 amount = self.ownerBalance;\n    self.ownerBalance = 0;\n    self.owner.transfer(amount);\n    LogOwnerEthWithdrawn(msg.sender,amount,\"Crowdsale owner has withdrawn all funds!\");\n\n    return true;\n  }\n\n  /// @dev Function to change the price of the token\n  /// @param self Stored crowdsale from crowdsale contract\n  /// @param _tokensPerEth new token price (amount of tokens per ether)\n  /// @return true if the token price changed successfully\n  function changeTokenPrice(CrowdsaleStorage storage self,\n                            uint256 _tokensPerEth)\n                            internal\n                            returns (bool)\n  {\n  \trequire(_tokensPerEth > 0);\n\n    self.tokensPerEth = _tokensPerEth;\n\n    return true;\n  }\n\n  /// @dev function to set tokens for the sale\n  /// @param self Stored Crowdsale from crowdsale contract\n  /// @return true if tokens set successfully\n  function setTokens(CrowdsaleStorage storage self) public returns (bool) {\n    require(msg.sender == self.owner);\n    require(!self.tokensSet);\n    require(now < self.endTime);\n\n    uint256 _tokenBalance;\n\n    _tokenBalance = self.token.balanceOf(this);\n    self.withdrawTokensMap[msg.sender] = _tokenBalance;\n    self.startingTokenBalance = _tokenBalance;\n    self.tokensSet = true;\n\n    return true;\n  }\n\n  /// @dev Gets the price and buy cap for individual addresses at the given milestone index\n  /// @param self Stored Crowdsale from crowdsale contract\n  /// @param timestamp Time during sale for which data is requested\n  /// @return A 3-element array with 0 the timestamp, 1 the price in cents, 2 the address cap\n  function getSaleData(CrowdsaleStorage storage self, uint256 timestamp)\n                       public\n                       view\n                       returns (uint256[3])\n  {\n    uint256[3] memory _thisData;\n    uint256 index;\n\n    while((index < self.milestoneTimes.length) && (self.milestoneTimes[index] < timestamp)) {\n      index++;\n    }\n    if(index == 0)\n      index++;\n\n    _thisData[0] = self.milestoneTimes[index - 1];\n    _thisData[1] = self.saleData[_thisData[0]][0];\n    _thisData[2] = self.saleData[_thisData[0]][1];\n    return _thisData;\n  }\n\n  /// @dev Gets the number of tokens sold thus far\n  /// @param self Stored Crowdsale from crowdsale contract\n  /// @return Number of tokens sold\n  function getTokensSold(CrowdsaleStorage storage self) public view returns (uint256) {\n    return self.startingTokenBalance - self.withdrawTokensMap[self.owner];\n  }\n}\n",
  "sourcePath": "/Users/hackdom/Projects/ethereum-libraries/CrowdsaleLib/IICOLib/truffle/contracts/CrowdsaleLib.sol",
  "compiler": {
    "name": "solc",
    "version": "0.4.18+commit.9cf6e910.Emscripten.clang"
  },
  "schemaVersion": "1.0.1",
  "updatedAt": "2018-01-15T10:40:22.531Z"
}