{
  "contractName": "ERC20Lib",
  "abi": [
    {
      "constant": false,
      "inputs": [
        {
          "name": "self",
          "type": "ERC20Lib.TokenStorage storage"
        },
        {
          "name": "_to",
          "type": "address"
        },
        {
          "name": "_value",
          "type": "uint256"
        }
      ],
      "name": "transfer",
      "outputs": [
        {
          "name": "success",
          "type": "bool"
        }
      ],
      "payable": false,
      "stateMutability": "nonpayable",
      "type": "function"
    },
    {
      "constant": false,
      "inputs": [
        {
          "name": "self",
          "type": "ERC20Lib.TokenStorage storage"
        },
        {
          "name": "_initial_supply",
          "type": "uint256"
        }
      ],
      "name": "init",
      "outputs": [],
      "payable": false,
      "stateMutability": "nonpayable",
      "type": "function"
    },
    {
      "constant": false,
      "inputs": [
        {
          "name": "self",
          "type": "ERC20Lib.TokenStorage storage"
        },
        {
          "name": "_from",
          "type": "address"
        },
        {
          "name": "_to",
          "type": "address"
        },
        {
          "name": "_value",
          "type": "uint256"
        }
      ],
      "name": "transferFrom",
      "outputs": [
        {
          "name": "success",
          "type": "bool"
        }
      ],
      "payable": false,
      "stateMutability": "nonpayable",
      "type": "function"
    },
    {
      "constant": false,
      "inputs": [
        {
          "name": "self",
          "type": "ERC20Lib.TokenStorage storage"
        },
        {
          "name": "_spender",
          "type": "address"
        },
        {
          "name": "_value",
          "type": "uint256"
        }
      ],
      "name": "approve",
      "outputs": [
        {
          "name": "success",
          "type": "bool"
        }
      ],
      "payable": false,
      "stateMutability": "nonpayable",
      "type": "function"
    },
    {
      "constant": true,
      "inputs": [
        {
          "name": "self",
          "type": "ERC20Lib.TokenStorage storage"
        },
        {
          "name": "_owner",
          "type": "address"
        },
        {
          "name": "_spender",
          "type": "address"
        }
      ],
      "name": "allowance",
      "outputs": [
        {
          "name": "remaining",
          "type": "uint256"
        }
      ],
      "payable": false,
      "stateMutability": "view",
      "type": "function"
    },
    {
      "constant": true,
      "inputs": [
        {
          "name": "self",
          "type": "ERC20Lib.TokenStorage storage"
        },
        {
          "name": "_owner",
          "type": "address"
        }
      ],
      "name": "balanceOf",
      "outputs": [
        {
          "name": "balance",
          "type": "uint256"
        }
      ],
      "payable": false,
      "stateMutability": "view",
      "type": "function"
    },
    {
      "anonymous": false,
      "inputs": [
        {
          "indexed": true,
          "name": "from",
          "type": "address"
        },
        {
          "indexed": true,
          "name": "to",
          "type": "address"
        },
        {
          "indexed": false,
          "name": "value",
          "type": "uint256"
        }
      ],
      "name": "Transfer",
      "type": "event"
    },
    {
      "anonymous": false,
      "inputs": [
        {
          "indexed": true,
          "name": "owner",
          "type": "address"
        },
        {
          "indexed": true,
          "name": "spender",
          "type": "address"
        },
        {
          "indexed": false,
          "name": "value",
          "type": "uint256"
        }
      ],
      "name": "Approval",
      "type": "event"
    },
    {
      "anonymous": false,
      "inputs": [
        {
          "indexed": false,
          "name": "msg",
          "type": "string"
        }
      ],
      "name": "ErrorMsg",
      "type": "event"
    }
  ],
  "bytecode": "0x6060604052341561000f57600080fd5b610c548061001e6000396000f300606060405260043610610078576000357c0100000000000000000000000000000000000000000000000000000000900463ffffffff1680632d0277b91461007d57806343505a75146100d557806345008797146100f65780635bada3381461016d57806388fd6510146101c5578063d1717fd41461022f575b600080fd5b6100bb600480803590602001909190803573ffffffffffffffffffffffffffffffffffffffff1690602001909190803590602001909190505061027a565b604051808215151515815260200191505060405180910390f35b6100f4600480803590602001909190803590602001909190505061051e565b005b610153600480803590602001909190803573ffffffffffffffffffffffffffffffffffffffff1690602001909190803573ffffffffffffffffffffffffffffffffffffffff16906020019091908035906020019091905050610593565b604051808215151515815260200191505060405180910390f35b6101ab600480803590602001909190803573ffffffffffffffffffffffffffffffffffffffff16906020019091908035906020019091905050610a5d565b604051808215151515815260200191505060405180910390f35b610219600480803590602001909190803573ffffffffffffffffffffffffffffffffffffffff1690602001909190803573ffffffffffffffffffffffffffffffffffffffff16906020019091905050610b52565b6040518082815260200191505060405180910390f35b610264600480803590602001909190803573ffffffffffffffffffffffffffffffffffffffff16906020019091905050610bdc565b6040518082815260200191505060405180910390f35b60008060008560000160003373ffffffffffffffffffffffffffffffffffffffff1673ffffffffffffffffffffffffffffffffffffffff1681526020019081526020016000205473__BasicMathLib__________________________63f4f3bdc19091866000604051604001526040518363ffffffff167c01000000000000000000000000000000000000000000000000000000000281526004018083815260200182815260200192505050604080518083038186803b151561033c57600080fd5b6102c65a03f4151561034d57600080fd5b50505060405180519060200180519050809250819350505081156103dc577ffda92d3eab1d27b971923f5a2ea4107b7a0513584e8f3adf52ea0557e10e8e9e60405180806020018281038252601c8152602001807f42616c616e636520746f6f206c6f7720666f72207472616e736665720000000081525060200191505060405180910390a160009250610515565b808660000160003373ffffffffffffffffffffffffffffffffffffffff1673ffffffffffffffffffffffffffffffffffffffff16815260200190815260200160002081905550838660000160008773ffffffffffffffffffffffffffffffffffffffff1673ffffffffffffffffffffffffffffffffffffffff16815260200190815260200160002054018660000160008773ffffffffffffffffffffffffffffffffffffffff1673ffffffffffffffffffffffffffffffffffffffff168152602001908152602001600020819055508473ffffffffffffffffffffffffffffffffffffffff163373ffffffffffffffffffffffffffffffffffffffff167fddf252ad1be2c89b69c2b068fc378daa952ba7f163c4a11628f55a4df523b3ef866040518082815260200191505060405180910390a3600192505b50509392505050565b6000826002015414151561053157600080fd5b60008111151561054057600080fd5b808260020181905550808260000160003373ffffffffffffffffffffffffffffffffffffffff1673ffffffffffffffffffffffffffffffffffffffff168152602001908152602001600020819055505050565b60008060008060008860010160008973ffffffffffffffffffffffffffffffffffffffff1673ffffffffffffffffffffffffffffffffffffffff16815260200190815260200160002060003373ffffffffffffffffffffffffffffffffffffffff1673ffffffffffffffffffffffffffffffffffffffff1681526020019081526020016000205493508860000160008973ffffffffffffffffffffffffffffffffffffffff1673ffffffffffffffffffffffffffffffffffffffff1681526020019081526020016000205473__BasicMathLib__________________________63f4f3bdc19091886000604051604001526040518363ffffffff167c01000000000000000000000000000000000000000000000000000000000281526004018083815260200182815260200192505050604080518083038186803b15156106d957600080fd5b6102c65a03f415156106ea57600080fd5b5050506040518051906020018051905080935081945050508215610779577ffda92d3eab1d27b971923f5a2ea4107b7a0513584e8f3adf52ea0557e10e8e9e60405180806020018281038252601c8152602001807f42616c616e636520746f6f206c6f7720666f72207472616e736665720000000081525060200191505060405180910390a160009450610a51565b8373__BasicMathLib__________________________63f4f3bdc19091886000604051604001526040518363ffffffff167c01000000000000000000000000000000000000000000000000000000000281526004018083815260200182815260200192505050604080518083038186803b15156107f557600080fd5b6102c65a03f4151561080657600080fd5b5050506040518051906020018051905080925081945050508215610895577ffda92d3eab1d27b971923f5a2ea4107b7a0513584e8f3adf52ea0557e10e8e9e60405180806020018281038252601a8152602001807f5472616e73666572206578636565647320616c6c6f77616e636500000000000081525060200191505060405180910390a160009450610a51565b818960000160008a73ffffffffffffffffffffffffffffffffffffffff1673ffffffffffffffffffffffffffffffffffffffff16815260200190815260200160002081905550808960010160008a73ffffffffffffffffffffffffffffffffffffffff1673ffffffffffffffffffffffffffffffffffffffff16815260200190815260200160002060003373ffffffffffffffffffffffffffffffffffffffff1673ffffffffffffffffffffffffffffffffffffffff16815260200190815260200160002081905550858960000160008973ffffffffffffffffffffffffffffffffffffffff1673ffffffffffffffffffffffffffffffffffffffff16815260200190815260200160002054018960000160008973ffffffffffffffffffffffffffffffffffffffff1673ffffffffffffffffffffffffffffffffffffffff168152602001908152602001600020819055508673ffffffffffffffffffffffffffffffffffffffff168873ffffffffffffffffffffffffffffffffffffffff167fddf252ad1be2c89b69c2b068fc378daa952ba7f163c4a11628f55a4df523b3ef886040518082815260200191505060405180910390a3600194505b50505050949350505050565b6000818460010160003373ffffffffffffffffffffffffffffffffffffffff1673ffffffffffffffffffffffffffffffffffffffff16815260200190815260200160002060008573ffffffffffffffffffffffffffffffffffffffff1673ffffffffffffffffffffffffffffffffffffffff168152602001908152602001600020819055508273ffffffffffffffffffffffffffffffffffffffff163373ffffffffffffffffffffffffffffffffffffffff167f8c5be1e5ebec7d5bd14f71427d1e84f3dd0314c0f7b2291e5b200ac8c7c3b925846040518082815260200191505060405180910390a3600190509392505050565b60008360010160008473ffffffffffffffffffffffffffffffffffffffff1673ffffffffffffffffffffffffffffffffffffffff16815260200190815260200160002060008373ffffffffffffffffffffffffffffffffffffffff1673ffffffffffffffffffffffffffffffffffffffff1681526020019081526020016000205490509392505050565b60008260000160008373ffffffffffffffffffffffffffffffffffffffff1673ffffffffffffffffffffffffffffffffffffffff168152602001908152602001600020549050929150505600a165627a7a72305820e287e438f0ec186f53ae0cfc54e2c13b934817168cab9f51337a24b4cadae3030029",
  "source": "pragma solidity ^0.4.18;\n\n/**\n * @title ERC20Lib\n * @author Majoolr.io\n *\n * version 1.0.1\n * Copyright (c) 2017 Majoolr, LLC\n * The MIT License (MIT)\n * https://github.com/Majoolr/ethereum-libraries/blob/master/LICENSE\n *\n * The ERC20 Library is inspired by advice offered by Aragon at\n * https://blog.aragon.one/library-driven-development-in-solidity-2bebcaf88736 .\n * That version of the library has been modified to provide error messages\n * rather than throw errors. This allows the developer to decide how she wants\n * handle failed transactions. The developer can choose to assert a true return\n * value and allow automatic reversion of state changes or, if no state changes\n * have been made, she can trigger an event message to give the user a\n * descriptive outcome.\n *\n * Majoolr works on open source projects in the Ethereum community with the\n * purpose of testing, documenting, and deploying reusable code onto the\n * blockchain to improve security and usability of smart contracts. Majoolr\n * also strives to educate non-profits, schools, and other community members\n * about the application of blockchain technology.\n * For further information: majoolr.io, aragon.one\n *\n * THE SOFTWARE IS PROVIDED \"AS IS\", WITHOUT WARRANTY OF ANY KIND, EXPRESS\n * OR IMPLIED, INCLUDING BUT NOT LIMITED TO THE WARRANTIES OF\n * MERCHANTABILITY, FITNESS FOR A PARTICULAR PURPOSE AND NONINFRINGEMENT.\n * IN NO EVENT SHALL THE AUTHORS OR COPYRIGHT HOLDERS BE LIABLE FOR ANY\n * CLAIM, DAMAGES OR OTHER LIABILITY, WHETHER IN AN ACTION OF CONTRACT,\n * TORT OR OTHERWISE, ARISING FROM, OUT OF OR IN CONNECTION WITH THE\n * SOFTWARE OR THE USE OR OTHER DEALINGS IN THE SOFTWARE.\n */\n\nimport \"./BasicMathLib.sol\";\n\nlibrary ERC20Lib {\n  using BasicMathLib for uint256;\n\n  struct TokenStorage {\n    mapping (address => uint256) balances;\n    mapping (address => mapping (address => uint256)) allowed;\n    uint totalSupply;\n  }\n\n  event Transfer(address indexed from, address indexed to, uint256 value);\n  event Approval(address indexed owner, address indexed spender, uint256 value);\n  event ErrorMsg(string msg);\n\n  /// @dev Called by the Standard Token upon creation.\n  /// @param self Stored token from token contract\n  /// @param _initial_supply The initial token supply\n  function init(TokenStorage storage self, uint256 _initial_supply) public {\n    require(self.totalSupply == 0);\n    require(_initial_supply > 0);\n    self.totalSupply = _initial_supply;\n    self.balances[msg.sender] = _initial_supply;\n  }\n\n  /// @dev Transfer tokens from caller's account to another account.\n  /// @param self Stored token from token contract\n  /// @param _to Address to send tokens\n  /// @param _value Number of tokens to send\n  /// @return success True if completed, false otherwise\n  function transfer(TokenStorage storage self, address _to, uint256 _value) public returns (bool success) {\n    bool err;\n    uint256 balance;\n\n    (err,balance) = self.balances[msg.sender].minus(_value);\n    if(err) {\n      ErrorMsg(\"Balance too low for transfer\");\n      return false;\n    }\n    self.balances[msg.sender] = balance;\n    //It's not possible to overflow token supply\n    self.balances[_to] = self.balances[_to] + _value;\n    Transfer(msg.sender, _to, _value);\n    return true;\n  }\n\n  /// @dev Authorized caller transfers tokens from one account to another\n  /// @param self Stored token from token contract\n  /// @param _from Address to send tokens from\n  /// @param _to Address to send tokens to\n  /// @param _value Number of tokens to send\n  /// @return success True if completed, false otherwise\n  function transferFrom(TokenStorage storage self,\n                        address _from,\n                        address _to,\n                        uint256 _value)\n                        public\n                        returns (bool success) {\n    var _allowance = self.allowed[_from][msg.sender];\n    bool err;\n    uint256 balanceOwner;\n    uint256 balanceSpender;\n\n    (err,balanceOwner) = self.balances[_from].minus(_value);\n    if(err) {\n      ErrorMsg(\"Balance too low for transfer\");\n      return false;\n    }\n\n    (err,balanceSpender) = _allowance.minus(_value);\n    if(err) {\n      ErrorMsg(\"Transfer exceeds allowance\");\n      return false;\n    }\n    self.balances[_from] = balanceOwner;\n    self.allowed[_from][msg.sender] = balanceSpender;\n    self.balances[_to] = self.balances[_to] + _value;\n\n    Transfer(_from, _to, _value);\n    return true;\n  }\n\n  /// @dev Retrieve token balance for an account\n  /// @param self Stored token from token contract\n  /// @param _owner Address to retrieve balance of\n  /// @return balance The number of tokens in the subject account\n  function balanceOf(TokenStorage storage self, address _owner) public view returns (uint256 balance) {\n    return self.balances[_owner];\n  }\n\n  /// @dev Authorize an account to send tokens on caller's behalf\n  /// @param self Stored token from token contract\n  /// @param _spender Address to authorize\n  /// @param _value Number of tokens authorized account may send\n  /// @return success True if completed, false otherwise\n  function approve(TokenStorage storage self, address _spender, uint256 _value) public returns (bool success) {\n    self.allowed[msg.sender][_spender] = _value;\n    Approval(msg.sender, _spender, _value);\n    return true;\n  }\n\n  /// @dev Remaining tokens third party spender has to send\n  /// @param self Stored token from token contract\n  /// @param _owner Address of token holder\n  /// @param _spender Address of authorized spender\n  /// @return remaining Number of tokens spender has left in owner's account\n  function allowance(TokenStorage storage self, address _owner, address _spender) public view returns (uint256 remaining) {\n    return self.allowed[_owner][_spender];\n  }\n}\n",
  "sourcePath": "/Users/joshuahannan/repository/majoolr/ethereum-libraries/WalletLib/truffle/contracts/ERC20Lib.sol",
  "compiler": {
    "name": "solc",
    "version": "0.4.18+commit.9cf6e910.Emscripten.clang"
  },
  "schemaVersion": "1.0.1",
  "updatedAt": "2017-11-29T21:00:38.149Z"
}