{
  "contractName": "TestToken",
  "abi": [
    {
      "constant": false,
      "inputs": [
        {
          "name": "spender",
          "type": "address"
        },
        {
          "name": "value",
          "type": "uint256"
        }
      ],
      "name": "approve",
      "outputs": [
        {
          "name": "ok",
          "type": "bool"
        }
      ],
      "payable": false,
      "stateMutability": "nonpayable",
      "type": "function"
    },
    {
      "constant": true,
      "inputs": [],
      "name": "totalSupply",
      "outputs": [
        {
          "name": "",
          "type": "uint256"
        }
      ],
      "payable": false,
      "stateMutability": "view",
      "type": "function"
    },
    {
      "constant": false,
      "inputs": [
        {
          "name": "from",
          "type": "address"
        },
        {
          "name": "to",
          "type": "address"
        },
        {
          "name": "value",
          "type": "uint256"
        }
      ],
      "name": "transferFrom",
      "outputs": [
        {
          "name": "ok",
          "type": "bool"
        }
      ],
      "payable": false,
      "stateMutability": "nonpayable",
      "type": "function"
    },
    {
      "constant": true,
      "inputs": [],
      "name": "INITIAL_SUPPLY",
      "outputs": [
        {
          "name": "",
          "type": "uint256"
        }
      ],
      "payable": false,
      "stateMutability": "view",
      "type": "function"
    },
    {
      "constant": true,
      "inputs": [
        {
          "name": "who",
          "type": "address"
        }
      ],
      "name": "balanceOf",
      "outputs": [
        {
          "name": "",
          "type": "uint256"
        }
      ],
      "payable": false,
      "stateMutability": "view",
      "type": "function"
    },
    {
      "constant": false,
      "inputs": [
        {
          "name": "to",
          "type": "address"
        },
        {
          "name": "value",
          "type": "uint256"
        }
      ],
      "name": "transfer",
      "outputs": [
        {
          "name": "ok",
          "type": "bool"
        }
      ],
      "payable": false,
      "stateMutability": "nonpayable",
      "type": "function"
    },
    {
      "constant": true,
      "inputs": [
        {
          "name": "owner",
          "type": "address"
        },
        {
          "name": "spender",
          "type": "address"
        }
      ],
      "name": "allowance",
      "outputs": [
        {
          "name": "",
          "type": "uint256"
        }
      ],
      "payable": false,
      "stateMutability": "view",
      "type": "function"
    },
    {
      "inputs": [],
      "payable": false,
      "stateMutability": "nonpayable",
      "type": "constructor"
    },
    {
      "anonymous": false,
      "inputs": [
        {
          "indexed": true,
          "name": "from",
          "type": "address"
        },
        {
          "indexed": true,
          "name": "to",
          "type": "address"
        },
        {
          "indexed": false,
          "name": "value",
          "type": "uint256"
        }
      ],
      "name": "Transfer",
      "type": "event"
    },
    {
      "anonymous": false,
      "inputs": [
        {
          "indexed": true,
          "name": "owner",
          "type": "address"
        },
        {
          "indexed": true,
          "name": "spender",
          "type": "address"
        },
        {
          "indexed": false,
          "name": "value",
          "type": "uint256"
        }
      ],
      "name": "Approval",
      "type": "event"
    },
    {
      "anonymous": false,
      "inputs": [
        {
          "indexed": false,
          "name": "msg",
          "type": "string"
        }
      ],
      "name": "ErrorMsg",
      "type": "event"
    }
  ],
  "bytecode": "0x6060604052600a600355341561001457600080fd5b600073__ERC20Lib______________________________6343505a7590916003546040518363ffffffff167c0100000000000000000000000000000000000000000000000000000000028152600401808381526020018281526020019250505060006040518083038186803b151561008b57600080fd5b6102c65a03f4151561009c57600080fd5b505050610784806100ae6000396000f300606060405260043610610083576000357c0100000000000000000000000000000000000000000000000000000000900463ffffffff168063095ea7b31461008857806318160ddd146100e257806323b872dd1461010b5780632ff2e9dc1461018457806370a08231146101ad578063a9059cbb146101fa578063dd62ed3e14610254575b600080fd5b341561009357600080fd5b6100c8600480803573ffffffffffffffffffffffffffffffffffffffff169060200190919080359060200190919050506102c0565b604051808215151515815260200191505060405180910390f35b34156100ed57600080fd5b6100f5610396565b6040518082815260200191505060405180910390f35b341561011657600080fd5b61016a600480803573ffffffffffffffffffffffffffffffffffffffff1690602001909190803573ffffffffffffffffffffffffffffffffffffffff169060200190919080359060200190919050506103a2565b604051808215151515815260200191505060405180910390f35b341561018f57600080fd5b6101976104ad565b6040518082815260200191505060405180910390f35b34156101b857600080fd5b6101e4600480803573ffffffffffffffffffffffffffffffffffffffff169060200190919050506104b3565b6040518082815260200191505060405180910390f35b341561020557600080fd5b61023a600480803573ffffffffffffffffffffffffffffffffffffffff16906020019091908035906020019091905050610580565b604051808215151515815260200191505060405180910390f35b341561025f57600080fd5b6102aa600480803573ffffffffffffffffffffffffffffffffffffffff1690602001909190803573ffffffffffffffffffffffffffffffffffffffff16906020019091905050610656565b6040518082815260200191505060405180910390f35b60008073__ERC20Lib______________________________635bada338909185856000604051602001526040518463ffffffff167c0100000000000000000000000000000000000000000000000000000000028152600401808481526020018373ffffffffffffffffffffffffffffffffffffffff1673ffffffffffffffffffffffffffffffffffffffff168152602001828152602001935050505060206040518083038186803b151561037357600080fd5b6102c65a03f4151561038457600080fd5b50505060405180519050905092915050565b60008060020154905090565b60008073__ERC20Lib______________________________634500879790918686866000604051602001526040518563ffffffff167c0100000000000000000000000000000000000000000000000000000000028152600401808581526020018473ffffffffffffffffffffffffffffffffffffffff1673ffffffffffffffffffffffffffffffffffffffff1681526020018373ffffffffffffffffffffffffffffffffffffffff1673ffffffffffffffffffffffffffffffffffffffff16815260200182815260200194505050505060206040518083038186803b151561048957600080fd5b6102c65a03f4151561049a57600080fd5b5050506040518051905090509392505050565b60035481565b60008073__ERC20Lib______________________________63d1717fd49091846000604051602001526040518363ffffffff167c0100000000000000000000000000000000000000000000000000000000028152600401808381526020018273ffffffffffffffffffffffffffffffffffffffff1673ffffffffffffffffffffffffffffffffffffffff1681526020019250505060206040518083038186803b151561055e57600080fd5b6102c65a03f4151561056f57600080fd5b505050604051805190509050919050565b60008073__ERC20Lib______________________________632d0277b9909185856000604051602001526040518463ffffffff167c0100000000000000000000000000000000000000000000000000000000028152600401808481526020018373ffffffffffffffffffffffffffffffffffffffff1673ffffffffffffffffffffffffffffffffffffffff168152602001828152602001935050505060206040518083038186803b151561063357600080fd5b6102c65a03f4151561064457600080fd5b50505060405180519050905092915050565b60008073__ERC20Lib______________________________6388fd6510909185856000604051602001526040518463ffffffff167c0100000000000000000000000000000000000000000000000000000000028152600401808481526020018373ffffffffffffffffffffffffffffffffffffffff1673ffffffffffffffffffffffffffffffffffffffff1681526020018273ffffffffffffffffffffffffffffffffffffffff1673ffffffffffffffffffffffffffffffffffffffff168152602001935050505060206040518083038186803b151561073557600080fd5b6102c65a03f4151561074657600080fd5b505050604051805190509050929150505600a165627a7a723058208867fd20419bdc6839e878dc6876bcdca4fd35be1d2f7d3bb184b192cd1fd6590029",
  "deployedBytecode": "0x606060405260043610610083576000357c0100000000000000000000000000000000000000000000000000000000900463ffffffff168063095ea7b31461008857806318160ddd146100e257806323b872dd1461010b5780632ff2e9dc1461018457806370a08231146101ad578063a9059cbb146101fa578063dd62ed3e14610254575b600080fd5b341561009357600080fd5b6100c8600480803573ffffffffffffffffffffffffffffffffffffffff169060200190919080359060200190919050506102c0565b604051808215151515815260200191505060405180910390f35b34156100ed57600080fd5b6100f5610396565b6040518082815260200191505060405180910390f35b341561011657600080fd5b61016a600480803573ffffffffffffffffffffffffffffffffffffffff1690602001909190803573ffffffffffffffffffffffffffffffffffffffff169060200190919080359060200190919050506103a2565b604051808215151515815260200191505060405180910390f35b341561018f57600080fd5b6101976104ad565b6040518082815260200191505060405180910390f35b34156101b857600080fd5b6101e4600480803573ffffffffffffffffffffffffffffffffffffffff169060200190919050506104b3565b6040518082815260200191505060405180910390f35b341561020557600080fd5b61023a600480803573ffffffffffffffffffffffffffffffffffffffff16906020019091908035906020019091905050610580565b604051808215151515815260200191505060405180910390f35b341561025f57600080fd5b6102aa600480803573ffffffffffffffffffffffffffffffffffffffff1690602001909190803573ffffffffffffffffffffffffffffffffffffffff16906020019091905050610656565b6040518082815260200191505060405180910390f35b60008073__ERC20Lib______________________________635bada338909185856000604051602001526040518463ffffffff167c0100000000000000000000000000000000000000000000000000000000028152600401808481526020018373ffffffffffffffffffffffffffffffffffffffff1673ffffffffffffffffffffffffffffffffffffffff168152602001828152602001935050505060206040518083038186803b151561037357600080fd5b6102c65a03f4151561038457600080fd5b50505060405180519050905092915050565b60008060020154905090565b60008073__ERC20Lib______________________________634500879790918686866000604051602001526040518563ffffffff167c0100000000000000000000000000000000000000000000000000000000028152600401808581526020018473ffffffffffffffffffffffffffffffffffffffff1673ffffffffffffffffffffffffffffffffffffffff1681526020018373ffffffffffffffffffffffffffffffffffffffff1673ffffffffffffffffffffffffffffffffffffffff16815260200182815260200194505050505060206040518083038186803b151561048957600080fd5b6102c65a03f4151561049a57600080fd5b5050506040518051905090509392505050565b60035481565b60008073__ERC20Lib______________________________63d1717fd49091846000604051602001526040518363ffffffff167c0100000000000000000000000000000000000000000000000000000000028152600401808381526020018273ffffffffffffffffffffffffffffffffffffffff1673ffffffffffffffffffffffffffffffffffffffff1681526020019250505060206040518083038186803b151561055e57600080fd5b6102c65a03f4151561056f57600080fd5b505050604051805190509050919050565b60008073__ERC20Lib______________________________632d0277b9909185856000604051602001526040518463ffffffff167c0100000000000000000000000000000000000000000000000000000000028152600401808481526020018373ffffffffffffffffffffffffffffffffffffffff1673ffffffffffffffffffffffffffffffffffffffff168152602001828152602001935050505060206040518083038186803b151561063357600080fd5b6102c65a03f4151561064457600080fd5b50505060405180519050905092915050565b60008073__ERC20Lib______________________________6388fd6510909185856000604051602001526040518463ffffffff167c0100000000000000000000000000000000000000000000000000000000028152600401808481526020018373ffffffffffffffffffffffffffffffffffffffff1673ffffffffffffffffffffffffffffffffffffffff1681526020018273ffffffffffffffffffffffffffffffffffffffff1673ffffffffffffffffffffffffffffffffffffffff168152602001935050505060206040518083038186803b151561073557600080fd5b6102c65a03f4151561074657600080fd5b505050604051805190509050929150505600a165627a7a723058208867fd20419bdc6839e878dc6876bcdca4fd35be1d2f7d3bb184b192cd1fd6590029",
  "source": "pragma solidity ^0.4.18;\n\nimport \"./ERC20Lib.sol\";\n\ncontract TestToken {\n  using ERC20Lib for ERC20Lib.TokenStorage;\n\n  event Transfer(address indexed from, address indexed to, uint256 value);\n  event Approval(address indexed owner, address indexed spender, uint256 value);\n  event ErrorMsg(string msg);\n\n  ERC20Lib.TokenStorage token;\n\n  uint public INITIAL_SUPPLY = 10;\n\n  function TestToken() public {\n    token.init(INITIAL_SUPPLY);\n  }\n\n  function totalSupply() public view returns (uint) {\n    return token.totalSupply;\n  }\n\n  function balanceOf(address who) public view returns (uint) {\n    return token.balanceOf(who);\n  }\n\n  function allowance(address owner, address spender) public view returns (uint) {\n    return token.allowance(owner, spender);\n  }\n\n  function transfer(address to, uint value) public returns (bool ok) {\n    return token.transfer(to, value);\n  }\n\n  function transferFrom(address from, address to, uint value) public returns (bool ok) {\n    return token.transferFrom(from, to, value);\n  }\n\n  function approve(address spender, uint value) public returns (bool ok) {\n    return token.approve(spender, value);\n  }\n\n}\n",
  "sourcePath": "/Users/joshuahannan/repository/majoolr/ethereum-libraries/WalletLib/truffle/contracts/TestToken.sol",
  "compiler": {
    "name": "solc",
    "version": "0.4.18+commit.9cf6e910.Emscripten.clang"
  },
  "schemaVersion": "1.0.1",
  "updatedAt": "2017-11-29T21:00:38.143Z"
}