{
  "contractName": "WalletMainLib",
  "abi": [
    {
      "constant": false,
      "inputs": [
        {
          "name": "self",
          "type": "WalletMainLib.WalletData storage"
        },
        {
          "name": "_id",
          "type": "bytes32"
        }
      ],
      "name": "confirmTx",
      "outputs": [
        {
          "name": "",
          "type": "bool"
        }
      ],
      "payable": false,
      "type": "function",
      "stateMutability": "nonpayable"
    },
    {
      "constant": true,
      "inputs": [
        {
          "name": "_required",
          "type": "uint256"
        },
        {
          "name": "_count",
          "type": "uint256"
        }
      ],
      "name": "calcConfirmsNeeded",
      "outputs": [
        {
          "name": "",
          "type": "uint256"
        }
      ],
      "payable": false,
      "type": "function",
      "stateMutability": "pure"
    },
    {
      "constant": false,
      "inputs": [
        {
          "name": "self",
          "type": "WalletMainLib.WalletData storage"
        },
        {
          "name": "_to",
          "type": "address"
        },
        {
          "name": "_value",
          "type": "uint256"
        },
        {
          "name": "_isTransfer",
          "type": "bool"
        },
        {
          "name": "_amount",
          "type": "uint256"
        }
      ],
      "name": "getRequired",
      "outputs": [
        {
          "name": "",
          "type": "uint256"
        }
      ],
      "payable": false,
      "type": "function",
      "stateMutability": "nonpayable"
    },
    {
      "constant": false,
      "inputs": [
        {
          "name": "_txData",
          "type": "bytes"
        },
        {
          "name": "_value",
          "type": "uint256"
        }
      ],
      "name": "createContract",
      "outputs": [],
      "payable": false,
      "type": "function",
      "stateMutability": "nonpayable"
    },
    {
      "constant": true,
      "inputs": [
        {
          "name": "_txData",
          "type": "bytes"
        }
      ],
      "name": "getAmount",
      "outputs": [
        {
          "name": "",
          "type": "bool"
        },
        {
          "name": "",
          "type": "uint256"
        }
      ],
      "payable": false,
      "type": "function",
      "stateMutability": "pure"
    },
    {
      "constant": false,
      "inputs": [
        {
          "name": "self",
          "type": "WalletMainLib.WalletData storage"
        },
        {
          "name": "_to",
          "type": "address"
        },
        {
          "name": "_value",
          "type": "uint256"
        },
        {
          "name": "_txData",
          "type": "bytes"
        },
        {
          "name": "_confirm",
          "type": "bool"
        },
        {
          "name": "_data",
          "type": "bytes"
        }
      ],
      "name": "serveTx",
      "outputs": [
        {
          "name": "",
          "type": "bool"
        },
        {
          "name": "",
          "type": "bytes32"
        }
      ],
      "payable": false,
      "type": "function",
      "stateMutability": "nonpayable"
    },
    {
      "constant": false,
      "inputs": [
        {
          "name": "self",
          "type": "WalletMainLib.WalletData storage"
        },
        {
          "name": "_id",
          "type": "bytes32"
        },
        {
          "name": "_number",
          "type": "uint256"
        }
      ],
      "name": "checkNotConfirmed",
      "outputs": [
        {
          "name": "",
          "type": "bool"
        }
      ],
      "payable": false,
      "type": "function",
      "stateMutability": "nonpayable"
    },
    {
      "constant": false,
      "inputs": [
        {
          "name": "self",
          "type": "WalletMainLib.WalletData storage"
        },
        {
          "name": "_id",
          "type": "bytes32"
        }
      ],
      "name": "revokeConfirm",
      "outputs": [
        {
          "name": "",
          "type": "bool"
        }
      ],
      "payable": false,
      "type": "function",
      "stateMutability": "nonpayable"
    },
    {
      "constant": false,
      "inputs": [
        {
          "name": "self",
          "type": "WalletMainLib.WalletData storage"
        },
        {
          "name": "_owners",
          "type": "address[]"
        },
        {
          "name": "_requiredAdmin",
          "type": "uint256"
        },
        {
          "name": "_requiredMajor",
          "type": "uint256"
        },
        {
          "name": "_requiredMinor",
          "type": "uint256"
        },
        {
          "name": "_majorThreshold",
          "type": "uint256"
        }
      ],
      "name": "init",
      "outputs": [
        {
          "name": "",
          "type": "bool"
        }
      ],
      "payable": false,
      "type": "function",
      "stateMutability": "nonpayable"
    },
    {
      "anonymous": false,
      "inputs": [
        {
          "indexed": false,
          "name": "txid",
          "type": "bytes32"
        },
        {
          "indexed": false,
          "name": "sender",
          "type": "address"
        },
        {
          "indexed": false,
          "name": "confirmsNeeded",
          "type": "uint256"
        }
      ],
      "name": "LogRevokeNotice",
      "type": "event"
    },
    {
      "anonymous": false,
      "inputs": [
        {
          "indexed": false,
          "name": "txid",
          "type": "bytes32"
        },
        {
          "indexed": false,
          "name": "sender",
          "type": "address"
        }
      ],
      "name": "LogTransactionFailed",
      "type": "event"
    },
    {
      "anonymous": false,
      "inputs": [
        {
          "indexed": false,
          "name": "txid",
          "type": "bytes32"
        },
        {
          "indexed": false,
          "name": "sender",
          "type": "address"
        },
        {
          "indexed": false,
          "name": "confirmsNeeded",
          "type": "uint256"
        }
      ],
      "name": "LogTransactionConfirmed",
      "type": "event"
    },
    {
      "anonymous": false,
      "inputs": [
        {
          "indexed": false,
          "name": "txid",
          "type": "bytes32"
        },
        {
          "indexed": false,
          "name": "target",
          "type": "address"
        },
        {
          "indexed": false,
          "name": "value",
          "type": "uint256"
        },
        {
          "indexed": false,
          "name": "data",
          "type": "bytes"
        }
      ],
      "name": "LogTransactionComplete",
      "type": "event"
    },
    {
      "anonymous": false,
      "inputs": [
        {
          "indexed": false,
          "name": "newContract",
          "type": "address"
        },
        {
          "indexed": false,
          "name": "value",
          "type": "uint256"
        }
      ],
      "name": "LogContractCreated",
      "type": "event"
    },
    {
      "anonymous": false,
      "inputs": [
        {
          "indexed": false,
          "name": "amount",
          "type": "uint256"
        },
        {
          "indexed": false,
          "name": "msg",
          "type": "string"
        }
      ],
      "name": "LogErrorMsg",
      "type": "event"
    }
  ],
  "bytecode": "0x6060604052341561000f57600080fd5b612b518061001e6000396000f300606060405260043610610099576000357c0100000000000000000000000000000000000000000000000000000000900463ffffffff1680630cbc79ae1461009e5780631f934299146100db5780633f244a4b146101105780633fe9bf0e146101785780634ce18d6b146101d35780635f0d4262146102445780639ae196ff1461033c578063cbf279f714610382578063fb18a41a146103bf575b600080fd5b6100c1600480803590602001909190803560001916906020019091905050610453565b604051808215151515815260200191505060405180910390f35b6100fa6004808035906020019091908035906020019091905050610920565b6040518082815260200191505060405180910390f35b610162600480803590602001909190803573ffffffffffffffffffffffffffffffffffffffff16906020019091908035906020019091908035151590602001909190803590602001909190505061092d565b6040518082815260200191505060405180910390f35b6101d1600480803590602001908201803590602001908080601f01602080910402602001604051908101604052809392919081815260200183838082843782019150505050505091908035906020019091905050610edc565b005b610223600480803590602001908201803590602001908080601f01602080910402602001604051908101604052809392919081815260200183838082843782019150505050505091905050610f6d565b60405180831515151581526020018281526020019250505060405180910390f35b610313600480803590602001909190803573ffffffffffffffffffffffffffffffffffffffff1690602001909190803590602001909190803590602001908201803590602001908080601f01602080910402602001604051908101604052809392919081815260200183838082843782019150505050505091908035151590602001909190803590602001908201803590602001908080601f0160208091040260200160405190810160405280939291908181526020018383808284378201915050505050509190505061110a565b604051808315151515815260200182600019166000191681526020019250505060405180910390f35b610368600480803590602001909190803560001916906020019091908035906020019091905050611aae565b604051808215151515815260200191505060405180910390f35b6103a5600480803590602001909190803560001916906020019091905050611f63565b604051808215151515815260200191505060405180910390f35b610439600480803590602001909190803590602001908201803590602001908080602002602001604051908101604052809392919081815260200183836020028082843782019150505050505091908035906020019091908035906020019091908035906020019091908035906020019091905050612630565b604051808215151515815260200191505060405180910390f35b60008060008060008060008860080160003373ffffffffffffffffffffffffffffffffffffffff1673ffffffffffffffffffffffffffffffffffffffff168152602001908152602001600020541115156104ac57600080fd5b876009016000886000191660001916815260200190815260200160002080549050945060008514156105c4577f8756f3e78da606244d7d8c9563ce2678f294db7c57afce515849e03d5eec6c3a856040518082815260200180602001828103825260108152602001807f5478206e6f7420696e69746961746564000000000000000000000000000000008152506020019250505060405180910390a17f7eaa0c297dc19ad870ff21eac4263ebf4c3c98f752ae80f191b4247e61f9954a87336040518083600019166000191681526020018273ffffffffffffffffffffffffffffffffffffffff1673ffffffffffffffffffffffffffffffffffffffff1681526020019250505060405180910390a160009550610915565b8480600190039550506105d8888887611aae565b92508215156105ea5760009550610915565b87600901600088600019166000191681526020019081526020016000208581548110151561061457fe5b90600052602060002090600902016005018054806001018281610637919061289a565b916000526020600020900160003373ffffffffffffffffffffffffffffffffffffffff169091909150555087600901600088600019166000191681526020019081526020016000208581548110151561068c57fe5b9060005260206000209060090201600601600081548092919060010191905055508760090160008860001916600019168152602001908152602001600020858154811015156106d757fe5b90600052602060002090600902016007015488600901600089600019166000191681526020019081526020016000208681548110151561071357fe5b906000526020600020906009020160060154141561080f573091508173ffffffffffffffffffffffffffffffffffffffff1688600901600089600019166000191681526020019081526020016000208681548110151561076f57fe5b906000526020600020906009020160040160405180828054600181600116156101000203166002900480156107e55780601f106107ba576101008083540402835291602001916107e5565b820191906000526020600020905b8154815290600101906020018083116107c857829003601f168201915b505091505060006040518083038160008661646e5a03f1915050151561080a57600080fd5b610911565b61088f88600901600089600019166000191681526020019081526020016000208681548110151561083c57fe5b9060005260206000209060090201600701548960090160008a600019166000191681526020019081526020016000208781548110151561087857fe5b906000526020600020906009020160060154610920565b90507fef8dcc2e6089d6cdaf4b9e4488d780383081d593a692f3f2a0a75b1b27be61918733836040518084600019166000191681526020018373ffffffffffffffffffffffffffffffffffffffff1673ffffffffffffffffffffffffffffffffffffffff168152602001828152602001935050505060405180910390a1600193505b8395505b505050505092915050565b6000818303905092915050565b600080600080600190508860050160008073ffffffffffffffffffffffffffffffffffffffff168152602001908152602001600020600060028110151561097057fe5b0154620151804281151561098057fe5b041115610a1557620151804281151561099557fe5b048960050160008073ffffffffffffffffffffffffffffffffffffffff16815260200190815260200160002060006002811015156109cf57fe5b018190555060008960050160008073ffffffffffffffffffffffffffffffffffffffff1681526020019081526020016000206001600281101515610a0f57fe5b01819055505b8860050160008073ffffffffffffffffffffffffffffffffffffffff1681526020019081526020016000206001600281101515610a4e57fe5b015473__BasicMathLib__________________________6366098d4f9091896000604051604001526040518363ffffffff167c01000000000000000000000000000000000000000000000000000000000281526004018083815260200182815260200192505050604080518083038186803b1515610acb57600080fd5b6102c65a03f41515610adc57600080fd5b5050506040518051906020018051905080935081945050508215610b73577f8756f3e78da606244d7d8c9563ce2678f294db7c57afce515849e03d5eec6c3a826040518082815260200180602001828103825260128152602001807f4f766572666c6f7720657468207370656e6400000000000000000000000000008152506020019250505060405180910390a160009350610ed0565b8860060160008073ffffffffffffffffffffffffffffffffffffffff16815260200190815260200160002054821015610bab57600090505b60008873ffffffffffffffffffffffffffffffffffffffff1614158015610bcf5750855b15610eb8578860050160008973ffffffffffffffffffffffffffffffffffffffff1673ffffffffffffffffffffffffffffffffffffffff1681526020019081526020016000206000600281101515610c2357fe5b01546201518042811515610c3357fe5b041115610cf4576201518042811515610c4857fe5b048960050160008a73ffffffffffffffffffffffffffffffffffffffff1673ffffffffffffffffffffffffffffffffffffffff1681526020019081526020016000206000600281101515610c9857fe5b018190555060008960050160008a73ffffffffffffffffffffffffffffffffffffffff1673ffffffffffffffffffffffffffffffffffffffff1681526020019081526020016000206001600281101515610cee57fe5b01819055505b8860050160008973ffffffffffffffffffffffffffffffffffffffff1673ffffffffffffffffffffffffffffffffffffffff1681526020019081526020016000206001600281101515610d4357fe5b015473__BasicMathLib__________________________6366098d4f9091876000604051604001526040518363ffffffff167c01000000000000000000000000000000000000000000000000000000000281526004018083815260200182815260200192505050604080518083038186803b1515610dc057600080fd5b6102c65a03f41515610dd157600080fd5b5050506040518051906020018051905080935081945050508215610e68577f8756f3e78da606244d7d8c9563ce2678f294db7c57afce515849e03d5eec6c3a826040518082815260200180602001828103825260148152602001807f4f766572666c6f7720746f6b656e207370656e640000000000000000000000008152506020019250505060405180910390a160009350610ed0565b8860060160008973ffffffffffffffffffffffffffffffffffffffff1673ffffffffffffffffffffffffffffffffffffffff1681526020019081526020016000205482101515610eb757600190505b5b80610ec7578860040154610ecd565b88600301545b93505b50505095945050505050565b60008083516020850184f091506000823b119050801515610efc57600080fd5b7fe2e513482c0a3685f58d03709bd31102a8cc464077d2550c554d23291224d8c88284604051808373ffffffffffffffffffffffffffffffffffffffff1673ffffffffffffffffffffffffffffffffffffffff1681526020018281526020019250505060405180910390a150505050565b60008060008060008060008060008063a9059cbb7c010000000000000000000000000000000000000000000000000000000002955063095ea7b37c01000000000000000000000000000000000000000000000000000000000294506323b872dd7c010000000000000000000000000000000000000000000000000000000002935060208b01519750879650857bffffffffffffffffffffffffffffffffffffffffffffffffffffffff1916877bffffffffffffffffffffffffffffffffffffffffffffffffffffffff191614806110815750847bffffffffffffffffffffffffffffffffffffffffffffffffffffffff1916877bffffffffffffffffffffffffffffffffffffffffffffffffffffffff1916145b1561109d576001925060448b01519150816001900490506110f7565b837bffffffffffffffffffffffffffffffffffffffffffffffffffffffff1916877bffffffffffffffffffffffffffffffffffffffffffffffffffffffff191614156110f6576001925060648b01519150816001900490505b5b8281995099505050505050505050915091565b6000806000806000806000808c8c8c60405180807f73657276655478000000000000000000000000000000000000000000000000008152506007018473ffffffffffffffffffffffffffffffffffffffff1673ffffffffffffffffffffffffffffffffffffffff166c0100000000000000000000000002815260140183815260200182805190602001908083835b6020831015156111bd5780518252602082019150602081019050602083039250611198565b6001836020036101000a0380198251168184511680821785525050505050509050019350505050604051809103902095508d600901600087600019166000191681526020019081526020016000208054905094508d6003015493503073ffffffffffffffffffffffffffffffffffffffff163373ffffffffffffffffffffffffffffffffffffffff161415156115725789151561126b5761125e8e87611f63565b9250828697509750611a9d565b60008514806112c257508d60090160008760001916600019168152602001908152602001600020600186038154811015156112a257fe5b906000526020600020906009020160080160009054906101000a900460ff165b156114805760008e60080160003373ffffffffffffffffffffffffffffffffffffffff1673ffffffffffffffffffffffffffffffffffffffff1681526020019081526020016000205411151561131757600080fd5b60008d73ffffffffffffffffffffffffffffffffffffffff16141515611349576113408b610f6d565b80935081945050505b6113568e8e8e868661092d565b9350600084141561136d5760008697509750611a9d565b8d60090160008760001916600019168152602001908152602001600020805480919060010161139c91906128c6565b50838e60090160008860001916600019168152602001908152602001600020868154811015156113c857fe5b90600052602060002090600902016007018190555062015180428115156113eb57fe5b048e600901600088600019166000191681526020019081526020016000208681548110151561141657fe5b9060005260206000209060090201600001819055508d6007016000620151804281151561143f57fe5b048152602001908152602001600020805480600101828161146091906128f8565b9160005260206000209001600088909190915090600019169055506114aa565b8480600190039550506114948e8787611aae565b92508215156114a95760008697509750611a9d565b5b8d60090160008760001916600019168152602001908152602001600020858154811015156114d457fe5b906000526020600020906009020160050180548060010182816114f7919061289a565b916000526020600020900160003373ffffffffffffffffffffffffffffffffffffffff16909190915055508d600901600087600019166000191681526020019081526020016000208581548110151561154c57fe5b90600052602060002090600902016006016000815480929190600101919050555061157c565b8480600190039550505b8d60090160008760001916600019168152602001908152602001600020858154811015156115a657fe5b9060005260206000209060090201600701548e60090160008860001916600019168152602001908152602001600020868154811015156115e257fe5b90600052602060002090600902016006015414156118ee578b8e60050160008073ffffffffffffffffffffffffffffffffffffffff168152602001908152602001600020600160028110151561163457fe5b0160008282540192505081905550818e60050160008f73ffffffffffffffffffffffffffffffffffffffff1673ffffffffffffffffffffffffffffffffffffffff168152602001908152602001600020600160028110151561169257fe5b016000828254019250508190555060018e60090160008860001916600019168152602001908152602001600020868154811015156116cc57fe5b906000526020600020906009020160080160006101000a81548160ff02191690831515021790555060008d73ffffffffffffffffffffffffffffffffffffffff1614156117225761171d8b8d610edc565b6117ba565b8c73ffffffffffffffffffffffffffffffffffffffff168c8c60405180828051906020019080838360005b8381101561176857808201518184015260208101905061174d565b50505050905090810190601f1680156117955780820380516001836020036101000a031916815260200191505b5091505060006040518083038185876187965a03f19250505015156117b957600080fd5b5b8d60090160008760001916600019168152602001908152602001600020858154811015156117e457fe5b906000526020600020906009020160040160006118019190612924565b7fec7f2ae735b970eb41ebb7346e62f63325f2bd5c97e001cb8028c88b79dc388c868e8e8c6040518085600019166000191681526020018473ffffffffffffffffffffffffffffffffffffffff1673ffffffffffffffffffffffffffffffffffffffff16815260200183815260200180602001828103825283818151815260200191508051906020019080838360005b838110156118ac578082015181840152602081019050611891565b50505050905090810190601f1680156118d95780820380516001836020036101000a031916815260200191505b509550505050505060405180910390a1611a95565b60008e600901600088600019166000191681526020019081526020016000208681548110151561191a57fe5b9060005260206000209060090201600401805460018160011615610100020316600290049050141561199757888e600901600088600019166000191681526020019081526020016000208681548110151561197157fe5b9060005260206000209060090201600401908051906020019061199592919061296c565b505b611a178e60090160008860001916600019168152602001908152602001600020868154811015156119c457fe5b9060005260206000209060090201600701548f6009016000896000191660001916815260200190815260200160002087815481101515611a0057fe5b906000526020600020906009020160060154610920565b90507fef8dcc2e6089d6cdaf4b9e4488d780383081d593a692f3f2a0a75b1b27be61918633836040518084600019166000191681526020018373ffffffffffffffffffffffffffffffffffffffff1673ffffffffffffffffffffffffffffffffffffffff168152602001828152602001935050505060405180910390a15b600186975097505b505050505050965096945050505050565b60008060008060008760080160003373ffffffffffffffffffffffffffffffffffffffff1673ffffffffffffffffffffffffffffffffffffffff16815260200190815260200160002054111515611b0457600080fd5b86600901600087600019166000191681526020019081526020016000208054905092506000831480611b365750828510155b15611c27577f8756f3e78da606244d7d8c9563ce2678f294db7c57afce515849e03d5eec6c3a836040518082815260200180602001828103825260108152602001807f5478206e6f7420696e69746961746564000000000000000000000000000000008152506020019250505060405180910390a17f7eaa0c297dc19ad870ff21eac4263ebf4c3c98f752ae80f191b4247e61f9954a86336040518083600019166000191681526020018273ffffffffffffffffffffffffffffffffffffffff1673ffffffffffffffffffffffffffffffffffffffff1681526020019250505060405180910390a160009350611f59565b866009016000876000191660001916815260200190815260200160002085815481101515611c5157fe5b906000526020600020906009020160080160009054906101000a900460ff1615611d61577f8756f3e78da606244d7d8c9563ce2678f294db7c57afce515849e03d5eec6c3a8560405180828152602001806020018281038252601c8152602001807f5472616e73616374696f6e20616c726561647920636f6d706c657465000000008152506020019250505060405180910390a17f7eaa0c297dc19ad870ff21eac4263ebf4c3c98f752ae80f191b4247e61f9954a86336040518083600019166000191681526020018273ffffffffffffffffffffffffffffffffffffffff1673ffffffffffffffffffffffffffffffffffffffff1681526020019250505060405180910390a160009350611f59565b866009016000876000191660001916815260200190815260200160002085815481101515611d8b57fe5b906000526020600020906009020160050173__Array256Lib___________________________6366c19bcd90913373ffffffffffffffffffffffffffffffffffffffff16600080604051604001526040518463ffffffff167c010000000000000000000000000000000000000000000000000000000002815260040180848152602001838152602001821515151581526020019350505050604080518083038186803b1515611e3957600080fd5b6102c65a03f41515611e4a57600080fd5b5050506040518051906020018051905080925081935050508115611f54577f8756f3e78da606244d7d8c9563ce2678f294db7c57afce515849e03d5eec6c3a816040518082815260200180602001828103825260178152602001807f4f776e657220616c726561647920636f6e6669726d65640000000000000000008152506020019250505060405180910390a17f7eaa0c297dc19ad870ff21eac4263ebf4c3c98f752ae80f191b4247e61f9954a86336040518083600019166000191681526020018273ffffffffffffffffffffffffffffffffffffffff1673ffffffffffffffffffffffffffffffffffffffff1681526020019250505060405180910390a160009350611f59565b600193505b5050509392505050565b6000806000806000808760080160003373ffffffffffffffffffffffffffffffffffffffff1673ffffffffffffffffffffffffffffffffffffffff16815260200190815260200160002054111515611fba57600080fd5b866009016000876000191660001916815260200190815260200160002080549050935060008414156120d2577f8756f3e78da606244d7d8c9563ce2678f294db7c57afce515849e03d5eec6c3a846040518082815260200180602001828103825260108152602001807f5478206e6f7420696e69746961746564000000000000000000000000000000008152506020019250505060405180910390a17f7eaa0c297dc19ad870ff21eac4263ebf4c3c98f752ae80f191b4247e61f9954a86336040518083600019166000191681526020018273ffffffffffffffffffffffffffffffffffffffff1673ffffffffffffffffffffffffffffffffffffffff1681526020019250505060405180910390a160009450612626565b83806001900394505086600901600087600019166000191681526020019081526020016000208481548110151561210557fe5b906000526020600020906009020160080160009054906101000a900460ff1615612215577f8756f3e78da606244d7d8c9563ce2678f294db7c57afce515849e03d5eec6c3a8460405180828152602001806020018281038252601c8152602001807f5472616e73616374696f6e20616c726561647920636f6d706c657465000000008152506020019250505060405180910390a17f7eaa0c297dc19ad870ff21eac4263ebf4c3c98f752ae80f191b4247e61f9954a86336040518083600019166000191681526020018273ffffffffffffffffffffffffffffffffffffffff1673ffffffffffffffffffffffffffffffffffffffff1681526020019250505060405180910390a160009450612626565b86600901600087600019166000191681526020019081526020016000208481548110151561223f57fe5b906000526020600020906009020160050173__Array256Lib___________________________6366c19bcd90913373ffffffffffffffffffffffffffffffffffffffff16600080604051604001526040518463ffffffff167c010000000000000000000000000000000000000000000000000000000002815260040180848152602001838152602001821515151581526020019350505050604080518083038186803b15156122ed57600080fd5b6102c65a03f415156122fe57600080fd5b505050604051805190602001805190508093508194505050821515612409577f8756f3e78da606244d7d8c9563ce2678f294db7c57afce515849e03d5eec6c3a8260405180828152602001806020018281038252601a8152602001807f4f776e657220686173206e6f7420636f6e6669726d65642074780000000000008152506020019250505060405180910390a17f7eaa0c297dc19ad870ff21eac4263ebf4c3c98f752ae80f191b4247e61f9954a86336040518083600019166000191681526020018273ffffffffffffffffffffffffffffffffffffffff1673ffffffffffffffffffffffffffffffffffffffff1681526020019250505060405180910390a160009450612626565b600087600901600088600019166000191681526020019081526020016000208581548110151561243557fe5b90600052602060002090600902016005018381548110151561245357fe5b90600052602060002090018190555086600901600087600019166000191681526020019081526020016000208481548110151561248c57fe5b9060005260206000209060090201600601600081548092919060019003919050555061252e8760090160008860001916600019168152602001908152602001600020858154811015156124db57fe5b90600052602060002090600902016007015488600901600089600019166000191681526020019081526020016000208681548110151561251757fe5b906000526020600020906009020160060154610920565b9050600087600901600088600019166000191681526020019081526020016000208581548110151561255c57fe5b90600052602060002090600902016006015414156125a65786600901600087600019166000191681526020019081526020016000208054809190600190036125a491906128c6565b505b7f94923fd75da430df607597cb52cdd78ed1ec9425b0428035662f4bdb982a69ee8633836040518084600019166000191681526020018373ffffffffffffffffffffffffffffffffffffffff1673ffffffffffffffffffffffffffffffffffffffff168152602001828152602001935050505060405180910390a1600194505b5050505092915050565b6000806000886001018054905014151561264957600080fd5b8587511015801561265a5750600086115b151561266557600080fd5b848751101580156126765750600085115b151561268157600080fd5b838751101580156126925750600084115b151561269d57600080fd5b8760010180548060010182816126b391906129ec565b9160005260206000209001600080909190916101000a81548173ffffffffffffffffffffffffffffffffffffffff021916908373ffffffffffffffffffffffffffffffffffffffff16021790555050600090505b8651811015612836576000878281518110151561272057fe5b9060200190602002015173ffffffffffffffffffffffffffffffffffffffff161415151561274d57600080fd5b87600101805480600101828161276391906129ec565b91600052602060002090016000898481518110151561277e57fe5b90602001906020020151909190916101000a81548173ffffffffffffffffffffffffffffffffffffffff021916908373ffffffffffffffffffffffffffffffffffffffff160217905550506001810188600801600089848151811015156127e157fe5b9060200190602002015173ffffffffffffffffffffffffffffffffffffffff1673ffffffffffffffffffffffffffffffffffffffff168152602001908152602001600020819055508080600101915050612707565b85886002018190555084886003018190555083886004018190555060328860000181905550828860060160008073ffffffffffffffffffffffffffffffffffffffff1681526020019081526020016000208190555060019150509695505050505050565b8154818355818115116128c1578183600052602060002091820191016128c09190612a18565b5b505050565b8154818355818115116128f3576009028160090283600052602060002091820191016128f29190612a3d565b5b505050565b81548183558181151161291f5781836000526020600020918201910161291e9190612adf565b5b505050565b50805460018160011615610100020316600290046000825580601f1061294a5750612969565b601f0160209004906000526020600020908101906129689190612a18565b5b50565b828054600181600116156101000203166002900490600052602060002090601f016020900481019282601f106129ad57805160ff19168380011785556129db565b828001600101855582156129db579182015b828111156129da5782518255916020019190600101906129bf565b5b5090506129e89190612a18565b5090565b815481835581811511612a1357818360005260206000209182019101612a129190612a18565b5b505050565b612a3a91905b80821115612a36576000816000905550600101612a1e565b5090565b90565b612adc91905b80821115612ad85760008082016000905560018201600090556002820160006101000a81549073ffffffffffffffffffffffffffffffffffffffff02191690556003820160009055600482016000612a9b9190612924565b600582016000612aab9190612b04565b600682016000905560078201600090556008820160006101000a81549060ff021916905550600901612a43565b5090565b90565b612b0191905b80821115612afd576000816000905550600101612ae5565b5090565b90565b5080546000825590600052602060002090810190612b229190612a18565b505600a165627a7a72305820d39d2d8cd567e2d59dcf253bc5c22d17af053c3954c84379bbc519dc65dc40300029",
  "source": "pragma solidity ^0.4.18;\n\n/**\n * @title Wallet Main Library\n * @author Majoolr.io\n *\n * version 1.0.0\n * Copyright (c) 2017 Majoolr, LLC\n * The MIT License (MIT)\n * https://github.com/Majoolr/ethereum-libraries/blob/master/LICENSE\n *\n * The Wallet Library family is inspired by the multisig wallets built by Consensys\n * at https://github.com/ConsenSys/MultiSigWallet and Parity at\n * https://github.com/paritytech/contracts/blob/master/Wallet.sol with added\n * functionality. Majoolr works on open source projects in the Ethereum\n * community with the purpose of testing, documenting, and deploying reusable\n * code onto the blockchain to improve security and usability of smart contracts.\n * Majoolr also strives to educate non-profits, schools, and other community\n * members about the application of blockchain technology. For further\n * information: majoolr.io, consensys.net, paritytech.io\n *\n * THE SOFTWARE IS PROVIDED \"AS IS\", WITHOUT WARRANTY OF ANY KIND, EXPRESS\n * OR IMPLIED, INCLUDING BUT NOT LIMITED TO THE WARRANTIES OF\n * MERCHANTABILITY, FITNESS FOR A PARTICULAR PURPOSE AND NONINFRINGEMENT.\n * IN NO EVENT SHALL THE AUTHORS OR COPYRIGHT HOLDERS BE LIABLE FOR ANY\n * CLAIM, DAMAGES OR OTHER LIABILITY, WHETHER IN AN ACTION OF CONTRACT,\n * TORT OR OTHERWISE, ARISING FROM, OUT OF OR IN CONNECTION WITH THE\n * SOFTWARE OR THE USE OR OTHER DEALINGS IN THE SOFTWARE.\n */\n\nimport \"./Array256Lib.sol\";\nimport \"./BasicMathLib.sol\";\n\nlibrary WalletMainLib {\n  using Array256Lib for uint256[];\n  using BasicMathLib for uint256;\n\n  struct WalletData {\n    uint256 maxOwners; //Maximum wallet owners, should be 50\n    address[] owners; //Array of all owners\n    uint256 requiredAdmin; //Number of sigs required for administrative changes\n    uint256 requiredMajor; //Number of sigs required for major transactions\n    uint256 requiredMinor; //Number of sigs required for minor transactions\n\n    // The amount of a token spent per day, ether is at address mapping 0,\n    // all other tokens defined by address. uint256[0] corresponds to the current\n    // day,  uint256[1] is the spend amount\n    mapping (address => uint256[2]) currentSpend;\n    //The day spend threshold for transactions to be major, ether at 0, all others by address\n    mapping (address => uint256) majorThreshold;\n    //Array of transactions per day, uint256 is the day timestamp, bytes32 is the transaction id\n    mapping (uint256 => bytes32[]) transactions;\n    //Tracks the index of each owner in the owners Array\n    mapping (address => uint256) ownerIndex;\n    //Array of Transaction's by id, new tx's with exact inputs as previous tx will add to array\n    mapping (bytes32 => Transaction[]) transactionInfo;\n\n  }\n\n  struct Transaction {\n    uint256 day; //Timestamp of the day initialized\n    uint256 value; //Amount of ether being sent\n    address tokenAdress; //Address of token transferred\n    uint256 amount; //Amount of tokens transferred\n    bytes data; //Temp location for pending transactions, erased after final confirmation\n    uint256[] confirmedOwners; //Array of owners confirming transaction\n    uint256 confirmCount; //Tracks the number of confirms\n    uint256 confirmRequired; //Number of sigs required for this transaction\n    bool success; //True after final confirmation\n  }\n\n  /*Events*/\n  event LogRevokeNotice(bytes32 txid, address sender, uint256 confirmsNeeded);\n  event LogTransactionFailed(bytes32 txid, address sender);\n  event LogTransactionConfirmed(bytes32 txid, address sender, uint256 confirmsNeeded);\n  event LogTransactionComplete(bytes32 txid, address target, uint256 value, bytes data);\n  event LogContractCreated(address newContract, uint256 value);\n  event LogErrorMsg(uint256 amount, string msg);\n\n  /// @dev Constructor\n  /// @param self The wallet in contract storage\n  /// @param _owners Array of initial owners\n  /// @param _requiredAdmin Set number of sigs for administrative tasks\n  /// @param _requiredMajor Set number of sigs for major tx\n  /// @param _requiredMinor Set number of sigs for minor tx\n  /// @param _majorThreshold Set major tx threshold amount for ether\n  /// @return Will return true when complete\n  function init(WalletData storage self,\n                address[] _owners,\n                uint256 _requiredAdmin,\n                uint256 _requiredMajor,\n                uint256 _requiredMinor,\n                uint256 _majorThreshold) public returns (bool)\n  {\n    require(self.owners.length == 0);\n    require(_owners.length >= _requiredAdmin && _requiredAdmin > 0);\n    require(_owners.length >= _requiredMajor && _requiredMajor > 0);\n    require(_owners.length >= _requiredMinor && _requiredMinor > 0);\n    self.owners.push(0); //Leave index-0 empty for easier owner checks\n\n    for (uint256 i=0; i<_owners.length; i++) {\n      require(_owners[i] != 0);\n      self.owners.push(_owners[i]);\n      self.ownerIndex[_owners[i]] = i+1;\n    }\n    self.requiredAdmin = _requiredAdmin;\n    self.requiredMajor = _requiredMajor;\n    self.requiredMinor = _requiredMinor;\n    self.maxOwners = 50; //Limits to 50 owners, should create wallet pools for more owners\n    self.majorThreshold[0] = _majorThreshold; //Sets ether threshold at address 0\n\n    return true;\n  }\n\n  /*Checks*/\n\n  /// @dev Verifies a confirming owner has not confirmed already\n  /// @param self Contract wallet in storage\n  /// @param _id ID of the tx being checked\n  /// @param _number Index number of this tx\n  /// @return Returns true if check passes, false otherwise\n  function checkNotConfirmed(WalletData storage self, bytes32 _id, uint256 _number)\n           public \n           returns (bool)\n  {\n    require(self.ownerIndex[msg.sender] > 0);\n    uint256 _txLen = self.transactionInfo[_id].length;\n\n    if(_txLen == 0 || _number >= _txLen){\n      LogErrorMsg(_txLen, \"Tx not initiated\");\n      LogTransactionFailed(_id, msg.sender);\n      return false;\n    }\n\n    if(self.transactionInfo[_id][_number].success){\n      LogErrorMsg(_number, \"Transaction already complete\");\n      LogTransactionFailed(_id, msg.sender);\n      return false;\n    }\n\n    //Function from Majoolr.io array utility library\n    bool found;\n    uint256 index;\n    (found, index) = self.transactionInfo[_id][_number].confirmedOwners.indexOf(uint256(msg.sender), false);\n    if(found){\n      LogErrorMsg(index, \"Owner already confirmed\");\n      LogTransactionFailed(_id, msg.sender);\n      return false;\n    }\n\n    return true;\n  }\n\n  /*Utility Functions*/\n\n  /// @dev Used later to calculate the number of confirmations needed for tx\n  /// @param _required Number of sigs required\n  /// @param _count Current number of sigs\n  function calcConfirmsNeeded(uint256 _required, uint256 _count) public pure returns (uint256){\n    return _required - _count;\n  }\n\n  /// @dev Used to check if tx is moving tokens and parses amount\n  /// @param _txData Data for proposed tx\n  /// @return bool True if transaction is moving tokens\n  /// @return uint256 Amount of tokens involved, 0 if not spending tx\n  function getAmount(bytes _txData) public pure returns (bool,uint256) {\n    bytes32 getSig;\n    bytes4 sig;\n    bytes4 tSig = 0xa9059cbb; //transfer func signature\n    bytes4 aSig = 0x095ea7b3; //approve func signature\n    bytes4 tfSig = 0x23b872dd; //transferFrom func signature\n    bool transfer;\n    bytes32 _amountData;\n    uint256 _amount;\n\n    assembly { getSig := mload(add(_txData,0x20)) }\n    sig = bytes4(getSig);\n    if(sig ==  tSig || sig == aSig){\n      transfer = true;\n      assembly { _amountData := mload(add(_txData,0x44)) }\n      _amount = uint256(_amountData);\n    } else if(sig == tfSig){\n      transfer = true;\n      assembly { _amountData := mload(add(_txData,0x64)) }\n      _amount = uint256(_amountData);\n    }\n    return (transfer,_amount);\n  }\n\n  /// @dev Retrieves sig requirement for spending tx\n  /// @param self Contract wallet in storage\n  /// @param _to Target address of transaction\n  /// @param _value Amount of ether spend\n  /// @param _isTransfer True if transferring other tokens, false otherwise\n  /// @param _amount Amount of tokens being transferred, 0 if not a transfer tx\n  /// @return uint256 The required sigs for tx\n  function getRequired(WalletData storage self,\n                       address _to,\n                       uint256 _value,\n                       bool _isTransfer,\n                       uint256 _amount)\n                       public\n                       returns (uint256)\n  {\n    bool err;\n    uint256 res;\n    bool major = true;\n    //Reset spend if this is first check of the day\n    if((now / 1 days) > self.currentSpend[0][0]){\n      self.currentSpend[0][0] = now / 1 days;\n      self.currentSpend[0][1] = 0;\n    }\n\n    (err, res) = self.currentSpend[0][1].plus(_value);\n    if(err){\n      LogErrorMsg(res, \"Overflow eth spend\");\n      return 0;\n    }\n\n    if(res < self.majorThreshold[0])\n      major = false;\n\n    if(_to != 0 && _isTransfer){\n      if((now / 1 days) > self.currentSpend[_to][0]){\n        self.currentSpend[_to][0] = now / 1 days;\n        self.currentSpend[_to][1] = 0;\n      }\n\n      (err, res) = self.currentSpend[_to][1].plus(_amount);\n      if(err){\n        LogErrorMsg(res, \"Overflow token spend\");\n        return 0;\n      }\n      if(res >= self.majorThreshold[_to])\n        major = true;\n    }\n\n    return major ? self.requiredMajor : self.requiredMinor;\n  }\n\n  /// @dev Function to create new contract\n  /// @param _txData Transaction data\n  /// @param _value Amount of eth sending to new contract\n  function createContract(bytes _txData, uint256 _value) public {\n    address _newContract;\n    bool allGood;\n\n    assembly {\n      _newContract := create(_value, add(_txData, 0x20), mload(_txData))\n      allGood := gt(extcodesize(_newContract),0)\n    }\n    require(allGood);\n    LogContractCreated(_newContract, _value);\n  }\n\n  /*Primary Function*/\n\n  /// @dev Create and execute transaction from wallet\n  /// @param self Wallet in contract storage\n  /// @param _to Address of target\n  /// @param _value Amount of ether sending\n  /// @param _txData Data for executing transaction\n  /// @param _confirm True if confirming, false if revoking confirmation\n  /// @param _data Message data passed from wallet contract\n  /// @return bool Returns true if successful, false otherwise\n  /// @return bytes32 Returns the tx ID, can be used for confirm/revoke functions\n  function serveTx(WalletData storage self,\n                   address _to,\n                   uint256 _value,\n                   bytes _txData,\n                   bool _confirm,\n                   bytes _data)\n                   public\n                   returns (bool,bytes32)\n  {\n    bytes32 _id = sha3(\"serveTx\",_to,_value,_txData);\n    uint256 _number = self.transactionInfo[_id].length;\n    uint256 _required = self.requiredMajor;\n\n    //Run checks if not called from generic confirm/revoke function\n    if(msg.sender != address(this)){\n      bool allGood;\n      uint256 _amount;\n      // if the owner is revoking his/her confirmation but doesn't know the\n      // specific transaction id hash\n      if(!_confirm) {\n        allGood = revokeConfirm(self, _id);\n        return (allGood,_id);\n      } else { // else confirming the transaction\n        //if this is a new transaction id or if a previous identical transaction had already succeeded\n        if(_number == 0 || self.transactionInfo[_id][_number - 1].success){\n          require(self.ownerIndex[msg.sender] > 0);\n\n          //Reuse allGood due to stack limit\n          if(_to != 0)\n            (allGood,_amount) = getAmount(_txData);\n\n          _required = getRequired(self, _to, _value, allGood,_amount);\n          if(_required == 0)\n            return (false, _id);\n\n          // add this transaction to the wallets record and initialize the settings\n          self.transactionInfo[_id].length++;\n          self.transactionInfo[_id][_number].confirmRequired = _required;\n          self.transactionInfo[_id][_number].day = now / 1 days;\n          self.transactions[now / 1 days].push(_id);\n        } else { // else the transaction is already pending\n          _number--; // set the index to the index of the existing transaction\n          //make sure the sender isn't already confirmed\n          allGood = checkNotConfirmed(self, _id, _number);\n          if(!allGood)\n            return (false,_id);\n        }\n      }\n\n      // add the senders confirmation to the transaction\n      self.transactionInfo[_id][_number].confirmedOwners.push(uint256(msg.sender));\n      self.transactionInfo[_id][_number].confirmCount++;\n    } else {\n      // else were calling from generic confirm/revoke function, set the\n      // _number index to the index of the existing transaction\n      _number--;\n    }\n\n    // if there are enough confirmations\n    if(self.transactionInfo[_id][_number].confirmCount ==\n       self.transactionInfo[_id][_number].confirmRequired)\n    {\n      // execute the transaction\n      self.currentSpend[0][1] += _value;\n      self.currentSpend[_to][1] += _amount;\n      self.transactionInfo[_id][_number].success = true;\n\n      if(_to == 0){\n        //Failure is self contained in method\n        createContract(_txData, _value);\n      } else {\n        require(_to.call.value(_value)(_txData));\n      }\n      delete self.transactionInfo[_id][_number].data;\n      LogTransactionComplete(_id, _to, _value, _data);\n    } else {\n      if(self.transactionInfo[_id][_number].data.length == 0)\n        self.transactionInfo[_id][_number].data = _data;\n\n      uint256 confirmsNeeded = calcConfirmsNeeded(self.transactionInfo[_id][_number].confirmRequired,\n                                               self.transactionInfo[_id][_number].confirmCount);\n      LogTransactionConfirmed(_id, msg.sender, confirmsNeeded);\n    }\n\n    return (true,_id);\n  }\n\n  /*Confirm/Revoke functions using tx ID*/\n\n  /// @dev Confirms a current pending tx, will execute if final confirmation\n  /// @param self Wallet in contract storage\n  /// @param _id ID of the transaction\n  /// @return Returns true if successful, false otherwise\n  function confirmTx(WalletData storage self, bytes32 _id) \n                     public \n                     returns (bool) {\n    require(self.ownerIndex[msg.sender] > 0);\n    uint256 _number = self.transactionInfo[_id].length;\n    bool ret;\n\n    if(_number == 0){\n      LogErrorMsg(_number, \"Tx not initiated\");\n      LogTransactionFailed(_id, msg.sender);\n      return false;\n    }\n\n    _number--;\n    bool allGood = checkNotConfirmed(self, _id, _number);\n    if(!allGood)\n      return false;\n\n    self.transactionInfo[_id][_number].confirmedOwners.push(uint256(msg.sender));\n    self.transactionInfo[_id][_number].confirmCount++;\n\n    if(self.transactionInfo[_id][_number].confirmCount ==\n       self.transactionInfo[_id][_number].confirmRequired)\n    {\n      address a = address(this);\n      require(a.call(self.transactionInfo[_id][_number].data));\n    } else {\n      uint256 confirmsNeeded = calcConfirmsNeeded(self.transactionInfo[_id][_number].confirmRequired,\n                                               self.transactionInfo[_id][_number].confirmCount);\n\n      LogTransactionConfirmed(_id, msg.sender, confirmsNeeded);\n      ret = true;\n    }\n\n    return ret;\n  }\n\n  /// @dev Revokes a prior confirmation from sender, call with tx ID\n  /// @param self Wallet in contract storage\n  /// @param _id ID of the transaction\n  /// @return Returns true if successful, false otherwise\n  function revokeConfirm(WalletData storage self, bytes32 _id)\n           public\n           returns (bool)\n  {\n    require(self.ownerIndex[msg.sender] > 0);\n    uint256 _number = self.transactionInfo[_id].length;\n\n    if(_number == 0){\n      LogErrorMsg(_number, \"Tx not initiated\");\n      LogTransactionFailed(_id, msg.sender);\n      return false;\n    }\n\n    _number--;\n    if(self.transactionInfo[_id][_number].success){\n      LogErrorMsg(_number, \"Transaction already complete\");\n      LogTransactionFailed(_id, msg.sender);\n      return false;\n    }\n\n    //Function from Majoolr.io array utility library\n    bool found;\n    uint256 index;\n    (found, index) = self.transactionInfo[_id][_number].confirmedOwners.indexOf(uint256(msg.sender), false);\n    if(!found){\n      LogErrorMsg(index, \"Owner has not confirmed tx\");\n      LogTransactionFailed(_id, msg.sender);\n      return false;\n    }\n    self.transactionInfo[_id][_number].confirmedOwners[index] = 0;\n    self.transactionInfo[_id][_number].confirmCount--;\n\n    uint256 confirmsNeeded = calcConfirmsNeeded(self.transactionInfo[_id][_number].confirmRequired,\n                                             self.transactionInfo[_id][_number].confirmCount);\n    //Transaction removed if all sigs revoked but id remains in wallet transaction list\n    if(self.transactionInfo[_id][_number].confirmCount == 0)\n      self.transactionInfo[_id].length--;\n\n    LogRevokeNotice(_id, msg.sender, confirmsNeeded);\n    return true;\n  }\n}\n",
  "sourcePath": "/Users/joshuahannan/repository/majoolr/ethereum-libraries/WalletLib/truffle/contracts/WalletMainLib.sol",
  "compiler": {
    "name": "solc",
    "version": "0.4.18+commit.9cf6e910.Emscripten.clang"
  },
  "schemaVersion": "1.0.1",
  "updatedAt": "2017-11-29T21:00:38.172Z"
}