{
  "contractName": "WalletLibTestContract",
  "abi": [
    {
      "constant": true,
      "inputs": [],
      "name": "maxOwners",
      "outputs": [
        {
          "name": "",
          "type": "uint256"
        }
      ],
      "payable": false,
      "stateMutability": "view",
      "type": "function"
    },
    {
      "constant": true,
      "inputs": [],
      "name": "ownerCount",
      "outputs": [
        {
          "name": "",
          "type": "uint256"
        }
      ],
      "payable": false,
      "stateMutability": "view",
      "type": "function"
    },
    {
      "constant": false,
      "inputs": [
        {
          "name": "_token",
          "type": "address"
        },
        {
          "name": "_newThreshold",
          "type": "uint256"
        },
        {
          "name": "_confirm",
          "type": "bool"
        }
      ],
      "name": "changeMajorThreshold",
      "outputs": [
        {
          "name": "",
          "type": "bool"
        },
        {
          "name": "",
          "type": "bytes32"
        }
      ],
      "payable": false,
      "stateMutability": "nonpayable",
      "type": "function"
    },
    {
      "constant": false,
      "inputs": [
        {
          "name": "_id",
          "type": "bytes32"
        }
      ],
      "name": "confirmTx",
      "outputs": [
        {
          "name": "",
          "type": "bool"
        }
      ],
      "payable": false,
      "stateMutability": "nonpayable",
      "type": "function"
    },
    {
      "constant": false,
      "inputs": [
        {
          "name": "_to",
          "type": "address"
        },
        {
          "name": "_value",
          "type": "uint256"
        },
        {
          "name": "_txData",
          "type": "bytes"
        },
        {
          "name": "_confirm",
          "type": "bool"
        }
      ],
      "name": "serveTx",
      "outputs": [
        {
          "name": "",
          "type": "bool"
        },
        {
          "name": "",
          "type": "bytes32"
        }
      ],
      "payable": false,
      "stateMutability": "nonpayable",
      "type": "function"
    },
    {
      "constant": true,
      "inputs": [
        {
          "name": "_token",
          "type": "address"
        }
      ],
      "name": "majorThreshold",
      "outputs": [
        {
          "name": "",
          "type": "uint256"
        }
      ],
      "payable": false,
      "stateMutability": "view",
      "type": "function"
    },
    {
      "constant": false,
      "inputs": [
        {
          "name": "_id",
          "type": "bytes32"
        },
        {
          "name": "_txIndex",
          "type": "uint256"
        }
      ],
      "name": "checkNotConfirmed",
      "outputs": [
        {
          "name": "",
          "type": "bool"
        }
      ],
      "payable": false,
      "stateMutability": "nonpayable",
      "type": "function"
    },
    {
      "constant": false,
      "inputs": [
        {
          "name": "_ownerRemoving",
          "type": "address"
        },
        {
          "name": "_confirm",
          "type": "bool"
        }
      ],
      "name": "removeOwner",
      "outputs": [
        {
          "name": "",
          "type": "bool"
        },
        {
          "name": "",
          "type": "bytes32"
        }
      ],
      "payable": false,
      "stateMutability": "nonpayable",
      "type": "function"
    },
    {
      "constant": false,
      "inputs": [
        {
          "name": "_newOwner",
          "type": "address"
        },
        {
          "name": "_confirm",
          "type": "bool"
        }
      ],
      "name": "addOwner",
      "outputs": [
        {
          "name": "",
          "type": "bool"
        },
        {
          "name": "",
          "type": "bytes32"
        }
      ],
      "payable": false,
      "stateMutability": "nonpayable",
      "type": "function"
    },
    {
      "constant": true,
      "inputs": [],
      "name": "wallet",
      "outputs": [
        {
          "name": "maxOwners",
          "type": "uint256"
        },
        {
          "name": "requiredAdmin",
          "type": "uint256"
        },
        {
          "name": "requiredMajor",
          "type": "uint256"
        },
        {
          "name": "requiredMinor",
          "type": "uint256"
        }
      ],
      "payable": false,
      "stateMutability": "view",
      "type": "function"
    },
    {
      "constant": true,
      "inputs": [
        {
          "name": "_token",
          "type": "address"
        }
      ],
      "name": "currentSpend",
      "outputs": [
        {
          "name": "",
          "type": "uint256[2]"
        }
      ],
      "payable": false,
      "stateMutability": "view",
      "type": "function"
    },
    {
      "constant": true,
      "inputs": [],
      "name": "requiredMajor",
      "outputs": [
        {
          "name": "",
          "type": "uint256"
        }
      ],
      "payable": false,
      "stateMutability": "view",
      "type": "function"
    },
    {
      "constant": false,
      "inputs": [
        {
          "name": "_from",
          "type": "address"
        },
        {
          "name": "_to",
          "type": "address"
        },
        {
          "name": "_confirm",
          "type": "bool"
        }
      ],
      "name": "changeOwner",
      "outputs": [
        {
          "name": "",
          "type": "bool"
        },
        {
          "name": "",
          "type": "bytes32"
        }
      ],
      "payable": false,
      "stateMutability": "nonpayable",
      "type": "function"
    },
    {
      "constant": true,
      "inputs": [
        {
          "name": "_id",
          "type": "bytes32"
        },
        {
          "name": "_txIndex",
          "type": "uint256"
        }
      ],
      "name": "transactionConfirmCount",
      "outputs": [
        {
          "name": "",
          "type": "uint256"
        }
      ],
      "payable": false,
      "stateMutability": "view",
      "type": "function"
    },
    {
      "constant": true,
      "inputs": [
        {
          "name": "_date",
          "type": "uint256"
        }
      ],
      "name": "transactions",
      "outputs": [
        {
          "name": "",
          "type": "bytes32[10]"
        }
      ],
      "payable": false,
      "stateMutability": "view",
      "type": "function"
    },
    {
      "constant": true,
      "inputs": [
        {
          "name": "_owner",
          "type": "address"
        }
      ],
      "name": "ownerIndex",
      "outputs": [
        {
          "name": "",
          "type": "uint256"
        }
      ],
      "payable": false,
      "stateMutability": "view",
      "type": "function"
    },
    {
      "constant": true,
      "inputs": [],
      "name": "owners",
      "outputs": [
        {
          "name": "",
          "type": "address[51]"
        }
      ],
      "payable": false,
      "stateMutability": "view",
      "type": "function"
    },
    {
      "constant": true,
      "inputs": [
        {
          "name": "_id",
          "type": "bytes32"
        },
        {
          "name": "_txIndex",
          "type": "uint256"
        }
      ],
      "name": "transactionSuccess",
      "outputs": [
        {
          "name": "",
          "type": "bool"
        }
      ],
      "payable": false,
      "stateMutability": "view",
      "type": "function"
    },
    {
      "constant": false,
      "inputs": [
        {
          "name": "_id",
          "type": "bytes32"
        }
      ],
      "name": "revokeConfirm",
      "outputs": [
        {
          "name": "",
          "type": "bool"
        }
      ],
      "payable": false,
      "stateMutability": "nonpayable",
      "type": "function"
    },
    {
      "constant": false,
      "inputs": [
        {
          "name": "_newRequired",
          "type": "uint256"
        },
        {
          "name": "_confirm",
          "type": "bool"
        }
      ],
      "name": "changeRequiredMajor",
      "outputs": [
        {
          "name": "",
          "type": "bool"
        },
        {
          "name": "",
          "type": "bytes32"
        }
      ],
      "payable": false,
      "stateMutability": "nonpayable",
      "type": "function"
    },
    {
      "constant": false,
      "inputs": [
        {
          "name": "_newRequired",
          "type": "uint256"
        },
        {
          "name": "_confirm",
          "type": "bool"
        }
      ],
      "name": "changeRequiredAdmin",
      "outputs": [
        {
          "name": "",
          "type": "bool"
        },
        {
          "name": "",
          "type": "bytes32"
        }
      ],
      "payable": false,
      "stateMutability": "nonpayable",
      "type": "function"
    },
    {
      "constant": false,
      "inputs": [
        {
          "name": "_newRequired",
          "type": "uint256"
        },
        {
          "name": "_confirm",
          "type": "bool"
        }
      ],
      "name": "changeRequiredMinor",
      "outputs": [
        {
          "name": "",
          "type": "bool"
        },
        {
          "name": "",
          "type": "bytes32"
        }
      ],
      "payable": false,
      "stateMutability": "nonpayable",
      "type": "function"
    },
    {
      "constant": true,
      "inputs": [
        {
          "name": "_id",
          "type": "bytes32"
        }
      ],
      "name": "transactionLength",
      "outputs": [
        {
          "name": "",
          "type": "uint256"
        }
      ],
      "payable": false,
      "stateMutability": "view",
      "type": "function"
    },
    {
      "constant": true,
      "inputs": [
        {
          "name": "_id",
          "type": "bytes32"
        },
        {
          "name": "_txIndex",
          "type": "uint256"
        }
      ],
      "name": "transactionConfirms",
      "outputs": [
        {
          "name": "",
          "type": "uint256[50]"
        }
      ],
      "payable": false,
      "stateMutability": "view",
      "type": "function"
    },
    {
      "constant": true,
      "inputs": [],
      "name": "requiredMinor",
      "outputs": [
        {
          "name": "",
          "type": "uint256"
        }
      ],
      "payable": false,
      "stateMutability": "view",
      "type": "function"
    },
    {
      "constant": true,
      "inputs": [],
      "name": "requiredAdmin",
      "outputs": [
        {
          "name": "",
          "type": "uint256"
        }
      ],
      "payable": false,
      "stateMutability": "view",
      "type": "function"
    },
    {
      "inputs": [],
      "payable": false,
      "stateMutability": "nonpayable",
      "type": "constructor"
    },
    {
      "payable": true,
      "stateMutability": "payable",
      "type": "fallback"
    },
    {
      "anonymous": false,
      "inputs": [
        {
          "indexed": false,
          "name": "value",
          "type": "uint256"
        }
      ],
      "name": "LogDeposit",
      "type": "event"
    },
    {
      "anonymous": false,
      "inputs": [
        {
          "indexed": false,
          "name": "txid",
          "type": "bytes32"
        },
        {
          "indexed": false,
          "name": "sender",
          "type": "address"
        },
        {
          "indexed": false,
          "name": "confirmsNeeded",
          "type": "uint256"
        }
      ],
      "name": "LogTransactionConfirmed",
      "type": "event"
    },
    {
      "anonymous": false,
      "inputs": [
        {
          "indexed": false,
          "name": "newOwner",
          "type": "address"
        }
      ],
      "name": "LogOwnerAdded",
      "type": "event"
    },
    {
      "anonymous": false,
      "inputs": [
        {
          "indexed": false,
          "name": "ownerRemoved",
          "type": "address"
        }
      ],
      "name": "LogOwnerRemoved",
      "type": "event"
    },
    {
      "anonymous": false,
      "inputs": [
        {
          "indexed": false,
          "name": "from",
          "type": "address"
        },
        {
          "indexed": false,
          "name": "to",
          "type": "address"
        }
      ],
      "name": "LogOwnerChanged",
      "type": "event"
    },
    {
      "anonymous": false,
      "inputs": [
        {
          "indexed": false,
          "name": "newRequired",
          "type": "uint256"
        }
      ],
      "name": "LogRequirementChange",
      "type": "event"
    },
    {
      "anonymous": false,
      "inputs": [
        {
          "indexed": false,
          "name": "token",
          "type": "address"
        },
        {
          "indexed": false,
          "name": "newThreshold",
          "type": "uint256"
        }
      ],
      "name": "LogThresholdChange",
      "type": "event"
    },
    {
      "anonymous": false,
      "inputs": [
        {
          "indexed": false,
          "name": "amount",
          "type": "uint256"
        },
        {
          "indexed": false,
          "name": "msg",
          "type": "string"
        }
      ],
      "name": "LogErrorMsg",
      "type": "event"
    },
    {
      "anonymous": false,
      "inputs": [
        {
          "indexed": false,
          "name": "txid",
          "type": "bytes32"
        },
        {
          "indexed": false,
          "name": "sender",
          "type": "address"
        },
        {
          "indexed": false,
          "name": "confirmsNeeded",
          "type": "uint256"
        }
      ],
      "name": "LogRevokeNotice",
      "type": "event"
    },
    {
      "anonymous": false,
      "inputs": [
        {
          "indexed": false,
          "name": "txid",
          "type": "bytes32"
        },
        {
          "indexed": false,
          "name": "sender",
          "type": "address"
        }
      ],
      "name": "LogTransactionFailed",
      "type": "event"
    },
    {
      "anonymous": false,
      "inputs": [
        {
          "indexed": false,
          "name": "txid",
          "type": "bytes32"
        },
        {
          "indexed": false,
          "name": "target",
          "type": "address"
        },
        {
          "indexed": false,
          "name": "value",
          "type": "uint256"
        },
        {
          "indexed": false,
          "name": "data",
          "type": "bytes"
        }
      ],
      "name": "LogTransactionComplete",
      "type": "event"
    },
    {
      "anonymous": false,
      "inputs": [
        {
          "indexed": false,
          "name": "newContract",
          "type": "address"
        },
        {
          "indexed": false,
          "name": "value",
          "type": "uint256"
        }
      ],
      "name": "LogContractCreated",
      "type": "event"
    }
  ],
  "bytecode": "0x606060405234156200001057600080fd5b6200001a62000334565b60056040518059106200002a5750595b9080825280602002602001820160405250905073b4e205cd196bbe4b1b3767a5e32e15f50eb796238160008151811015156200006257fe5b9060200190602002019073ffffffffffffffffffffffffffffffffffffffff16908173ffffffffffffffffffffffffffffffffffffffff16815250507340333d950b4c682e8aad143c216af52877d828bf816001815181101515620000c357fe5b9060200190602002019073ffffffffffffffffffffffffffffffffffffffff16908173ffffffffffffffffffffffffffffffffffffffff1681525050730a1f4fcde83ba12ee8343488964811218da3e00e8160028151811015156200012457fe5b9060200190602002019073ffffffffffffffffffffffffffffffffffffffff16908173ffffffffffffffffffffffffffffffffffffffff16815250507379b63228ff63659248b7c688870de388bdcf0c148160038151811015156200018557fe5b9060200190602002019073ffffffffffffffffffffffffffffffffffffffff16908173ffffffffffffffffffffffffffffffffffffffff16815250507336994c7cff11859ba8b9715120a68aa9499329ee816004815181101515620001e657fe5b9060200190602002019073ffffffffffffffffffffffffffffffffffffffff16908173ffffffffffffffffffffffffffffffffffffffff1681525050600073__WalletMainLib_________________________63fb18a41a90918360046003600168056bc75e2d631000006000604051602001526040518763ffffffff167c01000000000000000000000000000000000000000000000000000000000281526004018087815260200180602001868152602001858152602001848152602001838152602001828103825287818151815260200191508051906020019060200280838360005b83811015620002e8578082015181840152602081019050620002cb565b5050505090500197505050505050505060206040518083038186803b15156200031057600080fd5b6102c65a03f415156200032257600080fd5b50505060405180519050505062000348565b602060405190810160405280600081525090565b611ecd80620003586000396000f300606060405260043610610154576000357c0100000000000000000000000000000000000000000000000000000000900463ffffffff168063045b76ca1461018d5780630db02622146101b65780631d4d2ace146101df578063216903f9146102535780633751c1e414610292578063388d85d01461034957806339e3ea83146103965780634ee56b37146103de578063518e32d314610449578063521eb273146104b45780636cb96bb0146104f25780636d7b0b1f14610567578063842a3afb14610590578063997edaa71461061a5780639ace38c21461065e5780639f8a64e2146106bd578063affe39c11461070a578063b3eb285d1461075b578063c8ec57ed146107a3578063d753b934146107e2578063dd22758214610837578063e88cfbbd1461088c578063e8ce7448146108e1578063ed8cee801461091c578063ee86cf3814610988578063fefbd463146109b1575b7ff641ad64267ca71156d13749ad746155df3095d9afeb604fe3b53016ce5fc8ba346040518082815260200191505060405180910390a1005b341561019857600080fd5b6101a06109da565b6040518082815260200191505060405180910390f35b34156101c157600080fd5b6101c9610a71565b6040518082815260200191505060405180910390f35b34156101ea57600080fd5b61022a600480803573ffffffffffffffffffffffffffffffffffffffff169060200190919080359060200190919080351515906020019091905050610b08565b604051808315151515815260200182600019166000191681526020019250505060405180910390f35b341561025e57600080fd5b610278600480803560001916906020019091905050610c18565b604051808215151515815260200191505060405180910390f35b341561029d57600080fd5b610320600480803573ffffffffffffffffffffffffffffffffffffffff1690602001909190803590602001909190803590602001908201803590602001908080601f016020809104026020016040519081016040528093929190818152602001838380828437820191505050505050919080351515906020019091905050610cc1565b604051808315151515815260200182600019166000191681526020019250505060405180910390f35b341561035457600080fd5b610380600480803573ffffffffffffffffffffffffffffffffffffffff16906020019091905050610e3f565b6040518082815260200191505060405180910390f35b34156103a157600080fd5b6103c4600480803560001916906020019091908035906020019091905050610f0c565b604051808215151515815260200191505060405180910390f35b34156103e957600080fd5b610420600480803573ffffffffffffffffffffffffffffffffffffffff169060200190919080351515906020019091905050610fbe565b604051808315151515815260200182600019166000191681526020019250505060405180910390f35b341561045457600080fd5b61048b600480803573ffffffffffffffffffffffffffffffffffffffff1690602001909190803515159060200190919050506110c5565b604051808315151515815260200182600019166000191681526020019250505060405180910390f35b34156104bf57600080fd5b6104c76111cc565b6040518085815260200184815260200183815260200182815260200194505050505060405180910390f35b34156104fd57600080fd5b610529600480803573ffffffffffffffffffffffffffffffffffffffff169060200190919050506111ea565b6040518082600260200280838360005b83811015610554578082015181840152602081019050610539565b5050505090500191505060405180910390f35b341561057257600080fd5b61057a6112c0565b6040518082815260200191505060405180910390f35b341561059b57600080fd5b6105f1600480803573ffffffffffffffffffffffffffffffffffffffff1690602001909190803573ffffffffffffffffffffffffffffffffffffffff169060200190919080351515906020019091905050611357565b604051808315151515815260200182600019166000191681526020019250505060405180910390f35b341561062557600080fd5b610648600480803560001916906020019091908035906020019091905050611493565b6040518082815260200191505060405180910390f35b341561066957600080fd5b61067f6004808035906020019091905050611545565b6040518082600a60200280838360005b838110156106aa57808201518184015260208101905061068f565b5050505090500191505060405180910390f35b34156106c857600080fd5b6106f4600480803573ffffffffffffffffffffffffffffffffffffffff169060200190919050506115f3565b6040518082815260200191505060405180910390f35b341561071557600080fd5b61071d6116c0565b6040518082603360200280838360005b8381101561074857808201518184015260208101905061072d565b5050505090500191505060405180910390f35b341561076657600080fd5b610789600480803560001916906020019091908035906020019091905050611764565b604051808215151515815260200191505060405180910390f35b34156107ae57600080fd5b6107c8600480803560001916906020019091905050611816565b604051808215151515815260200191505060405180910390f35b34156107ed57600080fd5b61080e600480803590602001909190803515159060200190919050506118bf565b604051808315151515815260200182600019166000191681526020019250505060405180910390f35b341561084257600080fd5b6108636004808035906020019091908035151590602001909190505061199a565b604051808315151515815260200182600019166000191681526020019250505060405180910390f35b341561089757600080fd5b6108b860048080359060200190919080351515906020019091905050611a75565b604051808315151515815260200182600019166000191681526020019250505060405180910390f35b34156108ec57600080fd5b610906600480803560001916906020019091905050611b50565b6040518082815260200191505060405180910390f35b341561092757600080fd5b61094a600480803560001916906020019091908035906020019091905050611bf9565b6040518082603260200280838360005b8381101561097557808201518184015260208101905061095a565b5050505090500191505060405180910390f35b341561099357600080fd5b61099b611cb8565b6040518082815260200191505060405180910390f35b34156109bc57600080fd5b6109c4611d4f565b6040518082815260200191505060405180910390f35b60008073__WalletGetterLib_______________________63308d1c6c90916000604051602001526040518263ffffffff167c01000000000000000000000000000000000000000000000000000000000281526004018082815260200191505060206040518083038186803b1515610a5157600080fd5b6102c65a03f41515610a6257600080fd5b50505060405180519050905090565b60008073__WalletGetterLib_______________________638715dbd090916000604051602001526040518263ffffffff167c01000000000000000000000000000000000000000000000000000000000281526004018082815260200191505060206040518083038186803b1515610ae857600080fd5b6102c65a03f41515610af957600080fd5b50505060405180519050905090565b600080600073__WalletAdminLib________________________632718ad1690918787876000366000604051604001526040518763ffffffff167c0100000000000000000000000000000000000000000000000000000000028152600401808781526020018673ffffffffffffffffffffffffffffffffffffffff1673ffffffffffffffffffffffffffffffffffffffff168152602001858152602001841515151581526020018060200182810382528484828181526020019250808284378201915050975050505050505050604080518083038186803b1515610beb57600080fd5b6102c65a03f41515610bfc57600080fd5b5050506040518051906020018051905091509150935093915050565b60008073__WalletMainLib_________________________630cbc79ae9091846000604051602001526040518363ffffffff167c01000000000000000000000000000000000000000000000000000000000281526004018083815260200182600019166000191681526020019250505060206040518083038186803b1515610c9f57600080fd5b6102c65a03f41515610cb057600080fd5b505050604051805190509050919050565b600080600073__WalletMainLib_________________________635f0d42629091888888886000366000604051604001526040518863ffffffff167c0100000000000000000000000000000000000000000000000000000000028152600401808881526020018773ffffffffffffffffffffffffffffffffffffffff1673ffffffffffffffffffffffffffffffffffffffff168152602001868152602001806020018515151515815260200180602001838103835287818151815260200191508051906020019080838360005b83811015610da9578082015181840152602081019050610d8e565b50505050905090810190601f168015610dd65780820380516001836020036101000a031916815260200191505b50838103825285858281815260200192508082843782019150509950505050505050505050604080518083038186803b1515610e1157600080fd5b6102c65a03f41515610e2257600080fd5b505050604051805190602001805190509150915094509492505050565b60008073__WalletGetterLib_______________________63a435ec2e9091846000604051602001526040518363ffffffff167c0100000000000000000000000000000000000000000000000000000000028152600401808381526020018273ffffffffffffffffffffffffffffffffffffffff1673ffffffffffffffffffffffffffffffffffffffff1681526020019250505060206040518083038186803b1515610eea57600080fd5b6102c65a03f41515610efb57600080fd5b505050604051805190509050919050565b60008073__WalletMainLib_________________________639ae196ff909185856000604051602001526040518463ffffffff167c0100000000000000000000000000000000000000000000000000000000028152600401808481526020018360001916600019168152602001828152602001935050505060206040518083038186803b1515610f9b57600080fd5b6102c65a03f41515610fac57600080fd5b50505060405180519050905092915050565b600080600073__WalletAdminLib________________________63fc3f4d17909186866000366000604051604001526040518663ffffffff167c0100000000000000000000000000000000000000000000000000000000028152600401808681526020018573ffffffffffffffffffffffffffffffffffffffff1673ffffffffffffffffffffffffffffffffffffffff1681526020018415151515815260200180602001828103825284848281815260200192508082843782019150509650505050505050604080518083038186803b151561109957600080fd5b6102c65a03f415156110aa57600080fd5b50505060405180519060200180519050915091509250929050565b600080600073__WalletAdminLib________________________633f2e691c909186866000366000604051604001526040518663ffffffff167c0100000000000000000000000000000000000000000000000000000000028152600401808681526020018573ffffffffffffffffffffffffffffffffffffffff1673ffffffffffffffffffffffffffffffffffffffff1681526020018415151515815260200180602001828103825284848281815260200192508082843782019150509650505050505050604080518083038186803b15156111a057600080fd5b6102c65a03f415156111b157600080fd5b50505060405180519060200180519050915091509250929050565b60008060000154908060020154908060030154908060040154905084565b6111f2611de6565b600073__WalletGetterLib_______________________63ea10bdc79091846000604051604001526040518363ffffffff167c0100000000000000000000000000000000000000000000000000000000028152600401808381526020018273ffffffffffffffffffffffffffffffffffffffff1673ffffffffffffffffffffffffffffffffffffffff16815260200192505050604080518083038186803b151561129b57600080fd5b6102c65a03f415156112ac57600080fd5b505050604051806040016040529050919050565b60008073__WalletGetterLib_______________________6373e7648e90916000604051602001526040518263ffffffff167c01000000000000000000000000000000000000000000000000000000000281526004018082815260200191505060206040518083038186803b151561133757600080fd5b6102c65a03f4151561134857600080fd5b50505060405180519050905090565b600080600073__WalletAdminLib________________________635b93789b90918787876000366000604051604001526040518763ffffffff167c0100000000000000000000000000000000000000000000000000000000028152600401808781526020018673ffffffffffffffffffffffffffffffffffffffff1673ffffffffffffffffffffffffffffffffffffffff1681526020018573ffffffffffffffffffffffffffffffffffffffff1673ffffffffffffffffffffffffffffffffffffffff168152602001841515151581526020018060200182810382528484828181526020019250808284378201915050975050505050505050604080518083038186803b151561146657600080fd5b6102c65a03f4151561147757600080fd5b5050506040518051906020018051905091509150935093915050565b60008073__WalletGetterLib_______________________6338b46370909185856000604051602001526040518463ffffffff167c0100000000000000000000000000000000000000000000000000000000028152600401808481526020018360001916600019168152602001828152602001935050505060206040518083038186803b151561152257600080fd5b6102c65a03f4151561153357600080fd5b50505060405180519050905092915050565b61154d611e0d565b600073__WalletGetterLib_______________________6338f073b2909184600060405161014001526040518363ffffffff167c010000000000000000000000000000000000000000000000000000000002815260040180838152602001828152602001925050506101406040518083038186803b15156115cd57600080fd5b6102c65a03f415156115de57600080fd5b50505060405180610140016040529050919050565b60008073__WalletGetterLib_______________________6367aedb349091846000604051602001526040518363ffffffff167c0100000000000000000000000000000000000000000000000000000000028152600401808381526020018273ffffffffffffffffffffffffffffffffffffffff1673ffffffffffffffffffffffffffffffffffffffff1681526020019250505060206040518083038186803b151561169e57600080fd5b6102c65a03f415156116af57600080fd5b505050604051805190509050919050565b6116c8611e39565b600073__WalletGetterLib_______________________63e4dcae7b9091600060405161066001526040518263ffffffff167c0100000000000000000000000000000000000000000000000000000000028152600401808281526020019150506106606040518083038186803b151561174057600080fd5b6102c65a03f4151561175157600080fd5b5050506040518061066001604052905090565b60008073__WalletGetterLib_______________________63a0913eaf909185856000604051602001526040518463ffffffff167c0100000000000000000000000000000000000000000000000000000000028152600401808481526020018360001916600019168152602001828152602001935050505060206040518083038186803b15156117f357600080fd5b6102c65a03f4151561180457600080fd5b50505060405180519050905092915050565b60008073__WalletMainLib_________________________63cbf279f79091846000604051602001526040518363ffffffff167c01000000000000000000000000000000000000000000000000000000000281526004018083815260200182600019166000191681526020019250505060206040518083038186803b151561189d57600080fd5b6102c65a03f415156118ae57600080fd5b505050604051805190509050919050565b600080600073__WalletAdminLib________________________63e081317a909186866000366000604051604001526040518663ffffffff167c0100000000000000000000000000000000000000000000000000000000028152600401808681526020018581526020018415151515815260200180602001828103825284848281815260200192508082843782019150509650505050505050604080518083038186803b151561196e57600080fd5b6102c65a03f4151561197f57600080fd5b50505060405180519060200180519050915091509250929050565b600080600073__WalletAdminLib________________________63bb46121f909186866000366000604051604001526040518663ffffffff167c0100000000000000000000000000000000000000000000000000000000028152600401808681526020018581526020018415151515815260200180602001828103825284848281815260200192508082843782019150509650505050505050604080518083038186803b1515611a4957600080fd5b6102c65a03f41515611a5a57600080fd5b50505060405180519060200180519050915091509250929050565b600080600073__WalletAdminLib________________________631b9cdab3909186866000366000604051604001526040518663ffffffff167c0100000000000000000000000000000000000000000000000000000000028152600401808681526020018581526020018415151515815260200180602001828103825284848281815260200192508082843782019150509650505050505050604080518083038186803b1515611b2457600080fd5b6102c65a03f41515611b3557600080fd5b50505060405180519060200180519050915091509250929050565b60008073__WalletGetterLib_______________________63d7f02e319091846000604051602001526040518363ffffffff167c01000000000000000000000000000000000000000000000000000000000281526004018083815260200182600019166000191681526020019250505060206040518083038186803b1515611bd757600080fd5b6102c65a03f41515611be857600080fd5b505050604051805190509050919050565b611c01611e78565b600073__WalletGetterLib_______________________63a2568c8290918585600060405161064001526040518463ffffffff167c010000000000000000000000000000000000000000000000000000000002815260040180848152602001836000191660001916815260200182815260200193505050506106406040518083038186803b1515611c9157600080fd5b6102c65a03f41515611ca257600080fd5b5050506040518061064001604052905092915050565b60008073__WalletGetterLib_______________________63f6d59b4690916000604051602001526040518263ffffffff167c01000000000000000000000000000000000000000000000000000000000281526004018082815260200191505060206040518083038186803b1515611d2f57600080fd5b6102c65a03f41515611d4057600080fd5b50505060405180519050905090565b60008073__WalletGetterLib_______________________6360eb3d8690916000604051602001526040518263ffffffff167c01000000000000000000000000000000000000000000000000000000000281526004018082815260200191505060206040518083038186803b1515611dc657600080fd5b6102c65a03f41515611dd757600080fd5b50505060405180519050905090565b60408051908101604052806002905b6000815260200190600190039081611df55790505090565b61014060405190810160405280600a905b6000801916815260200190600190039081611e1e5790505090565b610660604051908101604052806033905b600073ffffffffffffffffffffffffffffffffffffffff16815260200190600190039081611e4a5790505090565b610640604051908101604052806032905b6000815260200190600190039081611e8957905050905600a165627a7a72305820031dc7a0fb8cf6ad08ef0764ca44a55b8c9a30abe858fc5118efafe66fd27e580029",
  "source": "pragma solidity ^0.4.18;\n\nimport \"./WalletMainLib.sol\";\nimport \"./WalletAdminLib.sol\";\nimport \"./WalletGetterLib.sol\";\n\ncontract WalletLibTestContract {\n  using WalletMainLib for WalletMainLib.WalletData;\n  using WalletAdminLib for WalletMainLib.WalletData;\n  using WalletGetterLib for WalletMainLib.WalletData;\n\n  WalletMainLib.WalletData public wallet;\n\n  event LogDeposit(uint256 value);\n\n  /*Events*/\n  event LogTransactionConfirmed(bytes32 txid, address sender, uint256 confirmsNeeded);\n  event LogOwnerAdded(address newOwner);\n  event LogOwnerRemoved(address ownerRemoved);\n  event LogOwnerChanged(address from, address to);\n  event LogRequirementChange(uint256 newRequired);\n  event LogThresholdChange(address token, uint256 newThreshold);\n  event LogErrorMsg(uint256 amount, string msg);\n  event LogRevokeNotice(bytes32 txid, address sender, uint256 confirmsNeeded);\n  event LogTransactionFailed(bytes32 txid, address sender);\n  event LogTransactionComplete(bytes32 txid, address target, uint256 value, bytes data);\n  event LogContractCreated(address newContract, uint256 value);\n\n  function WalletLibTestContract() public {\n    address[] memory _owners = new address[](5);\n    _owners[0] = 0xb4e205cd196bbe4b1b3767a5e32e15f50eb79623;\n    _owners[1] = 0x40333d950b4c682e8aad143c216af52877d828bf;\n    _owners[2] = 0x0a1f4fcde83ba12ee8343488964811218da3e00e;\n    _owners[3] = 0x79b63228ff63659248b7c688870de388bdcf0c14;\n    _owners[4] = 0x36994c7cff11859ba8b9715120a68aa9499329ee;\n    wallet.init(_owners,4,3,1,100000000000000000000);\n  }\n\n  function() public payable {\n    LogDeposit(msg.value);\n  }\n\n  /*Getters*/\n\n  function owners() public view returns (address[51]) {\n    return wallet.getOwners();\n  }\n\n  function ownerIndex(address _owner) public view returns (uint256) {\n    return wallet.getOwnerIndex(_owner);\n  }\n\n  function maxOwners() public view returns (uint256) {\n    return wallet.getMaxOwners();\n  }\n\n  function ownerCount() public view returns (uint256) {\n    return wallet.getOwnerCount();\n  }\n\n  function requiredAdmin() public view returns (uint256) {\n    return wallet.getRequiredAdmin();\n  }\n\n  function requiredMinor() public view returns (uint256) {\n    return wallet.getRequiredMinor();\n  }\n\n  function requiredMajor() public view returns (uint256) {\n    return wallet.getRequiredMajor();\n  }\n\n  function currentSpend(address _token) public view returns (uint256[2]) {\n    return wallet.getCurrentSpend(_token);\n  }\n\n  function majorThreshold(address _token) public view returns (uint256) {\n    return wallet.getMajorThreshold(_token);\n  }\n\n  function transactions(uint256 _date) public view returns (bytes32[10]) {\n    return wallet.getTransactions(_date);\n  }\n\n  function transactionLength(bytes32 _id) public view returns (uint256) {\n    return wallet.getTransactionLength(_id);\n  }\n\n  function transactionConfirms(bytes32 _id, uint256 _txIndex) public view returns (uint256[50]) {\n    return wallet.getTransactionConfirms(_id, _txIndex);\n  }\n\n  function transactionConfirmCount(bytes32 _id, uint256 _txIndex) public view returns (uint256) {\n    return wallet.getTransactionConfirmCount(_id, _txIndex);\n  }\n\n  function transactionSuccess(bytes32 _id, uint256 _txIndex) public view returns (bool){\n    return wallet.getTransactionSuccess(_id, _txIndex);\n  }\n\n  /*Changers*/\n\n  function changeOwner(address _from, address _to, bool _confirm) public returns (bool,bytes32) {\n    return wallet.changeOwner(_from, _to, _confirm, msg.data);\n  }\n\n  function addOwner(address _newOwner, bool _confirm) public returns (bool,bytes32) {\n    return wallet.addOwner(_newOwner, _confirm, msg.data);\n  }\n\n  function removeOwner(address _ownerRemoving, bool _confirm) public returns (bool,bytes32) {\n    return wallet.removeOwner(_ownerRemoving, _confirm, msg.data);\n  }\n\n  function changeRequiredAdmin(uint256 _newRequired, bool _confirm) public returns (bool,bytes32) {\n    return wallet.changeRequiredAdmin(_newRequired, _confirm, msg.data);\n  }\n\n  function changeRequiredMajor(uint256 _newRequired, bool _confirm) public returns (bool,bytes32) {\n    return wallet.changeRequiredMajor(_newRequired, _confirm, msg.data);\n  }\n\n  function changeRequiredMinor(uint256 _newRequired, bool _confirm) public returns (bool,bytes32) {\n    return wallet.changeRequiredMinor(_newRequired, _confirm, msg.data);\n  }\n\n  function changeMajorThreshold(address _token, uint256 _newThreshold, bool _confirm) public returns (bool,bytes32) {\n    return wallet.changeMajorThreshold(_token, _newThreshold, _confirm, msg.data);\n  }\n\n  /*Tx Execution*/\n\n  function serveTx(address _to, uint256 _value, bytes _txData, bool _confirm) public returns (bool,bytes32) {\n    return wallet.serveTx(_to, _value, _txData, _confirm, msg.data);\n  }\n\n  function confirmTx(bytes32 _id) public returns (bool) {\n    return wallet.confirmTx(_id);\n  }\n\n  function revokeConfirm(bytes32 _id) public returns (bool) {\n    return wallet.revokeConfirm(_id);\n  }\n\n  function checkNotConfirmed(bytes32 _id, uint256 _txIndex) public returns (bool) {\n    return wallet.checkNotConfirmed(_id, _txIndex);\n  }\n}\n",
  "sourcePath": "/Users/joshuahannan/repository/majoolr/ethereum-libraries/WalletLib/truffle/contracts/WalletLibTestContract.sol",
  "compiler": {
    "name": "solc",
    "version": "0.4.18+commit.9cf6e910.Emscripten.clang"
  },
  "schemaVersion": "1.0.1",
  "updatedAt": "2017-12-04T19:31:40.946Z"
}