{
  "contractName": "WalletAdminLib",
  "abi": [
    {
      "constant": false,
      "inputs": [
        {
          "name": "self",
          "type": "WalletMainLib.WalletData storage"
        },
        {
          "name": "_requiredMinor",
          "type": "uint256"
        },
        {
          "name": "_confirm",
          "type": "bool"
        },
        {
          "name": "_data",
          "type": "bytes"
        }
      ],
      "name": "changeRequiredMinor",
      "outputs": [
        {
          "name": "",
          "type": "bool"
        },
        {
          "name": "",
          "type": "bytes32"
        }
      ],
      "payable": false,
      "stateMutability": "nonpayable",
      "type": "function"
    },
    {
      "constant": false,
      "inputs": [
        {
          "name": "self",
          "type": "WalletMainLib.WalletData storage"
        },
        {
          "name": "_token",
          "type": "address"
        },
        {
          "name": "_majorThreshold",
          "type": "uint256"
        },
        {
          "name": "_confirm",
          "type": "bool"
        },
        {
          "name": "_data",
          "type": "bytes"
        }
      ],
      "name": "changeMajorThreshold",
      "outputs": [
        {
          "name": "",
          "type": "bool"
        },
        {
          "name": "",
          "type": "bytes32"
        }
      ],
      "payable": false,
      "stateMutability": "nonpayable",
      "type": "function"
    },
    {
      "constant": false,
      "inputs": [
        {
          "name": "self",
          "type": "WalletMainLib.WalletData storage"
        },
        {
          "name": "_newOwner",
          "type": "address"
        },
        {
          "name": "_confirm",
          "type": "bool"
        },
        {
          "name": "_data",
          "type": "bytes"
        }
      ],
      "name": "addOwner",
      "outputs": [
        {
          "name": "",
          "type": "bool"
        },
        {
          "name": "",
          "type": "bytes32"
        }
      ],
      "payable": false,
      "stateMutability": "nonpayable",
      "type": "function"
    },
    {
      "constant": false,
      "inputs": [
        {
          "name": "self",
          "type": "WalletMainLib.WalletData storage"
        },
        {
          "name": "_from",
          "type": "address"
        },
        {
          "name": "_to",
          "type": "address"
        },
        {
          "name": "_confirm",
          "type": "bool"
        },
        {
          "name": "_data",
          "type": "bytes"
        }
      ],
      "name": "changeOwner",
      "outputs": [
        {
          "name": "",
          "type": "bool"
        },
        {
          "name": "",
          "type": "bytes32"
        }
      ],
      "payable": false,
      "stateMutability": "nonpayable",
      "type": "function"
    },
    {
      "constant": false,
      "inputs": [
        {
          "name": "self",
          "type": "WalletMainLib.WalletData storage"
        },
        {
          "name": "_requiredAdmin",
          "type": "uint256"
        },
        {
          "name": "_confirm",
          "type": "bool"
        },
        {
          "name": "_data",
          "type": "bytes"
        }
      ],
      "name": "changeRequiredAdmin",
      "outputs": [
        {
          "name": "",
          "type": "bool"
        },
        {
          "name": "",
          "type": "bytes32"
        }
      ],
      "payable": false,
      "stateMutability": "nonpayable",
      "type": "function"
    },
    {
      "constant": false,
      "inputs": [
        {
          "name": "self",
          "type": "WalletMainLib.WalletData storage"
        },
        {
          "name": "_requiredMajor",
          "type": "uint256"
        },
        {
          "name": "_confirm",
          "type": "bool"
        },
        {
          "name": "_data",
          "type": "bytes"
        }
      ],
      "name": "changeRequiredMajor",
      "outputs": [
        {
          "name": "",
          "type": "bool"
        },
        {
          "name": "",
          "type": "bytes32"
        }
      ],
      "payable": false,
      "stateMutability": "nonpayable",
      "type": "function"
    },
    {
      "constant": false,
      "inputs": [
        {
          "name": "self",
          "type": "WalletMainLib.WalletData storage"
        },
        {
          "name": "_ownerRemoving",
          "type": "address"
        },
        {
          "name": "_confirm",
          "type": "bool"
        },
        {
          "name": "_data",
          "type": "bytes"
        }
      ],
      "name": "removeOwner",
      "outputs": [
        {
          "name": "",
          "type": "bool"
        },
        {
          "name": "",
          "type": "bytes32"
        }
      ],
      "payable": false,
      "stateMutability": "nonpayable",
      "type": "function"
    },
    {
      "anonymous": false,
      "inputs": [
        {
          "indexed": false,
          "name": "txid",
          "type": "bytes32"
        },
        {
          "indexed": false,
          "name": "sender",
          "type": "address"
        },
        {
          "indexed": false,
          "name": "confirmsNeeded",
          "type": "uint256"
        }
      ],
      "name": "LogTransactionConfirmed",
      "type": "event"
    },
    {
      "anonymous": false,
      "inputs": [
        {
          "indexed": false,
          "name": "newOwner",
          "type": "address"
        }
      ],
      "name": "LogOwnerAdded",
      "type": "event"
    },
    {
      "anonymous": false,
      "inputs": [
        {
          "indexed": false,
          "name": "ownerRemoved",
          "type": "address"
        }
      ],
      "name": "LogOwnerRemoved",
      "type": "event"
    },
    {
      "anonymous": false,
      "inputs": [
        {
          "indexed": false,
          "name": "from",
          "type": "address"
        },
        {
          "indexed": false,
          "name": "to",
          "type": "address"
        }
      ],
      "name": "LogOwnerChanged",
      "type": "event"
    },
    {
      "anonymous": false,
      "inputs": [
        {
          "indexed": false,
          "name": "newRequired",
          "type": "uint256"
        }
      ],
      "name": "LogRequirementChange",
      "type": "event"
    },
    {
      "anonymous": false,
      "inputs": [
        {
          "indexed": false,
          "name": "token",
          "type": "address"
        },
        {
          "indexed": false,
          "name": "newThreshold",
          "type": "uint256"
        }
      ],
      "name": "LogThresholdChange",
      "type": "event"
    },
    {
      "anonymous": false,
      "inputs": [
        {
          "indexed": false,
          "name": "amount",
          "type": "uint256"
        },
        {
          "indexed": false,
          "name": "msg",
          "type": "string"
        }
      ],
      "name": "LogErrorMsg",
      "type": "event"
    }
  ],
  "bytecode": "0x6060604052341561000f57600080fd5b614b7d8061001e6000396000f300606060405260043610610083576000357c0100000000000000000000000000000000000000000000000000000000900463ffffffff1680631b9cdab3146100885780632718ad161461011e5780633f2e691c146101d35780635b93789b1461027f578063bb46121f1461034a578063e081317a146103e0578063fc3f4d1714610476575b600080fd5b6100f56004808035906020019091908035906020019091908035151590602001909190803590602001908201803590602001908080601f01602080910402602001604051908101604052809392919081815260200183838082843782019150505050505091905050610522565b604051808315151515815260200182600019166000191681526020019250505060405180910390f35b6101aa600480803590602001909190803573ffffffffffffffffffffffffffffffffffffffff16906020019091908035906020019091908035151590602001909190803590602001908201803590602001908080601f01602080910402602001604051908101604052809392919081815260200183838082843782019150505050505091905050610d19565b604051808315151515815260200182600019166000191681526020019250505060405180910390f35b610256600480803590602001909190803573ffffffffffffffffffffffffffffffffffffffff16906020019091908035151590602001909190803590602001908201803590602001908080601f01602080910402602001604051908101604052809392919081815260200183838082843782019150505050505091905050611599565b604051808315151515815260200182600019166000191681526020019250505060405180910390f35b610321600480803590602001909190803573ffffffffffffffffffffffffffffffffffffffff1690602001909190803573ffffffffffffffffffffffffffffffffffffffff16906020019091908035151590602001909190803590602001908201803590602001908080601f01602080910402602001604051908101604052809392919081815260200183838082843782019150505050505091905050611f0f565b604051808315151515815260200182600019166000191681526020019250505060405180910390f35b6103b76004808035906020019091908035906020019091908035151590602001909190803590602001908201803590602001908080601f01602080910402602001604051908101604052809392919081815260200183838082843782019150505050505091905050612986565b604051808315151515815260200182600019166000191681526020019250505060405180910390f35b61044d6004808035906020019091908035906020019091908035151590602001909190803590602001908201803590602001908080601f0160208091040260200160405190810160405280939291908181526020018383808284378201915050505050509190505061317d565b604051808315151515815260200182600019166000191681526020019250505060405180910390f35b6104f9600480803590602001909190803573ffffffffffffffffffffffffffffffffffffffff16906020019091908035151590602001909190803590602001908201803590602001908080601f01602080910402602001604051908101604052809392919081815260200183838082843782019150505050505091905050613974565b604051808315151515815260200182600019166000191681526020019250505060405180910390f35b6000806000806000808860405180807f6368616e676552657175697265644d696e6f72000000000000000000000000008152506013018281526020019150506040518091039020935089600901600085600019166000191681526020019081526020016000208054905092503073ffffffffffffffffffffffffffffffffffffffff163373ffffffffffffffffffffffffffffffffffffffff161415156109f557871515610677578973__WalletMainLib_________________________63cbf279f79091866000604051602001526040518363ffffffff167c01000000000000000000000000000000000000000000000000000000000281526004018083815260200182600019166000191681526020019250505060206040518083038186803b151561064f57600080fd5b6102c65a03f4151561066057600080fd5b505050604051805190509150818495509550610d0c565b60008314806106ce57508960090160008560001916600019168152602001908152602001600020600184038154811015156106ae57fe5b906000526020600020906009020160080160009054906101000a900460ff165b156108665760008a60080160003373ffffffffffffffffffffffffffffffffffffffff1673ffffffffffffffffffffffffffffffffffffffff1681526020019081526020016000205411151561072357600080fd5b610734898b6001018054905061441d565b915081151561074f5760008080600102905095509550610d0c565b8960090160008560001916600019168152602001908152602001600020805480919060010161077e919061489a565b5089600201548a60090160008660001916600019168152602001908152602001600020848154811015156107ae57fe5b90600052602060002090600902016007018190555062015180428115156107d157fe5b048a60090160008660001916600019168152602001908152602001600020848154811015156107fc57fe5b906000526020600020906009020160000181905550896007016000620151804281151561082557fe5b048152602001908152602001600020805480600101828161084691906148cc565b91600052602060002090016000869091909150906000191690555061092d565b8280600190039350508973__WalletMainLib_________________________639ae196ff909186866000604051602001526040518463ffffffff167c0100000000000000000000000000000000000000000000000000000000028152600401808481526020018360001916600019168152602001828152602001935050505060206040518083038186803b15156108fc57600080fd5b6102c65a03f4151561090d57600080fd5b50505060405180519050915081151561092c5760008495509550610d0c565b5b89600901600085600019166000191681526020019081526020016000208381548110151561095757fe5b9060005260206000209060090201600501805480600101828161097a91906148f8565b916000526020600020900160003373ffffffffffffffffffffffffffffffffffffffff16909190915055508960090160008560001916600019168152602001908152602001600020838154811015156109cf57fe5b9060005260206000209060090201600601600081548092919060010191905055506109ff565b8280600190039350505b896009016000856000191660001916815260200190815260200160002083815481101515610a2957fe5b9060005260206000209060090201600701548a6009016000866000191660001916815260200190815260200160002084815481101515610a6557fe5b9060005260206000209060090201600601541415610b5d5760018a6009016000866000191660001916815260200190815260200160002084815481101515610aa957fe5b906000526020600020906009020160080160006101000a81548160ff021916908315150217905550888a60040181905550896009016000856000191660001916815260200190815260200160002083815481101515610b0457fe5b90600052602060002090600902016004016000610b219190614924565b7f4147060af8b8b6220461c8690de43689af801659131a4b237409cb624c335aec896040518082815260200191505060405180910390a1610d04565b60008a6009016000866000191660001916815260200190815260200160002084815481101515610b8957fe5b90600052602060002090600902016004018054600181600116156101000203166002900490501415610c0657868a6009016000866000191660001916815260200190815260200160002084815481101515610be057fe5b90600052602060002090600902016004019080519060200190610c0492919061496c565b505b610c868a6009016000866000191660001916815260200190815260200160002084815481101515610c3357fe5b9060005260206000209060090201600701548b6009016000876000191660001916815260200190815260200160002085815481101515610c6f57fe5b90600052602060002090600902016006015461452f565b90507fef8dcc2e6089d6cdaf4b9e4488d780383081d593a692f3f2a0a75b1b27be61918433836040518084600019166000191681526020018373ffffffffffffffffffffffffffffffffffffffff1673ffffffffffffffffffffffffffffffffffffffff168152602001828152602001935050505060405180910390a15b600184955095505b5050505094509492505050565b600080600080600080898960405180807f6368616e67654d616a6f725468726573686f6c640000000000000000000000008152506014018373ffffffffffffffffffffffffffffffffffffffff1673ffffffffffffffffffffffffffffffffffffffff166c0100000000000000000000000002815260140182815260200192505050604051809103902093508a600901600085600019166000191681526020019081526020016000208054905092503073ffffffffffffffffffffffffffffffffffffffff163373ffffffffffffffffffffffffffffffffffffffff1614151561120357871515610eb1578a73__WalletMainLib_________________________63cbf279f79091866000604051602001526040518363ffffffff167c01000000000000000000000000000000000000000000000000000000000281526004018083815260200182600019166000191681526020019250505060206040518083038186803b1515610e8957600080fd5b6102c65a03f41515610e9a57600080fd5b50505060405180519050915081849550955061158b565b6000831480610f0857508a6009016000856000191660001916815260200190815260200160002060018403815481101515610ee857fe5b906000526020600020906009020160080160009054906101000a900460ff165b156110745760008b60080160003373ffffffffffffffffffffffffffffffffffffffff1673ffffffffffffffffffffffffffffffffffffffff16815260200190815260200160002054111515610f5d57600080fd5b8a600901600085600019166000191681526020019081526020016000208054809190600101610f8c919061489a565b508a600201548b6009016000866000191660001916815260200190815260200160002084815481101515610fbc57fe5b9060005260206000209060090201600701819055506201518042811515610fdf57fe5b048b600901600086600019166000191681526020019081526020016000208481548110151561100a57fe5b9060005260206000209060090201600001819055508a6007016000620151804281151561103357fe5b048152602001908152602001600020805480600101828161105491906148cc565b91600052602060002090016000869091909150906000191690555061113b565b8280600190039350508a73__WalletMainLib_________________________639ae196ff909186866000604051602001526040518463ffffffff167c0100000000000000000000000000000000000000000000000000000000028152600401808481526020018360001916600019168152602001828152602001935050505060206040518083038186803b151561110a57600080fd5b6102c65a03f4151561111b57600080fd5b50505060405180519050915081151561113a576000849550955061158b565b5b8a600901600085600019166000191681526020019081526020016000208381548110151561116557fe5b9060005260206000209060090201600501805480600101828161118891906148f8565b916000526020600020900160003373ffffffffffffffffffffffffffffffffffffffff16909190915055508a60090160008560001916600019168152602001908152602001600020838154811015156111dd57fe5b90600052602060002090600902016006016000815480929190600101919050555061120d565b8280600190039350505b8a600901600085600019166000191681526020019081526020016000208381548110151561123757fe5b9060005260206000209060090201600701548b600901600086600019166000191681526020019081526020016000208481548110151561127357fe5b90600052602060002090600902016006015414156113dc5760018b60090160008660001916600019168152602001908152602001600020848154811015156112b757fe5b906000526020600020906009020160080160006101000a81548160ff021916908315150217905550888b60060160008c73ffffffffffffffffffffffffffffffffffffffff1673ffffffffffffffffffffffffffffffffffffffff168152602001908152602001600020819055508a600901600085600019166000191681526020019081526020016000208381548110151561134f57fe5b9060005260206000209060090201600401600061136c9190614924565b7f852263aabb70901bb9e3af9255bb21bccc915caa34e732a5adffb53f5102505f8a8a604051808373ffffffffffffffffffffffffffffffffffffffff1673ffffffffffffffffffffffffffffffffffffffff1681526020018281526020019250505060405180910390a1611583565b60008b600901600086600019166000191681526020019081526020016000208481548110151561140857fe5b9060005260206000209060090201600401805460018160011615610100020316600290049050141561148557868b600901600086600019166000191681526020019081526020016000208481548110151561145f57fe5b9060005260206000209060090201600401908051906020019061148392919061496c565b505b6115058b60090160008660001916600019168152602001908152602001600020848154811015156114b257fe5b9060005260206000209060090201600701548c60090160008760001916600019168152602001908152602001600020858154811015156114ee57fe5b90600052602060002090600902016006015461452f565b90507fef8dcc2e6089d6cdaf4b9e4488d780383081d593a692f3f2a0a75b1b27be61918433836040518084600019166000191681526020018373ffffffffffffffffffffffffffffffffffffffff1673ffffffffffffffffffffffffffffffffffffffff168152602001828152602001935050505060405180910390a15b600184955095505b505050509550959350505050565b6000806000806000808860405180807f6164644f776e65720000000000000000000000000000000000000000000000008152506008018273ffffffffffffffffffffffffffffffffffffffff1673ffffffffffffffffffffffffffffffffffffffff166c010000000000000000000000000281526014019150506040518091039020935089600901600085600019166000191681526020019081526020016000208054905092503073ffffffffffffffffffffffffffffffffffffffff163373ffffffffffffffffffffffffffffffffffffffff16141515611b135760008973ffffffffffffffffffffffffffffffffffffffff161415151561169b57600080fd5b87151561174f578973__WalletMainLib_________________________63cbf279f79091866000604051602001526040518363ffffffff167c01000000000000000000000000000000000000000000000000000000000281526004018083815260200182600019166000191681526020019250505060206040518083038186803b151561172757600080fd5b6102c65a03f4151561173857600080fd5b505050604051805190509150818495509550611f02565b60008314806117a6575089600901600085600019166000191681526020019081526020016000206001840381548110151561178657fe5b906000526020600020906009020160080160009054906101000a900460ff165b156119845760008a60080160003373ffffffffffffffffffffffffffffffffffffffff1673ffffffffffffffffffffffffffffffffffffffff168152602001908152602001600020541115156117fb57600080fd5b6118528a60080160008b73ffffffffffffffffffffffffffffffffffffffff1673ffffffffffffffffffffffffffffffffffffffff168152602001908152602001600020548b600101805490508c6000015461453c565b915081151561186d5760008080600102905095509550611f02565b8960090160008560001916600019168152602001908152602001600020805480919060010161189c919061489a565b5089600201548a60090160008660001916600019168152602001908152602001600020848154811015156118cc57fe5b90600052602060002090600902016007018190555062015180428115156118ef57fe5b048a600901600086600019166000191681526020019081526020016000208481548110151561191a57fe5b906000526020600020906009020160000181905550896007016000620151804281151561194357fe5b048152602001908152602001600020805480600101828161196491906148cc565b916000526020600020900160008690919091509060001916905550611a4b565b8280600190039350508973__WalletMainLib_________________________639ae196ff909186866000604051602001526040518463ffffffff167c0100000000000000000000000000000000000000000000000000000000028152600401808481526020018360001916600019168152602001828152602001935050505060206040518083038186803b1515611a1a57600080fd5b6102c65a03f41515611a2b57600080fd5b505050604051805190509150811515611a4a5760008495509550611f02565b5b896009016000856000191660001916815260200190815260200160002083815481101515611a7557fe5b90600052602060002090600902016005018054806001018281611a9891906148f8565b916000526020600020900160003373ffffffffffffffffffffffffffffffffffffffff1690919091505550896009016000856000191660001916815260200190815260200160002083815481101515611aed57fe5b906000526020600020906009020160060160008154809291906001019190505550611b1d565b8280600190039350505b896009016000856000191660001916815260200190815260200160002083815481101515611b4757fe5b9060005260206000209060090201600701548a6009016000866000191660001916815260200190815260200160002084815481101515611b8357fe5b9060005260206000209060090201600601541415611d535760018a6009016000866000191660001916815260200190815260200160002084815481101515611bc757fe5b906000526020600020906009020160080160006101000a81548160ff021916908315150217905550896001018054806001018281611c0591906149ec565b916000526020600020900160008b909190916101000a81548173ffffffffffffffffffffffffffffffffffffffff021916908373ffffffffffffffffffffffffffffffffffffffff1602179055505060018a60010180549050038a60080160008b73ffffffffffffffffffffffffffffffffffffffff1673ffffffffffffffffffffffffffffffffffffffff16815260200190815260200160002081905550896009016000856000191660001916815260200190815260200160002083815481101515611cce57fe5b90600052602060002090600902016004016000611ceb9190614924565b7f5345c41500b4b3b852712efe48a8aca66a07e68dafe472cdf152bb1f8cf0dee789604051808273ffffffffffffffffffffffffffffffffffffffff1673ffffffffffffffffffffffffffffffffffffffff16815260200191505060405180910390a1611efa565b60008a6009016000866000191660001916815260200190815260200160002084815481101515611d7f57fe5b90600052602060002090600902016004018054600181600116156101000203166002900490501415611dfc57868a6009016000866000191660001916815260200190815260200160002084815481101515611dd657fe5b90600052602060002090600902016004019080519060200190611dfa92919061496c565b505b611e7c8a6009016000866000191660001916815260200190815260200160002084815481101515611e2957fe5b9060005260206000209060090201600701548b6009016000876000191660001916815260200190815260200160002085815481101515611e6557fe5b90600052602060002090600902016006015461452f565b90507fef8dcc2e6089d6cdaf4b9e4488d780383081d593a692f3f2a0a75b1b27be61918433836040518084600019166000191681526020018373ffffffffffffffffffffffffffffffffffffffff1673ffffffffffffffffffffffffffffffffffffffff168152602001828152602001935050505060405180910390a15b600184955095505b5050505094509492505050565b60008060008060008060008a8a60405180807f6368616e67654f776e6572000000000000000000000000000000000000000000815250600b018373ffffffffffffffffffffffffffffffffffffffff1673ffffffffffffffffffffffffffffffffffffffff166c010000000000000000000000000281526014018273ffffffffffffffffffffffffffffffffffffffff1673ffffffffffffffffffffffffffffffffffffffff166c0100000000000000000000000002815260140192505050604051809103902094508b600901600086600019166000191681526020019081526020016000208054905093503073ffffffffffffffffffffffffffffffffffffffff163373ffffffffffffffffffffffffffffffffffffffff161415156124dd578815156120e4578b73__WalletMainLib_________________________63cbf279f79091876000604051602001526040518363ffffffff167c01000000000000000000000000000000000000000000000000000000000281526004018083815260200182600019166000191681526020019250505060206040518083038186803b15156120bc57600080fd5b6102c65a03f415156120cd57600080fd5b505050604051805190509250828596509650612977565b600084148061213b57508b600901600086600019166000191681526020019081526020016000206001850381548110151561211b57fe5b906000526020600020906009020160080160009054906101000a900460ff165b1561234e5760008c60080160003373ffffffffffffffffffffffffffffffffffffffff1673ffffffffffffffffffffffffffffffffffffffff1681526020019081526020016000205411151561219057600080fd5b61221c8c60080160008d73ffffffffffffffffffffffffffffffffffffffff1673ffffffffffffffffffffffffffffffffffffffff168152602001908152602001600020548d60080160008d73ffffffffffffffffffffffffffffffffffffffff1673ffffffffffffffffffffffffffffffffffffffff16815260200190815260200160002054614650565b92508215156122375760008080600102905096509650612977565b8b600901600086600019166000191681526020019081526020016000208054809190600101612266919061489a565b508b600201548c600901600087600019166000191681526020019081526020016000208581548110151561229657fe5b90600052602060002090600902016007018190555062015180428115156122b957fe5b048c60090160008760001916600019168152602001908152602001600020858154811015156122e457fe5b9060005260206000209060090201600001819055508b6007016000620151804281151561230d57fe5b048152602001908152602001600020805480600101828161232e91906148cc565b916000526020600020900160008790919091509060001916905550612415565b8380600190039450508b73__WalletMainLib_________________________639ae196ff909187876000604051602001526040518463ffffffff167c0100000000000000000000000000000000000000000000000000000000028152600401808481526020018360001916600019168152602001828152602001935050505060206040518083038186803b15156123e457600080fd5b6102c65a03f415156123f557600080fd5b5050506040518051905092508215156124145760008596509650612977565b5b8b600901600086600019166000191681526020019081526020016000208481548110151561243f57fe5b9060005260206000209060090201600501805480600101828161246291906148f8565b916000526020600020900160003373ffffffffffffffffffffffffffffffffffffffff16909190915055508b60090160008660001916600019168152602001908152602001600020848154811015156124b757fe5b9060005260206000209060090201600601600081548092919060010191905055506124e7565b8380600190039450505b8b600901600086600019166000191681526020019081526020016000208481548110151561251157fe5b9060005260206000209060090201600701548c600901600087600019166000191681526020019081526020016000208581548110151561254d57fe5b90600052602060002090600902016006015414156127c85760018c600901600087600019166000191681526020019081526020016000208581548110151561259157fe5b906000526020600020906009020160080160006101000a81548160ff0219169083151502179055508b60080160008c73ffffffffffffffffffffffffffffffffffffffff1673ffffffffffffffffffffffffffffffffffffffff16815260200190815260200160002054915060008c60080160008d73ffffffffffffffffffffffffffffffffffffffff1673ffffffffffffffffffffffffffffffffffffffff16815260200190815260200160002081905550898c6001018381548110151561265657fe5b906000526020600020900160006101000a81548173ffffffffffffffffffffffffffffffffffffffff021916908373ffffffffffffffffffffffffffffffffffffffff160217905550818c60080160008c73ffffffffffffffffffffffffffffffffffffffff1673ffffffffffffffffffffffffffffffffffffffff168152602001908152602001600020819055508b600901600086600019166000191681526020019081526020016000208481548110151561270f57fe5b9060005260206000209060090201600401600061272c9190614924565b7ffcf23a92150d56e85e3a3d33b357493246e55783095eb6a733eb8439ffc752c88b8b604051808373ffffffffffffffffffffffffffffffffffffffff1673ffffffffffffffffffffffffffffffffffffffff1681526020018273ffffffffffffffffffffffffffffffffffffffff1673ffffffffffffffffffffffffffffffffffffffff1681526020019250505060405180910390a161296f565b60008c60090160008760001916600019168152602001908152602001600020858154811015156127f457fe5b9060005260206000209060090201600401805460018160011615610100020316600290049050141561287157878c600901600087600019166000191681526020019081526020016000208581548110151561284b57fe5b9060005260206000209060090201600401908051906020019061286f92919061496c565b505b6128f18c600901600087600019166000191681526020019081526020016000208581548110151561289e57fe5b9060005260206000209060090201600701548d60090160008860001916600019168152602001908152602001600020868154811015156128da57fe5b90600052602060002090600902016006015461452f565b90507fef8dcc2e6089d6cdaf4b9e4488d780383081d593a692f3f2a0a75b1b27be61918533836040518084600019166000191681526020018373ffffffffffffffffffffffffffffffffffffffff1673ffffffffffffffffffffffffffffffffffffffff168152602001828152602001935050505060405180910390a15b600185965096505b50505050509550959350505050565b6000806000806000808860405180807f6368616e6765526571756972656441646d696e000000000000000000000000008152506013018281526020019150506040518091039020935089600901600085600019166000191681526020019081526020016000208054905092503073ffffffffffffffffffffffffffffffffffffffff163373ffffffffffffffffffffffffffffffffffffffff16141515612e5957871515612adb578973__WalletMainLib_________________________63cbf279f79091866000604051602001526040518363ffffffff167c01000000000000000000000000000000000000000000000000000000000281526004018083815260200182600019166000191681526020019250505060206040518083038186803b1515612ab357600080fd5b6102c65a03f41515612ac457600080fd5b505050604051805190509150818495509550613170565b6000831480612b325750896009016000856000191660001916815260200190815260200160002060018403815481101515612b1257fe5b906000526020600020906009020160080160009054906101000a900460ff165b15612cca5760008a60080160003373ffffffffffffffffffffffffffffffffffffffff1673ffffffffffffffffffffffffffffffffffffffff16815260200190815260200160002054111515612b8757600080fd5b612b98898b6001018054905061441d565b9150811515612bb35760008080600102905095509550613170565b89600901600085600019166000191681526020019081526020016000208054809190600101612be2919061489a565b5089600201548a6009016000866000191660001916815260200190815260200160002084815481101515612c1257fe5b9060005260206000209060090201600701819055506201518042811515612c3557fe5b048a6009016000866000191660001916815260200190815260200160002084815481101515612c6057fe5b9060005260206000209060090201600001819055508960070160006201518042811515612c8957fe5b0481526020019081526020016000208054806001018281612caa91906148cc565b916000526020600020900160008690919091509060001916905550612d91565b8280600190039350508973__WalletMainLib_________________________639ae196ff909186866000604051602001526040518463ffffffff167c0100000000000000000000000000000000000000000000000000000000028152600401808481526020018360001916600019168152602001828152602001935050505060206040518083038186803b1515612d6057600080fd5b6102c65a03f41515612d7157600080fd5b505050604051805190509150811515612d905760008495509550613170565b5b896009016000856000191660001916815260200190815260200160002083815481101515612dbb57fe5b90600052602060002090600902016005018054806001018281612dde91906148f8565b916000526020600020900160003373ffffffffffffffffffffffffffffffffffffffff1690919091505550896009016000856000191660001916815260200190815260200160002083815481101515612e3357fe5b906000526020600020906009020160060160008154809291906001019190505550612e63565b8280600190039350505b896009016000856000191660001916815260200190815260200160002083815481101515612e8d57fe5b9060005260206000209060090201600701548a6009016000866000191660001916815260200190815260200160002084815481101515612ec957fe5b9060005260206000209060090201600601541415612fc15760018a6009016000866000191660001916815260200190815260200160002084815481101515612f0d57fe5b906000526020600020906009020160080160006101000a81548160ff021916908315150217905550888a60020181905550896009016000856000191660001916815260200190815260200160002083815481101515612f6857fe5b90600052602060002090600902016004016000612f859190614924565b7f4147060af8b8b6220461c8690de43689af801659131a4b237409cb624c335aec896040518082815260200191505060405180910390a1613168565b60008a6009016000866000191660001916815260200190815260200160002084815481101515612fed57fe5b9060005260206000209060090201600401805460018160011615610100020316600290049050141561306a57868a600901600086600019166000191681526020019081526020016000208481548110151561304457fe5b9060005260206000209060090201600401908051906020019061306892919061496c565b505b6130ea8a600901600086600019166000191681526020019081526020016000208481548110151561309757fe5b9060005260206000209060090201600701548b60090160008760001916600019168152602001908152602001600020858154811015156130d357fe5b90600052602060002090600902016006015461452f565b90507fef8dcc2e6089d6cdaf4b9e4488d780383081d593a692f3f2a0a75b1b27be61918433836040518084600019166000191681526020018373ffffffffffffffffffffffffffffffffffffffff1673ffffffffffffffffffffffffffffffffffffffff168152602001828152602001935050505060405180910390a15b600184955095505b5050505094509492505050565b6000806000806000808860405180807f6368616e676552657175697265644d616a6f72000000000000000000000000008152506013018281526020019150506040518091039020935089600901600085600019166000191681526020019081526020016000208054905092503073ffffffffffffffffffffffffffffffffffffffff163373ffffffffffffffffffffffffffffffffffffffff16141515613650578715156132d2578973__WalletMainLib_________________________63cbf279f79091866000604051602001526040518363ffffffff167c01000000000000000000000000000000000000000000000000000000000281526004018083815260200182600019166000191681526020019250505060206040518083038186803b15156132aa57600080fd5b6102c65a03f415156132bb57600080fd5b505050604051805190509150818495509550613967565b6000831480613329575089600901600085600019166000191681526020019081526020016000206001840381548110151561330957fe5b906000526020600020906009020160080160009054906101000a900460ff165b156134c15760008a60080160003373ffffffffffffffffffffffffffffffffffffffff1673ffffffffffffffffffffffffffffffffffffffff1681526020019081526020016000205411151561337e57600080fd5b61338f898b6001018054905061441d565b91508115156133aa5760008080600102905095509550613967565b896009016000856000191660001916815260200190815260200160002080548091906001016133d9919061489a565b5089600201548a600901600086600019166000191681526020019081526020016000208481548110151561340957fe5b906000526020600020906009020160070181905550620151804281151561342c57fe5b048a600901600086600019166000191681526020019081526020016000208481548110151561345757fe5b906000526020600020906009020160000181905550896007016000620151804281151561348057fe5b04815260200190815260200160002080548060010182816134a191906148cc565b916000526020600020900160008690919091509060001916905550613588565b8280600190039350508973__WalletMainLib_________________________639ae196ff909186866000604051602001526040518463ffffffff167c0100000000000000000000000000000000000000000000000000000000028152600401808481526020018360001916600019168152602001828152602001935050505060206040518083038186803b151561355757600080fd5b6102c65a03f4151561356857600080fd5b5050506040518051905091508115156135875760008495509550613967565b5b8960090160008560001916600019168152602001908152602001600020838154811015156135b257fe5b906000526020600020906009020160050180548060010182816135d591906148f8565b916000526020600020900160003373ffffffffffffffffffffffffffffffffffffffff169091909150555089600901600085600019166000191681526020019081526020016000208381548110151561362a57fe5b90600052602060002090600902016006016000815480929190600101919050555061365a565b8280600190039350505b89600901600085600019166000191681526020019081526020016000208381548110151561368457fe5b9060005260206000209060090201600701548a60090160008660001916600019168152602001908152602001600020848154811015156136c057fe5b90600052602060002090600902016006015414156137b85760018a600901600086600019166000191681526020019081526020016000208481548110151561370457fe5b906000526020600020906009020160080160006101000a81548160ff021916908315150217905550888a6003018190555089600901600085600019166000191681526020019081526020016000208381548110151561375f57fe5b9060005260206000209060090201600401600061377c9190614924565b7f4147060af8b8b6220461c8690de43689af801659131a4b237409cb624c335aec896040518082815260200191505060405180910390a161395f565b60008a60090160008660001916600019168152602001908152602001600020848154811015156137e457fe5b9060005260206000209060090201600401805460018160011615610100020316600290049050141561386157868a600901600086600019166000191681526020019081526020016000208481548110151561383b57fe5b9060005260206000209060090201600401908051906020019061385f92919061496c565b505b6138e18a600901600086600019166000191681526020019081526020016000208481548110151561388e57fe5b9060005260206000209060090201600701548b60090160008760001916600019168152602001908152602001600020858154811015156138ca57fe5b90600052602060002090600902016006015461452f565b90507fef8dcc2e6089d6cdaf4b9e4488d780383081d593a692f3f2a0a75b1b27be61918433836040518084600019166000191681526020018373ffffffffffffffffffffffffffffffffffffffff1673ffffffffffffffffffffffffffffffffffffffff168152602001828152602001935050505060405180910390a15b600184955095505b5050505094509492505050565b6000806000806000808860405180807f72656d6f76654f776e6572000000000000000000000000000000000000000000815250600b018273ffffffffffffffffffffffffffffffffffffffff1673ffffffffffffffffffffffffffffffffffffffff166c010000000000000000000000000281526014019150506040518091039020935089600901600085600019166000191681526020019081526020016000208054905092503073ffffffffffffffffffffffffffffffffffffffff163373ffffffffffffffffffffffffffffffffffffffff16141515613ec857871515613b04578973__WalletMainLib_________________________63cbf279f79091866000604051602001526040518363ffffffff167c01000000000000000000000000000000000000000000000000000000000281526004018083815260200182600019166000191681526020019250505060206040518083038186803b1515613adc57600080fd5b6102c65a03f41515613aed57600080fd5b505050604051805190509150818495509550614410565b6000831480613b5b5750896009016000856000191660001916815260200190815260200160002060018403815481101515613b3b57fe5b906000526020600020906009020160080160009054906101000a900460ff165b15613d395760008a60080160003373ffffffffffffffffffffffffffffffffffffffff1673ffffffffffffffffffffffffffffffffffffffff16815260200190815260200160002054111515613bb057600080fd5b613c078a60080160008b73ffffffffffffffffffffffffffffffffffffffff1673ffffffffffffffffffffffffffffffffffffffff168152602001908152602001600020548b600101805490508c60020154614787565b9150811515613c225760008080600102905095509550614410565b89600901600085600019166000191681526020019081526020016000208054809190600101613c51919061489a565b5089600201548a6009016000866000191660001916815260200190815260200160002084815481101515613c8157fe5b9060005260206000209060090201600701819055506201518042811515613ca457fe5b048a6009016000866000191660001916815260200190815260200160002084815481101515613ccf57fe5b9060005260206000209060090201600001819055508960070160006201518042811515613cf857fe5b0481526020019081526020016000208054806001018281613d1991906148cc565b916000526020600020900160008690919091509060001916905550613e00565b8280600190039350508973__WalletMainLib_________________________639ae196ff909186866000604051602001526040518463ffffffff167c0100000000000000000000000000000000000000000000000000000000028152600401808481526020018360001916600019168152602001828152602001935050505060206040518083038186803b1515613dcf57600080fd5b6102c65a03f41515613de057600080fd5b505050604051805190509150811515613dff5760008495509550614410565b5b896009016000856000191660001916815260200190815260200160002083815481101515613e2a57fe5b90600052602060002090600902016005018054806001018281613e4d91906148f8565b916000526020600020900160003373ffffffffffffffffffffffffffffffffffffffff1690919091505550896009016000856000191660001916815260200190815260200160002083815481101515613ea257fe5b906000526020600020906009020160060160008154809291906001019190505550613ed2565b8280600190039350505b896009016000856000191660001916815260200190815260200160002083815481101515613efc57fe5b9060005260206000209060090201600701548a6009016000866000191660001916815260200190815260200160002084815481101515613f3857fe5b90600052602060002090600902016006015414156142615760018a6009016000866000191660001916815260200190815260200160002084815481101515613f7c57fe5b906000526020600020906009020160080160006101000a81548160ff0219169083151502179055508960010160018b6001018054905003815481101515613fbf57fe5b906000526020600020900160009054906101000a900473ffffffffffffffffffffffffffffffffffffffff168a6001018b60080160008c73ffffffffffffffffffffffffffffffffffffffff1673ffffffffffffffffffffffffffffffffffffffff1681526020019081526020016000205481548110151561403d57fe5b906000526020600020900160006101000a81548173ffffffffffffffffffffffffffffffffffffffff021916908373ffffffffffffffffffffffffffffffffffffffff1602179055508960080160008a73ffffffffffffffffffffffffffffffffffffffff1673ffffffffffffffffffffffffffffffffffffffff168152602001908152602001600020548a60080160008c60010160018e60010180549050038154811015156140e957fe5b906000526020600020900160009054906101000a900473ffffffffffffffffffffffffffffffffffffffff1673ffffffffffffffffffffffffffffffffffffffff1673ffffffffffffffffffffffffffffffffffffffff1681526020019081526020016000208190555060008a60080160008b73ffffffffffffffffffffffffffffffffffffffff1673ffffffffffffffffffffffffffffffffffffffff16815260200190815260200160002081905550896001018054809190600190036141b19190614a18565b508960090160008560001916600019168152602001908152602001600020838154811015156141dc57fe5b906000526020600020906009020160040160006141f99190614924565b7fcced2bb6be71c58ec6a1d84c3426108fe5d99c01bb4003687fb8edf6c147043389604051808273ffffffffffffffffffffffffffffffffffffffff1673ffffffffffffffffffffffffffffffffffffffff16815260200191505060405180910390a1614408565b60008a600901600086600019166000191681526020019081526020016000208481548110151561428d57fe5b9060005260206000209060090201600401805460018160011615610100020316600290049050141561430a57868a60090160008660001916600019168152602001908152602001600020848154811015156142e457fe5b9060005260206000209060090201600401908051906020019061430892919061496c565b505b61438a8a600901600086600019166000191681526020019081526020016000208481548110151561433757fe5b9060005260206000209060090201600701548b600901600087600019166000191681526020019081526020016000208581548110151561437357fe5b90600052602060002090600902016006015461452f565b90507fef8dcc2e6089d6cdaf4b9e4488d780383081d593a692f3f2a0a75b1b27be61918433836040518084600019166000191681526020018373ffffffffffffffffffffffffffffffffffffffff1673ffffffffffffffffffffffffffffffffffffffff168152602001828152602001935050505060405180910390a15b600184955095505b5050505094509492505050565b6000808314156144a0577f8756f3e78da606244d7d8c9563ce2678f294db7c57afce515849e03d5eec6c3a836040518082815260200180602001828103825260108152602001807f43616e742072656475636520746f2030000000000000000000000000000000008152506020019250505060405180910390a160009050614529565b82600283031015614524577f8756f3e78da606244d7d8c9563ce2678f294db7c57afce515849e03d5eec6c3a8260405180828152602001806020018281038252601b8152602001807f4d616b696e6720726571756972656d656e7420746f6f206869676800000000008152506020019250505060405180910390a160009050614529565b600190505b92915050565b6000818303905092915050565b600080841415156145c0577f8756f3e78da606244d7d8c9563ce2678f294db7c57afce515849e03d5eec6c3a846040518082815260200180602001828103825260178152602001807f4e6577206f776e657220616c7265616479206f776e65720000000000000000008152506020019250505060405180910390a160009050614649565b81600184011115614644577f8756f3e78da606244d7d8c9563ce2678f294db7c57afce515849e03d5eec6c3a8360405180828152602001806020018281038252600f8152602001807f546f6f206d616e79206f776e65727300000000000000000000000000000000008152506020019250505060405180910390a160009050614649565b600190505b9392505050565b6000808314156146f9577f8756f3e78da606244d7d8c9563ce2678f294db7c57afce515849e03d5eec6c3a836040518082815260200180602001828103825260238152602001807f4368616e67652066726f6d2061646472657373206973206e6f7420616e206f7781526020017f6e657200000000000000000000000000000000000000000000000000000000008152506040019250505060405180910390a160009050614781565b60008214151561477c577f8756f3e78da606244d7d8c9563ce2678f294db7c57afce515849e03d5eec6c3a8260405180828152602001806020018281038252601d8152602001807f4368616e676520746f206164647265737320697320616e206f776e65720000008152506020019250505060405180910390a160009050614781565b600190505b92915050565b60008084141561480a577f8756f3e78da606244d7d8c9563ce2678f294db7c57afce515849e03d5eec6c3a8460405180828152602001806020018281038252601b8152602001807f4f776e65722072656d6f76696e67206e6f7420616e206f776e657200000000008152506020019250505060405180910390a160009050614893565b8160028403101561488e577f8756f3e78da606244d7d8c9563ce2678f294db7c57afce515849e03d5eec6c3a8460405180828152602001806020018281038252601f8152602001807f4d7573742072656475636520726571756972656441646d696e206669727374008152506020019250505060405180910390a160009050614893565b600190505b9392505050565b8154818355818115116148c7576009028160090283600052602060002091820191016148c69190614a44565b5b505050565b8154818355818115116148f3578183600052602060002091820191016148f29190614ae6565b5b505050565b81548183558181151161491f5781836000526020600020918201910161491e9190614b0b565b5b505050565b50805460018160011615610100020316600290046000825580601f1061494a5750614969565b601f0160209004906000526020600020908101906149689190614b0b565b5b50565b828054600181600116156101000203166002900490600052602060002090601f016020900481019282601f106149ad57805160ff19168380011785556149db565b828001600101855582156149db579182015b828111156149da5782518255916020019190600101906149bf565b5b5090506149e89190614b0b565b5090565b815481835581811511614a1357818360005260206000209182019101614a129190614b0b565b5b505050565b815481835581811511614a3f57818360005260206000209182019101614a3e9190614b0b565b5b505050565b614ae391905b80821115614adf5760008082016000905560018201600090556002820160006101000a81549073ffffffffffffffffffffffffffffffffffffffff02191690556003820160009055600482016000614aa29190614924565b600582016000614ab29190614b30565b600682016000905560078201600090556008820160006101000a81549060ff021916905550600901614a4a565b5090565b90565b614b0891905b80821115614b04576000816000905550600101614aec565b5090565b90565b614b2d91905b80821115614b29576000816000905550600101614b11565b5090565b90565b5080546000825590600052602060002090810190614b4e9190614b0b565b505600a165627a7a723058208cc895d9c492589abbd1203b32134c8982eb5ad3728feab2c01a5574b6d2ebd80029",
  "deployedBytecode": "0x6060604052341561000f57600080fd5b614b7d8061001e6000396000f300606060405260043610610083576000357c0100000000000000000000000000000000000000000000000000000000900463ffffffff1680631b9cdab3146100885780632718ad161461011e5780633f2e691c146101d35780635b93789b1461027f578063bb46121f1461034a578063e081317a146103e0578063fc3f4d1714610476575b600080fd5b6100f56004808035906020019091908035906020019091908035151590602001909190803590602001908201803590602001908080601f01602080910402602001604051908101604052809392919081815260200183838082843782019150505050505091905050610522565b604051808315151515815260200182600019166000191681526020019250505060405180910390f35b6101aa600480803590602001909190803573ffffffffffffffffffffffffffffffffffffffff16906020019091908035906020019091908035151590602001909190803590602001908201803590602001908080601f01602080910402602001604051908101604052809392919081815260200183838082843782019150505050505091905050610d19565b604051808315151515815260200182600019166000191681526020019250505060405180910390f35b610256600480803590602001909190803573ffffffffffffffffffffffffffffffffffffffff16906020019091908035151590602001909190803590602001908201803590602001908080601f01602080910402602001604051908101604052809392919081815260200183838082843782019150505050505091905050611599565b604051808315151515815260200182600019166000191681526020019250505060405180910390f35b610321600480803590602001909190803573ffffffffffffffffffffffffffffffffffffffff1690602001909190803573ffffffffffffffffffffffffffffffffffffffff16906020019091908035151590602001909190803590602001908201803590602001908080601f01602080910402602001604051908101604052809392919081815260200183838082843782019150505050505091905050611f0f565b604051808315151515815260200182600019166000191681526020019250505060405180910390f35b6103b76004808035906020019091908035906020019091908035151590602001909190803590602001908201803590602001908080601f01602080910402602001604051908101604052809392919081815260200183838082843782019150505050505091905050612986565b604051808315151515815260200182600019166000191681526020019250505060405180910390f35b61044d6004808035906020019091908035906020019091908035151590602001909190803590602001908201803590602001908080601f0160208091040260200160405190810160405280939291908181526020018383808284378201915050505050509190505061317d565b604051808315151515815260200182600019166000191681526020019250505060405180910390f35b6104f9600480803590602001909190803573ffffffffffffffffffffffffffffffffffffffff16906020019091908035151590602001909190803590602001908201803590602001908080601f01602080910402602001604051908101604052809392919081815260200183838082843782019150505050505091905050613974565b604051808315151515815260200182600019166000191681526020019250505060405180910390f35b6000806000806000808860405180807f6368616e676552657175697265644d696e6f72000000000000000000000000008152506013018281526020019150506040518091039020935089600901600085600019166000191681526020019081526020016000208054905092503073ffffffffffffffffffffffffffffffffffffffff163373ffffffffffffffffffffffffffffffffffffffff161415156109f557871515610677578973cC6809041E55ce4977046a685a3195989049750c63cbf279f79091866000604051602001526040518363ffffffff167c01000000000000000000000000000000000000000000000000000000000281526004018083815260200182600019166000191681526020019250505060206040518083038186803b151561064f57600080fd5b6102c65a03f4151561066057600080fd5b505050604051805190509150818495509550610d0c565b60008314806106ce57508960090160008560001916600019168152602001908152602001600020600184038154811015156106ae57fe5b906000526020600020906009020160080160009054906101000a900460ff165b156108665760008a60080160003373ffffffffffffffffffffffffffffffffffffffff1673ffffffffffffffffffffffffffffffffffffffff1681526020019081526020016000205411151561072357600080fd5b610734898b6001018054905061441d565b915081151561074f5760008080600102905095509550610d0c565b8960090160008560001916600019168152602001908152602001600020805480919060010161077e919061489a565b5089600201548a60090160008660001916600019168152602001908152602001600020848154811015156107ae57fe5b90600052602060002090600902016007018190555062015180428115156107d157fe5b048a60090160008660001916600019168152602001908152602001600020848154811015156107fc57fe5b906000526020600020906009020160000181905550896007016000620151804281151561082557fe5b048152602001908152602001600020805480600101828161084691906148cc565b91600052602060002090016000869091909150906000191690555061092d565b8280600190039350508973cC6809041E55ce4977046a685a3195989049750c639ae196ff909186866000604051602001526040518463ffffffff167c0100000000000000000000000000000000000000000000000000000000028152600401808481526020018360001916600019168152602001828152602001935050505060206040518083038186803b15156108fc57600080fd5b6102c65a03f4151561090d57600080fd5b50505060405180519050915081151561092c5760008495509550610d0c565b5b89600901600085600019166000191681526020019081526020016000208381548110151561095757fe5b9060005260206000209060090201600501805480600101828161097a91906148f8565b916000526020600020900160003373ffffffffffffffffffffffffffffffffffffffff16909190915055508960090160008560001916600019168152602001908152602001600020838154811015156109cf57fe5b9060005260206000209060090201600601600081548092919060010191905055506109ff565b8280600190039350505b896009016000856000191660001916815260200190815260200160002083815481101515610a2957fe5b9060005260206000209060090201600701548a6009016000866000191660001916815260200190815260200160002084815481101515610a6557fe5b9060005260206000209060090201600601541415610b5d5760018a6009016000866000191660001916815260200190815260200160002084815481101515610aa957fe5b906000526020600020906009020160080160006101000a81548160ff021916908315150217905550888a60040181905550896009016000856000191660001916815260200190815260200160002083815481101515610b0457fe5b90600052602060002090600902016004016000610b219190614924565b7f4147060af8b8b6220461c8690de43689af801659131a4b237409cb624c335aec896040518082815260200191505060405180910390a1610d04565b60008a6009016000866000191660001916815260200190815260200160002084815481101515610b8957fe5b90600052602060002090600902016004018054600181600116156101000203166002900490501415610c0657868a6009016000866000191660001916815260200190815260200160002084815481101515610be057fe5b90600052602060002090600902016004019080519060200190610c0492919061496c565b505b610c868a6009016000866000191660001916815260200190815260200160002084815481101515610c3357fe5b9060005260206000209060090201600701548b6009016000876000191660001916815260200190815260200160002085815481101515610c6f57fe5b90600052602060002090600902016006015461452f565b90507fef8dcc2e6089d6cdaf4b9e4488d780383081d593a692f3f2a0a75b1b27be61918433836040518084600019166000191681526020018373ffffffffffffffffffffffffffffffffffffffff1673ffffffffffffffffffffffffffffffffffffffff168152602001828152602001935050505060405180910390a15b600184955095505b5050505094509492505050565b600080600080600080898960405180807f6368616e67654d616a6f725468726573686f6c640000000000000000000000008152506014018373ffffffffffffffffffffffffffffffffffffffff1673ffffffffffffffffffffffffffffffffffffffff166c0100000000000000000000000002815260140182815260200192505050604051809103902093508a600901600085600019166000191681526020019081526020016000208054905092503073ffffffffffffffffffffffffffffffffffffffff163373ffffffffffffffffffffffffffffffffffffffff1614151561120357871515610eb1578a73cC6809041E55ce4977046a685a3195989049750c63cbf279f79091866000604051602001526040518363ffffffff167c01000000000000000000000000000000000000000000000000000000000281526004018083815260200182600019166000191681526020019250505060206040518083038186803b1515610e8957600080fd5b6102c65a03f41515610e9a57600080fd5b50505060405180519050915081849550955061158b565b6000831480610f0857508a6009016000856000191660001916815260200190815260200160002060018403815481101515610ee857fe5b906000526020600020906009020160080160009054906101000a900460ff165b156110745760008b60080160003373ffffffffffffffffffffffffffffffffffffffff1673ffffffffffffffffffffffffffffffffffffffff16815260200190815260200160002054111515610f5d57600080fd5b8a600901600085600019166000191681526020019081526020016000208054809190600101610f8c919061489a565b508a600201548b6009016000866000191660001916815260200190815260200160002084815481101515610fbc57fe5b9060005260206000209060090201600701819055506201518042811515610fdf57fe5b048b600901600086600019166000191681526020019081526020016000208481548110151561100a57fe5b9060005260206000209060090201600001819055508a6007016000620151804281151561103357fe5b048152602001908152602001600020805480600101828161105491906148cc565b91600052602060002090016000869091909150906000191690555061113b565b8280600190039350508a73cC6809041E55ce4977046a685a3195989049750c639ae196ff909186866000604051602001526040518463ffffffff167c0100000000000000000000000000000000000000000000000000000000028152600401808481526020018360001916600019168152602001828152602001935050505060206040518083038186803b151561110a57600080fd5b6102c65a03f4151561111b57600080fd5b50505060405180519050915081151561113a576000849550955061158b565b5b8a600901600085600019166000191681526020019081526020016000208381548110151561116557fe5b9060005260206000209060090201600501805480600101828161118891906148f8565b916000526020600020900160003373ffffffffffffffffffffffffffffffffffffffff16909190915055508a60090160008560001916600019168152602001908152602001600020838154811015156111dd57fe5b90600052602060002090600902016006016000815480929190600101919050555061120d565b8280600190039350505b8a600901600085600019166000191681526020019081526020016000208381548110151561123757fe5b9060005260206000209060090201600701548b600901600086600019166000191681526020019081526020016000208481548110151561127357fe5b90600052602060002090600902016006015414156113dc5760018b60090160008660001916600019168152602001908152602001600020848154811015156112b757fe5b906000526020600020906009020160080160006101000a81548160ff021916908315150217905550888b60060160008c73ffffffffffffffffffffffffffffffffffffffff1673ffffffffffffffffffffffffffffffffffffffff168152602001908152602001600020819055508a600901600085600019166000191681526020019081526020016000208381548110151561134f57fe5b9060005260206000209060090201600401600061136c9190614924565b7f852263aabb70901bb9e3af9255bb21bccc915caa34e732a5adffb53f5102505f8a8a604051808373ffffffffffffffffffffffffffffffffffffffff1673ffffffffffffffffffffffffffffffffffffffff1681526020018281526020019250505060405180910390a1611583565b60008b600901600086600019166000191681526020019081526020016000208481548110151561140857fe5b9060005260206000209060090201600401805460018160011615610100020316600290049050141561148557868b600901600086600019166000191681526020019081526020016000208481548110151561145f57fe5b9060005260206000209060090201600401908051906020019061148392919061496c565b505b6115058b60090160008660001916600019168152602001908152602001600020848154811015156114b257fe5b9060005260206000209060090201600701548c60090160008760001916600019168152602001908152602001600020858154811015156114ee57fe5b90600052602060002090600902016006015461452f565b90507fef8dcc2e6089d6cdaf4b9e4488d780383081d593a692f3f2a0a75b1b27be61918433836040518084600019166000191681526020018373ffffffffffffffffffffffffffffffffffffffff1673ffffffffffffffffffffffffffffffffffffffff168152602001828152602001935050505060405180910390a15b600184955095505b505050509550959350505050565b6000806000806000808860405180807f6164644f776e65720000000000000000000000000000000000000000000000008152506008018273ffffffffffffffffffffffffffffffffffffffff1673ffffffffffffffffffffffffffffffffffffffff166c010000000000000000000000000281526014019150506040518091039020935089600901600085600019166000191681526020019081526020016000208054905092503073ffffffffffffffffffffffffffffffffffffffff163373ffffffffffffffffffffffffffffffffffffffff16141515611b135760008973ffffffffffffffffffffffffffffffffffffffff161415151561169b57600080fd5b87151561174f578973cC6809041E55ce4977046a685a3195989049750c63cbf279f79091866000604051602001526040518363ffffffff167c01000000000000000000000000000000000000000000000000000000000281526004018083815260200182600019166000191681526020019250505060206040518083038186803b151561172757600080fd5b6102c65a03f4151561173857600080fd5b505050604051805190509150818495509550611f02565b60008314806117a6575089600901600085600019166000191681526020019081526020016000206001840381548110151561178657fe5b906000526020600020906009020160080160009054906101000a900460ff165b156119845760008a60080160003373ffffffffffffffffffffffffffffffffffffffff1673ffffffffffffffffffffffffffffffffffffffff168152602001908152602001600020541115156117fb57600080fd5b6118528a60080160008b73ffffffffffffffffffffffffffffffffffffffff1673ffffffffffffffffffffffffffffffffffffffff168152602001908152602001600020548b600101805490508c6000015461453c565b915081151561186d5760008080600102905095509550611f02565b8960090160008560001916600019168152602001908152602001600020805480919060010161189c919061489a565b5089600201548a60090160008660001916600019168152602001908152602001600020848154811015156118cc57fe5b90600052602060002090600902016007018190555062015180428115156118ef57fe5b048a600901600086600019166000191681526020019081526020016000208481548110151561191a57fe5b906000526020600020906009020160000181905550896007016000620151804281151561194357fe5b048152602001908152602001600020805480600101828161196491906148cc565b916000526020600020900160008690919091509060001916905550611a4b565b8280600190039350508973cC6809041E55ce4977046a685a3195989049750c639ae196ff909186866000604051602001526040518463ffffffff167c0100000000000000000000000000000000000000000000000000000000028152600401808481526020018360001916600019168152602001828152602001935050505060206040518083038186803b1515611a1a57600080fd5b6102c65a03f41515611a2b57600080fd5b505050604051805190509150811515611a4a5760008495509550611f02565b5b896009016000856000191660001916815260200190815260200160002083815481101515611a7557fe5b90600052602060002090600902016005018054806001018281611a9891906148f8565b916000526020600020900160003373ffffffffffffffffffffffffffffffffffffffff1690919091505550896009016000856000191660001916815260200190815260200160002083815481101515611aed57fe5b906000526020600020906009020160060160008154809291906001019190505550611b1d565b8280600190039350505b896009016000856000191660001916815260200190815260200160002083815481101515611b4757fe5b9060005260206000209060090201600701548a6009016000866000191660001916815260200190815260200160002084815481101515611b8357fe5b9060005260206000209060090201600601541415611d535760018a6009016000866000191660001916815260200190815260200160002084815481101515611bc757fe5b906000526020600020906009020160080160006101000a81548160ff021916908315150217905550896001018054806001018281611c0591906149ec565b916000526020600020900160008b909190916101000a81548173ffffffffffffffffffffffffffffffffffffffff021916908373ffffffffffffffffffffffffffffffffffffffff1602179055505060018a60010180549050038a60080160008b73ffffffffffffffffffffffffffffffffffffffff1673ffffffffffffffffffffffffffffffffffffffff16815260200190815260200160002081905550896009016000856000191660001916815260200190815260200160002083815481101515611cce57fe5b90600052602060002090600902016004016000611ceb9190614924565b7f5345c41500b4b3b852712efe48a8aca66a07e68dafe472cdf152bb1f8cf0dee789604051808273ffffffffffffffffffffffffffffffffffffffff1673ffffffffffffffffffffffffffffffffffffffff16815260200191505060405180910390a1611efa565b60008a6009016000866000191660001916815260200190815260200160002084815481101515611d7f57fe5b90600052602060002090600902016004018054600181600116156101000203166002900490501415611dfc57868a6009016000866000191660001916815260200190815260200160002084815481101515611dd657fe5b90600052602060002090600902016004019080519060200190611dfa92919061496c565b505b611e7c8a6009016000866000191660001916815260200190815260200160002084815481101515611e2957fe5b9060005260206000209060090201600701548b6009016000876000191660001916815260200190815260200160002085815481101515611e6557fe5b90600052602060002090600902016006015461452f565b90507fef8dcc2e6089d6cdaf4b9e4488d780383081d593a692f3f2a0a75b1b27be61918433836040518084600019166000191681526020018373ffffffffffffffffffffffffffffffffffffffff1673ffffffffffffffffffffffffffffffffffffffff168152602001828152602001935050505060405180910390a15b600184955095505b5050505094509492505050565b60008060008060008060008a8a60405180807f6368616e67654f776e6572000000000000000000000000000000000000000000815250600b018373ffffffffffffffffffffffffffffffffffffffff1673ffffffffffffffffffffffffffffffffffffffff166c010000000000000000000000000281526014018273ffffffffffffffffffffffffffffffffffffffff1673ffffffffffffffffffffffffffffffffffffffff166c0100000000000000000000000002815260140192505050604051809103902094508b600901600086600019166000191681526020019081526020016000208054905093503073ffffffffffffffffffffffffffffffffffffffff163373ffffffffffffffffffffffffffffffffffffffff161415156124dd578815156120e4578b73cC6809041E55ce4977046a685a3195989049750c63cbf279f79091876000604051602001526040518363ffffffff167c01000000000000000000000000000000000000000000000000000000000281526004018083815260200182600019166000191681526020019250505060206040518083038186803b15156120bc57600080fd5b6102c65a03f415156120cd57600080fd5b505050604051805190509250828596509650612977565b600084148061213b57508b600901600086600019166000191681526020019081526020016000206001850381548110151561211b57fe5b906000526020600020906009020160080160009054906101000a900460ff165b1561234e5760008c60080160003373ffffffffffffffffffffffffffffffffffffffff1673ffffffffffffffffffffffffffffffffffffffff1681526020019081526020016000205411151561219057600080fd5b61221c8c60080160008d73ffffffffffffffffffffffffffffffffffffffff1673ffffffffffffffffffffffffffffffffffffffff168152602001908152602001600020548d60080160008d73ffffffffffffffffffffffffffffffffffffffff1673ffffffffffffffffffffffffffffffffffffffff16815260200190815260200160002054614650565b92508215156122375760008080600102905096509650612977565b8b600901600086600019166000191681526020019081526020016000208054809190600101612266919061489a565b508b600201548c600901600087600019166000191681526020019081526020016000208581548110151561229657fe5b90600052602060002090600902016007018190555062015180428115156122b957fe5b048c60090160008760001916600019168152602001908152602001600020858154811015156122e457fe5b9060005260206000209060090201600001819055508b6007016000620151804281151561230d57fe5b048152602001908152602001600020805480600101828161232e91906148cc565b916000526020600020900160008790919091509060001916905550612415565b8380600190039450508b73cC6809041E55ce4977046a685a3195989049750c639ae196ff909187876000604051602001526040518463ffffffff167c0100000000000000000000000000000000000000000000000000000000028152600401808481526020018360001916600019168152602001828152602001935050505060206040518083038186803b15156123e457600080fd5b6102c65a03f415156123f557600080fd5b5050506040518051905092508215156124145760008596509650612977565b5b8b600901600086600019166000191681526020019081526020016000208481548110151561243f57fe5b9060005260206000209060090201600501805480600101828161246291906148f8565b916000526020600020900160003373ffffffffffffffffffffffffffffffffffffffff16909190915055508b60090160008660001916600019168152602001908152602001600020848154811015156124b757fe5b9060005260206000209060090201600601600081548092919060010191905055506124e7565b8380600190039450505b8b600901600086600019166000191681526020019081526020016000208481548110151561251157fe5b9060005260206000209060090201600701548c600901600087600019166000191681526020019081526020016000208581548110151561254d57fe5b90600052602060002090600902016006015414156127c85760018c600901600087600019166000191681526020019081526020016000208581548110151561259157fe5b906000526020600020906009020160080160006101000a81548160ff0219169083151502179055508b60080160008c73ffffffffffffffffffffffffffffffffffffffff1673ffffffffffffffffffffffffffffffffffffffff16815260200190815260200160002054915060008c60080160008d73ffffffffffffffffffffffffffffffffffffffff1673ffffffffffffffffffffffffffffffffffffffff16815260200190815260200160002081905550898c6001018381548110151561265657fe5b906000526020600020900160006101000a81548173ffffffffffffffffffffffffffffffffffffffff021916908373ffffffffffffffffffffffffffffffffffffffff160217905550818c60080160008c73ffffffffffffffffffffffffffffffffffffffff1673ffffffffffffffffffffffffffffffffffffffff168152602001908152602001600020819055508b600901600086600019166000191681526020019081526020016000208481548110151561270f57fe5b9060005260206000209060090201600401600061272c9190614924565b7ffcf23a92150d56e85e3a3d33b357493246e55783095eb6a733eb8439ffc752c88b8b604051808373ffffffffffffffffffffffffffffffffffffffff1673ffffffffffffffffffffffffffffffffffffffff1681526020018273ffffffffffffffffffffffffffffffffffffffff1673ffffffffffffffffffffffffffffffffffffffff1681526020019250505060405180910390a161296f565b60008c60090160008760001916600019168152602001908152602001600020858154811015156127f457fe5b9060005260206000209060090201600401805460018160011615610100020316600290049050141561287157878c600901600087600019166000191681526020019081526020016000208581548110151561284b57fe5b9060005260206000209060090201600401908051906020019061286f92919061496c565b505b6128f18c600901600087600019166000191681526020019081526020016000208581548110151561289e57fe5b9060005260206000209060090201600701548d60090160008860001916600019168152602001908152602001600020868154811015156128da57fe5b90600052602060002090600902016006015461452f565b90507fef8dcc2e6089d6cdaf4b9e4488d780383081d593a692f3f2a0a75b1b27be61918533836040518084600019166000191681526020018373ffffffffffffffffffffffffffffffffffffffff1673ffffffffffffffffffffffffffffffffffffffff168152602001828152602001935050505060405180910390a15b600185965096505b50505050509550959350505050565b6000806000806000808860405180807f6368616e6765526571756972656441646d696e000000000000000000000000008152506013018281526020019150506040518091039020935089600901600085600019166000191681526020019081526020016000208054905092503073ffffffffffffffffffffffffffffffffffffffff163373ffffffffffffffffffffffffffffffffffffffff16141515612e5957871515612adb578973cC6809041E55ce4977046a685a3195989049750c63cbf279f79091866000604051602001526040518363ffffffff167c01000000000000000000000000000000000000000000000000000000000281526004018083815260200182600019166000191681526020019250505060206040518083038186803b1515612ab357600080fd5b6102c65a03f41515612ac457600080fd5b505050604051805190509150818495509550613170565b6000831480612b325750896009016000856000191660001916815260200190815260200160002060018403815481101515612b1257fe5b906000526020600020906009020160080160009054906101000a900460ff165b15612cca5760008a60080160003373ffffffffffffffffffffffffffffffffffffffff1673ffffffffffffffffffffffffffffffffffffffff16815260200190815260200160002054111515612b8757600080fd5b612b98898b6001018054905061441d565b9150811515612bb35760008080600102905095509550613170565b89600901600085600019166000191681526020019081526020016000208054809190600101612be2919061489a565b5089600201548a6009016000866000191660001916815260200190815260200160002084815481101515612c1257fe5b9060005260206000209060090201600701819055506201518042811515612c3557fe5b048a6009016000866000191660001916815260200190815260200160002084815481101515612c6057fe5b9060005260206000209060090201600001819055508960070160006201518042811515612c8957fe5b0481526020019081526020016000208054806001018281612caa91906148cc565b916000526020600020900160008690919091509060001916905550612d91565b8280600190039350508973cC6809041E55ce4977046a685a3195989049750c639ae196ff909186866000604051602001526040518463ffffffff167c0100000000000000000000000000000000000000000000000000000000028152600401808481526020018360001916600019168152602001828152602001935050505060206040518083038186803b1515612d6057600080fd5b6102c65a03f41515612d7157600080fd5b505050604051805190509150811515612d905760008495509550613170565b5b896009016000856000191660001916815260200190815260200160002083815481101515612dbb57fe5b90600052602060002090600902016005018054806001018281612dde91906148f8565b916000526020600020900160003373ffffffffffffffffffffffffffffffffffffffff1690919091505550896009016000856000191660001916815260200190815260200160002083815481101515612e3357fe5b906000526020600020906009020160060160008154809291906001019190505550612e63565b8280600190039350505b896009016000856000191660001916815260200190815260200160002083815481101515612e8d57fe5b9060005260206000209060090201600701548a6009016000866000191660001916815260200190815260200160002084815481101515612ec957fe5b9060005260206000209060090201600601541415612fc15760018a6009016000866000191660001916815260200190815260200160002084815481101515612f0d57fe5b906000526020600020906009020160080160006101000a81548160ff021916908315150217905550888a60020181905550896009016000856000191660001916815260200190815260200160002083815481101515612f6857fe5b90600052602060002090600902016004016000612f859190614924565b7f4147060af8b8b6220461c8690de43689af801659131a4b237409cb624c335aec896040518082815260200191505060405180910390a1613168565b60008a6009016000866000191660001916815260200190815260200160002084815481101515612fed57fe5b9060005260206000209060090201600401805460018160011615610100020316600290049050141561306a57868a600901600086600019166000191681526020019081526020016000208481548110151561304457fe5b9060005260206000209060090201600401908051906020019061306892919061496c565b505b6130ea8a600901600086600019166000191681526020019081526020016000208481548110151561309757fe5b9060005260206000209060090201600701548b60090160008760001916600019168152602001908152602001600020858154811015156130d357fe5b90600052602060002090600902016006015461452f565b90507fef8dcc2e6089d6cdaf4b9e4488d780383081d593a692f3f2a0a75b1b27be61918433836040518084600019166000191681526020018373ffffffffffffffffffffffffffffffffffffffff1673ffffffffffffffffffffffffffffffffffffffff168152602001828152602001935050505060405180910390a15b600184955095505b5050505094509492505050565b6000806000806000808860405180807f6368616e676552657175697265644d616a6f72000000000000000000000000008152506013018281526020019150506040518091039020935089600901600085600019166000191681526020019081526020016000208054905092503073ffffffffffffffffffffffffffffffffffffffff163373ffffffffffffffffffffffffffffffffffffffff16141515613650578715156132d2578973cC6809041E55ce4977046a685a3195989049750c63cbf279f79091866000604051602001526040518363ffffffff167c01000000000000000000000000000000000000000000000000000000000281526004018083815260200182600019166000191681526020019250505060206040518083038186803b15156132aa57600080fd5b6102c65a03f415156132bb57600080fd5b505050604051805190509150818495509550613967565b6000831480613329575089600901600085600019166000191681526020019081526020016000206001840381548110151561330957fe5b906000526020600020906009020160080160009054906101000a900460ff165b156134c15760008a60080160003373ffffffffffffffffffffffffffffffffffffffff1673ffffffffffffffffffffffffffffffffffffffff1681526020019081526020016000205411151561337e57600080fd5b61338f898b6001018054905061441d565b91508115156133aa5760008080600102905095509550613967565b896009016000856000191660001916815260200190815260200160002080548091906001016133d9919061489a565b5089600201548a600901600086600019166000191681526020019081526020016000208481548110151561340957fe5b906000526020600020906009020160070181905550620151804281151561342c57fe5b048a600901600086600019166000191681526020019081526020016000208481548110151561345757fe5b906000526020600020906009020160000181905550896007016000620151804281151561348057fe5b04815260200190815260200160002080548060010182816134a191906148cc565b916000526020600020900160008690919091509060001916905550613588565b8280600190039350508973cC6809041E55ce4977046a685a3195989049750c639ae196ff909186866000604051602001526040518463ffffffff167c0100000000000000000000000000000000000000000000000000000000028152600401808481526020018360001916600019168152602001828152602001935050505060206040518083038186803b151561355757600080fd5b6102c65a03f4151561356857600080fd5b5050506040518051905091508115156135875760008495509550613967565b5b8960090160008560001916600019168152602001908152602001600020838154811015156135b257fe5b906000526020600020906009020160050180548060010182816135d591906148f8565b916000526020600020900160003373ffffffffffffffffffffffffffffffffffffffff169091909150555089600901600085600019166000191681526020019081526020016000208381548110151561362a57fe5b90600052602060002090600902016006016000815480929190600101919050555061365a565b8280600190039350505b89600901600085600019166000191681526020019081526020016000208381548110151561368457fe5b9060005260206000209060090201600701548a60090160008660001916600019168152602001908152602001600020848154811015156136c057fe5b90600052602060002090600902016006015414156137b85760018a600901600086600019166000191681526020019081526020016000208481548110151561370457fe5b906000526020600020906009020160080160006101000a81548160ff021916908315150217905550888a6003018190555089600901600085600019166000191681526020019081526020016000208381548110151561375f57fe5b9060005260206000209060090201600401600061377c9190614924565b7f4147060af8b8b6220461c8690de43689af801659131a4b237409cb624c335aec896040518082815260200191505060405180910390a161395f565b60008a60090160008660001916600019168152602001908152602001600020848154811015156137e457fe5b9060005260206000209060090201600401805460018160011615610100020316600290049050141561386157868a600901600086600019166000191681526020019081526020016000208481548110151561383b57fe5b9060005260206000209060090201600401908051906020019061385f92919061496c565b505b6138e18a600901600086600019166000191681526020019081526020016000208481548110151561388e57fe5b9060005260206000209060090201600701548b60090160008760001916600019168152602001908152602001600020858154811015156138ca57fe5b90600052602060002090600902016006015461452f565b90507fef8dcc2e6089d6cdaf4b9e4488d780383081d593a692f3f2a0a75b1b27be61918433836040518084600019166000191681526020018373ffffffffffffffffffffffffffffffffffffffff1673ffffffffffffffffffffffffffffffffffffffff168152602001828152602001935050505060405180910390a15b600184955095505b5050505094509492505050565b6000806000806000808860405180807f72656d6f76654f776e6572000000000000000000000000000000000000000000815250600b018273ffffffffffffffffffffffffffffffffffffffff1673ffffffffffffffffffffffffffffffffffffffff166c010000000000000000000000000281526014019150506040518091039020935089600901600085600019166000191681526020019081526020016000208054905092503073ffffffffffffffffffffffffffffffffffffffff163373ffffffffffffffffffffffffffffffffffffffff16141515613ec857871515613b04578973cC6809041E55ce4977046a685a3195989049750c63cbf279f79091866000604051602001526040518363ffffffff167c01000000000000000000000000000000000000000000000000000000000281526004018083815260200182600019166000191681526020019250505060206040518083038186803b1515613adc57600080fd5b6102c65a03f41515613aed57600080fd5b505050604051805190509150818495509550614410565b6000831480613b5b5750896009016000856000191660001916815260200190815260200160002060018403815481101515613b3b57fe5b906000526020600020906009020160080160009054906101000a900460ff165b15613d395760008a60080160003373ffffffffffffffffffffffffffffffffffffffff1673ffffffffffffffffffffffffffffffffffffffff16815260200190815260200160002054111515613bb057600080fd5b613c078a60080160008b73ffffffffffffffffffffffffffffffffffffffff1673ffffffffffffffffffffffffffffffffffffffff168152602001908152602001600020548b600101805490508c60020154614787565b9150811515613c225760008080600102905095509550614410565b89600901600085600019166000191681526020019081526020016000208054809190600101613c51919061489a565b5089600201548a6009016000866000191660001916815260200190815260200160002084815481101515613c8157fe5b9060005260206000209060090201600701819055506201518042811515613ca457fe5b048a6009016000866000191660001916815260200190815260200160002084815481101515613ccf57fe5b9060005260206000209060090201600001819055508960070160006201518042811515613cf857fe5b0481526020019081526020016000208054806001018281613d1991906148cc565b916000526020600020900160008690919091509060001916905550613e00565b8280600190039350508973cC6809041E55ce4977046a685a3195989049750c639ae196ff909186866000604051602001526040518463ffffffff167c0100000000000000000000000000000000000000000000000000000000028152600401808481526020018360001916600019168152602001828152602001935050505060206040518083038186803b1515613dcf57600080fd5b6102c65a03f41515613de057600080fd5b505050604051805190509150811515613dff5760008495509550614410565b5b896009016000856000191660001916815260200190815260200160002083815481101515613e2a57fe5b90600052602060002090600902016005018054806001018281613e4d91906148f8565b916000526020600020900160003373ffffffffffffffffffffffffffffffffffffffff1690919091505550896009016000856000191660001916815260200190815260200160002083815481101515613ea257fe5b906000526020600020906009020160060160008154809291906001019190505550613ed2565b8280600190039350505b896009016000856000191660001916815260200190815260200160002083815481101515613efc57fe5b9060005260206000209060090201600701548a6009016000866000191660001916815260200190815260200160002084815481101515613f3857fe5b90600052602060002090600902016006015414156142615760018a6009016000866000191660001916815260200190815260200160002084815481101515613f7c57fe5b906000526020600020906009020160080160006101000a81548160ff0219169083151502179055508960010160018b6001018054905003815481101515613fbf57fe5b906000526020600020900160009054906101000a900473ffffffffffffffffffffffffffffffffffffffff168a6001018b60080160008c73ffffffffffffffffffffffffffffffffffffffff1673ffffffffffffffffffffffffffffffffffffffff1681526020019081526020016000205481548110151561403d57fe5b906000526020600020900160006101000a81548173ffffffffffffffffffffffffffffffffffffffff021916908373ffffffffffffffffffffffffffffffffffffffff1602179055508960080160008a73ffffffffffffffffffffffffffffffffffffffff1673ffffffffffffffffffffffffffffffffffffffff168152602001908152602001600020548a60080160008c60010160018e60010180549050038154811015156140e957fe5b906000526020600020900160009054906101000a900473ffffffffffffffffffffffffffffffffffffffff1673ffffffffffffffffffffffffffffffffffffffff1673ffffffffffffffffffffffffffffffffffffffff1681526020019081526020016000208190555060008a60080160008b73ffffffffffffffffffffffffffffffffffffffff1673ffffffffffffffffffffffffffffffffffffffff16815260200190815260200160002081905550896001018054809190600190036141b19190614a18565b508960090160008560001916600019168152602001908152602001600020838154811015156141dc57fe5b906000526020600020906009020160040160006141f99190614924565b7fcced2bb6be71c58ec6a1d84c3426108fe5d99c01bb4003687fb8edf6c147043389604051808273ffffffffffffffffffffffffffffffffffffffff1673ffffffffffffffffffffffffffffffffffffffff16815260200191505060405180910390a1614408565b60008a600901600086600019166000191681526020019081526020016000208481548110151561428d57fe5b9060005260206000209060090201600401805460018160011615610100020316600290049050141561430a57868a60090160008660001916600019168152602001908152602001600020848154811015156142e457fe5b9060005260206000209060090201600401908051906020019061430892919061496c565b505b61438a8a600901600086600019166000191681526020019081526020016000208481548110151561433757fe5b9060005260206000209060090201600701548b600901600087600019166000191681526020019081526020016000208581548110151561437357fe5b90600052602060002090600902016006015461452f565b90507fef8dcc2e6089d6cdaf4b9e4488d780383081d593a692f3f2a0a75b1b27be61918433836040518084600019166000191681526020018373ffffffffffffffffffffffffffffffffffffffff1673ffffffffffffffffffffffffffffffffffffffff168152602001828152602001935050505060405180910390a15b600184955095505b5050505094509492505050565b6000808314156144a0577f8756f3e78da606244d7d8c9563ce2678f294db7c57afce515849e03d5eec6c3a836040518082815260200180602001828103825260108152602001807f43616e742072656475636520746f2030000000000000000000000000000000008152506020019250505060405180910390a160009050614529565b82600283031015614524577f8756f3e78da606244d7d8c9563ce2678f294db7c57afce515849e03d5eec6c3a8260405180828152602001806020018281038252601b8152602001807f4d616b696e6720726571756972656d656e7420746f6f206869676800000000008152506020019250505060405180910390a160009050614529565b600190505b92915050565b6000818303905092915050565b600080841415156145c0577f8756f3e78da606244d7d8c9563ce2678f294db7c57afce515849e03d5eec6c3a846040518082815260200180602001828103825260178152602001807f4e6577206f776e657220616c7265616479206f776e65720000000000000000008152506020019250505060405180910390a160009050614649565b81600184011115614644577f8756f3e78da606244d7d8c9563ce2678f294db7c57afce515849e03d5eec6c3a8360405180828152602001806020018281038252600f8152602001807f546f6f206d616e79206f776e65727300000000000000000000000000000000008152506020019250505060405180910390a160009050614649565b600190505b9392505050565b6000808314156146f9577f8756f3e78da606244d7d8c9563ce2678f294db7c57afce515849e03d5eec6c3a836040518082815260200180602001828103825260238152602001807f4368616e67652066726f6d2061646472657373206973206e6f7420616e206f7781526020017f6e657200000000000000000000000000000000000000000000000000000000008152506040019250505060405180910390a160009050614781565b60008214151561477c577f8756f3e78da606244d7d8c9563ce2678f294db7c57afce515849e03d5eec6c3a8260405180828152602001806020018281038252601d8152602001807f4368616e676520746f206164647265737320697320616e206f776e65720000008152506020019250505060405180910390a160009050614781565b600190505b92915050565b60008084141561480a577f8756f3e78da606244d7d8c9563ce2678f294db7c57afce515849e03d5eec6c3a8460405180828152602001806020018281038252601b8152602001807f4f776e65722072656d6f76696e67206e6f7420616e206f776e657200000000008152506020019250505060405180910390a160009050614893565b8160028403101561488e577f8756f3e78da606244d7d8c9563ce2678f294db7c57afce515849e03d5eec6c3a8460405180828152602001806020018281038252601f8152602001807f4d7573742072656475636520726571756972656441646d696e206669727374008152506020019250505060405180910390a160009050614893565b600190505b9392505050565b8154818355818115116148c7576009028160090283600052602060002091820191016148c69190614a44565b5b505050565b8154818355818115116148f3578183600052602060002091820191016148f29190614ae6565b5b505050565b81548183558181151161491f5781836000526020600020918201910161491e9190614b0b565b5b505050565b50805460018160011615610100020316600290046000825580601f1061494a5750614969565b601f0160209004906000526020600020908101906149689190614b0b565b5b50565b828054600181600116156101000203166002900490600052602060002090601f016020900481019282601f106149ad57805160ff19168380011785556149db565b828001600101855582156149db579182015b828111156149da5782518255916020019190600101906149bf565b5b5090506149e89190614b0b565b5090565b815481835581811511614a1357818360005260206000209182019101614a129190614b0b565b5b505050565b815481835581811511614a3f57818360005260206000209182019101614a3e9190614b0b565b5b505050565b614ae391905b80821115614adf5760008082016000905560018201600090556002820160006101000a81549073ffffffffffffffffffffffffffffffffffffffff02191690556003820160009055600482016000614aa29190614924565b600582016000614ab29190614b30565b600682016000905560078201600090556008820160006101000a81549060ff021916905550600901614a4a565b5090565b90565b614b0891905b80821115614b04576000816000905550600101614aec565b5090565b90565b614b2d91905b80821115614b29576000816000905550600101614b11565b5090565b90565b5080546000825590600052602060002090810190614b4e9190614b0b565b505600a165627a7a723058208cc895d9c492589abbd1203b32134c8982eb5ad3728feab2c01a5574b6d2ebd80029",
  "source": "pragma solidity 0.4.18;\n\n/**\n * @title Wallet Admin Library\n * @author Modular.network\n *\n * version 1.1.0\n * Copyright (c) 2017 Modular, Inc\n * The MIT License (MIT)\n * https://github.com/Modular-Network/ethereum-libraries/blob/master/LICENSE\n *\n * The Wallet Library family is inspired by the multisig wallets built by Consensys\n * at https://github.com/ConsenSys/MultiSigWallet and Parity at\n * https://github.com/paritytech/contracts/blob/master/Wallet.sol with added\n * functionality. Modular works on open source projects in the Ethereum\n * community with the purpose of testing, documenting, and deploying reusable\n * code onto the blockchain to improve security and usability of smart contracts.\n * Modular also strives to educate non-profits, schools, and other community\n * members about the application of blockchain technology. For further\n * information: modular.io, consensys.net, paritytech.io\n *\n * THE SOFTWARE IS PROVIDED \"AS IS\", WITHOUT WARRANTY OF ANY KIND, EXPRESS\n * OR IMPLIED, INCLUDING BUT NOT LIMITED TO THE WARRANTIES OF\n * MERCHANTABILITY, FITNESS FOR A PARTICULAR PURPOSE AND NONINFRINGEMENT.\n * IN NO EVENT SHALL THE AUTHORS OR COPYRIGHT HOLDERS BE LIABLE FOR ANY\n * CLAIM, DAMAGES OR OTHER LIABILITY, WHETHER IN AN ACTION OF CONTRACT,\n * TORT OR OTHERWISE, ARISING FROM, OUT OF OR IN CONNECTION WITH THE\n * SOFTWARE OR THE USE OR OTHER DEALINGS IN THE SOFTWARE.\n */\n\nimport \"./WalletMainLib.sol\";\n\nlibrary WalletAdminLib {\n  using WalletMainLib for WalletMainLib.WalletData;\n\n  /*Events*/\n  event LogTransactionConfirmed(bytes32 txid, address sender, uint256 confirmsNeeded);\n  event LogOwnerAdded(address newOwner);\n  event LogOwnerRemoved(address ownerRemoved);\n  event LogOwnerChanged(address from, address to);\n  event LogRequirementChange(uint256 newRequired);\n  event LogThresholdChange(address token, uint256 newThreshold);\n  event LogErrorMsg(uint256 amount, string msg);\n\n  /*Checks*/\n\n  /// @dev Validates arguments for changeOwner function\n  /// @param _from Index of current owner removing\n  /// @param _to Index of new potential owner, should be 0\n  /// @return Returns true if check passes, false otherwise\n  function checkChangeOwnerArgs(uint256 _from, uint256 _to)\n           private returns (bool)\n  {\n    if(_from == 0){\n      LogErrorMsg(_from, \"Change from address is not an owner\");\n      return false;\n    }\n    if(_to != 0){\n      LogErrorMsg(_to, \"Change to address is an owner\");\n      return false;\n    }\n    return true;\n  }\n\n  /// @dev Validates arguments for addOwner function\n  /// @param _index Index of new owner, should be 0\n  /// @param _length Current length of owner array\n  /// @return Returns true if check passes, false otherwise\n  function checkNewOwnerArgs(uint256 _index, uint256 _length, uint256 _max)\n           private returns (bool)\n  {\n    if(_index != 0){\n      LogErrorMsg(_index, \"New owner already owner\");\n      return false;\n    }\n    if((_length + 1) > _max){\n      LogErrorMsg(_length, \"Too many owners\");\n      return false;\n    }\n    return true;\n  }\n\n  /// @dev Validates arguments for removeOwner function\n  /// @param _index Index of owner removing\n  /// @param _length Current number of owners\n  /// @param _min Minimum owners currently required to meet sig requirements\n  /// @return Returs true if check passes, false otherwise\n  function checkRemoveOwnerArgs(uint256 _index, uint256 _length, uint256 _min)\n           private returns (bool)\n  {\n    if(_index == 0){\n      LogErrorMsg(_index, \"Owner removing not an owner\");\n      return false;\n    }\n    if(_length - 2 < _min) {\n      LogErrorMsg(_index, \"Must reduce requiredAdmin first\");\n      return false;\n    }\n    return true;\n  }\n\n  /// @dev Validates arguments for changing any of the sig requirement parameters\n  /// @param _newRequired The new sig requirement\n  /// @param _length Current number of owners\n  /// @return Returns true if checks pass, false otherwise\n  function checkRequiredChange(uint256 _newRequired, uint256 _length)\n           private returns (bool)\n  {\n    if(_newRequired == 0){\n      LogErrorMsg(_newRequired, \"Cant reduce to 0\");\n      return false;\n    }\n    if(_length - 2 < _newRequired){\n      LogErrorMsg(_length, \"Making requirement too high\");\n      return false;\n    }\n    return true;\n  }\n\n  /*Utility Functions*/\n\n  /// @dev Used later to calculate the number of confirmations needed for tx\n  /// @param _required Number of sigs required\n  /// @param _count Current number of sigs\n  function calcConfirmsNeeded(uint256 _required, uint256 _count) private pure returns (uint256) {\n    return _required - _count;\n  }\n\n  /*Administrative Functions*/\n\n  /// @dev Changes owner address to a new address\n  /// @param self Wallet in contract storage\n  /// @param _from Current owner address\n  /// @param _to New address\n  /// @param _confirm True if confirming, false if revoking confirmation\n  /// @param _data Message data passed from wallet contract\n  /// @return bool Returns true if successful, false otherwise\n  /// @return bytes32 Returns the tx ID, can be used for confirm/revoke functions\n  function changeOwner(WalletMainLib.WalletData storage self,\n                       address _from,\n                       address _to,\n                       bool _confirm,\n                       bytes _data)\n                       public\n                       returns (bool,bytes32)\n  {\n    bytes32 _id = keccak256(\"changeOwner\",_from,_to);\n    uint256 _txIndex = self.transactionInfo[_id].length;\n    bool allGood;\n\n    if(msg.sender != address(this)){\n      if(!_confirm) {\n        allGood = self.revokeConfirm(_id);\n        return (allGood,_id);\n      } else {\n        if(_txIndex == 0 || self.transactionInfo[_id][_txIndex - 1].success){\n          require(self.ownerIndex[msg.sender] > 0);\n          allGood = checkChangeOwnerArgs(self.ownerIndex[_from], self.ownerIndex[_to]);\n          if(!allGood)\n            return (false,0);\n\n          self.transactionInfo[_id].length++;\n          self.transactionInfo[_id][_txIndex].confirmRequired = self.requiredAdmin;\n          self.transactionInfo[_id][_txIndex].day = now / 1 days;\n          self.transactions[now / 1 days].push(_id);\n        } else {\n          _txIndex--;\n          allGood = self.checkNotConfirmed(_id, _txIndex);\n          if(!allGood)\n            return (false,_id);\n        }\n      }\n      self.transactionInfo[_id][_txIndex].confirmedOwners.push(uint256(msg.sender));\n      self.transactionInfo[_id][_txIndex].confirmCount++;\n    } else {\n      _txIndex--;\n    }\n\n    if(self.transactionInfo[_id][_txIndex].confirmCount ==\n       self.transactionInfo[_id][_txIndex].confirmRequired)\n    {\n      self.transactionInfo[_id][_txIndex].success = true;\n      uint256 i = self.ownerIndex[_from];\n      self.ownerIndex[_from] = 0;\n      self.owners[i] = _to;\n      self.ownerIndex[_to] = i;\n      delete self.transactionInfo[_id][_txIndex].data;\n      LogOwnerChanged(_from, _to);\n    } else {\n      if(self.transactionInfo[_id][_txIndex].data.length == 0)\n        self.transactionInfo[_id][_txIndex].data = _data;\n\n      uint256 confirmsNeeded = calcConfirmsNeeded(self.transactionInfo[_id][_txIndex].confirmRequired,\n                                               self.transactionInfo[_id][_txIndex].confirmCount);\n\n      LogTransactionConfirmed(_id, msg.sender, confirmsNeeded);\n    }\n\n    return (true,_id);\n\t}\n\n  /// @dev Adds owner to wallet\n  /// @param self Wallet in contract storage\n  /// @param _newOwner Address for new owner\n  /// @param _confirm True if confirming, false if revoking confirmation\n  /// @param _data Message data passed from wallet contract\n  /// @return bool Returns true if successful, false otherwise\n  /// @return bytes32 Returns the tx ID, can be used for confirm/revoke functions\n  function addOwner(WalletMainLib.WalletData storage self,\n                    address _newOwner,\n                    bool _confirm,\n                    bytes _data)\n                    public\n                    returns (bool,bytes32)\n  {\n    bytes32 _id = keccak256(\"addOwner\",_newOwner);\n    uint256 _txIndex = self.transactionInfo[_id].length;\n    bool allGood;\n\n    if(msg.sender != address(this)){\n      require(_newOwner != 0);\n\n      if(!_confirm) {\n        allGood = self.revokeConfirm(_id);\n        return (allGood,_id);\n      } else {\n        if(_txIndex == 0 || self.transactionInfo[_id][_txIndex - 1].success){\n          require(self.ownerIndex[msg.sender] > 0);\n          allGood = checkNewOwnerArgs(self.ownerIndex[_newOwner],\n                                      self.owners.length,\n                                      self.maxOwners);\n          if(!allGood)\n            return (false,0);\n\n          self.transactionInfo[_id].length++;\n          self.transactionInfo[_id][_txIndex].confirmRequired = self.requiredAdmin;\n          self.transactionInfo[_id][_txIndex].day = now / 1 days;\n          self.transactions[now / 1 days].push(_id);\n        } else {\n          _txIndex--;\n          allGood = self.checkNotConfirmed(_id, _txIndex);\n          if(!allGood)\n            return (false,_id);\n        }\n      }\n\n      self.transactionInfo[_id][_txIndex].confirmedOwners.push(uint256(msg.sender));\n      self.transactionInfo[_id][_txIndex].confirmCount++;\n    } else {\n      _txIndex--;\n    }\n\n    if(self.transactionInfo[_id][_txIndex].confirmCount ==\n       self.transactionInfo[_id][_txIndex].confirmRequired)\n    {\n      self.transactionInfo[_id][_txIndex].success = true;\n      self.owners.push(_newOwner);\n      self.ownerIndex[_newOwner] = self.owners.length - 1;\n      delete self.transactionInfo[_id][_txIndex].data;\n      LogOwnerAdded(_newOwner);\n    } else {\n      if(self.transactionInfo[_id][_txIndex].data.length == 0)\n        self.transactionInfo[_id][_txIndex].data = _data;\n\n      uint256 confirmsNeeded = calcConfirmsNeeded(self.transactionInfo[_id][_txIndex].confirmRequired,\n                                               self.transactionInfo[_id][_txIndex].confirmCount);\n      LogTransactionConfirmed(_id, msg.sender, confirmsNeeded);\n    }\n\n    return (true,_id);\n\t}\n\n  /// @dev Removes owner from wallet\n  /// @param self Wallet in contract storage\n  /// @param _ownerRemoving Address of owner to be removed\n  /// @param _confirm True if confirming, false if revoking confirmation\n  /// @param _data Message data passed from wallet contract\n  /// @return bool Returns true if successful, false otherwise\n  /// @return bytes32 Returns the tx ID, can be used for confirm/revoke functions\n  function removeOwner(WalletMainLib.WalletData storage self,\n                       address _ownerRemoving,\n                       bool _confirm,\n                       bytes _data)\n                       public\n                       returns (bool,bytes32)\n  {\n    bytes32 _id = keccak256(\"removeOwner\",_ownerRemoving);\n    uint256 _txIndex = self.transactionInfo[_id].length;\n    bool allGood;\n\n    if(msg.sender != address(this)){\n      if(!_confirm) {\n        allGood = self.revokeConfirm(_id);\n        return (allGood,_id);\n      } else {\n        if(_txIndex == 0 || self.transactionInfo[_id][_txIndex - 1].success){\n          require(self.ownerIndex[msg.sender] > 0);\n          allGood = checkRemoveOwnerArgs(self.ownerIndex[_ownerRemoving],\n                                         self.owners.length,\n                                         self.requiredAdmin);\n          if(!allGood)\n            return (false,0);\n\n          self.transactionInfo[_id].length++;\n          self.transactionInfo[_id][_txIndex].confirmRequired = self.requiredAdmin;\n          self.transactionInfo[_id][_txIndex].day = now / 1 days;\n          self.transactions[now / 1 days].push(_id);\n        } else {\n          _txIndex--;\n          allGood = self.checkNotConfirmed(_id, _txIndex);\n          if(!allGood)\n            return (false,_id);\n        }\n      }\n\n      self.transactionInfo[_id][_txIndex].confirmedOwners.push(uint256(msg.sender));\n      self.transactionInfo[_id][_txIndex].confirmCount++;\n    } else {\n      _txIndex--;\n    }\n\n    if(self.transactionInfo[_id][_txIndex].confirmCount ==\n       self.transactionInfo[_id][_txIndex].confirmRequired)\n    {\n      self.transactionInfo[_id][_txIndex].success = true;\n      self.owners[self.ownerIndex[_ownerRemoving]] = self.owners[self.owners.length - 1];\n      self.ownerIndex[self.owners[self.owners.length - 1]] = self.ownerIndex[_ownerRemoving];\n      self.ownerIndex[_ownerRemoving] = 0;\n      self.owners.length--;\n      delete self.transactionInfo[_id][_txIndex].data;\n      LogOwnerRemoved(_ownerRemoving);\n    } else {\n      if(self.transactionInfo[_id][_txIndex].data.length == 0)\n        self.transactionInfo[_id][_txIndex].data = _data;\n\n      uint256 confirmsNeeded = calcConfirmsNeeded(self.transactionInfo[_id][_txIndex].confirmRequired,\n                                               self.transactionInfo[_id][_txIndex].confirmCount);\n      LogTransactionConfirmed(_id, msg.sender, confirmsNeeded);\n    }\n\n    return (true,_id);\n\t}\n\n  /// @dev Changes required sigs to change wallet parameters\n  /// @param self Wallet in contract storage\n  /// @param _requiredAdmin The new signature requirement\n  /// @param _confirm True if confirming, false if revoking confirmation\n  /// @param _data Message data passed from wallet contract\n  /// @return bool Returns true if successful, false otherwise\n  /// @return bytes32 Returns the tx ID, can be used for confirm/revoke functions\n  function changeRequiredAdmin(WalletMainLib.WalletData storage self,\n                               uint256 _requiredAdmin,\n                               bool _confirm,\n                               bytes _data)\n                               public\n                               returns (bool,bytes32)\n  {\n    bytes32 _id = keccak256(\"changeRequiredAdmin\",_requiredAdmin);\n    uint256 _txIndex = self.transactionInfo[_id].length;\n\n    if(msg.sender != address(this)){\n      bool allGood;\n\n      if(!_confirm) {\n        allGood = self.revokeConfirm(_id);\n        return (allGood,_id);\n      } else {\n        if(_txIndex == 0 || self.transactionInfo[_id][_txIndex - 1].success){\n          require(self.ownerIndex[msg.sender] > 0);\n          allGood = checkRequiredChange(_requiredAdmin, self.owners.length);\n          if(!allGood)\n            return (false,0);\n\n          self.transactionInfo[_id].length++;\n          self.transactionInfo[_id][_txIndex].confirmRequired = self.requiredAdmin;\n          self.transactionInfo[_id][_txIndex].day = now / 1 days;\n          self.transactions[now / 1 days].push(_id);\n        } else {\n          _txIndex--;\n          allGood = self.checkNotConfirmed(_id, _txIndex);\n          if(!allGood)\n            return (false,_id);\n        }\n      }\n\n      self.transactionInfo[_id][_txIndex].confirmedOwners.push(uint256(msg.sender));\n      self.transactionInfo[_id][_txIndex].confirmCount++;\n    } else {\n      _txIndex--;\n    }\n\n    if(self.transactionInfo[_id][_txIndex].confirmCount ==\n      self.transactionInfo[_id][_txIndex].confirmRequired)\n    {\n      self.transactionInfo[_id][_txIndex].success = true;\n      self.requiredAdmin = _requiredAdmin;\n      delete self.transactionInfo[_id][_txIndex].data;\n      LogRequirementChange(_requiredAdmin);\n    } else {\n      if(self.transactionInfo[_id][_txIndex].data.length == 0)\n        self.transactionInfo[_id][_txIndex].data = _data;\n\n      uint256 confirmsNeeded = calcConfirmsNeeded(self.transactionInfo[_id][_txIndex].confirmRequired,\n                                               self.transactionInfo[_id][_txIndex].confirmCount);\n      LogTransactionConfirmed(_id, msg.sender, confirmsNeeded);\n    }\n\n    return (true,_id);\n\t}\n\n  /// @dev Changes required sigs for major transactions\n  /// @param self Wallet in contract storage\n  /// @param _requiredMajor The new signature requirement\n  /// @param _confirm True if confirming, false if revoking confirmation\n  /// @param _data Message data passed from wallet contract\n  /// @return bool Returns true if successful, false otherwise\n  /// @return bytes32 Returns the tx ID, can be used for confirm/revoke functions\n  function changeRequiredMajor(WalletMainLib.WalletData storage self,\n                               uint256 _requiredMajor,\n                               bool _confirm,\n                               bytes _data)\n                               public\n                               returns (bool,bytes32)\n  {\n    bytes32 _id = keccak256(\"changeRequiredMajor\",_requiredMajor);\n    uint256 _txIndex = self.transactionInfo[_id].length;\n\n    if(msg.sender != address(this)){\n      bool allGood;\n\n      if(!_confirm) {\n        allGood = self.revokeConfirm(_id);\n        return (allGood,_id);\n      } else {\n        if(_txIndex == 0 || self.transactionInfo[_id][_txIndex - 1].success){\n          require(self.ownerIndex[msg.sender] > 0);\n          allGood = checkRequiredChange(_requiredMajor, self.owners.length);\n          if(!allGood)\n            return (false,0);\n\n          self.transactionInfo[_id].length++;\n          self.transactionInfo[_id][_txIndex].confirmRequired = self.requiredAdmin;\n          self.transactionInfo[_id][_txIndex].day = now / 1 days;\n          self.transactions[now / 1 days].push(_id);\n        } else {\n          _txIndex--;\n          allGood = self.checkNotConfirmed(_id, _txIndex);\n          if(!allGood)\n            return (false,_id);\n        }\n      }\n\n      self.transactionInfo[_id][_txIndex].confirmedOwners.push(uint256(msg.sender));\n      self.transactionInfo[_id][_txIndex].confirmCount++;\n    } else {\n      _txIndex--;\n    }\n\n    if(self.transactionInfo[_id][_txIndex].confirmCount ==\n       self.transactionInfo[_id][_txIndex].confirmRequired)\n    {\n      self.transactionInfo[_id][_txIndex].success = true;\n      self.requiredMajor = _requiredMajor;\n      delete self.transactionInfo[_id][_txIndex].data;\n      LogRequirementChange(_requiredMajor);\n    } else {\n      if(self.transactionInfo[_id][_txIndex].data.length == 0)\n        self.transactionInfo[_id][_txIndex].data = _data;\n\n      uint256 confirmsNeeded = calcConfirmsNeeded(self.transactionInfo[_id][_txIndex].confirmRequired,\n                                               self.transactionInfo[_id][_txIndex].confirmCount);\n      LogTransactionConfirmed(_id, msg.sender, confirmsNeeded);\n    }\n\n    return (true,_id);\n\t}\n\n  /// @dev Changes required sigs for minor transactions\n  /// @param self Wallet in contract storage\n  /// @param _requiredMinor The new signature requirement\n  /// @param _confirm True if confirming, false if revoking confirmation\n  /// @param _data Message data passed from wallet contract\n  /// @return bool Returns true if successful, false otherwise\n  /// @return bytes32 Returns the tx ID, can be used for confirm/revoke functions\n  function changeRequiredMinor(WalletMainLib.WalletData storage self,\n                               uint256 _requiredMinor,\n                               bool _confirm,\n                               bytes _data)\n                               public\n                               returns (bool,bytes32)\n  {\n    bytes32 _id = keccak256(\"changeRequiredMinor\",_requiredMinor);\n    uint256 _txIndex = self.transactionInfo[_id].length;\n\n    if(msg.sender != address(this)){\n      bool allGood;\n\n      if(!_confirm) {\n        allGood = self.revokeConfirm(_id);\n        return (allGood,_id);\n      } else {\n        if(_txIndex == 0 || self.transactionInfo[_id][_txIndex - 1].success){\n          require(self.ownerIndex[msg.sender] > 0);\n          allGood = checkRequiredChange(_requiredMinor, self.owners.length);\n          if(!allGood)\n            return (false,0);\n\n          self.transactionInfo[_id].length++;\n          self.transactionInfo[_id][_txIndex].confirmRequired = self.requiredAdmin;\n          self.transactionInfo[_id][_txIndex].day = now / 1 days;\n          self.transactions[now / 1 days].push(_id);\n        } else {\n          _txIndex--;\n          allGood = self.checkNotConfirmed(_id, _txIndex);\n          if(!allGood)\n            return (false,_id);\n        }\n      }\n\n      self.transactionInfo[_id][_txIndex].confirmedOwners.push(uint256(msg.sender));\n      self.transactionInfo[_id][_txIndex].confirmCount++;\n    } else {\n      _txIndex--;\n    }\n\n    if(self.transactionInfo[_id][_txIndex].confirmCount ==\n       self.transactionInfo[_id][_txIndex].confirmRequired)\n    {\n      self.transactionInfo[_id][_txIndex].success = true;\n      self.requiredMinor = _requiredMinor;\n      delete self.transactionInfo[_id][_txIndex].data;\n      LogRequirementChange(_requiredMinor);\n    } else {\n      if(self.transactionInfo[_id][_txIndex].data.length == 0)\n        self.transactionInfo[_id][_txIndex].data = _data;\n\n      uint256 confirmsNeeded = calcConfirmsNeeded(self.transactionInfo[_id][_txIndex].confirmRequired,\n                                               self.transactionInfo[_id][_txIndex].confirmCount);\n      LogTransactionConfirmed(_id, msg.sender, confirmsNeeded);\n    }\n\n    return (true,_id);\n\t}\n\n  /// @dev Changes threshold for major transaction day spend per token\n  /// @param self Wallet in contract storage\n  /// @param _token Address of token, ether is 0\n  /// @param _majorThreshold New threshold\n  /// @param _confirm True if confirming, false if revoking confirmation\n  /// @param _data Message data passed from wallet contract\n  /// @return bool Returns true if successful, false otherwise\n  /// @return bytes32 Returns the tx ID, can be used for confirm/revoke functions\n  function changeMajorThreshold(WalletMainLib.WalletData storage self,\n                                address _token,\n                                uint256 _majorThreshold,\n                                bool _confirm,\n                                bytes _data)\n                                public\n                                returns (bool,bytes32)\n  {\n    bytes32 _id = keccak256(\"changeMajorThreshold\", _token, _majorThreshold);\n    uint256 _txIndex = self.transactionInfo[_id].length;\n\n    if(msg.sender != address(this)){\n      bool allGood;\n\n      if(!_confirm) {\n        allGood = self.revokeConfirm(_id);\n        return (allGood,_id);\n      } else {\n        if(_txIndex == 0 || self.transactionInfo[_id][_txIndex - 1].success){\n          require(self.ownerIndex[msg.sender] > 0);\n\n          self.transactionInfo[_id].length++;\n          self.transactionInfo[_id][_txIndex].confirmRequired = self.requiredAdmin;\n          self.transactionInfo[_id][_txIndex].day = now / 1 days;\n          self.transactions[now / 1 days].push(_id);\n        } else {\n          _txIndex--;\n          allGood = self.checkNotConfirmed(_id, _txIndex);\n          if(!allGood)\n            return (false,_id);\n        }\n      }\n\n      self.transactionInfo[_id][_txIndex].confirmedOwners.push(uint256(msg.sender));\n      self.transactionInfo[_id][_txIndex].confirmCount++;\n    } else {\n      _txIndex--;\n    }\n\n    if(self.transactionInfo[_id][_txIndex].confirmCount ==\n       self.transactionInfo[_id][_txIndex].confirmRequired)\n    {\n      self.transactionInfo[_id][_txIndex].success = true;\n      self.majorThreshold[_token] = _majorThreshold;\n      delete self.transactionInfo[_id][_txIndex].data;\n      LogThresholdChange(_token, _majorThreshold);\n    } else {\n      if(self.transactionInfo[_id][_txIndex].data.length == 0)\n        self.transactionInfo[_id][_txIndex].data = _data;\n\n      uint256 confirmsNeeded = calcConfirmsNeeded(self.transactionInfo[_id][_txIndex].confirmRequired,\n                                               self.transactionInfo[_id][_txIndex].confirmCount);\n      LogTransactionConfirmed(_id, msg.sender, confirmsNeeded);\n    }\n\n    return (true,_id);\n\t}\n}\n",
  "sourcePath": "/Users/hackdom/Projects/ethereum-libraries/WalletLib/truffle/contracts/WalletAdminLib.sol",
  "compiler": {
    "name": "solc",
    "version": "0.4.18+commit.9cf6e910.Emscripten.clang"
  },
  "schemaVersion": "1.0.1",
  "updatedAt": "2017-12-12T05:23:10.439Z"
}