{
  "contractName": "Array32Lib",
  "abi": [
    {
      "constant": true,
      "inputs": [
        {
          "name": "self",
          "type": "uint32[] storage"
        }
      ],
      "name": "getMax",
      "outputs": [
        {
          "name": "maxValue",
          "type": "uint32"
        }
      ],
      "payable": false,
      "stateMutability": "view",
      "type": "function"
    },
    {
      "constant": true,
      "inputs": [
        {
          "name": "self",
          "type": "uint32[] storage"
        }
      ],
      "name": "sumElements",
      "outputs": [
        {
          "name": "sum",
          "type": "uint256"
        }
      ],
      "payable": false,
      "stateMutability": "view",
      "type": "function"
    },
    {
      "constant": false,
      "inputs": [
        {
          "name": "self",
          "type": "uint32[] storage"
        }
      ],
      "name": "heapSort",
      "outputs": [],
      "payable": false,
      "stateMutability": "nonpayable",
      "type": "function"
    },
    {
      "constant": false,
      "inputs": [
        {
          "name": "self",
          "type": "uint32[] storage"
        }
      ],
      "name": "uniq",
      "outputs": [
        {
          "name": "length",
          "type": "uint256"
        }
      ],
      "payable": false,
      "stateMutability": "nonpayable",
      "type": "function"
    },
    {
      "constant": true,
      "inputs": [
        {
          "name": "self",
          "type": "uint32[] storage"
        }
      ],
      "name": "getMin",
      "outputs": [
        {
          "name": "minValue",
          "type": "uint32"
        }
      ],
      "payable": false,
      "stateMutability": "view",
      "type": "function"
    },
    {
      "constant": true,
      "inputs": [
        {
          "name": "self",
          "type": "uint32[] storage"
        },
        {
          "name": "value",
          "type": "uint32"
        },
        {
          "name": "isSorted",
          "type": "bool"
        }
      ],
      "name": "indexOf",
      "outputs": [
        {
          "name": "found",
          "type": "bool"
        },
        {
          "name": "index",
          "type": "uint256"
        }
      ],
      "payable": false,
      "stateMutability": "view",
      "type": "function"
    }
  ],
  "bytecode": "0x6060604052341561000f57600080fd5b610cd68061001e6000396000f300606060405260043610610078576000357c0100000000000000000000000000000000000000000000000000000000900463ffffffff1680631b0c09fa1461007d57806328d9634f146100b557806331bec01f146100e15780636f77715a146100f95780639a07db0214610125578063f2f4ae811461015d575b600080fd5b61009360048080359060200190919050506101ae565b604051808263ffffffff1663ffffffff16815260200191505060405180910390f35b6100cb600480803590602001909190505061022c565b6040518082815260200191505060405180910390f35b6100f76004808035906020019091905050610296565b005b61010f6004808035906020019091905050610879565b6040518082815260200191505060405180910390f35b61013b60048080359060200190919050506109f1565b604051808263ffffffff1663ffffffff16815260200191505060405180910390f35b61018d600480803590602001909190803563ffffffff169060200190919080351515906020019091905050610a81565b60405180831515151581526020018281526020019250505060405180910390f35b6000806000836060526000925060005b8454811015610224576008810460206060200154925060088106915060005b828110156101fa57640100000000840493506001810190506101dd565b508263ffffffff1692508284106001811461021457610218565b8394505b506001810190506101be565b505050919050565b60008060008360605260005b845481101561028e576008810460206060200154925060088106915060005b828110156102745764010000000084049350600181019050610257565b508263ffffffff1692508383019350600181019050610238565b505050919050565b600080600080600080600080888054905014156102b25761086f565b600188805490500396506102c587610c18565b95508594505b60008610151561052b578594506102e186610c36565b93505b868411151561051257600184019250849150878481548110151561030457fe5b90600052602060002090600891828204019190066004029054906101000a900463ffffffff1663ffffffff16888381548110151561033e57fe5b90600052602060002090600891828204019190066004029054906101000a900463ffffffff1663ffffffff161015610374578391505b8683111580156103f55750878381548110151561038d57fe5b90600052602060002090600891828204019190066004029054906101000a900463ffffffff1663ffffffff1688838154811015156103c757fe5b90600052602060002090600891828204019190066004029054906101000a900463ffffffff1663ffffffff16105b156103fe578291505b848214156104115760018701935061050d565b878281548110151561041f57fe5b90600052602060002090600891828204019190066004029054906101000a900463ffffffff169050878581548110151561045557fe5b90600052602060002090600891828204019190066004029054906101000a900463ffffffff16888381548110151561048957fe5b90600052602060002090600891828204019190066004026101000a81548163ffffffff021916908363ffffffff1602179055508088868154811015156104cb57fe5b90600052602060002090600891828204019190066004026101000a81548163ffffffff021916908363ffffffff16021790555081945061050a85610c36565b93505b6102e4565b60008614156105205761052b565b6001860395506102cb565b5b600087111561086e57878781548110151561054357fe5b90600052602060002090600891828204019190066004029054906101000a900463ffffffff16905087600081548110151561057a57fe5b90600052602060002090600891828204019190066004029054906101000a900463ffffffff1688888154811015156105ae57fe5b90600052602060002090600891828204019190066004026101000a81548163ffffffff021916908363ffffffff160217905550808860008154811015156105f157fe5b90600052602060002090600891828204019190066004026101000a81548163ffffffff021916908363ffffffff160217905550600187039650600094506106386000610c36565b93505b868411151561086957600184019250849150878481548110151561065b57fe5b90600052602060002090600891828204019190066004029054906101000a900463ffffffff1663ffffffff16888381548110151561069557fe5b90600052602060002090600891828204019190066004029054906101000a900463ffffffff1663ffffffff1610156106cb578391505b86831115801561074c575087838154811015156106e457fe5b90600052602060002090600891828204019190066004029054906101000a900463ffffffff1663ffffffff16888381548110151561071e57fe5b90600052602060002090600891828204019190066004029054906101000a900463ffffffff1663ffffffff16105b15610755578291505b8482141561076857600187019350610864565b878281548110151561077657fe5b90600052602060002090600891828204019190066004029054906101000a900463ffffffff16905087858154811015156107ac57fe5b90600052602060002090600891828204019190066004029054906101000a900463ffffffff1688838154811015156107e057fe5b90600052602060002090600891828204019190066004026101000a81548163ffffffff021916908363ffffffff16021790555080888681548110151561082257fe5b90600052602060002090600891828204019190066004026101000a81548163ffffffff021916908363ffffffff16021790555081945061086185610c36565b93505b61063b565b61052c565b5b5050505050505050565b60008060008060008091505b85805490508210156109e1576108d08687848154811015156108a357fe5b90600052602060002090600891828204019190066004029054906101000a900463ffffffff166000610a81565b8094508195505050828211156109d4578190505b600186805490500381101561097857856001820181548110151561090457fe5b90600052602060002090600891828204019190066004029054906101000a900463ffffffff16868281548110151561093857fe5b90600052602060002090600891828204019190066004026101000a81548163ffffffff021916908363ffffffff16021790555080806001019150506108e4565b85600187805490500381548110151561098d57fe5b90600052602060002090600891828204019190066004026101000a81549063ffffffff0219169055858054809190600190036109c99190610c4b565b508180600190039250505b8180600101925050610885565b8580549050945050505050919050565b60008060008360605260005b8454811015610a79576008810460206060200154925060088106915060005b82811015610a395764010000000084049350600181019050610a1c565b508263ffffffff1692506000811460018114610a5457610a58565b8394505b5082841160018114610a6957610a6d565b8394505b506001810190506109fd565b505050919050565b600080600080600080600089805490501415610aa65760008080905095509550610c0c565b8615610b96576001898054905003935060009250600091505b8382111515610b91576002848301811515610ad657fe5b0492508763ffffffff168984815481101515610aee57fe5b90600052602060002090600891828204019190066004029054906101000a900463ffffffff1663ffffffff161415610b325760019550829450600184019150610b8c565b8763ffffffff168984815481101515610b4757fe5b90600052602060002090600891828204019190066004029054906101000a900463ffffffff1663ffffffff161015610b8457600183019150610b8b565b6001830393505b5b610abf565b610c0b565b600090505b8880549050811015610c0a578763ffffffff168982815481101515610bbc57fe5b90600052602060002090600891828204019190066004029054906101000a900463ffffffff1663ffffffff161415610bfd5760019550809450888054905090505b8080600101915050610b9b565b5b5b50505050935093915050565b600080600183039050600281811515610c2d57fe5b04915050919050565b60008060028302905060018101915050919050565b815481835581811511610c80576007016008900481600701600890048360005260206000209182019101610c7f9190610c85565b5b505050565b610ca791905b80821115610ca3576000816000905550600101610c8b565b5090565b905600a165627a7a72305820a64f0bde60a3e2894ea190f80ed8925d81c13079e44aded2f9eeb00b89af947f0029",
  "source": "pragma solidity ^0.4.18;\n\n/**\n * @title Array32 Library\n * @author Modular Inc, https://modular.network\n *\n * version 1.1.0\n * Copyright (c) 2017 Modular, Inc\n * The MIT License (MIT)\n * https://github.com/Modular-Network/ethereum-libraries/blob/master/LICENSE\n *\n * The Array32 Library provides a few utility functions to work with\n * storage uint32[] types in place. Modular provides smart contract services\n * and security reviews for contract deployments in addition to working on open\n * source projects in the Ethereum community. Our purpose is to test, document,\n * and deploy reusable code onto the blockchain and improve both security and\n * usability. We also educate non-profits, schools, and other community members\n * about the application of blockchain technology.\n * For further information: modular.network\n *\n * THE SOFTWARE IS PROVIDED \"AS IS\", WITHOUT WARRANTY OF ANY KIND, EXPRESS\n * OR IMPLIED, INCLUDING BUT NOT LIMITED TO THE WARRANTIES OF\n * MERCHANTABILITY, FITNESS FOR A PARTICULAR PURPOSE AND NONINFRINGEMENT.\n * IN NO EVENT SHALL THE AUTHORS OR COPYRIGHT HOLDERS BE LIABLE FOR ANY\n * CLAIM, DAMAGES OR OTHER LIABILITY, WHETHER IN AN ACTION OF CONTRACT,\n * TORT OR OTHERWISE, ARISING FROM, OUT OF OR IN CONNECTION WITH THE\n * SOFTWARE OR THE USE OR OTHER DEALINGS IN THE SOFTWARE.\n */\n\nlibrary Array32Lib {\n\n  /// @dev Sum vector\n  /// @param self Storage array containing uint256 type variables\n  /// @return sum The sum of all elements, does not check for overflow\n  function sumElements(uint32[] storage self) public view returns(uint256 sum) {\n    uint256 term;\n    uint8 remainder;\n\n    assembly {\n      mstore(0x60,self_slot)\n\n      for { let i := 0 } lt(i, sload(self_slot)) { i := add(i, 1) } {\n        term := sload(add(sha3(0x60,0x20),div(i,8)))\n\n        remainder := mod(i,8)\n\n        for { let j := 0 } lt(j, remainder) { j := add(j, 1) } {\n          term := div(term,4294967296)\n        }\n\n        term := and(0x00000000000000000000000000000000000000000000000000000000ffffffff,term)\n        sum := add(term,sum)\n\n      }\n    }\n  }\n\n  /// @dev Returns the max value in an array.\n  /// @param self Storage array containing uint256 type variables\n  /// @return maxValue The highest value in the array\n  function getMax(uint32[] storage self) public view returns(uint32 maxValue) {\n    uint256 term;\n    uint8 remainder;\n\n    assembly {\n      mstore(0x60,self_slot)\n      maxValue := 0\n\n      for { let i := 0 } lt(i, sload(self_slot)) { i := add(i, 1) } {\n        term := sload(add(sha3(0x60,0x20),div(i,8)))\n\n        remainder := mod(i,8)\n\n        for { let j := 0 } lt(j, remainder) { j := add(j, 1) } {\n          term := div(term,4294967296)\n        }\n\n        term := and(0x00000000000000000000000000000000000000000000000000000000ffffffff,term)\n        switch lt(maxValue, term)\n        case 1 {\n          maxValue := term\n        }\n      }\n    }\n  }\n\n  /// @dev Returns the minimum value in an array.\n  /// @param self Storage array containing uint256 type variables\n  /// @return minValue The highest value in the array\n  function getMin(uint32[] storage self) public view returns(uint32 minValue) {\n    uint256 term;\n    uint8 remainder;\n\n    assembly {\n      mstore(0x60,self_slot)\n\n      for { let i := 0 } lt(i, sload(self_slot)) { i := add(i, 1) } {\n        term := sload(add(sha3(0x60,0x20),div(i,8)))\n\n        remainder := mod(i,8)\n\n        for { let j := 0 } lt(j, remainder) { j := add(j, 1) } {\n          term := div(term,4294967296)\n        }\n\n        term := and(0x00000000000000000000000000000000000000000000000000000000ffffffff,term)\n\n        switch eq(i,0)\n        case 1 {\n          minValue := term\n        }\n        switch gt(minValue, term)\n        case 1 {\n          minValue := term\n        }\n      }\n    }\n  }\n\n  /// @dev Finds the index of a given value in an array\n  /// @param self Storage array containing uint256 type variables\n  /// @param value The value to search for\n  /// @param isSorted True if the array is sorted, false otherwise\n  /// @return found True if the value was found, false otherwise\n  /// @return index The index of the given value, returns 0 if found is false\n  function indexOf(uint32[] storage self, uint32 value, bool isSorted)\n           public\n           view\n           returns(bool found, uint256 index) {\n    if (self.length == 0) {\n        return (false, 0);\n    }\n    if (isSorted) {\n        uint256 high = self.length - 1;\n        uint256 mid = 0;\n        uint256 low = 0;\n        while (low <= high) {\n          mid = (low+high)/2;\n          if (self[mid] == value) {\n            found = true;\n            index = mid;\n            low = high + 1;\n          } else if (self[mid] < value) {\n            low = mid + 1;\n          } else {\n            high = mid - 1;\n          }\n        }\n    } else {\n      for (uint256 i = 0; i<self.length; i++) {\n        if (self[i] == value) {\n          found = true;\n          index = i;\n          i = self.length;\n        }\n      }\n    }\n  }\n\n  /// @dev Utility function for heapSort\n  /// @param index The index of child node\n  /// @return pI The parent node index\n  function getParentI(uint256 index) private pure returns (uint256 pI) {\n    uint256 i = index - 1;\n    pI = i/2;\n  }\n\n  /// @dev Utility function for heapSort\n  /// @param index The index of parent node\n  /// @return lcI The index of left child\n  function getLeftChildI(uint256 index) private pure returns (uint256 lcI) {\n    uint256 i = index * 2;\n    lcI = i + 1;\n  }\n\n  /// @dev Sorts given array in place\n  /// @param self Storage array containing uint256 type variables\n  function heapSort(uint32[] storage self) public {\n    if (self.length == 0) {\n        return;\n    }\n    uint256 end = self.length - 1;\n    uint256 start = getParentI(end);\n    uint256 root = start;\n    uint256 lChild;\n    uint256 rChild;\n    uint256 swap;\n    uint32 temp;\n    while(start >= 0){\n      root = start;\n      lChild = getLeftChildI(start);\n      while(lChild <= end){\n        rChild = lChild + 1;\n        swap = root;\n        if(self[swap] < self[lChild])\n          swap = lChild;\n        if((rChild <= end) && (self[swap]<self[rChild]))\n          swap = rChild;\n        if(swap == root)\n          lChild = end+1;\n        else {\n          temp = self[swap];\n          self[swap] = self[root];\n          self[root] = temp;\n          root = swap;\n          lChild = getLeftChildI(root);\n        }\n      }\n      if(start == 0)\n        break;\n      else\n        start = start - 1;\n    }\n    while(end > 0){\n      temp = self[end];\n      self[end] = self[0];\n      self[0] = temp;\n      end = end - 1;\n      root = 0;\n      lChild = getLeftChildI(0);\n      while(lChild <= end){\n        rChild = lChild + 1;\n        swap = root;\n        if(self[swap] < self[lChild])\n          swap = lChild;\n        if((rChild <= end) && (self[swap]<self[rChild]))\n          swap = rChild;\n        if(swap == root)\n          lChild = end + 1;\n        else {\n          temp = self[swap];\n          self[swap] = self[root];\n          self[root] = temp;\n          root = swap;\n          lChild = getLeftChildI(root);\n        }\n      }\n    }\n  }\n\n  /// @dev Removes duplicates from a given array.\n  /// @param self Storage array containing uint256 type variables\n  function uniq(uint32[] storage self) public returns (uint256 length) {\n    bool contains;\n    uint256 index;\n\n    for (uint256 i = 0; i < self.length; i++) {\n      (contains, index) = indexOf(self, self[i], false);\n\n      if (i > index) {\n        for (uint256 j = i; j < self.length - 1; j++){\n          self[j] = self[j + 1];\n        }\n\n        delete self[self.length - 1];\n        self.length--;\n        i--;\n      }\n    }\n\n    length = self.length;\n  }\n}\n",
  "sourcePath": "/Users/joshuahannan/repository/modular/ethereum-libraries/ArrayUtilsLib/truffle/contracts/Array32Lib.sol",
  "compiler": {
    "name": "solc",
    "version": "0.4.18+commit.9cf6e910.Emscripten.clang"
  },
  "schemaVersion": "1.0.1",
  "updatedAt": "2018-02-14T17:47:39.163Z"
}