{
  "contractName": "Array64Lib",
  "abi": [
    {
      "constant": false,
      "inputs": [
        {
          "name": "self",
          "type": "uint64[] storage"
        }
      ],
      "name": "heapSort",
      "outputs": [],
      "payable": false,
      "stateMutability": "nonpayable",
      "type": "function"
    },
    {
      "constant": true,
      "inputs": [
        {
          "name": "self",
          "type": "uint64[] storage"
        }
      ],
      "name": "getMax",
      "outputs": [
        {
          "name": "maxValue",
          "type": "uint64"
        }
      ],
      "payable": false,
      "stateMutability": "view",
      "type": "function"
    },
    {
      "constant": true,
      "inputs": [
        {
          "name": "self",
          "type": "uint64[] storage"
        }
      ],
      "name": "getMin",
      "outputs": [
        {
          "name": "minValue",
          "type": "uint64"
        }
      ],
      "payable": false,
      "stateMutability": "view",
      "type": "function"
    },
    {
      "constant": true,
      "inputs": [
        {
          "name": "self",
          "type": "uint64[] storage"
        },
        {
          "name": "value",
          "type": "uint64"
        },
        {
          "name": "isSorted",
          "type": "bool"
        }
      ],
      "name": "indexOf",
      "outputs": [
        {
          "name": "found",
          "type": "bool"
        },
        {
          "name": "index",
          "type": "uint256"
        }
      ],
      "payable": false,
      "stateMutability": "view",
      "type": "function"
    },
    {
      "constant": true,
      "inputs": [
        {
          "name": "self",
          "type": "uint64[] storage"
        }
      ],
      "name": "sumElements",
      "outputs": [
        {
          "name": "sum",
          "type": "uint256"
        }
      ],
      "payable": false,
      "stateMutability": "view",
      "type": "function"
    },
    {
      "constant": false,
      "inputs": [
        {
          "name": "self",
          "type": "uint64[] storage"
        }
      ],
      "name": "uniq",
      "outputs": [
        {
          "name": "length",
          "type": "uint256"
        }
      ],
      "payable": false,
      "stateMutability": "nonpayable",
      "type": "function"
    }
  ],
  "bytecode": "0x6060604052341561000f57600080fd5b610d908061001e6000396000f300606060405260043610610078576000357c0100000000000000000000000000000000000000000000000000000000900463ffffffff16806307f0f4501461007d578063211ff8951461009557806387c1b9cd146100d5578063b2b6f11b14610115578063d4a52b4c1461016a578063f17f80fd14610196575b600080fd5b61009360048080359060200190919050506101c2565b005b6100ab600480803590602001909190505061081b565b604051808267ffffffffffffffff1667ffffffffffffffff16815260200191505060405180910390f35b6100eb60048080359060200190919050506108a0565b604051808267ffffffffffffffff1667ffffffffffffffff16815260200191505060405180910390f35b610149600480803590602001909190803567ffffffffffffffff169060200190919080351515906020019091905050610937565b60405180831515151581526020018281526020019250505060405180910390f35b6101806004808035906020019091905050610ad5565b6040518082815260200191505060405180910390f35b6101ac6004808035906020019091905050610b46565b6040518082815260200191505060405180910390f35b6000806000806000806000600188805490500396506101e087610cd2565b95508594505b60008610151561047e578594506101fc86610cf0565b93505b868411151561046557600184019250849150878481548110151561021f57fe5b90600052602060002090600491828204019190066008029054906101000a900467ffffffffffffffff1667ffffffffffffffff16888381548110151561026157fe5b90600052602060002090600491828204019190066008029054906101000a900467ffffffffffffffff1667ffffffffffffffff16101561029f578391505b868311158015610330575087838154811015156102b857fe5b90600052602060002090600491828204019190066008029054906101000a900467ffffffffffffffff1667ffffffffffffffff1688838154811015156102fa57fe5b90600052602060002090600491828204019190066008029054906101000a900467ffffffffffffffff1667ffffffffffffffff16105b15610339578291505b8482141561034c57600187019350610460565b878281548110151561035a57fe5b90600052602060002090600491828204019190066008029054906101000a900467ffffffffffffffff169050878581548110151561039457fe5b90600052602060002090600491828204019190066008029054906101000a900467ffffffffffffffff1688838154811015156103cc57fe5b90600052602060002090600491828204019190066008026101000a81548167ffffffffffffffff021916908367ffffffffffffffff16021790555080888681548110151561041657fe5b90600052602060002090600491828204019190066008026101000a81548167ffffffffffffffff021916908367ffffffffffffffff16021790555081945061045d85610cf0565b93505b6101ff565b60008614156104735761047e565b6001860395506101e6565b5b600087111561081157878781548110151561049657fe5b90600052602060002090600491828204019190066008029054906101000a900467ffffffffffffffff1690508760008154811015156104d157fe5b90600052602060002090600491828204019190066008029054906101000a900467ffffffffffffffff16888881548110151561050957fe5b90600052602060002090600491828204019190066008026101000a81548167ffffffffffffffff021916908367ffffffffffffffff1602179055508088600081548110151561055457fe5b90600052602060002090600491828204019190066008026101000a81548167ffffffffffffffff021916908367ffffffffffffffff160217905550600187039650600094506105a36000610cf0565b93505b868411151561080c5760018401925084915087848154811015156105c657fe5b90600052602060002090600491828204019190066008029054906101000a900467ffffffffffffffff1667ffffffffffffffff16888381548110151561060857fe5b90600052602060002090600491828204019190066008029054906101000a900467ffffffffffffffff1667ffffffffffffffff161015610646578391505b8683111580156106d75750878381548110151561065f57fe5b90600052602060002090600491828204019190066008029054906101000a900467ffffffffffffffff1667ffffffffffffffff1688838154811015156106a157fe5b90600052602060002090600491828204019190066008029054906101000a900467ffffffffffffffff1667ffffffffffffffff16105b156106e0578291505b848214156106f357600187019350610807565b878281548110151561070157fe5b90600052602060002090600491828204019190066008029054906101000a900467ffffffffffffffff169050878581548110151561073b57fe5b90600052602060002090600491828204019190066008029054906101000a900467ffffffffffffffff16888381548110151561077357fe5b90600052602060002090600491828204019190066008026101000a81548167ffffffffffffffff021916908367ffffffffffffffff1602179055508088868154811015156107bd57fe5b90600052602060002090600491828204019190066008026101000a81548167ffffffffffffffff021916908367ffffffffffffffff16021790555081945061080485610cf0565b93505b6105a6565b61047f565b5050505050505050565b6000806000836060526000925060005b8454811015610898576004810460206060200154925060048106915060005b6002830281101561086a576401000000008404935060018101905061084a565b508267ffffffffffffffff169250828410600181146108885761088c565b8394505b5060018101905061082b565b505050919050565b60008060008360605260005b845481101561092f576004810460206060200154925060048106915060005b600283028110156108eb57640100000000840493506001810190506108cb565b508267ffffffffffffffff169250600081146001811461090a5761090e565b8394505b508284116001811461091f57610923565b8394505b506001810190506108ac565b505050919050565b6000806000806000808615610a48576001898054905003935060009250600091505b8382111515610a4357600284830181151561097057fe5b0492508767ffffffffffffffff16898481548110151561098c57fe5b90600052602060002090600491828204019190066008029054906101000a900467ffffffffffffffff1667ffffffffffffffff1614156109d85760019550829450600184019150610a3e565b8767ffffffffffffffff1689848154811015156109f157fe5b90600052602060002090600491828204019190066008029054906101000a900467ffffffffffffffff1667ffffffffffffffff161015610a3657600183019150610a3d565b6001830393505b5b610959565b610ac9565b600090505b8880549050811015610ac8578767ffffffffffffffff168982815481101515610a7257fe5b90600052602060002090600491828204019190066008029054906101000a900467ffffffffffffffff1667ffffffffffffffff161415610abb5760019550809450888054905090505b8080600101915050610a4d565b5b50505050935093915050565b60008060008360605260005b8454811015610b3e576004810460206060200154925060048106915060005b60028302811015610b205764010000000084049350600181019050610b00565b508267ffffffffffffffff1692508383019350600181019050610ae1565b505050919050565b60008060008060008091505b8580549050821015610cc257610ba1868784815481101515610b7057fe5b90600052602060002090600491828204019190066008029054906101000a900467ffffffffffffffff166000610937565b809450819550505082821115610cb5578190505b6001868054905003811015610c55578560018201815481101515610bd557fe5b90600052602060002090600491828204019190066008029054906101000a900467ffffffffffffffff168682815481101515610c0d57fe5b90600052602060002090600491828204019190066008026101000a81548167ffffffffffffffff021916908367ffffffffffffffff1602179055508080600101915050610bb5565b856001878054905003815481101515610c6a57fe5b90600052602060002090600491828204019190066008026101000a81549067ffffffffffffffff021916905585805480919060019003610caa9190610d05565b508180600190039250505b8180600101925050610b52565b8580549050945050505050919050565b600080600183039050600281811515610ce757fe5b04915050919050565b60008060028302905060018101915050919050565b815481835581811511610d3a576003016004900481600301600490048360005260206000209182019101610d399190610d3f565b5b505050565b610d6191905b80821115610d5d576000816000905550600101610d45565b5090565b905600a165627a7a72305820ddc8aa4df7e1e9686f0621e746fa79ee64269093ef7de7a57c78026deba80b190029",
  "source": "pragma solidity ^0.4.18;\n\n/**\n * @title Array64 Library\n * @author Majoolr.io\n *\n * version 1.1.0\n * Copyright (c) 2017 Majoolr, LLC\n * The MIT License (MIT)\n * https://github.com/Majoolr/ethereum-libraries/blob/master/LICENSE\n *\n * The Array64 Library provides a few utility functions to work with\n * storage uint64[] types in place. Majoolr provides smart contract services\n * and security reviews for contract deployments in addition to working on open\n * source projects in the Ethereum community. Our purpose is to test, document,\n * and deploy reusable code onto the blockchain and improve both security and\n * usability. We also educate non-profits, schools, and other community members\n * about the application of blockchain technology.\n * For further information: majoolr.io\n *\n * THE SOFTWARE IS PROVIDED \"AS IS\", WITHOUT WARRANTY OF ANY KIND, EXPRESS\n * OR IMPLIED, INCLUDING BUT NOT LIMITED TO THE WARRANTIES OF\n * MERCHANTABILITY, FITNESS FOR A PARTICULAR PURPOSE AND NONINFRINGEMENT.\n * IN NO EVENT SHALL THE AUTHORS OR COPYRIGHT HOLDERS BE LIABLE FOR ANY\n * CLAIM, DAMAGES OR OTHER LIABILITY, WHETHER IN AN ACTION OF CONTRACT,\n * TORT OR OTHERWISE, ARISING FROM, OUT OF OR IN CONNECTION WITH THE\n * SOFTWARE OR THE USE OR OTHER DEALINGS IN THE SOFTWARE.\n */\n\nlibrary Array64Lib {\n\n  /// @dev Sum vector\n  /// @param self Storage array containing uint256 type variables\n  /// @return sum The sum of all elements, does not check for overflow\n  function sumElements(uint64[] storage self) public view returns(uint256 sum) {\n    uint256 term;\n    uint8 remainder;\n\n    assembly {\n      mstore(0x60,self_slot)\n\n      for { let i := 0 } lt(i, sload(self_slot)) { i := add(i, 1) } {\n        term := sload(add(sha3(0x60,0x20),div(i,4)))\n\n        remainder := mod(i,4)\n\n        for { let j := 0 } lt(j, mul(remainder, 2)) { j := add(j, 1) } {\n          term := div(term,4294967296)\n        }\n\n        term := and(0x000000000000000000000000000000000000000000000000ffffffffffffffff,term)\n        sum := add(term,sum)\n\n      }\n    }\n  }\n\n  /// @dev Returns the max value in an array.\n  /// @param self Storage array containing uint256 type variables\n  /// @return maxValue The highest value in the array\n  function getMax(uint64[] storage self) public view returns(uint64 maxValue) {\n    uint256 term;\n    uint8 remainder;\n\n    assembly {\n      mstore(0x60,self_slot)\n      maxValue := 0\n\n      for { let i := 0 } lt(i, sload(self_slot)) { i := add(i, 1) } {\n        term := sload(add(sha3(0x60,0x20),div(i,4)))\n\n        remainder := mod(i,4)\n\n        for { let j := 0 } lt(j, mul(remainder, 2)) { j := add(j, 1) } {\n          term := div(term,4294967296)\n        }\n\n        term := and(0x000000000000000000000000000000000000000000000000ffffffffffffffff,term)\n        switch lt(maxValue, term)\n        case 1 {\n          maxValue := term\n        }\n      }\n    }\n  }\n\n  /// @dev Returns the minimum value in an array.\n  /// @param self Storage array containing uint256 type variables\n  /// @return minValue The highest value in the array\n  function getMin(uint64[] storage self) public view returns(uint64 minValue) {\n    uint256 term;\n    uint8 remainder;\n\n    assembly {\n      mstore(0x60,self_slot)\n\n      for { let i := 0 } lt(i, sload(self_slot)) { i := add(i, 1) } {\n        term := sload(add(sha3(0x60,0x20),div(i,4)))\n\n        remainder := mod(i,4)\n\n        for { let j := 0 } lt(j, mul(remainder, 2)) { j := add(j, 1) } {\n          term := div(term,4294967296)\n        }\n\n        term := and(0x000000000000000000000000000000000000000000000000ffffffffffffffff,term)\n\n        switch eq(i,0)\n        case 1 {\n          minValue := term\n        }\n        switch gt(minValue, term)\n        case 1 {\n          minValue := term\n        }\n      }\n    }\n  }\n\n  /// @dev Finds the index of a given value in an array\n  /// @param self Storage array containing uint256 type variables\n  /// @param value The value to search for\n  /// @param isSorted True if the array is sorted, false otherwise\n  /// @return found True if the value was found, false otherwise\n  /// @return index The index of the given value, returns 0 if found is false\n  function indexOf(uint64[] storage self, uint64 value, bool isSorted)\n           public\n           view\n           returns(bool found, uint256 index) {\n    if (isSorted) {\n        uint256 high = self.length - 1;\n        uint256 mid = 0;\n        uint256 low = 0;\n        while (low <= high) {\n          mid = (low+high)/2;\n          if (self[mid] == value) {\n            found = true;\n            index = mid;\n            low = high + 1;\n          } else if (self[mid] < value) {\n            low = mid + 1;\n          } else {\n            high = mid - 1;\n          }\n        }\n    } else {\n      for (uint256 i = 0; i<self.length; i++) {\n        if (self[i] == value) {\n          found = true;\n          index = i;\n          i = self.length;\n        }\n      }\n    }\n  }\n\n  /// @dev Utility function for heapSort\n  /// @param index The index of child node\n  /// @return pI The parent node index\n  function getParentI(uint256 index) private pure returns (uint256 pI) {\n    uint256 i = index - 1;\n    pI = i/2;\n  }\n\n  /// @dev Utility function for heapSort\n  /// @param index The index of parent node\n  /// @return lcI The index of left child\n  function getLeftChildI(uint256 index) private pure returns (uint256 lcI) {\n    uint256 i = index * 2;\n    lcI = i + 1;\n  }\n\n  /// @dev Sorts given array in place\n  /// @param self Storage array containing uint256 type variables\n  function heapSort(uint64[] storage self) public {\n    uint256 end = self.length - 1;\n    uint256 start = getParentI(end);\n    uint256 root = start;\n    uint256 lChild;\n    uint256 rChild;\n    uint256 swap;\n    uint64 temp;\n    while(start >= 0){\n      root = start;\n      lChild = getLeftChildI(start);\n      while(lChild <= end){\n        rChild = lChild + 1;\n        swap = root;\n        if(self[swap] < self[lChild])\n          swap = lChild;\n        if((rChild <= end) && (self[swap]<self[rChild]))\n          swap = rChild;\n        if(swap == root)\n          lChild = end+1;\n        else {\n          temp = self[swap];\n          self[swap] = self[root];\n          self[root] = temp;\n          root = swap;\n          lChild = getLeftChildI(root);\n        }\n      }\n      if(start == 0)\n        break;\n      else\n        start = start - 1;\n    }\n    while(end > 0){\n      temp = self[end];\n      self[end] = self[0];\n      self[0] = temp;\n      end = end - 1;\n      root = 0;\n      lChild = getLeftChildI(0);\n      while(lChild <= end){\n        rChild = lChild + 1;\n        swap = root;\n        if(self[swap] < self[lChild])\n          swap = lChild;\n        if((rChild <= end) && (self[swap]<self[rChild]))\n          swap = rChild;\n        if(swap == root)\n          lChild = end + 1;\n        else {\n          temp = self[swap];\n          self[swap] = self[root];\n          self[root] = temp;\n          root = swap;\n          lChild = getLeftChildI(root);\n        }\n      }\n    }\n  }\n\n  /// @dev Removes duplicates from a given array.\n  /// @param self Storage array containing uint256 type variables\n  function uniq(uint64[] storage self) public returns (uint256 length) {\n    bool contains;\n    uint256 index;\n\n    for (uint256 i = 0; i < self.length; i++) {\n      (contains, index) = indexOf(self, self[i], false);\n\n      if (i > index) {\n        for (uint256 j = i; j < self.length - 1; j++){\n          self[j] = self[j + 1];\n        }\n\n        delete self[self.length - 1];\n        self.length--;\n        i--;\n      }\n    }\n\n    length = self.length;\n  }\n}\n",
  "sourcePath": "/Users/hackdom/Projects/ethereum-libraries/ArrayUtilsLib/truffle/contracts/Array64Lib.sol",
  "compiler": {
    "name": "solc",
    "version": "0.4.18+commit.9cf6e910.Emscripten.clang"
  },
  "schemaVersion": "1.0.1",
  "updatedAt": "2017-11-26T14:27:22.025Z"
}