{
  "contractName": "Array128Lib",
  "abi": [
    {
      "constant": true,
      "inputs": [
        {
          "name": "self",
          "type": "uint128[] storage"
        },
        {
          "name": "value",
          "type": "uint128"
        },
        {
          "name": "isSorted",
          "type": "bool"
        }
      ],
      "name": "indexOf",
      "outputs": [
        {
          "name": "found",
          "type": "bool"
        },
        {
          "name": "index",
          "type": "uint256"
        }
      ],
      "payable": false,
      "stateMutability": "view",
      "type": "function"
    },
    {
      "constant": false,
      "inputs": [
        {
          "name": "self",
          "type": "uint128[] storage"
        }
      ],
      "name": "uniq",
      "outputs": [
        {
          "name": "length",
          "type": "uint256"
        }
      ],
      "payable": false,
      "stateMutability": "nonpayable",
      "type": "function"
    },
    {
      "constant": true,
      "inputs": [
        {
          "name": "self",
          "type": "uint128[] storage"
        }
      ],
      "name": "sumElements",
      "outputs": [
        {
          "name": "sum",
          "type": "uint256"
        }
      ],
      "payable": false,
      "stateMutability": "view",
      "type": "function"
    },
    {
      "constant": false,
      "inputs": [
        {
          "name": "self",
          "type": "uint128[] storage"
        }
      ],
      "name": "heapSort",
      "outputs": [],
      "payable": false,
      "stateMutability": "nonpayable",
      "type": "function"
    },
    {
      "constant": true,
      "inputs": [
        {
          "name": "self",
          "type": "uint128[] storage"
        }
      ],
      "name": "getMin",
      "outputs": [
        {
          "name": "minValue",
          "type": "uint128"
        }
      ],
      "payable": false,
      "stateMutability": "view",
      "type": "function"
    },
    {
      "constant": true,
      "inputs": [
        {
          "name": "self",
          "type": "uint128[] storage"
        }
      ],
      "name": "getMax",
      "outputs": [
        {
          "name": "maxValue",
          "type": "uint128"
        }
      ],
      "payable": false,
      "stateMutability": "view",
      "type": "function"
    }
  ],
  "bytecode": "0x6060604052341561000f57600080fd5b610f238061001e6000396000f300606060405260043610610078576000357c0100000000000000000000000000000000000000000000000000000000900463ffffffff16806301e23a221461007d57806339342b7b146100da5780633ab520171461010657806364a1923c14610132578063a609b6771461014a578063a7b5b5521461019a575b600080fd5b6100b960048080359060200190919080356fffffffffffffffffffffffffffffffff1690602001909190803515159060200190919050506101ea565b60405180831515151581526020018281526020019250505060405180910390f35b6100f06004808035906020019091905050610391565b6040518082815260200191505060405180910390f35b61011c6004808035906020019091905050610545565b6040518082815260200191505060405180910390f35b61014860048080359060200190919050506105be565b005b6101606004808035906020019091905050610d39565b60405180826fffffffffffffffffffffffffffffffff166fffffffffffffffffffffffffffffffff16815260200191505060405180910390f35b6101b06004808035906020019091905050610dd8565b60405180826fffffffffffffffffffffffffffffffff166fffffffffffffffffffffffffffffffff16815260200191505060405180910390f35b6000806000808680549050141561020a5760008080905092509250610388565b85606052836001811461022457600081146102f957610386565b60018754036000805b82811115156102f157600283820104915060028204602060602001549450600282066001811461025c5761027f565b60005b600481101561027d576401000000008704965060018101905061025f565b505b506fffffffffffffffffffffffffffffffff85169450888510600181146102ad57600081146102b8576102eb565b6001830191506102eb565b898611600181146102d057600081146102db576102e9565b6001840394506102e9565b600198508397506001850192505b505b5061022d565b505050610386565b60005b87548110156103845760028104602060602001549250600281066001811461032357610346565b60005b60048110156103445764010000000085049450600181019050610326565b505b506fffffffffffffffffffffffffffffffff831692508683146001811461036c57610378565b60019550819450885491505b506001810190506102fc565b505b505b50935093915050565b60008060008060008091505b8580549050821015610535576103f48687848154811015156103bb57fe5b90600052602060002090600291828204019190066010029054906101000a90046fffffffffffffffffffffffffffffffff1660006101ea565b809450819550505082821115610528578190505b60018680549050038110156104c057856001820181548110151561042857fe5b90600052602060002090600291828204019190066010029054906101000a90046fffffffffffffffffffffffffffffffff16868281548110151561046857fe5b90600052602060002090600291828204019190066010026101000a8154816fffffffffffffffffffffffffffffffff02191690836fffffffffffffffffffffffffffffffff1602179055508080600101915050610408565b8560018780549050038154811015156104d557fe5b90600052602060002090600291828204019190066010026101000a8154906fffffffffffffffffffffffffffffffff02191690558580548091906001900361051d9190610e98565b508180600190039250505b818060010192505061039d565b8580549050945050505050919050565b60008060008360605260005b84548110156105b6576002810460206060200154925060028106915060005b600483028110156105905764010000000084049350600181019050610570565b50826fffffffffffffffffffffffffffffffff1692508383019350600181019050610551565b505050919050565b600080600080600080600080888054905014156105da57610d2f565b600188805490500396506105ed87610e65565b95508594505b6000861015156108fb5785945061060986610e83565b93505b86841115156108e257600184019250849150878481548110151561062c57fe5b90600052602060002090600291828204019190066010029054906101000a90046fffffffffffffffffffffffffffffffff166fffffffffffffffffffffffffffffffff16888381548110151561067e57fe5b90600052602060002090600291828204019190066010029054906101000a90046fffffffffffffffffffffffffffffffff166fffffffffffffffffffffffffffffffff1610156106cc578391505b86831115801561077d575087838154811015156106e557fe5b90600052602060002090600291828204019190066010029054906101000a90046fffffffffffffffffffffffffffffffff166fffffffffffffffffffffffffffffffff16888381548110151561073757fe5b90600052602060002090600291828204019190066010029054906101000a90046fffffffffffffffffffffffffffffffff166fffffffffffffffffffffffffffffffff16105b15610786578291505b84821415610799576001870193506108dd565b87828154811015156107a757fe5b90600052602060002090600291828204019190066010029054906101000a90046fffffffffffffffffffffffffffffffff16905087858154811015156107e957fe5b90600052602060002090600291828204019190066010029054906101000a90046fffffffffffffffffffffffffffffffff16888381548110151561082957fe5b90600052602060002090600291828204019190066010026101000a8154816fffffffffffffffffffffffffffffffff02191690836fffffffffffffffffffffffffffffffff16021790555080888681548110151561088357fe5b90600052602060002090600291828204019190066010026101000a8154816fffffffffffffffffffffffffffffffff02191690836fffffffffffffffffffffffffffffffff1602179055508194506108da85610e83565b93505b61060c565b60008614156108f0576108fb565b6001860395506105f3565b5b6000871115610d2e57878781548110151561091357fe5b90600052602060002090600291828204019190066010029054906101000a90046fffffffffffffffffffffffffffffffff16905087600081548110151561095657fe5b90600052602060002090600291828204019190066010029054906101000a90046fffffffffffffffffffffffffffffffff16888881548110151561099657fe5b90600052602060002090600291828204019190066010026101000a8154816fffffffffffffffffffffffffffffffff02191690836fffffffffffffffffffffffffffffffff160217905550808860008154811015156109f157fe5b90600052602060002090600291828204019190066010026101000a8154816fffffffffffffffffffffffffffffffff02191690836fffffffffffffffffffffffffffffffff16021790555060018703965060009450610a506000610e83565b93505b8684111515610d29576001840192508491508784815481101515610a7357fe5b90600052602060002090600291828204019190066010029054906101000a90046fffffffffffffffffffffffffffffffff166fffffffffffffffffffffffffffffffff168883815481101515610ac557fe5b90600052602060002090600291828204019190066010029054906101000a90046fffffffffffffffffffffffffffffffff166fffffffffffffffffffffffffffffffff161015610b13578391505b868311158015610bc457508783815481101515610b2c57fe5b90600052602060002090600291828204019190066010029054906101000a90046fffffffffffffffffffffffffffffffff166fffffffffffffffffffffffffffffffff168883815481101515610b7e57fe5b90600052602060002090600291828204019190066010029054906101000a90046fffffffffffffffffffffffffffffffff166fffffffffffffffffffffffffffffffff16105b15610bcd578291505b84821415610be057600187019350610d24565b8782815481101515610bee57fe5b90600052602060002090600291828204019190066010029054906101000a90046fffffffffffffffffffffffffffffffff1690508785815481101515610c3057fe5b90600052602060002090600291828204019190066010029054906101000a90046fffffffffffffffffffffffffffffffff168883815481101515610c7057fe5b90600052602060002090600291828204019190066010026101000a8154816fffffffffffffffffffffffffffffffff02191690836fffffffffffffffffffffffffffffffff160217905550808886815481101515610cca57fe5b90600052602060002090600291828204019190066010026101000a8154816fffffffffffffffffffffffffffffffff02191690836fffffffffffffffffffffffffffffffff160217905550819450610d2185610e83565b93505b610a53565b6108fc565b5b5050505050505050565b60008060008360605260005b8454811015610dd0576002810460206060200154925060028106915060005b60048302811015610d845764010000000084049350600181019050610d64565b50826fffffffffffffffffffffffffffffffff1692506000811460018114610dab57610daf565b8394505b5082841160018114610dc057610dc4565b8394505b50600181019050610d45565b505050919050565b6000806000836060526000925060005b8454811015610e5d576002810460206060200154925060028106915060005b60048302811015610e275764010000000084049350600181019050610e07565b50826fffffffffffffffffffffffffffffffff16925082841060018114610e4d57610e51565b8394505b50600181019050610de8565b505050919050565b600080600183039050600281811515610e7a57fe5b04915050919050565b60008060028302905060018101915050919050565b815481835581811511610ecd576001016002900481600101600290048360005260206000209182019101610ecc9190610ed2565b5b505050565b610ef491905b80821115610ef0576000816000905550600101610ed8565b5090565b905600a165627a7a7230582032f5dded3e73f50b3853811a156de7398f022e40c8fa27074ee4bc99304b3acf0029",
  "source": "pragma solidity ^0.4.18;\n\n/**\n * @title Array128 Library\n * @author Modular Inc, https://modular.network\n *\n * version 1.1.0\n * Copyright (c) 2017 Modular, Inc\n * The MIT License (MIT)\n * https://github.com/Modular-Network/ethereum-libraries/blob/master/LICENSE\n *\n *  The Array128 Library provides a few utility functions to work with\n * storage uint128[] types in place. Modular provides smart contract services\n * and security reviews for contract deployments in addition to working on open\n * source projects in the Ethereum community. Our purpose is to test, document,\n * and deploy reusable code onto the blockchain and improve both security and\n * usability. We also educate non-profits, schools, and other community members\n * about the application of blockchain technology.\n * For further information: modular.network\n *\n * THE SOFTWARE IS PROVIDED \"AS IS\", WITHOUT WARRANTY OF ANY KIND, EXPRESS\n * OR IMPLIED, INCLUDING BUT NOT LIMITED TO THE WARRANTIES OF\n * MERCHANTABILITY, FITNESS FOR A PARTICULAR PURPOSE AND NONINFRINGEMENT.\n * IN NO EVENT SHALL THE AUTHORS OR COPYRIGHT HOLDERS BE LIABLE FOR ANY\n * CLAIM, DAMAGES OR OTHER LIABILITY, WHETHER IN AN ACTION OF CONTRACT,\n * TORT OR OTHERWISE, ARISING FROM, OUT OF OR IN CONNECTION WITH THE\n * SOFTWARE OR THE USE OR OTHER DEALINGS IN THE SOFTWARE.\n */\n\nlibrary Array128Lib {\n\n  /// @dev Sum vector\n  /// @param self Storage array containing uint256 type variables\n  /// @return sum The sum of all elements, does not check for overflow\n  function sumElements(uint128[] storage self) public view returns(uint256 sum) {\n    uint256 term;\n    uint8 remainder;\n\n    assembly {\n      mstore(0x60,self_slot)\n\n      for { let i := 0 } lt(i, sload(self_slot)) { i := add(i, 1) } {\n        term := sload(add(sha3(0x60,0x20),div(i,2)))\n\n        remainder := mod(i,2)\n\n        for { let j := 0 } lt(j, mul(remainder, 4)) { j := add(j, 1) } {\n          term := div(term,4294967296)\n        }\n\n        term := and(0x00000000000000000000000000000000ffffffffffffffffffffffffffffffff,term)\n        sum := add(term,sum)\n\n      }\n    }\n  }\n\n  /// @dev Returns the max value in an array.\n  /// @param self Storage array containing uint256 type variables\n  /// @return maxValue The highest value in the array\n  function getMax(uint128[] storage self) public view returns(uint128 maxValue) {\n    uint256 term;\n    uint8 remainder;\n\n    assembly {\n      mstore(0x60,self_slot)\n      maxValue := 0\n\n      for { let i := 0 } lt(i, sload(self_slot)) { i := add(i, 1) } {\n        term := sload(add(sha3(0x60,0x20),div(i,2)))\n\n        remainder := mod(i,2)\n\n        for { let j := 0 } lt(j, mul(remainder, 4)) { j := add(j, 1) } {\n          term := div(term,4294967296)\n        }\n\n        term := and(0x00000000000000000000000000000000ffffffffffffffffffffffffffffffff,term)\n        switch lt(maxValue, term)\n        case 1 {\n          maxValue := term\n        }\n      }\n    }\n  }\n\n  /// @dev Returns the minimum value in an array.\n  /// @param self Storage array containing uint256 type variables\n  /// @return minValue The highest value in the array\n  function getMin(uint128[] storage self) public view returns(uint128 minValue) {\n    uint256 term;\n    uint8 remainder;\n\n    assembly {\n      mstore(0x60,self_slot)\n\n      for { let i := 0 } lt(i, sload(self_slot)) { i := add(i, 1) } {\n        term := sload(add(sha3(0x60,0x20),div(i,2)))\n\n        remainder := mod(i,2)\n\n        for { let j := 0 } lt(j, mul(remainder, 4)) { j := add(j, 1) } {\n          term := div(term,4294967296)\n        }\n\n        term := and(0x00000000000000000000000000000000ffffffffffffffffffffffffffffffff,term)\n        switch eq(i,0)\n        case 1 {\n          minValue := term\n        }\n        switch gt(minValue, term)\n        case 1 {\n          minValue := term\n        }\n      }\n    }\n  }\n\n  /// @dev Finds the index of a given value in an array\n  /// @param self Storage array containing uint256 type variables\n  /// @param value The value to search for\n  /// @param isSorted True if the array is sorted, false otherwise\n  /// @return found True if the value was found, false otherwise\n  /// @return index The index of the given value, returns 0 if found is false\n  function indexOf(uint128[] storage self, uint128 value, bool isSorted)\n           public\n           view\n           returns(bool found, uint256 index) {\n    if (self.length == 0) {\n        return (false, 0);\n    }\n    uint256 term;\n    assembly{\n      mstore(0x60,self_slot)\n      switch isSorted\n      case 1 {\n        let high := sub(sload(self_slot),1)\n        let mid := 0\n        let low := 0\n        for { } iszero(gt(low, high)) { } {\n          mid := div(add(low,high),2)\n          term := sload(add(sha3(0x60,0x20),div(mid,2)))\n\n          switch mod(mid,2)\n          case 1 {\n            for { let j := 0 } lt(j, 4) { j := add(j, 1) } {\n              term := div(term,4294967296)\n            }\n          }\n\n          term := and(term,0x00000000000000000000000000000000ffffffffffffffffffffffffffffffff)\n\n          switch lt(term,value)\n          case 1 {\n             low := add(mid,1)\n          }\n          case 0 {\n            switch gt(term,value)\n            case 1 {\n              high := sub(mid,1)\n            }\n            case 0 {\n              found := 1\n              index := mid\n              low := add(high,1)\n            }\n          }\n        }\n      }\n      case 0 {\n        for { let i := 0 } lt(i, sload(self_slot)) { i := add(i, 1) } {\n          term := sload(add(sha3(0x60,0x20),div(i,2)))\n          switch mod(i,2)\n          case 1 {\n            for { let j := 0 } lt(j, 4) { j := add(j, 1) } {\n              term := div(term,4294967296)\n            }\n          }\n\n          term := and(term,0x00000000000000000000000000000000ffffffffffffffffffffffffffffffff)\n\n          switch eq(term, value)\n          case 1 {\n            found := 1\n            index := i\n            i := sload(self_slot)\n          }\n        }\n      }\n    }\n  }\n\n  /// @dev Utility function for heapSort\n  /// @param index The index of child node\n  /// @return pI The parent node index\n  function getParentI(uint256 index) private pure returns (uint256 pI) {\n    uint256 i = index - 1;\n    pI = i/2;\n  }\n\n  /// @dev Utility function for heapSort\n  /// @param index The index of parent node\n  /// @return lcI The index of left child\n  function getLeftChildI(uint256 index) private pure returns (uint256 lcI) {\n    uint256 i = index * 2;\n    lcI = i + 1;\n  }\n\n  /// @dev Sorts given array in place\n  /// @param self Storage array containing uint256 type variables\n  function heapSort(uint128[] storage self) public {\n    if (self.length == 0) {\n        return;\n    }\n    uint256 end = self.length - 1;\n    uint256 start = getParentI(end);\n    uint256 root = start;\n    uint256 lChild;\n    uint256 rChild;\n    uint256 swap;\n    uint128 temp;\n    while(start >= 0){\n      root = start;\n      lChild = getLeftChildI(start);\n      while(lChild <= end){\n        rChild = lChild + 1;\n        swap = root;\n        if(self[swap] < self[lChild])\n          swap = lChild;\n        if((rChild <= end) && (self[swap]<self[rChild]))\n          swap = rChild;\n        if(swap == root)\n          lChild = end+1;\n        else {\n          temp = self[swap];\n          self[swap] = self[root];\n          self[root] = temp;\n          root = swap;\n          lChild = getLeftChildI(root);\n        }\n      }\n      if(start == 0)\n        break;\n      else\n        start = start - 1;\n    }\n    while(end > 0){\n      temp = self[end];\n      self[end] = self[0];\n      self[0] = temp;\n      end = end - 1;\n      root = 0;\n      lChild = getLeftChildI(0);\n      while(lChild <= end){\n        rChild = lChild + 1;\n        swap = root;\n        if(self[swap] < self[lChild])\n          swap = lChild;\n        if((rChild <= end) && (self[swap]<self[rChild]))\n          swap = rChild;\n        if(swap == root)\n          lChild = end + 1;\n        else {\n          temp = self[swap];\n          self[swap] = self[root];\n          self[root] = temp;\n          root = swap;\n          lChild = getLeftChildI(root);\n        }\n      }\n    }\n  }\n\n  /// @dev Removes duplicates from a given array.\n  /// @param self Storage array containing uint256 type variables\n  function uniq(uint128[] storage self) public returns (uint256 length) {\n    bool contains;\n    uint256 index;\n\n    for (uint256 i = 0; i < self.length; i++) {\n      (contains, index) = indexOf(self, self[i], false);\n\n      if (i > index) {\n        for (uint256 j = i; j < self.length - 1; j++){\n          self[j] = self[j + 1];\n        }\n\n        delete self[self.length - 1];\n        self.length--;\n        i--;\n      }\n    }\n\n    length = self.length;\n  }\n}\n",
  "sourcePath": "/Users/joshuahannan/repository/modular/ethereum-libraries/ArrayUtilsLib/truffle/contracts/Array128Lib.sol",
  "compiler": {
    "name": "solc",
    "version": "0.4.18+commit.9cf6e910.Emscripten.clang"
  },
  "schemaVersion": "1.0.1",
  "updatedAt": "2018-02-14T17:45:18.528Z"
}