{
  "contractName": "Array16Lib",
  "abi": [
    {
      "constant": false,
      "inputs": [
        {
          "name": "self",
          "type": "uint16[] storage"
        }
      ],
      "name": "heapSort",
      "outputs": [],
      "payable": false,
      "stateMutability": "nonpayable",
      "type": "function"
    },
    {
      "constant": true,
      "inputs": [
        {
          "name": "self",
          "type": "uint16[] storage"
        }
      ],
      "name": "sumElements",
      "outputs": [
        {
          "name": "sum",
          "type": "uint256"
        }
      ],
      "payable": false,
      "stateMutability": "view",
      "type": "function"
    },
    {
      "constant": true,
      "inputs": [
        {
          "name": "self",
          "type": "uint16[] storage"
        },
        {
          "name": "value",
          "type": "uint16"
        },
        {
          "name": "isSorted",
          "type": "bool"
        }
      ],
      "name": "indexOf",
      "outputs": [
        {
          "name": "found",
          "type": "bool"
        },
        {
          "name": "index",
          "type": "uint256"
        }
      ],
      "payable": false,
      "stateMutability": "view",
      "type": "function"
    },
    {
      "constant": true,
      "inputs": [
        {
          "name": "self",
          "type": "uint16[] storage"
        }
      ],
      "name": "getMax",
      "outputs": [
        {
          "name": "maxValue",
          "type": "uint16"
        }
      ],
      "payable": false,
      "stateMutability": "view",
      "type": "function"
    },
    {
      "constant": false,
      "inputs": [
        {
          "name": "self",
          "type": "uint16[] storage"
        }
      ],
      "name": "uniq",
      "outputs": [
        {
          "name": "length",
          "type": "uint256"
        }
      ],
      "payable": false,
      "stateMutability": "nonpayable",
      "type": "function"
    },
    {
      "constant": true,
      "inputs": [
        {
          "name": "self",
          "type": "uint16[] storage"
        }
      ],
      "name": "getMin",
      "outputs": [
        {
          "name": "minValue",
          "type": "uint16"
        }
      ],
      "payable": false,
      "stateMutability": "view",
      "type": "function"
    }
  ],
  "bytecode": "0x6060604052341561000f57600080fd5b610c318061001e6000396000f300606060405260043610610078576000357c0100000000000000000000000000000000000000000000000000000000900463ffffffff16806313b704fe1461007d5780632b35407d14610095578063b1df4ec5146100c1578063c59d3b9c14610110578063e23f74ea14610144578063e855c4c814610170575b600080fd5b61009360048080359060200190919050506101a4565b005b6100ab6004808035906020019091905050610731565b6040518082815260200191505060405180910390f35b6100ef600480803590602001909190803561ffff169060200190919080351515906020019091905050610797565b60405180831515151581526020018281526020019250505060405180910390f35b61012660048080359060200190919050506108ff565b604051808261ffff1661ffff16815260200191505060405180910390f35b61015a6004808035906020019091905050610979565b6040518082815260200191505060405180910390f35b6101866004808035906020019091905050610ae7565b604051808261ffff1661ffff16815260200191505060405180910390f35b6000806000806000806000600188805490500396506101c287610b73565b95508594505b60008610151561040c578594506101de86610b91565b93505b86841115156103f357600184019250849150878481548110151561020157fe5b90600052602060002090601091828204019190066002029054906101000a900461ffff1661ffff16888381548110151561023757fe5b90600052602060002090601091828204019190066002029054906101000a900461ffff1661ffff161015610269578391505b8683111580156102e25750878381548110151561028257fe5b90600052602060002090601091828204019190066002029054906101000a900461ffff1661ffff1688838154811015156102b857fe5b90600052602060002090601091828204019190066002029054906101000a900461ffff1661ffff16105b156102eb578291505b848214156102fe576001870193506103ee565b878281548110151561030c57fe5b90600052602060002090601091828204019190066002029054906101000a900461ffff169050878581548110151561034057fe5b90600052602060002090601091828204019190066002029054906101000a900461ffff16888381548110151561037257fe5b90600052602060002090601091828204019190066002026101000a81548161ffff021916908361ffff1602179055508088868154811015156103b057fe5b90600052602060002090601091828204019190066002026101000a81548161ffff021916908361ffff1602179055508194506103eb85610b91565b93505b6101e1565b60008614156104015761040c565b6001860395506101c8565b5b600087111561072757878781548110151561042457fe5b90600052602060002090601091828204019190066002029054906101000a900461ffff16905087600081548110151561045957fe5b90600052602060002090601091828204019190066002029054906101000a900461ffff16888881548110151561048b57fe5b90600052602060002090601091828204019190066002026101000a81548161ffff021916908361ffff160217905550808860008154811015156104ca57fe5b90600052602060002090601091828204019190066002026101000a81548161ffff021916908361ffff1602179055506001870396506000945061050d6000610b91565b93505b868411151561072257600184019250849150878481548110151561053057fe5b90600052602060002090601091828204019190066002029054906101000a900461ffff1661ffff16888381548110151561056657fe5b90600052602060002090601091828204019190066002029054906101000a900461ffff1661ffff161015610598578391505b868311158015610611575087838154811015156105b157fe5b90600052602060002090601091828204019190066002029054906101000a900461ffff1661ffff1688838154811015156105e757fe5b90600052602060002090601091828204019190066002029054906101000a900461ffff1661ffff16105b1561061a578291505b8482141561062d5760018701935061071d565b878281548110151561063b57fe5b90600052602060002090601091828204019190066002029054906101000a900461ffff169050878581548110151561066f57fe5b90600052602060002090601091828204019190066002029054906101000a900461ffff1688838154811015156106a157fe5b90600052602060002090601091828204019190066002026101000a81548161ffff021916908361ffff1602179055508088868154811015156106df57fe5b90600052602060002090601091828204019190066002026101000a81548161ffff021916908361ffff16021790555081945061071a85610b91565b93505b610510565b61040d565b5050505050505050565b60008060008360605260005b845481101561078f576010810460206060200154925060108106915060005b8281101561077757620100008404935060018101905061075c565b508261ffff169250838301935060018101905061073d565b505050919050565b6000806000806000808615610884576001898054905003935060009250600091505b838211151561087f5760028483018115156107d057fe5b0492508761ffff1689848154811015156107e657fe5b90600052602060002090601091828204019190066002029054906101000a900461ffff1661ffff161415610826576001955082945060018401915061087a565b8761ffff16898481548110151561083957fe5b90600052602060002090601091828204019190066002029054906101000a900461ffff1661ffff16101561087257600183019150610879565b6001830393505b5b6107b9565b6108f3565b600090505b88805490508110156108f2578761ffff1689828154811015156108a857fe5b90600052602060002090601091828204019190066002029054906101000a900461ffff1661ffff1614156108e55760019550809450888054905090505b8080600101915050610889565b5b50505050935093915050565b6000806000836060526000925060005b8454811015610971576010810460206060200154925060108106915060005b8281101561094957620100008404935060018101905061092e565b508261ffff1692508284106001811461096157610965565b8394505b5060018101905061090f565b505050919050565b60008060008060008091505b8580549050821015610ad7576109ce8687848154811015156109a357fe5b90600052602060002090601091828204019190066002029054906101000a900461ffff166000610797565b809450819550505082821115610aca578190505b6001868054905003811015610a70578560018201815481101515610a0257fe5b90600052602060002090601091828204019190066002029054906101000a900461ffff168682815481101515610a3457fe5b90600052602060002090601091828204019190066002026101000a81548161ffff021916908361ffff16021790555080806001019150506109e2565b856001878054905003815481101515610a8557fe5b90600052602060002090601091828204019190066002026101000a81549061ffff021916905585805480919060019003610abf9190610ba6565b508180600190039250505b8180600101925050610985565b8580549050945050505050919050565b60008060008360605260005b8454811015610b6b576010810460206060200154925060108106915060005b82811015610b2d576201000084049350600181019050610b12565b508261ffff1692506000811460018114610b4657610b4a565b8394505b5082841160018114610b5b57610b5f565b8394505b50600181019050610af3565b505050919050565b600080600183039050600281811515610b8857fe5b04915050919050565b60008060028302905060018101915050919050565b815481835581811511610bdb57600f016010900481600f01601090048360005260206000209182019101610bda9190610be0565b5b505050565b610c0291905b80821115610bfe576000816000905550600101610be6565b5090565b905600a165627a7a72305820cb63c3d637557abdabb6c181524b741c0f669d3a4923bb7000b0742a29e571e80029",
  "source": "pragma solidity ^0.4.18;\n\n/**\n * @title Array16 Library\n * @author Majoolr.io\n *\n * version 1.1.0\n * Copyright (c) 2017 Majoolr, LLC\n * The MIT License (MIT)\n * https://github.com/Majoolr/ethereum-libraries/blob/master/LICENSE\n *\n * The Array16 Library provides a few utility functions to work with\n * storage uint16[] types in place. Majoolr provides smart contract services\n * and security reviews for contract deployments in addition to working on open\n * source projects in the Ethereum community. Our purpose is to test, document,\n * and deploy reusable code onto the blockchain and improve both security and\n * usability. We also educate non-profits, schools, and other community members\n * about the application of blockchain technology.\n * For further information: majoolr.io\n *\n * THE SOFTWARE IS PROVIDED \"AS IS\", WITHOUT WARRANTY OF ANY KIND, EXPRESS\n * OR IMPLIED, INCLUDING BUT NOT LIMITED TO THE WARRANTIES OF\n * MERCHANTABILITY, FITNESS FOR A PARTICULAR PURPOSE AND NONINFRINGEMENT.\n * IN NO EVENT SHALL THE AUTHORS OR COPYRIGHT HOLDERS BE LIABLE FOR ANY\n * CLAIM, DAMAGES OR OTHER LIABILITY, WHETHER IN AN ACTION OF CONTRACT,\n * TORT OR OTHERWISE, ARISING FROM, OUT OF OR IN CONNECTION WITH THE\n * SOFTWARE OR THE USE OR OTHER DEALINGS IN THE SOFTWARE.\n */\n\nlibrary Array16Lib {\n\n  /// @dev Sum vector\n  /// @param self Storage array containing uint256 type variables\n  /// @return sum The sum of all elements, does not check for overflow\n  function sumElements(uint16[] storage self) public view returns(uint256 sum) {\n    uint256 term;\n    uint8 remainder;\n\n    assembly {\n      mstore(0x60,self_slot)\n\n      for { let i := 0 } lt(i, sload(self_slot)) { i := add(i, 1) } {\n        term := sload(add(sha3(0x60,0x20),div(i,16)))\n\n        remainder := mod(i,16)\n\n        for { let j := 0 } lt(j, remainder) { j := add(j, 1) } {\n          term := div(term,65536)\n        }\n\n        term := and(0x000000000000000000000000000000000000000000000000000000000000ffff,term)\n        sum := add(term,sum)\n\n      }\n    }\n  }\n\n  /// @dev Returns the max value in an array.\n  /// @param self Storage array containing uint256 type variables\n  /// @return maxValue The highest value in the array\n  function getMax(uint16[] storage self) public view returns(uint16 maxValue) {\n    uint256 term;\n    uint8 remainder;\n\n    assembly {\n      mstore(0x60,self_slot)\n      maxValue := 0\n\n      for { let i := 0 } lt(i, sload(self_slot)) { i := add(i, 1) } {\n        term := sload(add(sha3(0x60,0x20),div(i,16)))\n\n        remainder := mod(i,16)\n\n        for { let j := 0 } lt(j, remainder) { j := add(j, 1) } {\n          term := div(term,65536)\n        }\n\n        term := and(0x000000000000000000000000000000000000000000000000000000000000ffff,term)\n        switch lt(maxValue, term)\n        case 1 {\n          maxValue := term\n        }\n      }\n    }\n  }\n\n  /// @dev Returns the minimum value in an array.\n  /// @param self Storage array containing uint256 type variables\n  /// @return minValue The highest value in the array\n  function getMin(uint16[] storage self) public view returns(uint16 minValue) {\n    uint256 term;\n    uint8 remainder;\n\n    assembly {\n      mstore(0x60,self_slot)\n\n      for { let i := 0 } lt(i, sload(self_slot)) { i := add(i, 1) } {\n        term := sload(add(sha3(0x60,0x20),div(i,16)))\n\n        remainder := mod(i,16)\n\n        for { let j := 0 } lt(j, remainder) { j := add(j, 1) } {\n          term := div(term,65536)\n        }\n\n        term := and(0x000000000000000000000000000000000000000000000000000000000000ffff,term)\n\n        switch eq(i,0)\n        case 1 {\n          minValue := term\n        }\n        switch gt(minValue, term)\n        case 1 {\n          minValue := term\n        }\n      }\n    }\n  }\n\n  /// @dev Finds the index of a given value in an array\n  /// @param self Storage array containing uint256 type variables\n  /// @param value The value to search for\n  /// @param isSorted True if the array is sorted, false otherwise\n  /// @return found True if the value was found, false otherwise\n  /// @return index The index of the given value, returns 0 if found is false\n  function indexOf(uint16[] storage self, uint16 value, bool isSorted)\n           public\n           view\n           returns(bool found, uint256 index) {\n    if (isSorted) {\n        uint256 high = self.length - 1;\n        uint256 mid = 0;\n        uint256 low = 0;\n        while (low <= high) {\n          mid = (low+high)/2;\n          if (self[mid] == value) {\n            found = true;\n            index = mid;\n            low = high + 1;\n          } else if (self[mid] < value) {\n            low = mid + 1;\n          } else {\n            high = mid - 1;\n          }\n        }\n    } else {\n      for (uint256 i = 0; i<self.length; i++) {\n        if (self[i] == value) {\n          found = true;\n          index = i;\n          i = self.length;\n        }\n      }\n    }\n  }\n\n  /// @dev Utility function for heapSort\n  /// @param index The index of child node\n  /// @return pI The parent node index\n  function getParentI(uint256 index) private pure returns (uint256 pI) {\n    uint256 i = index - 1;\n    pI = i/2;\n  }\n\n  /// @dev Utility function for heapSort\n  /// @param index The index of parent node\n  /// @return lcI The index of left child\n  function getLeftChildI(uint256 index) private pure returns (uint256 lcI) {\n    uint256 i = index * 2;\n    lcI = i + 1;\n  }\n\n  /// @dev Sorts given array in place\n  /// @param self Storage array containing uint256 type variables\n  function heapSort(uint16[] storage self) public {\n    uint256 end = self.length - 1;\n    uint256 start = getParentI(end);\n    uint256 root = start;\n    uint256 lChild;\n    uint256 rChild;\n    uint256 swap;\n    uint16 temp;\n    while(start >= 0){\n      root = start;\n      lChild = getLeftChildI(start);\n      while(lChild <= end){\n        rChild = lChild + 1;\n        swap = root;\n        if(self[swap] < self[lChild])\n          swap = lChild;\n        if((rChild <= end) && (self[swap]<self[rChild]))\n          swap = rChild;\n        if(swap == root)\n          lChild = end+1;\n        else {\n          temp = self[swap];\n          self[swap] = self[root];\n          self[root] = temp;\n          root = swap;\n          lChild = getLeftChildI(root);\n        }\n      }\n      if(start == 0)\n        break;\n      else\n        start = start - 1;\n    }\n    while(end > 0){\n      temp = self[end];\n      self[end] = self[0];\n      self[0] = temp;\n      end = end - 1;\n      root = 0;\n      lChild = getLeftChildI(0);\n      while(lChild <= end){\n        rChild = lChild + 1;\n        swap = root;\n        if(self[swap] < self[lChild])\n          swap = lChild;\n        if((rChild <= end) && (self[swap]<self[rChild]))\n          swap = rChild;\n        if(swap == root)\n          lChild = end + 1;\n        else {\n          temp = self[swap];\n          self[swap] = self[root];\n          self[root] = temp;\n          root = swap;\n          lChild = getLeftChildI(root);\n        }\n      }\n    }\n  }\n\n  /// @dev Removes duplicates from a given array.\n  /// @param self Storage array containing uint256 type variables\n  function uniq(uint16[] storage self) public returns (uint256 length) {\n    bool contains;\n    uint256 index;\n\n    for (uint256 i = 0; i < self.length; i++) {\n      (contains, index) = indexOf(self, self[i], false);\n\n      if (i > index) {\n        for (uint256 j = i; j < self.length - 1; j++){\n          self[j] = self[j + 1];\n        }\n\n        delete self[self.length - 1];\n        self.length--;\n        i--;\n      }\n    }\n\n    length = self.length;\n  }\n}\n",
  "sourcePath": "/Users/hackdom/Projects/ethereum-libraries/ArrayUtilsLib/truffle/contracts/Array16Lib.sol",
  "compiler": {
    "name": "solc",
    "version": "0.4.18+commit.9cf6e910.Emscripten.clang"
  },
  "schemaVersion": "1.0.1",
  "updatedAt": "2017-11-26T14:27:22.020Z"
}