{
  "contractName": "Array128Lib",
  "abi": [
    {
      "constant": true,
      "inputs": [
        {
          "name": "self",
          "type": "uint128[] storage"
        },
        {
          "name": "value",
          "type": "uint128"
        },
        {
          "name": "isSorted",
          "type": "bool"
        }
      ],
      "name": "indexOf",
      "outputs": [
        {
          "name": "found",
          "type": "bool"
        },
        {
          "name": "index",
          "type": "uint256"
        }
      ],
      "payable": false,
      "stateMutability": "view",
      "type": "function"
    },
    {
      "constant": false,
      "inputs": [
        {
          "name": "self",
          "type": "uint128[] storage"
        }
      ],
      "name": "uniq",
      "outputs": [
        {
          "name": "length",
          "type": "uint256"
        }
      ],
      "payable": false,
      "stateMutability": "nonpayable",
      "type": "function"
    },
    {
      "constant": true,
      "inputs": [
        {
          "name": "self",
          "type": "uint128[] storage"
        }
      ],
      "name": "sumElements",
      "outputs": [
        {
          "name": "sum",
          "type": "uint256"
        }
      ],
      "payable": false,
      "stateMutability": "view",
      "type": "function"
    },
    {
      "constant": false,
      "inputs": [
        {
          "name": "self",
          "type": "uint128[] storage"
        }
      ],
      "name": "heapSort",
      "outputs": [],
      "payable": false,
      "stateMutability": "nonpayable",
      "type": "function"
    },
    {
      "constant": true,
      "inputs": [
        {
          "name": "self",
          "type": "uint128[] storage"
        }
      ],
      "name": "getMin",
      "outputs": [
        {
          "name": "minValue",
          "type": "uint128"
        }
      ],
      "payable": false,
      "stateMutability": "view",
      "type": "function"
    },
    {
      "constant": true,
      "inputs": [
        {
          "name": "self",
          "type": "uint128[] storage"
        }
      ],
      "name": "getMax",
      "outputs": [
        {
          "name": "maxValue",
          "type": "uint128"
        }
      ],
      "payable": false,
      "stateMutability": "view",
      "type": "function"
    }
  ],
  "bytecode": "0x6060604052341561000f57600080fd5b610ef58061001e6000396000f300606060405260043610610078576000357c0100000000000000000000000000000000000000000000000000000000900463ffffffff16806301e23a221461007d57806339342b7b146100da5780633ab520171461010657806364a1923c14610132578063a609b6771461014a578063a7b5b5521461019a575b600080fd5b6100b960048080359060200190919080356fffffffffffffffffffffffffffffffff1690602001909190803515159060200190919050506101ea565b60405180831515151581526020018281526020019250505060405180910390f35b6100f06004808035906020019091905050610375565b6040518082815260200191505060405180910390f35b61011c6004808035906020019091905050610529565b6040518082815260200191505060405180910390f35b61014860048080359060200190919050506105a2565b005b6101606004808035906020019091905050610d0b565b60405180826fffffffffffffffffffffffffffffffff166fffffffffffffffffffffffffffffffff16815260200191505060405180910390f35b6101b06004808035906020019091905050610daa565b60405180826fffffffffffffffffffffffffffffffff166fffffffffffffffffffffffffffffffff16815260200191505060405180910390f35b600080600085606052836001811461020957600081146102de5761036b565b60018754036000805b82811115156102d657600283820104915060028204602060602001549450600282066001811461024157610264565b60005b60048110156102625764010000000087049650600181019050610244565b505b506fffffffffffffffffffffffffffffffff8516945088851060018114610292576000811461029d576102d0565b6001830191506102d0565b898611600181146102b557600081146102c0576102ce565b6001840394506102ce565b600198508397506001850192505b505b50610212565b50505061036b565b60005b8754811015610369576002810460206060200154925060028106600181146103085761032b565b60005b6004811015610329576401000000008504945060018101905061030b565b505b506fffffffffffffffffffffffffffffffff83169250868314600181146103515761035d565b60019550819450885491505b506001810190506102e1565b505b5050935093915050565b60008060008060008091505b8580549050821015610519576103d886878481548110151561039f57fe5b90600052602060002090600291828204019190066010029054906101000a90046fffffffffffffffffffffffffffffffff1660006101ea565b80945081955050508282111561050c578190505b60018680549050038110156104a457856001820181548110151561040c57fe5b90600052602060002090600291828204019190066010029054906101000a90046fffffffffffffffffffffffffffffffff16868281548110151561044c57fe5b90600052602060002090600291828204019190066010026101000a8154816fffffffffffffffffffffffffffffffff02191690836fffffffffffffffffffffffffffffffff16021790555080806001019150506103ec565b8560018780549050038154811015156104b957fe5b90600052602060002090600291828204019190066010026101000a8154906fffffffffffffffffffffffffffffffff0219169055858054809190600190036105019190610e6a565b508180600190039250505b8180600101925050610381565b8580549050945050505050919050565b60008060008360605260005b845481101561059a576002810460206060200154925060028106915060005b600483028110156105745764010000000084049350600181019050610554565b50826fffffffffffffffffffffffffffffffff1692508383019350600181019050610535565b505050919050565b6000806000806000806000600188805490500396506105c087610e37565b95508594505b6000861015156108ce578594506105dc86610e55565b93505b86841115156108b55760018401925084915087848154811015156105ff57fe5b90600052602060002090600291828204019190066010029054906101000a90046fffffffffffffffffffffffffffffffff166fffffffffffffffffffffffffffffffff16888381548110151561065157fe5b90600052602060002090600291828204019190066010029054906101000a90046fffffffffffffffffffffffffffffffff166fffffffffffffffffffffffffffffffff16101561069f578391505b868311158015610750575087838154811015156106b857fe5b90600052602060002090600291828204019190066010029054906101000a90046fffffffffffffffffffffffffffffffff166fffffffffffffffffffffffffffffffff16888381548110151561070a57fe5b90600052602060002090600291828204019190066010029054906101000a90046fffffffffffffffffffffffffffffffff166fffffffffffffffffffffffffffffffff16105b15610759578291505b8482141561076c576001870193506108b0565b878281548110151561077a57fe5b90600052602060002090600291828204019190066010029054906101000a90046fffffffffffffffffffffffffffffffff16905087858154811015156107bc57fe5b90600052602060002090600291828204019190066010029054906101000a90046fffffffffffffffffffffffffffffffff1688838154811015156107fc57fe5b90600052602060002090600291828204019190066010026101000a8154816fffffffffffffffffffffffffffffffff02191690836fffffffffffffffffffffffffffffffff16021790555080888681548110151561085657fe5b90600052602060002090600291828204019190066010026101000a8154816fffffffffffffffffffffffffffffffff02191690836fffffffffffffffffffffffffffffffff1602179055508194506108ad85610e55565b93505b6105df565b60008614156108c3576108ce565b6001860395506105c6565b5b6000871115610d015787878154811015156108e657fe5b90600052602060002090600291828204019190066010029054906101000a90046fffffffffffffffffffffffffffffffff16905087600081548110151561092957fe5b90600052602060002090600291828204019190066010029054906101000a90046fffffffffffffffffffffffffffffffff16888881548110151561096957fe5b90600052602060002090600291828204019190066010026101000a8154816fffffffffffffffffffffffffffffffff02191690836fffffffffffffffffffffffffffffffff160217905550808860008154811015156109c457fe5b90600052602060002090600291828204019190066010026101000a8154816fffffffffffffffffffffffffffffffff02191690836fffffffffffffffffffffffffffffffff16021790555060018703965060009450610a236000610e55565b93505b8684111515610cfc576001840192508491508784815481101515610a4657fe5b90600052602060002090600291828204019190066010029054906101000a90046fffffffffffffffffffffffffffffffff166fffffffffffffffffffffffffffffffff168883815481101515610a9857fe5b90600052602060002090600291828204019190066010029054906101000a90046fffffffffffffffffffffffffffffffff166fffffffffffffffffffffffffffffffff161015610ae6578391505b868311158015610b9757508783815481101515610aff57fe5b90600052602060002090600291828204019190066010029054906101000a90046fffffffffffffffffffffffffffffffff166fffffffffffffffffffffffffffffffff168883815481101515610b5157fe5b90600052602060002090600291828204019190066010029054906101000a90046fffffffffffffffffffffffffffffffff166fffffffffffffffffffffffffffffffff16105b15610ba0578291505b84821415610bb357600187019350610cf7565b8782815481101515610bc157fe5b90600052602060002090600291828204019190066010029054906101000a90046fffffffffffffffffffffffffffffffff1690508785815481101515610c0357fe5b90600052602060002090600291828204019190066010029054906101000a90046fffffffffffffffffffffffffffffffff168883815481101515610c4357fe5b90600052602060002090600291828204019190066010026101000a8154816fffffffffffffffffffffffffffffffff02191690836fffffffffffffffffffffffffffffffff160217905550808886815481101515610c9d57fe5b90600052602060002090600291828204019190066010026101000a8154816fffffffffffffffffffffffffffffffff02191690836fffffffffffffffffffffffffffffffff160217905550819450610cf485610e55565b93505b610a26565b6108cf565b5050505050505050565b60008060008360605260005b8454811015610da2576002810460206060200154925060028106915060005b60048302811015610d565764010000000084049350600181019050610d36565b50826fffffffffffffffffffffffffffffffff1692506000811460018114610d7d57610d81565b8394505b5082841160018114610d9257610d96565b8394505b50600181019050610d17565b505050919050565b6000806000836060526000925060005b8454811015610e2f576002810460206060200154925060028106915060005b60048302811015610df95764010000000084049350600181019050610dd9565b50826fffffffffffffffffffffffffffffffff16925082841060018114610e1f57610e23565b8394505b50600181019050610dba565b505050919050565b600080600183039050600281811515610e4c57fe5b04915050919050565b60008060028302905060018101915050919050565b815481835581811511610e9f576001016002900481600101600290048360005260206000209182019101610e9e9190610ea4565b5b505050565b610ec691905b80821115610ec2576000816000905550600101610eaa565b5090565b905600a165627a7a723058202e1d373d6f24a3d99bb508734f4518ea8269100d5e32110cebc51d4d9581821c0029",
  "source": "pragma solidity ^0.4.18;\n\n/**\n * @title Array128 Library\n * @author Majoolr.io\n *\n * version 1.1.0\n * Copyright (c) 2017 Majoolr, LLC\n * The MIT License (MIT)\n * https://github.com/Majoolr/ethereum-libraries/blob/master/LICENSE\n *\n *  The Array128 Library provides a few utility functions to work with\n * storage uint128[] types in place. Majoolr provides smart contract services\n * and security reviews for contract deployments in addition to working on open\n * source projects in the Ethereum community. Our purpose is to test, document,\n * and deploy reusable code onto the blockchain and improve both security and\n * usability. We also educate non-profits, schools, and other community members\n * about the application of blockchain technology.\n * For further information: majoolr.io\n *\n * THE SOFTWARE IS PROVIDED \"AS IS\", WITHOUT WARRANTY OF ANY KIND, EXPRESS\n * OR IMPLIED, INCLUDING BUT NOT LIMITED TO THE WARRANTIES OF\n * MERCHANTABILITY, FITNESS FOR A PARTICULAR PURPOSE AND NONINFRINGEMENT.\n * IN NO EVENT SHALL THE AUTHORS OR COPYRIGHT HOLDERS BE LIABLE FOR ANY\n * CLAIM, DAMAGES OR OTHER LIABILITY, WHETHER IN AN ACTION OF CONTRACT,\n * TORT OR OTHERWISE, ARISING FROM, OUT OF OR IN CONNECTION WITH THE\n * SOFTWARE OR THE USE OR OTHER DEALINGS IN THE SOFTWARE.\n */\n\nlibrary Array128Lib {\n\n  /// @dev Sum vector\n  /// @param self Storage array containing uint256 type variables\n  /// @return sum The sum of all elements, does not check for overflow\n  function sumElements(uint128[] storage self) public view returns(uint256 sum) {\n    uint256 term;\n    uint8 remainder;\n\n    assembly {\n      mstore(0x60,self_slot)\n\n      for { let i := 0 } lt(i, sload(self_slot)) { i := add(i, 1) } {\n        term := sload(add(sha3(0x60,0x20),div(i,2)))\n\n        remainder := mod(i,2)\n\n        for { let j := 0 } lt(j, mul(remainder, 4)) { j := add(j, 1) } {\n          term := div(term,4294967296)\n        }\n\n        term := and(0x00000000000000000000000000000000ffffffffffffffffffffffffffffffff,term)\n        sum := add(term,sum)\n\n      }\n    }\n  }\n\n  /// @dev Returns the max value in an array.\n  /// @param self Storage array containing uint256 type variables\n  /// @return maxValue The highest value in the array\n  function getMax(uint128[] storage self) public view returns(uint128 maxValue) {\n    uint256 term;\n    uint8 remainder;\n\n    assembly {\n      mstore(0x60,self_slot)\n      maxValue := 0\n\n      for { let i := 0 } lt(i, sload(self_slot)) { i := add(i, 1) } {\n        term := sload(add(sha3(0x60,0x20),div(i,2)))\n\n        remainder := mod(i,2)\n\n        for { let j := 0 } lt(j, mul(remainder, 4)) { j := add(j, 1) } {\n          term := div(term,4294967296)\n        }\n\n        term := and(0x00000000000000000000000000000000ffffffffffffffffffffffffffffffff,term)\n        switch lt(maxValue, term)\n        case 1 {\n          maxValue := term\n        }\n      }\n    }\n  }\n\n  /// @dev Returns the minimum value in an array.\n  /// @param self Storage array containing uint256 type variables\n  /// @return minValue The highest value in the array\n  function getMin(uint128[] storage self) public view returns(uint128 minValue) {\n    uint256 term;\n    uint8 remainder;\n\n    assembly {\n      mstore(0x60,self_slot)\n\n      for { let i := 0 } lt(i, sload(self_slot)) { i := add(i, 1) } {\n        term := sload(add(sha3(0x60,0x20),div(i,2)))\n\n        remainder := mod(i,2)\n\n        for { let j := 0 } lt(j, mul(remainder, 4)) { j := add(j, 1) } {\n          term := div(term,4294967296)\n        }\n\n        term := and(0x00000000000000000000000000000000ffffffffffffffffffffffffffffffff,term)\n        switch eq(i,0)\n        case 1 {\n          minValue := term\n        }\n        switch gt(minValue, term)\n        case 1 {\n          minValue := term\n        }\n      }\n    }\n  }\n\n  /// @dev Finds the index of a given value in an array\n  /// @param self Storage array containing uint256 type variables\n  /// @param value The value to search for\n  /// @param isSorted True if the array is sorted, false otherwise\n  /// @return found True if the value was found, false otherwise\n  /// @return index The index of the given value, returns 0 if found is false\n  function indexOf(uint128[] storage self, uint128 value, bool isSorted)\n           public\n           view\n           returns(bool found, uint256 index) {\n    uint256 term;\n    assembly{\n      mstore(0x60,self_slot)\n      switch isSorted\n      case 1 {\n        let high := sub(sload(self_slot),1)\n        let mid := 0\n        let low := 0\n        for { } iszero(gt(low, high)) { } {\n          mid := div(add(low,high),2)\n          term := sload(add(sha3(0x60,0x20),div(mid,2)))\n\n          switch mod(mid,2)\n          case 1 {\n            for { let j := 0 } lt(j, 4) { j := add(j, 1) } {\n              term := div(term,4294967296)\n            }\n          }\n\n          term := and(term,0x00000000000000000000000000000000ffffffffffffffffffffffffffffffff)\n\n          switch lt(term,value)\n          case 1 {\n             low := add(mid,1)\n          }\n          case 0 {\n            switch gt(term,value)\n            case 1 {\n              high := sub(mid,1)\n            }\n            case 0 {\n              found := 1\n              index := mid\n              low := add(high,1)\n            }\n          }\n        }\n      }\n      case 0 {\n        for { let i := 0 } lt(i, sload(self_slot)) { i := add(i, 1) } {\n          term := sload(add(sha3(0x60,0x20),div(i,2)))\n          switch mod(i,2)\n          case 1 {\n            for { let j := 0 } lt(j, 4) { j := add(j, 1) } {\n              term := div(term,4294967296)\n            }\n          }\n\n          term := and(term,0x00000000000000000000000000000000ffffffffffffffffffffffffffffffff)\n\n          switch eq(term, value)\n          case 1 {\n            found := 1\n            index := i\n            i := sload(self_slot)\n          }\n        }\n      }\n    }\n  }\n\n  /// @dev Utility function for heapSort\n  /// @param index The index of child node\n  /// @return pI The parent node index\n  function getParentI(uint256 index) private pure returns (uint256 pI) {\n    uint256 i = index - 1;\n    pI = i/2;\n  }\n\n  /// @dev Utility function for heapSort\n  /// @param index The index of parent node\n  /// @return lcI The index of left child\n  function getLeftChildI(uint256 index) private pure returns (uint256 lcI) {\n    uint256 i = index * 2;\n    lcI = i + 1;\n  }\n\n  /// @dev Sorts given array in place\n  /// @param self Storage array containing uint256 type variables\n  function heapSort(uint128[] storage self) public {\n    uint256 end = self.length - 1;\n    uint256 start = getParentI(end);\n    uint256 root = start;\n    uint256 lChild;\n    uint256 rChild;\n    uint256 swap;\n    uint128 temp;\n    while(start >= 0){\n      root = start;\n      lChild = getLeftChildI(start);\n      while(lChild <= end){\n        rChild = lChild + 1;\n        swap = root;\n        if(self[swap] < self[lChild])\n          swap = lChild;\n        if((rChild <= end) && (self[swap]<self[rChild]))\n          swap = rChild;\n        if(swap == root)\n          lChild = end+1;\n        else {\n          temp = self[swap];\n          self[swap] = self[root];\n          self[root] = temp;\n          root = swap;\n          lChild = getLeftChildI(root);\n        }\n      }\n      if(start == 0)\n        break;\n      else\n        start = start - 1;\n    }\n    while(end > 0){\n      temp = self[end];\n      self[end] = self[0];\n      self[0] = temp;\n      end = end - 1;\n      root = 0;\n      lChild = getLeftChildI(0);\n      while(lChild <= end){\n        rChild = lChild + 1;\n        swap = root;\n        if(self[swap] < self[lChild])\n          swap = lChild;\n        if((rChild <= end) && (self[swap]<self[rChild]))\n          swap = rChild;\n        if(swap == root)\n          lChild = end + 1;\n        else {\n          temp = self[swap];\n          self[swap] = self[root];\n          self[root] = temp;\n          root = swap;\n          lChild = getLeftChildI(root);\n        }\n      }\n    }\n  }\n\n  /// @dev Removes duplicates from a given array.\n  /// @param self Storage array containing uint256 type variables\n  function uniq(uint128[] storage self) public returns (uint256 length) {\n    bool contains;\n    uint256 index;\n\n    for (uint256 i = 0; i < self.length; i++) {\n      (contains, index) = indexOf(self, self[i], false);\n\n      if (i > index) {\n        for (uint256 j = i; j < self.length - 1; j++){\n          self[j] = self[j + 1];\n        }\n\n        delete self[self.length - 1];\n        self.length--;\n        i--;\n      }\n    }\n\n    length = self.length;\n  }\n}\n",
  "sourcePath": "/Users/hackdom/Projects/ethereum-libraries/ArrayUtilsLib/truffle/contracts/Array128Lib.sol",
  "compiler": {
    "name": "solc",
    "version": "0.4.18+commit.9cf6e910.Emscripten.clang"
  },
  "schemaVersion": "1.0.1",
  "updatedAt": "2017-11-26T14:27:22.017Z"
}