{
  "contractName": "Array8Lib",
  "abi": [
    {
      "constant": true,
      "inputs": [
        {
          "name": "self",
          "type": "uint8[] storage"
        }
      ],
      "name": "sumElements",
      "outputs": [
        {
          "name": "sum",
          "type": "uint256"
        }
      ],
      "payable": false,
      "stateMutability": "view",
      "type": "function"
    },
    {
      "constant": true,
      "inputs": [
        {
          "name": "self",
          "type": "uint8[] storage"
        }
      ],
      "name": "getMax",
      "outputs": [
        {
          "name": "maxValue",
          "type": "uint8"
        }
      ],
      "payable": false,
      "stateMutability": "view",
      "type": "function"
    },
    {
      "constant": false,
      "inputs": [
        {
          "name": "self",
          "type": "uint8[] storage"
        }
      ],
      "name": "heapSort",
      "outputs": [],
      "payable": false,
      "stateMutability": "nonpayable",
      "type": "function"
    },
    {
      "constant": true,
      "inputs": [
        {
          "name": "self",
          "type": "uint8[] storage"
        }
      ],
      "name": "getMin",
      "outputs": [
        {
          "name": "minValue",
          "type": "uint8"
        }
      ],
      "payable": false,
      "stateMutability": "view",
      "type": "function"
    },
    {
      "constant": false,
      "inputs": [
        {
          "name": "self",
          "type": "uint8[] storage"
        }
      ],
      "name": "uniq",
      "outputs": [
        {
          "name": "length",
          "type": "uint256"
        }
      ],
      "payable": false,
      "stateMutability": "nonpayable",
      "type": "function"
    },
    {
      "constant": true,
      "inputs": [
        {
          "name": "self",
          "type": "uint8[] storage"
        },
        {
          "name": "value",
          "type": "uint8"
        },
        {
          "name": "isSorted",
          "type": "bool"
        }
      ],
      "name": "indexOf",
      "outputs": [
        {
          "name": "found",
          "type": "bool"
        },
        {
          "name": "index",
          "type": "uint256"
        }
      ],
      "payable": false,
      "stateMutability": "view",
      "type": "function"
    }
  ],
  "bytecode": "0x6060604052341561000f57600080fd5b610bd48061001e6000396000f300606060405260043610610078576000357c0100000000000000000000000000000000000000000000000000000000900463ffffffff16806319e5a88c1461007d578063441815ff146100a95780635ca2d782146100db57806394d3273a146100f3578063b0b77baa14610125578063c871890314610151575b600080fd5b610093600480803590602001909190505061019f565b6040518082815260200191505060405180910390f35b6100bf6004808035906020019091905050610203565b604051808260ff1660ff16815260200191505060405180910390f35b6100f1600480803590602001909190505061027b565b005b61010960048080359060200190919050506107bc565b604051808260ff1660ff16815260200191505060405180910390f35b61013b6004808035906020019091905050610846565b6040518082815260200191505060405180910390f35b61017e600480803590602001909190803560ff1690602001909190803515159060200190919050506109a3565b60405180831515151581526020018281526020019250505060405180910390f35b60008060008360605260005b84548110156101fb576020810460206060200154925060208106915060005b828110156101e457610100840493506001810190506101ca565b508260ff16925083830193506001810190506101ab565b505050919050565b6000806000836060526000925060005b8454811015610273576020810460206060200154925060208106915060005b8281101561024c5761010084049350600181019050610232565b508260ff1692508284106001811461026357610267565b8394505b50600181019050610213565b505050919050565b60008060008060008060008088805490501415610297576107b2565b600188805490500396506102aa87610b16565b95508594505b6000861015156104ce578594506102c686610b34565b93505b86841115156104b55760018401925084915087848154811015156102e957fe5b90600052602060002090602091828204019190069054906101000a900460ff1660ff16888381548110151561031a57fe5b90600052602060002090602091828204019190069054906101000a900460ff1660ff161015610347578391505b8683111580156103b65750878381548110151561036057fe5b90600052602060002090602091828204019190069054906101000a900460ff1660ff16888381548110151561039157fe5b90600052602060002090602091828204019190069054906101000a900460ff1660ff16105b156103bf578291505b848214156103d2576001870193506104b0565b87828154811015156103e057fe5b90600052602060002090602091828204019190069054906101000a900460ff169050878581548110151561041057fe5b90600052602060002090602091828204019190069054906101000a900460ff16888381548110151561043e57fe5b90600052602060002090602091828204019190066101000a81548160ff021916908360ff16021790555080888681548110151561047757fe5b90600052602060002090602091828204019190066101000a81548160ff021916908360ff1602179055508194506104ad85610b34565b93505b6102c9565b60008614156104c3576104ce565b6001860395506102b0565b5b60008711156107b15787878154811015156104e657fe5b90600052602060002090602091828204019190069054906101000a900460ff16905087600081548110151561051757fe5b90600052602060002090602091828204019190069054906101000a900460ff16888881548110151561054557fe5b90600052602060002090602091828204019190066101000a81548160ff021916908360ff1602179055508088600081548110151561057f57fe5b90600052602060002090602091828204019190066101000a81548160ff021916908360ff160217905550600187039650600094506105bd6000610b34565b93505b86841115156107ac5760018401925084915087848154811015156105e057fe5b90600052602060002090602091828204019190069054906101000a900460ff1660ff16888381548110151561061157fe5b90600052602060002090602091828204019190069054906101000a900460ff1660ff16101561063e578391505b8683111580156106ad5750878381548110151561065757fe5b90600052602060002090602091828204019190069054906101000a900460ff1660ff16888381548110151561068857fe5b90600052602060002090602091828204019190069054906101000a900460ff1660ff16105b156106b6578291505b848214156106c9576001870193506107a7565b87828154811015156106d757fe5b90600052602060002090602091828204019190069054906101000a900460ff169050878581548110151561070757fe5b90600052602060002090602091828204019190069054906101000a900460ff16888381548110151561073557fe5b90600052602060002090602091828204019190066101000a81548160ff021916908360ff16021790555080888681548110151561076e57fe5b90600052602060002090602091828204019190066101000a81548160ff021916908360ff1602179055508194506107a485610b34565b93505b6105c0565b6104cf565b5b5050505050505050565b60008060008360605260005b845481101561083e576020810460206060200154925060208106915060005b8281101561080157610100840493506001810190506107e7565b508260ff16925060008114600181146108195761081d565b8394505b508284116001811461082e57610832565b8394505b506001810190506107c8565b505050919050565b60008060008060008091505b85805490508210156109935761089786878481548110151561087057fe5b90600052602060002090602091828204019190069054906101000a900460ff1660006109a3565b809450819550505082821115610986578190505b60018680549050038110156109305785600182018154811015156108cb57fe5b90600052602060002090602091828204019190069054906101000a900460ff1686828154811015156108f957fe5b90600052602060002090602091828204019190066101000a81548160ff021916908360ff16021790555080806001019150506108ab565b85600187805490500381548110151561094557fe5b90600052602060002090602091828204019190066101000a81549060ff02191690558580548091906001900361097b9190610b49565b508180600190039250505b8180600101925050610852565b8580549050945050505050919050565b6000806000806000806000898054905014156109c85760008080905095509550610b0a565b8615610aa0576001898054905003935060009250600091505b8382111515610a9b5760028483018115156109f857fe5b0492508760ff168984815481101515610a0d57fe5b90600052602060002090602091828204019190069054906101000a900460ff1660ff161415610a485760019550829450600184019150610a96565b8760ff168984815481101515610a5a57fe5b90600052602060002090602091828204019190069054906101000a900460ff1660ff161015610a8e57600183019150610a95565b6001830393505b5b6109e1565b610b09565b600090505b8880549050811015610b08578760ff168982815481101515610ac357fe5b90600052602060002090602091828204019190069054906101000a900460ff1660ff161415610afb5760019550809450888054905090505b8080600101915050610aa5565b5b5b50505050935093915050565b600080600183039050600281811515610b2b57fe5b04915050919050565b60008060028302905060018101915050919050565b815481835581811511610b7e57601f016020900481601f01602090048360005260206000209182019101610b7d9190610b83565b5b505050565b610ba591905b80821115610ba1576000816000905550600101610b89565b5090565b905600a165627a7a72305820ce061f6ae703229d1b026c6b6c617da0cf2d2471027358c91a5da67fe456a0a90029",
  "source": "pragma solidity ^0.4.18;\n\n/**\n * @title Array8 Library\n * @author Modular Inc, https://modular.network\n *\n * version 1.1.0\n * Copyright (c) 2017 Modular, Inc\n * The MIT License (MIT)\n * https://github.com/Modular-Network/ethereum-libraries/blob/master/LICENSE\n *\n * The Array8 Library provides a few utility functions to work with\n * storage uint8[] types in place. Modular provides smart contract services\n * and security reviews for contract deployments in addition to working on open\n * source projects in the Ethereum community. Our purpose is to test, document,\n * and deploy reusable code onto the blockchain and improve both security and\n * usability. We also educate non-profits, schools, and other community members\n * about the application of blockchain technology.\n * For further information: modular.network\n *\n * THE SOFTWARE IS PROVIDED \"AS IS\", WITHOUT WARRANTY OF ANY KIND, EXPRESS\n * OR IMPLIED, INCLUDING BUT NOT LIMITED TO THE WARRANTIES OF\n * MERCHANTABILITY, FITNESS FOR A PARTICULAR PURPOSE AND NONINFRINGEMENT.\n * IN NO EVENT SHALL THE AUTHORS OR COPYRIGHT HOLDERS BE LIABLE FOR ANY\n * CLAIM, DAMAGES OR OTHER LIABILITY, WHETHER IN AN ACTION OF CONTRACT,\n * TORT OR OTHERWISE, ARISING FROM, OUT OF OR IN CONNECTION WITH THE\n * SOFTWARE OR THE USE OR OTHER DEALINGS IN THE SOFTWARE.\n */\n\nlibrary Array8Lib {\n\n  /// @dev Sum vector\n  /// @param self Storage array containing uint256 type variables\n  /// @return sum The sum of all elements, does not check for overflow\n  function sumElements(uint8[] storage self) public view returns(uint256 sum) {\n    uint256 term;\n    uint8 remainder;\n\n    assembly {\n      mstore(0x60,self_slot)\n\n      for { let i := 0 } lt(i, sload(self_slot)) { i := add(i, 1) } {\n        term := sload(add(sha3(0x60,0x20),div(i,32)))\n\n        remainder := mod(i,32)\n\n        for { let j := 0 } lt(j, remainder) { j := add(j, 1) } {\n          term := div(term,256)\n        }\n\n        term := and(0x00000000000000000000000000000000000000000000000000000000000000ff,term)\n        sum := add(term,sum)\n\n      }\n    }\n  }\n\n  /// @dev Returns the max value in an array.\n  /// @param self Storage array containing uint256 type variables\n  /// @return maxValue The highest value in the array\n  function getMax(uint8[] storage self) public view returns(uint8 maxValue) {\n    uint256 term;\n    uint8 remainder;\n\n    assembly {\n      mstore(0x60,self_slot)\n      maxValue := 0\n\n      for { let i := 0 } lt(i, sload(self_slot)) { i := add(i, 1) } {\n        term := sload(add(sha3(0x60,0x20),div(i,32)))\n\n        remainder := mod(i,32)\n\n        for { let j := 0 } lt(j, remainder) { j := add(j, 1) } {\n          term := div(term,256)\n        }\n\n        term := and(0x00000000000000000000000000000000000000000000000000000000000000ff,term)\n        switch lt(maxValue, term)\n        case 1 {\n          maxValue := term\n        }\n      }\n    }\n  }\n\n  /// @dev Returns the minimum value in an array.\n  /// @param self Storage array containing uint256 type variables\n  /// @return minValue The highest value in the array\n  function getMin(uint8[] storage self) public view returns(uint8 minValue) {\n    uint256 term;\n    uint8 remainder;\n\n    assembly {\n      mstore(0x60,self_slot)\n\n      for { let i := 0 } lt(i, sload(self_slot)) { i := add(i, 1) } {\n        term := sload(add(sha3(0x60,0x20),div(i,32)))\n\n        remainder := mod(i,32)\n\n        for { let j := 0 } lt(j, remainder) { j := add(j, 1) } {\n          term := div(term,256)\n        }\n\n        term := and(0x00000000000000000000000000000000000000000000000000000000000000ff,term)\n        switch eq(i,0)\n        case 1 {\n          minValue := term\n        }\n        switch gt(minValue, term)\n        case 1 {\n          minValue := term\n        }\n      }\n    }\n  }\n\n  /// @dev Finds the index of a given value in an array\n  /// @param self Storage array containing uint256 type variables\n  /// @param value The value to search for\n  /// @param isSorted True if the array is sorted, false otherwise\n  /// @return found True if the value was found, false otherwise\n  /// @return index The index of the given value, returns 0 if found is false\n  function indexOf(uint8[] storage self, uint8 value, bool isSorted)\n           public\n           view\n           returns(bool found, uint256 index) {\n    if (self.length == 0) {\n        return (false, 0);\n    }\n    if (isSorted) {\n        uint256 high = self.length - 1;\n        uint256 mid = 0;\n        uint256 low = 0;\n        while (low <= high) {\n          mid = (low+high)/2;\n          if (self[mid] == value) {\n            found = true;\n            index = mid;\n            low = high + 1;\n          } else if (self[mid] < value) {\n            low = mid + 1;\n          } else {\n            high = mid - 1;\n          }\n        }\n    } else {\n      for (uint256 i = 0; i<self.length; i++) {\n        if (self[i] == value) {\n          found = true;\n          index = i;\n          i = self.length;\n        }\n      }\n    }\n  }\n\n  /// @dev Utility function for heapSort\n  /// @param index The index of child node\n  /// @return pI The parent node index\n  function getParentI(uint256 index) private pure returns (uint256 pI) {\n    uint256 i = index - 1;\n    pI = i/2;\n  }\n\n  /// @dev Utility function for heapSort\n  /// @param index The index of parent node\n  /// @return lcI The index of left child\n  function getLeftChildI(uint256 index) private pure returns (uint256 lcI) {\n    uint256 i = index * 2;\n    lcI = i + 1;\n  }\n\n  /// @dev Sorts given array in place\n  /// @param self Storage array containing uint256 type variables\n  function heapSort(uint8[] storage self) public {\n    if (self.length == 0) {\n        return;\n    }\n    uint256 end = self.length - 1;\n    uint256 start = getParentI(end);\n    uint256 root = start;\n    uint256 lChild;\n    uint256 rChild;\n    uint256 swap;\n    uint8 temp;\n    while(start >= 0){\n      root = start;\n      lChild = getLeftChildI(start);\n      while(lChild <= end){\n        rChild = lChild + 1;\n        swap = root;\n        if(self[swap] < self[lChild])\n          swap = lChild;\n        if((rChild <= end) && (self[swap]<self[rChild]))\n          swap = rChild;\n        if(swap == root)\n          lChild = end+1;\n        else {\n          temp = self[swap];\n          self[swap] = self[root];\n          self[root] = temp;\n          root = swap;\n          lChild = getLeftChildI(root);\n        }\n      }\n      if(start == 0)\n        break;\n      else\n        start = start - 1;\n    }\n    while(end > 0){\n      temp = self[end];\n      self[end] = self[0];\n      self[0] = temp;\n      end = end - 1;\n      root = 0;\n      lChild = getLeftChildI(0);\n      while(lChild <= end){\n        rChild = lChild + 1;\n        swap = root;\n        if(self[swap] < self[lChild])\n          swap = lChild;\n        if((rChild <= end) && (self[swap]<self[rChild]))\n          swap = rChild;\n        if(swap == root)\n          lChild = end + 1;\n        else {\n          temp = self[swap];\n          self[swap] = self[root];\n          self[root] = temp;\n          root = swap;\n          lChild = getLeftChildI(root);\n        }\n      }\n    }\n  }\n\n  /// @dev Removes duplicates from a given array.\n  /// @param self Storage array containing uint256 type variables\n  function uniq(uint8[] storage self) public returns (uint256 length) {\n    bool contains;\n    uint256 index;\n\n    for (uint256 i = 0; i < self.length; i++) {\n      (contains, index) = indexOf(self, self[i], false);\n\n      if (i > index) {\n        for (uint256 j = i; j < self.length - 1; j++){\n          self[j] = self[j + 1];\n        }\n\n        delete self[self.length - 1];\n        self.length--;\n        i--;\n      }\n    }\n\n    length = self.length;\n  }\n}\n",
  "sourcePath": "/Users/joshuahannan/repository/modular/ethereum-libraries/ArrayUtilsLib/truffle/contracts/Array8Lib.sol",
  "compiler": {
    "name": "solc",
    "version": "0.4.18+commit.9cf6e910.Emscripten.clang"
  },
  "schemaVersion": "1.0.1",
  "updatedAt": "2018-02-14T17:47:39.195Z"
}