{
  "contractName": "Array32Lib",
  "abi": [
    {
      "constant": true,
      "inputs": [
        {
          "name": "self",
          "type": "uint32[] storage"
        }
      ],
      "name": "getMax",
      "outputs": [
        {
          "name": "maxValue",
          "type": "uint32"
        }
      ],
      "payable": false,
      "stateMutability": "view",
      "type": "function"
    },
    {
      "constant": true,
      "inputs": [
        {
          "name": "self",
          "type": "uint32[] storage"
        }
      ],
      "name": "sumElements",
      "outputs": [
        {
          "name": "sum",
          "type": "uint256"
        }
      ],
      "payable": false,
      "stateMutability": "view",
      "type": "function"
    },
    {
      "constant": false,
      "inputs": [
        {
          "name": "self",
          "type": "uint32[] storage"
        }
      ],
      "name": "heapSort",
      "outputs": [],
      "payable": false,
      "stateMutability": "nonpayable",
      "type": "function"
    },
    {
      "constant": false,
      "inputs": [
        {
          "name": "self",
          "type": "uint32[] storage"
        }
      ],
      "name": "uniq",
      "outputs": [
        {
          "name": "length",
          "type": "uint256"
        }
      ],
      "payable": false,
      "stateMutability": "nonpayable",
      "type": "function"
    },
    {
      "constant": true,
      "inputs": [
        {
          "name": "self",
          "type": "uint32[] storage"
        }
      ],
      "name": "getMin",
      "outputs": [
        {
          "name": "minValue",
          "type": "uint32"
        }
      ],
      "payable": false,
      "stateMutability": "view",
      "type": "function"
    },
    {
      "constant": true,
      "inputs": [
        {
          "name": "self",
          "type": "uint32[] storage"
        },
        {
          "name": "value",
          "type": "uint32"
        },
        {
          "name": "isSorted",
          "type": "bool"
        }
      ],
      "name": "indexOf",
      "outputs": [
        {
          "name": "found",
          "type": "bool"
        },
        {
          "name": "index",
          "type": "uint256"
        }
      ],
      "payable": false,
      "stateMutability": "view",
      "type": "function"
    }
  ],
  "bytecode": "0x6060604052341561000f57600080fd5b610ca78061001e6000396000f300606060405260043610610078576000357c0100000000000000000000000000000000000000000000000000000000900463ffffffff1680631b0c09fa1461007d57806328d9634f146100b557806331bec01f146100e15780636f77715a146100f95780639a07db0214610125578063f2f4ae811461015d575b600080fd5b61009360048080359060200190919050506101ae565b604051808263ffffffff1663ffffffff16815260200191505060405180910390f35b6100cb600480803590602001909190505061022c565b6040518082815260200191505060405180910390f35b6100f76004808035906020019091905050610296565b005b61010f6004808035906020019091905050610867565b6040518082815260200191505060405180910390f35b61013b60048080359060200190919050506109df565b604051808263ffffffff1663ffffffff16815260200191505060405180910390f35b61018d600480803590602001909190803563ffffffff169060200190919080351515906020019091905050610a6f565b60405180831515151581526020018281526020019250505060405180910390f35b6000806000836060526000925060005b8454811015610224576008810460206060200154925060088106915060005b828110156101fa57640100000000840493506001810190506101dd565b508263ffffffff1692508284106001811461021457610218565b8394505b506001810190506101be565b505050919050565b60008060008360605260005b845481101561028e576008810460206060200154925060088106915060005b828110156102745764010000000084049350600181019050610257565b508263ffffffff1692508383019350600181019050610238565b505050919050565b6000806000806000806000600188805490500396506102b487610be9565b95508594505b60008610151561051a578594506102d086610c07565b93505b86841115156105015760018401925084915087848154811015156102f357fe5b90600052602060002090600891828204019190066004029054906101000a900463ffffffff1663ffffffff16888381548110151561032d57fe5b90600052602060002090600891828204019190066004029054906101000a900463ffffffff1663ffffffff161015610363578391505b8683111580156103e45750878381548110151561037c57fe5b90600052602060002090600891828204019190066004029054906101000a900463ffffffff1663ffffffff1688838154811015156103b657fe5b90600052602060002090600891828204019190066004029054906101000a900463ffffffff1663ffffffff16105b156103ed578291505b84821415610400576001870193506104fc565b878281548110151561040e57fe5b90600052602060002090600891828204019190066004029054906101000a900463ffffffff169050878581548110151561044457fe5b90600052602060002090600891828204019190066004029054906101000a900463ffffffff16888381548110151561047857fe5b90600052602060002090600891828204019190066004026101000a81548163ffffffff021916908363ffffffff1602179055508088868154811015156104ba57fe5b90600052602060002090600891828204019190066004026101000a81548163ffffffff021916908363ffffffff1602179055508194506104f985610c07565b93505b6102d3565b600086141561050f5761051a565b6001860395506102ba565b5b600087111561085d57878781548110151561053257fe5b90600052602060002090600891828204019190066004029054906101000a900463ffffffff16905087600081548110151561056957fe5b90600052602060002090600891828204019190066004029054906101000a900463ffffffff16888881548110151561059d57fe5b90600052602060002090600891828204019190066004026101000a81548163ffffffff021916908363ffffffff160217905550808860008154811015156105e057fe5b90600052602060002090600891828204019190066004026101000a81548163ffffffff021916908363ffffffff160217905550600187039650600094506106276000610c07565b93505b868411151561085857600184019250849150878481548110151561064a57fe5b90600052602060002090600891828204019190066004029054906101000a900463ffffffff1663ffffffff16888381548110151561068457fe5b90600052602060002090600891828204019190066004029054906101000a900463ffffffff1663ffffffff1610156106ba578391505b86831115801561073b575087838154811015156106d357fe5b90600052602060002090600891828204019190066004029054906101000a900463ffffffff1663ffffffff16888381548110151561070d57fe5b90600052602060002090600891828204019190066004029054906101000a900463ffffffff1663ffffffff16105b15610744578291505b8482141561075757600187019350610853565b878281548110151561076557fe5b90600052602060002090600891828204019190066004029054906101000a900463ffffffff169050878581548110151561079b57fe5b90600052602060002090600891828204019190066004029054906101000a900463ffffffff1688838154811015156107cf57fe5b90600052602060002090600891828204019190066004026101000a81548163ffffffff021916908363ffffffff16021790555080888681548110151561081157fe5b90600052602060002090600891828204019190066004026101000a81548163ffffffff021916908363ffffffff16021790555081945061085085610c07565b93505b61062a565b61051b565b5050505050505050565b60008060008060008091505b85805490508210156109cf576108be86878481548110151561089157fe5b90600052602060002090600891828204019190066004029054906101000a900463ffffffff166000610a6f565b8094508195505050828211156109c2578190505b60018680549050038110156109665785600182018154811015156108f257fe5b90600052602060002090600891828204019190066004029054906101000a900463ffffffff16868281548110151561092657fe5b90600052602060002090600891828204019190066004026101000a81548163ffffffff021916908363ffffffff16021790555080806001019150506108d2565b85600187805490500381548110151561097b57fe5b90600052602060002090600891828204019190066004026101000a81549063ffffffff0219169055858054809190600190036109b79190610c1c565b508180600190039250505b8180600101925050610873565b8580549050945050505050919050565b60008060008360605260005b8454811015610a67576008810460206060200154925060088106915060005b82811015610a275764010000000084049350600181019050610a0a565b508263ffffffff1692506000811460018114610a4257610a46565b8394505b5082841160018114610a5757610a5b565b8394505b506001810190506109eb565b505050919050565b6000806000806000808615610b68576001898054905003935060009250600091505b8382111515610b63576002848301811515610aa857fe5b0492508763ffffffff168984815481101515610ac057fe5b90600052602060002090600891828204019190066004029054906101000a900463ffffffff1663ffffffff161415610b045760019550829450600184019150610b5e565b8763ffffffff168984815481101515610b1957fe5b90600052602060002090600891828204019190066004029054906101000a900463ffffffff1663ffffffff161015610b5657600183019150610b5d565b6001830393505b5b610a91565b610bdd565b600090505b8880549050811015610bdc578763ffffffff168982815481101515610b8e57fe5b90600052602060002090600891828204019190066004029054906101000a900463ffffffff1663ffffffff161415610bcf5760019550809450888054905090505b8080600101915050610b6d565b5b50505050935093915050565b600080600183039050600281811515610bfe57fe5b04915050919050565b60008060028302905060018101915050919050565b815481835581811511610c51576007016008900481600701600890048360005260206000209182019101610c509190610c56565b5b505050565b610c7891905b80821115610c74576000816000905550600101610c5c565b5090565b905600a165627a7a7230582099f15f5731843a951979a33b62a410f2bb0f4039e2d7eeac80398beabb67f3330029",
  "source": "pragma solidity ^0.4.18;\n\n/**\n * @title Array32 Library\n * @author Majoolr.io\n *\n * version 1.1.0\n * Copyright (c) 2017 Majoolr, LLC\n * The MIT License (MIT)\n * https://github.com/Majoolr/ethereum-libraries/blob/master/LICENSE\n *\n * The Array32 Library provides a few utility functions to work with\n * storage uint32[] types in place. Majoolr provides smart contract services\n * and security reviews for contract deployments in addition to working on open\n * source projects in the Ethereum community. Our purpose is to test, document,\n * and deploy reusable code onto the blockchain and improve both security and\n * usability. We also educate non-profits, schools, and other community members\n * about the application of blockchain technology.\n * For further information: majoolr.io\n *\n * THE SOFTWARE IS PROVIDED \"AS IS\", WITHOUT WARRANTY OF ANY KIND, EXPRESS\n * OR IMPLIED, INCLUDING BUT NOT LIMITED TO THE WARRANTIES OF\n * MERCHANTABILITY, FITNESS FOR A PARTICULAR PURPOSE AND NONINFRINGEMENT.\n * IN NO EVENT SHALL THE AUTHORS OR COPYRIGHT HOLDERS BE LIABLE FOR ANY\n * CLAIM, DAMAGES OR OTHER LIABILITY, WHETHER IN AN ACTION OF CONTRACT,\n * TORT OR OTHERWISE, ARISING FROM, OUT OF OR IN CONNECTION WITH THE\n * SOFTWARE OR THE USE OR OTHER DEALINGS IN THE SOFTWARE.\n */\n\nlibrary Array32Lib {\n\n  /// @dev Sum vector\n  /// @param self Storage array containing uint256 type variables\n  /// @return sum The sum of all elements, does not check for overflow\n  function sumElements(uint32[] storage self) public view returns(uint256 sum) {\n    uint256 term;\n    uint8 remainder;\n\n    assembly {\n      mstore(0x60,self_slot)\n\n      for { let i := 0 } lt(i, sload(self_slot)) { i := add(i, 1) } {\n        term := sload(add(sha3(0x60,0x20),div(i,8)))\n\n        remainder := mod(i,8)\n\n        for { let j := 0 } lt(j, remainder) { j := add(j, 1) } {\n          term := div(term,4294967296)\n        }\n\n        term := and(0x00000000000000000000000000000000000000000000000000000000ffffffff,term)\n        sum := add(term,sum)\n\n      }\n    }\n  }\n\n  /// @dev Returns the max value in an array.\n  /// @param self Storage array containing uint256 type variables\n  /// @return maxValue The highest value in the array\n  function getMax(uint32[] storage self) public view returns(uint32 maxValue) {\n    uint256 term;\n    uint8 remainder;\n\n    assembly {\n      mstore(0x60,self_slot)\n      maxValue := 0\n\n      for { let i := 0 } lt(i, sload(self_slot)) { i := add(i, 1) } {\n        term := sload(add(sha3(0x60,0x20),div(i,8)))\n\n        remainder := mod(i,8)\n\n        for { let j := 0 } lt(j, remainder) { j := add(j, 1) } {\n          term := div(term,4294967296)\n        }\n\n        term := and(0x00000000000000000000000000000000000000000000000000000000ffffffff,term)\n        switch lt(maxValue, term)\n        case 1 {\n          maxValue := term\n        }\n      }\n    }\n  }\n\n  /// @dev Returns the minimum value in an array.\n  /// @param self Storage array containing uint256 type variables\n  /// @return minValue The highest value in the array\n  function getMin(uint32[] storage self) public view returns(uint32 minValue) {\n    uint256 term;\n    uint8 remainder;\n\n    assembly {\n      mstore(0x60,self_slot)\n\n      for { let i := 0 } lt(i, sload(self_slot)) { i := add(i, 1) } {\n        term := sload(add(sha3(0x60,0x20),div(i,8)))\n\n        remainder := mod(i,8)\n\n        for { let j := 0 } lt(j, remainder) { j := add(j, 1) } {\n          term := div(term,4294967296)\n        }\n\n        term := and(0x00000000000000000000000000000000000000000000000000000000ffffffff,term)\n\n        switch eq(i,0)\n        case 1 {\n          minValue := term\n        }\n        switch gt(minValue, term)\n        case 1 {\n          minValue := term\n        }\n      }\n    }\n  }\n\n  /// @dev Finds the index of a given value in an array\n  /// @param self Storage array containing uint256 type variables\n  /// @param value The value to search for\n  /// @param isSorted True if the array is sorted, false otherwise\n  /// @return found True if the value was found, false otherwise\n  /// @return index The index of the given value, returns 0 if found is false\n  function indexOf(uint32[] storage self, uint32 value, bool isSorted)\n           public\n           view\n           returns(bool found, uint256 index) {\n    if (isSorted) {\n        uint256 high = self.length - 1;\n        uint256 mid = 0;\n        uint256 low = 0;\n        while (low <= high) {\n          mid = (low+high)/2;\n          if (self[mid] == value) {\n            found = true;\n            index = mid;\n            low = high + 1;\n          } else if (self[mid] < value) {\n            low = mid + 1;\n          } else {\n            high = mid - 1;\n          }\n        }\n    } else {\n      for (uint256 i = 0; i<self.length; i++) {\n        if (self[i] == value) {\n          found = true;\n          index = i;\n          i = self.length;\n        }\n      }\n    }\n  }\n\n  /// @dev Utility function for heapSort\n  /// @param index The index of child node\n  /// @return pI The parent node index\n  function getParentI(uint256 index) private pure returns (uint256 pI) {\n    uint256 i = index - 1;\n    pI = i/2;\n  }\n\n  /// @dev Utility function for heapSort\n  /// @param index The index of parent node\n  /// @return lcI The index of left child\n  function getLeftChildI(uint256 index) private pure returns (uint256 lcI) {\n    uint256 i = index * 2;\n    lcI = i + 1;\n  }\n\n  /// @dev Sorts given array in place\n  /// @param self Storage array containing uint256 type variables\n  function heapSort(uint32[] storage self) public {\n    uint256 end = self.length - 1;\n    uint256 start = getParentI(end);\n    uint256 root = start;\n    uint256 lChild;\n    uint256 rChild;\n    uint256 swap;\n    uint32 temp;\n    while(start >= 0){\n      root = start;\n      lChild = getLeftChildI(start);\n      while(lChild <= end){\n        rChild = lChild + 1;\n        swap = root;\n        if(self[swap] < self[lChild])\n          swap = lChild;\n        if((rChild <= end) && (self[swap]<self[rChild]))\n          swap = rChild;\n        if(swap == root)\n          lChild = end+1;\n        else {\n          temp = self[swap];\n          self[swap] = self[root];\n          self[root] = temp;\n          root = swap;\n          lChild = getLeftChildI(root);\n        }\n      }\n      if(start == 0)\n        break;\n      else\n        start = start - 1;\n    }\n    while(end > 0){\n      temp = self[end];\n      self[end] = self[0];\n      self[0] = temp;\n      end = end - 1;\n      root = 0;\n      lChild = getLeftChildI(0);\n      while(lChild <= end){\n        rChild = lChild + 1;\n        swap = root;\n        if(self[swap] < self[lChild])\n          swap = lChild;\n        if((rChild <= end) && (self[swap]<self[rChild]))\n          swap = rChild;\n        if(swap == root)\n          lChild = end + 1;\n        else {\n          temp = self[swap];\n          self[swap] = self[root];\n          self[root] = temp;\n          root = swap;\n          lChild = getLeftChildI(root);\n        }\n      }\n    }\n  }\n\n  /// @dev Removes duplicates from a given array.\n  /// @param self Storage array containing uint256 type variables\n  function uniq(uint32[] storage self) public returns (uint256 length) {\n    bool contains;\n    uint256 index;\n\n    for (uint256 i = 0; i < self.length; i++) {\n      (contains, index) = indexOf(self, self[i], false);\n\n      if (i > index) {\n        for (uint256 j = i; j < self.length - 1; j++){\n          self[j] = self[j + 1];\n        }\n\n        delete self[self.length - 1];\n        self.length--;\n        i--;\n      }\n    }\n\n    length = self.length;\n  }\n}\n",
  "sourcePath": "/Users/hackdom/Projects/ethereum-libraries/ArrayUtilsLib/truffle/contracts/Array32Lib.sol",
  "compiler": {
    "name": "solc",
    "version": "0.4.18+commit.9cf6e910.Emscripten.clang"
  },
  "schemaVersion": "1.0.1",
  "updatedAt": "2017-11-26T14:27:22.023Z"
}