{
  "contractName": "Array16Lib",
  "abi": [
    {
      "constant": false,
      "inputs": [
        {
          "name": "self",
          "type": "uint16[] storage"
        }
      ],
      "name": "heapSort",
      "outputs": [],
      "payable": false,
      "stateMutability": "nonpayable",
      "type": "function"
    },
    {
      "constant": true,
      "inputs": [
        {
          "name": "self",
          "type": "uint16[] storage"
        }
      ],
      "name": "sumElements",
      "outputs": [
        {
          "name": "sum",
          "type": "uint256"
        }
      ],
      "payable": false,
      "stateMutability": "view",
      "type": "function"
    },
    {
      "constant": true,
      "inputs": [
        {
          "name": "self",
          "type": "uint16[] storage"
        },
        {
          "name": "value",
          "type": "uint16"
        },
        {
          "name": "isSorted",
          "type": "bool"
        }
      ],
      "name": "indexOf",
      "outputs": [
        {
          "name": "found",
          "type": "bool"
        },
        {
          "name": "index",
          "type": "uint256"
        }
      ],
      "payable": false,
      "stateMutability": "view",
      "type": "function"
    },
    {
      "constant": true,
      "inputs": [
        {
          "name": "self",
          "type": "uint16[] storage"
        }
      ],
      "name": "getMax",
      "outputs": [
        {
          "name": "maxValue",
          "type": "uint16"
        }
      ],
      "payable": false,
      "stateMutability": "view",
      "type": "function"
    },
    {
      "constant": false,
      "inputs": [
        {
          "name": "self",
          "type": "uint16[] storage"
        }
      ],
      "name": "uniq",
      "outputs": [
        {
          "name": "length",
          "type": "uint256"
        }
      ],
      "payable": false,
      "stateMutability": "nonpayable",
      "type": "function"
    },
    {
      "constant": true,
      "inputs": [
        {
          "name": "self",
          "type": "uint16[] storage"
        }
      ],
      "name": "getMin",
      "outputs": [
        {
          "name": "minValue",
          "type": "uint16"
        }
      ],
      "payable": false,
      "stateMutability": "view",
      "type": "function"
    }
  ],
  "bytecode": "0x6060604052341561000f57600080fd5b610c608061001e6000396000f300606060405260043610610078576000357c0100000000000000000000000000000000000000000000000000000000900463ffffffff16806313b704fe1461007d5780632b35407d14610095578063b1df4ec5146100c1578063c59d3b9c14610110578063e23f74ea14610144578063e855c4c814610170575b600080fd5b61009360048080359060200190919050506101a4565b005b6100ab6004808035906020019091905050610743565b6040518082815260200191505060405180910390f35b6100ef600480803590602001909190803561ffff1690602001909190803515159060200190919050506107a9565b60405180831515151581526020018281526020019250505060405180910390f35b610126600480803590602001909190505061092e565b604051808261ffff1661ffff16815260200191505060405180910390f35b61015a60048080359060200190919050506109a8565b6040518082815260200191505060405180910390f35b6101866004808035906020019091905050610b16565b604051808261ffff1661ffff16815260200191505060405180910390f35b600080600080600080600080888054905014156101c057610739565b600188805490500396506101d387610ba2565b95508594505b60008610151561041d578594506101ef86610bc0565b93505b868411151561040457600184019250849150878481548110151561021257fe5b90600052602060002090601091828204019190066002029054906101000a900461ffff1661ffff16888381548110151561024857fe5b90600052602060002090601091828204019190066002029054906101000a900461ffff1661ffff16101561027a578391505b8683111580156102f35750878381548110151561029357fe5b90600052602060002090601091828204019190066002029054906101000a900461ffff1661ffff1688838154811015156102c957fe5b90600052602060002090601091828204019190066002029054906101000a900461ffff1661ffff16105b156102fc578291505b8482141561030f576001870193506103ff565b878281548110151561031d57fe5b90600052602060002090601091828204019190066002029054906101000a900461ffff169050878581548110151561035157fe5b90600052602060002090601091828204019190066002029054906101000a900461ffff16888381548110151561038357fe5b90600052602060002090601091828204019190066002026101000a81548161ffff021916908361ffff1602179055508088868154811015156103c157fe5b90600052602060002090601091828204019190066002026101000a81548161ffff021916908361ffff1602179055508194506103fc85610bc0565b93505b6101f2565b60008614156104125761041d565b6001860395506101d9565b5b600087111561073857878781548110151561043557fe5b90600052602060002090601091828204019190066002029054906101000a900461ffff16905087600081548110151561046a57fe5b90600052602060002090601091828204019190066002029054906101000a900461ffff16888881548110151561049c57fe5b90600052602060002090601091828204019190066002026101000a81548161ffff021916908361ffff160217905550808860008154811015156104db57fe5b90600052602060002090601091828204019190066002026101000a81548161ffff021916908361ffff1602179055506001870396506000945061051e6000610bc0565b93505b868411151561073357600184019250849150878481548110151561054157fe5b90600052602060002090601091828204019190066002029054906101000a900461ffff1661ffff16888381548110151561057757fe5b90600052602060002090601091828204019190066002029054906101000a900461ffff1661ffff1610156105a9578391505b868311158015610622575087838154811015156105c257fe5b90600052602060002090601091828204019190066002029054906101000a900461ffff1661ffff1688838154811015156105f857fe5b90600052602060002090601091828204019190066002029054906101000a900461ffff1661ffff16105b1561062b578291505b8482141561063e5760018701935061072e565b878281548110151561064c57fe5b90600052602060002090601091828204019190066002029054906101000a900461ffff169050878581548110151561068057fe5b90600052602060002090601091828204019190066002029054906101000a900461ffff1688838154811015156106b257fe5b90600052602060002090601091828204019190066002026101000a81548161ffff021916908361ffff1602179055508088868154811015156106f057fe5b90600052602060002090601091828204019190066002026101000a81548161ffff021916908361ffff16021790555081945061072b85610bc0565b93505b610521565b61041e565b5b5050505050505050565b60008060008360605260005b84548110156107a1576010810460206060200154925060108106915060005b8281101561078957620100008404935060018101905061076e565b508261ffff169250838301935060018101905061074f565b505050919050565b6000806000806000806000898054905014156107ce5760008080905095509550610922565b86156108b2576001898054905003935060009250600091505b83821115156108ad5760028483018115156107fe57fe5b0492508761ffff16898481548110151561081457fe5b90600052602060002090601091828204019190066002029054906101000a900461ffff1661ffff16141561085457600195508294506001840191506108a8565b8761ffff16898481548110151561086757fe5b90600052602060002090601091828204019190066002029054906101000a900461ffff1661ffff1610156108a0576001830191506108a7565b6001830393505b5b6107e7565b610921565b600090505b8880549050811015610920578761ffff1689828154811015156108d657fe5b90600052602060002090601091828204019190066002029054906101000a900461ffff1661ffff1614156109135760019550809450888054905090505b80806001019150506108b7565b5b5b50505050935093915050565b6000806000836060526000925060005b84548110156109a0576010810460206060200154925060108106915060005b8281101561097857620100008404935060018101905061095d565b508261ffff1692508284106001811461099057610994565b8394505b5060018101905061093e565b505050919050565b60008060008060008091505b8580549050821015610b06576109fd8687848154811015156109d257fe5b90600052602060002090601091828204019190066002029054906101000a900461ffff1660006107a9565b809450819550505082821115610af9578190505b6001868054905003811015610a9f578560018201815481101515610a3157fe5b90600052602060002090601091828204019190066002029054906101000a900461ffff168682815481101515610a6357fe5b90600052602060002090601091828204019190066002026101000a81548161ffff021916908361ffff1602179055508080600101915050610a11565b856001878054905003815481101515610ab457fe5b90600052602060002090601091828204019190066002026101000a81549061ffff021916905585805480919060019003610aee9190610bd5565b508180600190039250505b81806001019250506109b4565b8580549050945050505050919050565b60008060008360605260005b8454811015610b9a576010810460206060200154925060108106915060005b82811015610b5c576201000084049350600181019050610b41565b508261ffff1692506000811460018114610b7557610b79565b8394505b5082841160018114610b8a57610b8e565b8394505b50600181019050610b22565b505050919050565b600080600183039050600281811515610bb757fe5b04915050919050565b60008060028302905060018101915050919050565b815481835581811511610c0a57600f016010900481600f01601090048360005260206000209182019101610c099190610c0f565b5b505050565b610c3191905b80821115610c2d576000816000905550600101610c15565b5090565b905600a165627a7a723058201a5bbb3032a7ded79884131ed3d3fb1f6bdd58e1e3c2e30c25ac5d377bf0107a0029",
  "source": "pragma solidity ^0.4.18;\n\n/**\n * @title Array16 Library\n * @author Modular Inc, https://modular.network\n *\n * version 1.1.0\n * Copyright (c) 2017 Modular, Inc\n * The MIT License (MIT)\n * https://github.com/Modular-Network/ethereum-libraries/blob/master/LICENSE\n *\n * The Array16 Library provides a few utility functions to work with\n * storage uint16[] types in place. Modular provides smart contract services\n * and security reviews for contract deployments in addition to working on open\n * source projects in the Ethereum community. Our purpose is to test, document,\n * and deploy reusable code onto the blockchain and improve both security and\n * usability. We also educate non-profits, schools, and other community members\n * about the application of blockchain technology.\n * For further information: modular.network\n *\n * THE SOFTWARE IS PROVIDED \"AS IS\", WITHOUT WARRANTY OF ANY KIND, EXPRESS\n * OR IMPLIED, INCLUDING BUT NOT LIMITED TO THE WARRANTIES OF\n * MERCHANTABILITY, FITNESS FOR A PARTICULAR PURPOSE AND NONINFRINGEMENT.\n * IN NO EVENT SHALL THE AUTHORS OR COPYRIGHT HOLDERS BE LIABLE FOR ANY\n * CLAIM, DAMAGES OR OTHER LIABILITY, WHETHER IN AN ACTION OF CONTRACT,\n * TORT OR OTHERWISE, ARISING FROM, OUT OF OR IN CONNECTION WITH THE\n * SOFTWARE OR THE USE OR OTHER DEALINGS IN THE SOFTWARE.\n */\n\nlibrary Array16Lib {\n\n  /// @dev Sum vector\n  /// @param self Storage array containing uint256 type variables\n  /// @return sum The sum of all elements, does not check for overflow\n  function sumElements(uint16[] storage self) public view returns(uint256 sum) {\n    uint256 term;\n    uint8 remainder;\n\n    assembly {\n      mstore(0x60,self_slot)\n\n      for { let i := 0 } lt(i, sload(self_slot)) { i := add(i, 1) } {\n        term := sload(add(sha3(0x60,0x20),div(i,16)))\n\n        remainder := mod(i,16)\n\n        for { let j := 0 } lt(j, remainder) { j := add(j, 1) } {\n          term := div(term,65536)\n        }\n\n        term := and(0x000000000000000000000000000000000000000000000000000000000000ffff,term)\n        sum := add(term,sum)\n\n      }\n    }\n  }\n\n  /// @dev Returns the max value in an array.\n  /// @param self Storage array containing uint256 type variables\n  /// @return maxValue The highest value in the array\n  function getMax(uint16[] storage self) public view returns(uint16 maxValue) {\n    uint256 term;\n    uint8 remainder;\n\n    assembly {\n      mstore(0x60,self_slot)\n      maxValue := 0\n\n      for { let i := 0 } lt(i, sload(self_slot)) { i := add(i, 1) } {\n        term := sload(add(sha3(0x60,0x20),div(i,16)))\n\n        remainder := mod(i,16)\n\n        for { let j := 0 } lt(j, remainder) { j := add(j, 1) } {\n          term := div(term,65536)\n        }\n\n        term := and(0x000000000000000000000000000000000000000000000000000000000000ffff,term)\n        switch lt(maxValue, term)\n        case 1 {\n          maxValue := term\n        }\n      }\n    }\n  }\n\n  /// @dev Returns the minimum value in an array.\n  /// @param self Storage array containing uint256 type variables\n  /// @return minValue The highest value in the array\n  function getMin(uint16[] storage self) public view returns(uint16 minValue) {\n    uint256 term;\n    uint8 remainder;\n\n    assembly {\n      mstore(0x60,self_slot)\n\n      for { let i := 0 } lt(i, sload(self_slot)) { i := add(i, 1) } {\n        term := sload(add(sha3(0x60,0x20),div(i,16)))\n\n        remainder := mod(i,16)\n\n        for { let j := 0 } lt(j, remainder) { j := add(j, 1) } {\n          term := div(term,65536)\n        }\n\n        term := and(0x000000000000000000000000000000000000000000000000000000000000ffff,term)\n\n        switch eq(i,0)\n        case 1 {\n          minValue := term\n        }\n        switch gt(minValue, term)\n        case 1 {\n          minValue := term\n        }\n      }\n    }\n  }\n\n  /// @dev Finds the index of a given value in an array\n  /// @param self Storage array containing uint256 type variables\n  /// @param value The value to search for\n  /// @param isSorted True if the array is sorted, false otherwise\n  /// @return found True if the value was found, false otherwise\n  /// @return index The index of the given value, returns 0 if found is false\n  function indexOf(uint16[] storage self, uint16 value, bool isSorted)\n           public\n           view\n           returns(bool found, uint256 index) {\n    if (self.length == 0) {\n        return (false, 0);\n    }\n    if (isSorted) {\n        uint256 high = self.length - 1;\n        uint256 mid = 0;\n        uint256 low = 0;\n        while (low <= high) {\n          mid = (low+high)/2;\n          if (self[mid] == value) {\n            found = true;\n            index = mid;\n            low = high + 1;\n          } else if (self[mid] < value) {\n            low = mid + 1;\n          } else {\n            high = mid - 1;\n          }\n        }\n    } else {\n      for (uint256 i = 0; i<self.length; i++) {\n        if (self[i] == value) {\n          found = true;\n          index = i;\n          i = self.length;\n        }\n      }\n    }\n  }\n\n  /// @dev Utility function for heapSort\n  /// @param index The index of child node\n  /// @return pI The parent node index\n  function getParentI(uint256 index) private pure returns (uint256 pI) {\n    uint256 i = index - 1;\n    pI = i/2;\n  }\n\n  /// @dev Utility function for heapSort\n  /// @param index The index of parent node\n  /// @return lcI The index of left child\n  function getLeftChildI(uint256 index) private pure returns (uint256 lcI) {\n    uint256 i = index * 2;\n    lcI = i + 1;\n  }\n\n  /// @dev Sorts given array in place\n  /// @param self Storage array containing uint256 type variables\n  function heapSort(uint16[] storage self) public {\n    if (self.length == 0) {\n        return;\n    }\n    uint256 end = self.length - 1;\n    uint256 start = getParentI(end);\n    uint256 root = start;\n    uint256 lChild;\n    uint256 rChild;\n    uint256 swap;\n    uint16 temp;\n    while(start >= 0){\n      root = start;\n      lChild = getLeftChildI(start);\n      while(lChild <= end){\n        rChild = lChild + 1;\n        swap = root;\n        if(self[swap] < self[lChild])\n          swap = lChild;\n        if((rChild <= end) && (self[swap]<self[rChild]))\n          swap = rChild;\n        if(swap == root)\n          lChild = end+1;\n        else {\n          temp = self[swap];\n          self[swap] = self[root];\n          self[root] = temp;\n          root = swap;\n          lChild = getLeftChildI(root);\n        }\n      }\n      if(start == 0)\n        break;\n      else\n        start = start - 1;\n    }\n    while(end > 0){\n      temp = self[end];\n      self[end] = self[0];\n      self[0] = temp;\n      end = end - 1;\n      root = 0;\n      lChild = getLeftChildI(0);\n      while(lChild <= end){\n        rChild = lChild + 1;\n        swap = root;\n        if(self[swap] < self[lChild])\n          swap = lChild;\n        if((rChild <= end) && (self[swap]<self[rChild]))\n          swap = rChild;\n        if(swap == root)\n          lChild = end + 1;\n        else {\n          temp = self[swap];\n          self[swap] = self[root];\n          self[root] = temp;\n          root = swap;\n          lChild = getLeftChildI(root);\n        }\n      }\n    }\n  }\n\n  /// @dev Removes duplicates from a given array.\n  /// @param self Storage array containing uint256 type variables\n  function uniq(uint16[] storage self) public returns (uint256 length) {\n    bool contains;\n    uint256 index;\n\n    for (uint256 i = 0; i < self.length; i++) {\n      (contains, index) = indexOf(self, self[i], false);\n\n      if (i > index) {\n        for (uint256 j = i; j < self.length - 1; j++){\n          self[j] = self[j + 1];\n        }\n\n        delete self[self.length - 1];\n        self.length--;\n        i--;\n      }\n    }\n\n    length = self.length;\n  }\n}\n",
  "sourcePath": "/Users/joshuahannan/repository/modular/ethereum-libraries/ArrayUtilsLib/truffle/contracts/Array16Lib.sol",
  "compiler": {
    "name": "solc",
    "version": "0.4.18+commit.9cf6e910.Emscripten.clang"
  },
  "schemaVersion": "1.0.1",
  "updatedAt": "2018-02-14T17:47:39.174Z"
}