{
  "contractName": "DirectCrowdsaleLib",
  "abi": [
    {
      "constant": true,
      "inputs": [
        {
          "name": "self",
          "type": "DirectCrowdsaleLib.DirectCrowdsaleStorage storage"
        },
        {
          "name": "timestamp",
          "type": "uint256"
        }
      ],
      "name": "getSaleData",
      "outputs": [
        {
          "name": "",
          "type": "uint256[3]"
        }
      ],
      "payable": false,
      "stateMutability": "view",
      "type": "function"
    },
    {
      "constant": true,
      "inputs": [
        {
          "name": "self",
          "type": "DirectCrowdsaleLib.DirectCrowdsaleStorage storage"
        }
      ],
      "name": "crowdsaleEnded",
      "outputs": [
        {
          "name": "",
          "type": "bool"
        }
      ],
      "payable": false,
      "stateMutability": "view",
      "type": "function"
    },
    {
      "constant": false,
      "inputs": [
        {
          "name": "self",
          "type": "DirectCrowdsaleLib.DirectCrowdsaleStorage storage"
        }
      ],
      "name": "setTokens",
      "outputs": [
        {
          "name": "",
          "type": "bool"
        }
      ],
      "payable": false,
      "stateMutability": "nonpayable",
      "type": "function"
    },
    {
      "constant": false,
      "inputs": [
        {
          "name": "self",
          "type": "DirectCrowdsaleLib.DirectCrowdsaleStorage storage"
        }
      ],
      "name": "withdrawTokens",
      "outputs": [
        {
          "name": "",
          "type": "bool"
        }
      ],
      "payable": false,
      "stateMutability": "nonpayable",
      "type": "function"
    },
    {
      "constant": false,
      "inputs": [
        {
          "name": "self",
          "type": "DirectCrowdsaleLib.DirectCrowdsaleStorage storage"
        }
      ],
      "name": "withdrawOwnerEth",
      "outputs": [
        {
          "name": "",
          "type": "bool"
        }
      ],
      "payable": false,
      "stateMutability": "nonpayable",
      "type": "function"
    },
    {
      "constant": false,
      "inputs": [
        {
          "name": "self",
          "type": "DirectCrowdsaleLib.DirectCrowdsaleStorage storage"
        },
        {
          "name": "_owner",
          "type": "address"
        },
        {
          "name": "_saleData",
          "type": "uint256[]"
        },
        {
          "name": "_endTime",
          "type": "uint256"
        },
        {
          "name": "_percentBurn",
          "type": "uint8"
        },
        {
          "name": "_token",
          "type": "CrowdsaleToken"
        }
      ],
      "name": "init",
      "outputs": [],
      "payable": false,
      "stateMutability": "nonpayable",
      "type": "function"
    },
    {
      "constant": true,
      "inputs": [
        {
          "name": "self",
          "type": "DirectCrowdsaleLib.DirectCrowdsaleStorage storage"
        }
      ],
      "name": "crowdsaleActive",
      "outputs": [
        {
          "name": "",
          "type": "bool"
        }
      ],
      "payable": false,
      "stateMutability": "view",
      "type": "function"
    },
    {
      "constant": false,
      "inputs": [
        {
          "name": "self",
          "type": "DirectCrowdsaleLib.DirectCrowdsaleStorage storage"
        },
        {
          "name": "_amount",
          "type": "uint256"
        }
      ],
      "name": "receivePurchase",
      "outputs": [
        {
          "name": "",
          "type": "bool"
        }
      ],
      "payable": false,
      "stateMutability": "nonpayable",
      "type": "function"
    },
    {
      "constant": true,
      "inputs": [
        {
          "name": "self",
          "type": "DirectCrowdsaleLib.DirectCrowdsaleStorage storage"
        }
      ],
      "name": "getTokensSold",
      "outputs": [
        {
          "name": "",
          "type": "uint256"
        }
      ],
      "payable": false,
      "stateMutability": "view",
      "type": "function"
    },
    {
      "constant": false,
      "inputs": [
        {
          "name": "self",
          "type": "DirectCrowdsaleLib.DirectCrowdsaleStorage storage"
        }
      ],
      "name": "withdrawLeftoverWei",
      "outputs": [
        {
          "name": "",
          "type": "bool"
        }
      ],
      "payable": false,
      "stateMutability": "nonpayable",
      "type": "function"
    },
    {
      "anonymous": false,
      "inputs": [
        {
          "indexed": true,
          "name": "buyer",
          "type": "address"
        },
        {
          "indexed": false,
          "name": "amount",
          "type": "uint256"
        }
      ],
      "name": "LogTokensBought",
      "type": "event"
    },
    {
      "anonymous": false,
      "inputs": [
        {
          "indexed": false,
          "name": "amount",
          "type": "uint256"
        },
        {
          "indexed": false,
          "name": "Msg",
          "type": "string"
        }
      ],
      "name": "LogTokenPriceChange",
      "type": "event"
    },
    {
      "anonymous": false,
      "inputs": [
        {
          "indexed": false,
          "name": "amount",
          "type": "uint256"
        },
        {
          "indexed": false,
          "name": "Msg",
          "type": "string"
        }
      ],
      "name": "LogErrorMsg",
      "type": "event"
    }
  ],
  "bytecode": "0x6060604052341561000f57600080fd5b6113008061001e6000396000f3006060604052600436106100a4576000357c0100000000000000000000000000000000000000000000000000000000900463ffffffff1680630239796e146100a95780630acfb98514610106578063112c1e90146101365780637b84bfb5146101665780638e7a53361461019657806396aa867a146101c6578063aae1288a14610271578063e1f0a45a146102a1578063eabf1a13146102da578063eb40c0d614610306575b600080fd5b6100c86004808035906020019091908035906020019091905050610336565b6040518082600360200280838360005b838110156100f35780820151818401526020810190506100d8565b5050505090500191505060405180910390f35b61011c60048080359060200190919050506103e4565b604051808215151515815260200191505060405180910390f35b61014c6004808035906020019091905050610480565b604051808215151515815260200191505060405180910390f35b61017c600480803590602001909190505061051c565b604051808215151515815260200191505060405180910390f35b6101ac60048080359060200190919050506105b8565b604051808215151515815260200191505060405180910390f35b61026f600480803590602001909190803573ffffffffffffffffffffffffffffffffffffffff169060200190919080359060200190820180359060200190808060200260200160405190810160405280939291908181526020018383602002808284378201915050505050509190803590602001909190803560ff1690602001909190803573ffffffffffffffffffffffffffffffffffffffff16906020019091905050610654565b005b61028760048080359060200190919050506107a6565b604051808215151515815260200191505060405180910390f35b6102c06004808035906020019091908035906020019091905050610842565b604051808215151515815260200191505060405180910390f35b6102f06004808035906020019091905050611065565b6040518082815260200191505060405180910390f35b61031c6004808035906020019091905050611101565b604051808215151515815260200191505060405180910390f35b61033e6112ac565b8260000173__CrowdsaleLib__________________________63d7bc09599091846000604051606001526040518363ffffffff167c0100000000000000000000000000000000000000000000000000000000028152600401808381526020018281526020019250505060606040518083038186803b15156103be57600080fd5b6102c65a03f415156103cf57600080fd5b50505060405180606001604052905092915050565b60008160000173__CrowdsaleLib__________________________6310bc04e790916000604051602001526040518263ffffffff167c01000000000000000000000000000000000000000000000000000000000281526004018082815260200191505060206040518083038186803b151561045e57600080fd5b6102c65a03f4151561046f57600080fd5b505050604051805190509050919050565b60008160000173__CrowdsaleLib__________________________633617dbba90916000604051602001526040518263ffffffff167c01000000000000000000000000000000000000000000000000000000000281526004018082815260200191505060206040518083038186803b15156104fa57600080fd5b6102c65a03f4151561050b57600080fd5b505050604051805190509050919050565b60008160000173__CrowdsaleLib__________________________63b5d8816390916000604051602001526040518263ffffffff167c01000000000000000000000000000000000000000000000000000000000281526004018082815260200191505060206040518083038186803b151561059657600080fd5b6102c65a03f415156105a757600080fd5b505050604051805190509050919050565b60008160000173__CrowdsaleLib__________________________63d34e327490916000604051602001526040518263ffffffff167c01000000000000000000000000000000000000000000000000000000000281526004018082815260200191505060206040518083038186803b151561063257600080fd5b6102c65a03f4151561064357600080fd5b505050604051805190509050919050565b8560000173__CrowdsaleLib__________________________63e9e337d3909187878787876040518763ffffffff167c0100000000000000000000000000000000000000000000000000000000028152600401808781526020018673ffffffffffffffffffffffffffffffffffffffff1673ffffffffffffffffffffffffffffffffffffffff168152602001806020018581526020018460ff1660ff1681526020018373ffffffffffffffffffffffffffffffffffffffff1673ffffffffffffffffffffffffffffffffffffffff168152602001828103825286818151815260200191508051906020019060200280838360005b83811015610763578082015181840152602081019050610748565b5050505090500197505050505050505060006040518083038186803b151561078a57600080fd5b6102c65a03f4151561079b57600080fd5b505050505050505050565b60008160000173__CrowdsaleLib__________________________636eee0e9290916000604051602001526040518263ffffffff167c01000000000000000000000000000000000000000000000000000000000281526004018082815260200191505060206040518083038186803b151561082057600080fd5b6102c65a03f4151561083157600080fd5b505050604051805190509050919050565b60008060008060008060008860000160000160009054906101000a900473ffffffffffffffffffffffffffffffffffffffff1673ffffffffffffffffffffffffffffffffffffffff163373ffffffffffffffffffffffffffffffffffffffff16141515156108af57600080fd5b6108bb8960000161119d565b15156108c657600080fd5b60018960000160070160009054906101000a900460ff160160ff16896000016006018054905011801561093157508860000160060160018a60000160070160009054906101000a900460ff160160ff1681548110151561092257fe5b90600052602060002090015442115b15610acb575b60018960000160070160009054906101000a900460ff160160ff1689600001600601805490501180156109a257508860000160060160018a60000160070160009054906101000a900460ff160160ff1681548110151561099357fe5b90600052602060002090015442115b156109df5760018960000160070160008282829054906101000a900460ff160192506101000a81548160ff021916908360ff160217905550610937565b610a528960000160080160008b6000016006018c60000160070160009054906101000a900460ff1660ff16815481101515610a1657fe5b90600052602060002090015481526020019081526020016000206000600281101515610a3e57fe5b01548a60000161126890919063ffffffff16565b507f140575aff45eb4e414ffb6ece685f9e52ecf2bb56553b9e1b716175d9a25bffa89600001600101546040518082815260200180602001828103825260188152602001807f546f6b656e20507269636520686173206368616e6765642100000000000000008152506020019250505060405180910390a15b8773__BasicMathLib__________________________631d3b9edf90918b600001600101546000604051604001526040518363ffffffff167c01000000000000000000000000000000000000000000000000000000000281526004018083815260200182815260200192505050604080518083038186803b1515610b4e57600080fd5b6102c65a03f41515610b5f57600080fd5b50505060405180519060200180519050809550819250505080151515610b8457600080fd5b670de0b6b3a764000084811515610b9757fe5b049550670de0b6b3a764000084811515610bad57fe5b069150886000016001015482811515610bc257fe5b049150818301925081880397508289600001600b0160003373ffffffffffffffffffffffffffffffffffffffff1673ffffffffffffffffffffffffffffffffffffffff16815260200190815260200160002060008282540192505081905550878960000160090160003373ffffffffffffffffffffffffffffffffffffffff1673ffffffffffffffffffffffffffffffffffffffff1681526020019081526020016000206000828254019250508190555088600001600c0160009054906101000a900473ffffffffffffffffffffffffffffffffffffffff1673ffffffffffffffffffffffffffffffffffffffff166370a08231306000604051602001526040518263ffffffff167c0100000000000000000000000000000000000000000000000000000000028152600401808273ffffffffffffffffffffffffffffffffffffffff1673ffffffffffffffffffffffffffffffffffffffff168152602001915050602060405180830381600087803b1515610d3d57600080fd5b6102c65a03f11515610d4e57600080fd5b505050604051805190508611151515610d6357fe5b886000016004015473__BasicMathLib__________________________6366098d4f90918a6000604051604001526040518363ffffffff167c01000000000000000000000000000000000000000000000000000000000281526004018083815260200182815260200192505050604080518083038186803b1515610de657600080fd5b6102c65a03f41515610df757600080fd5b50505060405180519060200180519050809650819250505080151515610e1c57600080fd5b8489600001600401819055508589600001600a0160003373ffffffffffffffffffffffffffffffffffffffff1673ffffffffffffffffffffffffffffffffffffffff1681526020019081526020016000206000828254019250508190555088600001600a0160008a60000160000160009054906101000a900473ffffffffffffffffffffffffffffffffffffffff1673ffffffffffffffffffffffffffffffffffffffff1673ffffffffffffffffffffffffffffffffffffffff1681526020019081526020016000205473__BasicMathLib__________________________63f4f3bdc19091886000604051604001526040518363ffffffff167c01000000000000000000000000000000000000000000000000000000000281526004018083815260200182815260200192505050604080518083038186803b1515610f6157600080fd5b6102c65a03f41515610f7257600080fd5b50505060405180519060200180519050809350819250505080151515610f9757600080fd5b8189600001600a0160008b60000160000160009054906101000a900473ffffffffffffffffffffffffffffffffffffffff1673ffffffffffffffffffffffffffffffffffffffff1673ffffffffffffffffffffffffffffffffffffffff168152602001908152602001600020819055503373ffffffffffffffffffffffffffffffffffffffff167f58e85e03761641c3aabc1113bca56bd151f1381debda5a1805aa1fbd3662c46d876040518082815260200191505060405180910390a26001965050505050505092915050565b60008160000173__CrowdsaleLib__________________________6319c5f76b90916000604051602001526040518263ffffffff167c01000000000000000000000000000000000000000000000000000000000281526004018082815260200191505060206040518083038186803b15156110df57600080fd5b6102c65a03f415156110f057600080fd5b505050604051805190509050919050565b60008160000173__CrowdsaleLib__________________________63d06f9a5e90916000604051602001526040518263ffffffff167c01000000000000000000000000000000000000000000000000000000000281526004018082815260200191505060206040518083038186803b151561117b57600080fd5b6102c65a03f4151561118c57600080fd5b505050604051805190509050919050565b600080600034141590506111b08361128b565b80156111b95750805b156111c75760019150611262565b7f8756f3e78da606244d7d8c9563ce2678f294db7c57afce515849e03d5eec6c3a346040518082815260200180602001828103825260378152602001807f496e76616c69642050757263686173652120436865636b20737461727420746981526020017f6d6520616e6420616d6f756e74206f662065746865722e0000000000000000008152506040019250505060405180910390a1600091505b50919050565b6000808211151561127857600080fd5b8183600101819055506001905092915050565b6000816002015442101580156112a5575081600301544211155b9050919050565b6060604051908101604052806003905b60008152602001906001900390816112bc57905050905600a165627a7a72305820fab28c41b18ae7d48e7138ac1b5212b7f4cb80357ad3816105e7e98faa2e7d700029",
  "deployedBytecode": "0x6060604052341561000f57600080fd5b6113008061001e6000396000f3006060604052600436106100a4576000357c0100000000000000000000000000000000000000000000000000000000900463ffffffff1680630239796e146100a95780630acfb98514610106578063112c1e90146101365780637b84bfb5146101665780638e7a53361461019657806396aa867a146101c6578063aae1288a14610271578063e1f0a45a146102a1578063eabf1a13146102da578063eb40c0d614610306575b600080fd5b6100c86004808035906020019091908035906020019091905050610336565b6040518082600360200280838360005b838110156100f35780820151818401526020810190506100d8565b5050505090500191505060405180910390f35b61011c60048080359060200190919050506103e4565b604051808215151515815260200191505060405180910390f35b61014c6004808035906020019091905050610480565b604051808215151515815260200191505060405180910390f35b61017c600480803590602001909190505061051c565b604051808215151515815260200191505060405180910390f35b6101ac60048080359060200190919050506105b8565b604051808215151515815260200191505060405180910390f35b61026f600480803590602001909190803573ffffffffffffffffffffffffffffffffffffffff169060200190919080359060200190820180359060200190808060200260200160405190810160405280939291908181526020018383602002808284378201915050505050509190803590602001909190803560ff1690602001909190803573ffffffffffffffffffffffffffffffffffffffff16906020019091905050610654565b005b61028760048080359060200190919050506107a6565b604051808215151515815260200191505060405180910390f35b6102c06004808035906020019091908035906020019091905050610842565b604051808215151515815260200191505060405180910390f35b6102f06004808035906020019091905050611065565b6040518082815260200191505060405180910390f35b61031c6004808035906020019091905050611101565b604051808215151515815260200191505060405180910390f35b61033e6112ac565b82600001730B40E5f22cfd3c53eaE0aE819F0E0bADcBE9386663d7bc09599091846000604051606001526040518363ffffffff167c0100000000000000000000000000000000000000000000000000000000028152600401808381526020018281526020019250505060606040518083038186803b15156103be57600080fd5b6102c65a03f415156103cf57600080fd5b50505060405180606001604052905092915050565b600081600001730B40E5f22cfd3c53eaE0aE819F0E0bADcBE938666310bc04e790916000604051602001526040518263ffffffff167c01000000000000000000000000000000000000000000000000000000000281526004018082815260200191505060206040518083038186803b151561045e57600080fd5b6102c65a03f4151561046f57600080fd5b505050604051805190509050919050565b600081600001730B40E5f22cfd3c53eaE0aE819F0E0bADcBE93866633617dbba90916000604051602001526040518263ffffffff167c01000000000000000000000000000000000000000000000000000000000281526004018082815260200191505060206040518083038186803b15156104fa57600080fd5b6102c65a03f4151561050b57600080fd5b505050604051805190509050919050565b600081600001730B40E5f22cfd3c53eaE0aE819F0E0bADcBE9386663b5d8816390916000604051602001526040518263ffffffff167c01000000000000000000000000000000000000000000000000000000000281526004018082815260200191505060206040518083038186803b151561059657600080fd5b6102c65a03f415156105a757600080fd5b505050604051805190509050919050565b600081600001730B40E5f22cfd3c53eaE0aE819F0E0bADcBE9386663d34e327490916000604051602001526040518263ffffffff167c01000000000000000000000000000000000000000000000000000000000281526004018082815260200191505060206040518083038186803b151561063257600080fd5b6102c65a03f4151561064357600080fd5b505050604051805190509050919050565b85600001730B40E5f22cfd3c53eaE0aE819F0E0bADcBE9386663e9e337d3909187878787876040518763ffffffff167c0100000000000000000000000000000000000000000000000000000000028152600401808781526020018673ffffffffffffffffffffffffffffffffffffffff1673ffffffffffffffffffffffffffffffffffffffff168152602001806020018581526020018460ff1660ff1681526020018373ffffffffffffffffffffffffffffffffffffffff1673ffffffffffffffffffffffffffffffffffffffff168152602001828103825286818151815260200191508051906020019060200280838360005b83811015610763578082015181840152602081019050610748565b5050505090500197505050505050505060006040518083038186803b151561078a57600080fd5b6102c65a03f4151561079b57600080fd5b505050505050505050565b600081600001730B40E5f22cfd3c53eaE0aE819F0E0bADcBE93866636eee0e9290916000604051602001526040518263ffffffff167c01000000000000000000000000000000000000000000000000000000000281526004018082815260200191505060206040518083038186803b151561082057600080fd5b6102c65a03f4151561083157600080fd5b505050604051805190509050919050565b60008060008060008060008860000160000160009054906101000a900473ffffffffffffffffffffffffffffffffffffffff1673ffffffffffffffffffffffffffffffffffffffff163373ffffffffffffffffffffffffffffffffffffffff16141515156108af57600080fd5b6108bb8960000161119d565b15156108c657600080fd5b60018960000160070160009054906101000a900460ff160160ff16896000016006018054905011801561093157508860000160060160018a60000160070160009054906101000a900460ff160160ff1681548110151561092257fe5b90600052602060002090015442115b15610acb575b60018960000160070160009054906101000a900460ff160160ff1689600001600601805490501180156109a257508860000160060160018a60000160070160009054906101000a900460ff160160ff1681548110151561099357fe5b90600052602060002090015442115b156109df5760018960000160070160008282829054906101000a900460ff160192506101000a81548160ff021916908360ff160217905550610937565b610a528960000160080160008b6000016006018c60000160070160009054906101000a900460ff1660ff16815481101515610a1657fe5b90600052602060002090015481526020019081526020016000206000600281101515610a3e57fe5b01548a60000161126890919063ffffffff16565b507f140575aff45eb4e414ffb6ece685f9e52ecf2bb56553b9e1b716175d9a25bffa89600001600101546040518082815260200180602001828103825260188152602001807f546f6b656e20507269636520686173206368616e6765642100000000000000008152506020019250505060405180910390a15b877339090B6e52E8f555AB6FC79e8E7ADB2145476950631d3b9edf90918b600001600101546000604051604001526040518363ffffffff167c01000000000000000000000000000000000000000000000000000000000281526004018083815260200182815260200192505050604080518083038186803b1515610b4e57600080fd5b6102c65a03f41515610b5f57600080fd5b50505060405180519060200180519050809550819250505080151515610b8457600080fd5b670de0b6b3a764000084811515610b9757fe5b049550670de0b6b3a764000084811515610bad57fe5b069150886000016001015482811515610bc257fe5b049150818301925081880397508289600001600b0160003373ffffffffffffffffffffffffffffffffffffffff1673ffffffffffffffffffffffffffffffffffffffff16815260200190815260200160002060008282540192505081905550878960000160090160003373ffffffffffffffffffffffffffffffffffffffff1673ffffffffffffffffffffffffffffffffffffffff1681526020019081526020016000206000828254019250508190555088600001600c0160009054906101000a900473ffffffffffffffffffffffffffffffffffffffff1673ffffffffffffffffffffffffffffffffffffffff166370a08231306000604051602001526040518263ffffffff167c0100000000000000000000000000000000000000000000000000000000028152600401808273ffffffffffffffffffffffffffffffffffffffff1673ffffffffffffffffffffffffffffffffffffffff168152602001915050602060405180830381600087803b1515610d3d57600080fd5b6102c65a03f11515610d4e57600080fd5b505050604051805190508611151515610d6357fe5b88600001600401547339090B6e52E8f555AB6FC79e8E7ADB21454769506366098d4f90918a6000604051604001526040518363ffffffff167c01000000000000000000000000000000000000000000000000000000000281526004018083815260200182815260200192505050604080518083038186803b1515610de657600080fd5b6102c65a03f41515610df757600080fd5b50505060405180519060200180519050809650819250505080151515610e1c57600080fd5b8489600001600401819055508589600001600a0160003373ffffffffffffffffffffffffffffffffffffffff1673ffffffffffffffffffffffffffffffffffffffff1681526020019081526020016000206000828254019250508190555088600001600a0160008a60000160000160009054906101000a900473ffffffffffffffffffffffffffffffffffffffff1673ffffffffffffffffffffffffffffffffffffffff1673ffffffffffffffffffffffffffffffffffffffff168152602001908152602001600020547339090B6e52E8f555AB6FC79e8E7ADB214547695063f4f3bdc19091886000604051604001526040518363ffffffff167c01000000000000000000000000000000000000000000000000000000000281526004018083815260200182815260200192505050604080518083038186803b1515610f6157600080fd5b6102c65a03f41515610f7257600080fd5b50505060405180519060200180519050809350819250505080151515610f9757600080fd5b8189600001600a0160008b60000160000160009054906101000a900473ffffffffffffffffffffffffffffffffffffffff1673ffffffffffffffffffffffffffffffffffffffff1673ffffffffffffffffffffffffffffffffffffffff168152602001908152602001600020819055503373ffffffffffffffffffffffffffffffffffffffff167f58e85e03761641c3aabc1113bca56bd151f1381debda5a1805aa1fbd3662c46d876040518082815260200191505060405180910390a26001965050505050505092915050565b600081600001730B40E5f22cfd3c53eaE0aE819F0E0bADcBE938666319c5f76b90916000604051602001526040518263ffffffff167c01000000000000000000000000000000000000000000000000000000000281526004018082815260200191505060206040518083038186803b15156110df57600080fd5b6102c65a03f415156110f057600080fd5b505050604051805190509050919050565b600081600001730B40E5f22cfd3c53eaE0aE819F0E0bADcBE9386663d06f9a5e90916000604051602001526040518263ffffffff167c01000000000000000000000000000000000000000000000000000000000281526004018082815260200191505060206040518083038186803b151561117b57600080fd5b6102c65a03f4151561118c57600080fd5b505050604051805190509050919050565b600080600034141590506111b08361128b565b80156111b95750805b156111c75760019150611262565b7f8756f3e78da606244d7d8c9563ce2678f294db7c57afce515849e03d5eec6c3a346040518082815260200180602001828103825260378152602001807f496e76616c69642050757263686173652120436865636b20737461727420746981526020017f6d6520616e6420616d6f756e74206f662065746865722e0000000000000000008152506040019250505060405180910390a1600091505b50919050565b6000808211151561127857600080fd5b8183600101819055506001905092915050565b6000816002015442101580156112a5575081600301544211155b9050919050565b6060604051908101604052806003905b60008152602001906001900390816112bc57905050905600a165627a7a72305820fab28c41b18ae7d48e7138ac1b5212b7f4cb80357ad3816105e7e98faa2e7d700029",
  "source": "pragma solidity ^0.4.18;\n\n/**\n * @title DirectCrowdsaleLib\n * @author Modular Inc, https://modular.network\n *\n * version 2.2.1\n * Copyright (c) 2017 Modular Inc\n * The MIT License (MIT)\n * https://github.com/Modular-Network/ethereum-libraries/blob/master/LICENSE\n *\n * The DirectCrowdsale Library provides functionality to create a initial coin offering\n * for a standard token sale with high supply where there is a direct ether to\n * token transfer.\n *\n * Modular provides smart contract services and security reviews for contract\n * deployments in addition to working on open source projects in the Ethereum\n * community. Our purpose is to test, document, and deploy reusable code onto the\n * blockchain and improve both security and usability. We also educate non-profits,\n * schools, and other community members about the application of blockchain\n * technology. For further information: modular.network\n *\n * THE SOFTWARE IS PROVIDED \"AS IS\", WITHOUT WARRANTY OF ANY KIND, EXPRESS\n * OR IMPLIED, INCLUDING BUT NOT LIMITED TO THE WARRANTIES OF\n * MERCHANTABILITY, FITNESS FOR A PARTICULAR PURPOSE AND NONINFRINGEMENT.\n * IN NO EVENT SHALL THE AUTHORS OR COPYRIGHT HOLDERS BE LIABLE FOR ANY\n * CLAIM, DAMAGES OR OTHER LIABILITY, WHETHER IN AN ACTION OF CONTRACT,\n * TORT OR OTHERWISE, ARISING FROM, OUT OF OR IN CONNECTION WITH THE\n * SOFTWARE OR THE USE OR OTHER DEALINGS IN THE SOFTWARE.\n */\n\nimport \"./BasicMathLib.sol\";\nimport \"./TokenLib.sol\";\nimport \"./CrowdsaleLib.sol\";\n\nlibrary DirectCrowdsaleLib {\n  using BasicMathLib for uint256;\n  using CrowdsaleLib for CrowdsaleLib.CrowdsaleStorage;\n\n  struct DirectCrowdsaleStorage {\n\n  \tCrowdsaleLib.CrowdsaleStorage base; // base storage from CrowdsaleLib\n\n  }\n\n  event LogTokensBought(address indexed buyer, uint256 amount);\n  event LogTokenPriceChange(uint256 amount, string Msg);\n  event LogErrorMsg(uint256 amount, string Msg);\n\n\n  /// @dev Called by a crowdsale contract upon creation.\n  /// @param self Stored crowdsale from crowdsale contract\n  /// @param _owner Address of crowdsale owner\n  /// @param _saleData Array of 3 item sets such that, in each 3 element\n  /// set, 1 is timestamp, 2 is price in tokens/ETH at that time,\n  /// 3 is address purchase cap at that time, 0 if no address cap\n  /// @param _endTime Timestamp of sale end time\n  /// @param _percentBurn Percentage of extra tokens to burn\n  /// @param _token Token being sold\n  function init(DirectCrowdsaleStorage storage self,\n                address _owner,\n                uint256[] _saleData,\n                uint256 _endTime,\n                uint8 _percentBurn,\n                CrowdsaleToken _token)\n                public\n  {\n  \tself.base.init(_owner,\n                _saleData,\n                _endTime,\n                _percentBurn,\n                _token);\n  }\n\n  /// @dev Called when an address wants to purchase tokens\n  /// @param self Stored crowdsale from crowdsale contract\n  /// @param _amount amount of wei that the buyer is sending\n  /// @return true on succesful purchase\n  function receivePurchase(DirectCrowdsaleStorage storage self, uint256 _amount)\n                           public\n                           returns (bool)\n  {\n    require(msg.sender != self.base.owner);\n  \trequire(self.base.validPurchase());\n\n  \t// if the token price increase interval has passed, update the current day and change the token price\n  \tif ((self.base.milestoneTimes.length > self.base.currentMilestone + 1) &&\n        (now > self.base.milestoneTimes[self.base.currentMilestone + 1]))\n    {\n        while((self.base.milestoneTimes.length > self.base.currentMilestone + 1) &&\n              (now > self.base.milestoneTimes[self.base.currentMilestone + 1]))\n        {\n          self.base.currentMilestone += 1;\n        }\n\n        self.base.changeTokenPrice(self.base.saleData[self.base.milestoneTimes[self.base.currentMilestone]][0]);\n        LogTokenPriceChange(self.base.tokensPerEth,\"Token Price has changed!\");\n    }\n\n  \tuint256 _numTokens; //number of tokens that will be purchased\n    uint256 _newBalance; //the new balance of the owner of the crowdsale\n    uint256 _weiTokens; //temp calc holder\n    uint256 _leftoverWei; //wei change for purchaser\n    uint256 _remainder; //temp calc holder\n    bool err;\n\n    // Find the number of tokens as a function in wei\n    (err,_weiTokens) = _amount.times(self.base.tokensPerEth);\n    require(!err);\n\n    _numTokens = _weiTokens / 1000000000000000000;\n    _remainder = _weiTokens % 1000000000000000000;\n    _remainder = _remainder / self.base.tokensPerEth;\n    _leftoverWei += _remainder;\n    _amount = _amount - _remainder;\n    self.base.leftoverWei[msg.sender] += _leftoverWei;\n\n    // can't overflow because it is under the cap\n    self.base.hasContributed[msg.sender] += _amount;\n\n    assert(_numTokens <= self.base.token.balanceOf(this));\n\n    // calculate the amount of ether in the owners balance\n    (err,_newBalance) = self.base.ownerBalance.plus(_amount);\n    require(!err);\n\n    self.base.ownerBalance = _newBalance;   // \"deposit\" the amount\n\n    // can't overflow because it will be under the cap\n\t  self.base.withdrawTokensMap[msg.sender] += _numTokens;\n\n    //subtract tokens from owner's share\n    (err,_remainder) = self.base.withdrawTokensMap[self.base.owner].minus(_numTokens);\n    require(!err);\n    self.base.withdrawTokensMap[self.base.owner] = _remainder;\n\n\t  LogTokensBought(msg.sender, _numTokens);\n\n    return true;\n  }\n\n  /*Functions \"inherited\" from CrowdsaleLib library*/\n\n  function setTokens(DirectCrowdsaleStorage storage self) public returns (bool) {\n    return self.base.setTokens();\n  }\n\n  function withdrawTokens(DirectCrowdsaleStorage storage self) public returns (bool) {\n    return self.base.withdrawTokens();\n  }\n\n  function withdrawLeftoverWei(DirectCrowdsaleStorage storage self) public returns (bool) {\n    return self.base.withdrawLeftoverWei();\n  }\n\n  function withdrawOwnerEth(DirectCrowdsaleStorage storage self) public returns (bool) {\n    return self.base.withdrawOwnerEth();\n  }\n\n  function getSaleData(DirectCrowdsaleStorage storage self, uint256 timestamp)\n                       public\n                       view\n                       returns (uint256[3])\n  {\n    return self.base.getSaleData(timestamp);\n  }\n\n  function getTokensSold(DirectCrowdsaleStorage storage self) public view returns (uint256) {\n    return self.base.getTokensSold();\n  }\n\n  function crowdsaleActive(DirectCrowdsaleStorage storage self) public view returns (bool) {\n    return self.base.crowdsaleActive();\n  }\n\n  function crowdsaleEnded(DirectCrowdsaleStorage storage self) public view returns (bool) {\n    return self.base.crowdsaleEnded();\n  }\n}\n",
  "sourcePath": "/Users/hackdom/Projects/ethereum-libraries/CrowdsaleLib/DirectCrowdsale/truffle/contracts/DirectCrowdsaleLib.sol",
  "compiler": {
    "name": "solc",
    "version": "0.4.18+commit.9cf6e910.Emscripten.clang"
  },
  "schemaVersion": "1.0.1",
  "updatedAt": "2018-01-15T09:25:10.054Z"
}