{
  "contractName": "DirectCrowdsaleTestZeroD",
  "abi": [
    {
      "constant": true,
      "inputs": [],
      "name": "crowdsaleActive",
      "outputs": [
        {
          "name": "",
          "type": "bool"
        }
      ],
      "payable": false,
      "stateMutability": "view",
      "type": "function"
    },
    {
      "constant": false,
      "inputs": [],
      "name": "withdrawOwnerEth",
      "outputs": [
        {
          "name": "",
          "type": "bool"
        }
      ],
      "payable": false,
      "stateMutability": "nonpayable",
      "type": "function"
    },
    {
      "constant": true,
      "inputs": [
        {
          "name": "_buyer",
          "type": "address"
        }
      ],
      "name": "getContribution",
      "outputs": [
        {
          "name": "",
          "type": "uint256"
        }
      ],
      "payable": false,
      "stateMutability": "view",
      "type": "function"
    },
    {
      "constant": true,
      "inputs": [],
      "name": "crowdsaleEnded",
      "outputs": [
        {
          "name": "",
          "type": "bool"
        }
      ],
      "payable": false,
      "stateMutability": "view",
      "type": "function"
    },
    {
      "constant": true,
      "inputs": [],
      "name": "getEthRaised",
      "outputs": [
        {
          "name": "",
          "type": "uint256"
        }
      ],
      "payable": false,
      "stateMutability": "view",
      "type": "function"
    },
    {
      "constant": true,
      "inputs": [
        {
          "name": "_buyer",
          "type": "address"
        }
      ],
      "name": "getLeftoverWei",
      "outputs": [
        {
          "name": "",
          "type": "uint256"
        }
      ],
      "payable": false,
      "stateMutability": "view",
      "type": "function"
    },
    {
      "constant": true,
      "inputs": [],
      "name": "getEndTime",
      "outputs": [
        {
          "name": "",
          "type": "uint256"
        }
      ],
      "payable": false,
      "stateMutability": "view",
      "type": "function"
    },
    {
      "constant": false,
      "inputs": [],
      "name": "setTokens",
      "outputs": [
        {
          "name": "",
          "type": "bool"
        }
      ],
      "payable": false,
      "stateMutability": "nonpayable",
      "type": "function"
    },
    {
      "constant": false,
      "inputs": [],
      "name": "sendPurchase",
      "outputs": [
        {
          "name": "",
          "type": "bool"
        }
      ],
      "payable": true,
      "stateMutability": "payable",
      "type": "function"
    },
    {
      "constant": true,
      "inputs": [],
      "name": "getTokensPerEth",
      "outputs": [
        {
          "name": "",
          "type": "uint256"
        }
      ],
      "payable": false,
      "stateMutability": "view",
      "type": "function"
    },
    {
      "constant": true,
      "inputs": [
        {
          "name": "timestamp",
          "type": "uint256"
        }
      ],
      "name": "getSaleData",
      "outputs": [
        {
          "name": "",
          "type": "uint256[3]"
        }
      ],
      "payable": false,
      "stateMutability": "view",
      "type": "function"
    },
    {
      "constant": true,
      "inputs": [],
      "name": "getOwner",
      "outputs": [
        {
          "name": "",
          "type": "address"
        }
      ],
      "payable": false,
      "stateMutability": "view",
      "type": "function"
    },
    {
      "constant": false,
      "inputs": [],
      "name": "withdrawTokens",
      "outputs": [
        {
          "name": "",
          "type": "bool"
        }
      ],
      "payable": false,
      "stateMutability": "nonpayable",
      "type": "function"
    },
    {
      "constant": false,
      "inputs": [],
      "name": "withdrawLeftoverWei",
      "outputs": [
        {
          "name": "",
          "type": "bool"
        }
      ],
      "payable": false,
      "stateMutability": "nonpayable",
      "type": "function"
    },
    {
      "constant": true,
      "inputs": [],
      "name": "getPercentBurn",
      "outputs": [
        {
          "name": "",
          "type": "uint256"
        }
      ],
      "payable": false,
      "stateMutability": "view",
      "type": "function"
    },
    {
      "constant": true,
      "inputs": [],
      "name": "getStartTime",
      "outputs": [
        {
          "name": "",
          "type": "uint256"
        }
      ],
      "payable": false,
      "stateMutability": "view",
      "type": "function"
    },
    {
      "constant": false,
      "inputs": [
        {
          "name": "_exchangeRate",
          "type": "uint256"
        }
      ],
      "name": "setTokenExchangeRate",
      "outputs": [
        {
          "name": "",
          "type": "bool"
        }
      ],
      "payable": false,
      "stateMutability": "nonpayable",
      "type": "function"
    },
    {
      "constant": true,
      "inputs": [],
      "name": "getCapAmount",
      "outputs": [
        {
          "name": "",
          "type": "uint256"
        }
      ],
      "payable": false,
      "stateMutability": "view",
      "type": "function"
    },
    {
      "constant": true,
      "inputs": [],
      "name": "getExchangeRate",
      "outputs": [
        {
          "name": "",
          "type": "uint256"
        }
      ],
      "payable": false,
      "stateMutability": "view",
      "type": "function"
    },
    {
      "constant": true,
      "inputs": [],
      "name": "getTokensSold",
      "outputs": [
        {
          "name": "",
          "type": "uint256"
        }
      ],
      "payable": false,
      "stateMutability": "view",
      "type": "function"
    },
    {
      "constant": true,
      "inputs": [
        {
          "name": "_buyer",
          "type": "address"
        }
      ],
      "name": "getTokenPurchase",
      "outputs": [
        {
          "name": "",
          "type": "uint256"
        }
      ],
      "payable": false,
      "stateMutability": "view",
      "type": "function"
    },
    {
      "inputs": [
        {
          "name": "owner",
          "type": "address"
        },
        {
          "name": "saleData",
          "type": "uint256[]"
        },
        {
          "name": "fallbackExchangeRate",
          "type": "uint256"
        },
        {
          "name": "capAmountInCents",
          "type": "uint256"
        },
        {
          "name": "endTime",
          "type": "uint256"
        },
        {
          "name": "percentBurn",
          "type": "uint8"
        },
        {
          "name": "token",
          "type": "address"
        }
      ],
      "payable": false,
      "stateMutability": "nonpayable",
      "type": "constructor"
    },
    {
      "payable": true,
      "stateMutability": "payable",
      "type": "fallback"
    }
  ],
  "bytecode": "0x6060604052341561000f57600080fd5b604051610f3a380380610f3a83398101604052808051906020019091908051820191906020018051906020019091908051906020019091908051906020019091908051906020019091908051906020019091905050600073__DirectCrowdsaleLib____________________637de64c899091898989898989896040518963ffffffff167c0100000000000000000000000000000000000000000000000000000000028152600401808981526020018873ffffffffffffffffffffffffffffffffffffffff1673ffffffffffffffffffffffffffffffffffffffff168152602001806020018781526020018681526020018581526020018460ff1660ff1681526020018373ffffffffffffffffffffffffffffffffffffffff1673ffffffffffffffffffffffffffffffffffffffff168152602001828103825288818151815260200191508051906020019060200280838360005b8381101561017f578082015181840152602081019050610164565b50505050905001995050505050505050505060006040518083038186803b15156101a857600080fd5b6102c65a03f415156101b957600080fd5b50505050505050505050610d68806101d26000396000f30060606040526004361061011d576000357c0100000000000000000000000000000000000000000000000000000000900463ffffffff1680630b87cf10146101285780630c1ca1ba1461015557806321eff7fc146101825780632367f35d146101cf57806329dacb60146101fc578063413100e014610225578063439f5ac214610272578063559ed3391461029b57806367532c8e146102c85780636893f63f146102ea57806386630b7b14610313578063893d20e8146103725780638d8f2adb146103c75780639fac6ddc146103f4578063bdf1211e14610421578063c828371e1461044a578063cb7b867314610473578063d8ad1c5c146104ae578063e6aa216c146104d7578063ee7c0db014610500578063f59ae82c14610529575b610125610576565b50005b341561013357600080fd5b61013b610615565b604051808215151515815260200191505060405180910390f35b341561016057600080fd5b6101686106ac565b604051808215151515815260200191505060405180910390f35b341561018d57600080fd5b6101b9600480803573ffffffffffffffffffffffffffffffffffffffff16906020019091905050610743565b6040518082815260200191505060405180910390f35b34156101da57600080fd5b6101e2610791565b604051808215151515815260200191505060405180910390f35b341561020757600080fd5b61020f610828565b6040518082815260200191505060405180910390f35b341561023057600080fd5b61025c600480803573ffffffffffffffffffffffffffffffffffffffff16906020019091905050610837565b6040518082815260200191505060405180910390f35b341561027d57600080fd5b610285610885565b6040518082815260200191505060405180910390f35b34156102a657600080fd5b6102ae610894565b604051808215151515815260200191505060405180910390f35b6102d0610576565b604051808215151515815260200191505060405180910390f35b34156102f557600080fd5b6102fd61092b565b6040518082815260200191505060405180910390f35b341561031e57600080fd5b610334600480803590602001909190505061093a565b6040518082600360200280838360005b8381101561035f578082015181840152602081019050610344565b5050505090500191505060405180910390f35b341561037d57600080fd5b6103856109e5565b604051808273ffffffffffffffffffffffffffffffffffffffff1673ffffffffffffffffffffffffffffffffffffffff16815260200191505060405180910390f35b34156103d257600080fd5b6103da610a14565b604051808215151515815260200191505060405180910390f35b34156103ff57600080fd5b610407610aab565b604051808215151515815260200191505060405180910390f35b341561042c57600080fd5b610434610b42565b6040518082815260200191505060405180910390f35b341561045557600080fd5b61045d610b61565b6040518082815260200191505060405180910390f35b341561047e57600080fd5b6104946004808035906020019091905050610b70565b604051808215151515815260200191505060405180910390f35b34156104b957600080fd5b6104c1610c11565b6040518082815260200191505060405180910390f35b34156104e257600080fd5b6104ea610c20565b6040518082815260200191505060405180910390f35b341561050b57600080fd5b610513610c2f565b6040518082815260200191505060405180910390f35b341561053457600080fd5b610560600480803573ffffffffffffffffffffffffffffffffffffffff16906020019091905050610cc6565b6040518082815260200191505060405180910390f35b60008073__DirectCrowdsaleLib____________________63e1f0a45a9091346000604051602001526040518363ffffffff167c0100000000000000000000000000000000000000000000000000000000028152600401808381526020018281526020019250505060206040518083038186803b15156105f557600080fd5b6102c65a03f4151561060657600080fd5b50505060405180519050905090565b60008073__DirectCrowdsaleLib____________________63aae1288a90916000604051602001526040518263ffffffff167c01000000000000000000000000000000000000000000000000000000000281526004018082815260200191505060206040518083038186803b151561068c57600080fd5b6102c65a03f4151561069d57600080fd5b50505060405180519050905090565b60008073__DirectCrowdsaleLib____________________638e7a533690916000604051602001526040518263ffffffff167c01000000000000000000000000000000000000000000000000000000000281526004018082815260200191505060206040518083038186803b151561072357600080fd5b6102c65a03f4151561073457600080fd5b50505060405180519050905090565b600080600001600b0160008373ffffffffffffffffffffffffffffffffffffffff1673ffffffffffffffffffffffffffffffffffffffff168152602001908152602001600020549050919050565b60008073__DirectCrowdsaleLib____________________630acfb98590916000604051602001526040518263ffffffff167c01000000000000000000000000000000000000000000000000000000000281526004018082815260200191505060206040518083038186803b151561080857600080fd5b6102c65a03f4151561081957600080fd5b50505060405180519050905090565b60008060000160060154905090565b600080600001600d0160008373ffffffffffffffffffffffffffffffffffffffff1673ffffffffffffffffffffffffffffffffffffffff168152602001908152602001600020549050919050565b60008060000160040154905090565b60008073__DirectCrowdsaleLib____________________63112c1e9090916000604051602001526040518263ffffffff167c01000000000000000000000000000000000000000000000000000000000281526004018082815260200191505060206040518083038186803b151561090b57600080fd5b6102c65a03f4151561091c57600080fd5b50505060405180519050905090565b60008060000160010154905090565b610942610d14565b600073__DirectCrowdsaleLib____________________630239796e9091846000604051606001526040518363ffffffff167c0100000000000000000000000000000000000000000000000000000000028152600401808381526020018281526020019250505060606040518083038186803b15156109c057600080fd5b6102c65a03f415156109d157600080fd5b505050604051806060016040529050919050565b60008060000160000160009054906101000a900473ffffffffffffffffffffffffffffffffffffffff16905090565b60008073__DirectCrowdsaleLib____________________637b84bfb590916000604051602001526040518263ffffffff167c01000000000000000000000000000000000000000000000000000000000281526004018082815260200191505060206040518083038186803b1515610a8b57600080fd5b6102c65a03f41515610a9c57600080fd5b50505060405180519050905090565b60008073__DirectCrowdsaleLib____________________63eb40c0d690916000604051602001526040518263ffffffff167c01000000000000000000000000000000000000000000000000000000000281526004018082815260200191505060206040518083038186803b1515610b2257600080fd5b6102c65a03f41515610b3357600080fd5b50505060405180519050905090565b60008060000160090160029054906101000a900460ff1660ff16905090565b60008060000160030154905090565b60008073__DirectCrowdsaleLib____________________63d99083f39091846000604051602001526040518363ffffffff167c0100000000000000000000000000000000000000000000000000000000028152600401808381526020018281526020019250505060206040518083038186803b1515610bef57600080fd5b6102c65a03f41515610c0057600080fd5b505050604051805190509050919050565b60008060000160020154905090565b60008060000160050154905090565b60008073__DirectCrowdsaleLib____________________63eabf1a1390916000604051602001526040518263ffffffff167c01000000000000000000000000000000000000000000000000000000000281526004018082815260200191505060206040518083038186803b1515610ca657600080fd5b6102c65a03f41515610cb757600080fd5b50505060405180519050905090565b600080600001600c0160008373ffffffffffffffffffffffffffffffffffffffff1673ffffffffffffffffffffffffffffffffffffffff168152602001908152602001600020549050919050565b6060604051908101604052806003905b6000815260200190600190039081610d2457905050905600a165627a7a72305820d89cc3bd1e388722e0149baab2499d08a8ec3cb22f68191f50cb2e9af5744e8f0029",
  "source": "pragma solidity ^0.4.18;\n\n/**\n * Direct Crowdsale Contract\n *\n * Majoolr provides smart contract services and security reviews for contract\n * deployments in addition to working on open source projects in the Ethereum\n * community. Our purpose is to test, document, and deploy reusable code onto the\n * blockchain and improve both security and usability. We also educate non-profits,\n * schools, and other community members about the application of blockchain\n * technology.\n * For further information: majoolr.io\n *\n * THE SOFTWARE IS PROVIDED \"AS IS\", WITHOUT WARRANTY OF ANY KIND, EXPRESS\n * OR IMPLIED, INCLUDING BUT NOT LIMITED TO THE WARRANTIES OF\n * MERCHANTABILITY, FITNESS FOR A PARTICULAR PURPOSE AND NONINFRINGEMENT.\n * IN NO EVENT SHALL THE AUTHORS OR COPYRIGHT HOLDERS BE LIABLE FOR ANY\n * CLAIM, DAMAGES OR OTHER LIABILITY, WHETHER IN AN ACTION OF CONTRACT,\n * TORT OR OTHERWISE, ARISING FROM, OUT OF OR IN CONNECTION WITH THE\n * SOFTWARE OR THE USE OR OTHER DEALINGS IN THE SOFTWARE.\n */\n\nimport \"./DirectCrowdsaleLib.sol\";\nimport \"./CrowdsaleTestTokenZeroD.sol\";\n\ncontract DirectCrowdsaleTestZeroD {\n  using DirectCrowdsaleLib for DirectCrowdsaleLib.DirectCrowdsaleStorage;\n\n  DirectCrowdsaleLib.DirectCrowdsaleStorage sale;\n\n  function DirectCrowdsaleTestZeroD(\n                address owner,\n                uint256[] saleData,\n                uint256 fallbackExchangeRate,\n                uint256 capAmountInCents,\n                uint256 endTime,\n                uint8 percentBurn,\n                CrowdsaleToken token)\n                public\n  {\n  \tsale.init(owner, saleData, fallbackExchangeRate, capAmountInCents, endTime, percentBurn, token);\n  }\n\n  // fallback function can be used to buy tokens\n  function () payable public {\n    sendPurchase();\n  }\n\n  function sendPurchase() payable public returns (bool) {\n  \treturn sale.receivePurchase(msg.value);\n  }\n\n  function withdrawTokens() public returns (bool) {\n  \treturn sale.withdrawTokens();\n  }\n\n  function withdrawLeftoverWei() public returns (bool) {\n    return sale.withdrawLeftoverWei();\n  }\n\n  function withdrawOwnerEth() public returns (bool) {\n    return sale.withdrawOwnerEth();\n  }\n\n  function crowdsaleActive() public view returns (bool) {\n    return sale.crowdsaleActive();\n  }\n\n  function crowdsaleEnded() public view returns (bool) {\n    return sale.crowdsaleEnded();\n  }\n\n  function setTokenExchangeRate(uint256 _exchangeRate) public returns (bool) {\n    return sale.setTokenExchangeRate(_exchangeRate);\n  }\n\n  function setTokens() public returns (bool) {\n    return sale.setTokens();\n  }\n\n  function getOwner() public view returns (address) {\n    return sale.base.owner;\n  }\n\n  function getTokensPerEth() public view returns (uint256) {\n    return sale.base.tokensPerEth;\n  }\n\n  function getExchangeRate() public view returns (uint256) {\n    return sale.base.exchangeRate;\n  }\n\n  function getCapAmount() public view returns (uint256) {\n    return sale.base.capAmount;\n  }\n\n  function getStartTime() public view returns (uint256) {\n    return sale.base.startTime;\n  }\n\n  function getEndTime() public view returns (uint256) {\n    return sale.base.endTime;\n  }\n\n  function getEthRaised() public view returns (uint256) {\n    return sale.base.ownerBalance;\n  }\n\n  function getContribution(address _buyer) public view returns (uint256) {\n  \treturn sale.base.hasContributed[_buyer];\n  }\n\n  function getTokenPurchase(address _buyer) public view returns (uint256) {\n  \treturn sale.base.withdrawTokensMap[_buyer];\n  }\n\n  function getLeftoverWei(address _buyer) public view returns (uint256) {\n    return sale.base.leftoverWei[_buyer];\n  }\n\n  function getSaleData(uint256 timestamp) public view returns (uint256[3]) {\n    return sale.getSaleData(timestamp);\n  }\n\n  function getTokensSold() public view returns (uint256) {\n    return sale.getTokensSold();\n  }\n\n  function getPercentBurn() public view returns (uint256) {\n    return sale.base.percentBurn;\n  }\n}\n",
  "sourcePath": "/Users/hackdom/Projects/ethereum-libraries/CrowdsaleLib/DirectCrowdsale/truffle/contracts/DirectCrowdsaleTestZeroD.sol",
  "compiler": {
    "name": "solc",
    "version": "0.4.18+commit.9cf6e910.Emscripten.clang"
  },
  "schemaVersion": "1.0.1",
  "updatedAt": "2017-11-28T03:28:50.643Z"
}