{
  "contractName": "DirectCrowdsaleLib",
  "abi": [
    {
      "constant": true,
      "inputs": [
        {
          "name": "self",
          "type": "DirectCrowdsaleLib.DirectCrowdsaleStorage storage"
        },
        {
          "name": "timestamp",
          "type": "uint256"
        }
      ],
      "name": "getSaleData",
      "outputs": [
        {
          "name": "",
          "type": "uint256[3]"
        }
      ],
      "payable": false,
      "stateMutability": "view",
      "type": "function"
    },
    {
      "constant": true,
      "inputs": [
        {
          "name": "self",
          "type": "DirectCrowdsaleLib.DirectCrowdsaleStorage storage"
        }
      ],
      "name": "crowdsaleEnded",
      "outputs": [
        {
          "name": "",
          "type": "bool"
        }
      ],
      "payable": false,
      "stateMutability": "view",
      "type": "function"
    },
    {
      "constant": false,
      "inputs": [
        {
          "name": "self",
          "type": "DirectCrowdsaleLib.DirectCrowdsaleStorage storage"
        }
      ],
      "name": "setTokens",
      "outputs": [
        {
          "name": "",
          "type": "bool"
        }
      ],
      "payable": false,
      "stateMutability": "nonpayable",
      "type": "function"
    },
    {
      "constant": false,
      "inputs": [
        {
          "name": "self",
          "type": "DirectCrowdsaleLib.DirectCrowdsaleStorage storage"
        }
      ],
      "name": "withdrawTokens",
      "outputs": [
        {
          "name": "",
          "type": "bool"
        }
      ],
      "payable": false,
      "stateMutability": "nonpayable",
      "type": "function"
    },
    {
      "constant": false,
      "inputs": [
        {
          "name": "self",
          "type": "DirectCrowdsaleLib.DirectCrowdsaleStorage storage"
        },
        {
          "name": "_owner",
          "type": "address"
        },
        {
          "name": "_saleData",
          "type": "uint256[]"
        },
        {
          "name": "_fallbackExchangeRate",
          "type": "uint256"
        },
        {
          "name": "_capAmountInCents",
          "type": "uint256"
        },
        {
          "name": "_endTime",
          "type": "uint256"
        },
        {
          "name": "_percentBurn",
          "type": "uint8"
        },
        {
          "name": "_token",
          "type": "CrowdsaleToken"
        }
      ],
      "name": "init",
      "outputs": [],
      "payable": false,
      "stateMutability": "nonpayable",
      "type": "function"
    },
    {
      "constant": false,
      "inputs": [
        {
          "name": "self",
          "type": "DirectCrowdsaleLib.DirectCrowdsaleStorage storage"
        }
      ],
      "name": "withdrawOwnerEth",
      "outputs": [
        {
          "name": "",
          "type": "bool"
        }
      ],
      "payable": false,
      "stateMutability": "nonpayable",
      "type": "function"
    },
    {
      "constant": true,
      "inputs": [
        {
          "name": "self",
          "type": "DirectCrowdsaleLib.DirectCrowdsaleStorage storage"
        }
      ],
      "name": "crowdsaleActive",
      "outputs": [
        {
          "name": "",
          "type": "bool"
        }
      ],
      "payable": false,
      "stateMutability": "view",
      "type": "function"
    },
    {
      "constant": false,
      "inputs": [
        {
          "name": "self",
          "type": "DirectCrowdsaleLib.DirectCrowdsaleStorage storage"
        },
        {
          "name": "_exchangeRate",
          "type": "uint256"
        }
      ],
      "name": "setTokenExchangeRate",
      "outputs": [
        {
          "name": "",
          "type": "bool"
        }
      ],
      "payable": false,
      "stateMutability": "nonpayable",
      "type": "function"
    },
    {
      "constant": false,
      "inputs": [
        {
          "name": "self",
          "type": "DirectCrowdsaleLib.DirectCrowdsaleStorage storage"
        },
        {
          "name": "_amount",
          "type": "uint256"
        }
      ],
      "name": "receivePurchase",
      "outputs": [
        {
          "name": "",
          "type": "bool"
        }
      ],
      "payable": false,
      "stateMutability": "nonpayable",
      "type": "function"
    },
    {
      "constant": true,
      "inputs": [
        {
          "name": "self",
          "type": "DirectCrowdsaleLib.DirectCrowdsaleStorage storage"
        }
      ],
      "name": "getTokensSold",
      "outputs": [
        {
          "name": "",
          "type": "uint256"
        }
      ],
      "payable": false,
      "stateMutability": "view",
      "type": "function"
    },
    {
      "constant": false,
      "inputs": [
        {
          "name": "self",
          "type": "DirectCrowdsaleLib.DirectCrowdsaleStorage storage"
        }
      ],
      "name": "withdrawLeftoverWei",
      "outputs": [
        {
          "name": "",
          "type": "bool"
        }
      ],
      "payable": false,
      "stateMutability": "nonpayable",
      "type": "function"
    },
    {
      "anonymous": false,
      "inputs": [
        {
          "indexed": true,
          "name": "buyer",
          "type": "address"
        },
        {
          "indexed": false,
          "name": "amount",
          "type": "uint256"
        }
      ],
      "name": "LogTokensBought",
      "type": "event"
    },
    {
      "anonymous": false,
      "inputs": [
        {
          "indexed": false,
          "name": "amount",
          "type": "uint256"
        },
        {
          "indexed": false,
          "name": "Msg",
          "type": "string"
        }
      ],
      "name": "LogTokenPriceChange",
      "type": "event"
    },
    {
      "anonymous": false,
      "inputs": [
        {
          "indexed": false,
          "name": "amount",
          "type": "uint256"
        },
        {
          "indexed": false,
          "name": "Msg",
          "type": "string"
        }
      ],
      "name": "LogErrorMsg",
      "type": "event"
    }
  ],
  "bytecode": "0x6060604052341561000f57600080fd5b61151d8061001e6000396000f3006060604052600436106100af576000357c0100000000000000000000000000000000000000000000000000000000900463ffffffff1680630239796e146100b45780630acfb98514610111578063112c1e90146101415780637b84bfb5146101715780637de64c89146101a15780638e7a53361461025e578063aae1288a1461028e578063d99083f3146102be578063e1f0a45a146102f7578063eabf1a1314610330578063eb40c0d61461035c575b600080fd5b6100d3600480803590602001909190803590602001909190505061038c565b6040518082600360200280838360005b838110156100fe5780820151818401526020810190506100e3565b5050505090500191505060405180910390f35b610127600480803590602001909190505061043a565b604051808215151515815260200191505060405180910390f35b61015760048080359060200190919050506104d6565b604051808215151515815260200191505060405180910390f35b6101876004808035906020019091905050610572565b604051808215151515815260200191505060405180910390f35b61025c600480803590602001909190803573ffffffffffffffffffffffffffffffffffffffff169060200190919080359060200190820180359060200190808060200260200160405190810160405280939291908181526020018383602002808284378201915050505050509190803590602001909190803590602001909190803590602001909190803560ff1690602001909190803573ffffffffffffffffffffffffffffffffffffffff1690602001909190505061060e565b005b6102746004808035906020019091905050610772565b604051808215151515815260200191505060405180910390f35b6102a4600480803590602001909190505061080e565b604051808215151515815260200191505060405180910390f35b6102dd60048080359060200190919080359060200190919050506108aa565b604051808215151515815260200191505060405180910390f35b610316600480803590602001909190803590602001909190505061094f565b604051808215151515815260200191505060405180910390f35b61034660048080359060200190919050506111a5565b6040518082815260200191505060405180910390f35b6103726004808035906020019091905050611241565b604051808215151515815260200191505060405180910390f35b6103946114c9565b8260000173__CrowdsaleLib__________________________63d7bc09599091846000604051606001526040518363ffffffff167c0100000000000000000000000000000000000000000000000000000000028152600401808381526020018281526020019250505060606040518083038186803b151561041457600080fd5b6102c65a03f4151561042557600080fd5b50505060405180606001604052905092915050565b60008160000173__CrowdsaleLib__________________________6310bc04e790916000604051602001526040518263ffffffff167c01000000000000000000000000000000000000000000000000000000000281526004018082815260200191505060206040518083038186803b15156104b457600080fd5b6102c65a03f415156104c557600080fd5b505050604051805190509050919050565b60008160000173__CrowdsaleLib__________________________633617dbba90916000604051602001526040518263ffffffff167c01000000000000000000000000000000000000000000000000000000000281526004018082815260200191505060206040518083038186803b151561055057600080fd5b6102c65a03f4151561056157600080fd5b505050604051805190509050919050565b60008160000173__CrowdsaleLib__________________________63b5d8816390916000604051602001526040518263ffffffff167c01000000000000000000000000000000000000000000000000000000000281526004018082815260200191505060206040518083038186803b15156105ec57600080fd5b6102c65a03f415156105fd57600080fd5b505050604051805190509050919050565b8760000173__CrowdsaleLib__________________________63d11bd57f9091898989898989896040518963ffffffff167c0100000000000000000000000000000000000000000000000000000000028152600401808981526020018873ffffffffffffffffffffffffffffffffffffffff1673ffffffffffffffffffffffffffffffffffffffff168152602001806020018781526020018681526020018581526020018460ff1660ff1681526020018373ffffffffffffffffffffffffffffffffffffffff1673ffffffffffffffffffffffffffffffffffffffff168152602001828103825288818151815260200191508051906020019060200280838360005b8381101561072b578082015181840152602081019050610710565b50505050905001995050505050505050505060006040518083038186803b151561075457600080fd5b6102c65a03f4151561076557600080fd5b5050505050505050505050565b60008160000173__CrowdsaleLib__________________________63d34e327490916000604051602001526040518263ffffffff167c01000000000000000000000000000000000000000000000000000000000281526004018082815260200191505060206040518083038186803b15156107ec57600080fd5b6102c65a03f415156107fd57600080fd5b505050604051805190509050919050565b60008160000173__CrowdsaleLib__________________________636eee0e9290916000604051602001526040518263ffffffff167c01000000000000000000000000000000000000000000000000000000000281526004018082815260200191505060206040518083038186803b151561088857600080fd5b6102c65a03f4151561089957600080fd5b505050604051805190509050919050565b60008260000173__CrowdsaleLib__________________________6314f1d11b9091846000604051602001526040518363ffffffff167c0100000000000000000000000000000000000000000000000000000000028152600401808381526020018281526020019250505060206040518083038186803b151561092c57600080fd5b6102c65a03f4151561093d57600080fd5b50505060405180519050905092915050565b60008060008060008060008860000160000160009054906101000a900473ffffffffffffffffffffffffffffffffffffffff1673ffffffffffffffffffffffffffffffffffffffff163373ffffffffffffffffffffffffffffffffffffffff16141515156109bc57600080fd5b6109c8896000016112dd565b15156109d357600080fd5b60018960000160090160009054906101000a900460ff160160ff168960000160080180549050118015610a3e57508860000160080160018a60000160090160009054906101000a900460ff160160ff16815481101515610a2f57fe5b90600052602060002090015442115b15610bd8575b60018960000160090160009054906101000a900460ff160160ff168960000160080180549050118015610aaf57508860000160080160018a60000160090160009054906101000a900460ff160160ff16815481101515610aa057fe5b90600052602060002090015442115b15610aec5760018960000160090160008282829054906101000a900460ff160192506101000a81548160ff021916908360ff160217905550610a44565b610b5f89600001600a0160008b6000016008018c60000160090160009054906101000a900460ff1660ff16815481101515610b2357fe5b90600052602060002090015481526020019081526020016000206000600281101515610b4b57fe5b01548a6000016113a890919063ffffffff16565b507f140575aff45eb4e414ffb6ece685f9e52ecf2bb56553b9e1b716175d9a25bffa89600001600101546040518082815260200180602001828103825260188152602001807f546f6b656e20507269636520686173206368616e6765642100000000000000008152506020019250505060405180910390a15b8860000160020154888a60000160060154011115610c0b578860000160020154888a600001600601540103925082880397505b8773__BasicMathLib__________________________631d3b9edf90918b600001600101546000604051604001526040518363ffffffff167c01000000000000000000000000000000000000000000000000000000000281526004018083815260200182815260200192505050604080518083038186803b1515610c8e57600080fd5b6102c65a03f41515610c9f57600080fd5b50505060405180519060200180519050809550819250505080151515610cc457600080fd5b670de0b6b3a764000084811515610cd757fe5b049550670de0b6b3a764000084811515610ced57fe5b069150886000016001015482811515610d0257fe5b049150818301925081880397508289600001600d0160003373ffffffffffffffffffffffffffffffffffffffff1673ffffffffffffffffffffffffffffffffffffffff168152602001908152602001600020600082825401925050819055508789600001600b0160003373ffffffffffffffffffffffffffffffffffffffff1673ffffffffffffffffffffffffffffffffffffffff1681526020019081526020016000206000828254019250508190555088600001600e0160009054906101000a900473ffffffffffffffffffffffffffffffffffffffff1673ffffffffffffffffffffffffffffffffffffffff166370a08231306000604051602001526040518263ffffffff167c0100000000000000000000000000000000000000000000000000000000028152600401808273ffffffffffffffffffffffffffffffffffffffff1673ffffffffffffffffffffffffffffffffffffffff168152602001915050602060405180830381600087803b1515610e7d57600080fd5b6102c65a03f11515610e8e57600080fd5b505050604051805190508611151515610ea357fe5b886000016006015473__BasicMathLib__________________________6366098d4f90918a6000604051604001526040518363ffffffff167c01000000000000000000000000000000000000000000000000000000000281526004018083815260200182815260200192505050604080518083038186803b1515610f2657600080fd5b6102c65a03f41515610f3757600080fd5b50505060405180519060200180519050809650819250505080151515610f5c57600080fd5b8489600001600601819055508589600001600c0160003373ffffffffffffffffffffffffffffffffffffffff1673ffffffffffffffffffffffffffffffffffffffff1681526020019081526020016000206000828254019250508190555088600001600c0160008a60000160000160009054906101000a900473ffffffffffffffffffffffffffffffffffffffff1673ffffffffffffffffffffffffffffffffffffffff1673ffffffffffffffffffffffffffffffffffffffff1681526020019081526020016000205473__BasicMathLib__________________________63f4f3bdc19091886000604051604001526040518363ffffffff167c01000000000000000000000000000000000000000000000000000000000281526004018083815260200182815260200192505050604080518083038186803b15156110a157600080fd5b6102c65a03f415156110b257600080fd5b505050604051805190602001805190508093508192505050801515156110d757600080fd5b8189600001600c0160008b60000160000160009054906101000a900473ffffffffffffffffffffffffffffffffffffffff1673ffffffffffffffffffffffffffffffffffffffff1673ffffffffffffffffffffffffffffffffffffffff168152602001908152602001600020819055503373ffffffffffffffffffffffffffffffffffffffff167f58e85e03761641c3aabc1113bca56bd151f1381debda5a1805aa1fbd3662c46d876040518082815260200191505060405180910390a26001965050505050505092915050565b60008160000173__CrowdsaleLib__________________________6319c5f76b90916000604051602001526040518263ffffffff167c01000000000000000000000000000000000000000000000000000000000281526004018082815260200191505060206040518083038186803b151561121f57600080fd5b6102c65a03f4151561123057600080fd5b505050604051805190509050919050565b60008160000173__CrowdsaleLib__________________________63d06f9a5e90916000604051602001526040518263ffffffff167c01000000000000000000000000000000000000000000000000000000000281526004018082815260200191505060206040518083038186803b15156112bb57600080fd5b6102c65a03f415156112cc57600080fd5b505050604051805190509050919050565b600080600034141590506112f0836114a8565b80156112f95750805b1561130757600191506113a2565b7f8756f3e78da606244d7d8c9563ce2678f294db7c57afce515849e03d5eec6c3a346040518082815260200180602001828103825260378152602001807f496e76616c69642050757263686173652120436865636b20737461727420746981526020017f6d6520616e6420616d6f756e74206f662065746865722e0000000000000000008152506040019250505060405180910390a1600091505b50919050565b600080600080841115156113bb57600080fd5b846005015473__BasicMathLib__________________________631d3b9edf90918760090160019054906101000a900460ff1660ff16600a0a6000604051604001526040518363ffffffff167c01000000000000000000000000000000000000000000000000000000000281526004018083815260200182815260200192505050604080518083038186803b151561145257600080fd5b6102c65a03f4151561146357600080fd5b5050506040518051906020018051905080925081935050508115151561148857600080fd5b838181151561149357fe5b04856001018190555060019250505092915050565b6000816003015442101580156114c2575081600401544211155b9050919050565b6060604051908101604052806003905b60008152602001906001900390816114d957905050905600a165627a7a72305820ea663d06b83476199d614499d8447bdfbce144a5ab86cc08337dec83c8237da70029",
  "deployedBytecode": "0x6060604052341561000f57600080fd5b61151d8061001e6000396000f3006060604052600436106100af576000357c0100000000000000000000000000000000000000000000000000000000900463ffffffff1680630239796e146100b45780630acfb98514610111578063112c1e90146101415780637b84bfb5146101715780637de64c89146101a15780638e7a53361461025e578063aae1288a1461028e578063d99083f3146102be578063e1f0a45a146102f7578063eabf1a1314610330578063eb40c0d61461035c575b600080fd5b6100d3600480803590602001909190803590602001909190505061038c565b6040518082600360200280838360005b838110156100fe5780820151818401526020810190506100e3565b5050505090500191505060405180910390f35b610127600480803590602001909190505061043a565b604051808215151515815260200191505060405180910390f35b61015760048080359060200190919050506104d6565b604051808215151515815260200191505060405180910390f35b6101876004808035906020019091905050610572565b604051808215151515815260200191505060405180910390f35b61025c600480803590602001909190803573ffffffffffffffffffffffffffffffffffffffff169060200190919080359060200190820180359060200190808060200260200160405190810160405280939291908181526020018383602002808284378201915050505050509190803590602001909190803590602001909190803590602001909190803560ff1690602001909190803573ffffffffffffffffffffffffffffffffffffffff1690602001909190505061060e565b005b6102746004808035906020019091905050610772565b604051808215151515815260200191505060405180910390f35b6102a4600480803590602001909190505061080e565b604051808215151515815260200191505060405180910390f35b6102dd60048080359060200190919080359060200190919050506108aa565b604051808215151515815260200191505060405180910390f35b610316600480803590602001909190803590602001909190505061094f565b604051808215151515815260200191505060405180910390f35b61034660048080359060200190919050506111a5565b6040518082815260200191505060405180910390f35b6103726004808035906020019091905050611241565b604051808215151515815260200191505060405180910390f35b6103946114c9565b8260000173AdaCc992cE92030a7Cc4E4987Fe1f253F4fCD4Fd63d7bc09599091846000604051606001526040518363ffffffff167c0100000000000000000000000000000000000000000000000000000000028152600401808381526020018281526020019250505060606040518083038186803b151561041457600080fd5b6102c65a03f4151561042557600080fd5b50505060405180606001604052905092915050565b60008160000173AdaCc992cE92030a7Cc4E4987Fe1f253F4fCD4Fd6310bc04e790916000604051602001526040518263ffffffff167c01000000000000000000000000000000000000000000000000000000000281526004018082815260200191505060206040518083038186803b15156104b457600080fd5b6102c65a03f415156104c557600080fd5b505050604051805190509050919050565b60008160000173AdaCc992cE92030a7Cc4E4987Fe1f253F4fCD4Fd633617dbba90916000604051602001526040518263ffffffff167c01000000000000000000000000000000000000000000000000000000000281526004018082815260200191505060206040518083038186803b151561055057600080fd5b6102c65a03f4151561056157600080fd5b505050604051805190509050919050565b60008160000173AdaCc992cE92030a7Cc4E4987Fe1f253F4fCD4Fd63b5d8816390916000604051602001526040518263ffffffff167c01000000000000000000000000000000000000000000000000000000000281526004018082815260200191505060206040518083038186803b15156105ec57600080fd5b6102c65a03f415156105fd57600080fd5b505050604051805190509050919050565b8760000173AdaCc992cE92030a7Cc4E4987Fe1f253F4fCD4Fd63d11bd57f9091898989898989896040518963ffffffff167c0100000000000000000000000000000000000000000000000000000000028152600401808981526020018873ffffffffffffffffffffffffffffffffffffffff1673ffffffffffffffffffffffffffffffffffffffff168152602001806020018781526020018681526020018581526020018460ff1660ff1681526020018373ffffffffffffffffffffffffffffffffffffffff1673ffffffffffffffffffffffffffffffffffffffff168152602001828103825288818151815260200191508051906020019060200280838360005b8381101561072b578082015181840152602081019050610710565b50505050905001995050505050505050505060006040518083038186803b151561075457600080fd5b6102c65a03f4151561076557600080fd5b5050505050505050505050565b60008160000173AdaCc992cE92030a7Cc4E4987Fe1f253F4fCD4Fd63d34e327490916000604051602001526040518263ffffffff167c01000000000000000000000000000000000000000000000000000000000281526004018082815260200191505060206040518083038186803b15156107ec57600080fd5b6102c65a03f415156107fd57600080fd5b505050604051805190509050919050565b60008160000173AdaCc992cE92030a7Cc4E4987Fe1f253F4fCD4Fd636eee0e9290916000604051602001526040518263ffffffff167c01000000000000000000000000000000000000000000000000000000000281526004018082815260200191505060206040518083038186803b151561088857600080fd5b6102c65a03f4151561089957600080fd5b505050604051805190509050919050565b60008260000173AdaCc992cE92030a7Cc4E4987Fe1f253F4fCD4Fd6314f1d11b9091846000604051602001526040518363ffffffff167c0100000000000000000000000000000000000000000000000000000000028152600401808381526020018281526020019250505060206040518083038186803b151561092c57600080fd5b6102c65a03f4151561093d57600080fd5b50505060405180519050905092915050565b60008060008060008060008860000160000160009054906101000a900473ffffffffffffffffffffffffffffffffffffffff1673ffffffffffffffffffffffffffffffffffffffff163373ffffffffffffffffffffffffffffffffffffffff16141515156109bc57600080fd5b6109c8896000016112dd565b15156109d357600080fd5b60018960000160090160009054906101000a900460ff160160ff168960000160080180549050118015610a3e57508860000160080160018a60000160090160009054906101000a900460ff160160ff16815481101515610a2f57fe5b90600052602060002090015442115b15610bd8575b60018960000160090160009054906101000a900460ff160160ff168960000160080180549050118015610aaf57508860000160080160018a60000160090160009054906101000a900460ff160160ff16815481101515610aa057fe5b90600052602060002090015442115b15610aec5760018960000160090160008282829054906101000a900460ff160192506101000a81548160ff021916908360ff160217905550610a44565b610b5f89600001600a0160008b6000016008018c60000160090160009054906101000a900460ff1660ff16815481101515610b2357fe5b90600052602060002090015481526020019081526020016000206000600281101515610b4b57fe5b01548a6000016113a890919063ffffffff16565b507f140575aff45eb4e414ffb6ece685f9e52ecf2bb56553b9e1b716175d9a25bffa89600001600101546040518082815260200180602001828103825260188152602001807f546f6b656e20507269636520686173206368616e6765642100000000000000008152506020019250505060405180910390a15b8860000160020154888a60000160060154011115610c0b578860000160020154888a600001600601540103925082880397505b8773EbDD4DfEe8cd0348476a0DcA736344B9DDd0BCA2631d3b9edf90918b600001600101546000604051604001526040518363ffffffff167c01000000000000000000000000000000000000000000000000000000000281526004018083815260200182815260200192505050604080518083038186803b1515610c8e57600080fd5b6102c65a03f41515610c9f57600080fd5b50505060405180519060200180519050809550819250505080151515610cc457600080fd5b670de0b6b3a764000084811515610cd757fe5b049550670de0b6b3a764000084811515610ced57fe5b069150886000016001015482811515610d0257fe5b049150818301925081880397508289600001600d0160003373ffffffffffffffffffffffffffffffffffffffff1673ffffffffffffffffffffffffffffffffffffffff168152602001908152602001600020600082825401925050819055508789600001600b0160003373ffffffffffffffffffffffffffffffffffffffff1673ffffffffffffffffffffffffffffffffffffffff1681526020019081526020016000206000828254019250508190555088600001600e0160009054906101000a900473ffffffffffffffffffffffffffffffffffffffff1673ffffffffffffffffffffffffffffffffffffffff166370a08231306000604051602001526040518263ffffffff167c0100000000000000000000000000000000000000000000000000000000028152600401808273ffffffffffffffffffffffffffffffffffffffff1673ffffffffffffffffffffffffffffffffffffffff168152602001915050602060405180830381600087803b1515610e7d57600080fd5b6102c65a03f11515610e8e57600080fd5b505050604051805190508611151515610ea357fe5b886000016006015473EbDD4DfEe8cd0348476a0DcA736344B9DDd0BCA26366098d4f90918a6000604051604001526040518363ffffffff167c01000000000000000000000000000000000000000000000000000000000281526004018083815260200182815260200192505050604080518083038186803b1515610f2657600080fd5b6102c65a03f41515610f3757600080fd5b50505060405180519060200180519050809650819250505080151515610f5c57600080fd5b8489600001600601819055508589600001600c0160003373ffffffffffffffffffffffffffffffffffffffff1673ffffffffffffffffffffffffffffffffffffffff1681526020019081526020016000206000828254019250508190555088600001600c0160008a60000160000160009054906101000a900473ffffffffffffffffffffffffffffffffffffffff1673ffffffffffffffffffffffffffffffffffffffff1673ffffffffffffffffffffffffffffffffffffffff1681526020019081526020016000205473EbDD4DfEe8cd0348476a0DcA736344B9DDd0BCA263f4f3bdc19091886000604051604001526040518363ffffffff167c01000000000000000000000000000000000000000000000000000000000281526004018083815260200182815260200192505050604080518083038186803b15156110a157600080fd5b6102c65a03f415156110b257600080fd5b505050604051805190602001805190508093508192505050801515156110d757600080fd5b8189600001600c0160008b60000160000160009054906101000a900473ffffffffffffffffffffffffffffffffffffffff1673ffffffffffffffffffffffffffffffffffffffff1673ffffffffffffffffffffffffffffffffffffffff168152602001908152602001600020819055503373ffffffffffffffffffffffffffffffffffffffff167f58e85e03761641c3aabc1113bca56bd151f1381debda5a1805aa1fbd3662c46d876040518082815260200191505060405180910390a26001965050505050505092915050565b60008160000173AdaCc992cE92030a7Cc4E4987Fe1f253F4fCD4Fd6319c5f76b90916000604051602001526040518263ffffffff167c01000000000000000000000000000000000000000000000000000000000281526004018082815260200191505060206040518083038186803b151561121f57600080fd5b6102c65a03f4151561123057600080fd5b505050604051805190509050919050565b60008160000173AdaCc992cE92030a7Cc4E4987Fe1f253F4fCD4Fd63d06f9a5e90916000604051602001526040518263ffffffff167c01000000000000000000000000000000000000000000000000000000000281526004018082815260200191505060206040518083038186803b15156112bb57600080fd5b6102c65a03f415156112cc57600080fd5b505050604051805190509050919050565b600080600034141590506112f0836114a8565b80156112f95750805b1561130757600191506113a2565b7f8756f3e78da606244d7d8c9563ce2678f294db7c57afce515849e03d5eec6c3a346040518082815260200180602001828103825260378152602001807f496e76616c69642050757263686173652120436865636b20737461727420746981526020017f6d6520616e6420616d6f756e74206f662065746865722e0000000000000000008152506040019250505060405180910390a1600091505b50919050565b600080600080841115156113bb57600080fd5b846005015473EbDD4DfEe8cd0348476a0DcA736344B9DDd0BCA2631d3b9edf90918760090160019054906101000a900460ff1660ff16600a0a6000604051604001526040518363ffffffff167c01000000000000000000000000000000000000000000000000000000000281526004018083815260200182815260200192505050604080518083038186803b151561145257600080fd5b6102c65a03f4151561146357600080fd5b5050506040518051906020018051905080925081935050508115151561148857600080fd5b838181151561149357fe5b04856001018190555060019250505092915050565b6000816003015442101580156114c2575081600401544211155b9050919050565b6060604051908101604052806003905b60008152602001906001900390816114d957905050905600a165627a7a72305820ea663d06b83476199d614499d8447bdfbce144a5ab86cc08337dec83c8237da70029",
  "source": "pragma solidity ^0.4.18;\n\n/**\n * @title DirectCrowdsaleLib\n * @author Majoolr.io\n *\n * version 2.1.1\n * Copyright (c) 2017 Majoolr, LLC\n * The MIT License (MIT)\n * https://github.com/Majoolr/ethereum-libraries/blob/master/LICENSE\n *\n * The DirectCrowdsale Library provides functionality to create a initial coin offering\n * for a standard token sale with high supply where there is a direct ether to\n * token transfer.\n *\n * Majoolr provides smart contract services and security reviews for contract\n * deployments in addition to working on open source projects in the Ethereum\n * community. Our purpose is to test, document, and deploy reusable code onto the\n * blockchain and improve both security and usability. We also educate non-profits,\n * schools, and other community members about the application of blockchain\n * technology. For further information: majoolr.io\n *\n * THE SOFTWARE IS PROVIDED \"AS IS\", WITHOUT WARRANTY OF ANY KIND, EXPRESS\n * OR IMPLIED, INCLUDING BUT NOT LIMITED TO THE WARRANTIES OF\n * MERCHANTABILITY, FITNESS FOR A PARTICULAR PURPOSE AND NONINFRINGEMENT.\n * IN NO EVENT SHALL THE AUTHORS OR COPYRIGHT HOLDERS BE LIABLE FOR ANY\n * CLAIM, DAMAGES OR OTHER LIABILITY, WHETHER IN AN ACTION OF CONTRACT,\n * TORT OR OTHERWISE, ARISING FROM, OUT OF OR IN CONNECTION WITH THE\n * SOFTWARE OR THE USE OR OTHER DEALINGS IN THE SOFTWARE.\n */\n\nimport \"./BasicMathLib.sol\";\nimport \"./TokenLib.sol\";\nimport \"./CrowdsaleLib.sol\";\n\nlibrary DirectCrowdsaleLib {\n  using BasicMathLib for uint256;\n  using CrowdsaleLib for CrowdsaleLib.CrowdsaleStorage;\n\n  struct DirectCrowdsaleStorage {\n\n  \tCrowdsaleLib.CrowdsaleStorage base; // base storage from CrowdsaleLib\n\n  }\n\n  event LogTokensBought(address indexed buyer, uint256 amount);\n  event LogTokenPriceChange(uint256 amount, string Msg);\n  event LogErrorMsg(uint256 amount, string Msg);\n\n\n  /// @dev Called by a crowdsale contract upon creation.\n  /// @param self Stored crowdsale from crowdsale contract\n  /// @param _owner Address of crowdsale owner\n  /// @param _saleData Array of 3 item sets such that, in each 3 element\n  /// set, 1 is timestamp, 2 is price in cents at that time,\n  /// 3 is address purchase cap at that time, 0 if no address cap\n  /// @param _fallbackExchangeRate Exchange rate of cents/ETH\n  /// @param _capAmountInCents Total to be raised in cents\n  /// @param _endTime Timestamp of sale end time\n  /// @param _percentBurn Percentage of extra tokens to burn\n  /// @param _token Token being sold\n  function init(DirectCrowdsaleStorage storage self,\n                address _owner,\n                uint256[] _saleData,\n                uint256 _fallbackExchangeRate,\n                uint256 _capAmountInCents,\n                uint256 _endTime,\n                uint8 _percentBurn,\n                CrowdsaleToken _token)\n                public\n  {\n  \tself.base.init(_owner,\n                _saleData,\n                _fallbackExchangeRate,\n                _capAmountInCents,\n                _endTime,\n                _percentBurn,\n                _token);\n  }\n\n  /// @dev Called when an address wants to purchase tokens\n  /// @param self Stored crowdsale from crowdsale contract\n  /// @param _amount amount of wei that the buyer is sending\n  /// @return true on succesful purchase\n  function receivePurchase(DirectCrowdsaleStorage storage self, uint256 _amount)\n                           public\n                           returns (bool)\n  {\n    require(msg.sender != self.base.owner);\n  \trequire(self.base.validPurchase());\n\n  \t// if the token price increase interval has passed, update the current day and change the token price\n  \tif ((self.base.milestoneTimes.length > self.base.currentMilestone + 1) &&\n        (now > self.base.milestoneTimes[self.base.currentMilestone + 1]))\n    {\n        while((self.base.milestoneTimes.length > self.base.currentMilestone + 1) &&\n              (now > self.base.milestoneTimes[self.base.currentMilestone + 1]))\n        {\n          self.base.currentMilestone += 1;\n        }\n\n        self.base.changeTokenPrice(self.base.saleData[self.base.milestoneTimes[self.base.currentMilestone]][0]);\n        LogTokenPriceChange(self.base.tokensPerEth,\"Token Price has changed!\");\n    }\n\n  \tuint256 _numTokens; //number of tokens that will be purchased\n    uint256 _newBalance; //the new balance of the owner of the crowdsale\n    uint256 _weiTokens; //temp calc holder\n    uint256 _leftoverWei; //wei change for purchaser\n    uint256 _remainder; //temp calc holder\n    bool err;\n\n    if((self.base.ownerBalance + _amount) > self.base.capAmount){\n      _leftoverWei = (self.base.ownerBalance + _amount) - self.base.capAmount;\n      _amount = _amount - _leftoverWei;\n    }\n\n    // Find the number of tokens as a function in wei\n    (err,_weiTokens) = _amount.times(self.base.tokensPerEth);\n    require(!err);\n\n    _numTokens = _weiTokens / 1000000000000000000;\n    _remainder = _weiTokens % 1000000000000000000;\n    _remainder = _remainder / self.base.tokensPerEth;\n    _leftoverWei = _leftoverWei + _remainder;\n    _amount = _amount - _remainder;\n    self.base.leftoverWei[msg.sender] += _leftoverWei;\n\n    // can't overflow because it is under the cap\n    self.base.hasContributed[msg.sender] += _amount;\n\n    assert(_numTokens <= self.base.token.balanceOf(this));\n\n    // calculate the amount of ether in the owners balance\n    (err,_newBalance) = self.base.ownerBalance.plus(_amount);\n    require(!err);\n\n    self.base.ownerBalance = _newBalance;   // \"deposit\" the amount\n\n    // can't overflow because it will be under the cap\n\t  self.base.withdrawTokensMap[msg.sender] += _numTokens;\n\n    //subtract tokens from owner's share\n    (err,_remainder) = self.base.withdrawTokensMap[self.base.owner].minus(_numTokens);\n    require(!err);\n    self.base.withdrawTokensMap[self.base.owner] = _remainder;\n\n\t  LogTokensBought(msg.sender, _numTokens);\n\n    return true;\n  }\n\n  /*Functions \"inherited\" from CrowdsaleLib library*/\n\n  function setTokenExchangeRate(DirectCrowdsaleStorage storage self, uint256 _exchangeRate)\n                                public\n                                returns (bool)\n  {\n    return self.base.setTokenExchangeRate(_exchangeRate);\n  }\n\n  function setTokens(DirectCrowdsaleStorage storage self) public returns (bool) {\n    return self.base.setTokens();\n  }\n\n  function withdrawTokens(DirectCrowdsaleStorage storage self) public returns (bool) {\n    return self.base.withdrawTokens();\n  }\n\n  function withdrawLeftoverWei(DirectCrowdsaleStorage storage self) public returns (bool) {\n    return self.base.withdrawLeftoverWei();\n  }\n\n  function withdrawOwnerEth(DirectCrowdsaleStorage storage self) public returns (bool) {\n    return self.base.withdrawOwnerEth();\n  }\n\n  function getSaleData(DirectCrowdsaleStorage storage self, uint256 timestamp)\n                       public\n                       view\n                       returns (uint256[3])\n  {\n    return self.base.getSaleData(timestamp);\n  }\n\n  function getTokensSold(DirectCrowdsaleStorage storage self) public view returns (uint256) {\n    return self.base.getTokensSold();\n  }\n\n  function crowdsaleActive(DirectCrowdsaleStorage storage self) public view returns (bool) {\n    return self.base.crowdsaleActive();\n  }\n\n  function crowdsaleEnded(DirectCrowdsaleStorage storage self) public view returns (bool) {\n    return self.base.crowdsaleEnded();\n  }\n}\n",
  "sourcePath": "/Users/hackdom/Projects/ethereum-libraries/CrowdsaleLib/DirectCrowdsale/truffle/contracts/DirectCrowdsaleLib.sol",
  "compiler": {
    "name": "solc",
    "version": "0.4.18+commit.9cf6e910.Emscripten.clang"
  },
  "schemaVersion": "1.0.1",
  "updatedAt": "2017-12-11T01:15:09.177Z"
}