{
  "contractName": "LinkedListTestContract",
  "abi": [
    {
      "constant": true,
      "inputs": [],
      "name": "sizeOf",
      "outputs": [
        {
          "name": "numElements",
          "type": "uint256"
        }
      ],
      "payable": false,
      "stateMutability": "view",
      "type": "function"
    },
    {
      "constant": false,
      "inputs": [
        {
          "name": "_node",
          "type": "uint256"
        },
        {
          "name": "_new",
          "type": "uint256"
        },
        {
          "name": "_direction",
          "type": "bool"
        }
      ],
      "name": "insert",
      "outputs": [],
      "payable": false,
      "stateMutability": "nonpayable",
      "type": "function"
    },
    {
      "constant": true,
      "inputs": [],
      "name": "listExists",
      "outputs": [
        {
          "name": "",
          "type": "bool"
        }
      ],
      "payable": false,
      "stateMutability": "view",
      "type": "function"
    },
    {
      "constant": false,
      "inputs": [
        {
          "name": "_direction",
          "type": "bool"
        }
      ],
      "name": "pop",
      "outputs": [
        {
          "name": "",
          "type": "uint256"
        }
      ],
      "payable": false,
      "stateMutability": "nonpayable",
      "type": "function"
    },
    {
      "constant": false,
      "inputs": [
        {
          "name": "_node",
          "type": "uint256"
        }
      ],
      "name": "remove",
      "outputs": [
        {
          "name": "",
          "type": "uint256"
        }
      ],
      "payable": false,
      "stateMutability": "nonpayable",
      "type": "function"
    },
    {
      "constant": true,
      "inputs": [
        {
          "name": "_node",
          "type": "uint256"
        }
      ],
      "name": "getNode",
      "outputs": [
        {
          "name": "",
          "type": "bool"
        },
        {
          "name": "",
          "type": "uint256"
        },
        {
          "name": "",
          "type": "uint256"
        }
      ],
      "payable": false,
      "stateMutability": "view",
      "type": "function"
    },
    {
      "constant": true,
      "inputs": [
        {
          "name": "_node",
          "type": "uint256"
        },
        {
          "name": "_direction",
          "type": "bool"
        }
      ],
      "name": "getAdjacent",
      "outputs": [
        {
          "name": "",
          "type": "bool"
        },
        {
          "name": "",
          "type": "uint256"
        }
      ],
      "payable": false,
      "stateMutability": "view",
      "type": "function"
    },
    {
      "constant": false,
      "inputs": [
        {
          "name": "_node",
          "type": "uint256"
        },
        {
          "name": "_link",
          "type": "uint256"
        },
        {
          "name": "_direction",
          "type": "bool"
        }
      ],
      "name": "createLink",
      "outputs": [],
      "payable": false,
      "stateMutability": "nonpayable",
      "type": "function"
    },
    {
      "constant": false,
      "inputs": [
        {
          "name": "_node",
          "type": "uint256"
        },
        {
          "name": "_direction",
          "type": "bool"
        }
      ],
      "name": "push",
      "outputs": [],
      "payable": false,
      "stateMutability": "nonpayable",
      "type": "function"
    },
    {
      "constant": true,
      "inputs": [
        {
          "name": "_node",
          "type": "uint256"
        }
      ],
      "name": "nodeExists",
      "outputs": [
        {
          "name": "",
          "type": "bool"
        }
      ],
      "payable": false,
      "stateMutability": "view",
      "type": "function"
    },
    {
      "constant": true,
      "inputs": [
        {
          "name": "_node",
          "type": "uint256"
        },
        {
          "name": "_value",
          "type": "uint256"
        },
        {
          "name": "_direction",
          "type": "bool"
        }
      ],
      "name": "getSortedSpot",
      "outputs": [
        {
          "name": "next",
          "type": "uint256"
        }
      ],
      "payable": false,
      "stateMutability": "view",
      "type": "function"
    },
    {
      "anonymous": false,
      "inputs": [
        {
          "indexed": false,
          "name": "Msg",
          "type": "string"
        }
      ],
      "name": "LogNotice",
      "type": "event"
    }
  ],
  "bytecode": "0x6060604052341561000f57600080fd5b6109dc8061001e6000396000f3006060604052600436106100af576000357c0100000000000000000000000000000000000000000000000000000000900463ffffffff1680630e15dc89146100b457806316ccef1c146100dd5780632c64bf581461011457806330cb14d2146101415780634cc822151461017a5780634f0f4aa9146101b1578063ac069c35146101fa578063b6f0b78714610247578063c5f713cf1461027e578063eabc709c146102ac578063ee22afbe146102e7575b600080fd5b34156100bf57600080fd5b6100c7610332565b6040518082815260200191505060405180910390f35b34156100e857600080fd5b61011260048080359060200190919080359060200190919080351515906020019091905050610343565b005b341561011f57600080fd5b610127610361565b604051808215151515815260200191505060405180910390f35b341561014c57600080fd5b61016460048080351515906020019091905050610372565b6040518082815260200191505060405180910390f35b341561018557600080fd5b61019b600480803590602001909190505061038f565b6040518082815260200191505060405180910390f35b34156101bc57600080fd5b6101d260048080359060200190919050506103ac565b6040518084151515158152602001838152602001828152602001935050505060405180910390f35b341561020557600080fd5b610226600480803590602001909190803515159060200190919050506103d2565b60405180831515151581526020018281526020019250505060405180910390f35b341561025257600080fd5b61027c600480803590602001909190803590602001909190803515159060200190919050506103f6565b005b341561028957600080fd5b6102aa60048080359060200190919080351515906020019091905050610413565b005b34156102b757600080fd5b6102cd600480803590602001909190505061042d565b604051808215151515815260200191505060405180910390f35b34156102f257600080fd5b61031c6004808035906020019091908035906020019091908035151590602001909190505061044a565b6040518082815260200191505060405180910390f35b600061033e600061046d565b905090565b61035b83838360006104ba909392919063ffffffff16565b50505050565b600061036d600061053b565b905090565b60006103888260006105ba90919063ffffffff16565b9050919050565b60006103a58260006105e790919063ffffffff16565b9050919050565b60008060006103c58460006106d590919063ffffffff16565b9250925092509193909250565b6000806103eb848460006107679092919063ffffffff16565b915091509250929050565b61040e83838360006107c3909392919063ffffffff16565b505050565b610429828260006108289092919063ffffffff16565b5050565b600061044382600061083b90919063ffffffff16565b9050919050565b600061046484848460006108f6909392919063ffffffff16565b90509392505050565b600080600061047f8460006001610767565b80925081935050505b6000811415156104b35761049e84826001610767565b80925081935050508280600101935050610488565b5050919050565b6000806104c7868561083b565b1580156104da57506104d9868661083b565b5b1561052d57856000016000868152602001908152602001600020600084151515158152602001908152602001600020549050610518868686866107c3565b610524868583866107c3565b60019150610532565b600091505b50949350505050565b600080826000016000808152602001908152602001600020600080151515158152602001908152602001600020541415806105a257506000826000016000808152602001908152602001600020600060011515151581526020019081526020016000205414155b156105b057600190506105b5565b600090505b919050565b60008060006105cb85600086610767565b80925081935050506105dd85826105e7565b9250505092915050565b6000808214806105fe57506105fc838361083b565b155b1561060c57600090506106cf565b61066e8384600001600085815260200190815260200160002060008015151515815260200190815260200160002054856000016000868152602001908152602001600020600060011515151581526020019081526020016000205460016107c3565b8260000160008381526020019081526020016000206000801515151581526020019081526020016000206000905582600001600083815260200190815260200160002060006001151515158152602001908152602001600020600090558190505b92915050565b60008060006106e4858561083b565b1515610700576000806000819150809050925092509250610760565b60018560000160008681526020019081526020016000206000801515151581526020019081526020016000205486600001600087815260200190815260200160002060006001151515158152602001908152602001600020549250925092505b9250925092565b600080610774858561083b565b151561078957600080809050915091506107bb565b600185600001600086815260200190815260200160002060008515151515815260200190815260200160002054915091505b935093915050565b828460000160008481526020019081526020016000206000831515151515815260200190815260200160002081905550818460000160008581526020019081526020016000206000831515151581526020019081526020016000208190555050505050565b61083583600084846104ba565b50505050565b600080836000016000848152602001908152602001600020600080151515158152602001908152602001600020541480156108a1575060008360000160008481526020019081526020016000206000600115151515815260200190815260200160002054145b156108eb5781836000016000808152602001908152602001600020600060011515151581526020019081526020016000205414156108e257600190506108f0565b600090506108f0565b600190505b92915050565b6000806000806109058861046d565b141561091457600092506109a6565b60008614806109295750610928878761083b565b5b151561093457600080fd5b61093f878786610767565b80925081935050505b600081141580156109595750808514155b801561096b5750831515818610151514155b156109a257866000016000828152602001908152602001600020600085151515158152602001908152602001600020549050610948565b8092505b50509493505050505600a165627a7a723058209e47c3117270e895a2108edc4313b5dd925e55df0fa2446b6f47633af07f02090029",
  "source": "pragma solidity ^0.4.18;\n\nimport \"./LinkedListLib.sol\";\n\ncontract LinkedListTestContract {\n\tusing LinkedListLib for LinkedListLib.LinkedList;\n\n\tuint256 constant NULL = 0;\n  \tuint256 constant HEAD = 0;\n  \tbool constant PREV = false;\n  \tbool constant NEXT = true;\n\n\tLinkedListLib.LinkedList list;\n\n\tevent LogNotice(string Msg);\n\n\tfunction listExists()\n        view public returns (bool)\n    {\n        return list.listExists();\n    }\n\n    /// @dev checks to see if a node exists\n    function nodeExists(uint256 _node) view public returns (bool) {\n        return list.nodeExists(_node);\n    }\n\n    /// @dev Returns the number of elements in the list\n    function sizeOf() view public returns (uint256 numElements) {\n        return list.sizeOf();\n    }\n\n    /// @dev Returns the links of a node as and array\n    /// @param _node id of the node to get\n    function getNode(uint256 _node)\n\t\tview public returns (bool,uint256,uint256)\n    {\n        return list.getNode(_node);\n    }\n\n    /// @dev Returns the link of a node `n` in direction `d`.\n    /// @param _node id of the node to step from\n    /// @param _direction direction to step in\n    function getAdjacent(uint256 _node, bool _direction)\n        view public returns (bool,uint256)\n    {\n        return list.getAdjacent(_node,_direction);\n    }\n\n    /// @dev Can be used before `insert` to build an ordered list\n    /// @param _node an existing node to search from, e.g. HEAD.\n    /// @param _value value to seek\n    /// @param _direction direction to seek in\n    //  @return next first node beyond '_node' in direction `_direction`\n    function getSortedSpot(uint256 _node, uint256 _value, bool _direction)\n        view public returns (uint256 next)\n    {\n        return list.getSortedSpot(_node,_value,_direction);\n    }\n\n    /// @dev Creates a bidirectional link between two nodes on direction `_direction`\n    /// @param _node first node for linking\n    /// @param _link  node to link to in the _direction\n    function createLink(uint256 _node, uint256 _link, bool _direction) public {\n        list.createLink(_node,_link,_direction);\n    }\n\n    /// @dev Insert node `_new` beside existing node `_node` in direction `_direction`.\n    /// @param _node existing node\n    /// @param _new  new node to insert\n    /// @param _direction direction to insert node in\n    function insert(uint256 _node, uint256 _new, bool _direction) public {\n        list.insert(_node,_new,_direction);\n    }\n\n    /// @dev removes an entry from the linked list\n    /// @param _node node to remove from the list\n    function remove(uint256 _node) public returns (uint256) {\n        return list.remove(_node);\n    }\n\n    /// @dev pushes an enrty to the head of the linked list\n    /// @param _node new entry to push to the head\n    /// @param _direction push to the head (NEXT) or tail (PREV)\n    function push(uint256 _node, bool _direction) public {\n        list.push(_node,_direction);\n    }\n\n    /// @dev pops the first entry from the linked list\n    /// @param _direction pop from the head (NEXT) or the tail (PREV)\n    function pop(bool _direction) public returns (uint256) {\n        return list.pop(_direction);\n    }\n}\n",
  "sourcePath": "/Users/joshuahannan/repository/majoolr/ethereum-libraries/LinkedListLib/truffle/contracts/LinkedListTestContract.sol",
  "compiler": {
    "name": "solc",
    "version": "0.4.18+commit.9cf6e910.Emscripten.clang"
  },
  "schemaVersion": "1.0.1",
  "updatedAt": "2017-12-05T17:24:38.452Z"
}