{
  "contractName": "InteractiveCrowdsaleLib",
  "abi": [
    {
      "constant": false,
      "inputs": [
        {
          "name": "self",
          "type": "InteractiveCrowdsaleLib.InteractiveCrowdsaleStorage storage"
        }
      ],
      "name": "withdrawBid",
      "outputs": [
        {
          "name": "",
          "type": "bool"
        }
      ],
      "payable": false,
      "stateMutability": "nonpayable",
      "type": "function"
    },
    {
      "constant": false,
      "inputs": [
        {
          "name": "self",
          "type": "InteractiveCrowdsaleLib.InteractiveCrowdsaleStorage storage"
        },
        {
          "name": "_amount",
          "type": "uint256"
        },
        {
          "name": "_personalCap",
          "type": "uint256"
        },
        {
          "name": "_valuePredict",
          "type": "uint256"
        }
      ],
      "name": "submitBid",
      "outputs": [
        {
          "name": "",
          "type": "bool"
        }
      ],
      "payable": false,
      "stateMutability": "nonpayable",
      "type": "function"
    },
    {
      "constant": false,
      "inputs": [
        {
          "name": "self",
          "type": "InteractiveCrowdsaleLib.InteractiveCrowdsaleStorage storage"
        }
      ],
      "name": "finalizeSale",
      "outputs": [
        {
          "name": "",
          "type": "bool"
        }
      ],
      "payable": false,
      "stateMutability": "nonpayable",
      "type": "function"
    },
    {
      "constant": true,
      "inputs": [
        {
          "name": "_number",
          "type": "uint256"
        }
      ],
      "name": "numDigits",
      "outputs": [
        {
          "name": "",
          "type": "uint256"
        }
      ],
      "payable": false,
      "stateMutability": "pure",
      "type": "function"
    },
    {
      "constant": false,
      "inputs": [
        {
          "name": "self",
          "type": "InteractiveCrowdsaleLib.InteractiveCrowdsaleStorage storage"
        }
      ],
      "name": "retreiveFinalResult",
      "outputs": [
        {
          "name": "",
          "type": "bool"
        }
      ],
      "payable": false,
      "stateMutability": "nonpayable",
      "type": "function"
    },
    {
      "constant": false,
      "inputs": [
        {
          "name": "self",
          "type": "InteractiveCrowdsaleLib.InteractiveCrowdsaleStorage storage"
        },
        {
          "name": "_owner",
          "type": "address"
        },
        {
          "name": "_saleData",
          "type": "uint256[]"
        },
        {
          "name": "_priceBonusPercent",
          "type": "uint256"
        },
        {
          "name": "_minimumRaise",
          "type": "uint256"
        },
        {
          "name": "_endWithdrawalTime",
          "type": "uint256"
        },
        {
          "name": "_endTime",
          "type": "uint256"
        },
        {
          "name": "_percentBeingSold",
          "type": "uint8"
        },
        {
          "name": "_tokenName",
          "type": "string"
        },
        {
          "name": "_tokenSymbol",
          "type": "string"
        },
        {
          "name": "_tokenDecimals",
          "type": "uint8"
        },
        {
          "name": "_allowMinting",
          "type": "bool"
        }
      ],
      "name": "init",
      "outputs": [],
      "payable": false,
      "stateMutability": "nonpayable",
      "type": "function"
    },
    {
      "anonymous": false,
      "inputs": [
        {
          "indexed": true,
          "name": "bidder",
          "type": "address"
        },
        {
          "indexed": false,
          "name": "amount",
          "type": "uint256"
        },
        {
          "indexed": false,
          "name": "personalValuation",
          "type": "uint256"
        }
      ],
      "name": "LogBidAccepted",
      "type": "event"
    },
    {
      "anonymous": false,
      "inputs": [
        {
          "indexed": true,
          "name": "bidder",
          "type": "address"
        },
        {
          "indexed": false,
          "name": "amount",
          "type": "uint256"
        },
        {
          "indexed": false,
          "name": "personalValuation",
          "type": "uint256"
        }
      ],
      "name": "LogBidWithdrawn",
      "type": "event"
    },
    {
      "anonymous": false,
      "inputs": [
        {
          "indexed": true,
          "name": "bidder",
          "type": "address"
        },
        {
          "indexed": false,
          "name": "personalValuation",
          "type": "uint256"
        }
      ],
      "name": "LogBidRemoved",
      "type": "event"
    },
    {
      "anonymous": false,
      "inputs": [
        {
          "indexed": false,
          "name": "amount",
          "type": "uint256"
        },
        {
          "indexed": false,
          "name": "Msg",
          "type": "string"
        }
      ],
      "name": "LogErrorMsg",
      "type": "event"
    },
    {
      "anonymous": false,
      "inputs": [
        {
          "indexed": false,
          "name": "amount",
          "type": "uint256"
        },
        {
          "indexed": false,
          "name": "Msg",
          "type": "string"
        }
      ],
      "name": "LogTokenPriceChange",
      "type": "event"
    },
    {
      "anonymous": false,
      "inputs": [
        {
          "indexed": false,
          "name": "bucket",
          "type": "uint256"
        },
        {
          "indexed": false,
          "name": "valuation",
          "type": "uint256"
        },
        {
          "indexed": false,
          "name": "committed",
          "type": "uint256"
        }
      ],
      "name": "BucketAndValuationAndCommitted",
      "type": "event"
    }
  ],
  "bytecode": "0x6060604052341561000f57600080fd5b6141788061001e6000396000f3006060604052600436106200007f576000357c0100000000000000000000000000000000000000000000000000000000900463ffffffff1680630671860414620000845780632190127c14620000b657806345ea57801462000103578063db9d28d51462000135578063eabb25051462000163578063f2ca37c51462000195575b600080fd5b6200009c6004808035906020019091905050620002db565b604051808215151515815260200191505060405180910390f35b620000e96004808035906020019091908035906020019091908035906020019091908035906020019091905050620009fa565b604051808215151515815260200191505060405180910390f35b6200011b600480803590602001909190505062000f87565b604051808215151515815260200191505060405180910390f35b6200014d6004808035906020019091905050620010e7565b6040518082815260200191505060405180910390f35b6200017b600480803590602001909190505062001121565b604051808215151515815260200191505060405180910390f35b620002d9600480803590602001909190803573ffffffffffffffffffffffffffffffffffffffff169060200190919080359060200190820180359060200190808060200260200160405190810160405280939291908181526020018383602002808284378201915050505050509190803590602001909190803590602001909190803590602001909190803590602001909190803560ff1690602001909190803590602001908201803590602001908080601f0160208091040260200160405190810160405280939291908181526020018383808284378201915050505050509190803590602001908201803590602001908080601f0160208091040260200160405190810160405280939291908181526020018383808284378201915050505050509190803560ff16906020019091908035151590602001909190505062001c76565b005b60008060008060008060008060008960220160003373ffffffffffffffffffffffffffffffffffffffff1673ffffffffffffffffffffffffffffffffffffffff168152602001908152602001600020541115156200033857600080fd5b886016015442101515620003e75788601701548960220160003373ffffffffffffffffffffffffffffffffffffffff1673ffffffffffffffffffffffffffffffffffffffff168152602001908152602001600020541015156200039a57600080fd5b8860000160090160003373ffffffffffffffffffffffffffffffffffffffff1673ffffffffffffffffffffffffffffffffffffffff168152602001908152602001600020549650620006c2565b8860230160003373ffffffffffffffffffffffffffffffffffffffff1673ffffffffffffffffffffffffffffffffffffffff16815260200190815260200160002060009054906101000a900460ff161515156200044357600080fd5b8860000160020154896016015403428a60160154036064028115156200046557fe5b04955060648960000160090160003373ffffffffffffffffffffffffffffffffffffffff1673ffffffffffffffffffffffffffffffffffffffff168152602001908152602001600020548702811515620004bb57fe5b049650868960200160008b60220160003373ffffffffffffffffffffffffffffffffffffffff1673ffffffffffffffffffffffffffffffffffffffff1681526020019081526020016000205481526020019081526020016000206000828254039250508190555060018960210160008b60220160003373ffffffffffffffffffffffffffffffffffffffff1673ffffffffffffffffffffffffffffffffffffffff16815260200190815260200160002054815260200190815260200160002060008282540392505081905550600389600001600101548a601f0160003373ffffffffffffffffffffffffffffffffffffffff1673ffffffffffffffffffffffffffffffffffffffff1681526020019081526020016000205403811515620005de57fe5b0489601f0160003373ffffffffffffffffffffffffffffffffffffffff1673ffffffffffffffffffffffffffffffffffffffff168152602001908152602001600020540389601f0160003373ffffffffffffffffffffffffffffffffffffffff1673ffffffffffffffffffffffffffffffffffffffff1681526020019081526020016000208190555060018960230160003373ffffffffffffffffffffffffffffffffffffffff1673ffffffffffffffffffffffffffffffffffffffff16815260200190815260200160002060006101000a81548160ff0219169083151502179055505b8689600001600b0160003373ffffffffffffffffffffffffffffffffffffffff1673ffffffffffffffffffffffffffffffffffffffff16815260200190815260200160002060008282540192505081905550868960000160090160003373ffffffffffffffffffffffffffffffffffffffff1673ffffffffffffffffffffffffffffffffffffffff1681526020019081526020016000206000828254039250508190555088601701548960220160003373ffffffffffffffffffffffffffffffffffffffff1673ffffffffffffffffffffffffffffffffffffffff1681526020019081526020016000205410151562000900578689601801540394508860190154851115156200082257886019015489601701541115620007fc578860200160008a60190154815260200190815260200160002054850194505b8860190154851015156200081757886019015493506200081c565b600191505b62000845565b88601901548960170154141562000840578860170154935062000844565b8493505b5b8115620008ed576200086b896019015460008b600d0162001f019092919063ffffffff16565b80945081925050505b8285111515620008d55788602001600084815260200190815260200160002054850194508285101515620008ab57829350620008cf565b620008c68360008b600d0162001f019092919063ffffffff16565b80945081925050505b62000874565b6000841415620008e3578493505b8289601901819055505b8389601701819055508489601801819055505b3373ffffffffffffffffffffffffffffffffffffffff167ffe8cbe18e126aa8a5f3f6cf988c76fe9625cdbef938d1e0a73641f65a1094a53888b60220160003373ffffffffffffffffffffffffffffffffffffffff1673ffffffffffffffffffffffffffffffffffffffff16815260200190815260200160002054604051808381526020018281526020019250505060405180910390a27f96026d61d69319c9c4a088724675179c1972be0648386dde0f588adff2733f7789601901548a601701548b6018015460405180848152602001838152602001828152602001935050505060405180910390a16001975050505050505050919050565b6000806000806000806000808b60000160000160009054906101000a900473ffffffffffffffffffffffffffffffffffffffff1673ffffffffffffffffffffffffffffffffffffffff163373ffffffffffffffffffffffffffffffffffffffff161415151562000a6957600080fd5b62000a778c60000162001f61565b151562000a8357600080fd5b60008c60220160003373ffffffffffffffffffffffffffffffffffffffff1673ffffffffffffffffffffffffffffffffffffffff1681526020019081526020016000205414801562000b19575060008c60000160090160003373ffffffffffffffffffffffffffffffffffffffff1673ffffffffffffffffffffffffffffffffffffffff16815260200190815260200160002054145b151562000b2557600080fd5b8b6016015442101562000b54578a8a11151562000b4157600080fd5b62000b4c8c62002031565b965062000b6b565b8a8c60170154018a1015151562000b6a57600080fd5b5b62000b768a620010e7565b9550600386111562000ba557600060038703600a0a8b81151562000b9657fe5b0614151562000ba457600080fd5b5b62000bbd8a8d600d016200214190919063ffffffff16565b151562000c025762000be1898b60018f600d0162002201909392919063ffffffff16565b945062000c00858b60008f600d01620022c9909392919063ffffffff16565b505b898c60220160003373ffffffffffffffffffffffffffffffffffffffff1673ffffffffffffffffffffffffffffffffffffffff168152602001908152602001600020819055508a8c60200160008c81526020019081526020016000206000828254019250508190555060018c60210160008c8152602001908152602001600020600082825401925050819055508a8c60000160090160003373ffffffffffffffffffffffffffffffffffffffff1673ffffffffffffffffffffffffffffffffffffffff168152602001908152602001600020600082825401925050819055508b601901548a111562000e4b578b601901548c60170154141562000d3b578a8c60200160008e601901548152602001908152602001600020548d60180154030193508b6019015484111562000d3557600191505b62000d49565b8a8c60170154019350600191505b811562000df75762000d6f8c6019015460018e600d0162001f019092919063ffffffff16565b80945081925050505b828410151562000dc5578b6020016000848152602001908152602001600020548403935062000db78360018e600d0162001f019092919063ffffffff16565b809450819250505062000d78565b62000de08360008e600d0162001f019092919063ffffffff16565b8094508192505050828c6019018190555062000dff565b8b6019015492505b828411151562000e32578b60200160008481526020019081526020016000205484019350828c6017018190555062000e3c565b838c601701819055505b838c6018018190555062000e6c565b8b601701548a141562000e6b578a8c601801600082825401925050819055505b5b6064876064018d600001600101540281151562000e8557fe5b048c601f0160003373ffffffffffffffffffffffffffffffffffffffff1673ffffffffffffffffffffffffffffffffffffffff168152602001908152602001600020819055503373ffffffffffffffffffffffffffffffffffffffff167f9dc6f173a1165d03443e68c408ed97eb54b10acbb4dad62bcd70e2e10a14181f8c8c604051808381526020018281526020019250505060405180910390a27f96026d61d69319c9c4a088724675179c1972be0648386dde0f588adff2733f778c601901548d601701548e6018015460405180848152602001838152602001828152602001935050505060405180910390a16001975050505050505050949350505050565b6000808260000160030154421015151562000fa157600080fd5b82601e0160009054906101000a900460ff1615151562000fc057600080fd5b62000fcb8362002355565b151562000fd757600080fd5b600183601e0160006101000a81548160ff02191690831515021790555062000fff83620023c7565b15156200100b57600080fd5b82601e0160019054906101000a900460ff161515620010e157826019015483601701541415620010cc576001836020016000856017015481526020019081526020016000205484601701548560180154036064028115156200106957fe5b040183601a0181905550826020016000846017015481526020019081526020016000205483601801540390506064836020016000856017015481526020019081526020016000205484601a015402811515620010c157fe5b0481019050620010d4565b826017015490505b8083600001600401819055505b50919050565b600080600090505b6000831415156200111857600a838115156200110757fe5b0492508080600101915050620010ef565b80915050919050565b60008060008060008060008760000160030154421115156200114257600080fd5b60008860220160003373ffffffffffffffffffffffffffffffffffffffff1673ffffffffffffffffffffffffffffffffffffffff168152602001908152602001600020541115156200119357600080fd5b87601e0160009054906101000a900460ff161515620011e257620011b78862002355565b1515620011c357600080fd5b87601e0160019054906101000a900460ff161515620011e157600080fd5b5b87601e0160019054906101000a900460ff16156200137e578760000160090160003373ffffffffffffffffffffffffffffffffffffffff1673ffffffffffffffffffffffffffffffffffffffff1681526020019081526020016000205488600001600b0160003373ffffffffffffffffffffffffffffffffffffffff1673ffffffffffffffffffffffffffffffffffffffff1681526020019081526020016000206000828254019250508190555060008860000160090160003373ffffffffffffffffffffffffffffffffffffffff1673ffffffffffffffffffffffffffffffffffffffff168152602001908152602001600020819055507f8756f3e78da606244d7d8c9563ce2678f294db7c57afce515849e03d5eec6c3a886017015460405180828152602001806020018281038252602e8152602001807f53616c652069732063616e63656c65642c20616c6c206269647320686176652081526020017f6265656e20726566756e646564210000000000000000000000000000000000008152506040019250505060405180910390a16001965062001c6b565b87601701548860220160003373ffffffffffffffffffffffffffffffffffffffff1673ffffffffffffffffffffffffffffffffffffffff16815260200190815260200160002054101562001549578760000160090160003373ffffffffffffffffffffffffffffffffffffffff1673ffffffffffffffffffffffffffffffffffffffff1681526020019081526020016000205488600001600b0160003373ffffffffffffffffffffffffffffffffffffffff1673ffffffffffffffffffffffffffffffffffffffff1681526020019081526020016000206000828254019250508190555060008860000160090160003373ffffffffffffffffffffffffffffffffffffffff1673ffffffffffffffffffffffffffffffffffffffff168152602001908152602001600020819055508760000173__CrowdsaleLib__________________________63d06f9a5e90916000604051602001526040518263ffffffff167c01000000000000000000000000000000000000000000000000000000000281526004018082815260200191505060206040518083038186803b15156200152557600080fd5b6102c65a03f415156200153757600080fd5b50505060405180519050965062001c6b565b87601701548860220160003373ffffffffffffffffffffffffffffffffffffffff1673ffffffffffffffffffffffffffffffffffffffff168152602001908152602001600020541415620016965760648860000160090160003373ffffffffffffffffffffffffffffffffffffffff1673ffffffffffffffffffffffffffffffffffffffff1681526020019081526020016000205489601a015402811515620015ee57fe5b0493508388600001600b0160003373ffffffffffffffffffffffffffffffffffffffff1673ffffffffffffffffffffffffffffffffffffffff16815260200190815260200160002060008282540192505081905550838860000160090160003373ffffffffffffffffffffffffffffffffffffffff1673ffffffffffffffffffffffffffffffffffffffff168152602001908152602001600020600082825403925050819055505b7f8756f3e78da606244d7d8c9563ce2678f294db7c57afce515849e03d5eec6c3a8860000160090160003373ffffffffffffffffffffffffffffffffffffffff1673ffffffffffffffffffffffffffffffffffffffff1681526020019081526020016000205460405180828152602001806020018281038252600c8152602001807f636f6e747269627574696f6e00000000000000000000000000000000000000008152506020019250505060405180910390a17f8756f3e78da606244d7d8c9563ce2678f294db7c57afce515849e03d5eec6c3a88601f0160003373ffffffffffffffffffffffffffffffffffffffff1673ffffffffffffffffffffffffffffffffffffffff168152602001908152602001600020546040518082815260200180602001828103825260058152602001807f70726963650000000000000000000000000000000000000000000000000000008152506020019250505060405180910390a17f8756f3e78da606244d7d8c9563ce2678f294db7c57afce515849e03d5eec6c3a88601a015460405180828152602001806020018281038252600a8152602001807f70657263656e74616765000000000000000000000000000000000000000000008152506020019250505060405180910390a1620019008860000160090160003373ffffffffffffffffffffffffffffffffffffffff1673ffffffffffffffffffffffffffffffffffffffff1681526020019081526020016000205489601f0160003373ffffffffffffffffffffffffffffffffffffffff1673ffffffffffffffffffffffffffffffffffffffff1681526020019081526020016000205462002ad1565b80965081975050508588600001600a0160003373ffffffffffffffffffffffffffffffffffffffff1673ffffffffffffffffffffffffffffffffffffffff168152602001908152602001600020600082825401925050819055508488601801540388601801819055508488600001600b0160003373ffffffffffffffffffffffffffffffffffffffff1673ffffffffffffffffffffffffffffffffffffffff16815260200190815260200160002060008282540192505081905550606488601d0154606401896000016001015402811515620019d857fe5b04915062001a2b8860000160090160003373ffffffffffffffffffffffffffffffffffffffff1673ffffffffffffffffffffffffffffffffffffffff168152602001908152602001600020548362002ad1565b8096508194505050858303905087600001600c0160009054906101000a900473ffffffffffffffffffffffffffffffffffffffff1673ffffffffffffffffffffffffffffffffffffffff16637b47ec1a826000604051602001526040518263ffffffff167c010000000000000000000000000000000000000000000000000000000002815260040180828152602001915050602060405180830381600087803b151562001ad757600080fd5b6102c65a03f1151562001ae957600080fd5b505050604051805190505060008860000160090160003373ffffffffffffffffffffffffffffffffffffffff1673ffffffffffffffffffffffffffffffffffffffff168152602001908152602001600020819055508760000173__CrowdsaleLib__________________________63b5d8816390916000604051602001526040518263ffffffff167c01000000000000000000000000000000000000000000000000000000000281526004018082815260200191505060206040518083038186803b151562001bb757600080fd5b6102c65a03f4151562001bc957600080fd5b50505060405180519050508760000173__CrowdsaleLib__________________________63d06f9a5e90916000604051602001526040518263ffffffff167c01000000000000000000000000000000000000000000000000000000000281526004018082815260200191505060206040518083038186803b151562001c4d57600080fd5b6102c65a03f4151562001c5f57600080fd5b50505060405180519050505b505050505050919050565b8b60000173__CrowdsaleLib__________________________63e9e337d390918d8d8a6000806040518763ffffffff167c0100000000000000000000000000000000000000000000000000000000028152600401808781526020018673ffffffffffffffffffffffffffffffffffffffff1673ffffffffffffffffffffffffffffffffffffffff168152602001806020018581526020018460ff1681526020018373ffffffffffffffffffffffffffffffffffffffff1673ffffffffffffffffffffffffffffffffffffffff168152602001828103825286818151815260200191508051906020019060200280838360005b8381101562001d8557808201518184015260208101905062001d68565b5050505090500197505050505050505060006040518083038186803b151562001dad57600080fd5b6102c65a03f4151562001dbf57600080fd5b505050858710151562001dd157600080fd5b89600081518110151562001de157fe5b906020019060200201518711151562001df957600080fd5b60008811151562001e0957600080fd5b60008560ff1611151562001e1c57600080fd5b60648560ff161115151562001e3057600080fd5b60008911151562001e4057600080fd5b878c601b0181905550868c60160181905550848c601c0160006101000a81548160ff021916908360ff160217905550888c601d0181905550838c600e01600301908051906020019062001e9592919062002cbb565b50828c600e01600401908051906020019062001eb392919062002cbb565b50818c600e0160070160146101000a81548160ff021916908360ff160217905550808c600e0160070160156101000a81548160ff021916908315150217905550505050505050505050505050565b60008062001f10858562002141565b151562001f27576000808090509150915062001f59565b600185600001600086815260200190815260200160002060008515151515815260200190815260200160002054915091505b935093915050565b6000806000341415905062001f768362002be1565b801562001f805750805b1562001f9057600191506200202b565b7f8756f3e78da606244d7d8c9563ce2678f294db7c57afce515849e03d5eec6c3a346040518082815260200180602001828103825260378152602001807f496e76616c69642050757263686173652120436865636b20737461727420746981526020017f6d6520616e6420616d6f756e74206f662065746865722e0000000000000000008152506040019250505060405180910390a1600091505b50919050565b6000806000806000808660000160020154876016015403945086600001600201544203935084606485028115156200206557fe5b04925086601d015473__BasicMathLib__________________________63f4f3bdc1909160648a601d015487028115156200209c57fe5b046000604051604001526040518363ffffffff167c01000000000000000000000000000000000000000000000000000000000281526004018083815260200182815260200192505050604080518083038186803b1515620020fc57600080fd5b6102c65a03f415156200210e57600080fd5b505050604051805190602001805190508092508193505050811515156200213457600080fd5b8095505050505050919050565b60008083600001600084815260200190815260200160002060008015151515815260200190815260200160002054148015620021a8575060008360000160008481526020019081526020016000206000600115151515815260200190815260200160002054145b15620021f6578183600001600080815260200190815260200160002060006001151515158152602001908152602001600020541415620021ec5760019050620021fb565b60009050620021fb565b600190505b92915050565b600080600080620022128862002c03565b1415620022235760009250620022bf565b60008614806200223b57506200223a878762002141565b5b15156200224757600080fd5b6200225487878662001f01565b80925081935050505b600081141580156200226f5750808514155b8015620022825750831515818610151514155b15620022bb578660000160008281526020019081526020016000206000851515151581526020019081526020016000205490506200225d565b8092505b5050949350505050565b600080620022d8868562002141565b158015620022ee5750620022ed868662002141565b5b1562002347578560000160008681526020019081526020016000206000841515151581526020019081526020016000205490506200232f8686868662002c56565b6200233d8685838662002c56565b600191506200234c565b600091505b50949350505050565b60008082601b01548360170154108062002396575062278d008360000160030154014211801562002395575082601e0160009054906101000a900460ff16155b5b90508015620023bd57600183601e0160016101000a81548160ff0219169083151502179055505b6001915050919050565b600080600080600080600087601c0160009054906101000a900460ff1660ff166064896017015402811515620023f957fe5b0495508760170154606489601d01546064018a60170154028115156200241b57fe5b04039450670de0b6b3a7640000886000016001015487028115156200243c57fe5b049350670de0b6b3a7640000886000016001015486028115156200245c57fe5b049250606488601c0160009054906101000a900460ff1660ff1685028115156200248257fe5b048403915082840190503088600e0160030189600e016004018a600e0160070160149054906101000a900460ff16848c600e0160070160159054906101000a900460ff16620024d062002d42565b808773ffffffffffffffffffffffffffffffffffffffff1673ffffffffffffffffffffffffffffffffffffffff16815260200180602001806020018660ff1660ff16815260200185815260200184151515158152602001838103835288818154600181600116156101000203166002900481526020019150805460018160011615610100020316600290048015620025ac5780601f106200258057610100808354040283529160200191620025ac565b820191906000526020600020905b8154815290600101906020018083116200258e57829003601f168201915b5050838103825287818154600181600116156101000203166002900481526020019150805460018160011615610100020316600290048015620026335780601f10620026075761010080835404028352916020019162002633565b820191906000526020600020905b8154815290600101906020018083116200261557829003601f168201915b505098505050505050505050604051809103906000f08015156200265657600080fd5b88600001600c0160006101000a81548173ffffffffffffffffffffffffffffffffffffffff021916908373ffffffffffffffffffffffffffffffffffffffff16021790555087601e0160019054906101000a900460ff161515620027d15787600001600c0160009054906101000a900473ffffffffffffffffffffffffffffffffffffffff1673ffffffffffffffffffffffffffffffffffffffff1663a9059cbb8960000160000160009054906101000a900473ffffffffffffffffffffffffffffffffffffffff16846000604051602001526040518363ffffffff167c0100000000000000000000000000000000000000000000000000000000028152600401808373ffffffffffffffffffffffffffffffffffffffff1673ffffffffffffffffffffffffffffffffffffffff16815260200182815260200192505050602060405180830381600087803b1515620027ae57600080fd5b6102c65a03f11515620027c057600080fd5b5050506040518051905050620029a5565b87600001600c0160009054906101000a900473ffffffffffffffffffffffffffffffffffffffff1673ffffffffffffffffffffffffffffffffffffffff1663a9059cbb8960000160000160009054906101000a900473ffffffffffffffffffffffffffffffffffffffff16866000604051602001526040518363ffffffff167c0100000000000000000000000000000000000000000000000000000000028152600401808373ffffffffffffffffffffffffffffffffffffffff1673ffffffffffffffffffffffffffffffffffffffff16815260200182815260200192505050602060405180830381600087803b1515620028cb57600080fd5b6102c65a03f11515620028dd57600080fd5b505050604051805190505087600001600c0160009054906101000a900473ffffffffffffffffffffffffffffffffffffffff1673ffffffffffffffffffffffffffffffffffffffff16637b47ec1a846000604051602001526040518263ffffffff167c010000000000000000000000000000000000000000000000000000000002815260040180828152602001915050602060405180830381600087803b15156200298757600080fd5b6102c65a03f115156200299957600080fd5b50505060405180519050505b87600001600c0160009054906101000a900473ffffffffffffffffffffffffffffffffffffffff1673ffffffffffffffffffffffffffffffffffffffff1663a6f9dae18960000160000160009054906101000a900473ffffffffffffffffffffffffffffffffffffffff166000604051602001526040518263ffffffff167c0100000000000000000000000000000000000000000000000000000000028152600401808273ffffffffffffffffffffffffffffffffffffffff1673ffffffffffffffffffffffffffffffffffffffff168152602001915050602060405180830381600087803b151562002a9757600080fd5b6102c65a03f1151562002aa957600080fd5b5050506040518051905050818403886000016005018190555060019650505050505050919050565b600080600080600080600093508773__BasicMathLib__________________________631d3b9edf9091896000604051604001526040518363ffffffff167c01000000000000000000000000000000000000000000000000000000000281526004018083815260200182815260200192505050604080518083038186803b151562002b5b57600080fd5b6102c65a03f4151562002b6d57600080fd5b5050506040518051906020018051905080925081945050508215151562002b9357600080fd5b670de0b6b3a76400008181151562002ba757fe5b049150670de0b6b3a76400008181151562002bbe57fe5b069350868481151562002bcd57fe5b049350818495509550505050509250929050565b60008160020154421015801562002bfc575081600301544211155b9050919050565b600080600062002c17846000600162001f01565b80925081935050505b60008114151562002c4f5762002c398482600162001f01565b8092508193505050828060010193505062002c20565b5050919050565b828460000160008481526020019081526020016000206000831515151515815260200190815260200160002081905550818460000160008581526020019081526020016000206000831515151581526020019081526020016000208190555050505050565b828054600181600116156101000203166002900490600052602060002090601f016020900481019282601f1062002cfe57805160ff191683800117855562002d2f565b8280016001018555821562002d2f579182015b8281111562002d2e57825182559160200191906001019062002d11565b5b50905062002d3e919062002d53565b5090565b6040516113d18062002d7c83390190565b62002d7891905b8082111562002d7457600081600090555060010162002d5a565b5090565b9056006060604052341561000f57600080fd5b6040516113d13803806113d183398101604052808051906020019091908051820191906020018051820191906020018051906020019091908051906020019091908051906020019091905050600073__TokenLib______________________________639329297290918888888888886040518863ffffffff167c0100000000000000000000000000000000000000000000000000000000028152600401808881526020018773ffffffffffffffffffffffffffffffffffffffff1673ffffffffffffffffffffffffffffffffffffffff16815260200180602001806020018660ff1660ff16815260200185815260200184151515158152602001838103835288818151815260200191508051906020019080838360005b83811015610142578082015181840152602081019050610127565b50505050905090810190601f16801561016f5780820380516001836020036101000a031916815260200191505b50838103825287818151815260200191508051906020019080838360005b838110156101a857808201518184015260208101905061018d565b50505050905090810190601f1680156101d55780820380516001836020036101000a031916815260200191505b50995050505050505050505060006040518083038186803b15156101f857600080fd5b6102c65a03f4151561020957600080fd5b5050505050505050506111b0806102216000396000f3006060604052600436106100e6576000357c0100000000000000000000000000000000000000000000000000000000900463ffffffff16806306fdde03146100eb578063095ea7b31461017957806318160ddd146101d357806323b872dd146101fc578063313ce56714610275578063378dc3dc146102a457806364f101f0146102cd57806370a08231146102fa5780637b47ec1a146103475780638bbdfaa61461038257806395d89b41146103e7578063a6f9dae114610475578063a9059cbb146104c6578063c634d03214610520578063dd62ed3e1461055b578063fc0c546a146105c7575b600080fd5b34156100f657600080fd5b6100fe61075f565b6040518080602001828103825283818151815260200191508051906020019080838360005b8381101561013e578082015181840152602081019050610123565b50505050905090810190601f16801561016b5780820380516001836020036101000a031916815260200191505b509250505060405180910390f35b341561018457600080fd5b6101b9600480803573ffffffffffffffffffffffffffffffffffffffff1690602001909190803590602001909190505061080a565b604051808215151515815260200191505060405180910390f35b34156101de57600080fd5b6101e66108e0565b6040518082815260200191505060405180910390f35b341561020757600080fd5b61025b600480803573ffffffffffffffffffffffffffffffffffffffff1690602001909190803573ffffffffffffffffffffffffffffffffffffffff169060200190919080359060200190919050506108ec565b604051808215151515815260200191505060405180910390f35b341561028057600080fd5b6102886109f7565b604051808260ff1660ff16815260200191505060405180910390f35b34156102af57600080fd5b6102b7610a10565b6040518082815260200191505060405180910390f35b34156102d857600080fd5b6102e0610a1c565b604051808215151515815260200191505060405180910390f35b341561030557600080fd5b610331600480803573ffffffffffffffffffffffffffffffffffffffff16906020019091905050610ab3565b6040518082815260200191505060405180910390f35b341561035257600080fd5b6103686004808035906020019091905050610b80565b604051808215151515815260200191505060405180910390f35b341561038d57600080fd5b6103cd600480803573ffffffffffffffffffffffffffffffffffffffff169060200190919080359060200190919080351515906020019091905050610c21565b604051808215151515815260200191505060405180910390f35b34156103f257600080fd5b6103fa610d04565b6040518080602001828103825283818151815260200191508051906020019080838360005b8381101561043a57808201518184015260208101905061041f565b50505050905090810190601f1680156104675780820380516001836020036101000a031916815260200191505b509250505060405180910390f35b341561048057600080fd5b6104ac600480803573ffffffffffffffffffffffffffffffffffffffff16906020019091905050610daf565b604051808215151515815260200191505060405180910390f35b34156104d157600080fd5b610506600480803573ffffffffffffffffffffffffffffffffffffffff16906020019091908035906020019091905050610e7c565b604051808215151515815260200191505060405180910390f35b341561052b57600080fd5b6105416004808035906020019091905050610f52565b604051808215151515815260200191505060405180910390f35b341561056657600080fd5b6105b1600480803573ffffffffffffffffffffffffffffffffffffffff1690602001909190803573ffffffffffffffffffffffffffffffffffffffff16906020019091905050610ff3565b6040518082815260200191505060405180910390f35b34156105d257600080fd5b6105da6110f5565b604051808915151515815260200180602001806020018881526020018781526020018673ffffffffffffffffffffffffffffffffffffffff1673ffffffffffffffffffffffffffffffffffffffff1681526020018560ff1660ff1681526020018415151515815260200183810383528a8181546001816001161561010002031660029004815260200191508054600181600116156101000203166002900480156106c55780601f1061069a576101008083540402835291602001916106c5565b820191906000526020600020905b8154815290600101906020018083116106a857829003601f168201915b50508381038252898181546001816001161561010002031660029004815260200191508054600181600116156101000203166002900480156107485780601f1061071d57610100808354040283529160200191610748565b820191906000526020600020905b81548152906001019060200180831161072b57829003601f168201915b50509a505050505050505050505060405180910390f35b610767611170565b60006003018054600181600116156101000203166002900480601f0160208091040260200160405190810160405280929190818152602001828054600181600116156101000203166002900480156108005780601f106107d557610100808354040283529160200191610800565b820191906000526020600020905b8154815290600101906020018083116107e357829003601f168201915b5050505050905090565b60008073__TokenLib______________________________638ca979ca909185856000604051602001526040518463ffffffff167c0100000000000000000000000000000000000000000000000000000000028152600401808481526020018373ffffffffffffffffffffffffffffffffffffffff1673ffffffffffffffffffffffffffffffffffffffff168152602001828152602001935050505060206040518083038186803b15156108bd57600080fd5b6102c65a03f415156108ce57600080fd5b50505060405180519050905092915050565b60008060050154905090565b60008073__TokenLib______________________________6321a6a23d90918686866000604051602001526040518563ffffffff167c0100000000000000000000000000000000000000000000000000000000028152600401808581526020018473ffffffffffffffffffffffffffffffffffffffff1673ffffffffffffffffffffffffffffffffffffffff1681526020018373ffffffffffffffffffffffffffffffffffffffff1673ffffffffffffffffffffffffffffffffffffffff16815260200182815260200194505050505060206040518083038186803b15156109d357600080fd5b6102c65a03f415156109e457600080fd5b5050506040518051905090509392505050565b60008060070160149054906101000a900460ff16905090565b60008060060154905090565b60008073__TokenLib______________________________63a7ccd77690916000604051602001526040518263ffffffff167c01000000000000000000000000000000000000000000000000000000000281526004018082815260200191505060206040518083038186803b1515610a9357600080fd5b6102c65a03f41515610aa457600080fd5b50505060405180519050905090565b60008073__TokenLib______________________________633af00d0f9091846000604051602001526040518363ffffffff167c0100000000000000000000000000000000000000000000000000000000028152600401808381526020018273ffffffffffffffffffffffffffffffffffffffff1673ffffffffffffffffffffffffffffffffffffffff1681526020019250505060206040518083038186803b1515610b5e57600080fd5b6102c65a03f41515610b6f57600080fd5b505050604051805190509050919050565b60008073__TokenLib______________________________636269321c9091846000604051602001526040518363ffffffff167c0100000000000000000000000000000000000000000000000000000000028152600401808381526020018281526020019250505060206040518083038186803b1515610bff57600080fd5b6102c65a03f41515610c1057600080fd5b505050604051805190509050919050565b60008073__TokenLib______________________________63bd03185c90918686866000604051602001526040518563ffffffff167c0100000000000000000000000000000000000000000000000000000000028152600401808581526020018473ffffffffffffffffffffffffffffffffffffffff1673ffffffffffffffffffffffffffffffffffffffff1681526020018381526020018215151515815260200194505050505060206040518083038186803b1515610ce057600080fd5b6102c65a03f41515610cf157600080fd5b5050506040518051905090509392505050565b610d0c611170565b60006004018054600181600116156101000203166002900480601f016020809104026020016040519081016040528092919081815260200182805460018160011615610100020316600290048015610da55780601f10610d7a57610100808354040283529160200191610da5565b820191906000526020600020905b815481529060010190602001808311610d8857829003601f168201915b5050505050905090565b60008073__TokenLib______________________________636f71ca3c9091846000604051602001526040518363ffffffff167c0100000000000000000000000000000000000000000000000000000000028152600401808381526020018273ffffffffffffffffffffffffffffffffffffffff1673ffffffffffffffffffffffffffffffffffffffff1681526020019250505060206040518083038186803b1515610e5a57600080fd5b6102c65a03f41515610e6b57600080fd5b505050604051805190509050919050565b60008073__TokenLib______________________________63d4b1770a909185856000604051602001526040518463ffffffff167c0100000000000000000000000000000000000000000000000000000000028152600401808481526020018373ffffffffffffffffffffffffffffffffffffffff1673ffffffffffffffffffffffffffffffffffffffff168152602001828152602001935050505060206040518083038186803b1515610f2f57600080fd5b6102c65a03f41515610f4057600080fd5b50505060405180519050905092915050565b60008073__TokenLib______________________________63f8f095f29091846000604051602001526040518363ffffffff167c0100000000000000000000000000000000000000000000000000000000028152600401808381526020018281526020019250505060206040518083038186803b1515610fd157600080fd5b6102c65a03f41515610fe257600080fd5b505050604051805190509050919050565b60008073__TokenLib______________________________63ac9b44f7909185856000604051602001526040518463ffffffff167c0100000000000000000000000000000000000000000000000000000000028152600401808481526020018373ffffffffffffffffffffffffffffffffffffffff1673ffffffffffffffffffffffffffffffffffffffff1681526020018273ffffffffffffffffffffffffffffffffffffffff1673ffffffffffffffffffffffffffffffffffffffff168152602001935050505060206040518083038186803b15156110d257600080fd5b6102c65a03f415156110e357600080fd5b50505060405180519050905092915050565b60008060000160009054906101000a900460ff1690806003019080600401908060050154908060060154908060070160009054906101000a900473ffffffffffffffffffffffffffffffffffffffff16908060070160149054906101000a900460ff16908060070160159054906101000a900460ff16905088565b6020604051908101604052806000815250905600a165627a7a72305820829d7c887390f40028e69ce875477c84c9d8b931efc19d80f91d9aea5b2488d50029a165627a7a72305820d1edfe41e872dcf567466fd15f1fabee220edf26e4e06513a7e50b7a09baccd70029",
  "deployedBytecode": "0x6060604052341561000f57600080fd5b6141788061001e6000396000f3006060604052600436106200007f576000357c0100000000000000000000000000000000000000000000000000000000900463ffffffff1680630671860414620000845780632190127c14620000b657806345ea57801462000103578063db9d28d51462000135578063eabb25051462000163578063f2ca37c51462000195575b600080fd5b6200009c6004808035906020019091905050620002db565b604051808215151515815260200191505060405180910390f35b620000e96004808035906020019091908035906020019091908035906020019091908035906020019091905050620009fa565b604051808215151515815260200191505060405180910390f35b6200011b600480803590602001909190505062000f87565b604051808215151515815260200191505060405180910390f35b6200014d6004808035906020019091905050620010e7565b6040518082815260200191505060405180910390f35b6200017b600480803590602001909190505062001121565b604051808215151515815260200191505060405180910390f35b620002d9600480803590602001909190803573ffffffffffffffffffffffffffffffffffffffff169060200190919080359060200190820180359060200190808060200260200160405190810160405280939291908181526020018383602002808284378201915050505050509190803590602001909190803590602001909190803590602001909190803590602001909190803560ff1690602001909190803590602001908201803590602001908080601f0160208091040260200160405190810160405280939291908181526020018383808284378201915050505050509190803590602001908201803590602001908080601f0160208091040260200160405190810160405280939291908181526020018383808284378201915050505050509190803560ff16906020019091908035151590602001909190505062001c76565b005b60008060008060008060008060008960220160003373ffffffffffffffffffffffffffffffffffffffff1673ffffffffffffffffffffffffffffffffffffffff168152602001908152602001600020541115156200033857600080fd5b886016015442101515620003e75788601701548960220160003373ffffffffffffffffffffffffffffffffffffffff1673ffffffffffffffffffffffffffffffffffffffff168152602001908152602001600020541015156200039a57600080fd5b8860000160090160003373ffffffffffffffffffffffffffffffffffffffff1673ffffffffffffffffffffffffffffffffffffffff168152602001908152602001600020549650620006c2565b8860230160003373ffffffffffffffffffffffffffffffffffffffff1673ffffffffffffffffffffffffffffffffffffffff16815260200190815260200160002060009054906101000a900460ff161515156200044357600080fd5b8860000160020154896016015403428a60160154036064028115156200046557fe5b04955060648960000160090160003373ffffffffffffffffffffffffffffffffffffffff1673ffffffffffffffffffffffffffffffffffffffff168152602001908152602001600020548702811515620004bb57fe5b049650868960200160008b60220160003373ffffffffffffffffffffffffffffffffffffffff1673ffffffffffffffffffffffffffffffffffffffff1681526020019081526020016000205481526020019081526020016000206000828254039250508190555060018960210160008b60220160003373ffffffffffffffffffffffffffffffffffffffff1673ffffffffffffffffffffffffffffffffffffffff16815260200190815260200160002054815260200190815260200160002060008282540392505081905550600389600001600101548a601f0160003373ffffffffffffffffffffffffffffffffffffffff1673ffffffffffffffffffffffffffffffffffffffff1681526020019081526020016000205403811515620005de57fe5b0489601f0160003373ffffffffffffffffffffffffffffffffffffffff1673ffffffffffffffffffffffffffffffffffffffff168152602001908152602001600020540389601f0160003373ffffffffffffffffffffffffffffffffffffffff1673ffffffffffffffffffffffffffffffffffffffff1681526020019081526020016000208190555060018960230160003373ffffffffffffffffffffffffffffffffffffffff1673ffffffffffffffffffffffffffffffffffffffff16815260200190815260200160002060006101000a81548160ff0219169083151502179055505b8689600001600b0160003373ffffffffffffffffffffffffffffffffffffffff1673ffffffffffffffffffffffffffffffffffffffff16815260200190815260200160002060008282540192505081905550868960000160090160003373ffffffffffffffffffffffffffffffffffffffff1673ffffffffffffffffffffffffffffffffffffffff1681526020019081526020016000206000828254039250508190555088601701548960220160003373ffffffffffffffffffffffffffffffffffffffff1673ffffffffffffffffffffffffffffffffffffffff1681526020019081526020016000205410151562000900578689601801540394508860190154851115156200082257886019015489601701541115620007fc578860200160008a60190154815260200190815260200160002054850194505b8860190154851015156200081757886019015493506200081c565b600191505b62000845565b88601901548960170154141562000840578860170154935062000844565b8493505b5b8115620008ed576200086b896019015460008b600d0162001f019092919063ffffffff16565b80945081925050505b8285111515620008d55788602001600084815260200190815260200160002054850194508285101515620008ab57829350620008cf565b620008c68360008b600d0162001f019092919063ffffffff16565b80945081925050505b62000874565b6000841415620008e3578493505b8289601901819055505b8389601701819055508489601801819055505b3373ffffffffffffffffffffffffffffffffffffffff167ffe8cbe18e126aa8a5f3f6cf988c76fe9625cdbef938d1e0a73641f65a1094a53888b60220160003373ffffffffffffffffffffffffffffffffffffffff1673ffffffffffffffffffffffffffffffffffffffff16815260200190815260200160002054604051808381526020018281526020019250505060405180910390a27f96026d61d69319c9c4a088724675179c1972be0648386dde0f588adff2733f7789601901548a601701548b6018015460405180848152602001838152602001828152602001935050505060405180910390a16001975050505050505050919050565b6000806000806000806000808b60000160000160009054906101000a900473ffffffffffffffffffffffffffffffffffffffff1673ffffffffffffffffffffffffffffffffffffffff163373ffffffffffffffffffffffffffffffffffffffff161415151562000a6957600080fd5b62000a778c60000162001f61565b151562000a8357600080fd5b60008c60220160003373ffffffffffffffffffffffffffffffffffffffff1673ffffffffffffffffffffffffffffffffffffffff1681526020019081526020016000205414801562000b19575060008c60000160090160003373ffffffffffffffffffffffffffffffffffffffff1673ffffffffffffffffffffffffffffffffffffffff16815260200190815260200160002054145b151562000b2557600080fd5b8b6016015442101562000b54578a8a11151562000b4157600080fd5b62000b4c8c62002031565b965062000b6b565b8a8c60170154018a1015151562000b6a57600080fd5b5b62000b768a620010e7565b9550600386111562000ba557600060038703600a0a8b81151562000b9657fe5b0614151562000ba457600080fd5b5b62000bbd8a8d600d016200214190919063ffffffff16565b151562000c025762000be1898b60018f600d0162002201909392919063ffffffff16565b945062000c00858b60008f600d01620022c9909392919063ffffffff16565b505b898c60220160003373ffffffffffffffffffffffffffffffffffffffff1673ffffffffffffffffffffffffffffffffffffffff168152602001908152602001600020819055508a8c60200160008c81526020019081526020016000206000828254019250508190555060018c60210160008c8152602001908152602001600020600082825401925050819055508a8c60000160090160003373ffffffffffffffffffffffffffffffffffffffff1673ffffffffffffffffffffffffffffffffffffffff168152602001908152602001600020600082825401925050819055508b601901548a111562000e4b578b601901548c60170154141562000d3b578a8c60200160008e601901548152602001908152602001600020548d60180154030193508b6019015484111562000d3557600191505b62000d49565b8a8c60170154019350600191505b811562000df75762000d6f8c6019015460018e600d0162001f019092919063ffffffff16565b80945081925050505b828410151562000dc5578b6020016000848152602001908152602001600020548403935062000db78360018e600d0162001f019092919063ffffffff16565b809450819250505062000d78565b62000de08360008e600d0162001f019092919063ffffffff16565b8094508192505050828c6019018190555062000dff565b8b6019015492505b828411151562000e32578b60200160008481526020019081526020016000205484019350828c6017018190555062000e3c565b838c601701819055505b838c6018018190555062000e6c565b8b601701548a141562000e6b578a8c601801600082825401925050819055505b5b6064876064018d600001600101540281151562000e8557fe5b048c601f0160003373ffffffffffffffffffffffffffffffffffffffff1673ffffffffffffffffffffffffffffffffffffffff168152602001908152602001600020819055503373ffffffffffffffffffffffffffffffffffffffff167f9dc6f173a1165d03443e68c408ed97eb54b10acbb4dad62bcd70e2e10a14181f8c8c604051808381526020018281526020019250505060405180910390a27f96026d61d69319c9c4a088724675179c1972be0648386dde0f588adff2733f778c601901548d601701548e6018015460405180848152602001838152602001828152602001935050505060405180910390a16001975050505050505050949350505050565b6000808260000160030154421015151562000fa157600080fd5b82601e0160009054906101000a900460ff1615151562000fc057600080fd5b62000fcb8362002355565b151562000fd757600080fd5b600183601e0160006101000a81548160ff02191690831515021790555062000fff83620023c7565b15156200100b57600080fd5b82601e0160019054906101000a900460ff161515620010e157826019015483601701541415620010cc576001836020016000856017015481526020019081526020016000205484601701548560180154036064028115156200106957fe5b040183601a0181905550826020016000846017015481526020019081526020016000205483601801540390506064836020016000856017015481526020019081526020016000205484601a015402811515620010c157fe5b0481019050620010d4565b826017015490505b8083600001600401819055505b50919050565b600080600090505b6000831415156200111857600a838115156200110757fe5b0492508080600101915050620010ef565b80915050919050565b60008060008060008060008760000160030154421115156200114257600080fd5b60008860220160003373ffffffffffffffffffffffffffffffffffffffff1673ffffffffffffffffffffffffffffffffffffffff168152602001908152602001600020541115156200119357600080fd5b87601e0160009054906101000a900460ff161515620011e257620011b78862002355565b1515620011c357600080fd5b87601e0160019054906101000a900460ff161515620011e157600080fd5b5b87601e0160019054906101000a900460ff16156200137e578760000160090160003373ffffffffffffffffffffffffffffffffffffffff1673ffffffffffffffffffffffffffffffffffffffff1681526020019081526020016000205488600001600b0160003373ffffffffffffffffffffffffffffffffffffffff1673ffffffffffffffffffffffffffffffffffffffff1681526020019081526020016000206000828254019250508190555060008860000160090160003373ffffffffffffffffffffffffffffffffffffffff1673ffffffffffffffffffffffffffffffffffffffff168152602001908152602001600020819055507f8756f3e78da606244d7d8c9563ce2678f294db7c57afce515849e03d5eec6c3a886017015460405180828152602001806020018281038252602e8152602001807f53616c652069732063616e63656c65642c20616c6c206269647320686176652081526020017f6265656e20726566756e646564210000000000000000000000000000000000008152506040019250505060405180910390a16001965062001c6b565b87601701548860220160003373ffffffffffffffffffffffffffffffffffffffff1673ffffffffffffffffffffffffffffffffffffffff16815260200190815260200160002054101562001549578760000160090160003373ffffffffffffffffffffffffffffffffffffffff1673ffffffffffffffffffffffffffffffffffffffff1681526020019081526020016000205488600001600b0160003373ffffffffffffffffffffffffffffffffffffffff1673ffffffffffffffffffffffffffffffffffffffff1681526020019081526020016000206000828254019250508190555060008860000160090160003373ffffffffffffffffffffffffffffffffffffffff1673ffffffffffffffffffffffffffffffffffffffff1681526020019081526020016000208190555087600001730B40E5f22cfd3c53eaE0aE819F0E0bADcBE9386663d06f9a5e90916000604051602001526040518263ffffffff167c01000000000000000000000000000000000000000000000000000000000281526004018082815260200191505060206040518083038186803b15156200152557600080fd5b6102c65a03f415156200153757600080fd5b50505060405180519050965062001c6b565b87601701548860220160003373ffffffffffffffffffffffffffffffffffffffff1673ffffffffffffffffffffffffffffffffffffffff168152602001908152602001600020541415620016965760648860000160090160003373ffffffffffffffffffffffffffffffffffffffff1673ffffffffffffffffffffffffffffffffffffffff1681526020019081526020016000205489601a015402811515620015ee57fe5b0493508388600001600b0160003373ffffffffffffffffffffffffffffffffffffffff1673ffffffffffffffffffffffffffffffffffffffff16815260200190815260200160002060008282540192505081905550838860000160090160003373ffffffffffffffffffffffffffffffffffffffff1673ffffffffffffffffffffffffffffffffffffffff168152602001908152602001600020600082825403925050819055505b7f8756f3e78da606244d7d8c9563ce2678f294db7c57afce515849e03d5eec6c3a8860000160090160003373ffffffffffffffffffffffffffffffffffffffff1673ffffffffffffffffffffffffffffffffffffffff1681526020019081526020016000205460405180828152602001806020018281038252600c8152602001807f636f6e747269627574696f6e00000000000000000000000000000000000000008152506020019250505060405180910390a17f8756f3e78da606244d7d8c9563ce2678f294db7c57afce515849e03d5eec6c3a88601f0160003373ffffffffffffffffffffffffffffffffffffffff1673ffffffffffffffffffffffffffffffffffffffff168152602001908152602001600020546040518082815260200180602001828103825260058152602001807f70726963650000000000000000000000000000000000000000000000000000008152506020019250505060405180910390a17f8756f3e78da606244d7d8c9563ce2678f294db7c57afce515849e03d5eec6c3a88601a015460405180828152602001806020018281038252600a8152602001807f70657263656e74616765000000000000000000000000000000000000000000008152506020019250505060405180910390a1620019008860000160090160003373ffffffffffffffffffffffffffffffffffffffff1673ffffffffffffffffffffffffffffffffffffffff1681526020019081526020016000205489601f0160003373ffffffffffffffffffffffffffffffffffffffff1673ffffffffffffffffffffffffffffffffffffffff1681526020019081526020016000205462002ad1565b80965081975050508588600001600a0160003373ffffffffffffffffffffffffffffffffffffffff1673ffffffffffffffffffffffffffffffffffffffff168152602001908152602001600020600082825401925050819055508488601801540388601801819055508488600001600b0160003373ffffffffffffffffffffffffffffffffffffffff1673ffffffffffffffffffffffffffffffffffffffff16815260200190815260200160002060008282540192505081905550606488601d0154606401896000016001015402811515620019d857fe5b04915062001a2b8860000160090160003373ffffffffffffffffffffffffffffffffffffffff1673ffffffffffffffffffffffffffffffffffffffff168152602001908152602001600020548362002ad1565b8096508194505050858303905087600001600c0160009054906101000a900473ffffffffffffffffffffffffffffffffffffffff1673ffffffffffffffffffffffffffffffffffffffff16637b47ec1a826000604051602001526040518263ffffffff167c010000000000000000000000000000000000000000000000000000000002815260040180828152602001915050602060405180830381600087803b151562001ad757600080fd5b6102c65a03f1151562001ae957600080fd5b505050604051805190505060008860000160090160003373ffffffffffffffffffffffffffffffffffffffff1673ffffffffffffffffffffffffffffffffffffffff1681526020019081526020016000208190555087600001730B40E5f22cfd3c53eaE0aE819F0E0bADcBE9386663b5d8816390916000604051602001526040518263ffffffff167c01000000000000000000000000000000000000000000000000000000000281526004018082815260200191505060206040518083038186803b151562001bb757600080fd5b6102c65a03f4151562001bc957600080fd5b505050604051805190505087600001730B40E5f22cfd3c53eaE0aE819F0E0bADcBE9386663d06f9a5e90916000604051602001526040518263ffffffff167c01000000000000000000000000000000000000000000000000000000000281526004018082815260200191505060206040518083038186803b151562001c4d57600080fd5b6102c65a03f4151562001c5f57600080fd5b50505060405180519050505b505050505050919050565b8b600001730B40E5f22cfd3c53eaE0aE819F0E0bADcBE9386663e9e337d390918d8d8a6000806040518763ffffffff167c0100000000000000000000000000000000000000000000000000000000028152600401808781526020018673ffffffffffffffffffffffffffffffffffffffff1673ffffffffffffffffffffffffffffffffffffffff168152602001806020018581526020018460ff1681526020018373ffffffffffffffffffffffffffffffffffffffff1673ffffffffffffffffffffffffffffffffffffffff168152602001828103825286818151815260200191508051906020019060200280838360005b8381101562001d8557808201518184015260208101905062001d68565b5050505090500197505050505050505060006040518083038186803b151562001dad57600080fd5b6102c65a03f4151562001dbf57600080fd5b505050858710151562001dd157600080fd5b89600081518110151562001de157fe5b906020019060200201518711151562001df957600080fd5b60008811151562001e0957600080fd5b60008560ff1611151562001e1c57600080fd5b60648560ff161115151562001e3057600080fd5b60008911151562001e4057600080fd5b878c601b0181905550868c60160181905550848c601c0160006101000a81548160ff021916908360ff160217905550888c601d0181905550838c600e01600301908051906020019062001e9592919062002cbb565b50828c600e01600401908051906020019062001eb392919062002cbb565b50818c600e0160070160146101000a81548160ff021916908360ff160217905550808c600e0160070160156101000a81548160ff021916908315150217905550505050505050505050505050565b60008062001f10858562002141565b151562001f27576000808090509150915062001f59565b600185600001600086815260200190815260200160002060008515151515815260200190815260200160002054915091505b935093915050565b6000806000341415905062001f768362002be1565b801562001f805750805b1562001f9057600191506200202b565b7f8756f3e78da606244d7d8c9563ce2678f294db7c57afce515849e03d5eec6c3a346040518082815260200180602001828103825260378152602001807f496e76616c69642050757263686173652120436865636b20737461727420746981526020017f6d6520616e6420616d6f756e74206f662065746865722e0000000000000000008152506040019250505060405180910390a1600091505b50919050565b6000806000806000808660000160020154876016015403945086600001600201544203935084606485028115156200206557fe5b04925086601d01547339090B6e52E8f555AB6FC79e8E7ADB214547695063f4f3bdc1909160648a601d015487028115156200209c57fe5b046000604051604001526040518363ffffffff167c01000000000000000000000000000000000000000000000000000000000281526004018083815260200182815260200192505050604080518083038186803b1515620020fc57600080fd5b6102c65a03f415156200210e57600080fd5b505050604051805190602001805190508092508193505050811515156200213457600080fd5b8095505050505050919050565b60008083600001600084815260200190815260200160002060008015151515815260200190815260200160002054148015620021a8575060008360000160008481526020019081526020016000206000600115151515815260200190815260200160002054145b15620021f6578183600001600080815260200190815260200160002060006001151515158152602001908152602001600020541415620021ec5760019050620021fb565b60009050620021fb565b600190505b92915050565b600080600080620022128862002c03565b1415620022235760009250620022bf565b60008614806200223b57506200223a878762002141565b5b15156200224757600080fd5b6200225487878662001f01565b80925081935050505b600081141580156200226f5750808514155b8015620022825750831515818610151514155b15620022bb578660000160008281526020019081526020016000206000851515151581526020019081526020016000205490506200225d565b8092505b5050949350505050565b600080620022d8868562002141565b158015620022ee5750620022ed868662002141565b5b1562002347578560000160008681526020019081526020016000206000841515151581526020019081526020016000205490506200232f8686868662002c56565b6200233d8685838662002c56565b600191506200234c565b600091505b50949350505050565b60008082601b01548360170154108062002396575062278d008360000160030154014211801562002395575082601e0160009054906101000a900460ff16155b5b90508015620023bd57600183601e0160016101000a81548160ff0219169083151502179055505b6001915050919050565b600080600080600080600087601c0160009054906101000a900460ff1660ff166064896017015402811515620023f957fe5b0495508760170154606489601d01546064018a60170154028115156200241b57fe5b04039450670de0b6b3a7640000886000016001015487028115156200243c57fe5b049350670de0b6b3a7640000886000016001015486028115156200245c57fe5b049250606488601c0160009054906101000a900460ff1660ff1685028115156200248257fe5b048403915082840190503088600e0160030189600e016004018a600e0160070160149054906101000a900460ff16848c600e0160070160159054906101000a900460ff16620024d062002d42565b808773ffffffffffffffffffffffffffffffffffffffff1673ffffffffffffffffffffffffffffffffffffffff16815260200180602001806020018660ff1660ff16815260200185815260200184151515158152602001838103835288818154600181600116156101000203166002900481526020019150805460018160011615610100020316600290048015620025ac5780601f106200258057610100808354040283529160200191620025ac565b820191906000526020600020905b8154815290600101906020018083116200258e57829003601f168201915b5050838103825287818154600181600116156101000203166002900481526020019150805460018160011615610100020316600290048015620026335780601f10620026075761010080835404028352916020019162002633565b820191906000526020600020905b8154815290600101906020018083116200261557829003601f168201915b505098505050505050505050604051809103906000f08015156200265657600080fd5b88600001600c0160006101000a81548173ffffffffffffffffffffffffffffffffffffffff021916908373ffffffffffffffffffffffffffffffffffffffff16021790555087601e0160019054906101000a900460ff161515620027d15787600001600c0160009054906101000a900473ffffffffffffffffffffffffffffffffffffffff1673ffffffffffffffffffffffffffffffffffffffff1663a9059cbb8960000160000160009054906101000a900473ffffffffffffffffffffffffffffffffffffffff16846000604051602001526040518363ffffffff167c0100000000000000000000000000000000000000000000000000000000028152600401808373ffffffffffffffffffffffffffffffffffffffff1673ffffffffffffffffffffffffffffffffffffffff16815260200182815260200192505050602060405180830381600087803b1515620027ae57600080fd5b6102c65a03f11515620027c057600080fd5b5050506040518051905050620029a5565b87600001600c0160009054906101000a900473ffffffffffffffffffffffffffffffffffffffff1673ffffffffffffffffffffffffffffffffffffffff1663a9059cbb8960000160000160009054906101000a900473ffffffffffffffffffffffffffffffffffffffff16866000604051602001526040518363ffffffff167c0100000000000000000000000000000000000000000000000000000000028152600401808373ffffffffffffffffffffffffffffffffffffffff1673ffffffffffffffffffffffffffffffffffffffff16815260200182815260200192505050602060405180830381600087803b1515620028cb57600080fd5b6102c65a03f11515620028dd57600080fd5b505050604051805190505087600001600c0160009054906101000a900473ffffffffffffffffffffffffffffffffffffffff1673ffffffffffffffffffffffffffffffffffffffff16637b47ec1a846000604051602001526040518263ffffffff167c010000000000000000000000000000000000000000000000000000000002815260040180828152602001915050602060405180830381600087803b15156200298757600080fd5b6102c65a03f115156200299957600080fd5b50505060405180519050505b87600001600c0160009054906101000a900473ffffffffffffffffffffffffffffffffffffffff1673ffffffffffffffffffffffffffffffffffffffff1663a6f9dae18960000160000160009054906101000a900473ffffffffffffffffffffffffffffffffffffffff166000604051602001526040518263ffffffff167c0100000000000000000000000000000000000000000000000000000000028152600401808273ffffffffffffffffffffffffffffffffffffffff1673ffffffffffffffffffffffffffffffffffffffff168152602001915050602060405180830381600087803b151562002a9757600080fd5b6102c65a03f1151562002aa957600080fd5b5050506040518051905050818403886000016005018190555060019650505050505050919050565b60008060008060008060009350877339090B6e52E8f555AB6FC79e8E7ADB2145476950631d3b9edf9091896000604051604001526040518363ffffffff167c01000000000000000000000000000000000000000000000000000000000281526004018083815260200182815260200192505050604080518083038186803b151562002b5b57600080fd5b6102c65a03f4151562002b6d57600080fd5b5050506040518051906020018051905080925081945050508215151562002b9357600080fd5b670de0b6b3a76400008181151562002ba757fe5b049150670de0b6b3a76400008181151562002bbe57fe5b069350868481151562002bcd57fe5b049350818495509550505050509250929050565b60008160020154421015801562002bfc575081600301544211155b9050919050565b600080600062002c17846000600162001f01565b80925081935050505b60008114151562002c4f5762002c398482600162001f01565b8092508193505050828060010193505062002c20565b5050919050565b828460000160008481526020019081526020016000206000831515151515815260200190815260200160002081905550818460000160008581526020019081526020016000206000831515151581526020019081526020016000208190555050505050565b828054600181600116156101000203166002900490600052602060002090601f016020900481019282601f1062002cfe57805160ff191683800117855562002d2f565b8280016001018555821562002d2f579182015b8281111562002d2e57825182559160200191906001019062002d11565b5b50905062002d3e919062002d53565b5090565b6040516113d18062002d7c83390190565b62002d7891905b8082111562002d7457600081600090555060010162002d5a565b5090565b9056006060604052341561000f57600080fd5b6040516113d13803806113d183398101604052808051906020019091908051820191906020018051820191906020018051906020019091908051906020019091908051906020019091905050600073E563CD95728fEaA94f96a5D97AA9f1ad5A16c1a7639329297290918888888888886040518863ffffffff167c0100000000000000000000000000000000000000000000000000000000028152600401808881526020018773ffffffffffffffffffffffffffffffffffffffff1673ffffffffffffffffffffffffffffffffffffffff16815260200180602001806020018660ff1660ff16815260200185815260200184151515158152602001838103835288818151815260200191508051906020019080838360005b83811015610142578082015181840152602081019050610127565b50505050905090810190601f16801561016f5780820380516001836020036101000a031916815260200191505b50838103825287818151815260200191508051906020019080838360005b838110156101a857808201518184015260208101905061018d565b50505050905090810190601f1680156101d55780820380516001836020036101000a031916815260200191505b50995050505050505050505060006040518083038186803b15156101f857600080fd5b6102c65a03f4151561020957600080fd5b5050505050505050506111b0806102216000396000f3006060604052600436106100e6576000357c0100000000000000000000000000000000000000000000000000000000900463ffffffff16806306fdde03146100eb578063095ea7b31461017957806318160ddd146101d357806323b872dd146101fc578063313ce56714610275578063378dc3dc146102a457806364f101f0146102cd57806370a08231146102fa5780637b47ec1a146103475780638bbdfaa61461038257806395d89b41146103e7578063a6f9dae114610475578063a9059cbb146104c6578063c634d03214610520578063dd62ed3e1461055b578063fc0c546a146105c7575b600080fd5b34156100f657600080fd5b6100fe61075f565b6040518080602001828103825283818151815260200191508051906020019080838360005b8381101561013e578082015181840152602081019050610123565b50505050905090810190601f16801561016b5780820380516001836020036101000a031916815260200191505b509250505060405180910390f35b341561018457600080fd5b6101b9600480803573ffffffffffffffffffffffffffffffffffffffff1690602001909190803590602001909190505061080a565b604051808215151515815260200191505060405180910390f35b34156101de57600080fd5b6101e66108e0565b6040518082815260200191505060405180910390f35b341561020757600080fd5b61025b600480803573ffffffffffffffffffffffffffffffffffffffff1690602001909190803573ffffffffffffffffffffffffffffffffffffffff169060200190919080359060200190919050506108ec565b604051808215151515815260200191505060405180910390f35b341561028057600080fd5b6102886109f7565b604051808260ff1660ff16815260200191505060405180910390f35b34156102af57600080fd5b6102b7610a10565b6040518082815260200191505060405180910390f35b34156102d857600080fd5b6102e0610a1c565b604051808215151515815260200191505060405180910390f35b341561030557600080fd5b610331600480803573ffffffffffffffffffffffffffffffffffffffff16906020019091905050610ab3565b6040518082815260200191505060405180910390f35b341561035257600080fd5b6103686004808035906020019091905050610b80565b604051808215151515815260200191505060405180910390f35b341561038d57600080fd5b6103cd600480803573ffffffffffffffffffffffffffffffffffffffff169060200190919080359060200190919080351515906020019091905050610c21565b604051808215151515815260200191505060405180910390f35b34156103f257600080fd5b6103fa610d04565b6040518080602001828103825283818151815260200191508051906020019080838360005b8381101561043a57808201518184015260208101905061041f565b50505050905090810190601f1680156104675780820380516001836020036101000a031916815260200191505b509250505060405180910390f35b341561048057600080fd5b6104ac600480803573ffffffffffffffffffffffffffffffffffffffff16906020019091905050610daf565b604051808215151515815260200191505060405180910390f35b34156104d157600080fd5b610506600480803573ffffffffffffffffffffffffffffffffffffffff16906020019091908035906020019091905050610e7c565b604051808215151515815260200191505060405180910390f35b341561052b57600080fd5b6105416004808035906020019091905050610f52565b604051808215151515815260200191505060405180910390f35b341561056657600080fd5b6105b1600480803573ffffffffffffffffffffffffffffffffffffffff1690602001909190803573ffffffffffffffffffffffffffffffffffffffff16906020019091905050610ff3565b6040518082815260200191505060405180910390f35b34156105d257600080fd5b6105da6110f5565b604051808915151515815260200180602001806020018881526020018781526020018673ffffffffffffffffffffffffffffffffffffffff1673ffffffffffffffffffffffffffffffffffffffff1681526020018560ff1660ff1681526020018415151515815260200183810383528a8181546001816001161561010002031660029004815260200191508054600181600116156101000203166002900480156106c55780601f1061069a576101008083540402835291602001916106c5565b820191906000526020600020905b8154815290600101906020018083116106a857829003601f168201915b50508381038252898181546001816001161561010002031660029004815260200191508054600181600116156101000203166002900480156107485780601f1061071d57610100808354040283529160200191610748565b820191906000526020600020905b81548152906001019060200180831161072b57829003601f168201915b50509a505050505050505050505060405180910390f35b610767611170565b60006003018054600181600116156101000203166002900480601f0160208091040260200160405190810160405280929190818152602001828054600181600116156101000203166002900480156108005780601f106107d557610100808354040283529160200191610800565b820191906000526020600020905b8154815290600101906020018083116107e357829003601f168201915b5050505050905090565b60008073E563CD95728fEaA94f96a5D97AA9f1ad5A16c1a7638ca979ca909185856000604051602001526040518463ffffffff167c0100000000000000000000000000000000000000000000000000000000028152600401808481526020018373ffffffffffffffffffffffffffffffffffffffff1673ffffffffffffffffffffffffffffffffffffffff168152602001828152602001935050505060206040518083038186803b15156108bd57600080fd5b6102c65a03f415156108ce57600080fd5b50505060405180519050905092915050565b60008060050154905090565b60008073E563CD95728fEaA94f96a5D97AA9f1ad5A16c1a76321a6a23d90918686866000604051602001526040518563ffffffff167c0100000000000000000000000000000000000000000000000000000000028152600401808581526020018473ffffffffffffffffffffffffffffffffffffffff1673ffffffffffffffffffffffffffffffffffffffff1681526020018373ffffffffffffffffffffffffffffffffffffffff1673ffffffffffffffffffffffffffffffffffffffff16815260200182815260200194505050505060206040518083038186803b15156109d357600080fd5b6102c65a03f415156109e457600080fd5b5050506040518051905090509392505050565b60008060070160149054906101000a900460ff16905090565b60008060060154905090565b60008073E563CD95728fEaA94f96a5D97AA9f1ad5A16c1a763a7ccd77690916000604051602001526040518263ffffffff167c01000000000000000000000000000000000000000000000000000000000281526004018082815260200191505060206040518083038186803b1515610a9357600080fd5b6102c65a03f41515610aa457600080fd5b50505060405180519050905090565b60008073E563CD95728fEaA94f96a5D97AA9f1ad5A16c1a7633af00d0f9091846000604051602001526040518363ffffffff167c0100000000000000000000000000000000000000000000000000000000028152600401808381526020018273ffffffffffffffffffffffffffffffffffffffff1673ffffffffffffffffffffffffffffffffffffffff1681526020019250505060206040518083038186803b1515610b5e57600080fd5b6102c65a03f41515610b6f57600080fd5b505050604051805190509050919050565b60008073E563CD95728fEaA94f96a5D97AA9f1ad5A16c1a7636269321c9091846000604051602001526040518363ffffffff167c0100000000000000000000000000000000000000000000000000000000028152600401808381526020018281526020019250505060206040518083038186803b1515610bff57600080fd5b6102c65a03f41515610c1057600080fd5b505050604051805190509050919050565b60008073E563CD95728fEaA94f96a5D97AA9f1ad5A16c1a763bd03185c90918686866000604051602001526040518563ffffffff167c0100000000000000000000000000000000000000000000000000000000028152600401808581526020018473ffffffffffffffffffffffffffffffffffffffff1673ffffffffffffffffffffffffffffffffffffffff1681526020018381526020018215151515815260200194505050505060206040518083038186803b1515610ce057600080fd5b6102c65a03f41515610cf157600080fd5b5050506040518051905090509392505050565b610d0c611170565b60006004018054600181600116156101000203166002900480601f016020809104026020016040519081016040528092919081815260200182805460018160011615610100020316600290048015610da55780601f10610d7a57610100808354040283529160200191610da5565b820191906000526020600020905b815481529060010190602001808311610d8857829003601f168201915b5050505050905090565b60008073E563CD95728fEaA94f96a5D97AA9f1ad5A16c1a7636f71ca3c9091846000604051602001526040518363ffffffff167c0100000000000000000000000000000000000000000000000000000000028152600401808381526020018273ffffffffffffffffffffffffffffffffffffffff1673ffffffffffffffffffffffffffffffffffffffff1681526020019250505060206040518083038186803b1515610e5a57600080fd5b6102c65a03f41515610e6b57600080fd5b505050604051805190509050919050565b60008073E563CD95728fEaA94f96a5D97AA9f1ad5A16c1a763d4b1770a909185856000604051602001526040518463ffffffff167c0100000000000000000000000000000000000000000000000000000000028152600401808481526020018373ffffffffffffffffffffffffffffffffffffffff1673ffffffffffffffffffffffffffffffffffffffff168152602001828152602001935050505060206040518083038186803b1515610f2f57600080fd5b6102c65a03f41515610f4057600080fd5b50505060405180519050905092915050565b60008073E563CD95728fEaA94f96a5D97AA9f1ad5A16c1a763f8f095f29091846000604051602001526040518363ffffffff167c0100000000000000000000000000000000000000000000000000000000028152600401808381526020018281526020019250505060206040518083038186803b1515610fd157600080fd5b6102c65a03f41515610fe257600080fd5b505050604051805190509050919050565b60008073E563CD95728fEaA94f96a5D97AA9f1ad5A16c1a763ac9b44f7909185856000604051602001526040518463ffffffff167c0100000000000000000000000000000000000000000000000000000000028152600401808481526020018373ffffffffffffffffffffffffffffffffffffffff1673ffffffffffffffffffffffffffffffffffffffff1681526020018273ffffffffffffffffffffffffffffffffffffffff1673ffffffffffffffffffffffffffffffffffffffff168152602001935050505060206040518083038186803b15156110d257600080fd5b6102c65a03f415156110e357600080fd5b50505060405180519050905092915050565b60008060000160009054906101000a900460ff1690806003019080600401908060050154908060060154908060070160009054906101000a900473ffffffffffffffffffffffffffffffffffffffff16908060070160149054906101000a900460ff16908060070160159054906101000a900460ff16905088565b6020604051908101604052806000815250905600a165627a7a72305820829d7c887390f40028e69ce875477c84c9d8b931efc19d80f91d9aea5b2488d50029a165627a7a72305820d1edfe41e872dcf567466fd15f1fabee220edf26e4e06513a7e50b7a09baccd70029",
  "source": "pragma solidity ^0.4.18;\n\n/**\n * @title InteractiveCrowdsaleLib\n * @author Modular, Inc\n *\n * version 1.0.0\n * Copyright (c) 2017 Modular, Inc\n * The MIT License (MIT)\n *\n * The InteractiveCrowdsale Library provides functionality to create a crowdsale\n * based on the white paper initially proposed by Jason Teutsch and Vitalik\n * Buterin. See https://people.cs.uchicago.edu/~teutsch/papers/ico.pdf for\n * further information.\n *\n * This library was developed in a collaborative effort among many organizations\n * including TrueBit, Modular, and Consensys.\n * For further information: truebit.io, modular.network,\n * consensys.net\n *\n * THE SOFTWARE IS PROVIDED \"AS IS\", WITHOUT WARRANTY OF ANY KIND, EXPRESS\n * OR IMPLIED, INCLUDING BUT NOT LIMITED TO THE WARRANTIES OF\n * MERCHANTABILITY, FITNESS FOR A PARTICULAR PURPOSE AND NONINFRINGEMENT.\n * IN NO EVENT SHALL THE AUTHORS OR COPYRIGHT HOLDERS BE LIABLE FOR ANY\n * CLAIM, DAMAGES OR OTHER LIABILITY, WHETHER IN AN ACTION OF CONTRACT,\n * TORT OR OTHERWISE, ARISING FROM, OUT OF OR IN CONNECTION WITH THE\n * SOFTWARE OR THE USE OR OTHER DEALINGS IN THE SOFTWARE.\n */\n\nimport \"./BasicMathLib.sol\";\nimport \"./TokenLib.sol\";\nimport \"./CrowdsaleToken.sol\";\nimport \"./CrowdsaleLib.sol\";\nimport \"./LinkedListLib.sol\";\n\nlibrary InteractiveCrowdsaleLib {\n  using BasicMathLib for uint256;\n  using TokenLib for TokenLib.TokenStorage;\n  using LinkedListLib for LinkedListLib.LinkedList;\n  using CrowdsaleLib for CrowdsaleLib.CrowdsaleStorage;\n\n  // Node constants for use in the linked list\n  uint256 constant NULL = 0;\n  uint256 constant HEAD = 0;\n  bool constant PREV = false;\n  bool constant NEXT = true;\n\n  struct InteractiveCrowdsaleStorage {\n\n    CrowdsaleLib.CrowdsaleStorage base; // base storage from CrowdsaleLib\n\n    // List of personal valuations, sorted from smallest to largest (from LinkedListLib)\n    LinkedListLib.LinkedList valuationsList;\n\n    // Info holder for token creation\n    TokenLib.TokenStorage tokenInfo;\n\n    uint256 endWithdrawalTime;   // time when manual withdrawals are no longer allowed\n\n    // current total valuation of the sale\n    // actual amount of ETH committed, taking into account partial purchases\n    uint256 totalValuation;\n\n    // amount of value committed at this valuation, cannot rely on owner balance\n    // due to fluctations in commitment calculations needed after owner withdraws\n    // in other words, the total amount of ETH committed, including total bids\n    // that will eventually get partial purchases\n    uint256 valueCommitted;\n\n    // the bucket that sits either at or just below current total valuation.\n    // determines where the cutoff point is for bids in the sale\n    uint256 currentBucket;\n\n    // the fraction of each minimal valuation bidder's ether refund, 'q' is from the paper\n    // and is calculated when finalizing the sale\n    uint256 q;\n\n    // minimim amount that the sale needs to make to be successfull\n    uint256 minimumRaise;\n\n    // percentage of total tokens being sold in this sale\n    uint8 percentBeingSold;\n\n    // the bonus amount for early bidders.  This is a percentage of the base token\n    // price that gets added on the the base token price used in getCurrentBonus()\n    uint256 priceBonusPercent;\n\n    // Indicates that the owner has finalized the sale and withdrawn Ether\n    bool isFinalized;\n\n    // Set to true if the sale is canceled\n    bool isCanceled;\n\n    // shows the price that the address purchased tokens at\n    mapping (address => uint256) pricePurchasedAt;\n\n    // the sums of bids at each valuation.  Used to calculate the current bucket for the valuation pointer\n    mapping (uint256 => uint256) valuationSums;\n\n    // the number of active bids at a certain valuation cap\n    mapping (uint256 => uint256) numBidsAtValuation;\n\n    // the valuation cap that each address has submitted\n    mapping (address => uint256) personalCaps;\n\n    // shows if an address has done a manual withdrawal. manual withdrawals are only allowed once\n    mapping (address => bool) hasManuallyWithdrawn;\n  }\n\n  // Indicates when a bidder submits a bid to the crowdsale\n  event LogBidAccepted(address indexed bidder, uint256 amount, uint256 personalValuation);\n\n  // Indicates when a bidder manually withdraws their bid from the crowdsale\n  event LogBidWithdrawn(address indexed bidder, uint256 amount, uint256 personalValuation);\n\n  // Indicates when a bid is removed by the automated bid removal process\n  event LogBidRemoved(address indexed bidder, uint256 personalValuation);\n\n  // Generic Error Msg Event\n  event LogErrorMsg(uint256 amount, string Msg);\n\n  // Indicates when the price of the token changes\n  event LogTokenPriceChange(uint256 amount, string Msg);\n\n  // Logs the current bucket that the valuation points to, the total valuation of\n  // the sale, and the amount of ETH committed, including total bids that will eventually get partial purchases\n  event BucketAndValuationAndCommitted(uint256 bucket, uint256 valuation, uint256 committed);\n\n  /// @dev Called by a crowdsale contract upon creation.\n  /// @param self Stored crowdsale from crowdsale contract\n  /// @param _owner Address of crowdsale owner\n  /// @param _saleData Array of 3 item arrays such that, in each 3 element\n  /// array index-0 is a timestamp, index-1 is price in tokens/ETH\n  /// index-2 is address purchase cap at that time, 0 if no address cap\n  /// @param _priceBonusPercent the bonus amount for early bidders\n  /// @param _minimumRaise minimim amount that the sale needs to make to be successfull\n  /// @param _endWithdrawalTime timestamp that indicates that manual withdrawals are no longer allowed\n  /// @param _endTime Timestamp of sale end time\n  /// @param _percentBeingSold percentage of total tokens being sold in the sale\n  /// @param _tokenName name of the token being sold. ex: \"Jason Network Token\"\n  /// @param _tokenSymbol symbol of the token. ex: \"JNT\"\n  /// @param _tokenDecimals number of decimals in the token\n  /// @param _allowMinting whether or not to allow minting of the token after the sale\n  function init(InteractiveCrowdsaleStorage storage self,\n                address _owner,\n                uint256[] _saleData,\n                uint256 _priceBonusPercent,\n                uint256 _minimumRaise,\n                uint256 _endWithdrawalTime,\n                uint256 _endTime,\n                uint8 _percentBeingSold,\n                string _tokenName,\n                string _tokenSymbol,\n                uint8 _tokenDecimals,\n                bool _allowMinting) public\n  {\n    self.base.init(_owner,\n                _saleData,\n                _endTime,\n                0, // no token burning for iico\n                CrowdsaleToken(0)); // no tokens created prior to iico\n\n    require(_endWithdrawalTime < _endTime);\n    require(_endWithdrawalTime > _saleData[0]);\n    require(_minimumRaise > 0);\n    require(_percentBeingSold > 0);\n    require(_percentBeingSold <= 100);\n    require(_priceBonusPercent > 0);\n\n    self.minimumRaise = _minimumRaise;\n    self.endWithdrawalTime = _endWithdrawalTime;\n    self.percentBeingSold = _percentBeingSold;\n    self.priceBonusPercent = _priceBonusPercent;\n\n    self.tokenInfo.name = _tokenName;\n    self.tokenInfo.symbol = _tokenSymbol;\n    self.tokenInfo.decimals = _tokenDecimals;\n    self.tokenInfo.stillMinting = _allowMinting;\n  }\n\n  /// @dev calculates the number of digits in a given number\n  /// @param _number the number for which we're caluclating digits\n  /// @return _digits the number of digits in _number\n  function numDigits(uint256 _number) public pure returns (uint256) {\n    uint256 _digits = 0;\n    while (_number != 0) {\n      _number /= 10;\n      _digits++;\n    }\n    return _digits;\n  }\n\n  /// @dev calculates the number of tokens purchased based on the amount of wei\n  ///      spent and the price of tokens\n  /// @param _amount amound of wei that the buyer sent\n  /// @param _price price of tokens in the sale, in tokens/ETH\n  /// @return uint256 numTokens the number of tokens purchased\n  /// @return remainder  any remaining wei leftover from integer division\n  function calculateTokenPurchase(uint256 _amount,\n                                  uint256 _price)\n                                  internal\n                                  pure\n                                  returns (uint256,uint256)\n  {\n    uint256 remainder = 0; //temp calc holder for division remainder for leftover wei\n\n    bool err;\n    uint256 numTokens;\n    uint256 weiTokens; //temp calc holder\n\n    // Find the number of tokens as a function in wei\n    (err,weiTokens) = _amount.times(_price);\n    require(!err);\n\n    numTokens = weiTokens / 1000000000000000000;\n    remainder = weiTokens % 1000000000000000000;\n    remainder = remainder / _price;\n\n    return (numTokens,remainder);\n  }\n\n  /// @dev Called when an address wants to submit a bid to the sale\n  /// @param self Stored crowdsale from crowdsale contract\n  /// @return currentBonus percentage of the bonus that is applied for the purchase\n  function getCurrentBonus(InteractiveCrowdsaleStorage storage self) internal view returns (uint256){\n    // can't underflow becuase endWithdrawalTime > startTime\n    uint256 bonusTime = self.endWithdrawalTime - self.base.startTime;\n    // can't underflow because now > startTime\n    uint256 elapsed = now - self.base.startTime;\n    uint256 percentElapsed = (elapsed * 100)/bonusTime;\n\n    bool err;\n    uint256 currentBonus;\n    (err,currentBonus) = self.priceBonusPercent.minus(((percentElapsed * self.priceBonusPercent)/100));\n    require(!err);\n\n    return currentBonus;\n  }\n\n  /// @dev Called when an address wants to submit bid to the sale\n  /// @param self Stored crowdsale from crowdsale contract\n  /// @param _amount amound of wei that the buyer is sending\n  /// @param _personalCap the total crowdsale valuation (wei) that the bidder is comfortable with\n  /// @param _valuePredict prediction of where the valuation will go in the linked list. saves on searching time\n  /// @return true on succesful bid\n  function submitBid(InteractiveCrowdsaleStorage storage self,\n                      uint256 _amount,\n                      uint256 _personalCap,\n                      uint256 _valuePredict) public returns (bool)\n  {\n    require(msg.sender != self.base.owner);\n    require(self.base.validPurchase());\n    // bidder can't have already bid\n    require((self.personalCaps[msg.sender] == 0) && (self.base.hasContributed[msg.sender] == 0));\n\n    uint256 _bonusPercent;\n    // token purchase bonus only applies before the withdrawal lock\n    if (now < self.endWithdrawalTime) {\n      require(_personalCap > _amount);\n      _bonusPercent = getCurrentBonus(self);\n    } else {\n      // The personal valuation submitted must be greater than the current\n      // valuation plus the bid if after the withdrawal lock.\n      require(_personalCap >= self.totalValuation + _amount);\n    }\n\n    // personal valuation and minimum should be set to the proper granularity,\n    // only three most significant values can be non-zero. reduces the number of possible\n    // valuation buckets in the linked list\n    uint256 digits = numDigits(_personalCap);\n    if(digits > 3) {\n      require((_personalCap % (10**(digits - 3))) == 0);\n    }\n\n    // add the bid to the sorted valuations list\n    // duplicate personal valuation caps share a spot in the linked list\n    uint256 _listSpot;\n    if(!self.valuationsList.nodeExists(_personalCap)){\n        _listSpot = self.valuationsList.getSortedSpot(_valuePredict,_personalCap,NEXT);\n        self.valuationsList.insert(_listSpot,_personalCap,PREV);\n    }\n\n    // add the bid to the address => cap mapping\n    self.personalCaps[msg.sender] = _personalCap;\n\n    // add the bid to the sum of bids at this valuation. Needed for calculating correct valuation pointer\n    self.valuationSums[_personalCap] += _amount;\n    self.numBidsAtValuation[_personalCap] += 1;\n\n    // add the bid to bidder's contribution amount\n    self.base.hasContributed[msg.sender] += _amount;\n\n    // temp variables for calculation\n    uint256 _proposedCommit;\n    uint256 _currentBucket;\n    bool loop;\n    bool exists;\n\n    // we only affect the pointer if we are coming in above it\n    if(_personalCap > self.currentBucket){\n\n      // if our valuation is sitting at the current bucket then we are using\n      // commitments right at their cap\n      if (self.totalValuation == self.currentBucket) {\n        // we are going to drop those commitments to see if we are going to be\n        // greater than the current bucket without them\n        _proposedCommit = (self.valueCommitted - self.valuationSums[self.currentBucket]) + _amount;\n        if(_proposedCommit > self.currentBucket){ loop = true; }\n      } else {\n        // else we're sitting in between buckets and have already dropped the\n        // previous commitments\n        _proposedCommit = self.totalValuation + _amount;\n        loop = true;\n      }\n\n      if(loop){\n        // if we're going to loop we move to the next bucket\n        (exists,_currentBucket) = self.valuationsList.getAdjacent(self.currentBucket, NEXT);\n\n        while(_proposedCommit >= _currentBucket){\n          // while we are proposed higher than the next bucket we drop commitments\n          // and iterate to the next\n          _proposedCommit = _proposedCommit - self.valuationSums[_currentBucket];\n          (exists,_currentBucket) = self.valuationsList.getAdjacent(_currentBucket, NEXT);\n        }\n        // once we've reached a bucket too high we move back to the last bucket and set it\n        (exists, _currentBucket) = self.valuationsList.getAdjacent(_currentBucket, PREV);\n        self.currentBucket = _currentBucket;\n      } else {\n        // else we're staying at the current bucket\n        _currentBucket = self.currentBucket;\n      }\n      // if our proposed commitment is less than or equal to the bucket\n      if(_proposedCommit <= _currentBucket){\n        // we add the commitments in that bucket\n        _proposedCommit += self.valuationSums[_currentBucket];\n        // and our value is capped at that bucket\n        self.totalValuation = _currentBucket;\n      } else {\n        // else our total value is in between buckets and it equals the total commitements\n        self.totalValuation = _proposedCommit;\n      }\n\n      self.valueCommitted = _proposedCommit;\n    } else if(_personalCap == self.totalValuation){\n      self.valueCommitted += _amount;\n    }\n\n    self.pricePurchasedAt[msg.sender] = (self.base.tokensPerEth * (100 + _bonusPercent))/100;\n    LogBidAccepted(msg.sender, _amount, _personalCap);\n    BucketAndValuationAndCommitted(self.currentBucket, self.totalValuation, self.valueCommitted);\n    return true;\n  }\n\n\n  /// @dev Called when an address wants to manually withdraw their bid from the\n  ///      sale. puts their wei in the LeftoverWei mapping\n  /// @param self Stored crowdsale from crowdsale contract\n  /// @return true on succesful\n  function withdrawBid(InteractiveCrowdsaleStorage storage self) public returns (bool) {\n    // The sender has to have already bid on the sale\n    require(self.personalCaps[msg.sender] > 0);\n\n    uint256 refundWei;\n    // cannot withdraw after compulsory withdraw period is over unless the bid's\n    // valuation is below the cutoff\n    if (now >= self.endWithdrawalTime) {\n      require(self.personalCaps[msg.sender] < self.totalValuation);\n\n      // full refund because their bid no longer affects the total sale valuation\n      refundWei = self.base.hasContributed[msg.sender];\n\n    } else {\n      require(!self.hasManuallyWithdrawn[msg.sender]);  // manual withdrawals are only allowed once\n      /***********************************************************************\n      The following lines were commented out due to stack depth, but they represent\n      the variables and calculations from the paper. The actual code is the same\n      thing spelled out using current variables.  See section 4 of the white paper for formula used\n      ************************************************************************/\n      //uint256 t = self.endWithdrawalTime - self.base.startTime;\n      //uint256 s = now - self.base.startTime;\n      //uint256 pa = self.pricePurchasedAt[msg.sender];\n      //uint256 pu = self.base.tokensPerEth;\n      //uint256 multiplierPercent =  (100*(t - s))/t;\n      //self.pricePurchasedAt = pa-((pa-pu)/3)\n\n      uint256 multiplierPercent = (100 * (self.endWithdrawalTime - now)) /\n                                  (self.endWithdrawalTime - self.base.startTime);\n      refundWei = (multiplierPercent * self.base.hasContributed[msg.sender]) / 100;\n\n      self.valuationSums[self.personalCaps[msg.sender]] -= refundWei;\n      self.numBidsAtValuation[self.personalCaps[msg.sender]] -= 1;\n\n      self.pricePurchasedAt[msg.sender] = self.pricePurchasedAt[msg.sender] -\n                                          ((self.pricePurchasedAt[msg.sender] - self.base.tokensPerEth) / 3);\n\n      self.hasManuallyWithdrawn[msg.sender] = true;\n\n    }\n\n    // Put the sender's contributed wei into the leftoverWei mapping for later withdrawal\n    self.base.leftoverWei[msg.sender] += refundWei;\n\n    // subtract the bidder's refund from its total contribution\n    self.base.hasContributed[msg.sender] -= refundWei;\n\n\n    uint256 _proposedCommit;\n    uint256 _proposedValue;\n    uint256 _currentBucket;\n    bool loop;\n    bool exists;\n\n    // bidder's withdrawal only affects the pointer if the personal cap is at or\n    // above the current valuation\n    if(self.personalCaps[msg.sender] >= self.totalValuation){\n\n      // first we remove the refundWei from the committed value\n      _proposedCommit = self.valueCommitted - refundWei;\n\n      // if we've dropped below the current bucket\n      if(_proposedCommit <= self.currentBucket){\n        // and current valuation is above the bucket\n        if(self.totalValuation > self.currentBucket){\n          _proposedCommit += self.valuationSums[self.currentBucket];\n        }\n\n        if(_proposedCommit >= self.currentBucket){\n          _proposedValue = self.currentBucket;\n        } else {\n          // if we are still below the current bucket then we need to iterate\n          loop = true;\n        }\n      } else {\n        if(self.totalValuation == self.currentBucket){\n          _proposedValue = self.totalValuation;\n        } else {\n          _proposedValue = _proposedCommit;\n        }\n      }\n\n      if(loop){\n        // if we're going to loop we move to the previous bucket\n        (exists,_currentBucket) = self.valuationsList.getAdjacent(self.currentBucket, PREV);\n        while(_proposedCommit <= _currentBucket){\n          // while we are proposed lower than the previous bucket we add commitments\n          _proposedCommit += self.valuationSums[_currentBucket];\n          // and iterate to the previous\n          if(_proposedCommit >= _currentBucket){\n            _proposedValue = _currentBucket;\n          } else {\n            (exists,_currentBucket) = self.valuationsList.getAdjacent(_currentBucket, PREV);\n          }\n        }\n\n        if(_proposedValue == 0) { _proposedValue = _proposedCommit; }\n\n        self.currentBucket = _currentBucket;\n      }\n\n      self.totalValuation = _proposedValue;\n      self.valueCommitted = _proposedCommit;\n    }\n\n    LogBidWithdrawn(msg.sender, refundWei, self.personalCaps[msg.sender]);\n    BucketAndValuationAndCommitted(self.currentBucket, self.totalValuation, self.valueCommitted);\n    return true;\n  }\n\n  /// @dev This should be called once the sale is over to commit all bids into\n  ///      the owner's bucket.\n  /// @param self stored crowdsale from crowdsale contract\n  function finalizeSale(InteractiveCrowdsaleStorage storage self) public returns (bool) {\n    require(now >= self.base.endTime);\n    require(!self.isFinalized); // can only be called once\n    require(setCanceled(self));\n\n    self.isFinalized = true;\n    require(launchToken(self));\n    // may need to be computed due to EVM rounding errors\n    uint256 computedValue;\n\n    if(!self.isCanceled){\n      if(self.totalValuation == self.currentBucket){\n        // calculate the fraction of each minimal valuation bidders ether and tokens to refund\n        self.q = (100*(self.valueCommitted - self.totalValuation)/(self.valuationSums[self.totalValuation])) + 1;\n        computedValue = self.valueCommitted - self.valuationSums[self.totalValuation];\n        computedValue += (self.q * self.valuationSums[self.totalValuation])/100;\n      } else {\n        // no computation necessary\n        computedValue = self.totalValuation;\n      }\n      self.base.ownerBalance = computedValue;  // sets ETH raised in the sale to be ready for withdrawal\n    }\n  }\n\n  /// @dev Mints the token being sold by taking the percentage of the token supply\n  ///      being sold in this sale along with the valuation, derives all necessary\n  ///      values and then transfers owner tokens to the owner.\n  /// @param self Stored crowdsale from crowdsale contract\n  function launchToken(InteractiveCrowdsaleStorage storage self) internal returns (bool) {\n    // total valuation of all the tokens not including the bonus\n    uint256 _fullValue = (self.totalValuation*100)/uint256(self.percentBeingSold);\n    // total valuation of bonus tokens\n    uint256 _bonusValue = ((self.totalValuation * (100 + self.priceBonusPercent))/100) - self.totalValuation;\n    // total supply of all tokens not including the bonus\n    uint256 _supply = (_fullValue * self.base.tokensPerEth)/1000000000000000000;\n    // total number of bonus tokens\n    uint256 _bonusTokens = (_bonusValue * self.base.tokensPerEth)/1000000000000000000;\n    // tokens allocated to the owner of the sale\n    uint256 _ownerTokens = _supply - ((_supply * uint256(self.percentBeingSold))/100);\n    // total supply of tokens not including the bonus tokens\n    uint256 _totalSupply = _supply + _bonusTokens;\n\n    // deploy new token contract with total number of tokens\n    self.base.token = new CrowdsaleToken(address(this),\n                                         self.tokenInfo.name,\n                                         self.tokenInfo.symbol,\n                                         self.tokenInfo.decimals,\n                                         _totalSupply,\n                                         self.tokenInfo.stillMinting);\n\n    // if the sale got canceled, then all the tokens go to the owner and bonus tokens are burned\n    if(!self.isCanceled){\n      self.base.token.transfer(self.base.owner, _ownerTokens);\n    } else {\n      self.base.token.transfer(self.base.owner, _supply);\n      self.base.token.burnToken(_bonusTokens);\n    }\n    // the owner of the crowdsale becomes the new owner of the token contract\n    self.base.token.changeOwner(self.base.owner);\n    self.base.startingTokenBalance = _supply - _ownerTokens;\n\n    return true;\n  }\n\n  /// @dev returns a boolean indicating if the sale is canceled.\n  ///      This can either be if the minimum raise hasn't been met\n  ///      or if it is 30 days after the sale and the owner hasn't finalized the sale.\n  /// @return bool canceled indicating if the sale is canceled or not\n  function setCanceled(InteractiveCrowdsaleStorage storage self) internal returns(bool){\n    bool canceled = (self.totalValuation < self.minimumRaise) ||\n                    ((now > (self.base.endTime + 30 days)) && !self.isFinalized);\n\n    if(canceled) {self.isCanceled = true;}\n\n    return true;\n  }\n\n  /// @dev If the address' personal cap is below the pointer, refund them all their ETH.\n  ///      if it is above the pointer, calculate tokens purchased and refund leftoever ETH\n  /// @param self Stored crowdsale from crowdsale contract\n  /// @return bool success if the contract runs successfully\n  function retreiveFinalResult(InteractiveCrowdsaleStorage storage self) public returns (bool) {\n    require(now > self.base.endTime);\n    require(self.personalCaps[msg.sender] > 0);\n\n    uint256 numTokens;\n    uint256 remainder;\n\n    if(!self.isFinalized){\n      require(setCanceled(self));\n      require(self.isCanceled);\n    }\n\n    if (self.isCanceled) {\n      // if the sale was canceled, everyone gets a full refund\n      self.base.leftoverWei[msg.sender] += self.base.hasContributed[msg.sender];\n      self.base.hasContributed[msg.sender] = 0;\n      LogErrorMsg(self.totalValuation, \"Sale is canceled, all bids have been refunded!\");\n      return true;\n    }\n\n    if (self.personalCaps[msg.sender] < self.totalValuation) {\n\n      // full refund if personal cap is less than total valuation\n      self.base.leftoverWei[msg.sender] += self.base.hasContributed[msg.sender];\n\n      // set hasContributed to 0 to prevent participant from calling this over and over\n      self.base.hasContributed[msg.sender] = 0;\n\n      return self.base.withdrawLeftoverWei();\n\n    } else if (self.personalCaps[msg.sender] == self.totalValuation) {\n\n      // calculate the portion that this address has to take out of their bid\n      uint256 refundAmount = (self.q*self.base.hasContributed[msg.sender])/100;\n\n      // refund that amount of wei to the address\n      self.base.leftoverWei[msg.sender] += refundAmount;\n\n      // subtract that amount the address' contribution\n      self.base.hasContributed[msg.sender] -= refundAmount;\n    }\n\n    LogErrorMsg(self.base.hasContributed[msg.sender],\"contribution\");\n    LogErrorMsg(self.pricePurchasedAt[msg.sender],\"price\");\n    LogErrorMsg(self.q,\"percentage\");\n    // calculate the number of tokens that the bidder purchased\n    (numTokens, remainder) = calculateTokenPurchase(self.base.hasContributed[msg.sender],\n                                                    self.pricePurchasedAt[msg.sender]);\n\n    // add tokens to the bidders purchase.  can't overflow because it will be under the cap\n    self.base.withdrawTokensMap[msg.sender] += numTokens;\n    self.valueCommitted = self.valueCommitted - remainder;\n    self.base.leftoverWei[msg.sender] += remainder;\n\n    // burn any extra bonus tokens\n    uint256 _fullBonus;\n    uint256 _fullBonusPrice = (self.base.tokensPerEth*(100 + self.priceBonusPercent))/100;\n    (_fullBonus, remainder) = calculateTokenPurchase(self.base.hasContributed[msg.sender], _fullBonusPrice);\n    uint256 _leftoverBonus = _fullBonus - numTokens;\n    self.base.token.burnToken(_leftoverBonus);\n\n    self.base.hasContributed[msg.sender] = 0;\n\n    // send tokens and leftoverWei to the address calling the function\n    self.base.withdrawTokens();\n\n    self.base.withdrawLeftoverWei();\n\n  }\n\n\n\n   /*Functions \"inherited\" from CrowdsaleLib library*/\n\n  function withdrawLeftoverWei(InteractiveCrowdsaleStorage storage self) internal returns (bool) {\n\n    return self.base.withdrawLeftoverWei();\n  }\n\n  function withdrawOwnerEth(InteractiveCrowdsaleStorage storage self) internal returns (bool) {\n\n    return self.base.withdrawOwnerEth();\n  }\n\n  function crowdsaleActive(InteractiveCrowdsaleStorage storage self) internal view returns (bool) {\n    return self.base.crowdsaleActive();\n  }\n\n  function crowdsaleEnded(InteractiveCrowdsaleStorage storage self) internal view returns (bool) {\n    return self.base.crowdsaleEnded();\n  }\n\n  function getPersonalCap(InteractiveCrowdsaleStorage storage self, address _bidder) internal view returns (uint256) {\n    return self.personalCaps[_bidder];\n  }\n\n  function getTokensSold(InteractiveCrowdsaleStorage storage self) internal view returns (uint256) {\n    return self.base.getTokensSold();\n  }\n\n}\n",
  "sourcePath": "/Users/hackdom/Projects/ethereum-libraries/CrowdsaleLib/IICOLib/truffle/contracts/InteractiveCrowdsaleLib.sol",
  "compiler": {
    "name": "solc",
    "version": "0.4.18+commit.9cf6e910.Emscripten.clang"
  },
  "schemaVersion": "1.0.1",
  "updatedAt": "2018-01-15T10:40:22.495Z"
}